:020000040800F2
:1000000000000220ADA800084D420008554200083B
:100010005D420008654200086D42000800000000D3
:100020000000000000000000000000007542000811
:100030008342000800000000914200089F4200082F
:10004000FDA80008FDA80008FDA80008FDA80008FC
:10005000FDA80008FDA80008FDA80008FDA80008EC
:10006000FDA80008AB420008FDA80008FDA8000894
:10007000FDA80008FDA80008FDA80008FDA80008CC
:10008000FDA80008FDA80008FDA80008FDA80008BC
:10009000FDA80008FDA80008FDA80008FDA80008AC
:1000A000FDA80008FDA80008FDA80008FDA800089C
:1000B000FDA80008FDA80008FDA80008FDA800088C
:1000C000FDA80008FDA80008FDA80008FDA800087C
:1000D000FDA80008FDA80008FDA80008FDA800086C
:1000E000B9420008FDA80008FDA80008FDA8000806
:1000F000FDA80008FDA80008FDA80008FDA800084C
:10010000FDA80008D1420008E5420008FDA800084B
:10011000FDA80008FDA80008F9420008FDA8000895
:1001200015430008FDA80008FDA80008FDA8000868
:10013000FDA80008FDA80008FDA80008FDA800080B
:10014000FDA80008FDA80008FDA80008FDA80008FB
:10015000FDA80008FDA80008FDA80008FDA80008EB
:10016000FDA80008FDA80008FDA80008FDA80008DB
:10017000FDA80008FDA80008FDA80008FDA80008CB
:10018000FDA80008FDA80008FDA80008FDA80008BB
:10019000FDA8000800000000FDA80008FDA8000858
:1001A000FDA80008FDA80008FDA80008FDA800089B
:1001B000FDA80008FDA80008FDA80008FDA800088B
:1001C000FDA80008FDA80008FDA80008FDA800087B
:0801D000FDA80008FDA80008CD
:1001E00010B5054C237833B9044B13B10448AFF371
:1001F00000800123237010BDE005002000000000F6
:1002000028D2000808B5034B1BB103490348AFF3DC
:10021000008008BD00000000E405002028D200088E
:1002200001F0FF01102A2BDB10F0070F08D010F8A7
:10023000013B013A8B422DD010F0070F42B3F6D1AB
:10024000F0B441EA012141EA014122F007047FF0C4
:1002500000070023F0E80256083C85EA010586EA1B
:10026000010685FA47F5A3FA87F586FA47F6A5FA57
:1002700087F68EB9EED1F0BC01F0FF0102F0070263
:1002800032B110F8013B013A83EA010313B1F8D10E
:100290000020704701387047002D06BF35460338EF
:1002A000073815F0010F07D1013015F4807F02BF28
:1002B000013015F4C03F0130F0BC0138704700BF79
:1002C000034613F8012B002AFBD1181A0138704796
:1002D00081F0004102E000BF83F0004330B54FEAF7
:1002E00041044FEA430594EA050F08BF90EA020F64
:1002F0001FBF54EA000C55EA020C7FEA645C7FEAF7
:10030000655C00F0E2804FEA5454D4EB5555B8BF19
:100310006D420CDD2C4480EA020281EA030382EA8A
:10032000000083EA010180EA020281EA0303362D1C
:1003300088BF30BD11F0004F4FEA01314FF4801CEF
:100340004CEA113102D0404261EB410113F0004F01
:100350004FEA03334CEA133302D0524263EB4303B8
:1003600094EA050F00F0A780A4F10104D5F1200E56
:100370000DDB02FA0EFC22FA05F2801841F10001B1
:1003800003FA0EF2801843FA05F359410EE0A5F185
:1003900020050EF1200E012A03FA0EFC28BF4CF0B6
:1003A000020C43FA05F3C01851EBE37101F000456C
:1003B00007D54FF0000EDCF1000C7EEB00006EEB79
:1003C0000101B1F5801F1BD3B1F5001F0CD3490803
:1003D0005FEA30004FEA3C0C04F101044FEA44525A
:1003E00012F5800F80F09A80BCF1004F08BF5FEAE1
:1003F000500C50F1000041EB045141EA050130BDC1
:100400005FEA4C0C404141EB0101013C28BFB1F5D2
:10041000801FE9D291F0000F04BF01460020B1FA1D
:1004200081F308BF2033A3F10B03B3F120020CDAF0
:100430000C3208DD02F1140CC2F10C0201FA0CF0CE
:1004400021FA02F10CE002F11402D8BFC2F1200C33
:1004500001FA02F120FA0CFCDCBF41EA0C019040E9
:10046000E41AA2BF01EB0451294330BD6FEA040432
:100470001F3C1CDA0C340EDC04F11404C4F120021D
:1004800020FA04F001FA02F340EA030021FA04F32F
:1004900045EA030130BDC4F10C04C4F1200220FA86
:1004A00002F001FA04F340EA0300294630BD21FAC4
:1004B00004F0294630BD94F0000F83F4801306BF8A
:1004C00081F480110134013D4EE77FEA645C18BF7E
:1004D0007FEA655C29D094EA050F08BF90EA020F15
:1004E00005D054EA000C04BF1946104630BD91EA0D
:1004F000030F1EBF0021002030BD5FEA545C05D110
:100500004000494128BF41F0004130BD14F580044E
:100510003CBF01F5801130BD01F0004545F0FE41C2
:1005200041F470014FF0000030BD7FEA645C1ABFF7
:10053000194610467FEA655C1CBF0B46024650EA2E
:10054000013406BF52EA033591EA030F41F400215A
:1005500030BD00BF90F0000F04BF0021704730B5E0
:100560004FF4806404F132044FF000054FF00001B5
:1005700050E700BF90F0000F04BF0021704730B576
:100580004FF4806404F1320410F0004548BF40424B
:100590004FF000013EE700BF42004FEAE2014FEAA0
:1005A00031014FEA02701FBF12F07F4393F07F4F7B
:1005B00081F06051704732F07F4208BF704793F07E
:1005C0007F4F04BF41F40021704730B54FF4607491
:1005D00001F0004521F000411CE700BF50EA010294
:1005E00008BF704730B54FF000050AE050EA01023D
:1005F00008BF704730B511F0004502D5404261EBAD
:1006000041014FF4806404F132045FEA915C3FF4ED
:10061000D8AE4FF003025FEADC0C18BF03325FEA8A
:10062000DC0C18BF033202EBDC02C2F1200300FA3B
:1006300003FC20FA02F001FA03FE40EA0E0021FA60
:1006400002F11444BDE600BF70B54FF0FF0C4CF44E
:10065000E06C1CEA11541DBF1CEA135594EA0C0F00
:1006600095EA0C0F00F0DEF82C4481EA030621EA3B
:100670004C5123EA4C5350EA013518BF52EA033576
:1006800041F4801143F4801338D0A0FB02CE4FF028
:100690000005E1FB02E506F00042E0FB03E54FF058
:1006A0000006E1FB03569CF0000F18BF4EF0010E50
:1006B000A4F1FF04B6F5007F64F5407404D25FEA4C
:1006C0004E0E6D4146EB060642EAC62141EA5551FF
:1006D0004FEAC52040EA5E504FEACE2EB4F1FD0C41
:1006E00088BFBCF5E06F1ED8BEF1004F08BF5FEABF
:1006F000500E50F1000041EB045170BD06F0004671
:1007000046EA010140EA020081EA0301B4EB5C041D
:10071000C2BFD4EB0C0541EA045170BD41F4801115
:100720004FF0000E013C00F3AB8014F1360FDEBF3A
:10073000002001F0004170BDC4F10004203C35DA16
:100740000C341BDC04F11404C4F1200500FA05F399
:1007500020FA04F001FA05F240EA020001F000423A
:1007600021F0004110EBD37021FA04F642EB0601B0
:100770005EEA430E08BF20EAD37070BDC4F10C04DA
:10078000C4F1200500FA04F320FA05F001FA04F29E
:1007900040EA020001F0004110EBD37041F100018A
:1007A0005EEA430E08BF20EAD37070BDC4F1200595
:1007B00000FA05F24EEA020E20FA04F301FA05F2FD
:1007C00043EA020321FA04F001F0004121FA04F2A5
:1007D00020EA020000EBD3705EEA430E08BF20EA75
:1007E000D37070BD94F0000F0FD101F000464000AF
:1007F00041EB010111F4801F08BF013CF7D041EA31
:10080000060195F0000F18BF704703F00046520034
:1008100043EB030313F4801F08BF013DF7D043EA05
:100820000603704794EA0C0F0CEA135518BF95EABB
:100830000C0F0CD050EA410618BF52EA4306D1D142
:1008400081EA030101F000414FF0000070BD50EA61
:10085000410606BF1046194652EA430619D094EAEB
:100860000C0F02D150EA013613D195EA0C0F05D1D5
:1008700052EA03361CBF104619460AD181EA030129
:1008800001F0004141F0FE4141F470014FF00000E1
:1008900070BD41F0FE4141F4780170BD70B54FF07C
:1008A000FF0C4CF4E06C1CEA11541DBF1CEA1355FC
:1008B00094EA0C0F95EA0C0F00F0A7F8A4EB0504DE
:1008C00081EA030E52EA03354FEA013100F08880D5
:1008D0004FEA03334FF0805545EA131343EA12639E
:1008E0004FEA022245EA111545EA10654FEA002653
:1008F0000EF000419D4208BF964244F1FD0404F50C
:10090000407402D25B084FEA3202B61A65EB030567
:100910005B084FEA32024FF480104FF4002CB6EB24
:10092000020E75EB030E22BFB61A754640EA0C00A4
:100930005B084FEA3202B6EB020E75EB030E22BFE4
:10094000B61A754640EA5C005B084FEA3202B6EB25
:10095000020E75EB030E22BFB61A754640EA9C00E4
:100960005B084FEA3202B6EB020E75EB030E22BFB4
:10097000B61A754640EADC0055EA060E18D04FEA72
:10098000051545EA16754FEA06164FEAC30343EA12
:1009900052734FEAC2025FEA1C1CC0D111F4801FDF
:1009A0000BD141EA00014FF000004FF0004CB6E7D8
:1009B00011F4801F04BF01430020B4F1FD0C88BF77
:1009C000BCF5E06F3FF6AFAEB5EB030C04BFB6EB82
:1009D000020C5FEA500C50F1000041EB045170BD75
:1009E0000EF0004E4EEA113114EB5C04C2BFD4EBA2
:1009F0000C0541EA045170BD41F480114FF0000E26
:100A0000013C90E645EA060E8DE60CEA135594EAA1
:100A10000C0F08BF95EA0C0F3FF43BAF94EA0C0FA4
:100A20000AD150EA01347FF434AF95EA0C0F7FF419
:100A300025AF104619462CE795EA0C0F06D152EA6D
:100A400003353FF4FDAE1046194622E750EA410651
:100A500018BF52EA43067FF4C5AE50EA41047FF462
:100A60000DAF52EA43057FF4EBAE12E74FF0FF3CC7
:100A700006E000BF4FF0010C02E000BF4FF0010C98
:100A80004DF804CD4FEA410C7FEA6C5C4FEA430C11
:100A900018BF7FEA6C5C1BD001B050EA410C0CBF60
:100AA00052EA430C91EA030F02BF90EA020F0020C2
:100AB000704710F1000F91EA030F58BF994208BF29
:100AC00090422CBFD8176FEAE37040F001007047E6
:100AD0004FEA410C7FEA6C5C02D150EA013C07D13D
:100AE0004FEA430C7FEA6C5CD6D152EA033CD3D088
:100AF0005DF8040B704700BF8446104662468C4682
:100B00001946634600E000BF01B5FFF7B7FF0028B4
:100B100048BF10F1000F01BD4DF808EDFFF7F4FFDD
:100B20000CBF012000205DF808FB00BF4DF808ED68
:100B3000FFF7EAFF34BF012000205DF808FB00BF8B
:100B40004DF808EDFFF7E0FF94BF012000205DF8AD
:100B500008FB00BF4DF808EDFFF7CEFF94BF012062
:100B600000205DF808FB00BF4DF808EDFFF7C4FF5B
:100B700034BF012000205DF808FB00BF4FEA410CA4
:100B80007FEA6C5C02D150EA013C0AD14FEA430C87
:100B90007FEA6C5C02D152EA033C02D14FF00000C4
:100BA00070474FF0010070474FEA410212F5001202
:100BB00015D211D56FF47873B3EB625212D94FEAA4
:100BC000C12343F0004343EA505311F0004F23FA8E
:100BD00002F018BF404270474FF00000704750EAE3
:100BE000013005D111F0004008BF6FF000407047A0
:100BF0004FF00000704700BF80B48DB000AFF861C7
:100C00000B4687ED050AC7ED040A87ED031AC7ED09
:100C1000021A87ED012AC7ED002AFB76FB69FA7EEE
:100C20001A70FB697A695A60FB693A699A60FB69D4
:100C3000FA68DA60FB69BA681A62FB697A685A6313
:100C4000FB693A689A63FB694FF00002DA61FB695D
:100C50004FF000021A63FB694FF000025A62FB6911
:100C60004FF000029A62FB694FF00002DA62FB6902
:100C70004FF00002DA63FB694FF000021A64FB696F
:100C80001033BB62BB6AFB62BB6A0C337B6208E059
:100C9000FB6A3B623B6A4FF000021A60FB6A043356
:100CA000FB62FA6A7B6A9A42F2D100BF00BF343716
:100CB000BD465DF8047B704780B584B000AF7860B6
:100CC0003960786800F066FA3B681A687B681A60D9
:100CD0003B685A687B685A603B681A897B681A814E
:100CE0003B689A7A7B689A723B689A897B689A819A
:100CF0003B681A697B681A613B681B7D082B02D828
:100D00003B681A7D00E008227B681A753B689A6987
:100D10007B689A613B68DA697B68DA613B6893F8C3
:100D200020207B6883F820203B6893F821207B6893
:100D300083F821203B685A6A7B685A620023FB7360
:100D400018E0FB7B7A680A339B0013444FF00002E3
:100D50001A60FB7B7A6812339B0013444FF0000249
:100D60001A60FA7B7B683432002123F81210FB7B77
:100D70000133FB73FB7B072BE3D900BF00BF1037A8
:100D8000BD4680BD80B582B000AF78607B681B68CF
:100D9000002B01D100230BE07B681B687F211846E4
:100DA00004F0EEFD0346002B0CBF01230023DBB251
:100DB00018460837BD4680BD80B582B000AF786068
:100DC000786800F03DF9034683F00103DBB2002BA5
:100DD00001D000234CE07B6893F82030002B0AD030
:100DE0007868FFF7CFFF034683F00103DBB2002BE7
:100DF00001D0012300E00023002B01D0002337E0C5
:100E0000786800F073F9034683F00103DBB2002B2E
:100E100001D000232CE07B6818687B6859687B68E8
:100E20001B891A4603F0A8FE0346002B14BF0123BA
:100E30000023DBB2002B04D0786800F0ABF900236C
:100E400016E07B6893F82130002B10D07B681B687C
:100E50005B6D002B0BD07B681B685B6D1B681A6891
:100E60007B681B685B6D1B6822F004021A6001231B
:100E700018460837BD4680BD80B588B000AF7860A1
:100E8000786800F00AF9034683F00103DBB2002B17
:100E900001D0002384E00023FB770023BB7779E0B7
:100EA0007B681969BA7F13465B0013449B000B44AF
:100EB0003B613B691B78072B68D83B695A787B6894
:100EC0009B7A9A4262D20023BB610023FB820EE030
:100ED0003B695A78FB8A1946786800F07BF803462C
:100EE0001A46BB691344BB61FB8A0133FB827B68F2
:100EF0009B89FA8A9A42EBD3BB6907EE903AF8EEE7
:100F0000676A7B689B8907EE903AB8EE677AC6EE0F
:100F1000877AC7ED037A7B6893ED067AD7ED037A7B
:100F200067EE276A7B6893ED077AC6EE877AC7ED8E
:100F3000027A3B691B781A46D7ED037AFCEEE77A12
:100F400017EE903A99B27B68343223F812103B695D
:100F50001B787A6812339B001344BA681A603B69A5
:100F600093ED017AD7ED027A27EE277A3B69D3ED2C
:100F7000027A3B691B7877EE277A7A680A339B00FE
:100F80001344C3ED007A0123FB7700E000BFBB7F71
:100F90000133BB777B681B7DBA7F9A4280D3FB7F8E
:100FA00018462037BD4680BD80B483B000AF78605E
:100FB0000B46FB70FB78072B05D8FA787B68343238
:100FC00033F8123000E0002318460C37BD465DF8B8
:100FD000047B704780B485B000AF78600B467B809F
:100FE00013467B707B685B68002B09D07B689B7A1B
:100FF0007A789A4204D27B689B897A889A4201D394
:10100000002317E07B689B7A1A467B8813FB02F368
:101010009AB27B789BB21344FB817B681B89FA8967
:101020009A4206D27B685A68FB895B0013441B888E
:1010300000E0002318461437BD465DF8047B704776
:1010400080B483B000AF78607B681B68002B1DD034
:101050007B685B68002B19D07B681B89002B15D03F
:101060007B689B7A002B11D07B689B89002B0DD06D
:101070007B681A897B689B7A19467B689B8911FB80
:1010800003F39BB29A4201D3012300E000231846E8
:101090000C37BD465DF8047B704780B582B000AF69
:1010A00078607868FFF7CCFF034683F00103DBB27A
:1010B000002B0FD17B681B69002B0BD07B681B7D3D
:1010C000002B07D07B68D3ED077AF5EEC07AF1EEFE
:1010D00010FA01D8012300E00023002B01D00023E7
:1010E00000E0012318460837BD4680BD80B48BB0B0
:1010F00000AF78607B681B68002B01D100233EE0C5
:10110000224BFB61214B7B62214BBB6119E07B6A67
:10111000BB60BB681B687A689A420AD0BB681B68D0
:10112000002B0BD0BB681B681A687B681B689A424F
:1011300004D1BB687A681A60012320E07B6A04331B
:101140007B627A6ABB699A42E1D1104B7B610F4B9B
:101150003B620F4B3B610DE03B6AFB60FB681B6829
:10116000002B04D1FB687A681A60012307E03B6A10
:1011700004333B623A6A3B699A42EDD10023184638
:101180002C37BD465DF8047B704700BFFC0500208E
:101190001C06002080B487B000AF78600F4B3B6125
:1011A0000E4B7B610E4BFB600CE07B69BB60BB6848
:1011B0001B687A689A4202D1BB6800221A607B6978
:1011C00004337B617A69FB689A42EED100BF00BFAD
:1011D0001C37BD465DF8047B704700BFFC0500204E
:1011E0001C06002080B487B000AF0346FB710F4B94
:1011F0003B610E4B7B610E4BFB600BE07B69BB6080
:10120000BB681B78FA799A4201D1BB6807E07B6919
:1012100014337B617A69FB689A42EFD10023184648
:101220001C37BD465DF8047B704700BF00000020FE
:101230003C00002080B483B000AF786039607B68E8
:101240001B8A002B01D100230BE07B681B8A1A4606
:101250003B68934203D37B681B8A013B00E03B68F9
:1012600000BF18460C37BD465DF8047B7047000090
:1012700080B483B000AF87ED010AD7ED017A9FED0E
:101280000F7AF4EEC77AF1EE10FA01D50C4B0BE0B1
:10129000D7ED017A9FED0B7AF4EEC77AF1EE10FAF2
:1012A00001DD094B00E07B6807EE903AB0EE670A7B
:1012B0000C37BD465DF8047B704700BFCDCCCC3DFC
:1012C000CDCCCC3D6666663F6666663F80B483B033
:1012D00000AF0346FB71FB79002B08D00B4B1B685A
:1012E000DA680A4B1B6842F01002DA6007E0074B2D
:1012F0001B68DA68054B1B6822F01002DA6000BF39
:101300000C37BD465DF8047B704700BF844D00205C
:1013100080B586B000AF78607B681B6823F4C80393
:10132000002B01D0002340E07B681B68214A13603A
:101330007B689B88002B2AD07B689A881E4B1B6891
:101340005A617B689B885B089AB21B4B1B685A6288
:101350001A4B3B61194B7B61194BFB6013E07B69B6
:10136000BB607B681A68BB685B681340002B07D0C2
:10137000BB681A787B689B881946104600F06AF8AB
:101380007B6914337B617A69FB689A42E7D17B6899
:101390001B7B1846FFF79AFF7B68D3ED027AB0EE0D
:1013A000670A00F05BF9034600BF18461837BD46D0
:1013B00080BD00BF1C060020844D002000000020DE
:1013C0003C00002080B586B000AF78607B6803F4F5
:1013D0008033002B04D04FF48031124807F06CFCAE
:1013E000114B3B61104B7B61104BFB6010E07B6944
:1013F000BB60BB685A687B681340002B05D0BB6894
:101400005B681946074807F057FC7B6914337B611A
:101410007A69FB689A42EAD100BF00BF1837BD461F
:1014200080BD00BF844D0020000000203C00002053
:1014300080B582B000AF78607B68002B03D07968FC
:10144000034807F00CFC00BF0837BD4680BD00BF55
:10145000844D002080B584B000AF03460A46FB717E
:101460001346BB80FB791846FFF7BCFEF860FB68AB
:10147000002B02D0BB88002B01D100230CE0FB68BD
:10148000BA881A82064B1968FB689B68BA88DB0128
:101490000B4494331A60012318461037BD4680BDB3
:1014A000844D002080B588B000AF034687ED000A68
:1014B000FB71FB791846FFF795FEF861FB69002B7D
:1014C00001D1002337E09FED1E1ADFED1E0A97EDD4
:1014D000000A00F021F987ED060AFB691B8A7B618F
:1014E0007B6907EE903AB8EE677AD7ED067A67EE39
:1014F000277AFCEEE77A17EE903A3B617A693B690E
:101500009A4204D97A693B69D31A5B0800E0002348
:10151000FB60FA683B691344BB60FB79FA68012100
:10152000184600F011F8FB79BA680421184600F05B
:101530000BF8034600BF18462037BD4680BD00BFEC
:101540003333733F00000000B0B586B000AF0346F0
:10155000B9607A60FB73FB7B1846FFF743FE786146
:101560007B69002B01D1002371E07B699B68062B0E
:101570002CD1BB68012B08D1374B1C68796878697E
:10158000FFF758FE0346E36160E0BB68022B08D119
:10159000314B1C6879687869FFF74CFE034663623B
:1015A00054E0BB68042B08D12B4B1C687968786920
:1015B000FFF740FE0346A36248E0274B1C687968AA
:1015C0007869FFF737FE0346E3623FE0BB68012B13
:1015D0000DD1214B1C687B699D6879687869FFF79C
:1015E00029FE0246EB0123449C331A602EE0BB68BF
:1015F000022B0DD1184B1C687B699D68796878694E
:10160000FFF718FE0246EB012344A4331A601DE0E5
:10161000BB68042B0DD1104B1C687B699D687968F1
:101620007869FFF707FE0246EB012344A8331A60EE
:101630000CE0094B1C687B699D6879687869FFF745
:10164000F9FD0246EB012344AC331A60012318462E
:101650001837BD46B0BD00BF844D002080B58AB0AC
:1016600000AF87ED010A97ED010AFFF701FEF0EEEA
:10167000407A274BC3ED007A264B1B685B697B627F
:101680007B6A002B02D145F68A037B62204BD3EDA7
:10169000007AB6EE007A67EE877AC7ED067A7B6A43
:1016A0009B087B617B6A07EE903AB8EE677AD7EDCC
:1016B000067A67EE277AB6EE007A67EE877AFDEE55
:1016C000E77A17EE903A3B617A693B69D31A3B623D
:1016D0007A693B691344FB617B6A013BFB603B6AAF
:1016E000002B01DC01233B62FA69FB689A4201DDB1
:1016F000FB68FB61074B1B683A6ADA61054B1B68A4
:10170000FA699A62012318462837BD4680BD00BF9A
:1017100020060020844D002080B485B000AF87ED06
:10172000030AC7ED020A87ED011A97ED037AD7ED98
:10173000027AB4EEE77AF1EE10FA01D5BB680BE05D
:1017400097ED037AD7ED017AB4EEE77AF1EE10FA6D
:1017500001DD7B6800E0FB6807EE903AB0EE670AB7
:101760001437BD465DF8047B7047000080B584B037
:1017700000AFF860B9601346FB71FB68BA681A6085
:10178000FB68FA791A71F86800F052F9FB68174A99
:101790005A63FB68154A9A63FB6840F63D129A87C4
:1017A000FB6840F28162DA87FB6803F15400012391
:1017B0000122022100F09EFAFB6803F140000123A0
:1017C0000122022100F096FA0021F86800F078FA70
:1017D000074808F099F9064808F0EEF9044B1B6831
:1017E00000225A6200BF1037BD4680BD00E0FB44B6
:1017F0009C4F002080B586B000AF78607B681B6886
:10180000002B00F000810023FB75D9E07B681A688B
:10181000FB7D5B0013441B88FB81FB8907EE903A3C
:10182000B8EEE77A7B68D3ED0D7AB4EEE77AF1EEA5
:1018300010FA15DD7B68D3ED0D7A9FED757A27EEF2
:10184000877AFB8907EE903AF8EE677ADFED716AE6
:1018500067EEA67A77EE277A7B68C3ED0D7A0DE006
:101860007B68D3ED0D7A9FED6C7A67EE877A9FEDFA
:101870006B7A77EE877A7B68C3ED0D7AFB8907EE8A
:10188000903AB8EEE77A7B68D3ED0E7AB4EEE77A59
:10189000F1EE10FA15D57B68D3ED0E7A9FED5C7AE8
:1018A00027EE877AFB8907EE903AF8EE677ADFED4C
:1018B000596A67EEA67A77EE277A7B68C3ED0E7ACF
:1018C0000DE07B68D3ED0E7A9FED557A67EE877A4F
:1018D0009FED547A77EE877A7B68C3ED0E7A7B684A
:1018E000D3ED0D7A9FED507A67EE877A9FED4F7AB0
:1018F00077EE877AFCEEE77A17EE903A9AB27B6839
:101900009A877B68D3ED0E7A9FED477A67EE877AE8
:101910009FED467A77EE877AFCEEE77A17EE903AFB
:101920009AB27B68DA877B6803F140007B689B8F03
:10193000FA899A428CBF01230023DBB2194600F0DA
:10194000FAF90346002B13D07B685433184600F095
:1019500033FA7B685B79002B0AD17B6801225A71CC
:101960000121786800F0ACF90121786800F0A6F850
:101970007B6803F154007B68DB8FFA899A4234BF9D
:1019800001230023DBB2194600F0D5F90346002BF2
:1019900013D07B684033184600F00EFA7B685B7901
:1019A000012B0AD17B6800225A710021786800F06F
:1019B00087F90021786800F081F8FB7D0133FB7521
:1019C0007B681B79FA7D9A42FFF420AF40F2DC532A
:1019D0003B617B689B6E40F2DB52934214D87B687C
:1019E0009B6E5A1C7B689A667B689B6E40F2DC5249
:1019F000934209D17B68002283F86C207B68002227
:101A000083F86D2000E000BF1837BD4680BD00BFE1
:101A1000CDCC4C3ECDCC4C3F643B7F3FD7A3D44094
:101A200052B87E3F333311413333333F00201744E4
:101A300080B48BB000AF78607B6800225A717B68FD
:101A400000229A717B6800229A667B68002283F8E4
:101A50006C207B68002283F86D207B680733FB6174
:101A6000FB697B62FB691433BB6107E07B6ABB6087
:101A7000BB6800221A707B6A01337B627A6ABB6999
:101A80009A42F3D17B681B337B617B693B627B6944
:101A90000A333B6107E03B6AFB60FB6800221A7077
:101AA0003B6A01333B623A6A3B699A42F3D100BF19
:101AB00000BF2C37BD465DF8047B704780B584B00D
:101AC00000AF78600B46FB70124B1B685B6AFB60D3
:101AD000104B1B6800225A62FB68C72B04D9FB68B5
:101AE00040F21452934203D97B6800229A710EE0AF
:101AF000FB781946786800F00FF8FB6840F2ED2299
:101B0000934204D9FB781946786800F005F810373D
:101B1000BD4680BD9C4F002080B582B000AF78608C
:101B20000B46FB707B689B79132B16D87B689B79DF
:101B30001A46174B9B5CFA789A4206D17B689B79D0
:101B40000133DAB27B689A7114E0124B4FF48022B1
:101B50009A617B6800229A710CE07B689B79143B48
:101B60007A681344FA78DA717B689B790133DAB2C8
:101B70007B689A717B689B79282B05D17B68002252
:101B80009A71786800F008F800BF0837BD4680BD3C
:101B9000A4D200080008004880B485B000AF786087
:101BA0007B6800229A667B68012283F86C20002300
:101BB000FB7315E0FB7B5B0001337A681344DA7931
:101BC000FB7B01335B0079680B44DB799A4204D1DB
:101BD0007B68002283F86D2066E0FB7B0133FB739A
:101BE000FB7B082BE6D90023BB7318E0BB7B5B00B3
:101BF0007A681344DA79BB7B5B00013379680B4464
:101C0000DB799A4214BF01230023DAB2BB7B114671
:101C10007A6813440A46DA76BB7B0133BB73BB7B1D
:101C2000092BE3D900237B7300233B730FE03B7B3D
:101C300001337A681344DB7E1A463B7B02FA03F3D6
:101C4000DAB27B7B13437B733B7B01333B733B7B80
:101C5000072BECD97B68DA7E7B6883F828207B68C9
:101C60007A7B83F829207B7B07EE903AB8EE677A7F
:101C7000DFED106AC7EE267A9FED0F7A67EE877A5E
:101C80007B68C3ED0B7A7B68D3ED0C7AB6EE007AF5
:101C900067EE877A7B68C3ED0C7A7B68012283F854
:101CA0006D20064B04229A611437BD465DF8047B13
:101CB000704700BF00007F43000016430008004843
:101CC00080B483B000AF78600B46FB70FB78002BCC
:101CD00004D0074B4FF400729A6103E0044B4FF0BD
:101CE00000729A6100BF0C37BD465DF8047B7047F7
:101CF0000004004880B584B000AFF860B9607A6035
:101D00003B60FB68BA681A607B68002B01D07B6877
:101D100000E00123FA6893603B68002B01D03B6828
:101D200000E00123FA68D360F86800F045F800BFCE
:101D30001037BD4680BD80B485B000AF78600B46DB
:101D4000FB70FB78002B1BD07B685A687B681B6894
:101D50009A4211D27B685A687B689B681344FB6087
:101D60007B681B68FA689A4202D97B681B6800E0AE
:101D7000FB687A68536017E07B6801221A7413E0ED
:101D80007B685A687B68DB689A4207D97B685A6827
:101D90007B68DB68D21A7B685A6005E07B680022AA
:101DA0005A607B6800221A747B681B7C18461437C3
:101DB000BD465DF8047B704780B483B000AF7860A7
:101DC0007B6800225A607B6800221A7400BF0C37BF
:101DD000BD465DF8047B704780B483B000AF87EDEB
:101DE000010AD7ED017AF5EEC07AF1EE10FA01D8CA
:101DF0000B4B0BE0D7ED017AB7EE007AF4EEC77A21
:101E0000F1EE10FA01DB074B00E07B6807EE903A39
:101E1000B0EE670A0C37BD465DF8047B704700BF23
:101E2000CDCCCC3D6666663F80B584B000AFF8602F
:101E300087ED020AC7ED010A97ED020AFFF7CCFF12
:101E4000F0EE407AFB68C3ED007AFB687A685A606E
:101E5000FB6801221A7200BF1037BD4680BD80B4F6
:101E600085B000AF786087ED000A7B681B7A83F04D
:101E70000103DBB2002B01D03B681AE07B6893EDD5
:101E8000007AD7ED007A27EE277A7B68D3ED007AC7
:101E9000F7EE006A76EEE76A7B68D3ED017A66EECC
:101EA000A77A77EE277AC7ED037A7B68FA685A60DB
:101EB000FB6807EE903AB0EE670A1437BD465DF84E
:101EC000047B704780B584B000AF78600B46FB7030
:101ED000FB78FB73FB7B002B02D10123FB7304E037
:101EE000FB7B802B01D98023FB737B68FA7B83F813
:101EF0000621786800F06EF800BF1037BD4680BD3F
:101F000080B483B000AF78600B467B807B6893F829
:101F10000631002B05D17B8807EE903AF8EE677A00
:101F200051E07B68D3F800317A6892F804211146B9
:101F30007A6832F811209A1A7B68C3F800217B680E
:101F400093F8043119467B687A8823F811207B685E
:101F5000D3F800217B881A447B68C3F800217B6892
:101F600093F804310133DAB27B6883F804217B688B
:101F700093F804217B6893F806319A4203D37B6877
:101F8000002283F804217B6893F805217B6893F88D
:101F900006319A4207D27B6893F805310133DAB2F1
:101FA0007B6883F805217B68D3F8003107EE903A0F
:101FB000F8EE676A7B6893F8053107EE903AB8EE61
:101FC000677AC6EE877AB0EE670A0C37BD465DF8D1
:101FD000047B704780B485B000AF78607B680022D6
:101FE000C3F800217B68002283F804217B6800226B
:101FF00083F805210023FB7307E0FA7B7B6800214F
:1020000023F81210FB7B0133FB7397F90F30002B81
:10201000F3DA00BF00BF1437BD465DF8047B70479C
:1020200080B582B000AF264B3B60A8220021386803
:1020300009F0C8F93B6803221A613B6803225A6120
:102040003B68204A9A613B681F4ADA613B684FF45B
:1020500080621A623B6800229A623B6800225A62E0
:102060003B680022DA623B68164A1A663B68174AE8
:102070005A663B6810229A663B6800221A673B68E2
:102080000022DA663B6800225A67BFF35F8F0023A5
:102090007B600CE07B68C3F10F030D4AD15C3A68AA
:1020A0007B6813440A461A707B6801337B607B6847
:1020B0000F2BEFD9BFF35F8F00BF0837BD4680BD40
:1020C0002406002040D20008CC060020CC0A0020C4
:1020D000B8D2000880B58AB000AFF860B9607A6005
:1020E00000233B62FB68DB68FB61FB681B69BB612B
:1020F000BA69FB699A4205D9BA69FB69D31A013BEF
:102100007B6207E0FB689A68B969FB69CB1A1344E4
:10211000013B7B62FB689A68FB69D31A7A6A934237
:1021200028BF13467B627A6A7B68934228BF1346B6
:102130007B62FB685A68FB6913447B617A6AB96801
:10214000786909F0BEF93A6A7B6A13443B62BA685F
:102150007B6A1344BB607A687B6AD31A7B60FA6936
:102160007B6A1344FB61FB689B68FA699A4201D160
:102170000023FB61BFF35F8FFB68FA69DA607B685D
:10218000002BB2D13B6A18462837BD4680BD80B5CA
:1021900088B000AFF860B9607A60FB68DB68FB610B
:1021A000FB689A68FB69D31ABB61BA697B689A427B
:1021B00011D9FB685A68FB6913443B617A68B968B6
:1021C000386909F07EF9BFF35F8FFA697B681A44BA
:1021D000FB68DA601FE0BB697B61FB685A68FB69DA
:1021E00013443B617A69B968386909F06AF97A6819
:1021F000BB69D31A7B61FB685B683B61BA68BB69EA
:1022000013447A691946386909F05BF9BFF35F8FA7
:10221000FB687A69DA6000BF2037BD4680BD80B4B4
:1022200087B000AF78607B681B693B617B68DB68C7
:10223000FB603A69FB689A4208D87B689A68FB6839
:10224000D21A3B691344013B7B6104E03A69FB68A5
:10225000D31A013B7B617B6918461C37BD465DF88C
:10226000047B704780B588B000AFF860B9607A60D1
:10227000BB68BB61FB685A1C13465B001344DB0060
:102280001F4A13447B617B695B69022B29D0022BB7
:102290002ED8002B02D0012B13D029E07869FFF74C
:1022A000BEFF38613A697B689A4202D20023FB6123
:1022B00021E07B68FB617A68B9697869FFF767FF9D
:1022C00019E07869FFF7ABFF38617A683B699342A0
:1022D00028BF1346FB61FA69B9697869FFF757FFB0
:1022E00009E07A68B9697869FFF7F4FEF86102E0FD
:1022F0000023FB6100BFFB6918462037BD4680BD47
:102300002406002080B588B000AFF860B9607A601C
:102310000E4BFB61FB691B78DBB2532B01D0FFF73F
:102320007FFEEFF311834FF0200181F31188BB6131
:102330007A68B968F868FFF795FF7861BB6983F33D
:1023400011887B6918462037BD4680BD24060020D1
:1023500080B58AB000AFF860B9607A603B60204B0E
:102360003B623B6A1B78DBB2532B01D0FFF758FE70
:102370001B4BFB61FB68022B2AD8EFF311834FF054
:10238000200181F31188BB61FB685A1C13465B0076
:102390001344DB00FA6913447B61FB68002B0ED009
:1023A0007B69BA681A607B697A685A607B693A68A7
:1023B0009A607B6900221A617B690022DA607B697E
:1023C0003A6B5A61BB6983F3118800237B6202E098
:1023D0004FF0FF337B627B6A18462837BD4680BDCD
:1023E0002406002080B500AFFFF71AFE00BF80BDB5
:1023F00080B584B000AF7860164BDB68154A43F0B7
:102400008073D360144B00225A60134B1B68124A2E
:1024100043F00103136004F041F9F8607B68FA6847
:102420001A60FB680D4AA2FB03239A097B685A6075
:10243000FB680B4AA2FB03239A0C7B689A607B68BB
:102440000022DA60786800F00DF87B6818461037D3
:10245000BD4680BDF0ED00E0001000E0D34D6210FD
:1024600083DE1B4380B485B000AF7860154B1B78CA
:10247000DBB2002B0CBF01230023DBB2002B1BD0EF
:10248000104B01221A70104B5B68FB607B681A6965
:10249000FB689A428CBF01230023DBB2002B04D0DF
:1024A0007B68DB685A1C7B68DA60074B5A687B687C
:1024B0001A61044B00221A7000BF1437BD465DF844
:1024C000047B7047DC0A0020001000E080B500AFFC
:1024D000074B1B6803F00103002B05D10548FFF7EC
:1024E00087FF034B01221A60024B184680BD00BFD4
:1024F000080B0020E00A002080B483B000AFEFF3A7
:1025000010833B603B687B6072B600BF7B681846F7
:102510000C37BD465DF8047B704780B485B000AFD2
:1025200078607B68FB60FB6883F3108800BF00BFA6
:102530001437BD465DF8047B7047000080B582B05B
:1025400002AFFFF7C3FF03460C4A1360002300935A
:102550004FF480530A4A0B490020FFF7F9FE0A4B5B
:1025600000221A60094B00221A60094B00221A60EF
:10257000084B00221A6000BFBD4680BD1C3B0020F6
:10258000203B00204CD20008143B0020183B0020C8
:10259000103B00200C3B002080B483B000AF78607B
:1025A0000B46FB707B68FA781A707B68013318461B
:1025B0000C37BD465DF8047B7047000080B586B0DF
:1025C00000AF786039603B68002B05D13021786816
:1025D000FFF7E2FF034631E00023FB7519E039689D
:1025E000184BA3FB0123DA0813469B0013445B003E
:1025F000CA1AD3B23033DAB2FB7D591CF9751833DD
:102600003B4403F80C2C3B680E4AA2FB0323DB0877
:102610003B603B68002BE2D10CE0FB7D013BFB758E
:10262000FB7D18333B4413F80C3C19467868FFF7E0
:10263000B3FF7860FB7D002BEFD17B68184618371D
:10264000BD4680BDCDCCCCCC80B58CB000AFF860A1
:1026500087ED020A0B46FB71BB68FB62D7ED0B7A74
:10266000F5EEC07AF1EE10FA0AD52D21F868FFF7E1
:1026700093FFF860D7ED0B7AF1EE677AC7ED0B7A2E
:10268000D7ED0B7AFCEEE77A17EE903ABB61B969A9
:10269000F868FFF793FFF860FB79002B01D1FB6826
:1026A00068E02E21F868FFF777FFF860BB6907EE56
:1026B000903AF8EE677A97ED0B7A77EE677AC7ED86
:1026C0000A7A002387F827300CE0D7ED0A7AB2EEB9
:1026D000047A67EE877AC7ED0A7A97F827300133D4
:1026E00087F8273097F82720FB799A42EDD3D7ED6A
:1026F0000A7AB6EE007A77EE877AFCEEE77A17EE82
:10270000903A7B6101233B620123FB7708E03A6A40
:1027100013469B0013445B003B62FB7F0133FB7756
:10272000FA7FFB799A42F2D30023BB771DE07A69E6
:102730003B6AB2FBF3F1114BA3FB0123DA0813460A
:102740009B0013445B00CA1AD3B23033DBB2194684
:10275000F868FFF721FFF8603B6A084AA2FB0323F1
:10276000DB083B62BB7F0133BB77BA7FFB799A42C0
:10277000DDD3FB6818463037BD4680BDCDCCCCCC10
:1027800080B5A4B000AF786007F10C03C7F88C30B7
:102790006321D7F88C00FFF7FFFEC7F88C00682193
:1027A000D7F88C00FFF7F8FEC7F88C003A21D7F86D
:1027B0008C00FFF7F1FEC7F88C007B681B68194698
:1027C000D7F88C00FFF7FAFEC7F88C002C21D7F859
:1027D0008C00FFF7E1FEC7F88C007B689B881946E8
:1027E000D7F88C00FFF7EAFEC7F88C002C21D7F849
:1027F0008C00FFF7D1FEC7F88C007B68DB88194698
:10280000D7F88C00FFF7DAFEC7F88C002C21D7F838
:102810008C00FFF7C1FEC7F88C007B68D3ED027A0D
:102820000321B0EE670AD7F88C00FFF70DFFC7F859
:102830008C002C21D7F88C00FFF7AEFEC7F88C0077
:102840007B68D3ED037A0321B0EE670AD7F88C00DA
:10285000FFF7FAFEC7F88C002C21D7F88C00FFF7A1
:102860009BFEC7F88C007B68D3ED047A0321B0EEA1
:10287000670AD7F88C00FFF7E7FEC7F88C002C2119
:10288000D7F88C00FFF788FEC7F88C007B689B8A1E
:102890001946D7F88C00FFF791FEC7F88C002C2161
:1028A000D7F88C00FFF778FEC7F88C007B689B7D1B
:1028B0001946D7F88C00FFF781FEC7F88C000D2170
:1028C000D7F88C00FFF768FEC7F88C000A21D7F80C
:1028D0008C00FFF761FEC7F88C0007F10C03D7F8F6
:1028E0008C20D31A1A4607F10C0319460020FFF773
:1028F00009FD00BF9037BD4680BD000080B584B0A3
:1029000000AF1F4B1B68002B0CBF01230023DBB261
:10291000002B31D10023FB602AE0FFF7EDFDB8600A
:10292000184B1B687B607B68002B03D1B868FFF7EE
:10293000F4FD22E07B68013B124A1360124B1B68D6
:102940003B60114B1B680133C3F308030E4A13604D
:10295000B868FFF7E2FD3A6813465B001344DB00FA
:102960000A4A13441846FFF70BFFFB680133FB606C
:10297000FB680F2BD1D900E000BF1037BD4680BDEA
:102980000C3B0020103B0020183B00200C0B0020CB
:1029900080B582B000AF78607B680C4A93420ED15C
:1029A0000B4B1B6801330A4A1360094B1B68012B50
:1029B00007D9074B00221A60FFF7A0FF02E000BF13
:1029C00000E000BF0837BD4680BD00BF044F0020B7
:1029D000204B002080B400AF024B1846BD465DF886
:1029E000047B70473C000020B0B596B000AF786023
:1029F0007B6808220021184608F0E4FC7B68083355
:102A000010220021184608F0DDFC7B6818330822EC
:102A10000021184608F0D6FC7B6803F5CC7324210E
:102A20001846FFF74FFA7B6803F528735A211846BA
:102A3000FFF748FA7B684FF00002C3F8B8237B68C1
:102A40004FF00002C3F8BC237B6803F5C073DFEDD1
:102A5000450A9FED450A1846FFF7E6F97B6803F53E
:102A6000C673DFED400A9FED410A1846FFF7DCF917
:102A7000786800F09DF83E4B07F130041D460FCDFD
:102A80000FC40FCD0FC495E8030084E80300394B51
:102A90003B637B687B6304233B87012387F83A30E1
:102AA0000423BB87344B3B64012387F84430334B0A
:102AB000BB64334BFB647B68203307F13002114663
:102AC0001846FEF7F9F82A4B07F108041D460FCD0A
:102AD0000FC40FCD0FC495E8030084E80300294B11
:102AE000BB607B680833FB6008233B820223BB7416
:102AF0000423BB82244BBB6102233B771F4B3B6209
:102B00001F4B7B627B68983307F108021146184619
:102B1000FEF7D2F800BF7B6820331846FEF732F983
:102B2000034683F00103DBB2002BF4D100BF7B68C6
:102B300098331846FEF726F9034683F00103DBB20B
:102B4000002BF4D17B6803F588737968042218465A
:102B5000FEF70CFE786800F019F800BF5837BD4644
:102B6000B0BD00BF000000003333333F9A99193ED7
:102B70005CD20008784B0020CCD2000881955340ED
:102B800000F07F45E44B0020D8D2000880B582B029
:102B900000AF78607B6820331846FEF70DF97B683C
:102BA00098331846FEF708F900BF0837BD4680BDC8
:102BB00080B582B000AF78607B68183308220021AE
:102BC000184608F0FFFB7B68002283F8B4237B687B
:102BD0004FF00002C3F8B0237B6803F588707B6870
:102BE000183304221946FEF7C1FD00BF0837BD4661
:102BF00080BD000080B582B000AF786039603B686E
:102C00000E4A934214D17B6898331846FEF734F984
:102C1000034683F00103DBB2002B01D0002308E060
:102C20007B6898331946786800F01AF8012300E0B1
:102C3000002318460837BD4680BD00BFE44B002086
:102C400080B582B000AF786039607B6803F5887327
:102C50001846FEF7CFFD00BF0837BD4680BD000017
:102C600080B586B000AF786039607B682033194644
:102C70007868FFF7E5FF02213868FEF795F903460B
:102C8000FB8201213868FEF78FF90346BB82FB8A7D
:102C900007EE903AF8EE677A334BC3ED007ABB8AC1
:102CA00007EE903AF8EE677A304BC3ED007A7B6816
:102CB00003F52873BA8A11461846FFF721F9F0EE9A
:102CC000407A7B68C3EDEB7A7B6803F5CC73FA8AB4
:102CD00011461846FFF714F9F0EE407A7B68C3ED11
:102CE000EA7A7B68D3EDEA7A9FED211ADFED210ABB
:102CF000B0EE670A00F044F887ED040A7B68D3ED74
:102D0000EB7A9FED1D1ADFED1D0AB0EE670A00F0A9
:102D100037F887ED030A7B6803F5C07397ED040A63
:102D20001846FFF79CF8F0EE407A7B68C3EDEE7A28
:102D30007B6803F5C67397ED030A1846FFF78FF813
:102D4000F0EE407A7B68C3EDEF7A7B6893EDEE7A24
:102D50007B68D3EDEF7A67EE277A7B68C3EDF07A74
:102D600000BF1837BD4680BD244B0020284B0020F3
:102D70007A53113CABE7243F5F294B3B52491DBFBF
:102D800080B485B000AF87ED030AC7ED020A87ED76
:102D9000011A97ED037AD7ED017A27EE277AD7ED5E
:102DA000027A77EE277AB0EE670A1437BD465DF8EF
:102DB000047B704780B400AF024B1846BD465DF8F7
:102DC000047B70472C4B002090B587B000AF786033
:102DD000FFF700FE03461846FFF706FE7B68DFEDAF
:102DE000162AB7EE002ADFED151A9FED131ADFED54
:102DF000140A9FED140A01211846FDF7FDFEFFF7A6
:102E0000F1FAFFF79BFB7B68012283F847200E4B0A
:102E100007F108040FCB84E80F0007F108031846F8
:102E2000FEF776FA786800F017F9786800F0CEF8C7
:102E300000BF1C37BD4690BD00000000CDCC4C3E0D
:102E4000CDCCCC3D0AD7233C84D2000880B582B0DB
:102E500000AF7860064BD3ED007AB0EE670AFEF75C
:102E6000FDFB786800F0DEF800BF0837BD4680BD86
:102E70000004002080B582B000AF786039603B6804
:102E8000084A934202D17868FFF7E0FF3B681B686D
:102E9000B3F1804F01D102F02FFF00BF0837BD46CC
:102EA00080BD00BF044F002080B582B000AF7860C5
:102EB00039603B68094A93420BD1386806F00CFC34
:102EC0007B68002283F846207B68012283F8442037
:102ED00000E000BF0837BD4680BD00BF804E002027
:102EE00080B582B000AF78600B467B804FF4805194
:102EF0002C4804F057F80346012B0CBF0123002394
:102F0000DBB2002B16D07B6893F84630002B0CD038
:102F1000786800F071F8FFF75DFD03461846FFF78B
:102F200035FE7B68002283F846207B68032283F805
:102F3000442033E04FF480511A4804F033F803463C
:102F4000012B0CBF01230023DBB2002B03D0164B57
:102F500001221A7022E008214FF0904004F022F87C
:102F60000346012B0CBF01230023DBB2002B15D03D
:102F70007B6893F84630002B0CD0786800F03CF862
:102F8000FFF728FD03461846FFF700FE7B68002286
:102F900083F846207B68032283F844200837BD4627
:102FA00080BD00BF000800480804002080B582B042
:102FB00000AF78603960FFF70DFD034639681846A9
:102FC000FFF718FE00BF0837BD4680BD80B582B050
:102FD00000AF78607B6893F84530002B06D1054838
:102FE00006F05AFE7B68012283F8452000BF0837AF
:102FF000BD4680BD044F002080B582B000AF786030
:10300000786800F029F87868FFF7E0FF7B68002215
:10301000A3F848207B68032283F8442000BF0837C8
:10302000BD4680BD80B582B000AF7860094BD3ED5E
:10303000007AB0EE670A0120FEF734FA054BD3EDB3
:10304000007AB0EE670A0220FEF72CFA00BF0837BC
:10305000BD4680BD0404002080B582B000AF78601A
:103060004FF4C200FEF7AEF99FED090AFEF7F6FA3B
:103070004FF47060FEF7DCF97868FFF7D3FF054B7B
:103080001B684FF47A525A6200BF0837BD4680BDB4
:1030900000000000844D002080B500AFFFF78AFEDD
:1030A00003461846FFF790FE00BF80BD80B582B092
:1030B00000AF7860FFF77EFE034679681846FFF799
:1030C00075FF00BF0837BD4680BD80B582B000AF38
:1030D0007860FFF76FFE034679681846FFF7CAFE6F
:1030E0007868FFF755FC00BF0837BD4680BD80B546
:1030F00082B000AF7860FFF75DFE0346796818463E
:10310000FFF7D2FE00BF0837BD4680BD80B582B054
:1031100000AF0346FB80FFF74DFE0246FB881946D1
:103120001046FFF7DDFE00BF0837BD4680BD00003A
:1031300080B500AF02F08EFD00F056F800F0B2F856
:1031400000F0F6FB00F062F900F028FC00F05CFFF4
:1031500000F0C4F900F00AFF00F09EFE00F0C0FF8E
:1031600000F088FF00F03CFB00F089F802F004FE5C
:1031700002F012FE1B4B1B691A4A43F400631361F1
:10318000184B9B68174A43F001039360154B9B68EB
:10319000144A43F008039360124B9B68114A43F0B2
:1031A000100393600F4B9B680E4A43F0200393601B
:1031B0000C4B1B690B4A43F400531361094B9B688A
:1031C000084A43F000439360064B1B69054A43F0ED
:1031D000806313614FF4FA7002F0ACFDFFF75CFFFF
:1031E00000BFFDE7002004E080B594B000AF07F118
:1031F000180338220021184608F0E4F83B1D00228D
:103200001A605A609A60DA601A61002004F084F94A
:103210000923BB614FF48033FB610123FB6202236E
:103220007B630323BB630223FB6355233B640223BD
:103230007B640223BB640223FB6407F11803184676
:1032400002F0DEFD0346002B01D000F024F80F232E
:103250007B600323BB600023FB6000233B610023F2
:103260007B613B1D0421184603F0DCF80346002B6C
:1032700001D000F010F800BF5037BD4680BD80B5CA
:1032800000AF00220021362004F0D5FA362004F0E9
:10329000ECFA00BF80BD80B400AF72B600BF00BFC3
:1032A000FDE7000080B58AB000AF07F114030022EB
:1032B0001A605A609A60DA601A61514BDB6C504AAE
:1032C00043F02003D3644E4BDB6C03F020033B61DF
:1032D0003B694B4BDB6C4A4A43F00403D364484BD5
:1032E000DB6C03F00403FB60FB68454BDB6C444A7A
:1032F00043F00103D364424BDB6C03F00103BB607A
:10330000BB683F4BDB6C3E4A43F00203D3643C4B4B
:10331000DB6C03F002037B607B68002204213948E8
:1033200003F058FE00224FF42071374803F052FE9C
:1033300004237B610123BB610223FB6102233B6207
:1033400007F1140319462F4803F0AAFC08237B61F8
:103350004FF48813BB610223FB6107F11403194684
:103360004FF0904003F09CFC4FF450437B610323EB
:10337000BB610023FB6107F114031946224803F0E7
:103380008FFC4FF4C0537B614FF48813BB61022361
:10339000FB6107F1140319461A4803F081FC8023EE
:1033A0007B611123BB610023FB6102233B6207F1B8
:1033B00014031946144803F073FC4FF400737B6147
:1033C0000123BB610023FB6100233B6207F114036F
:1033D00019460D4803F064FC00220021092004F086
:1033E0002AFA092004F041FA00220021282004F0E2
:1033F00022FA282004F039FA00BF2837BD4680BDE4
:1034000000100240000800480004004880B588B061
:1034100000AF3B4620220021184607F0D3FF2C4B7B
:103420002C4A1A602A4B4FF440325A60284B002233
:103430009A60274B0022DA60254B00221A61244B48
:1034400000225A61224B08229A61214B00221A77EE
:103450001F4B00225A771E4B01221A621C4B00227E
:1034600083F824201A4B4FF4D462DA62184B4FF4DD
:1034700080621A63164B012283F83820144B4FF4F4
:103480008052DA63124B002283F84020104801F08A
:10349000B7F90346002B01D0FFF7FDFE0E4B3B6052
:1034A00006237B600223BB607F23FB6004233B6118
:1034B00000237B613B461946054801F045FC034665
:1034C000002B01D0FFF7E7FE00BF2037BD4680BDCF
:1034D000784B0020000100500008302E80B58CB0E1
:1034E00000AF07F1240300221A605A609A603B1D66
:1034F00020220021184607F065FF3A4B3A4A1A602D
:10350000384B4FF440325A60364B00229A60354BAC
:103510000022DA60334B00221A61324B01225A61D9
:10352000304B08229A612F4B00221A772D4B002234
:103530005A772C4B02221A622A4B002283F824204D
:10354000284B4FF4D462DA62264B4FF480621A6340
:10355000244B012283F83820224B4FF48052DA6347
:10356000204B002283F840201E4801F049F9034611
:10357000002B01D0FFF78FFE00237B6207F12403AD
:103580001946184802F05EFA0346002B01D0FFF7F7
:1035900082FE164B7B600623BB600323FB607F2308
:1035A0003B6104237B610023BB613B1D19460D4831
:1035B00001F0CAFB0346002B01D0FFF76CFE0C4B59
:1035C0007B600C23BB603B1D1946064801F0BCFB29
:1035D0000346002B01D0FFF75EFE00BF3037BD462B
:1035E00080BD00BFE44B0020000400502000F01418
:1035F0000010603280B5A0B000AF786007F16C03B6
:1036000000221A605A609A60DA601A6107F11803A2
:1036100054220021184607F0D5FE7B681B68674AD4
:10362000934260D14FF40043BB614FF00053FB6500
:1036300007F11803184603F0E5F80346002B01D004
:10364000FFF729FE5E4BDB6C5D4A43F40053D36405
:103650005B4BDB6C03F400537B617B69584BDB6C89
:10366000574A43F00403D364554BDB6C03F0040367
:103670003B613B692023FB6603233B6700237B6799
:1036800007F16C0319464F4803F00AFB4E4B4F4AB3
:103690001A604D4B24225A604B4B00229A604A4BD1
:1036A0000022DA60484B80221A61474B4FF4807247
:1036B0005A61454B4FF480629A61434B2022DA6194
:1036C000414B4FF480521A623F4803F0B3FC03466B
:1036D000002B01D0FFF7DFFD7B683B4A5A653A4A71
:1036E0007B68936265E07B681B68394A934260D1CE
:1036F0004FF48033BB614FF000433B6607F1180382
:10370000184603F07FF80346002B01D0FFF7C3FDF6
:103710002B4BDB6C2A4A43F48043D364284BDB6C8D
:1037200003F48043FB60FB68254BDB6C244A43F0C9
:103730000203D364224BDB6C03F00203BB60BB6863
:1037400042F20303FB6603233B6700237B6707F119
:103750006C0319461F4803F0A3FA1F4B1F4A1A6057
:103760001D4B25225A601C4B00229A601A4B0022E6
:10377000DA60194B80221A61174B4FF480725A613C
:10378000154B4FF480629A61134B2022DA61124B81
:103790004FF440521A62104803F04CFC0346002BD1
:1037A00001D0FFF778FD7B680B4A5A650A4A7B68AF
:1037B000936200BF8037BD4680BD00BF000100504E
:1037C0000010024000080048504C00201C04024039
:1037D0000004005000040048B04C002008040240DF
:1037E00080B58CB000AF3B4630220021184607F070
:1037F000E9FD164B164A1A60144804F050F80346C7
:10380000002B01D0FFF747FD02233B6000233B71F3
:1038100000237B710023BB600023FB6000233B611E
:1038200000237B610123BB610023FB613B46002237
:103830001946064804F0B6F80346002B01D0FFF7FE
:103840002AFD00BF3037BD4680BD00BF104D0020AF
:103850000008005080B58AB000AF786007F114030B
:1038600000221A605A609A60DA601A617B681B68ED
:103870002B4A93424FD12B4BDB6C2A4A43F48033C3
:10388000D364284BDB6C03F480333B613B69254BED
:10389000DB6C244A43F00103D364224BDB6C03F05E
:1038A0000103FB60FB6810237B610323BB610023E2
:1038B000FB6107F1140319464FF0904003F0F0F953
:1038C000194B1A4A1A60184B06225A60164B1022DE
:1038D0009A60154B0022DA60134B80221A61124B5A
:1038E0004FF400725A61104B4FF480629A610E4B94
:1038F0000022DA610C4B00221A620B4803F09AFB9B
:103900000346002B01D0FFF7C6FC7B68064A9A608D
:10391000054A7B68936200BF2837BD4680BD00BF63
:103920000008005000100240244D00201C000240FE
:1039300080B584B000AF184B9B6C174A43F004036A
:103940009364154B9B6C03F00403FB60FB68124B04
:103950009B6C114A43F0020393640F4B9B6C03F082
:103960000203BB60BB680C4B9B6C0B4A43F001032A
:103970009364094B9B6C03F001037B607B6800221E
:103980000021382003F057FF382003F06EFF00BFFE
:103990001037BD4680BD00BF0010024080B5BAB0F0
:1039A00000AF07F1E00300221A605A6007F1D0036C
:1039B00000221A605A609A60DA6007F17003602290
:1039C0000021184607F0FEFC07F1640300221A608C
:1039D0005A609A6007F1480300221A605A609A60A0
:1039E000DA601A615A619A6107F1240324220021E6
:1039F000184607F0E7FC3B1D20220021184607F07F
:103A0000E1FCCB4BCB4A1A60C94B00225A60C84B31
:103A100000229A60C64804F089F90346002B01D0C1
:103A2000FFF739FC0C21C24804F050FA0346002B82
:103A300001D0FFF730FC0A21BD4804F09FFA03468D
:103A4000002B01D0FFF727FC0023C7F8E03002234A
:103A5000C7F8E43007F1E0031A460121B44804F046
:103A6000E9FA0346002B01D0FFF715FC00220121E3
:103A7000AF4804F0CBFC0346002B01D0FFF70BFC52
:103A800045F68A03C7F8D0300323C7F8D4300123A2
:103A9000C7F8D8300823C7F8DC3007F1D0031A463E
:103AA0000621A34804F09EFA0346002B01D0FFF73D
:103AB000F2FB10233B6700237B670023BB670023D7
:103AC000FB670123C7F880300023C7F88430002348
:103AD000C7F888300023C7F88C300023C7F890302F
:103AE0000023C7F894304FF00063C7F898300023E4
:103AF000C7F89C300023C7F8A0304FF00053C7F838
:103B0000A4300023C7F8CC3007F170031A46062111
:103B1000874804F0C5FD0346002B01D0FFF7BBFB2F
:103B20004FF6EF737B6607F164030122062180489C
:103B300004F0F6FE0346002B01D0FFF7ACFB44F285
:103B400068237B6607F1640302220621784804F0AB
:103B5000E7FE0346002B01D0FFF79DFB4FF6EF7306
:103B60007B6607F1640304220621714804F0D8FE45
:103B70000346002B01D0FFF78EFB0023C7F8D4309B
:103B800007F1D0031A460421694804F02BFA0346D2
:103B9000002B01D0FFF77FFB0023BB6400233B65B4
:103BA00000237B6500233B6607F148031A46042186
:103BB0005F4804F002FE0346002B01D0FFF76BFBC9
:103BC00000233B6700237B670023C7F8A83000234E
:103BD000C7F8AC300023C7F8B0304FF48073C7F893
:103BE000B4300023C7F8B8304FF08073C7F8C03046
:103BF0002023C7F8C4300023C7F8C83007F170038A
:103C00001A4604214A4804F04BFD0346002B01D01C
:103C1000FFF741FB0023C7F8B8308023C7F8C43052
:103C200007F170031A460521414804F039FD0346A7
:103C3000002B01D0FFF72FFB06237B6607F16403FF
:103C4000012204213A4804F06BFE0346002B01D008
:103C5000FFF721FB07F1640304220421344804F038
:103C60005FFE0346002B01D0FFF715FB00237B62AC
:103C70008C23BB620023FB6200233B6300237B6336
:103C80008C23BB630023FB6300233B6400237B6422
:103C900007F124031A460421254804F0C1FD034618
:103CA000002B01D0FFF7F7FA07F124031A4605218C
:103CB0001F4804F0B5FD0346002B01D0FFF7EBFAD7
:103CC00000237B600823BB602023FB6000233B6153
:103CD00000237B610023BB610023FB6100233B6267
:103CE0003B1D4FF480720421114804F087FF034606
:103CF000002B01D0FFF7CFFA3B1D4FF48062052166
:103D00000B4804F07BFF0346002B01D0FFF7C3FAFA
:103D10000023BB600023FB603B1D4FF400720421B5
:103D2000034804F06BFF0346002B07D004E000BFFC
:103D3000844D002000680140FFF7ADFA3B1D4FF4B1
:103D4000006205211F4804F059FF0346002B01D0F3
:103D5000FFF7A1FA07F1D0031A460521194804F02C
:103D600041F90346002B01D0FFF795FA07F148030C
:103D70001A460521134804F020FD0346002B01D00C
:103D8000FFF789FA07F16403012205210D4804F0C9
:103D9000C7FD0346002B01D0FFF77DFA07F164034E
:103DA00004220521074804F0BBFD0346002B01D087
:103DB000FFF771FA034800F027F800BFE837BD4667
:103DC00080BD00BF844D002080B485B000AF786016
:103DD0007B681B680A4A93420BD10A4B1B6E094A47
:103DE00043F080631366074B1B6E03F08063FB6038
:103DF000FB6800BF1437BD465DF8047B704700BF09
:103E0000006801400010024080B588B000AF7860C3
:103E100007F10C0300221A605A609A60DA601A6196
:103E20007B681B68194A93422CD1194BDB6C184AEA
:103E300043F00403D364164BDB6C03F00403BB6054
:103E4000BB68C023FB6002233B6100237B6103232B
:103E5000BB610D23FB6107F10C0319460D4802F00D
:103E60001FFF4FF44073FB6002233B6100237B6123
:103E70000323BB610323FB6107F10C0319460548CB
:103E800002F00EFF00BF2037BD4680BD0068014034
:103E9000001002400008004880B500AF134B144AE0
:103EA0001A60124B00225A60104B4FF420629A6045
:103EB0000E4B4FF6FF725A610C4B00221A620B4BED
:103EC00000225A62094B00229A62084B0022DA62F1
:103ED000064B00221A63054805F062FB0346002BDF
:103EE00001D0FFF7D8F900BF80BD00BF804E002091
:103EF000007C004080B598B000AF786007F10C03FB
:103F000054220021184607F05DFA7B681B68154AA9
:103F1000934223D14FF40073FB604FF48023BB63C3
:103F200007F10C03184602F06DFC0346002B01D08C
:103F3000FFF7B1F90C4B9B6D0B4A43F000439365BF
:103F4000094B9B6D03F00043BB60BB68002201215D
:103F5000312003F070FC312003F087FC00BF603794
:103F6000BD4680BD007C00400010024080B588B096
:103F700000AF07F1100300221A605A609A60DA60FD
:103F80003B1D00221A605A609A601D4B1D4A1A6040
:103F90001B4BAA225A601A4B00229A60184B44F617
:103FA0002062DA60164B00221A61154B00229A61DA
:103FB000134805F0A9FD0346002B01D0FFF76BF96C
:103FC0004FF480533B6107F1100319460C4806F08B
:103FD0002BF80346002B01D0FFF75DF900237B602F
:103FE0000023FB603B1D1946054806F0ABFA03466B
:103FF000002B01D0FFF74FF900BF2037BD4680BD31
:10400000B84E0020000C004080B584B000AF3B1DCE
:1040100000221A605A609A60144B154A1A60134BBA
:1040200010225A60114B00229A60104B42F20F721C
:10403000DA600E4B00229A610C4805F065FD0346DC
:10404000002B01D0FFF727F900237B600023FB60E2
:104050003B1D1946054806F075FA0346002B01D0B2
:10406000FFF719F900BF1037BD4680BD044F00208F
:104070000010004080B584B000AF3B1D00221A60E4
:104080005A609A60144B154A1A60134BAA225A6060
:10409000114B00229A60104B41F28832DA600E4BCD
:1040A00000229A610C4805F02FFD0346002B01D039
:1040B000FFF7F1F800237B600023FB603B1D1946EE
:1040C000054806F03FFA0346002B01D0FFF7E3F85E
:1040D00000BF1037BD4680BD504F00200014004087
:1040E00080B588B000AF07F1100300221A605A6053
:1040F0009A60DA603B1D00221A605A609A60204B79
:10410000204A1A601E4BA9225A601D4B00229A6059
:104110001B4B41F28732DA60194B00221A61184BAF
:1041200000225A61164B00229A61154805F0ECFCFA
:104130000346002B01D0FFF7AEF84FF480533B61EC
:1041400007F1100319460E4805F06EFF0346002BD9
:1041500001D0FFF7A0F800237B600023BB600023A1
:10416000FB603B1D1946064806F0ECF90346002BA0
:1041700001D0FFF790F800BF2037BD4680BD00BFDB
:104180009C4F00200034014080B586B000AF7860BD
:104190007B681B68284A934214D1284B9B6D274AA1
:1041A00043F008039365254B9B6D03F008037B6187
:1041B0007B6900220021322003F03DFB322003F016
:1041C00054FB34E07B681B681D4A93420CD11B4BA7
:1041D0009B6D1A4A43F010039365184B9B6D03F0D7
:1041E00010033B613B6922E07B681B68154A9342E0
:1041F0000CD1124B9B6D114A43F0200393650F4B7A
:104200009B6D03F02003FB60FB6810E07B681B687C
:104210000D4A93420BD1094B1B6E084A43F40053DD
:104220001366064B1B6E03F40053BB60BB6800BFF4
:104230001837BD4680BD00BF000C00400010024092
:1042400000100040001400400034014080B400AF72
:1042500000BFFDE780B400AF00BFFDE780B400AF52
:1042600000BFFDE780B400AF00BFFDE780B400AF42
:1042700000BFFDE780B400AF00BFBD465DF8047B22
:10428000704780B400AF00BFBD465DF8047B704747
:1042900080B400AF00BFBD465DF8047B704780B5B9
:1042A00000AF01F029FD00BF80BD80B500AF082040
:1042B00002F0A8FE00BF80BD80B500AF4FF40060E3
:1042C00002F0A0FE4FF4805002F09CFE00BF80BDC3
:1042D00080B500AF024805F033FA00BF80BD00BFD3
:1042E000804E002080B500AF024805F04DFD00BFB4
:1042F00080BD00BFB84E002080B500AF034805F078
:1043000043FD034803F0EDFA00BF80BD044F0020D9
:10431000104D002080B500AF024802F0AEFF00BF94
:1043200080BD00BFB04C002080B582B000AF114B03
:104330001B6E104A43F0010313660E4B1B6E03F015
:1043400001037B607B680B4B9B6D0A4A43F08053F3
:104350009365084B9B6D03F080533B603B6801F015
:104360003FFD022001F028FD03F07AF900BF083775
:10437000BD4680BD0010024080B483B000AF7860BD
:1043800039607B689B6823F47C123B681A437B6826
:104390009A6000BF0C37BD465DF8047B704780B45F
:1043A00083B000AF786039607B689B6823F0E0726F
:1043B0003B681A437B689A6000BF0C37BD465DF8C6
:1043C000047B704780B483B000AF78607B689B68E3
:1043D00003F0E07318460C37BD465DF8047B704768
:1043E00080B487B000AFF860B9607A603B60FB686A
:1043F00060331A46BB689B0013447B617B691A6873
:10440000084B13407A6802F0F8413A680A431343B4
:1044100043F000427B691A6000BF1C37BD465DF85F
:10442000047B704700F0FF0380B485B000AF786074
:1044300039607B6860331A463B689B001344FB601D
:10444000FB681B6803F0F84318461437BD465DF857
:10445000047B704780B487B000AFF860B9607A60C1
:10446000FB6860331A46BB689B0013447B617B6921
:104470001B6823F000427B681A437B691A6000BF07
:104480001C37BD465DF8047B704780B487B000AF31
:10449000F860B9607A60FB6860331A46BB689B00BD
:1044A00013447B617B691B6823F080727B681A432D
:1044B0007B691A6000BF1C37BD465DF8047B7047FE
:1044C00080B487B000AFF860B9607A60FB68603391
:1044D0001A46BB689B0013447B617B691B6823F011
:1044E00000727B681A437B691A6000BF1C37BD46A7
:1044F0005DF8047B704780B483B000AF78603960AA
:104500007B685B6923F000423B681A437B685A6111
:1045100000BF0C37BD465DF8047B704780B483B0A4
:1045200000AF78607B68DB6803F44063002B01D147
:10453000012300E0002318460C37BD465DF8047BDC
:10454000704780B487B000AFF860B9607A60FB68EC
:1045500030331A46BB681B0A9B0003F00C0313445C
:104560007B617B691A68BB6803F01F031F2101FA96
:1045700003F3DB431A407B689B0E03F01F01BB680B
:1045800003F01F0301FA03F31A437B691A6000BFAB
:104590001C37BD465DF8047B704780B487B000AF20
:1045A000F860B9607A60FB6814331A46BB685B0E2A
:1045B0009B0003F0040313447B617B691A68BB68AA
:1045C0001B0D03F01F03072101FA03F3DB431A401D
:1045D000BB681B0D03F01F03796801FA03F31A434C
:1045E0007B691A6000BF1C37BD465DF8047B7047CD
:1045F00080B485B000AFF860B9607A60FB68D3F82A
:10460000B020BB68C3F31203DB431A407B6803F09E
:1046100018030849D940BB680B40C3F312031A437F
:10462000FB68C3F8B02000BF1437BD465DF8047BBB
:10463000704700BFFFFF070080B483B000AF786011
:104640007B689B6803F01F0318460C37BD465DF876
:10465000047B704780B483B000AF78607B689B6850
:1046600023F0204323F03F037A68936000BF0C37A8
:10467000BD465DF8047B704780B483B000AF7860BE
:104680007B689B6803F00053B3F1005F01D1012305
:1046900000E0002318460C37BD465DF8047B7047E8
:1046A00080B483B000AF78607B689B6823F01043D0
:1046B00023F03F0343F080527B689A6000BF0C37C1
:1046C000BD465DF8047B704780B483B000AF78606E
:1046D0007B689B6803F08053B3F1805F01D10123B5
:1046E00000E0002318460C37BD465DF8047B704798
:1046F00080B483B000AF78607B689B6823F0004390
:1047000023F03F0343F001027B689A6000BF0C373F
:10471000BD465DF8047B704780B483B000AF78601D
:104720007B689B6823F0004323F03F0343F00202C1
:104730007B689A6000BF0C37BD465DF8047B70470C
:1047400080B483B000AF78607B689B6803F001039E
:10475000012B01D1012300E0002318460C37BD4690
:104760005DF8047B704780B483B000AF78607B68ED
:104770009B6803F00203022B01D1012300E0002318
:1047800018460C37BD465DF8047B704780B483B093
:1047900000AF78607B689B6823F0004323F03F0301
:1047A00043F004027B689A6000BF0C37BD465DF899
:1047B000047B704780B483B000AF78607B689B68EF
:1047C00003F00403042B01D1012300E00023184669
:1047D0000C37BD465DF8047B704780B483B000AFF2
:1047E00078607B689B6803F00803082B01D10123E4
:1047F00000E0002318460C37BD465DF8047B704787
:1048000090B589B000AF78600023FB770023FB6090
:104810007B68002B01D10123A9E17B685B69002B38
:104820007B68DB6D002B09D17868FEF7E3FE7B68BF
:1048300000221A667B68002283F858207B681B6878
:104840001846FFF719FF0346002B04D07B681B684E
:104850001846FFF7FFFE7B681B681846FFF734FF1A
:104860000346002B15D17B681B681846FFF718FF1D
:104870009C4B1B689B099C4AA2FB03239B090133A9
:104880005B00FB6002E0FB68013BFB60FB68002B08
:10489000F9D17B681B681846FFF716FF0346002B0B
:1048A0000DD17B68DB6D43F010027B68DA657B68B5
:1048B0001B6E43F001027B681A660123FB777B685D
:1048C0001B681846FFF776FF78617B68DB6D03F0A5
:1048D0001003002B40F042817B69002B40F03E81A9
:1048E0007B68DB6D23F4817343F002027B68DA6539
:1048F0007B681B681846FFF723FF0346002B41D156
:104900007B681B68B3F1A04F04D07B681B68774AB3
:1049100093420FD14FF0A040FFF712FF04467348B7
:10492000FFF70EFF03462343002B0CBF0123002398
:10493000DBB212E06E48FFF703FF04466D48FFF755
:10494000FFFE03461C436C48FFF7FAFE0346234371
:10495000002B0CBF01230023DBB2002B12D07B689D
:104960001B68B3F1A04F04D07B681B685F4A934279
:1049700001D1624A00E0624A7B685B6819461046D2
:10498000FFF7FAFC7B685B7F5A037B68DB6B1A439B
:104990007B68DB681A437B689B681A437B6893F8E3
:1049A00024301B041343BB617B6893F82430012B34
:1049B00006D17B689B6A013B5B04BA691343BB6108
:1049C0007B68DB6A002B09D07B68DB6A03F47872B2
:1049D0007B681B6B1343BA691343BB617B681B681D
:1049E000DA68484B13407A681268B9690B43D360A0
:1049F0007B681B681B6923F040617B685A6B7B688E
:104A00001B680A431A617B681B681846FFF7E5FEBE
:104A100038617B69002B7FD13B69002B7CD17B689F
:104A20001B7F9A037B6893F838305B001343BB61AC
:104A30007B681B68DB6823F4804323F002037A68F9
:104A40001268B9690B43D3607B681B69002B17D0D0
:104A50007B681B681A697B681B6842F480321A61A4
:104A60007B681B68D3F8C03023F47F5323F03F03E7
:104A70007A6811697A6812680B43C2F8C03013E093
:104A80007B681B681A697B681B6822F480321A6194
:104A90007B681B68D3F8C0307A68126823F47F53B0
:104AA00023F03F03C2F8C0307B6893F84030012BFD
:104AB0002AD17B681B681B6923F4FF6323F004037E
:104AC0007A68516C7A68926C11437A68D26C11439F
:104AD0007A68126D0A431A437B681B6842F0010230
:104AE0001A6119E014040020632D3E0500010050F6
:104AF0000004005000050050000600500003005064
:104B0000000700500740F0FF7B681B681A697B684C
:104B10001B6822F001021A617B685B69012B0CD1D2
:104B20007B681B681B6B23F00F017B681B6A5A1E96
:104B30007B681B680A431A6307E07B681B681A6B73
:104B40007B681B6822F00F021A637B68DB6D23F021
:104B5000030343F001027B68DA6507E07B68DB6DE5
:104B600043F010027B68DA650123FB77FB7F184670
:104B70002437BD4690BD00BF80B586B000AFF86059
:104B8000B9607A60FB681B68B3F1A04F04D0FB6882
:104B90001B685A4A934201D1594B00E0594B1846C1
:104BA000FFF74AFD3861FB681B681846FFF702FEF5
:104BB0000346002B40F09B80FB6893F85830012B94
:104BC00001D1022396E0FB68012283F85820FB689C
:104BD0001B684D4A934208D03B69002B05D03B69C6
:104BE000052B02D03B69092B7AD1F86800F0ECFC68
:104BF0000346FB75FB7D002B6DD1FB68DB6D23F459
:104C0000706323F0010343F48072FB68DA65FB688C
:104C10001B683A4A934209D0FB681B683B4A93429F
:104C200002D0FB681B6803E0394B01E04FF0A04362
:104C3000FA681268934202D03B69002B05D1FB68E9
:104C4000DB6D23F48012FB68DA65FB68DB6D03F42F
:104C50008053002B06D0FB681B6E23F00602FB6816
:104C60001A6602E0FB6800221A66FB685B6D294A3F
:104C7000DA62FB685B6D284A1A63FB685B6D274A42
:104C80005A63FB681B681C221A60FB68002283F8C9
:104C90005820FB681B685A68FB681B6842F01002CA
:104CA0005A60FB681B68DA68FB681B6842F0010207
:104CB000DA60FB68586DFB681B6840331946BA68B8
:104CC0007B6802F05FFA0346FB75FB681B681846B9
:104CD000FFF75CFD0DE0FB68002283F8582008E038
:104CE0000123FB75FB68002283F8582001E00223B2
:104CF000FB75FB7D18461837BD4680BD000100508E
:104D0000000300500007005000060050000500504E
:104D100000040050B35700088B580008A75800083B
:104D200080B483B000AF786000BF0C37BD465DF83B
:104D3000047B704780B483B000AF786000BF0C374D
:104D4000BD465DF8047B704780B5B6B000AF7860B3
:104D50003960002387F8D7300023FB607B6893F825
:104D60005830012B02D1022300F013BC7B680122D2
:104D700083F858207B681B681846FFF71BFD034625
:104D8000002B40F0F3837B6818683B6859683B68E8
:104D90001B681A46FFF7D5FB7B681B681846FFF7B0
:104DA00009FDC7F8D0007B681B681846FFF715FDA2
:104DB000C7F8CC00D7F8D030002B40F0D981D7F815
:104DC000CC30002B40F0D4813B689B68B3F1004F9E
:104DD0000FD17B6818683B681B6800221946FFF7F3
:104DE000DCFB7B681B684FF000411846FFF783FB34
:104DF0000EE07B6818683B6819683B689B681A4638
:104E0000FFF7CBFB7B681B6800211846FFF773FB9D
:104E10003B685A697B681B68DB68DB0803F00303A7
:104E20005B0002FA03F3C7F8C8303B681B69042B28
:104E300022D07B6818683B6819693B681A68D7F804
:104E4000C830FFF7CDFA7B6818683B6819693B6882
:104E50009B691A46FFF719FB7B6818683B6819695C
:104E60003B681B7F012B02D14FF0007300E0002351
:104E70001A46FFF725FB7BE17B681B68002118467B
:104E8000FFF7D2FA0346C3F31203002B0AD17B6863
:104E90001B6800211846FFF7C7FA03469B0E03F074
:104EA0001F021EE07B681B6800211846FFF7BCFA52
:104EB0000346C7F8BC30D7F8BC3093FAA3F3C7F861
:104EC000C030D7F8C030C7F8B830D7F8B830002BAA
:104ED00001D1202304E0D7F8B830B3FA83F3DBB272
:104EE0001A463B681B68C3F31203002B05D13B68CD
:104EF0001B689B0E03F01F0318E03B681B68C7F894
:104F0000B030D7F8B03093FAA3F3C7F8AC30D7F885
:104F1000AC30C7F8B430D7F8B430002B01D120231F
:104F200004E0D7F8B430B3FA83F3DBB29A4206D187
:104F30007B681B68002200211846FFF78BFA7B680C
:104F40001B6801211846FFF76FFA0346C3F31203EB
:104F5000002B0AD17B681B6801211846FFF764FA11
:104F600003469B0E03F01F021EE07B681B680121B5
:104F70001846FFF759FA0346C7F8A430D7F8A4300B
:104F800093FAA3F3C7F8A030D7F8A030C7F8A83039
:104F9000D7F8A830002B01D1202304E0D7F8A8309F
:104FA000B3FA83F3DBB21A463B681B68C3F3120300
:104FB000002B05D13B681B689B0E03F01F0318E014
:104FC0003B681B68C7F89830D7F8983093FAA3F37A
:104FD000C7F89430D7F89430C7F89C30D7F89C3095
:104FE000002B01D1202304E0D7F89C30B3FA83F3DF
:104FF000DBB29A4206D17B681B6800220121184669
:10500000FFF728FA7B681B6802211846FFF70CFAA5
:105010000346C3F31203002B0AD17B681B680221ED
:105020001846FFF701FA03469B0E03F01F021EE02D
:105030007B681B6802211846FFF7F6F90346C7F89C
:105040008C30D7F88C3093FAA3F3C7F88830D7F8B0
:105050008830C7F89030D7F89030002B01D120234A
:1050600004E0D7F89030B3FA83F3DBB21A463B681A
:105070001B68C3F31203002B05D13B681B689B0E12
:1050800003F01F0316E03B681B68C7F88030D7F8B1
:10509000803093FAA3F3FB67FB6FC7F88430D7F82F
:1050A0008430002B01D1202304E0D7F88430B3FAF8
:1050B00083F3DBB29A4206D17B681B68002202218F
:1050C0001846FFF7C7F97B681B6803211846FFF7EE
:1050D000ABF90346C3F31203002B0AD17B681B68AC
:1050E00003211846FFF7A0F903469B0E03F01F02A9
:1050F00017E07B681B6803211846FFF795F9034604
:105100007B677B6F93FAA3F33B673B6FBB67BB6F18
:10511000002B01D1202303E0BB6FB3FA83F3DBB292
:105120001A463B681B68C3F31203002B05D13B688A
:105130001B689B0E03F01F0311E03B681B68BB66F6
:10514000BB6E93FAA3F37B667B6EFB66FB6E002B54
:1051500001D1202303E0FB6EB3FA83F3DBB29A4262
:1051600006D17B681B68002203211846FFF772F9FD
:105170007B681B681846FFF7E3FA0346002B40F0F4
:105180003D817B6818683B6819683B68DB681A4694
:10519000FFF72EFA3B68DB68A24A934240F02E816B
:1051A0007B6818683B681B68C3F31203002B0BD1A4
:1051B0003B681B689B0E013303F01F03092B94BF50
:1051C00001230023DBB219E03B681B68FB65FB6D24
:1051D00093FAA3F3BB65BB6D3B663B6E002B01D11D
:1051E000202303E03B6EB3FA83F3DBB2013303F019
:1051F0001F03092B94BF01230023DBB2002B79D0BE
:105200003B681B68C3F31203002B07D13B681B6884
:105210009B0E01339B0603F0F84215E03B681B68C8
:105220003B653B6D93FAA3F3FB64FB6C7B657B6D85
:10523000002B01D1202303E07B6DB3FA83F3DBB2B3
:1052400001339B0603F0F8423B681B68C3F312036B
:10525000002B09D13B681B689B0E013303F01F0331
:10526000012101FA03F317E03B681B687B647B6C48
:1052700093FAA3F33B643B6CBB64BB6C002B01D182
:10528000202303E0BB6CB3FA83F3DBB2013303F0FA
:105290001F03012101FA03F342EA03013B681B6883
:1052A000C3F31203002B0AD13B681B689B0E01332A
:1052B00003F01F0213465B0013441B0518E03B6814
:1052C0001B68BB63BB6B93FAA3F37B637B6BFB63D2
:1052D000FB6B002B01D1202303E0FB6BB3FA83F3BC
:1052E000DBB2013303F01F0213465B0013441B05BE
:1052F0000B437EE03B681B68C3F31203002B07D10E
:105300003B681B689B0E01339B0603F0F84215E0D7
:105310003B681B68FB62FB6A93FAA3F3BB62BB6A40
:105320003B633B6B002B01D1202303E03B6BB3FAC3
:1053300083F3DBB201339B0603F0F8423B681B6842
:10534000C3F31203002B09D13B681B689B0E01338A
:1053500003F01F03012101FA03F317E03B681B6808
:105360003B623B6A93FAA3F3FB61FB697B627B6A56
:10537000002B01D1202303E07B6AB3FA83F3DBB275
:10538000013303F01F03012101FA03F342EA030191
:105390003B681B68C3F31203002B0DD13B681B68ED
:1053A0009B0E013303F01F0213465B0013441E3BA8
:1053B0001B0543F000731BE03B681B687B617B6946
:1053C00093FAA3F33B613B69BB61BB69002B01D13D
:1053D000202303E0BB69B3FA83F3DBB2013303F0AC
:1053E0001F0213465B0013441E3B1B0543F0007372
:1053F0000B433A6892681946FFF7CFF83B681A6882
:10540000094B1340002B00F0BE807B681B68B3F192
:10541000A04F04D07B681B68044A93420AD1044B16
:1054200009E000BF00007F4000000880000100503C
:1054300000030050594B1846FEF7C4FFC7F8C400DC
:105440003B681B68564A934204D03B681B68554A28
:1054500093423AD1D7F8C43003F40003002B34D17F
:105460007B681B68B3F1A04F05D07B681B684E4A70
:10547000934240F085807B681B68B3F1A04F04D055
:105480007B681B68494A934201D1494A00E0434A7C
:10549000D7F8C43043F4000319461046FEF77FFFE7
:1054A000444B1B689B09444AA2FB03239B095A1CDB
:1054B00013465B0013449B00FB6002E0FB68013B6A
:1054C000FB60FB68002BF9D15AE03B681B683B4A44
:1054D000934225D1D7F8C43003F08073002B1FD13D
:1054E0007B681B68314A934204D17B681B68344A4D
:1054F000934247D07B681B68B3F1A04F04D07B6810
:105500001B682A4A934201D1294A00E0234AD7F86E
:10551000C43043F0807319461046FEF740FF31E077
:105520003B681B68274A93422DD1D7F8C43003F457
:105530008003002B27D17B681B681C4A934222D032
:105540007B681B68B3F1A04F04D07B681B68174AC7
:10555000934201D1164A00E0104AD7F8C43043F410
:10556000800319461046FEF71AFF0CE07B68DB6DDE
:1055700043F020027B68DA65012387F8D73002E028
:1055800000BF00E000BF7B68002283F8582097F836
:10559000D7301846D837BD4680BD00BF0007005041
:1055A000000021C31000C090000600500001005010
:1055B0000003005014040020632D3E05000052C774
:1055C00000050050000084CB80B584B000AF786047
:1055D0000023BB607B681B681846FFF7B1F80346E1
:1055E000002B76D17B681B689A683C4B1340002BDC
:1055F0000DD07B68DB6D43F010027B68DA657B6859
:105600001B6E43F001027B681A66012362E07B682F
:105610001B681846FFF76CF87B681B68B3F1A04F56
:1056200004D07B681B682E4A934201D12D4B00E0C9
:105630002D4B1846FEF7C6FE034603F40003002B6D
:1056400013D02A4B1B689B09294AA2FB03239B0901
:105650005A1C13465B0013449B00BB6002E0BB680E
:10566000013BBB60BB68002BF9D100F057FBF86031
:1056700028E07B681B681846FFF762F80346002B9A
:1056800004D17B681B681846FFF732F800F046FB30
:105690000246FB68D31A022B14D97B681B681B686F
:1056A00003F00103012B0DD07B68DB6D43F010028A
:1056B0007B68DA657B681B6E43F001027B681A66C3
:1056C000012307E07B681B681B6803F00103012BC3
:1056D000CFD1002318461037BD4680BD3F00008063
:1056E0000001005000030050000700501404002087
:1056F000632D3E0580B584B000AF78607B681B6881
:105700001846FFF730F8F8607B681B681846FFF70B
:1057100017F80346002B47D0FB68002B44D17B6869
:105720001B689B6803F00D03012B0CD17B681B6881
:105730001846FEF7F1FF7B681B6803221A6000F031
:10574000EDFAB86029E07B68DB6D43F010027B68FE
:10575000DA657B681B6E43F001027B681A660123E1
:1057600023E000F0DBFA0246BB68D31A022B14D9FF
:105770007B681B689B6803F00103002B0DD07B68DE
:10578000DB6D43F010027B68DA657B681B6E43F0CB
:1057900001027B681A66012307E07B681B689B682F
:1057A00003F00103002BDCD1002318461037BD465F
:1057B00080BD80B584B000AF78607B689B6AFB6079
:1057C000FB68DB6D03F05003002B4BD1FB68DB6DF6
:1057D00043F40072FB68DA65FB681B681B6803F022
:1057E0000803002B21D0FB681B681846FEF796FEC5
:1057F0000346002B32D0FB681B68DB6803F40053C0
:10580000002B2BD1FB68DB6D23F48072FB68DA651B
:10581000FB68DB6D03F48053002B1FD1FB68DB6D4D
:1058200043F00102FB68DA6518E0FB681B68DB687F
:1058300003F00203002B11D1FB68DB6D23F48072AF
:10584000FB68DA65FB68DB6D03F48053002B05D140
:10585000FB68DB6D43F00102FB68DA65F868FDF771
:1058600025FC0EE0FB68DB6D03F01003002B03D07A
:10587000F868FFF75FFA04E0FB685B6D5B6B7868C4
:10588000984700BF1037BD4680BD80B584B000AFDB
:1058900078607B689B6AFB60F868FFF741FA00BF9D
:1058A0001037BD4680BD80B584B000AF78607B689E
:1058B0009B6AFB60FB68DB6D43F04002FB68DA65C6
:1058C000FB681B6E43F00402FB681A66F868FFF77A
:1058D00031FA00BF1037BD4680BD80B483B000AF41
:1058E00078607B689B6803F00103012B01D10123E1
:1058F00000E0002318460C37BD465DF8047B704776
:1059000080B483B000AF786039607B689B6823F017
:10591000404323F03F033A6802F08042134343F0D0
:1059200000427B689A6000BF0C37BD465DF8047B7F
:10593000704780B483B000AF78607B689B6803F0E9
:105940000043B3F1004F01D1012300E000231846CA
:105950000C37BD465DF8047B704780B483B000AF60
:1059600078607B689B6803F00403042B01D101235A
:1059700000E0002318460C37BD465DF8047B7047F5
:1059800080B584B000AF786039600023BB607B686D
:1059900093F85830012B01D102234DE07B6801229E
:1059A00083F858207868FFF7A5FE0346FB73FB7B5E
:1059B000002B36D17B68DB6D23F4885323F0020380
:1059C00043F002027B68DA657B681B683968184619
:1059D000FFF796FF14E0BB680133BB60BB68184A51
:1059E00093420DD97B68DB6D23F0120343F0100264
:1059F0007B68DA657B68002283F8582001231BE06E
:105A00007B681B681846FFF794FF0346002BE2D122
:105A10007B68DB6D23F0030343F001027B68DA65EA
:105A200005E07B68DB6D43F010027B68DA657B681C
:105A3000002283F85820FB7B18461037BD4680BDF6
:105A400001DE040090B5A1B000AF7860396000239A
:105A500087F87F307B6893F85830012B01D10223FF
:105A6000E7E07B68012283F8582000237B6600234F
:105A7000BB667B681B68B3F1A04F02D16F4BBB6064
:105A800009E07B681B686E4A934202D16D4BBB6094
:105A900001E00023BB60BB68002B0BD17B68DB6D92
:105AA00043F020027B68DA657B68002283F8582087
:105AB0000123BEE0BB681846FFF74FFFB8677B685D
:105AC0001B681846FFF749FF0346002B40F0A080F3
:105AD000BB6F002B40F09C807B681B68B3F1A04F2C
