:020000040800F2
:1000000000000220816E0008951D00089D1D00085B
:10001000A51D0008AD1D0008B51D0008000000006A
:10002000000000000000000000000000BD1D0008EE
:10003000CB1D000800000000D91D0008E71D0008C6
:10004000D16E0008D16E0008D16E0008D16E000894
:10005000D16E0008D16E0008D16E0008D16E000884
:10006000D16E0008D16E0008D16E0008D16E000874
:10007000F51D0008091E00081D1E0008311E00089D
:10008000D16E0008D16E0008D16E0008D16E000854
:10009000D16E0008D16E0008D16E0008D16E000844
:1000A000D16E0008D16E0008D16E0008D16E000834
:1000B000D16E0008D16E0008D16E0008D16E000824
:1000C000D16E0008D16E0008D16E0008D16E000814
:1000D000D16E0008D16E0008D16E0008D16E000804
:1000E000D16E0008D16E0008D16E0008D16E0008F4
:1000F000D16E0008D16E0008D16E0008D16E0008E4
:10010000D16E0008D16E0008451E0008D16E0008AF
:10011000D16E0008D16E0008591E0008D16E00088B
:10012000D16E0008D16E0008D16E0008D16E0008B3
:10013000D16E0008D16E0008D16E0008D16E0008A3
:10014000D16E0008D16E0008D16E0008D16E000893
:10015000D16E0008D16E0008D16E0008D16E000883
:10016000D16E0008D16E0008D16E0008D16E000873
:10017000D16E0008D16E0008D16E0008D16E000863
:10018000D16E0008D16E0008D16E0008D16E000853
:10019000D16E000800000000D16E0008D16E00088A
:1001A000D16E0008D16E0008D16E0008D16E000833
:1001B000D16E0008D16E0008D16E0008D16E000823
:1001C000D16E0008D16E0008D16E0008D16E000813
:0801D000D16E0008D16E000899
:1001D800830730B547D0541E002A3ED0CAB2034622
:1001E80001E0013C39D303F8012B9D07F9D1032C19
:1001F8002CD9CDB205EB05250F2C05EB054535D9D6
:10020800A4F1100222F00F0C03F1100EE6444FEA9D
:10021800121C1A46C2E90055C2E90255103272454D
:10022800F8D10CF1010214F00C0F03EB021204F0E8
:100238000F0C13D0ACF1040323F00303043313446D
:1002480042F8045B9342FBD10CF003042CB1C9B211
:100258001C4403F8011BA342FBD130BD644613467E
:10026800002CF4D1F9E703461446C0E71A46A44621
:10027800E0E700BF70B50F4B0F4DAB42A3EB05068F
:1002880007D0B610002455F8043B01349847A6421D
:10029800F9D806F061FE094D094B5E1BAB424FEAE7
:1002A800A60606D0002455F8043B01349847A64218
:1002B800F9D870BD8C7700088C7700088C77000817
:1002C8009077000810B5054C237833B9044B13B167
:1002D8000448AFF300800123237010BD18000020EC
:1002E80000000000606F000808B5034B1BB103490C
:1002F8000348AFF3008008BD000000001C00002088
:10030800606F000880B584B000AF786087ED000AA0
:100318007B68D3ED107AF5EE407AF1EE10FA02D050
:10032800786800F039F97B683A685A627B685A69DC
:100338007B689A617B681A697B685A617B6893ED70
:100348000A7A7B68D3ED097A77EE677A7B68C3ED22
:10035800047A7B681B78002B5DD17B6893ED047A67
:100368007B68D3ED057A77EE677AC7ED037A7B6809
:1003780093ED077A7B68D3ED026A7B68D3ED047A44
:1003880066EEA77A77EE277A7B68C3ED077A7B68F3
:1003980093ED077A7B68D3ED087AB4EEE77AF1EE4D
:1003A80010FA04DD7B681A6A7B68DA6114E07B68FE
:1003B80093ED077A7B68D3ED087AF1EE677AB4EEAD
:1003C800E77AF1EE10FA07D57B68D3ED087AF1EEFB
:1003D800677A7B68C3ED077A7B6893ED017A7B685F
:1003E800D3ED047A27EE277A7B68D3ED077A37EEC8
:1003F800277A7B68D3ED036AD7ED037A66EEA77A8E
:1004080037EE277A7B68D3ED0F7A77EE277A7B6809
:10041800C3ED0C7A3DE07B681B78012B39D17B68F2
:1004280093ED0C7A7B68D3ED016A7B6893ED046ADF
:100438007B68D3ED057A76EE677A66EEA76A7B6805
:1004480093ED036A7B68D3ED045A7B68D3ED057A94
:1004580077EEA77A75EEE75A7B68D3ED067A75EEE4
:10046800A77A66EE277A76EEA76A7B6893ED026A2A
:100478007B68D3ED047A66EE277A76EEA76A7B6806
:10048800D3ED0F7A76EEA77A77EE277A7B68C3EDFD
:100498000C7A7B689A6A7B68DA627B6893ED0C7ADF
:1004A8007B68D3ED0D7AB4EEE77AF1EE10FA04DD4D
:1004B8007B685A6B7B681A6310E07B6893ED0C7A53
:1004C8007B68D3ED0E7AB4EEE77AF1EE10FA00D439
:1004D80004E07B689A6B7B681A6300BF1037BD46DF
:1004E80080BD80B48BB000AFF8610B4687ED050A7C
:1004F800C7ED040A87ED031AC7ED021A87ED012A32
:10050800C7ED002AFB76FB69FA7E1A70FB697A69E7
:100518005A60FB693A699A60FB69FA68DA60FB69B4
:10052800BA681A62FB697A685A63FB693A689A631F
:10053800FB694FF00002DA61FB694FF000021A63B1
:10054800FB694FF000025A62FB694FF000029A62A1
:10055800FB694FF00002DA62FB694FF00002DA63D0
:10056800FB694FF000021A6400237B620AE0FA6913
:100578007B6A04339B0013444FF000021A607B6AC5
:1005880001337B627B6A022BF1DD00BF2C37BD464D
:100598005DF8047B7047000080B485B000AF7860D8
:1005A8004FF00003FB607B6893ED0B7A7B68D3ED1B
:1005B8000A7A77EE677AF5EEC07AF1EE10FA08DD7E
:1005C8007B6893ED0B7A7B68D3ED0A7A77EE677ACE
:1005D80009E07B6893ED0B7A7B68D3ED0A7A77EEB6
:1005E800677AF1EE677A7B6893ED107AF4EEC77A52
:1005F800F1EE10FA33D97B6893ED0B7A7B68D3ED73
:100608000A7A77EE677AF5EEC07AF1EE10FA02DD33
:10061800164BFB6013E07B6893ED0B7A7B68D3ED98
:100628000A7A77EE677AF5EEC07AF1EE10FA03D51A
:100638004FF07E53FB6002E04FF00003FB607B68E5
:1006480093ED0B7A7B68D3ED106AD7ED037A66EEEB
:10065800A77A77EE277A7B68C3ED0A7A00E000BFB5
:100668001437BD465DF8047B704700BF000080BFAB
:1006780080B485B000AF78607B684FF00002DA6123
:100688007B684FF000021A630023FB600AE07A6877
:10069800FB6804339B0013444FF000021A60FB68A8
:1006A8000133FB60FB68022BF1DD00BF00BF14378C
:1006B800BD465DF8047B704780B500AF00F03EF89A
:1006C800DFED162A9FED162AF6EE001A9FED131A93
:1006D800DFED140A9FED140A01211448FFF701FF0A
:1006E8004FF48031124805F0B8F94FF40011104862
:1006F80005F0B3F94FF480010D4805F0AEF94FF459
:1007080080210B4805F0A9F90A4805F071FE0A4B4B
:100718001B68064A936200BF80BD00BF000000004E
:1007280085EB113F52499D390AD7233C54030020D9
:10073800140700205C0800200400002080B582B067
:1007480000AF0023FB8023E0FB8807EE903AF8EE29
:10075800E77A9FED137A27EE877ADFED126AC7EE04
:10076800267AC7ED007A97ED000A06F0AFFBF0EEA7
:10077800407A9FED0D7A67EE877AFB88FDEEE77A7F
:1007880017EE901A094A42F82310FB880133FB80C0
:10079800FB88C72BD8D900BF00BF0837BD4680BD2E
:1007A800DB0FC9400000484300D004463400002055
:1007B80080B500AF124B1B68124A9362124B1B683C
:1007C80093ED007A104B1B68D3ED027A37EE277A47
:1007D8000D4B1B68D3ED017A77EE277A9FED0B7AE4
:1007E80067EE877A0A4BC3ED007A094BD3ED007A9E
:1007F800B0EE670A0348FFF785FD00BF80BD00BF64
:1008080004000020540300209803002036CD133F35
:10081800C803002080B483B000AF234B1B881A465E
:10082800224B53F8223007EE903AB8EEE77A204B85
:10083800D3ED007A67EE277AFDEEE77A17EE903A65
:100848007B60194B1B8801339AB2174B1A80164BE1
:100858001B88C72B02D9144B00221A807B68C3F56A
:1008680004533433134A1268C2F89C327B6803F588
:10087800C7431C330F4A1268C2F8A8327B6803F5D5
:10088800045334330B4A1268C2F81C337B68C3F52F
:10089800C7431C33074A1268C2F8283300BF0C3715
:1008A800BD465DF8047B7047D80300203400002063
:1008B800000000201407002080B500AF1B4B1B88E8
:1008C800B3F5FA6F17D91A4B1B78002B13D0174BB7
:1008D80000221A80164B00221A701648FFF7C8FE2D
:1008E8004FF44071144805F05EF84FF44061124827
:1008F80005F059F813E00E4B1B78002B0FD00B4B6B
:100908001B8801339AB2094B1A804FF440710A4888
:1009180005F076F84FF44061074805F071F8FFF7E5
:1009280047FFFFF777FF00BF80BD00BFDA03002055
:10093800080000205403002014070020B0B582B03E
:1009480000AF78607B68434A93420BD1FFF7B4FF4E
:10095800414BD3E90023541C43F100053E4BC3E946
:10096800004573E07B683D4A93426FD13C4B1B784E
:10097800002B23D14FF480613A4803F0CDFC0346A5
:10098800012B03D1364B01221A705FE04FF400614E
:10099800344803F0C1FC0346012B03D1304B02223B
:1009A8001A7053E04FF480512E4803F0B5FC03460B
:1009B800012B4BD12A4B03221A7047E04FF4806178
:1009C800284803F0A9FC0346002B13D1244B1B78BD
:1009D800012B0FD1224B00221A70234BD3ED007A42
:1009E800B7EE007A77EE877AB0EE670A1E4800F015
:1009F8003DF82BE04FF400611A4803F08DFC0346E4
:100A0800002B13D1164B1B78022B0FD1144B00224D
:100A18001A70154BD3ED007AB7EE007A77EEC77AE5
:100A2800B0EE670A104800F021F80FE04FF480514B
:100A38000C4803F071FC0346002B07D1084B1B78C8
:100A4800032B03D1064B00221A70FFE700BF0837BB
:100A5800BD46B0BD5C080020D0030020100800206F
:100A6800DC030020000800489C03002080B483B009
:100A780000AF786087ED000AD7ED007A9FED167A0F
:100A8800F4EEC77AF1EE10FA01DD144B0BE0D7ED66
:100A9800007AB3EE047AF4EEC77AF1EE10FA01D5D3
:100AA8000F4B00E03B683B607B683A681A60D7ED03
:100AB800007A9FED0C7A67EE876A7B6893ED017A7E
:100AC800C6EE877A7B68C3ED027A00BF0C37BD4655
:100AD8005DF8047B704700BF0000C8420000C842B0
:100AE8000000A041DB0FC94080B500AF02F0DEFA7C
:100AF80000F016F800F064F800F044FD00F0DCF8AF
:100B080000F082FD01F0CAF800F06EF900F006FA74
:100B180000F08CFA01F074F8FFF7CEFD00BFFDE796
:100B280080B594B000AF07F11803382200211846A9
:100B3800FFF74EFB3B1D00221A605A609A60DA608C
:100B48001A61002003F0D2FD0123BB614FF480330A
:100B5800FB6102237B630323BB630223FB635523EF
:100B68003B6402237B640223BB640223FB6407F11A
:100B78001803184602F00AFB0346002B01D000F0C8
:100B880018F80F237B600323BB600023FB6000235E
:100B98003B6100237B613B1D0421184602F008FEDF
:100BA8000346002B01D000F004F800BF5037BD46C3
:100BB80080BD80B400AF72B600BF00BFFDE7000083
:100BC80080B58AB000AF07F1140300221A605A609A
:100BD8009A60DA601A61354BDB6C344A43F02003C3
:100BE800D364324BDB6C03F020033B613B692F4B32
:100BF800DB6C2E4A43F00103D3642C4BDB6C03F00F
:100C08000103FB60FB68294BDB6C284A43F00403B3
:100C1800D364264BDB6C03F00403BB60BB68234B37
:100C2800DB6C224A43F00203D364204BDB6C03F0F5
:100C380002037B607B6800224FF400414FF0904034
:100C480003F082FB00228021194803F07DFB4FF45A
:100C580000437B611123BB610023FB6101233B62DD
:100C680007F1140319464FF0904003F0D3F94FF4FD
:100C7800E0537B610023BB610223FB6107F114038E
:100C880019460C4803F0C6F980237B611123BB6128
:100C98000023FB6101233B6207F114031946044852
:100CA80003F0B8F900BF2837BD4680BD00100240E8
:100CB800000400480008004880B588B000AF3B46F3
:100CC800202200211846FFF783FA414B414A1A6057
:100CD8003F4B4FF440325A603D4B00229A603C4BE8
:100CE8000022DA603A4B00221A61394B01225A611C
:100CF800374B04229A61364B00221A77344B012273
:100D08005A77334B04221A62314B002283F824208D
:100D18002F4B4FF4D462DA622D4B4FF480621A6382
:100D28002B4B012283F83820294B4FF48052DA6389
:100D3800274B002283F84020254801F08DFA03460E
:100D4800002B01D0FFF735FF234B3B6006237B6068
:100D58000423BB607F23FB6004233B6100237B618A
:100D68003B4619461A4801F033FC0346002B01D0D4
:100D7800FFF71FFF194B3B600C237B603B4619466E
:100D8800134801F025FC0346002B01D0FFF711FFA3
:100D9800134B3B6012237B603B4619460C4801F01D
:100DA80017FC0346002B01D0FFF703FF0D4B3B60F8
:100DB80018237B603B461946054801F009FC0346A9
:100DC800002B01D0FFF7F5FE00BF2037BD4680BDE0
:100DD800E0030020000100501000C0102000F014B3
:100DE8000008302E0010603280B58CB000AF07F1DB
:100DF800240300221A605A609A603B1D20220021B9
:100E08001846FFF7E5F9404B404A1A603E4B4FF44D
:100E180040325A603C4B00229A603B4B0022DA6019
:100E2800394B00221A61384B01225A61364B042291
:100E38009A61354B00221A77334B01225A77324B8D
:100E480003221A62304B002283F824202E4B4FF4E1
:100E5800D462DA622C4B4FF480621A632A4B012267
:100E680083F83820284B0022DA63274B002283F8C6
:100E78004020254801F0F0F90346002B01D0FFF788
:100E880098FE00237B6207F1240319461E4802F0EE
:100E980005F80346002B01D0FFF78BFE1C4B7B6047
:100EA8000623BB600523FB607F233B6104237B6132
:100EB8000023BB613B1D1946134801F089FB03461B
:100EC800002B01D0FFF775FE124B7B600C23BB6033
:100ED8003B1D19460C4801F07BFB0346002B01D053
:100EE800FFF767FE0C4B7B601223BB603B1D194666
:100EF800054801F06DFB0346002B01D0FFF759FEB2
:100F080000BF3037BD4680BD4C04002000040050AF
:100F1800020030042000F0140010603280B588B060
:100F280000AF3B46202200211846FFF751F93A4B03
:100F38003A4A1A60384B4FF440325A60364B002216
:100F48009A60354B0022DA60334B00221A61324B2B
:100F580001225A61304B04229A612F4B00221A77E2
:100F68002D4B01225A772C4B03221A622A4B00225E
:100F780083F82420284B4FF4D462DA62264B4FF4CE
:100F880080621A63244B012283F83820224B002206
:100F9800DA63214B002283F840201F4801F05CF9F6
:100FA8000346002B01D0FFF704FE1D4B3B600623D0
:100FB8007B600223BB607F23FB6004233B6100232B
:100FC8007B613B461946144801F002FB0346002B9F
:100FD80001D0FFF7EEFD134B3B600C237B603B46D3
:100FE80019460D4801F0F4FA0346002B01D0FFF72B
:100FF800E0FD0D4B3B6012237B603B4619460648DB
:1010080001F0E6FA0346002B01D0FFF7D2FD00BF3E
:101018002037BD4680BD00BFB80400200005005041
:101028000800900C1000C0102000F01480B588B0A3
:1010380000AF3B46202200211846FFF7C9F8334B82
:10104800334A1A60314B4FF440325A602F4B00221A
:101058009A602E4B0022DA602C4B00221A612B4B2F
:1010680001225A61294B04229A61284B00221A77DF
:10107800264B00225A77254B02221A62234B002264
:1010880083F82420214B4FF4D462DA621F4B4FF4CB
:1010980080621A631D4B002283F838201B4B002204
:1010A800DA631A4B002283F84020184801F0D4F87C
:1010B8000346002B01D0FFF77CFD164B3B6006234F
:1010C8007B600223BB607F23FB6004233B6100231A
:1010D8007B613B4619460D4801F07AFA0346002B1E
:1010E80001D0FFF766FD0C4B3B600C237B603B4651
:1010F8001946064801F06CFA0346002B01D0FFF7A9
:1011080058FD00BF2037BD4680BD00BF2405002024
:1011180000060050020030040400600880B5A6B044
:1011280000AF786007F1840300221A605A609A6061
:10113800DA601A6107F13003542200211846FFF7DC
:1011480047F87B681B68884A934240F09A804FF4BE
:1011580000433B634FF000537B6707F130031846A9
:1011680002F00AFD0346002B01D0FFF722FD7F4B5A
:10117800DB6C7E4A43F40053D3647C4BDB6C03F492
:101188000053FB62FB6A794BDB6C784A43F001033E
:10119800D364764BDB6C03F00103BB62BB6A734B11
:1011A800DB6C724A43F00403D364704BDB6C03F0CE
:1011B80004037B627B6A6D4BDB6C6C4A43F0020371
:1011C800D3646A4BDB6C03F002033B623B6A802307
:1011D800C7F884300323C7F888300023C7F88C3059
:1011E80007F1840319464FF0904002F013FF3023B3
:1011F800C7F884300323C7F888300023C7F88C3039
:1012080007F1840319465A4802F004FF0423C7F87B
:1012180084300323C7F888300023C7F88C3007F1DF
:1012280084031946534802F0F5FE534B534A1A609B
:10123800514B24225A60504B00229A604E4B002298
:10124800DA604D4B80221A614B4B4FF480725A6121
:10125800494B4FF480629A61474B2022DA61464B32
:1012680000221A62444803F087F80346002B01D095
:10127800FFF79FFC7B68404A5A653F4A7B68936248
:101288006AE17B681B683E4A934240F081804FF4D4
:1012980080333B634FF00043BB6707F130031846C8
:1012A80002F06AFC0346002B01D0FFF782FC354BA5
:1012B8001B680133334A1360324B1B68012B0BD177
:1012C8002A4BDB6C294A43F48043D364274BDB6CFD
:1012D80003F48043FB61FB69244BDB6C234A43F036
:1012E8000203D364214BDB6C03F00203BB61BB69CF
:1012F80042F20303C7F884300323C7F88830002379
:10130800C7F88C3007F1840319461A4802F082FEA8
:101318001D4B1E4A1A601C4B25225A601A4B00228C
:101328009A60194B0022DA60174B80221A61164B1B
:101338004FF480725A61144B4FF480629A61124BD9
:101348002022DA61104B00221A620F4803F014F8C9
:101358000346002B01D0FFF72CFC7B680A4A5A652C
:10136800094A7B689362F7E00001005000100240D0
:101378000008004800040048900500201C000240B6
:101388000004005010070020F00500203000024043
:101398007B681B68724A93426CD14FF480333B637D
:1013A8004FF00043BB6707F13003184602F0E4FB37
:1013B8000346002B01D0FFF7FCFB6A4B1B68013387
:1013C800684A1360674B1B68012B0BD1664BDB6CBB
:1013D800654A43F48043D364634BDB6C03F4804376
:1013E8007B617B69604BDB6C5F4A43F00203D3642B
:1013F8005D4BDB6C03F002033B613B694FF45043E8
:10140800C7F884300323C7F888300023C7F88C3026
:1014180007F184031946554802F0FCFD544B554A20
:101428001A60534B26225A60514B00229A60504B47
:101438000022DA604E4B80221A614D4B4FF48072C5
:101448005A614B4B4FF480629A61494B2022DA6112
:10145800474B00221A62464802F08EFF0346002BD3
:1014680001D0FFF7A6FB7B68414A5A65404A7B6872
:10147800936271E07B681B683F4A93426CD14FF4DA
:1014880080333B634FF00043BB6707F130031846D6
:1014980002F072FB0346002B01D0FFF78AFB314BA9
:1014A8001B6801332F4A13602E4B1B68012B0BD18D
:1014B8002D4BDB6C2C4A43F48043D3642A4BDB6C02
:1014C80003F48043FB60FB68274BDB6C264A43F040
:1014D8000103D364244BDB6C03F00103BB60BB68DE
:1014E8004FF44073C7F884300323C7F888300023CB
:1014F800C7F88C3007F1840319464FF0904002F08A
:1015080089FD1E4B1E4A1A601C4B27225A601B4B32
:1015180000229A60194B0022DA60184B80221A6167
:10152800164B4FF480725A61144B4FF480629A61E3
:10153800124B2022DA61114B00221A620F4802F086
:101548001BFF0346002B01D0FFF733FB7B680B4AD8
:101558005A650A4A7B68936200BF9837BD4680BDCA
:101568000005005010070020001002400004004849
:10157800500600204400024000060050B00600203B
:101588005800024080B582B000AF1E4B9B6C1D4ACC
:1015980043F0040393641B4B9B6C03F004037B60D0
:1015A8007B68184B9B6C174A43F001039364154BF7
:1015B8009B6C03F001033B603B68002200210C2078
:1015C80003F023FA0C2003F03AFA002200210D2040
:1015D80003F01BFA0D2003F032FA002200210E203E
:1015E80003F013FA0E2003F02AFA002200210F203C
:1015F80003F00BFA0F2003F022FA00BF0837BD46AC
:1016080080BD00BF0010024080B5BAB000AF07F13E
:10161800E00300221A605A6007F1D00300221A6022
:101628005A609A60DA6007F1700360220021184658
:10163800FEF7CEFD07F1640300221A605A609A6033
:1016480007F1480300221A605A609A60DA601A614A
:101658005A619A6107F12403242200211846FEF7F3
:10166800B7FD3B1D202200211846FEF7B1FDCB4BEC
:10167800CB4A1A60C94B00225A60C84B00229A60B4
:10168800C64803F0F7F90346002B01D0FFF791FA9B
:101698000C21C24803F0BEFA0346002B01D0FFF725
:1016A80088FA0A21BD4803F00DFB0346002B01D040
:1016B800FFF77FFA4FF40033C7F8E0301023C7F87C
:1016C800E43007F1E0031A460121B44803F056FB61
:1016D8000346002B01D0FFF76CFA00220121AF4826
:1016E80003F038FD0346002B01D0FFF762FA48F2F9
:1016F800D043C7F8D0300023C7F8D4300323C7F845
:10170800D8300823C7F8DC3007F1D0031A46062181
:10171800A24803F00BFB0346002B01D0FFF749FA60
:1017280000233B6700237B670023BB670023FB671D
:101738000123C7F880300023C7F884300023C7F896
:1017480088300023C7F88C300023C7F89030002376
:10175800C7F894304FF00063C7F898300023C7F8F3
:101768009C300023C7F8A0304FF00053C7F8A430CE
:101778000023C7F8CC3007F170031A4606218748C2
:1017880003F032FE0346002B01D0FFF712FA4FF6A2
:10179800FB737B6607F16403012206217F4803F08F
:1017A80063FF0346002B01D0FFF703FA07F1640338
:1017B80002220621794803F057FF0346002B01D087
:1017C800FFF7F7F907F1640304220621734803F0D1
:1017D8004BFF0346002B01D0FFF7EBF907F1640339
:1017E800082206216D4803F03FFF0346002B01D075
:1017F800FFF7DFF907F1D0031A460121674803F024
:1018080095FA0346002B01D0FFF7D3F90023BB64F8
:1018180000233B6500237B6500233B6607F14803F3
:101828001A4601215D4803F06CFE0346002B01D0E7
:10183800FFF7BFF900233B6700237B670023C7F846
:10184800A8300023C7F8AC300023C7F8B0304FF4F5
:101858008073C7F8B4300023C7F8B8300023C7F83E
:10186800C0301023C7F8C4300023C7F8C83007F1C8
:1018780070031A460121494803F0B6FD0346002BC0
:1018880001D0FFF796F90023C7F8B83007F17003C5
:101898001A460421414803F0A7FD0346002B01D056
:1018A800FFF787F90023C7F8B83007F170031A4625
:1018B80005213A4803F098FD0346002B01D0FFF7B5
:1018C80078F906237B6607F1640301220121334876
:1018D80003F0CAFE0346002B01D0FFF76AF907F1AF
:1018E8006403042201212D4803F0BEFE0346002BA9
:1018F80001D0FFF75EF900237B629623BB620023C9
:10190800FB6200233B6300237B639623BB630023B6
:10191800FB6300233B6400237B6407F124031A461E
:1019280001211E4803F020FE0346002B01D0FFF7DB
:1019380040F907F124031A460421184803F014FE5D
:101948000346002B01D0FFF734F907F124031A46A8
:101958000521124803F008FE0346002B01D0FFF7CB
:1019680028F900237B600823BB602023FB60002349
:101978003B6100237B610023BB610023FB610023E3
:101988003B623B1D04220121044803F0DBFF0346B0
:10199800002B07D0FFF70DF904E000BF1407002063
:1019A800006801403B1D4FF480720421504803F049
:1019B800C9FF0346002B01D0FFF7FBF83B1D4FF48E
:1019C800806205214A4803F0BDFF0346002B01D081
:1019D800FFF7EFF80023BB600023FB603B1D0822E4
:1019E8000121434803F0AEFF0346002B01D0FFF767
:1019F800E0F83B1D4FF4007204213D4803F0A2FFBC
:101A08000346002B01D0FFF7D4F83B1D4FF40062CA
:101A18000521374803F096FF0346002B01D0FFF756
:101A2800C8F807F1D0031A460421314803F07EF9BB
:101A38000346002B01D0FFF7BCF807F148031A460C
:101A480004212B4803F05DFD0346002B01D0FFF76E
:101A5800B0F807F1640301220421254803F004FECD
:101A68000346002B01D0FFF7A4F807F16403042212
:101A780004211F4803F0F8FD0346002B01D0FFF7AF
:101A880098F807F1D0031A460521194803F04EF9D2
:101A98000346002B01D0FFF78CF807F148031A46DC
:101AA8000521134803F02DFD0346002B01D0FFF755
:101AB80080F807F16403012205210D4803F0D4FDE5
:101AC8000346002B01D0FFF774F807F164030422E2
:101AD8000521074803F0C8FD0346002B01D0FFF796
:101AE80068F8034800F026F800BFE837BD4680BD17
:101AF8001407002080B485B000AF78607B681B684D
:101B08000A4A93420BD10A4B1B6E094A43F0806381
:101B18001366074B1B6E03F08063FB60FB6800BF16
:101B28001437BD465DF8047B704700BF006801406C
:101B38000010024080B58AB000AF786007F1140346
:101B480000221A605A609A60DA601A617B681B6822
:101B5800284A93424AD1284BDB6C274A43F00403B6
:101B6800D364254BDB6C03F004033B613B69224BD8
:101B7800DB6C214A43F00103D3641F4BDB6C03F099
:101B88000103FB60FB68C0237B610223BB61002368
:101B9800FB6103233B620D237B6207F114031946A3
:101BA800164802F037FA4FF440737B610223BB6199
:101BB8000023FB6103233B6203237B6207F11403C9
:101BC80019460E4802F026FA4FF440637B6102235F
:101BD800BB610023FB6103233B620D237B6207F19A
:101BE800140319464FF0904002F014FA00BF28374A
:101BF800BD4680BD00680140001002400008004852
:101C080080B588B000AF07F1100300221A605A604F
:101C18009A60DA603B1D00221A605A609A601D4B78
:101C28001D4A1A601B4BAA225A601A4B00229A605E
:101C3800184B44F62062DA60164B00221A61154BE5
:101C480000229A61134804F07BFB0346002B01D065
:101C5800FEF7AFFF4FF480533B6107F110031946BD
:101C68000C4804F08DFD0346002B01D0FEF7A1FFC0
:101C780000237B600023FB603B1D1946054805F0E7
:101C88000DF80346002B01D0FEF793FF00BF203765
:101C9800BD4680BD10080020000C004080B584B00F
:101CA80000AF3B1D00221A605A609A60144B154A17
:101CB8001A60134B00225A60114B00229A60104B95
:101CC80044F26722DA600E4B00229A610C4804F055
:101CD80037FB0346002B01D0FEF76BFF00237B6028
:101CE8000023FB603B1D1946054804F0D7FF034657
:101CF800002B01D0FEF75DFF00BF1037BD4680BD49
:101D08005C0800200010004080B584B000AF786007
:101D18007B681B681A4A934214D11A4B9B6D194A67
:101D280043F008039365174B9B6D03F00803FB60B2
:101D3800FB6800220021322002F067FE322002F008
:101D48007EFE18E07B681B680F4A934213D10D4B47
:101D58009B6D0C4A43F0100393650A4B9B6D03F08F
:101D68001003BB60BB6800220021362002F04DFE44
:101D7800362002F064FE00BF1037BD4680BD00BFAC
:101D8800000C0040001002400010004080B400AF7A
:101D980000BFFDE780B400AF00BFFDE780B400AF2F
:101DA80000BFFDE780B400AF00BFFDE780B400AF1F
:101DB80000BFFDE780B400AF00BFBD465DF8047BFF
:101DC800704780B400AF00BFBD465DF8047B704724
:101DD80080B400AF00BFBD465DF8047B704780B596
:101DE80000AF01F0B5F900BF80BD000080B500AFBD
:101DF800024802F069FB00BF80BD00BF90050020CB
:101E080080B500AF024802F05FFB00BF80BD00BF95
:101E1800F005002080B500AF024802F055FB00BF76
:101E280080BD00BF5006002080B500AF024802F018
:101E38004BFB00BF80BD00BFB006002080B500AFDF
:101E4800024804F04DFB00BF80BD00BF1008002011
:101E580080B500AF024804F043FB00BF80BD00BF5F
:101E68005C08002080B582B000AF0F4B1B6E0E4A95
:101E780043F0010313660C4B1B6E03F001037B60F8
:101E88007B68094B9B6D084A43F080539365064B6A
:101E98009B6D03F080533B603B6802F0CBFC00BFB6
:101EA8000837BD4680BD00BF0010024080B483B033
:101EB80000AF786039607B689B6823F47C123B68CC
:101EC8001A437B689A6000BF0C37BD465DF8047BF7
:101ED800704780B483B000AF786039607B689B68D6
:101EE80023F0E0723B681A437B689A6000BF0C37A6
:101EF800BD465DF8047B704780B483B000AF78605E
:101F08007B689B6803F0E07318460C37BD465DF8A4
:101F1800047B704780B487B000AFF860B9607A601E
:101F28003B60FB6860331A46BB689B0013447B61C7
:101F38007B691A68084B13407A6802F0F8413A68DE
:101F48000A43134343F000427B691A6000BF1C3701
:101F5800BD465DF8047B704700F0FF0380B485B090
:101F680000AF786039607B6860331A463B689B0035
:101F78001344FB60FB681B6803F0F84318461437EA
:101F8800BD465DF8047B704780B487B000AFF86049
:101F9800B9607A60FB6860331A46BB689B001344DB
:101FA8007B617B691B6823F000427B681A437B696D
:101FB8001A6000BF1C37BD465DF8047B704780B4CB
:101FC80087B000AFF860B9607A60FB6860331A4682
:101FD800BB689B0013447B617B691B6823F080729C
:101FE8007B681A437B691A6000BF1C37BD465DF8E1
:101FF800047B704780B487B000AFF860B9607A603E
:10200800FB6860331A46BB689B0013447B617B699D
:102018001B6823F000727B681A437B691A6000BF53
:102028001C37BD465DF8047B704780B483B000AFB1
:10203800786039607B685B6923F000423B681A432B
:102048007B685A6100BF0C37BD465DF8047B70475A
:1020580080B487B000AFF860B9607A60FB6830334D
:102068001A46BB681B0A9B0003F00C0313447B61F0
:102078007B691A68BB6803F01F031F2101FA03F389
:10208800DB431A407B689B0E03F01F01BB6803F01B
:102098001F0301FA03F31A437B691A6000BF1C3758
:1020A800BD465DF8047B704780B487B000AFF86028
:1020B800B9607A60FB6814331A46BB685B0E9B00F4
:1020C80003F0040313447B617B691A68BB681B0D2A
:1020D80003F01F03072101FA03F3DB431A40BB682F
:1020E8001B0D03F01F03796801FA03F31A437B6998
:1020F8001A6000BF1C37BD465DF8047B70470000BE
:1021080080B485B000AFF860B9607A60FB68D3F836
:10211800B020BB68C3F31203DB431A407B6803F0AB
:1021280018030849D940BB680B40C3F312031A438C
:10213800FB68C3F8B02000BF1437BD465DF8047BC8
:10214800704700BFFFFF070080B483B000AF78601E
:102158007B689B6823F0204323F03F037A689360F1
:1021680000BF0C37BD465DF8047B704780B483B070
:1021780000AF78607B689B6803F00053B3F1005FA1
:1021880001D1012300E0002318460C37BD465DF855
:10219800047B704780B483B000AF78607B689B682D
:1021A80023F0104323F03F0343F080527B689A608A
:1021B80000BF0C37BD465DF8047B704780B483B020
:1021C80000AF78607B689B6803F08053B3F1805F51
:1021D80001D1012300E0002318460C37BD465DF805
:1021E800047B704780B483B000AF78607B689B68DD
:1021F80003F00103012B01D1012300E0002318465D
:102208000C37BD465DF8047B704780B483B000AFDF
:1022180078607B689B6803F00403042B01D10123D9
:1022280000E0002318460C37BD465DF8047B704774
:1022380080B483B000AF78607B689B6803F00803C4
:10224800082B01D1012300E0002318460C37BD46B6
:102258005DF8047B7047000090B589B000AF7860E6
:102268000023FB770023FB607B68002B01D101234F
:10227800A9E17B685B69002B7B68DB6D002B09D1CA
:102288007868FEF74BFF7B6800221A667B6800229D
:1022980083F858207B681B681846FFF767FF0346DA
:1022A800002B04D07B681B681846FFF74DFF7B683E
:1022B8001B681846FFF782FF0346002B15D17B6881
:1022C8001B681846FFF766FF9C4B1B689B099C4AD6
:1022D800A2FB03239B0901335B00FB6002E0FB6860
:1022E800013BFB60FB68002BF9D17B681B68184633
:1022F800FFF764FF0346002B0DD17B68DB6D43F0CD
:1023080010027B68DA657B681B6E43F001027B680C
:102318001A660123FB777B681B681846FFF775FF71
:1023280078617B68DB6D03F01003002B40F042817D
:102338007B69002B40F03E817B68DB6D23F4817361
:1023480043F002027B68DA657B681B681846FFF772
:1023580049FF0346002B41D17B681B68B3F1A04FAE
:1023680004D07B681B68774A93420FD14FF0A04096
:10237800FFF738FF04467348FFF734FF034623434B
:10238800002B0CBF01230023DBB212E06E48FFF7DD
:1023980029FF04466D48FFF725FF03461C436C4898
:1023A800FFF720FF03462343002B0CBF0123002324
:1023B800DBB2002B12D07B681B68B3F1A04F04D0AE
:1023C8007B681B685F4A934201D1624A00E0624A17
:1023D8007B685B6819461046FFF768FD7B685B7F82
:1023E8005A037B68DB6B1A437B68DB681A437B689C
:1023F8009B681A437B6893F824301B041343BB6122
:102408007B6893F82430012B06D17B689B6A013BDB
:102418005B04BA691343BB617B68DB6A002B09D094
:102428007B68DB6A03F478727B681B6B1343BA69B9
:102438001343BB617B681B68DA68484B13407A68B2
:102448001268B9690B43D3607B681B681B6923F06A
:1024580040617B685A6B7B681B680A431A617B681A
:102468001B681846FFF7E4FE38617B69002B7FD1B3
:102478003B69002B7CD17B681B7F9A037B6893F8B0
:1024880038305B001343BB617B681B68DB6823F44F
:10249800804323F002037A681268B9690B43D3605A
:1024A8007B681B69002B17D07B681B681A697B68DF
:1024B8001B6842F480321A617B681B68D3F8C0300D
:1024C80023F47F5323F03F037A6811697A6812680E
:1024D8000B43C2F8C03013E07B681B681A697B683D
:1024E8001B6822F480321A617B681B68D3F8C030FD
:1024F8007A68126823F47F5323F03F03C2F8C03090
:102508007B6893F84030012B2AD17B681B681B69D4
:1025180023F4FF6323F004037A68516C7A68926CA1
:1025280011437A68D26C11437A68126D0A431A43D0
:102538007B681B6842F001021A6119E01400002050
:10254800632D3E05000100500004005000050050B6
:102558000006005000030050000700500740F0FF3D
:102568007B681B681A697B681B6822F001021A6184
:102578007B685B69012B0CD17B681B681B6B23F0A4
:102588000F017B681B6A5A1E7B681B680A431A6323
:1025980007E07B681B681A6B7B681B6822F00F02D8
:1025A8001A637B68DB6D23F0030343F001027B6849
:1025B800DA6507E07B68DB6D43F010027B68DA655B
:1025C8000123FB77FB7F18462437BD4690BD00BF2B
:1025D80080B5B6B000AF78603960002387F8D7308F
:1025E8000023FB607B6893F85830012B02D102234B
:1025F80000F013BC7B68012283F858207B681B68B5
:102608001846FFF702FE0346002B40F0F3837B6871
:1026180018683B6859683B681B681A46FFF718FD3D
:102628007B681B681846FFF7F0FDC7F8D0007B6889
:102638001B681846FFF7FCFDC7F8CC00D7F8D03068
:10264800002B40F0D981D7F8CC30002B40F0D48152
:102658003B689B68B3F1004F0FD17B6818683B68F3
:102668001B6800221946FFF71FFD7B681B684FF0A7
:1026780000411846FFF7D9FC0EE07B6818683B68F4
:1026880019683B689B681A46FFF70EFD7B681B6854
:1026980000211846FFF7C9FC3B685A697B681B682C
:1026A800DB68DB0803F003035B0002FA03F3C7F8F7
:1026B800C8303B681B69042B22D07B6818683B68CC
:1026C80019693B681A68D7F8C830FFF723FC7B689C
:1026D80018683B6819693B689B691A46FFF76FFCE5
:1026E8007B6818683B6819693B681B7F012B02D11E
:1026F8004FF0007300E000231A46FFF77BFC7BE1F4
:102708007B681B6800211846FFF728FC0346C3F3C3
:102718001203002B0AD17B681B6800211846FFF7BB
:102728001DFC03469B0E03F01F021EE07B681B681E
:1027380000211846FFF712FC0346C7F8BC30D7F84B
:10274800BC3093FAA3F3C7F8C030D7F8C030C7F845
:10275800B830D7F8B830002B01D1202304E0D7F8DF
:10276800B830B3FA83F3DBB21A463B681B68C3F38D
:102778001203002B05D13B681B689B0E03F01F0357
:1027880018E03B681B68C7F8B030D7F8B03093FA48
:10279800A3F3C7F8AC30D7F8AC30C7F8B430D7F8E3
:1027A800B430002B01D1202304E0D7F8B430B3FAB9
:1027B80083F3DBB29A4206D17B681B6800220021B2
:1027C8001846FFF7E1FB7B681B6801211846FFF7F5
:1027D800C5FB0346C3F31203002B0AD17B681B68B1
:1027E80001211846FFF7BAFB03469B0E03F01F02B0
:1027F8001EE07B681B6801211846FFF7AFFB034604
:10280800C7F8A430D7F8A43093FAA3F3C7F8A030D8
:10281800D7F8A030C7F8A830D7F8A830002B01D1D6
:10282800202304E0D7F8A830B3FA83F3DBB21A46C2
:102838003B681B68C3F31203002B05D13B681B6878
:102848009B0E03F01F0318E03B681B68C7F898301D
:10285800D7F8983093FAA3F3C7F89430D7F89430A0
:10286800C7F89C30D7F89C30002B01D1202304E016
:10287800D7F89C30B3FA83F3DBB29A4206D17B686F
:102888001B68002201211846FFF77EFB7B681B6846
:1028980002211846FFF762FB0346C3F31203002B1D
:1028A8000AD17B681B6802211846FFF757FB0346CD
:1028B8009B0E03F01F021EE07B681B68022118466E
:1028C800FFF74CFB0346C7F88C30D7F88C3093FAE7
:1028D800A3F3C7F88830D7F88830C7F89030D7F80E
:1028E8009030002B01D1202304E0D7F89030B3FAC0
:1028F80083F3DBB21A463B681B68C3F31203002B51
:1029080005D13B681B689B0E03F01F0316E03B686C
:102918001B68C7F88030D7F8803093FAA3F3FB67B9
:10292800FB6FC7F88430D7F88430002B01D12023FF
:1029380004E0D7F88430B3FA83F3DBB29A4206D1C5
:102948007B681B68002202211846FFF71DFB7B6885
:102958001B6803211846FFF701FB0346C3F3120364
:10296800002B0AD17B681B6803211846FFF7F6FA8B
:1029780003469B0E03F01F0217E07B681B680321C8
:102988001846FFF7EBFA03467B677B6F93FAA3F3CE
:102998003B673B6FBB67BB6F002B01D1202303E074
:1029A800BB6FB3FA83F3DBB21A463B681B68C3F309
:1029B8001203002B05D13B681B689B0E03F01F0315
:1029C80011E03B681B68BB66BB6E93FAA3F37B669A
:1029D8007B6EFB66FB6E002B01D1202303E0FB6EB0
:1029E800B3FA83F3DBB29A4206D17B681B680022F4
:1029F80003211846FFF7C8FA7B681B681846FFF7DB
:102A0800F1FB0346002B40F03D817B6818683B686A
:102A180019683B68DB681A46FFF772FB3B68DB689E
:102A2800A24A934240F02E817B6818683B681B6875
:102A3800C3F31203002B0BD13B681B689B0E0133B9
:102A480003F01F03092B94BF01230023DBB219E015
:102A58003B681B68FB65FB6D93FAA3F3BB65BB6D15
:102A68003B663B6E002B01D1202303E03B6EB3FA9B
:102A780083F3DBB2013303F01F03092B94BF012357
:102A88000023DBB2002B79D03B681B68C3F3120329
:102A9800002B07D13B681B689B0E01339B0603F094
:102AA800F84215E03B681B683B653B6D93FAA3F35E
:102AB800FB64FB6C7B657B6D002B01D1202303E05D
:102AC8007B6DB3FA83F3DBB201339B0603F0F84264
:102AD8003B681B68C3F31203002B09D13B681B68D2
:102AE8009B0E013303F01F03012101FA03F317E0E2
:102AF8003B681B687B647B6C93FAA3F33B643B6C79
:102B0800BB64BB6C002B01D1202303E0BB6CB3FA80
:102B180083F3DBB2013303F01F03012101FA03F34E
:102B280042EA03013B681B68C3F31203002B0AD176
:102B38003B681B689B0E013303F01F0213465B00C2
:102B480013441B0518E03B681B68BB63BB6B93FA17
:102B5800A3F37B637B6BFB63FB6B002B01D120230F
:102B680003E0FB6BB3FA83F3DBB2013303F01F021C
:102B780013465B0013441B050B437EE03B681B6850
:102B8800C3F31203002B07D13B681B689B0E01336C
:102B98009B0603F0F84215E03B681B68FB62FB6A82
:102BA80093FAA3F3BB62BB6A3B633B6B002B01D177
:102BB800202303E03B6BB3FA83F3DBB201339B06BC
:102BC80003F0F8423B681B68C3F31203002B09D1DA
:102BD8003B681B689B0E013303F01F03012101FAB8
:102BE80003F317E03B681B683B623B6A93FAA3F365
:102BF800FB61FB697B627B6A002B01D1202303E028
:102C08007B6AB3FA83F3DBB2013303F01F030121BC
:102C180001FA03F342EA03013B681B68C3F312039A
:102C2800002B0DD13B681B689B0E013303F01F027C
:102C380013465B0013441E3B1B0543F000731BE067
:102C48003B681B687B617B6993FAA3F33B613B6933
:102C5800BB61BB69002B01D1202303E0BB69B3FA38
:102C680083F3DBB2013303F01F0213465B00134406
:102C78001E3B1B0543F000730B433A6892681946E4
:102C8800FFF712FA3B681A68094B1340002B00F053
:102C9800BE807B681B68B3F1A04F04D07B681B68BB
:102CA800044A93420AD1044B09E000BF00007F4068
:102CB800000008800001005000030050594B1846DE
:102CC800FFF71AF9C7F8C4003B681B68564A9342D5
:102CD80004D03B681B68554A93423AD1D7F8C430B0
:102CE80003F40003002B34D17B681B68B3F1A04FB9
:102CF80005D07B681B684E4A934240F085807B680C
:102D08001B68B3F1A04F04D07B681B68494A934203
:102D180001D1494A00E0434AD7F8C43043F40003DC
:102D280019461046FFF7D5F8444B1B689B09444ADF
:102D3800A2FB03239B095A1C13465B0013449B0008
:102D4800FB6002E0FB68013BFB60FB68002BF9D1EC
:102D58005AE03B681B683B4A934225D1D7F8C430F8
:102D680003F08073002B1FD17B681B68314A9342A4
:102D780004D17B681B68344A934247D07B681B6840
:102D8800B3F1A04F04D07B681B682A4A934201D153
:102D9800294A00E0234AD7F8C43043F08073194623
:102DA8001046FFF796F831E03B681B68274A9342C4
:102DB8002DD1D7F8C43003F48003002B27D17B68CA
:102DC8001B681C4A934222D07B681B68B3F1A04F52
:102DD80004D07B681B68174A934201D1164A00E069
:102DE800104AD7F8C43043F4800319461046FFF759
:102DF80070F80CE07B68DB6D43F020027B68DA65D5
:102E0800012387F8D73002E000BF00E000BF7B68ED
:102E1800002283F8582097F8D7301846D837BD468F
:102E280080BD00BF00070050000021C31000C09003
:102E3800000600500001005000030050140000205C
:102E4800632D3E05000052C700050050000084CBEA
:102E580080B483B000AF78607B689B6803F001039F
:102E6800012B01D1012300E0002318460C37BD4691
:102E78005DF8047B704780B483B000AF78607B68EE
:102E88009B6803F00403042B01D1012300E0002315
:102E980018460C37BD465DF8047B704790B5A1B065
:102EA80000AF78603960002387F87F307B6893F83B
:102EB8005830012B01D10223E7E07B68012283F817
:102EC800582000237B660023BB667B681B68B3F130
:102ED800A04F02D16F4BBB6009E07B681B686E4A4C
:102EE800934202D16D4BBB6001E00023BB60BB681D
:102EF800002B0BD17B68DB6D43F020027B68DA6521
:102F08007B68002283F858200123BEE0BB6818467E
:102F1800FFF7B1FFB8677B681B681846FFF7ABFF80
:102F28000346002B40F0A080BB6F002B40F09C8034
:102F38007B681B68B3F1A04F04D07B681B68554AB7
:102F4800934201D1564B00E0564B7B673B681B68A8
:102F5800002B4BD07B6F9B6823F460423B68596819
:102F68007B6893F838305B030B431A437B6F9A6096
:102F78007B681B68B3F1A04F04D07B681B68454A87
:102F880093420FD14FF0A040FFF762FF044641483B
:102F9800FFF75EFF03462343002B0CBF01230023EA
:102FA800DBB212E03C48FFF753FF04463B48FFF70B
:102FB8004FFF03461C433C48FFF74AFF03462343A1
:102FC800002B0CBF01230023DBB2002B56D07B6FF4
:102FD8009B6823F4716323F00F033A6811683A6819
:102FE80092680A431A437B6F9A6047E07B6F9B683D
:102FF80023F460427B6F9A607B681B68B3F1A04F33
:1030080004D07B681B68234A93420FD14FF0A0403D
:10301800FFF71EFF04461F48FFF71AFF0346234326
:10302800002B0CBF01230023DBB212E01A48FFF784
:103038000FFF04461948FFF70BFF03461C431A48C5
:10304800FFF706FF03462343002B0CBF0123002391
:10305800DBB2002B12D07B6F9B6823F4716323F0E3
:103068000F037A6F936009E07B68DB6D43F0200201
:103078007B68DA65012387F87F3000E000BF7B6852
:10308800002283F8582097F87F3018468437BD46C9
:1030980090BD00BF00010050000400500005005022
:1030A80000030050000700500006005080B582B0B1
:1030B80000AF0023FB71032001F09CFC0F2000F0FF
:1030C8000DF80346002B02D00123FB7101E0FEF747
:1030D800C9FEFB7918460837BD4680BD80B584B067
:1030E80000AF78600023FB73164B1B68002B22D0BF
:1030F800154B1A68134B1B684FF47A71B1FBF3F345
:10310800B2FBF3F3184601F0A8FC0346002B0FD1DD
:103118007B680F2B09D8002279684FF0FF3001F047
:1031280074FC0A4A7B68136007E00123FB7304E020
:103138000123FB7301E00123FB73FB7B1846103767
:10314800BD4680BD10000020140000200C000020A7
:1031580080B400AF054B1A68054B1B681344034A3B
:10316800136000BFBD465DF8047B7047A8080020C7
:103178001000002080B400AF034B1B681846BD4602
:103188005DF8047B704700BFA808002080B588B0B0
:1031980000AF78607B68002B01D10123FEE27B68D9
:1031A8001B6803F00103002B75D0974B9B6803F055
:1031B8000C03BB61944BDB6803F003037B61BB69C1
:1031C8000C2B02D17B69032B02D0BB69082B0BD1D6
:1031D8008D4B1B6803F40033002B5BD07B685B6866
:1031E800002B57D10123D9E27B685B68B3F5803F98
:1031F80006D1854B1B68844A43F4803313601DE075
:103208007B685B68B3F5A02F0CD17F4B1B687E4AA7
:1032180043F4802313607C4B1B687B4A43F4803360
:1032280013600BE0784B1B68774A23F480331360F4
:10323800754B1B68744A23F4802313607B685B68B2
:10324800002B13D0FFF796FF386108E0FFF792FFD5
:1032580002463B69D31A642B01D903239EE26A4BC9
:103268001B6803F40033002BF0D014E0FFF782FF53
:10327800386108E0FFF77EFF02463B69D31A642BEA
:1032880001D903238AE2604B1B6803F40033002B47
:10329800F0D100E000BF7B681B6803F00203002B3D
:1032A80075D0594B9B6803F00C03BB61564BDB6828
:1032B80003F003037B61BB690C2B02D17B69022BF2
:1032C80002D0BB69042B1FD14F4B1B6803F48063EA
:1032D800002B05D07B68DB68002B01D101235DE260
:1032E800494B5B6823F0FE427B681B691B06464915
:1032F80013434B60454B1B681846FFF7EFFE034628
:10330800002B43D0012349E27B68DB68002B23D0E4
:103318003D4B1B683C4A43F480731360FFF72AFF58
:10332800386108E0FFF726FF02463B69D31A022BF3
:1033380001D9032332E2344B1B6803F48063002B6A
:10334800F0D0314B5B6823F0FE427B681B691B069B
:103358002D4913434B601AE02B4B1B682A4A23F470
:1033680080731360FFF706FF386108E0FFF702FF7C
:1033780002463B69D31A022B01D903230EE2224BE2
:103388001B6803F48063002BF0D100E000BF7B686A
:103398001B6803F00803002B41D07B685B69002B96
:1033A8001CD0194BD3F89430174A43F00103C2F8E4
:1033B8009430FFF7DFFE386108E0FFF7DBFE0246D6
:1033C8003B69D31A022B01D90323E7E10E4BD3F84B
:1033D800943003F00203002BEFD020E00A4BD3F81F
:1033E8009430094A23F00103C2F89430FFF7C2FE73
:1033F80038610DE0FFF7BEFE02463B69D31A022B87
:1034080006D90323CAE100BF001002400C000020C7
:103418008C4BD3F8943003F00203002BEAD17B687D
:103428001B6803F00403002B00F0A6800023FB7741
:10343800844B9B6D03F08053002B01D1012300E0E6
:103448000023002B0DD07F4B9B6D7E4A43F08053A9
:1034580093657C4B9B6D03F08053FB60FB680123F5
:10346800FB77794B1B6803F48073002B18D1764BDC
:103478001B68754A43F480731360FFF77BFE38615D
:1034880008E0FFF777FE02463B69D31A022B01D901
:10349800032383E16C4B1B6803F48073002BF0D08B
:1034A8007B689B68012B08D1664BD3F89030654A3E
:1034B80043F00103C2F8903024E07B689B68052B39
:1034C80010D1604BD3F890305E4A43F00403C2F841
:1034D80090305C4BD3F890305A4A43F00103C2F85D
:1034E80090300FE0574BD3F89030564A23F0010341
:1034F800C2F89030534BD3F89030524A23F004036B
:10350800C2F890307B689B68002B16D0FFF732FE1C
:1035180038610AE0FFF72EFE02463B69D31A41F2F2
:103528008832934201D9032338E1464BD3F89030CF
:1035380003F00203002BEDD015E0FFF71BFE386106
:103548000AE0FFF717FE02463B69D31A41F28832B8
:10355800934201D9032321E13A4BD3F8903003F089
:103568000203002BEDD1FB7F012B05D1354B9B6D61
:10357800344A23F0805393657B681B6803F020036B
:10358800002B3CD07B689B69002B1CD02D4BD3F8BB
:1035980098302C4A43F00103C2F89830FFF7EAFD4F
:1035A800386108E0FFF7E6FD02463B69D31A022BB3
:1035B80001D90323F2E0234BD3F8983003F0020338
:1035C800002BEFD01BE01F4BD3F898301D4A23F097
:1035D8000103C2F89830FFF7CDFD386108E0FFF726
:1035E800C9FD02463B69D31A022B01D90323D5E052
:1035F800144BD3F8983003F00203002BEFD17B680B
:10360800DB69002B00F0C9800E4B9B6803F00C03AC
:103618000C2B00F083807B68DB69022B5ED1094BA1
:103628001B68084A23F080731360FFF7A3FD386115
:103638000CE0FFF79FFD02463B69D31A022B05D920
:103648000323ABE00010024000700040554B1B689C
:1036580003F00073002BECD1524BDA68524B134045
:103668007A68116A7A68526A013A120111437A68D3
:10367800926A120211437A68126B5208013A520593
:1036880011437A68526B5208013A520611437A681C
:10369800D26AD2060A4343491343CB60414B1B68A5
:1036A800404A43F0807313603E4BDB683D4A43F069
:1036B8008073D360FFF75EFD386108E0FFF75AFDBD
:1036C80002463B69D31A022B01D9032366E0354B26
:1036D8001B6803F00073002BF0D05EE0314B1B68D1
:1036E800304A23F080731360FFF744FD386108E027
:1036F800FFF740FD02463B69D31A022B01D9032389
:103708004CE0284B1B6803F00073002BF0D1254BCD
:10371800DA682449254B1340CB603EE07B68DB69BF
:10372800012B01D1012339E01E4BDB687B617B69EA
:1037380003F003027B681B6A9A422CD17B6903F071
:10374800F0027B685B6A013B1B019A4223D17B69CB
:1037580003F4FE427B689B6A1B029A421BD17B6979
:1037680003F078427B68DB6ADB069A4213D17B69F7
:1037780003F4C0027B681B6B5B08013B5B059A4244
:1037880009D17B6903F0C0627B685B6B5B08013B16
:103798005B069A4201D0012300E000231846203737
:1037A800BD4680BD001002400C809F01FCFFEEFE6C
:1037B80080B586B000AF7860396000237B617B6894
:1037C800002B01D101231EE1914B1B6803F00F036D
:1037D8003A689A4210D98E4B1B6823F00F028C4925
:1037E8003B6813430B608A4B1B6803F00F033A686E
:1037F8009A4201D0012306E17B681B6803F00103AC
:10380800002B73D07B685B68032B29D1814B1B6825
:1038180003F00073002B01D10123F4E000F066F9F6
:1038280038613B697C4A93423FD97A4B9B6803F0E5
:10383800F003002B09D07B681B6803F00203002B00
:1038480033D07B689B68002B2FD1724B9B6823F089
:10385800F003704A43F08003936080237B6124E087
:103868007B685B68022B07D16A4B1B6803F4003343
:10387800002B09D10123C6E0664B1B6803F4806363
:10388800002B01D10123BEE000F0CEF838613B697E
:10389800614A934209D95F4B9B6823F0F0035D4A64
:1038A80043F08003936080237B615A4B9B6823F02D
:1038B80003027B685B68574913438B60FFF75AFC28
:1038C800F8600AE0FFF756FC0246FB68D31A41F29B
:1038D8008832934201D9032395E04E4B9B6803F04D
:1038E8000C027B685B689B009A42EBD17B681B6883
:1038F80003F00203002B23D07B681B6803F004034A
:10390800002B05D0434B9B68424A43F4E063936025
:103918007B681B6803F00803002B07D03D4B9B68AE
:1039280023F47C533B4A43F4E0639360394B9B6830
:1039380023F0F0027B689B68364913438B6008E0EC
:103948007B69802B05D1334B9B68324A23F0F00307
:1039580093602F4B1B6803F00F033A689A421DD2FD
:103968002B4B1B6823F00F0229493B6813430B605C
:10397800FFF700FCF8600AE0FFF7FCFB0246FB6873
:10398800D31A41F28832934201D903233BE0204BFA
:103998001B6803F00F033A689A42EDD17B681B68F5
:1039A80003F00403002B08D01A4B9B6823F4E06251
:1039B8007B68DB68174913438B607B681B6803F0DF
:1039C8000803002B09D0134B9B6823F460527B68D3
:1039D8001B69DB000F4913438B6000F025F8024692
:1039E8000C4B9B681B0903F00F030C49CB5C03F0DD
:1039F8001F0322FA03F30A4A13600A4B1B6818468E
:103A0800FFF76CFB034618461837BD4680BD00BF5C
:103A1800002002400010024000B4C404786F00087F
:103A2800140000200C00002080B487B000AF2C4B9D
:103A38009B6803F00C03042B02D12A4B3B6147E03F
:103A4800274B9B6803F00C03082B02D1264B3B61E4
:103A58003EE0234B9B6803F00C030C2B36D1204B24
:103A6800DB6803F00303FB601D4BDB681B0903F0F5
:103A78000F030133BB60FB68032B0CD11A4ABB68E8
:103A8800B2FBF3F3164AD268120A02F07F0202FB75
:103A980003F37B610CE0134ABB68B2FBF3F3104AF3
:103AA800D268120A02F07F0202FB03F37B6100BFB7
:103AB8000B4BDB685B0E03F0030301335B007B6099
:103AC8007A697B68B2FBF3F33B6101E000233B6159
:103AD8003B6918461C37BD465DF8047B704700BF3C
:103AE800001002400024F40000127A0080B487B06D
:103AF80000AF1E4BDB6803F003033B611B4BDB6825
:103B08001B0903F00F030133FB603B69032B0CD146
:103B1800174AFB68B2FBF3F3144AD268120A02F0A0
:103B28007F0202FB03F37B610CE0124AFB68B2FBE5
:103B3800F3F30E4AD268120A02F07F0202FB03F383
:103B48007B6100BF094BDB685B0E03F003030133A5
:103B58005B00BB607A69BB68B2FBF3F37B607B6890
:103B680018461C37BD465DF8047B704700100240BC
:103B780000127A000024F40080B586B000AF7860A7
:103B88000023FB740023BB747B681B6803F40023C9
:103B9800002B00F0988000237B74434B9B6D03F04F
:103BA8008053002B0DD1404B9B6D3F4A43F080530F
:103BB80093653D4B9B6D03F08053BB60BB6801234D
:103BC8007B743A4B1B68394A43F480731360FFF7E0
:103BD800D1FAF86009E0FFF7CDFA0246FB68D31A7C
:103BE800022B02D90323FB7405E0304B1B6803F456
:103BF8008073002BEFD0FB7C002B59D12A4BD3F8D4
:103C0800903003F440737B617B69002B1ED07B6886
:103C18001B6D7A699A4219D0234BD3F8903023F45C
:103C280040737B61204BD3F890301F4A43F48033B4
:103C3800C2F890301C4BD3F890301B4A23F48033E1
:103C4800C2F89030184A7B69C2F890307B6903F05B
:103C58000103002B16D0FFF78DFAF8600BE0FFF791
:103C680089FA0246FB68D31A41F28832934202D994
:103C78000323FB7406E00C4BD3F8903003F00203E7
:103C8800002BECD0FB7C002B0BD1074BD3F89030EA
:103C980023F440727B681B6D03491343C1F89030CD
:103CA80008E0FB7CBB7405E0001002400070004097
:103CB800FB7CBB747B7C012B05D1A74B9B6DA64A73
:103CC80023F0805393657B681B6803F00103002B86
:103CD8000AD0A14BD3F8883023F003027B685B68D5
:103CE8009D491343C1F888307B681B6803F00203C1
:103CF800002B0AD0984BD3F8883023F00C027B684D
:103D08009B6895491343C1F888307B681B6803F0AA
:103D18000403002B0AD0904BD3F8883023F03002EC
:103D28007B68DB688C491343C1F888307B681B6863
:103D380003F00803002B0AD0874BD3F8883023F010
:103D4800C0027B681B6984491343C1F888307B68CB
:103D58001B6803F01003002B0AD07F4BD3F8883080
:103D680023F440727B685B697B491343C1F8883050
:103D78007B681B6803F02003002B0AD0764BD3F82E
:103D8800883023F440627B689B6973491343C1F808
:103D980088307B681B6803F04003002B0AD06E4B09
:103DA800D3F8883023F440527B68DB696A491343AF
:103DB800C1F888307B681B6803F08003002B0AD0A9
:103DC800654BD3F8883023F440427B681B6A62490C
:103DD8001343C1F888307B681B6803F48073002B99
:103DE8000AD05D4BD3F8883023F440327B685B6A95
:103DF80059491343C1F888307B681B6803F40033C2
:103E0800002B0AD0544BD3F89C3023F003027B6874
:103E18009B6A51491343C1F89C307B681B6803F4C3
:103E28000073002B0AD04C4BD3F8883023F440227F
:103E38007B68DB6A48491343C1F888307B681B6894
:103E480003F48063002B15D0434BD3F8883023F458
:103E580040127B681B6B40491343C1F888307B686C
:103E68001B6BB3F5801F05D13B4BDB683A4A43F423
:103E78008013D3607B681B6803F40063002B15D0A4
:103E8800354BD3F8883023F440027B685B6B3249AA
:103E98001343C1F888307B685B6BB3F5800F05D19D
:103EA8002D4BDB682C4A43F48013D3607B681B6876
:103EB80003F48053002B15D0274BD3F8883023F018
:103EC80040727B689B6B24491343C1F888307B6838
:103ED8009B6BB3F1807F05D11F4BDB681E4A43F40F
:103EE8008013D3607B681B6803F40053002B15D044
:103EF800194BD3F8883023F040627B68DB6B164996
:103F08001343C1F888307B68DB6BB3F1006F05D1D0
:103F1800114BDB68104A43F48013D3607B681B683D
:103F280003F48043002B19D00B4BD3F8883023F0CF
:103F380040627B681B6C08491343C1F888307B6872
:103F48001B6CB3F1006F09D1034BDB68024A43F4E1
:103F58008013D36002E000BF001002407B681B683A
:103F680003F40043002B15D0294BD3F8883023F0F5
:103F780040527B685B6C26491343C1F888307B68E4
:103F88005B6CB3F1805F05D1214BDB68204A43F4B9
:103F98008033D3607B681B6803F48033002B15D013
:103FA8001B4BD3F8883023F040427B689B6C184940
:103FB8001343C1F888307B689B6CB3F1804F05D1FF
:103FC800134BDB68124A43F48033D3607B681B6869
:103FD80003F48023002B15D00D4BD3F89C3023F429
:103FE80040127B68DB6C0A491343C1F89C307B683C
:103FF800DB6CB3F5001F05D1054BDB68044A43F4BD
:104008008013D360BB7C18461837BD4680BD00BFFF
:104018000010024080B487B000AF78603960002398
:104028007B615AE13B681A6801217B6901FA03F355
:104038001340FB60FB68002B00F04C813B685B6819
:1040480003F00303012B05D03B685B6803F003030F
:10405800022B30D17B689B683B617B695B00032244
:1040680002FA03F3DB433A6913403B613B68DA68C1
:104078007B695B0002FA03F33A6913433B617B688F
:104088003A699A607B685B683B6101227B6902FA46
:1040980003F3DB433A6913403B613B685B681B09E8
:1040A80003F001027B6902FA03F33A6913433B61A7
:1040B8007B683A695A603B685B6803F00303032B2B
:1040C80017D07B68DB683B617B695B00032202FADF
:1040D80003F3DB433A6913403B613B689A687B69A9
:1040E8005B0002FA03F33A6913433B617B683A6960
:1040F800DA603B685B6803F00303022B23D17B691A
:10410800DA087B68083253F822303B617B6903F098
:1041180007039B000F2202FA03F3DB433A691340BB
:104128003B613B681A697B6903F007039B0002FA4D
:1041380003F33A6913433B617B69DA087B68083209
:10414800396943F822107B681B683B617B695B0017
:10415800032202FA03F3DB433A6913403B613B68ED
:104168005B6803F003027B695B0002FA03F33A69B8
:1041780013433B617B683A691A603B685B6803F4E8
:104188004033002B00F0A6805B4B1B6E5A4A43F06D
:1041980001031366584B1B6E03F00103BB60BB6839
:1041A800564A7B699B08023352F823303B617B698E
:1041B80003F003039B000F2202FA03F3DB433A697F
:1041C80013403B617B68B3F1904F1FD07B684C4A2A
:1041D800934219D07B684B4A934213D07B684A4A72
:1041E80093420DD07B68494A934207D07B68484A7E
:1041F800934201D105230AE0062308E0042306E0E0
:10420800032304E0022302E0012300E000237A698B
:1042180002F00302920093403A6913433B61374925
:104228007B699B0802333A6941F82320394B9B6824
:104238003B61FB68DB433A6913403B613B685B6861
:1042480003F48013002B03D03A69FB6813433B61E6
:10425800304A3B6993602F4BDB683B61FB68DB436B
:104268003A6913403B613B685B6803F40013002B19
:1042780003D03A69FB6813433B61264A3B69D36024
:10428800244B5B683B61FB68DB433A6913403B6145
:104298003B685B6803F40033002B03D03A69FB6882
:1042A80013433B611B4A3B6953601A4B1B683B61D4
:1042B800FB68DB433A6913403B613B685B6803F486
:1042C8008033002B03D03A69FB6813433B61114AE2
:1042D8003B6913607B6901337B613B681A687B69C2
:1042E80022FA03F3002B7FF49DAE00BF00BF1C37FA
:1042F800BD465DF8047B7047001002400000014095
:104308000004004800080048000C0048001000485D
:10431800001400480004014080B485B000AF786004
:104328000B467B807B681A697B881340002B02D080
:104338000123FB7301E00023FB73FB7B1846143752
:10434800BD465DF8047B704780B483B000AF7860E9
:104358000B467B8013467B707B78002B03D07A88D2
:104368007B689A6102E07A887B689A6200BF0C37A2
:10437800BD465DF8047B704780B584B000AF7860B7
:104388007B68002B01D101238DE07B681B681A46EE
:10439800474B9A420FD87B681B681A46454B134413
:1043A800454AA2FB03231B099A007B685A647B6871
:1043B800424A1A640EE07B681B681A46404B134455
:1043C8003D4AA2FB03231B099A007B685A647B6859
:1043D8003C4A1A647B68022283F825207B681B68A4
:1043E8001B68FB60FB6823F4FF4323F07003FB604A
:1043F8007B689A687B68DB681A437B681B691A4389
:104408007B685B691A437B689B691A437B68DB6935
:104418001A437B681B6A1343FA681343FB607B6883
:104428001B68FA681A60786800F0FEF87B689B6879
:10443800B3F5804F02D17B6800225A607B685A68C6
:104448007B689B6CD2B21A607B68DB6C7A68126DF1
:104458005A607B685B68002B10D07B685B68042B14
:104468000CD8786800F01EF97B685B6D00221A6032
:104478007B689B6D7A68D26D5A6008E07B68002281
:104488005A657B6800229A657B680022DA657B683A
:104498000022DA637B68012283F825207B680022EA
:1044A80083F82420002318461037BD4680BD00BF7E
:1044B80007040240F8FFFDBFCDCCCCCC0000024081
:1044C800F8FBFDBF0004024080B584B000AF7860FF
:1044D8007B681B6C1B68FB607B681B681B68BB6088
:1044E8007B685B6C03F01F0304229A40FB6813404F
:1044F800002B26D0BB6803F00403002B21D07B6877
:104508001B681B6803F02003002B07D17B681B681E
:104518001A687B681B6822F004021A607B685B6C6F
:1045280003F01F027B681B6C042101FA02F25A6037
:104538007B681B6B002B71D07B681B6B7868984776
:104548006CE07B685B6C03F01F0302229A40FB68F7
:104558001340002B2ED0BB6803F00203002B29D098
:104568007B681B681B6803F02003002B0BD17B685A
:104578001B681A687B681B6822F00A021A607B684D
:10458800012283F825207B685B6C03F01F027B689F
:104598001B6C022101FA02F25A607B68002283F840
:1045A80024207B68DB6A002B38D07B68DB6A78685C
:1045B800984733E07B685B6C03F01F0308229A403E
:1045C800FB681340002B2AD0BB6803F00803002BBC
:1045D80025D07B681B681A687B681B6822F00E026E
:1045E8001A607B685B6C03F01F027B681B6C0121FF
:1045F80001FA02F25A607B680122DA637B680122C1
:1046080083F825207B68002283F824207B685B6B75
:10461800002B04D07B685B6B7868984700BF00BFAD
:104628001037BD4680BD000080B487B000AF786009
:104638007B681B681A46164B9A4202D8154B7B6159
:1046480001E0154B7B617B693B617B681B68DBB2D2
:10465800083B124AA2FB03231B09FB607B685B6CC7
:104668009B089A003B6913441A467B689A647B68E6
:104678000B4ADA64FB6803F01F0301229A407B6847
:104688001A6500BF1C37BD465DF8047B704700BF44
:10469800070402400008024020080240CDCCCCCCE0
:1046A8008008024080B485B000AF78607B685B68A2
:1046B800DBB2FB60FA680B4B13449B001A467B681D
:1046C8005A657B68084A9A65FB68013B03F01F033B
:1046D80001229A407B68DA6500BF1437BD465DF851
:1046E800047B70473F8200104009024080B485B0C7
:1046F80000AF78607B68002B41D14B4B1B6803F4FB
:10470800C063B3F5806F31D1474BD3F88030464A48
:1047180023F48073C2F88030434B1B6823F4C063D2
:10472800414A43F400731360404B1B68322202FB7A
:1047380003F33F4AA2FB03239B0C0133FB6002E017
:10474800FB68013BFB60384B5B6903F48063B3F59E
:10475800806F02D1FB68002BF2D1334B5B6903F405
:104768008063B3F5806F58D1032357E02E4BD3F8FD
:1047780080302D4A23F48073C2F880304DE07B6886
:10478800B3F5007F41D1284B1B6803F4C063B3F530
:10479800806F31D1244BD3F88030234A43F480739F
:1047A800C2F88030204B1B6823F4C0631E4A43F4D0
:1047B800007313601D4B1B68322202FB03F31C4A73
:1047C800A2FB03239B0C0133FB6002E0FB68013B67
:1047D800FB60154B5B6903F48063B3F5806F02D10E
:1047E800FB68002BF2D1104B5B6903F48063B3F5CF
:1047F800806F12D1032311E00B4BD3F880300A4AA3
:1048080043F48073C2F8803007E0074B1B6823F439
:10481800C063054A43F480631360002318461437C5
:10482800BD465DF8047B704700700040140000200E
:1048380083DE1B4380B400AF054B9B68044A43F4F6
:104848008043936000BFBD465DF8047B704700BF9E
:104858000070004080B485B000AF78607B6803F0DA
:104868000703FB600C4BDB68BB60BA684FF6FF03BD
:104878001340BB60FB681A02BB68134343F0BF6375
:1048880043F40033BB60044ABB68D36000BF1437ED
:10489800BD465DF8047B704700ED00E080B400AFD2
:1048A800044BDB681B0A03F007031846BD465DF896
:1048B800047B704700ED00E080B483B000AF03468E
:1048C800FB7197F90730002B0BDBFB7903F01F0214
:1048D800074997F907305B09012000FA02F241F80D
:1048E800232000BF0C37BD465DF8047B704700BF2E
:1048F80000E100E080B483B000AF03463960FB718B
:1049080097F90730002B0ADB3B68DAB20C4997F9B4
:1049180007301201D2B20B4483F800230AE03B6847
:10492800DAB20849FB7903F00F03043B1201D2B253
:104938000B441A7600BF0C37BD465DF8047B704700
:1049480000E100E000ED00E080B489B000AFF8605D
:10495800B9607A60FB6803F00703FB61FB69C3F188
:104968000703042B28BF0423BB61FB690433062B10
:1049780002D9FB69033B00E000237B614FF0FF3263
:10498800BB6902FA03F3DA43BB681A407B699A40B1
:104998004FF0FF317B6901FA03F3D9437B680B4081
:1049A800134318462437BD465DF8047B7047000062
:1049B80080B582B000AF78607B68013BB3F1807F3F
:1049C80001D301230FE00A4A7B68013B53600F21A2
:1049D8004FF0FF30FFF78EFF054B00229A60044B23
:1049E80007221A60002318460837BD4680BD00BF5D
:1049F80010E000E080B582B000AF78607868FFF71B
:104A080029FF00BF0837BD4680BD80B586B000AF1E
:104A18000346B9607A60FB73FFF740FF78617A68F4
:104A2800B9687869FFF790FF024697F90F30114689
:104A38001846FFF75FFF00BF1837BD4680BD80B539
:104A480082B000AF0346FB7197F907301846FFF7AD
:104A580033FF00BF0837BD4680BD80B582B000AFC8
:104A680078607868FFF7A4FF034618460837BD4604
:104A780080BD000080B586B000AF78607B68002BF1
:104A880001D10123BEE07B68022283F8DD207B6828
:104A98000022C3F8E0207B680022C3F8E4207B688A
:104AA8000022C3F8E8207B680022C3F8EC207B686A
:104AB8000022C3F8F0207B680022C3F8F4207B684A
:104AC8000022C3F8F8207B689B6803F00103002BE1
:104AD8002ED07B681B684D4A93420BD14C4B1B6E02
:104AE8004B4A43F080631366494B1B6E03F08063A7
:104AF800FB60FB687B681B681B683B613B6923F4B0
:104B080040433B617B681B6903F440433A691343A4
:104B18003B613B6923F440533B617B685B6903F469
:104B280040533A6913433B617B681B683A691A60D2
:104B38007868FCF7DFFF7B689B6803F00203002BB3
:104B480012D07B681B681B683B613B6923F4407388
:104B58003B617B68DB6803F440733A6913433B614C
:104B68007B681B683A691A607B68012283F8DD203C
:104B78007B68002283F8DC200023FB753EE0FA7D89
:104B880079681346DB009B1A9B000B4418330022FC
:104B98001A60FA7D79681346DB009B1A9B000B4468
:104BA8001C3300221A60FA7D79681346DB009B1AD1
:104BB8009B000B44203300221A60FA7D7968134663
:104BC800DB009B1A9B000B44243300221A60FA7DF9
:104BD80079681346DB009B1A9B000B44283300229C
:104BE8001A60FA7D79681346DB009B1A9B000B4418
:104BF800303300221A60FB7D0133FB75FB7D062BE9
:104C0800BDD9002318461837BD4680BD006801404D
:104C18000010024080B483B000AF786039607B68D0
:104C280093F8DC30012B01D1022345E07B68012297
:104C380083F8DC207B68022283F8DD203B68B3F12F
:104C4800FF3F14D17B681B68D3F8CC237B681B68B3
:104C580022F00202C3F8CC237B681B68D3F8CC236C
:104C68007B681B6842F00102C3F8CC231FE07B6815
:104C78001B68D3F8CC237B681B6842F00202C3F898
:104C8800CC237B681B68D3F8CC3323F00C017B68FA
:104C98001B683A680A43C3F8CC237B681B68D3F8BF
:104CA800CC237B681B6842F00102C3F8CC237B68E5
:104CB800012283F8DD20002318460C37BD465DF835
:104CC800047B704780B584B000AF78603960FEF728
:104CD80051FAF86014E03B68B3F1FF3F10D0FEF7DB
:104CE80049FA0246FB68D31A3A689A4202D33B68EB
:104CF800002B05D17B68072283F8DD20032311E010
:104D08007B681B68D3F8883303F48033B3F5803F9E
:104D1800E1D17B68012283F8DD207B68002283F8DB
:104D2800DC20002318461037BD4680BD80B584B00E
:104D380000AFF860B9607A60FB6893F8DD30DBB2E9
:104D4800022B01D1022315E0FB68022283F8DD2043
:104D5800BB68062B04D17968F86800F0A9FE04E066
:104D68007A68B968F86800F0D2FEFB68012283F817
:104D7800DD20002318461037BD4680BD80B487B0BB
:104D880000AFF860B9607A60FB6893F8DD30DBB299
:104D9800022B01D10223D7E1FB6893F8DC30012B09
:104DA80001D10223D0E1FB68012283F8DC20FB68F3
:104DB800022283F8DD20FB681B68D3F880337B610F
:104DC800FB681B68D3F8FC333B61BB68B3F5007F15
:104DD80000F06D81BB68B3F5007F00F28D81BB6880
:104DE800B3F5807F00F03F81BB68B3F5807F00F2A8
:104DF8008381BB68802B00F01181BB68802B00F297
:104E08007B81BB68202B4BD8BB68002B00F07481DA
:104E1800BB68013B1F2B00F26F8101A252F823F0FF
:104E2800B34E0008D74E000801510008FD4E000897
:104E3800015100080151000801510008234F0008E2
:104E480001510008015100080151000801510008F2
:104E5800015100080151000801510008494F00089C
:104E680001510008015100080151000801510008D2
:104E780001510008015100080151000801510008C2
:104E880001510008015100080151000801510008B2
:104E9800015100080151000801510008914F000814
:104EA800BB68402B00F0958026E17B6923F4E02362
:104EB8007B617B681B6803F4E0237A6913437B6199
:104EC800FB681B687A685268C3F8BC231DE17B69DC
:104ED80023F460137B617B681B68DB0003F46013B9
:104EE8007A6913437B61FB681B687A685268C3F868
:104EF800C0230AE17B6923F0E0737B617B681B6850
:104F08009B0103F0E0737A6913437B61FB681B68BC
:104F18007A685268C3F8C423F7E07B6923F06063BA
:104F28007B617B681B685B0203F060637A691343EB
:104F38007B61FB681B687A685268C3F8C823E4E0A1
:104F48003B6923F007033B617B681B681B0C03F07C
:104F580007033A6913433B61FB681B68D3F8F823DE
:104F6800FB681B6822F01F02C3F8F823FB681B6864
:104F7800D3F8F8137B685B6803F01F02FB681B68B3
:104F88000A43C3F8F823C0E03B6923F070033B6190
:104F98007B681B681B0B03F070033A6913433B6182
:104FA800FB681B68D3F8F823FB681B6822F4787247
:104FB800C3F8F823FB681B68D3F8F8137B685B68B1
:104FC8005B0103F47872FB681B680A43C3F8F82393
:104FD8009BE03B6923F4E0633B617B681B681B0A29
:104FE80003F4E0633A6913433B61FB681B68D3F839
:104FF800F823FB681B6822F4F842C3F8F823FB681F
:105008001B68D3F8F8137B685B689B0203F4F842CB
:10501800FB681B680A43C3F8F82376E03B6923F46E
:10502800E0433B617B681B681B0903F4E0433A6972
:1050380013433B61FB681B68D3F8F823FB681B68C4
:1050480022F4F812C3F8F823FB681B68D3F8F813A6
:105058007B685B681B0403F4F812FB681B680A434F
:10506800C3F8F82351E03B6923F4E0233B617B68F4
:105078001B6803F4E0233A6913433B61FB681B6830
:10508800D3F8F823FB681B6822F07872C3F8F8237A
:10509800FB681B68D3F8F8137B685B685B0503F053
:1050A8007872FB681B680A43C3F8F8232DE03B6954
:1050B80023F4E0033B617B681B681B0103F4E003F6
:1050C8003A6913433B61FB681B68D3F8F823FB6814
:1050D8001B6822F0F842C3F8F823FB681B68D3F872
:1050E800F8137B685B689B0603F0F842FB681B6853
:1050F8000A43C3F8F82308E0FB68072283F8DD2099
:10510800FB68002283F8DC2000BFFB6893F8DD30E1
:10511800DBB2072B01D1012316E0BB680F2B05D8A2
:10512800FB681B687A69C3F8802304E0FB681B6886
:105138003A69C3F8FC23FB68012283F8DD20FB6889
:10514800002283F8DC20002318461C37BD465DF892
:10515800047B704780B485B000AFF860B9607A60AE
:10516800FB6893F8DD30DBB2022B01D1022335E175
:10517800FB6893F8DC30012B01D102232EE1FB6898
:10518800012283F8DC20FB68022283F8DD20BB685B
:10519800B3F5007F00F0F880BB68B3F5007F00F23C
:1051A8000381BB68B3F5807F00F0DE80BB68B3F590
:1051B800807F00F2F980BB68802B00F0C580BB6857
:1051C800802B00F2F180BB68202B4BD8BB68002BEA
:1051D80000F0EA80BB68013B1F2B00F2E58001A2CA
:1051E80052F823F07552000893520008B153000892
:1051F800B3520008B1530008B1530008B153000876
:10520800D3520008B1530008B1530008B153000845
:10521800B1530008B1530008B1530008B153000856
:10522800F3520008B1530008B1530008B153000805
:10523800B1530008B1530008B1530008B153000836
:10524800B1530008B1530008B1530008B153000826
:10525800B1530008B1530008B1530008B153000816
:1052680013530008BB68402B5ED09DE0FB681B68A9
:10527800D3F8003423F01F017B6803F01F02FB689A
:105288001B680A43C3F8002497E0FB681B68D3F83F
:10529800003423F4F8617B689B0103F4F862FB682F
:1052A8001B680A43C3F8002487E0FB681B68D3F82F
:1052B800003423F4F8317B681B0303F4F832FB68ED
:1052C8001B680A43C3F8002477E0FB681B68D3F81F
:1052D800003423F4F8017B689B0403F4F802FB68AC
:1052E8001B680A43C3F8002467E0FB681B68D3F80F
:1052F800003423F0F8517B681B0603F0F852FB6872
:105308001B680A43C3F8002457E0FB681B68D3F8FE
:10531800043423F01F017B6803F01F02FB681B683D
:105328000A43C3F8042448E0FB681B68D3F8043434
:1053380023F4F8617B689B0103F4F862FB681B683F
:105348000A43C3F8042438E0FB681B68D3F8043424
:1053580023F4F8317B681B0303F4F832FB681B68FD
:105368000A43C3F8042428E0FB681B68D3F8043414
:1053780023F4F8017B689B0403F4F802FB681B68BC
:105388000A43C3F8042418E0FB681B68D3F8043404
:1053980023F0F8517B681B0603F0F852FB681B6882
:1053A8000A43C3F8042408E0FB68072283F8DD20D9
:1053B800FB68002283F8DC2000BFFB6893F8DD302F
:1053C800DBB2072B01D1012308E0FB68012283F837
:1053D800DD20FB68002283F8DC2000231846143700
:1053E800BD465DF8047B704780B584B000AFF860B7
:1053F800B9607A60FB6893F8DD30DBB2022B01D12B
:1054080002237AE0FB6893F8DC30012B01D10223F8
:1054180073E0FB68012283F8DC20FB68022283F832
:10542800DD20BB68062B04D17968F86800F0AFFB73
:1054380004E07A68B968F86800F046FC7B68196887
:10544800F868BA681346DB009B1A9B0003442033B4
:1054580019607B685968F868BA681346DB009B1ABC
:105468009B000344243319607B689968F868BA681C
:105478001346DB009B1A9B000344283319607B68A2
:10548800D968F868BA681346DB009B1A9B00034486
:105498002C3319607B681969F868BA681346DB0011
:1054A8009B1A9B00034430331960B968F86800F010
:1054B800D9FEBB68062B17D07B68DB6A002B13D19B
:1054C800FB681A68BB680133DB0113441B6823F4CB
:1054D80000727B68DB6D5B02F96809681A43BB6878
:1054E8000133DB010B441A60FB68012283F8DD20DD
:1054F800FB68002283F8DC20002318461037BD46DD
:1055080080BD80B584B000AFF860B9607A60FB6890
:1055180093F8DD30DBB2022B01D1022320E0FB68D7
:1055280093F8DC30012B01D1022319E0FB6801223A
:1055380083F8DC20FB68022283F8DD207A68B968EA
:10554800F86800F047FDB968F86800F08BFEFB6862
:10555800012283F8DD20FB68002283F8DC20002389
:1055680018461037BD4680BD80B487B000AFF860DC
:10557800B9607A60FB6893F8DD30DBB2022B01D1A9
:10558800022367E0FB6893F8DC30012B01D102238A
:1055980060E0FB68012283F8DC20FB68022283F8C4
:1055A800DD207B681B6803F4E0537B617B685B68E4
:1055B800C3F308037A6913437B617B689B6803F430
:1055C80000737A6913437B617B681B6903F480432A
:1055D8007A6913437B617B68DB6803F400437A696B
:1055E80013437B617B685B691A041D4B13407A691E
:1055F80013437B617B689B6903F000737A691343EB
:105608007B617B681B6A03F080437A6913437B6183
:105618007B68DB6903F000437A6913437B61FB68AD
:105628001A68BB68DB011344B8331A680D4B134082
:10563800FA6811687A691A43BB68DB010B44B8330E
:105648001A60FB68012283F8DD20FB68002283F8DA
:10565800DC20002318461C37BD465DF8047B7047E4
:105668000000FF010020003C80B485B000AFF86066
:10567800B9607A603B60FB6893F8DD30DBB2022BDF
:1056880001D1022357E1FB6893F8DC30012B01D1EB
:10569800022350E1FB68012283F8DC20FB68022228
:1056A80083F8DD20BB68062B40D17B68013B072BC4
:1056B8002AD801A252F823F0E1560008ED56000856
:1056C80011570008F956000811570008115700082B
:1056D8001157000805570008FB681B683A681268EC
:1056E800DA611AE0FB681B683A6812685A6214E0CB
:1056F800FB681B683A6812689A620EE0FB681B68D0
:105708003A681268DA6208E0FB68072283F8DD204D
:10571800FB68002283F8DC2000BFFB6893F8DD30CB
:10572800DBB2072B40F0FE80012304E17B68013BDC
:10573800072B00F2E38001A252F823F06557000816
:105748007957000805590008355800080559000818
:10575800055900080559000849580008FB681968E8
:105768003B681A68BB68DB010B449C331A60D1E0C4
:10577800FB6819683B681A68BB68DB010B44A433F3
:105788001A603B685B68002B3FD0FB681A68BB68EF
:105798000133DB0113441B68FA68116823F4405293
:1057A800BB680133DB010B441A60FB681A68BB68ED
:1057B8000133DB0113441A683B685B68F9680968C0
:1057C8001A43BB680133DB010B441A603B685B6812
:1057D800B3F5005F09D1FB6819683B689A68BB6834
:1057E800DB010B449C331A6091E03B685B68B3F5BE
:1057F800405F40F08C80FB6819683B689A68BB681A
:10580800DB010B44A8331A6081E0FB681A68BB68A7
:105818000133DB0113441B68FA68116823F4405212
:10582800BB680133DB010B441A6070E0FB68196840
:105838003B681A68BB68DB010B44A8331A6069E04F
:10584800FB6819683B681A68BB68DB010B44AC331A
:105858001A603B685B68002B3FD0FB681A68BB681E
:105868000133DB0113441B68FA68116823F44042D2
:10587800BB680133DB010B441A60FB681A68BB681C
:105888000133DB0113441A683B685B689B00F968C5
:1058980009681A43BB680133DB010B441A603B6893
:1058A8005B68B3F5005F09D1FB6819683B689A68C3
:1058B800BB68DB010B449C331A602AE03B685B68D9
:1058C800B3F5405F25D1FB6819683B689A68BB68E7
:1058D800DB010B44A8331A601BE0FB681A68BB683D
:1058E8000133DB0113441B68FA68116823F4404252
:1058F800BB680133DB010B441A600AE0FB6807222E
:1059080083F8DD20FB68002283F8DC2002E000BF7A
:1059180000E000BFFB6893F8DD30DBB2072B01D154
:10592800012308E0FB68012283F8DD20FB680022E0
:1059380083F8DC20002318461437BD465DF8047B45
:10594800704700BF80B584B000AFF860B9607A6076
:105958003B60FB6893F8DD30DBB2022B01D10223F8
:105968001DE0FB6893F8DC30012B01D1022316E01F
:10597800FB68012283F8DC20FB68022283F8DD2023
:105988003B687A68B968F86800F084FBFB68012214
:1059980083F8DD20FB68002283F8DC20002318460A
:1059A8001037BD4680BD80B483B000AF78603960E1
:1059B8007B6893F8DC30012B01D102231AE07B6865
:1059C800012283F8DC207B68022283F8DD207B68D3
:1059D8001B68D3F894137B681B683A680A43C3F8BA
:1059E80094237B68012283F8DD207B68002283F8FA
:1059F800DC20002318460C37BD465DF8047B704751
:105A080080B483B000AF786039607B6893F8DC308D
:105A1800012B01D102231AE07B68012283F8DC20E4
:105A28007B68022283F8DD207B681B68D3F8981313
:105A38007B681B683A680A43C3F898237B6801228D
:105A480083F8DD207B68002283F8DC2000231846D9
:105A58000C37BD465DF8047B704780B483B000AF57
:105A6800786039607B6893F8DC30012B01D1022320
:105A780018E07B68012283F8DC207B68022283F827
:105A8800DD207B681B6819687B681B683A680A43D5
:105A98001A607B68012283F8DD207B68002283F886
:105AA800DC20002318460C37BD465DF8047B7047A0
:105AB80080B485B000AF786039607B681B681B686C
:105AC800FB60FB6823F00703FB603B689B68FA6890
