:020000040800F2
:1000000000000220B5AC00080137000809370008DD
:1000100011370008193700082137000800000000D8
:100020000000000000000000000000002937000868
:100030003737000800000000453700085337000834
:1000400005AD000805AD000805AD000805AD0008C8
:1000500005AD000805AD000805AD000805AD0008B8
:1000600005AD000805AD000805AD000861370008C2
:1000700005AD000805AD00087537000805AD00089E
:1000800005AD000805AD000805AD000805AD000888
:1000900005AD000805AD000805AD000805AD000878
:1000A00005AD000805AD000805AD000805AD000868
:1000B00005AD000805AD000805AD000805AD000858
:1000C00005AD000805AD000805AD000805AD000848
:1000D00005AD000805AD00088937000805AD00082A
:1000E0009D37000805AD000805AD000805AD000806
:1000F00005AD000805AD000805AD000805AD000818
:1001000005AD0008C5370008D937000805AD00085F
:1001100005AD000805AD0008ED37000805AD000885
:1001200005AD000805AD000805AD000805AD0008E7
:1001300005AD000805AD000805AD000805AD0008D7
:1001400005AD000805AD000805AD000805AD0008C7
:1001500005AD000805AD000805AD000805AD0008B7
:1001600005AD000805AD000805AD000805AD0008A7
:1001700005AD000805AD000805AD000805AD000897
:1001800005AD000805AD000805AD000805AD000887
:1001900005AD00080000000005AD000805AD000831
:1001A00005AD000805AD000805AD000805AD000867
:1001B00005AD000805AD000805AD000805AD000857
:1001C00005AD000805AD000805AD000805AD000847
:0801D00005AD000805AD0008B3
:1001D80010B5054C237833B9044B13B10448AFF379
:1001E80000800123237010BDAC0300200000000034
:1001F80060AD000808B5034B1BB103490348AFF3D2
:10020800008008BD00000000B003002060AD0008B9
:1002180053B94AB9002908BF00281CBF4FF0FF3165
:100228004FF0FF3000F088B9ADF1080C6DE904CE4D
:1002380000F006F8DDF804E0DDE9022304B07047B9
:100248002DE9F047089D0F4604468C46002B48D1FF
:100258008A42164661D9B2FA82F34BB1C3F1200241
:1002680001FA03FC20FA02F29E4042EA0C0C9C4080
:100278004FEA164EB7B2BCFBFEF1220C0EFB11CCB6
:1002880042EA0C4201FB07F0904209D9B21801F189
:10029800FF3C80F0EE80904240F2EB80023932441D
:1002A800121AA4B2B2FBFEF00EFB102244EA02447A
:1002B80000FB07F7A74209D9341900F1FF3280F093
:1002C800DA80A74240F2D7803444023840EA01403D
:1002D800E41B00211DB1DC400023C5E90043BDE853
:1002E800F0878B4206D90DB1C5E900010021084607
:1002F800BDE8F087B3FA83F1002948D1BB4202D3A5
:10030800824200F20781841A67EB030201209446B7
:10031800002DE4D0C5E9004CE1E7002A00F0928006
:10032800B2FA82F3002B40F0A8808A1A4FEA164EE0
:100338001FFA86FC0121200CB2FBFEF70EFB1722E8
:1003480040EA02420CFB07F0904207D9B21807F1C5
:10035800FF3802D2904200F2E2804746121AA4B255
:10036800B2FBFEF00EFB102244EA02440CFB00FC38
:10037800A44507D9341900F1FF3202D2A44500F28E
:10038800CB801046A4EB0C0440EA0740A2E7C1F179
:1003980020068B4022FA06FC4CEA030C07FA01F40B
:1003A80020FA06F3F7404FEA1C49234300FA01F804
:1003B8001FFA8CFEB7FBF9F01C0C09FB107744EA16
:1003C800074400FB0EF7A74202FA01F20AD91CEB18
:1003D800040400F1FF3A80F09B80A74240F2988025
:1003E80002386444E41B9FB2B4FBF9F309FB1344DD
:1003F80047EA044403FB0EFEA64509D91CEB040496
:1004080003F1FF3780F08280A6457FD9023B644420
:1004180043EA0040A4EB0E04A0FB02E7BC4273468B
:10042800B94663D360D05DB1B8EB030264EB09044D
:1004380004FA06F622FA01F31E43CC40C5E900642B
:1004480000214CE76208480842EAC1710B0C43EAF4
:1004580000438AB242EA0342B3FBF6F1E407B4462A
:100468003746B6461F23B0FBF6F0D21B41EA0041DF
:1004780061E7614614E7104628E7C3F1200120FA36
:1004880001F29E4027FA01F19F403A434FEA164E87
:100498001FFA86FCB1FBFEF70EFB1710110C41EAA0
:1004A800004107FB0CF8884504FA03F43AD971189F
:1004B80007F1FF3001D288451FD8A1EB0801B1FB35
:1004C800FEF808FB0CF70EFB181192B242EA014243
:1004D800BA422FD2B21808F1FF31C6D2BA42C4D2FA
:1004E800A8F102013244C0E7F0459CD2BEEB0203FA
:1004F80067EB0C070138B94695E7A6EB08084144B5
:10050800B81EB1FBFEF808FB0CF7DCE73B467FE7BB
:10051800504667E70846FBE63444023832E7023FB4
:1005280032441BE7A1EB08013846B1FBFEF808FB93
:100538000CF7C8E7414698E7704700BF80B483B01E
:1005480000AF87ED010AD7ED017AF5EEC07AF1EE3A
:1005580010FA02DDD7ED017A03E0D7ED017AF1EE6A
:10056800677AB0EE670A0C37BD465DF8047B7047C2
:1005780080B584B000AF786087ED000A7B68D3ED62
:10058800107AF5EE407AF1EE10FA02D0786800F0B1
:100598003FF97B683A685A627B685A697B689A6156
:1005A8007B681A697B685A617B6893ED0A7A7B6875
:1005B800D3ED097A77EE677A7B68C3ED047A7B68B6
:1005C8001B78002B5DD17B6893ED047A7B68D3EDB3
:1005D800057A77EE677AC7ED037A7B6893ED077A39
:1005E8007B68D3ED026A7B68D3ED047A66EEA77A5E
:1005F80077EE277A7B68C3ED077A7B6893ED077AF5
:100608007B68D3ED087AB4EEE77AF1EE10FA04DDF0
:100618007B681A6A7B68DA6114E07B6893ED077A75
:100628007B68D3ED087AF1EE677AB4EEE77AF1EEFB
:1006380010FA07D57B68D3ED087AF1EE677A7B6804
:10064800C3ED077A7B6893ED017A7B68D3ED047A72
:1006580027EE277A7B68D3ED077A37EE277A7B680F
:10066800D3ED036AD7ED037A66EEA77A37EE277AD9
:100678007B68D3ED0F7A77EE277A7B68C3ED0C7A27
:100688003DE07B681B78012B39D17B6893ED0C7AB0
:100698007B68D3ED016A7B6893ED046A7B68D3EDD0
:1006A800057A76EE677A66EEA76A7B6893ED036A49
:1006B8007B68D3ED045A7B68D3ED057A77EEA77A89
:1006C80075EEE75A7B68D3ED067A75EEA77A66EE83
:1006D800277A76EEA76A7B6893ED026A7B68D3ED8A
:1006E800047A66EE277A76EEA76A7B68D3ED0F7AEE
:1006F80076EEA77A77EE277A7B68C3ED0C7A7B686B
:100708009A6A7B68DA627B6893ED0C7A7B68D3ED32
:100718000D7AB4EEE77AF1EE10FA04DD7B685A6BD5
:100728007B681A630FE07B6893ED0C7A7B68D3EDE6
:100738000E7AB4EEE77AF1EE10FA00D403E07B68A3
:100748009A6B7B681A6300BF1037BD4680BD80B4C2
:100758008DB000AFF8610B4687ED050AC7ED040AB6
:1007680087ED031AC7ED021A87ED012AC7ED002AA3
:10077800FB76FB69FA7E1A70FB697A695A60FB6935
:100788003A699A60FB69FA68DA60FB69BA681A62C2
:10079800FB697A685A63FB693A689A63FB694FF0A8
:1007A8000002DA61FB694FF000021A63FB694FF03F
:1007B80000025A62FB694FF000029A62FB694FF02F
:1007C8000002DA62FB694FF00002DA63FB694FF05E
:1007D80000021A64FB691033BB62BB6AFB62BB6A26
:1007E8000C337B6208E0FB6A3B623B6A4FF0000215
:1007F8001A60FB6A0433FB62FA6A7B6A9A42F2D196
:1008080000BF00BF3437BD465DF8047B7047000069
:1008180080B584B000AF78604FF00003FB607B6860
:1008280093ED0B7A7B68D3ED0A7A77EE677AB0EEB0
:10083800670AFFF783FEB0EE407A7B68D3ED107A43
:10084800B4EEE77AF1EE10FA94BF01230023DBB28D
:10085800002B2FD17B6893ED0B7A7B68D3ED0A7A56
:1008680077EE677AF5EEC07AF1EE10FA02DD134BF7
:10087800FB600FE07B6893ED0B7A7B68D3ED0A7A17
:1008880077EE677AF5EEC07AF1EE10FA02D54FF0FE
:100898007E53FB607B6893ED0B7A7B68D3ED106A1F
:1008A800D7ED037A66EEA77A77EE277A7B68C3EDF1
:1008B8000A7A00E000BF1037BD4680BD000080BF47
:1008C80080B487B000AF78607B684FF00002DA61CF
:1008D8007B684FF000021A637B6810333B613B6909
:1008E8007B613B690C33FB6008E07B69BB60BB68DC
:1008F8004FF000021A607B6904337B617A69FB68F8
:100908009A42F2D100BF00BF1C37BD465DF8047B98
:10091800704780B483B000AF786087ED000A7B68C9
:100928003A681A6400BF0C37BD465DF8047B70470F
:1009380080B584B000AF78603960786800F066FAF6
:100948003B681A687B681A603B685A687B685A601B
:100958003B681A897B681A813B689A7A7B689A7225
:100968003B689A897B689A813B681A697B681A6137
:100978003B681B7D082B02D83B681A7D00E00822E3
:100988007B681A753B689A697B689A613B68DA6983
:100998007B68DA613B6893F820207B6883F8202025
:1009A8003B6893F821207B6883F821203B685A6ACA
:1009B8007B685A620023FB7318E0FB7B7A680A3372
:1009C8009B0013444FF000021A60FB7B7A681233D5
:1009D8009B0013444FF000021A60FA7B7B683432A4
:1009E800002123F81210FB7B0133FB73FB7B072BE1
:1009F800E3D900BF00BF1037BD4680BD80B582B0C7
:100A080000AF78607B681B68002B01D100230BE0E6
:100A18007B681B687F21184604F0F8F90346002B11
:100A28000CBF01230023DBB218460837BD4680BD42
:100A380080B582B000AF7860786800F03DF9034671
:100A480083F00103DBB2002B01D000234CE07B686C
:100A580093F82030002B0AD07868FFF7CFFF0346C1
:100A680083F00103DBB2002B01D0012300E0002357
:100A7800002B01D0002337E0786800F073F90346B3
:100A880083F00103DBB2002B01D000232CE07B684C
:100A980018687B6859687B681B891A4603F0D8FA7E
:100AA8000346002B14BF01230023DBB2002B04D024
:100AB800786800F0ABF9002316E07B6893F82130E2
:100AC800002B10D07B681B685B6D002B0BD07B68FC
:100AD8001B685B6D1B681A687B681B685B6D1B680D
:100AE80022F004021A60012318460837BD4680BD6B
:100AF80080B588B000AF7860786800F00AF90346DE
:100B080083F00103DBB2002B01D0002384E0002333
:100B1800FB770023BB7779E07B681969BA7F1346B6
:100B28005B0013449B000B443B613B691B78072B1C
:100B380068D83B695A787B689B7A9A4262D20023CC
:100B4800BB610023FB820EE03B695A78FB8A194699
:100B5800786800F07BF803461A46BB691344BB610A
:100B6800FB8A0133FB827B689B89FA8A9A42EBD322
:100B7800BB6907EE903AF8EE676A7B689B8907EED7
:100B8800903AB8EE677AC6EE877AC7ED037A7B6843
:100B980093ED067AD7ED037A67EE276A7B6893EDC3
:100BA800077AC6EE877AC7ED027A3B691B781A4640
:100BB800D7ED037AFCEEE77A17EE903A99B27B68A4
:100BC800343223F812103B691B787A6812339B0081
:100BD8001344BA681A603B6993ED017AD7ED027A3B
:100BE80027EE277A3B69D3ED027A3B691B7877EECB
:100BF800277A7A680A339B001344C3ED007A0123ED
:100C0800FB7700E000BFBB7F0133BB777B681B7DB0
:100C1800BA7F9A4280D3FB7F18462037BD4680BDF5
:100C280080B483B000AF78600B46FB70FB78072B6D
:100C380005D8FA787B68343233F8123000E00023A4
:100C480018460C37BD465DF8047B704780B485B004
:100C580000AF78600B467B8013467B707B685B68CF
:100C6800002B09D07B689B7A7A789A4204D27B68F9
:100C78009B897A889A4201D3002317E07B689B7A84
:100C88001A467B8813FB02F39AB27B789BB2134413
:100C9800FB817B681B89FA899A4206D27B685A686D
:100CA800FB895B0013441B8800E0002318461437B7
:100CB800BD465DF8047B704780B483B000AF7860B0
:100CC8007B681B68002B1DD07B685B68002B19D0E4
:100CD8007B681B89002B15D07B689B7A002B11D071
:100CE8007B689B89002B0DD07B681A897B689B7A6F
:100CF80019467B689B8911FB03F39BB29A4201D387
:100D0800012300E0002318460C37BD465DF8047B3C
:100D1800704780B582B000AF78607868FFF7CCFF85
:100D2800034683F00103DBB2002B0FD17B681B69FC
:100D3800002B0BD07B681B7D002B07D07B68D3ED85
:100D4800077AF5EEC07AF1EE10FA01D8012300E037
:100D58000023002B01D0002300E0012318460837A8
:100D6800BD4680BD80B48BB000AF78607B681B68DF
:100D7800002B01D100233EE0224BFB61214B7B621B
:100D8800214BBB6119E07B6ABB60BB681B687A6852
:100D98009A420AD0BB681B68002B0BD0BB681B6843
:100DA8001A687B681B689A4204D1BB687A681A6023
:100DB800012320E07B6A04337B627A6ABB699A422A
:100DC800E1D1104B7B610F4B3B620F4B3B610DE058
:100DD8003B6AFB60FB681B68002B04D1FB687A68E0
:100DE8001A60012307E03B6A04333B623A6A3B69B5
:100DF8009A42EDD1002318462C37BD465DF8047B96
:100E0800704700BFC8030020E803002080B487B003
:100E180000AF78600F4B3B610E4B7B610E4BFB6064
:100E28000CE07B69BB60BB681B687A689A4202D198
:100E3800BB6800221A607B6904337B617A69FB68AE
:100E48009A42EED100BF00BF1C37BD465DF8047B57
:100E5800704700BFC8030020E803002080B487B0B3
:100E680000AF0346FB710F4B3B610E4B7B610E4B92
:100E7800FB600BE07B69BB60BB681B78FA799A4220
:100E880001D1BB6807E07B6914337B617A69FB6831
:100E98009A42EFD1002318461C37BD465DF8047B03
:100EA800704700BF000000203C00002080B483B0E1
:100EB80000AF786039607B681B8A002B01D1002362
:100EC8000BE07B681B8A1A463B68934203D37B6816
:100ED8001B8A013B00E03B6800BF18460C37BD4643
:100EE8005DF8047B7047000080B586B000AF78607D
:100EF8007B6803F48033002B04D04FF48031124810
:100F080007F033F9114B3B61104B7B61104BFB60D1
:100F180010E07B69BB60BB685A687B681340002B94
:100F280005D0BB685B681946074807F01EF97B695E
:100F380014337B617A69FB689A42EAD100BF00BF2B
:100F48001837BD4680BD00BFF4090020000000200E
:100F58003C00002080B582B000AF78607B68002B31
:100F680003D07968034807F0A6F800BF0837BD46E4
:100F780080BD00BFF409002080B582B000AF786062
:100F88007B68002B03D07968034807F0C1F800BFDD
:100F98000837BD4680BD00BFF4090020B0B586B053
:100FA80000AF0346B9607A60FB73FB7B1846FFF716
:100FB80055FF78617B69002B01D1002371E07B69C3
:100FC8009B68062B2CD1BB68012B08D1374B1C68BA
:100FD80079687869FFF76AFF0346E36160E0BB68F8
:100FE800022B08D1314B1C6879687869FFF75EFFDE
:100FF8000346636254E0BB68042B08D12B4B1C6882
:1010080079687869FFF752FF0346A36248E0274BE7
:101018001C6879687869FFF749FF0346E3623FE097
:10102800BB68012B0DD1214B1C687B699D687968D1
:101038007869FFF73BFF0246EB0123449C331A60B3
:101048002EE0BB68022B0DD1184B1C687B699D688C
:1010580079687869FFF72AFF0246EB012344A43335
:101068001A601DE0BB68042B0DD1104B1C687B690E
:101078009D6879687869FFF719FF0246EB012344F8
:10108800A8331A600CE0094B1C687B699D68796875
:101098007869FFF70BFF0246EB012344AC331A6073
:1010A800012318461837BD46B0BD00BFF40900201B
:1010B80080B52DED028B86B000AF034687ED020A9E
:1010C8007960FB73FB7B1846FFF7C8FE78617B6984
:1010D800002B01D100232AE07B691B8A07EE903A96
:1010E800B8EE678A9FED151ADFED150A97ED020A2B
:1010F80000F067F8F0EE407A68EE277AFCEEE77ABF
:1011080017EE903A3B61FB7B002201211846FFF75E
:1011180045FFFB7B3A6904211846FFF73FFFFB7B3D
:101128007A6808211846FFF739FF034600BF1846BA
:101138001837BD46BDEC028B80BD00BF3333733F0B
:101148000000000080B584B000AF0346FB71FB7956
:101158001846FFF783FEF860FB68002B02D0FB6897
:101168005B6800E0002318461037BD4680BD80B597
:1011780084B000AF0346FB71FB791846FFF76EFE9B
:10118800F860FB68002B02D0FB68DB6800E00023F6
:1011980018461037BD4680BD80B584B000AF034601
:1011A800FB71FB791846FFF759FEF860FB68002BC6
:1011B80002D0FB681B8A00E0002318461037BD46A2
:1011C80080BD80B485B000AF87ED030AC7ED020A81
:1011D80087ED011A97ED037AD7ED027AB4EEE77A34
:1011E800F1EE10FA01D5BB680BE097ED037AD7ED65
:1011F800017AB4EEE77AF1EE10FA01DD7B6800E0DF
:10120800FB6807EE903AB0EE670A1437BD465DF802
:10121800047B704780B400AF0F4B1B6803F00103D9
:10122800002B14BF01230023DBB2002B0FD10B4B83
:10123800DB680A4A43F08073D360074B00225A6088
:10124800054B1B68044A43F00103136000E000BF2C
:10125800BD465DF8047B7047001000E0F0ED00E04B
:101268002DE9B04382B000AF7860796800208846E5
:1012780081460F49096800200A46034602FB09F027
:1012880008FB03F10144A8FB02454B191D464FF426
:101298007A724FF0000320462946FEF7B9FF02464E
:1012A8000B46134618460837BD46BDE8B08300BF55
:1012B800A803002080B584B000AFF860B9607A60F8
:1012C800FFF7A8FFB868FFF7CBFF0246FB681A6074
:1012D8007B68002B02D1FB681B6803E07868FFF786
:1012E800BFFF0346FA685360F86800F05FF800BF74
:1012F8001037BD4680BD000080B485B000AF78606F
:101308000B46FB70284B5B68FB60FB78002B1ED0FC
:101318007B689B68FA689A420BD07B68DA687B68BE
:101328009B68F968CB1A1A447B68DA607B68FA68AC
:101338009A607B68DA687B681B689A422CD37B6862
:101348001A687B68DA607B6801221A7424E07B687B
:101358009B68FA689A4216D07B689B68FA68D31A29
:10136800BB607B68FA689A607B68DB68BA689A42F7
:1013780006D27B68DA68BB68D21A7B68DA6002E05A
:101388007B680022DA607B68DA687B685B689A426F
:1013980002D27B6800221A747B681B7C18461437BB
:1013A800BD465DF8047B7047001000E080B483B050
:1013B80000AF78607B680022DA607B6800221A74CC
:1013C800044B5A687B689A6000BF0C37BD465DF8CD
:1013D800047B7047001000E080B483B000AF87ED55
:1013E800010AD7ED017AF5EEC07AF1EE10FA01D8CC
:1013F8000B4B0BE0D7ED017AB7EE007AF4EEC77A23
:10140800F1EE10FA01DB074B00E07B6807EE903A3B
:10141800B0EE670A0C37BD465DF8047B704700BF25
:10142800CDCCCC3D6666663F80B584B000AFF86031
:1014380087ED020AC7ED010A97ED020AFFF7CCFF14
:10144800F0EE407AFB68C3ED007AFB687A685A6070
:10145800FB6801221A7200BF1037BD4680BD80B4F8
:1014680085B000AF786087ED000A7B681B7A83F04F
:101478000103DBB2002B01D03B681AE07B6893EDD7
:10148800007AD7ED007A27EE277A7B68D3ED007AC9
:10149800F7EE006A76EEE76A7B68D3ED017A66EECE
:1014A800A77A77EE277AC7ED037A7B68FA685A60DD
:1014B800FB6807EE903AB0EE670A1437BD465DF850
:1014C800047B704780B584B000AFF8600B4687EDA9
:1014D800010A7B817B89002B02D101237B8104E0F7
:1014E8007B89322B01D932237B81FB687A89A3F867
:1014F800D02097ED010AF86800F067F800BF1037B0
:10150800BD4680BD80B485B000AF786087ED000A25
:101518007B68B3F8D030002B02D1D7ED007A4DE0CC
:101528007B68B3F8CC307A689B0013441B68FB6077
:101538007B68B3F8CC307A689B0013443A681A6029
:101548007B6893ED327AD7ED006AD7ED037A76EEB1
:10155800E77A77EE277A7B68C3ED327A7B68B3F84F
:10156800CC3001339AB27B68A3F8CC207B68B3F8FF
:10157800CC207B68B3F8D0309A4203D37B68002232
:10158800A3F8CC207B68B3F8CE207B68B3F8D030C2
:101598009A4207D27B68B3F8CE3001339AB27B689F
:1015A800A3F8CE207B68D3ED326A7B68B3F8CE30DF
:1015B80007EE903AB8EE677AC6EE877AB0EE670A19
:1015C8001437BD465DF8047B704780B485B000AF22
:1015D800786087ED000A7B68B3F8D03007EE903A60
:1015E800B8EE677AD7ED007A67EE277A7B68C3EDA5
:1015F800327A7B680022A3F8CC207B68B3F8D0202D
:101608007B68A3F8CE200023FB8111E07B68B3F848
:10161800D030FA899A4201D23B6801E04FF00003CA
:10162800FA89796892000A441360FB890133FB81C7
:10163800FB89312BEAD900BF00BF1437BD465DF8DE
:10164800047B704780B582B000AF254B3B60A82271
:101658000021386809F053FB3B6803221A613B6894
:1016680003225A613B681F4A9A613B681E4ADA6145
:101678003B684FF480621A623B6800229A623B68BA
:1016880000225A623B680022DA623B68154A1A66F1
:101698003B68164A5A663B6810229A663B680022E5
:1016A8001A673B680022DA663B6800225A67002303
:1016B8007B600CE07B68C3F10F030D4AD15C3A688C
:1016C8007B6813440A461A707B6801337B607B6829
:1016D8000F2BEFD900BF00BF0837BD4680BD00BF44
:1016E800E803002078AD000890040020900800204E
:1016F800ACAD000880B500AFFFF7A4FF00BF80BD08
:1017080080B582B000AF78607B683B4ADA617B685D
:101718003A4A1A627B683A4A9A617B6800221A85BB
:101728007B68384A5A627B689033DFED372AB0EE1F
:101738000C2AF6EE001A9FED341ADFED340A9FEDFD
:10174800340A01211846FFF702F87B6890339FEDB1
:10175800310A1846FFF7DDF87B6803F58C727B6861
:10176800D3ED077ADFED282AB0EE672ADFED2A1AD3
:101778009FED251ADFED290A9FED290A0121104660
:10178800FEF7E5FF7B6803F58C739FED250A184685
:10179800FFF7BFF87B682C33022219211846FFF7A0
:1017A80089FD7B684033022219211846FFF782FD24
:1017B8007B6854330A2232211846FFF77BFD7B6889
:1017C8006833022219211846FFF774FD7B687C33C1
:1017D800022219211846FFF76DFD0020FFF7B2FC21
:1017E80003461846FFF780FB7B6801229A7300BF07
:1017F8000837BD4680BD00BF6666663FCDCC4C3D10
:10180800CDCCCC3D0AD7A33C0000000052499D39FD
:10181800A69BC43B0AD7233DCDCCCC3D6F12033BDE
:101828000AD7A33B80B582B000AF78607B68B3F974
:1018380028309AB2013A92B211B27A681185144AE4
:101848009342B4BF01230023DBB2002B1AD07B687C
:1018580001221A85012204210E4804F00DFD786842
:1018680000F034F9F0EE407AB0EE670A786800F0DC
:10187800F1F80020FFF77BFC03461846FFF76AFBE8
:10188800012300E0002318460837BD4680BD00BF8D
:1018980031F8FFFF0008004880B582B000AF7860DB
:1018A8000020FFF764FC03461846FFF765FB7B68DA
:1018B80003F58C731846FFF703F87B6890331846D6
:1018C800FEF7FEFF7B6800221A857B68024A9A6150
:1018D80000BF0837BD4680BDCDCC4C3E80B588B032
:1018E80000AF78607B68B3F92830012B02D07868A4
:1018F800FFF798FF786800F039F9B861BB699B7900
:10190800002B0FD1BB695B79002B0BD1BB691B7A0C
:10191800002B07D1BB69DB79002B03D1BB69DB78CE
:10192800002B08D07868FFF7B7FF0022042147484A
:1019380004F0A2FC86E0BB699B78002B7FD07B6813
:10194800D3F8C0307B61424B1A687B68C3F8B82073
:101958007B6803F190027B68D3ED017AB0EE670AE9
:101968001046FEF705FE7B68D3F8C0207B68C3F8F5
:1019780040217B6803F58C727B68D3ED007AB0EE6A
:10198800670A1046FEF7F4FD7B68D3F84831FB611F
:10199800786800F09BF887ED040A97ED077AD7ED91
:1019A800047AB4EEE77AF1EE10FA05D53B69FB61EB
:1019B8007B683A69C3F848217B68D3ED067A97EDCE
:1019C800077A77EE677AC7ED037A7B68D3ED097AF1
:1019D80097ED037AB4EEE77AF1EE10FA0BDD7B6847
:1019E80093ED067A7B68D3ED097A77EE277A7B68E0
:1019F800C3ED067A1AE07B68D3ED097AF1EE677ACF
:101A080097ED037AB4EEE77AF1EE10FA0BD57B681E
:101A180093ED067A7B68D3ED097A77EE677A7B686F
:101A2800C3ED067A02E07B68FA699A617B68D3EDB8
:101A3800067AB0EE670A786800F00CF802E0786879
:101A4800FFF72AFF00BF2037BD4680BD00080048C9
:101A58003C00002080B584B000AF786087ED000AB4
:101A68007B68D3ED087A7B6893ED077AB0EE471A66
:101A7800F0EE670A97ED000AFFF7A3FB87ED000A6F
:101A88007B683A689A610020FFF786FB0346FB6093
:101A9800FB6807EE903AB8EE677AD7ED007A67EE02
:101AA800277AFCEEE77A17EE903ABB60B968786857
:101AB80000F051F90346194697ED000A0020FFF798
:101AC800F7FA00BF1037BD4680BD000080B584B06E
:101AD80000AF78607B68D3ED027AF5EE407AF1EEDC
:101AE80010FA03D17B68D3ED087A1EE07B68D3ED4A
:101AF800016A7B6893ED027AC6EE877A9FED0D7ACC
:101B080077EE877AC7ED037A7B68D3ED087A7B682E
:101B180093ED077AB0EE471AF0EE670A97ED030ADD
:101B2800FFF74FFBF0EE407A00BFB0EE670A1037C0
:101B3800BD4680BD0AD7233C80B485B000AFF860AD
:101B480087ED020AC7ED010A87ED001AFB68BA683B
:101B58001A60FB687A685A60FB683A689A6000BF46
:101B68001437BD465DF8047B7047000080B584B02B
:101B780000AF78607B68D3ED027AB2EE0E7AF4EEAD
:101B8800C77AF1EE10FA01D5012300E00023FB73B8
:101B98000023BB737B68D3ED007AB3EE047AF4EECE
:101BA800C77AF1EE10FA09DC7B68D3ED007ABFEE54
:101BB800007AF4EEC77AF1EE10FA01D5012300E0BD
:101BC80000237B737B68D3ED027A9FED547AF4EEA1
:101BD800C77AF1EE10FA01DD012300E000233B7320
:101BE8007B68D3ED017AB3EE077AF4EEC77AF1EEAB
:101BF80010FA0EDC7B68D3ED027AB7EE007A37EE86
:101C0800877A7B68D3ED017AB4EEE77AF1EE10FAC1
:101C180001D5012300E00023FB727B682C33FA7B9B
:101C28001946786800F07CF803461A467B68DA7330
:101C38007B68403300221946786800F071F8034643
:101C48001A467B681A747B6854337A7B194678681D
:101C580000F066F803461A467B689A747B68683316
:101C68003A7B1946786800F05BF803461A467B68A9
:101C78001A757B687C33FA7A1946786800F050F850
:101C880003461A467B68DA747B68DB7B1AB27B688A
:101C98001B7C1BB25B001BB213431AB27B685B7CD4
:101CA8001BB29B001BB213431AB27B689B7C1BB20E
:101CB800DB001BB213431AB27B68DB7C1BB21B012F
:101CC8001BB213431AB27B681B7D1BB25B011BB2AC
:101CD80013431BB29AB27B689A817B68DB7B002B2B
:101CE80011D17B681B7C002B0DD17B689B7C002B62
:101CF80009D17B681B7D002B05D17B68DB7C002B21
:101D080001D1012300E000231A467B689A737B689F
:101D18000C3318461037BD4680BD00BF0000A042F6
:101D280080B584B000AFF860B9601346FB71FB79E9
:101D3800002B14BF01230023DBB21946B868FFF754
:101D4800DBFA0346002B01D0012300E000231846EC
:101D58001037BD4680BD80B588B000AF7860396067
:101D68000020FFF719FA0346BB613B687B61BA693B
:101D78003B68D31A3B6142F29333FB603B6942F202
:101D88009232934213D93A697B699A4204D27B69A9
:101D980042F2923293420AD83B69A3F50E53133BA1
:101DA8005A083B68134403F57A73FB6129E07B69A1
:101DB80042F29232934208D97B69A3F50E53133B42
:101DC8005B0803F57A73FB611BE03B6941F6C2329D
:101DD800934208D93B69A3F5DE53033B5B083A6895
:101DE8001344FB610DE07B6941F6C232934206D988
:101DF8007B69A3F5DE53033B5B08FB6101E03B68AD
:101E0800FB61FA69BB699A4202D3BB69013B00E0F6
:101E1800FB6918462037BD4680BD000080B483B0FA
:101E280000AF87ED010AD7ED017AF5EEC07AF1EE41
:101E380010FA02D54FF000030BE0D7ED017A9FEDC1
:101E4800097AF4EEC77AF1EE10FA01DD064B00E0EC
:101E58007B6807EE903AB0EE670A0C37BD465DF82E
:101E6800047B7047000016430000164380B483B01B
:101E780000AF0346FB71FB79002B06D0094B1822F3
:101E88009A61094B01221A7006E0064B4FF4C01202
:101E98009A61054B00221A7000BF0C37BD465DF8E9
:101EA800047B704700040048A408002080B500AFF8
:101EB8001821074804F0F8F9064B1B78DBB2002B11
:101EC80001D1012200E00022024B1A7000BF80BD40
:101ED80000040048A408002080B52DED028B86B0D0
:101EE80000AF00F083F97861786900F07BFAB0EE12
:101EF800408A786900F066FAF0EE407A68EE277A50
:101F0800C7ED047A97ED040AFFF788FFF0EE407AF0
:101F1800274BC3ED027A264BD3ED027A9FED257A43
:101F280067EE877AFCEEE77AC7ED017A3B79DAB299
:101F38001F4B5A711E4B9B7903F001039AB21C4B3D
:101F48005B795B009BB21343FB81FB891B0A9AB246
:101F5800FB895340FB81FB891B099AB2FB895340DB
:101F6800FB81FB899B089AB2FB895340FB81FB8963
:101F78005B089AB2FB895340FB810D4B9B7903F0B8
:101F880001039AB20A4B5B795B009BB213439AB286
:101F9800FB895B029BB203F400739BB213439AB2B2
:101FA800034B5A8000BF1837BD46BDEC028B80BD7D
:101FB800400000209A99D93F80B500AF0020FFF774
:101FC80055FF00F003F800BF80BD000080B400AFEB
:101FD800054B00221A71054B00221A8000BFBD462E
:101FE8005DF8047B704700BF40000020A008002077
:101FF80080B582B000AF794B1B889BB201339AB28F
:10200800764B1A80754B1B889BB240F69F729342A1
:102018008CBF01230023DBB2002B02D06F4B0022C0
:102028001A806F4B1B7883F00103DBB2002B05D0BD
:102038000020FFF71BFFFFF7C9FFCBE0694B1B88A8
:102048009BB2002B0CBF01230023DBB2002B02D074
:10205800644B01221A80644B1B8801339AB2624B8D
:102068001A80614B1A885F4B1B889BB29A4234BF17
:1020780001230023DBB2002B40F0AB805A4B002237
:102088001A80574B1B79272B7DD801A252F823F0D1
:1020980039210008512100088F2100088F210008EC
:1020A8008F2100088F2100088F2100088F21000848
:1020B8008F2100088F2100088F2100088F21000838
:1020C8008F2100088F2100088F2100088F21000828
:1020D8008F2100088F2100088F2100088F21000818
:1020E8008F2100088F2100085F2100087321000854
:1020F8008F2100088F2100088F2100088F210008F8
:102108008F2100088F2100088F2100088F210008E7
:102118008F2100088F2100088F2100088F210008D7
:102128008F2100088F2100088F21000881210008D5
:102138000120FFF79BFEFFF7CFFE294B1B790133E8
:10214800DAB2274B1A7145E0254B1B790133DAB215
:10215800234B1A713EE00020FFF788FE204B1B79C5
:102168000133DAB21E4B1A7134E01D4B1B7901336F
:10217800DAB21B4B1A712DE00020FFF777FE184BDF
:1021880000221A7126E0164B1B7903F00103002B7D
:1021980016D0134B1B795B08DBB2013BFB71104B6C
:1021A8001B79172B09D80E4B5B881A46FB7942FA24
:1021B80003F303F00103002B04D0FFF777FE01E0DF
:1021C800FFF774FE064B1B790133DAB2044B1A7120
:1021D80000E000BF0837BD4680BD00BFA208002050
:1021E800400000204C000020A008002080B400AF70
:1021F800024B1846BD465DF8047B7047500000202E
:10220800B0B58CB000AF78607B6808220021184612
:1022180008F075FD7B68083310220021184608F085
:102228006EFD7B68183318220021184608F067FDF8
:102238007B68303308220021184608F060FD7B686F
:102248004FF00002C3F83C237B684FF00002C3F84C
:1022580040237B684FF00002C3F844237B68B03307
:102268009FED330A19211846FFF72CF97B6803F50F
:10227800C273DFED2F0A9FED2F0A1846FFF7D4F837
:102288007B6803F5C873DFED2A0A9FED2B0A184611
:10229800FFF7CAF8294B07F108041D460FCD0FC4F4
:1022A8000FCD0FC495E8030084E80300244BBB60FE
:1022B8007B681833FB600C233B820323BB74042325
:1022C800BB82204BBB6103233B771F4B3B621F4BF9
:1022D8007B627B68383307F1080211461846FEF71F
:1022E80027FB00BF7B6838331846FEF787FB034699
:1022F80083F00103DBB2002BF4D17B6803F5CE73C6
:102308001846FFF7FDF9124B5A687B68C3F8482353
:10231800104B1B68104AA2FB03231A0A7B68C3F8F8
:102328004C23786800F01AF800BF3037BD46B0BDBE
:10233800000000009A99993E3333333F84AD00087A
:10234800B4080020C0AD00080000204000F07F4520
:10235800001000E0A8030020D34D621080B582B0C1
:1023680000AF78607B6838331846FEF761FB00BF22
:102378000837BD4680BD000080B582B000AF7860E8
:1023880039603B680E4A934214D17B68383318464B
:10239800FEF7AEFB034683F00103DBB2002B01D04E
:1023A800002308E07B6838331946786800F02AF87B
:1023B800012300E0002318460837BD4680BD00BF52
:1023C800B408002080B483B000AF78607B68D3F88D
:1023D800403307EE903AB0EE670A0C37BD465DF819
:1023E800047B704780B483B000AF78607B68D3F813
:1023F800443307EE903AB0EE670A0C37BD465DF8F5
:10240800047B704790B585B000AF786039600021D3
:102418003868FEF705FC034607EE903AF8EE677A4F
:102428004E4BC3ED007A02213868FEF7F9FB0346EC
:1024380007EE903AF8EE677A494BC3ED007A7B686D
:1024480003F1B00400213868FEF7EAFB034607EE03
:10245800903AF8EEE77A9FED437A67EE877A9FED38
:10246800427A77EE877AB0EE670A2046FFF74AF895
:10247800F0EE407A7B68C3EDCF7A7B6803F5C274CF
:1024880002213868FEF7CCFB034607EE903AF8EED7
:10249800E77A9FED367A67EE877A9FED357A77EEA1
:1024A800C77AB0EE670A2046FEF7D9FFF0EE407A09
:1024B8007B68C3EDD07A7B6803F5C874012138685E
:1024C800FEF7AEFB034607EE903AF8EEE77A9FED8B
:1024D800297A67EE877A9FED287A77EE877AB0EEC9
:1024E800670A2046FEF7BBFFF0EE407A7B68C3ED33
:1024F800D17A7B6803F5CE727B68D3EDD07A7B689E
:1025080093EDD17A7B68D3EDCF6AB0EE661AF0EE20
:10251800470AB0EE670A1046FFF70EFB174B5B68D9
:10252800FB607B68D3F84833FA68D21A7B68D3F823
:102538004C339A420ED37B68FA68C3F84823104B91
:102548001B6801330E4A13607B6803F5CE73184687
:10255800FFF7C4F900BF1437BD4690BDA808002096
:10256800AC08002075029A3C44FABD3F11C7BA3B3B
:10257800A392BA3FAC8BDB3B0681053F001000E01D
:10258800B008002080B500AFFFF730FE03461846BC
:10259800FFF736FEFFF710FDFFF7ACF8024806F02C
:1025A80021FC00BF80BD00BF740B002080B582B045
:1025B80000AF7860FFF71AFE034679681846FFF700
:1025C800DBFE00BF0837BD4680BD000080B582B085
:1025D80000AF78607B68044A934201D1FFF708FD99
:1025E80000BF0837BD4680BD740B002080B483B09F
:1025F80000AF0346FB8000BF0C37BD465DF8047B87
:10260800704780B483B000AF78600B467B8000BF12
:102618000C37BD465DF8047B704780B483B000AFCB
:10262800786000BF0C37BD465DF8047B704700003A
:1026380080B500AF02F04CFC00F054F800F0A4F8AC
:1026480000F000FB00F030FB00F052FE00F03AF919
:1026580000F000FE00F094FD00F0B6FE00F07EFEF3
:1026680000F070FF00F03EFA02F0C4FC02F0D2FC69
:102678001B4B1B691A4A43F400631361184B9B6890
:10268800174A43F001039360154B9B68144A43F0C3
:1026980008039360124B9B68114A43F01003936040
:1026A8000F4B9B680E4A43F0200393600C4B1B6949
:1026B8000B4A43F400531361094B9B68084A43F0E3
:1026C80000439360064B1B69054A43F0806313611E
:1026D8004FF4FA7002F06CFCFFF754FF00BFFDE7FF
:1026E800002004E080B594B000AF07F11803382249
:1026F8000021184608F003FB3B1D00221A605A60AF
:102708009A60DA601A61002004F032F90923BB618B
:102718004FF48033FB610123FB6202237B630323B5
:10272800BB630223FB6355233B6402237B640223C0
:10273800BB640223FB6407F11803184602F09EFCF1
:102748000346002B01D000F018F80F237B60032309
:10275800BB600023FB6000233B6100237B613B1DC2
:102768000421184602F09CFF0346002B01D000F01C
:1027780004F800BF5037BD4680BD80B400AF72B6C4
:1027880000BF00BFFDE7000080B58AB000AF07F1C9
:10279800140300221A605A609A60DA601A61464B84
:1027A800DB6C454A43F02003D364434BDB6C03F0F6
:1027B80020033B613B69404BDB6C3F4A43F0040319
:1027C800D3643D4BDB6C03F00403FB60FB683A4BBE
:1027D800DB6C394A43F00103D364374BDB6C03F0FD
:1027E8000103BB60BB68344BDB6C334A43F0020324
:1027F800D364314BDB6C03F002037B607B680022FF
:102808000C212E4803F038FD002298212C4803F0B3
:1028180033FD0C237B610123BB610223FB6102238F
:102828003B6207F114031946244803F0A3FB4FF455
:1028380000437B614FF48813BB610223FB6107F1FE
:10284800140319464FF0904003F094FB4FF4E05303
:102858007B614FF48813BB610223FB6107F114030A
:102868001946164803F086FB18237B610123BB61D8
:102878000223FB6102233B6207F114031946104847
:1028880003F078FB80237B611123BB610023FB618C
:1028980002233B6207F114031946094803F06AFB57
:1028A80000220021282004F0F2F9282004F009FA77
:1028B80000BF2837BD4680BD001002400008004810
:1028C8000004004880B588B000AF3B4620220021B4
:1028D800184608F014FA3A4B3A4A1A60384B4FF443
:1028E80040325A60364B00229A60354B0022DA603B
:1028F800334B00221A61324B01225A61304B0822B5
:102908009A612F4B00221A772D4B00225A772C4BB5
:1029180003221A622A4B002283F82420284B4FF402
:10292800D862DA62264B4FF480621A63244B012284
:1029380083F83820224B4FF48052DA63204B002270
:1029480083F840201E4801F0C7F90346002B01D048
:10295800FFF713FF1C4B3B6006237B600323BB6020
:102968007F23FB6004233B6100237B613B461946C0
:10297800134801F055FC0346002B01D0FFF7FDFE7C
:10298800124B3B600C237B603B4619460C4801F018
:1029980047FC0346002B01D0FFF7EFFE0C4B3B60D2
:1029A80012237B603B461946054801F039FC034673
:1029B800002B01D0FFF7E1FE00BF2037BD4680BDE8
:1029C800B4080020000500500800900C1000C0104A
:1029D8002000F01480B59EB000AF786007F1640362
:1029E80000221A605A609A60DA601A6107F11003CF
:1029F80054220021184608F082F97B681B68344A83
:102A0800934260D14FF480333B614FF00043BB6584
:102A180007F11003184603F05FF80346002B01D0B6
:102A2800FFF7ABFE2B4BDB6C2A4A43F48043D3649D
:102A3800284BDB6C03F48043FB60FB68254BDB6CA5
:102A4800244A43F00203D364224BDB6C03F00203F5
:102A5800BB60BB684FF450437B660323BB6600230F
:102A6800FB6607F1640319461B4803F083FA1B4B06
:102A78001B4A1A60194B26225A60184B00229A608A
:102A8800164B0022DA60154B80221A61134B4FF463
:102A980080725A61114B4FF480629A610F4B202269
:102AA800DA610E4B4FF480521A620C4803F02EFC88
:102AB8000346002B01D0FFF760FE7B68074A5A6582
:102AC800064A7B68936200BF7837BD4680BD00BF69
:102AD80000050050001002400004004820090020B2
:102AE8004400024080B58CB000AF3B463022002144
:102AF800184608F004F9164B164A1A60144804F0F0
:102B0800FAF80346002B01D0FFF737FE02233B609B
:102B180000233B7100237B710023BB600023FB6013
:102B280000233B6100237B610123BB610023FB6120
:102B38003B4600221946064804F060F90346002B7C
:102B480001D0FFF71AFE00BF3037BD4680BD00BF79
:102B5800800900200008005080B58AB000AF786076
:102B680007F1140300221A605A609A60DA601A6149
:102B78007B681B682F4A934257D12F4BDB6C2E4A38
:102B880043F48033D3642C4BDB6C03F480333B6118
:102B98003B69294BDB6C284A43F00103D364264B7D
:102BA800DB6C03F00103FB60FB6810237B610323EC
:102BB800BB610023FB6107F1140319464FF09040F5
:102BC80003F0D8F91D4B1E4A1A601C4B06225A60A6
:102BD8001A4B10229A60194B0022DA60174B802298
:102BE8001A61164B4FF400725A61144B4FF480620D
:102BF8009A61124B0022DA61104B00221A620F48C8
:102C080003F084FB0346002B01D0FFF7B6FD7B6879
:102C18000A4A9A60094A7B6893620022002136209A
:102C280004F035F8362004F04CF800BF2837BD46CC
:102C380080BD00BF00080050001002409409002029
:102C48001C00024080B582B000AF164B9B6C154A41
:102C580043F004039364134B9B6C03F004037B6001
:102C68007B68104B9B6C0F4A43F0010393640D4B38
:102C78009B6C03F001033B603B68002200210B20A2
:102C880004F005F80B2004F01CF8002200210E20A7
:102C980003F0FDFF0E2004F014F800BF0837BD460E
:102CA80080BD00BF0010024080B5BAB000AF07F188
:102CB800E00300221A605A6007F1D00300221A606C
:102CC8005A609A60DA6007F17003602200211846A2
:102CD80008F015F807F1640300221A605A609A6038
:102CE80007F1480300221A605A609A60DA601A6194
:102CF8005A619A6107F1240324220021184607F03B
:102D0800FEFF3B1D20220021184607F0F8FFCB4BA1
:102D1800CB4A1A60C94B00225A60C84B00229A60FD
:102D2800C64804F02FFA0346002B01D0FFF725FD13
:102D38000C21C24804F0F6FA0346002B01D0FFF735
:102D48001CFD0A21BD4804F045FB0346002B01D0B9
:102D5800FFF713FD0023C7F8E0300223C7F8E4307B
:102D680007F1E0031A460121B44804F08FFB03463B
:102D7800002B01D0FFF701FD00220121AF4804F02C
:102D880071FD0346002B01D0FFF7F7FC4FF4003329
:102D9800C7F8E0304FF40033C7F8E43007F1E00338
:102DA8001A460421A54804F071FB0346002B01D004
:102DB800FFF7E3FC00220421A04804F053FD03467A
:102DC800002B01D0FFF7D9FC49F2C973C7F8D030FE
:102DD8000323C7F8D4300123C7F8D8300823C7F82D
:102DE800DC3007F1D0031A460621944804F026FB8C
:102DF8000346002B01D0FFF7C0FC10233B670023DC
:102E08007B670023BB670023FB670123C7F880307B
:102E18000023C7F884300023C7F888300023C7F898
:102E28008C300023C7F890300023C7F894304FF057
:102E38000063C7F898300023C7F89C300023C7F810
:102E4800A0304FF00053C7F8A4300023C7F8CC30A7
:102E580007F170031A460621784804F04DFE034630
:102E6800002B01D0FFF789FC4FF6EF737B6607F163
:102E7800640301220621714804F07EFF0346002BFB
:102E880001D0FFF77AFC43F698237B6607F16403C9
:102E980002220621694804F06FFF0346002B01D087
:102EA800FFF76BFC4FF6EF737B6607F164030422B0
:102EB8000621624804F060FF0346002B01D0FFF7AB
:102EC8005CFC46F64023C7F8D0300023C7F8D4305E
:102ED80007F1D0031A460121584804F0AFFA034617
:102EE800002B01D0FFF749FC0023BB6400233B659E
:102EF80000237B6500233B6607F148031A4601213E
:102F08004E4804F086FE0346002B01D0FFF735FC3F
:102F180000233B6700237B670023C7F8A430002306
:102F2800C7F8A8300023C7F8AC300023C7F8B03082
:102F38004FF48073C7F8B4300023C7F8B8304FF4A3
:102F48008013C7F8C0300223C7F8C4304FF4802379
:102F5800C7F8C83007F170031A460121374804F052
:102F6800CBFD0346002B01D0FFF707FC00237B664F
:102F780007F1640301220121304804F0FDFE0346F5
:102F8800002B01D0FFF7F9FB44F620637B6607F1BD
:102F9800640304220121294804F0EEFE0346002BB5
:102FA80001D0FFF7EAFB0023BB660023FB6607F1AD
:102FB800640308220121214804F0DEFE0346002BA9
:102FC80001D0FFF7DAFB00237B628C23BB6200236E
:102FD800FB6200233B6300237B638C23BB630023DA
:102FE800FB6300233B6400237B6407F124031A4638
:102FF8000121124804F040FE0346002B01D0FFF7E0
:10300800BCFB00237B600823BB602023FB600023FC
:103018003B6100237B610023BB610023FB6100232C
:103028003B623B1D04220121044805F013F80346C6
:10303800002B07D0FFF7A1FB04E000BFF409002034
:10304800006801400023BB600023FB603B1D082291
:103058000121074804F0FEFF0346002B01D0FFF7CB
:103068008CFB034800F026F800BFE837BD4680BD5A
:10307800F409002080B485B000AF78607B681B68D5
:103088000A4A93420BD10A4B1B6E094A43F08063EC
:103098001366074B1B6E03F08063FB60FB6800BF81
:1030A8001437BD465DF8047B704700BF00680140D7
:1030B8000010024080B58AB000AF786007F11403B1
:1030C80000221A605A609A60DA601A617B681B688D
:1030D800284A93424AD1284BDB6C274A43F0040321
:1030E800D364254BDB6C03F004033B613B69224B43
:1030F800DB6C214A43F00103D3641F4BDB6C03F004
:103108000103FB60FB68C0237B610223BB610023D2
:10311800FB6103233B620D237B6207F1140319460D
:10312800164802F027FF4FF480737B610223BB61CE
:103138000023FB6103233B6203237B6207F1140333
:1031480019460E4802F016FF4FF440637B610223D4
:10315800BB610023FB6103233B620D237B6207F104
:10316800140319464FF0904002F004FF00BF2837BF
:10317800BD4680BD006801400010024000080048BC
:1031880080B500AF134B144A1A60124B00225A60E4
:10319800104B4FF420629A600E4B4FF6FF725A6143
:1031A8000C4B00221A620B4B00225A62094B002278
:1031B8009A62084B0022DA62064B00221A6305481D
:1031C80005F046FC0346002B01D0FFF7D6FA00BFF6
:1031D80080BD00BFF00A0020007C004080B598B098
:1031E80000AF786007F10C0354220021184607F05D
:1031F80086FD7B681B68154A934223D14FF4007300
:10320800FB604FF48023BB6307F10C03184602F000
:1032180063FC0346002B01D0FFF7AFFA0C4B9B6D04
:103228000B4A43F000439365094B9B6D03F0004341
:10323800BB60BB6800220121312003F028FD31204A
:1032480003F03FFD00BF6037BD4680BD007C0040F5
:103258000010024080B588B000AF07F110030022CB
:103268001A605A609A60DA603B1D00221A605A6040
:103278009A601D4B1D4A1A601B4BAA225A601A4BB2
:1032880000229A60184B44F62062DA60164B00223E
:103298001A61154B00229A61134805F04CFD03464C
:1032A800002B01D0FFF769FA4FF480533B6107F117
:1032B800100319460C4805F05DFF0346002B01D0AA
:1032C800FFF75BFA00237B600023FB603B1D194678
:1032D800054806F0DDF90346002B01D0FFF74DFA4B
:1032E80000BF2037BD4680BD280B0020000C0040E1
:1032F80080B584B000AF3B1D00221A605A609A6006
:10330800144B154A1A60134B10225A60114B0022B5
:103318009A60104B40F6C312DA600E4B00229A6195
:103328000C4805F008FD0346002B01D0FFF725FAED
:1033380000237B600023FB603B1D1946054806F00F
:10334800A7F90346002B01D0FFF717FA00BF103783
:10335800BD4680BD740B00200010004080B584B0CD
:1033680000AF3B1D00221A605A609A60144B154A40
:103378001A60134BAA225A60114B00229A60104B14
:1033880041F28832DA600E4B00229A610C4805F04F
:10339800D2FC0346002B01D0FFF7EFF900237B6036
:1033A8000023FB603B1D1946054806F071F90346EA
:1033B800002B01D0FFF7E1F900BF1037BD4680BDF3
:1033C800C00B00200014004080B588B000AF07F1A2
:1033D800100300221A605A609A60DA603B1D0022CE
:1033E8001A605A609A60204B204A1A601E4BA92224
:1033F8005A601D4B00229A601B4B41F28732DA60FB
:10340800194B00221A61184B00225A61164B0022F0
:103418009A61154805F08FFC0346002B01D0FFF791
:10342800ACF94FF480533B6107F1100319460E487D
:1034380005F0A0FE0346002B01D0FFF79EF90023FC
:103448007B600023BB600023FB603B1D19460648D8
:1034580006F01EF90346002B01D0FFF78EF900BFD6
:103468002037BD4680BD00BF0C0C00200034014051
:1034780080B586B000AF78607B681B682C4A9342A1
:1034880014D12C4B9B6D2B4A43F008039365294BB1
:103498009B6D03F008037B617B69002200213220C9
:1034A80003F0F5FB322003F00CFC3CE07B681B6862
:1034B800214A934214D11F4B9B6D1E4A43F01003BF
:1034C80093651C4B9B6D03F010033B613B69002225
:1034D8000021362003F0DBFB362003F0F2FB22E06C
:1034E8007B681B68154A93420CD1124B9B6D114A9D
:1034F80043F0200393650F4B9B6D03F02003FB60A3
:10350800FB6810E07B681B680D4A93420BD1094B9E
:103518001B6E084A43F400531366064B1B6E03F4F4
:103528000053BB60BB6800BF1837BD4680BD00BFF5
:10353800000C004000100240001000400014004041
:103548000034014080B500AF224B234A1A60214B5A
:103558004FF416525A601F4B00229A601D4B0022EE
:10356800DA601C4B00221A611A4B0C225A61194B63
:1035780000229A61174B0022DA61164B00221A6268
:10358800144B00225A62134B00229A62114806F02B
:103598005BF90346002B01D0FFF7EFF800210D4837
:1035A80007F0A7FA0346002B01D0FFF7E6F8002141
:1035B800084807F0DCFA0346002B01D0FFF7DDF8D6
:1035C800044807F05DFA0346002B01D0FFF7D5F851
:1035D80000BF80BD580C00200044004080B59EB05C
:1035E80000AF786007F1640300221A605A609A609D
:1035F800DA601A6107F1100354220021184607F017
:103608007EFB7B681B68384A934268D102233B6182
:103618000023BB6107F11003184602F05DFA034668
:10362800002B01D0FFF7A9F8304B9B6D2F4A43F4CC
:10363800003393652D4B9B6D03F40033FB60FB68EF
:103648002A4BDB6C294A43F00103D364274BDB6C1C
:1036580003F00103BB60BB680C237B660223BB66D7
:103668000023FB6600233B6707237B6707F164039E
:1036780019464FF0904002F07DFC1D4B1D4A1A6020
:103688001B4B1A225A601A4B00229A60184B0022D0
:10369800DA60174B80221A61154B00225A61144BCD
:1036A80000229A61124B0022DA61114B00221A6241
:1036B8000F4802F02BFE0346002B01D0FFF75DF800
:1036C8007B680B4AC3F88020094A7B689362002212
:1036D8000021262003F0DBFA262003F0F2FA00BFCF
:1036E8007837BD4680BD00BF00440040001002404E
:1036F800EC0C00200800024080B400AF00BFFDE7DA
:1037080080B400AF00BFFDE780B400AF00BFFDE7A5
:1037180080B400AF00BFFDE780B400AF00BFFDE795
:1037280080B400AF00BFBD465DF8047B704780B42D
:1037380000AF00BFBD465DF8047B704780B400AFA2
:1037480000BFBD465DF8047B704780B500AF01F04F
:1037580011FC00BF80BD000080B500AF024802F038
:10376800B8FF00BF80BD00BFEC0C002080B500AFE3
:10377800024802F0AEFF00BF80BD00BF2009002054
:1037880080B500AF024806F0AFF800BF80BD00BFAB
:10379800580C002080B500AF4FF4806002F09EFD09
:1037A8004FF4006002F09AFD4FF4805002F096FD4D
:1037B8004FF4004002F092FD00BF80BD80B500AF1D
:1037C800024805F0E1F900BF80BD00BFF00A002003
:1037D80080B500AF024805F07DFB00BF80BD00BF8B
:1037E800280B002080B500AF034805F073FB0348A1
:1037F80003F0A3FA00BF80BD740B002080090020ED
:1038080080B582B000AF114B1B6E104A43F0010324
:1038180013660E4B1B6E03F001037B607B680B4B3A
:103828009B6D0A4A43F080539365084B9B6D03F0E8
:1038380080533B603B6801F011FC022001F0FAFB69
:1038480003F03AF900BF0837BD4680BD00100240BA
:1038580080B483B000AF786039607B689B6823F4DC
:103868007C123B681A437B689A6000BF0C37BD46E0
:103878005DF8047B704780B483B000AF786039602E
:103888007B689B6823F0E0723B681A437B689A6008
:1038980000BF0C37BD465DF8047B704780B483B029
:1038A80000AF78607B689B6803F0E07318460C37BC
:1038B800BD465DF8047B704780B487B000AFF86000
:1038C800B9607A603B60FB6860331A46BB689B004E
:1038D80013447B617B691A68084B13407A6802F0CD
:1038E800F8413A680A43134343F000427B691A607F
:1038F80000BF1C37BD465DF8047B704700F0FF032E
:1039080080B485B000AF786039607B6860331A4650
:103918003B689B001344FB60FB681B6803F0F8439B
:1039280018461437BD465DF8047B704780B487B0ED
:1039380000AFF860B9607A60FB6860331A46BB680C
:103948009B0013447B617B691B6823F000427B6802
:103958001A437B691A6000BF1C37BD465DF8047BBB
:10396800704780B487B000AFF860B9607A60FB68D0
:1039780060331A46BB689B0013447B617B691B68F4
:1039880023F080727B681A437B691A6000BF1C377A
:10399800BD465DF8047B704780B487B000AFF8601F
:1039A800B9607A60FB6860331A46BB689B001344B1
:1039B8007B617B691B6823F000727B681A437B6913
:1039C8001A6000BF1C37BD465DF8047B704780B4A1
:1039D80083B000AF786039607B685B6923F0004290
:1039E8003B681A437B685A6100BF0C37BD465DF8D7
:1039F800047B704780B483B000AF78607B68DB6875
:103A080003F44063002B01D1012300E00023184692
:103A18000C37BD465DF8047B704780B487B000AFB3
:103A2800F860B9607A60FB6830331A46BB681B0AD5
:103A38009B0003F00C0313447B617B691A68BB6825
:103A480003F01F031F2101FA03F3DB431A407B68CD
:103A58009B0E03F01F01BB6803F01F0301FA03F379
:103A68001A437B691A6000BF1C37BD465DF8047BAA
:103A7800704780B487B000AFF860B9607A60FB68BF
:103A880014331A46BB685B0E9B0003F0040313440F
:103A98007B617B691A68BB681B0D03F01F03072154
:103AA80001FA03F3DB431A40BB681B0D03F01F0345
:103AB800796801FA03F31A437B691A6000BF1C375F
:103AC800BD465DF8047B704780B485B000AFF860F0
:103AD800B9607A60FB68D3F8B020BB68C3F31203FF
:103AE800DB431A407B6803F018030849D940BB68D8
:103AF8000B40C3F312031A43FB68C3F8B02000BF9E
:103B08001437BD465DF8047B704700BFFFFF070010
:103B180080B483B000AF78607B689B6803F01F03B4
:103B280018460C37BD465DF8047B704780B483B0F7
:103B380000AF78607B689B6823F0204323F03F0345
:103B48007A68936000BF0C37BD465DF8047B704708
:103B580080B483B000AF78607B689B6803F0005343
:103B6800B3F1005F01D1012300E0002318460C37B0
:103B7800BD465DF8047B704780B483B000AF7860C1
:103B88007B689B6823F0104323F03F0343F0805287
:103B98007B689A6000BF0C37BD465DF8047B7047B0
:103BA80080B483B000AF78607B689B6803F0805373
:103BB800B3F1805F01D1012300E0002318460C37E0
:103BC800BD465DF8047B704780B483B000AF786071
:103BD8007B689B6823F0004323F03F0343F0010216
:103BE8007B689A6000BF0C37BD465DF8047B704760
:103BF80080B483B000AF78607B689B6823F0004393
:103C080023F03F0343F002027B689A6000BF0C3741
:103C1800BD465DF8047B704780B483B000AF786020
:103C28007B689B6803F00103012B01D1012300E0AD
:103C3800002318460C37BD465DF8047B704780B4F6
:103C480083B000AF78607B689B6803F00203022BA7
:103C580001D1012300E0002318460C37BD465DF86A
:103C6800047B704780B483B000AF78607B689B6842
:103C780023F0004323F03F0343F004027B689A607B
:103C880000BF0C37BD465DF8047B704780B483B035
:103C980000AF78607B689B6803F00403042B01D1B4
:103CA800012300E0002318460C37BD465DF8047B6D
:103CB800704780B483B000AF78607B689B6803F07E
:103CC8000803082B01D1012300E0002318460C3714
:103CD800BD465DF8047B704790B589B000AF786049
:103CE8000023FB770023FB607B68002B01D10123B5
:103CF800A9E17B685B69002B7B68DB6D002B09D130
:103D08007868FEF767FE7B6800221A667B680022E7
:103D180083F858207B681B681846FFF719FF03468D
:103D2800002B04D07B681B681846FFF7FFFE7B68F2
:103D38001B681846FFF734FF0346002B15D17B6834
:103D48001B681846FFF718FF9C4B1B689B099C4A89
:103D5800A2FB03239B0901335B00FB6002E0FB68C5
:103D6800013BFB60FB68002BF9D17B681B68184698
:103D7800FFF716FF0346002B0DD17B68DB6D43F080
:103D880010027B68DA657B681B6E43F001027B6872
:103D98001A660123FB777B681B681846FFF776FFD6
:103DA80078617B68DB6D03F01003002B40F04281E3
:103DB8007B69002B40F03E817B68DB6D23F48173C7
:103DC80043F002027B68DA657B681B681846FFF7D8
:103DD80023FF0346002B41D17B681B68B3F1A04F3A
:103DE80004D07B681B68774A93420FD14FF0A040FC
:103DF800FFF712FF04467348FFF70EFF03462343FD
:103E0800002B0CBF01230023DBB212E06E48FFF742
:103E180003FF04466D48FFF7FFFE03461C436C484A
:103E2800FFF7FAFE03462343002B0CBF01230023B0
:103E3800DBB2002B12D07B681B68B3F1A04F04D013
:103E48007B681B685F4A934201D1624A00E0624A7C
:103E58007B685B6819461046FFF7FAFC7B685B7F56
:103E68005A037B68DB6B1A437B68DB681A437B6801
:103E78009B681A437B6893F824301B041343BB6187
:103E88007B6893F82430012B06D17B689B6A013B41
:103E98005B04BA691343BB617B68DB6A002B09D0FA
:103EA8007B68DB6A03F478727B681B6B1343BA691F
:103EB8001343BB617B681B68DA68484B13407A6818
:103EC8001268B9690B43D3607B681B681B6923F0D0
:103ED80040617B685A6B7B681B680A431A617B6880
:103EE8001B681846FFF7E5FE38617B69002B7FD118
:103EF8003B69002B7CD17B681B7F9A037B6893F816
:103F080038305B001343BB617B681B68DB6823F4B4
:103F1800804323F002037A681268B9690B43D360BF
:103F28007B681B69002B17D07B681B681A697B6844
:103F38001B6842F480321A617B681B68D3F8C03072
:103F480023F47F5323F03F037A6811697A68126873
:103F58000B43C2F8C03013E07B681B681A697B68A2
:103F68001B6822F480321A617B681B68D3F8C03062
:103F78007A68126823F47F5323F03F03C2F8C030F5
:103F88007B6893F84030012B2AD17B681B681B693A
:103F980023F4FF6323F004037A68516C7A68926C07
:103FA80011437A68D26C11437A68126D0A431A4336
:103FB8007B681B6842F001021A6119E0A80300201F
:103FC800632D3E050001005000040050000500501C
:103FD8000006005000030050000700500740F0FFA3
:103FE8007B681B681A697B681B6822F001021A61EA
:103FF8007B685B69012B0CD17B681B681B6B23F00A
:104008000F017B681B6A5A1E7B681B680A431A6388
:1040180007E07B681B681A6B7B681B6822F00F023D
:104028001A637B68DB6D23F0030343F001027B68AE
:10403800DA6507E07B68DB6D43F010027B68DA65C0
:104048000123FB77FB7F18462437BD4690BD00BF90
:1040580080B586B000AFF860B9607A60FB681B680D
:10406800B3F1A04F04D0FB681B685A4A934201D1B0
:10407800594B00E0594B1846FFF74AFD3861FB6879
:104088001B681846FFF702FE0346002B40F09B8092
:10409800FB6893F85830012B01D1022396E0FB68A6
:1040A800012283F85820FB681B684D4A934208D0C8
:1040B8003B69002B05D03B69052B02D03B69092BD6
:1040C8007AD1F86800F0ECFC0346FB75FB7D002B09
:1040D8006DD1FB68DB6D23F4706323F0010343F4B7
:1040E8008072FB68DA65FB681B683A4A934209D01C
:1040F800FB681B683B4A934202D0FB681B6803E0DD
:10410800394B01E04FF0A043FA681268934202D09D
:104118003B69002B05D1FB68DB6D23F48012FB683B
:10412800DA65FB68DB6D03F48053002B06D0FB686F
:104138001B6E23F00602FB681A6602E0FB68002289
:104148001A66FB685B6D294ADA62FB685B6D284A70
:104158001A63FB685B6D274A5A63FB681B681C225D
:104168001A60FB68002283F85820FB681B685A68AD
:10417800FB681B6842F010025A60FB681B68DA682B
:10418800FB681B6842F00102DA60FB68586DFB6847
:104198001B6840331946BA687B6802F05FF903462A
:1041A800FB75FB681B681846FFF75CFD0DE0FB68B4
:1041B800002283F8582008E00123FB75FB680022E1
:1041C80083F8582001E00223FB75FB7D1846183759
:1041D800BD4680BD0001005000030050000700509C
:1041E800000600500005005000040050934C0008E1
:1041F8006B4D0008874D000880B483B000AF78602D
:1042080000BF0C37BD465DF8047B704780B483B0AF
:1042180000AF786000BF0C37BD465DF8047B70477F
:1042280080B5B6B000AF78603960002387F8D73022
:104238000023FB607B6893F85830012B02D10223DE
:1042480000F013BC7B68012283F858207B681B6848
:104258001846FFF71BFD0346002B40F0F3837B68ED
:1042680018683B6859683B681B681A46FFF7D5FB16
:104278007B681B681846FFF709FDC7F8D0007B6804
:104288001B681846FFF715FDC7F8CC00D7F8D030E3
:10429800002B40F0D981D7F8CC30002B40F0D481E6
:1042A8003B689B68B3F1004F0FD17B6818683B6887
:1042B8001B6800221946FFF7DCFB7B681B684FF080
:1042C80000411846FFF783FB0EE07B6818683B68DF
:1042D80019683B689B681A46FFF7CBFB7B681B682D
:1042E80000211846FFF773FB3B685A697B681B6817
:1042F800DB68DB0803F003035B0002FA03F3C7F88B
:10430800C8303B681B69042B22D07B6818683B685F
:1043180019693B681A68D7F8C830FFF7CDFA7B6887
:1043280018683B6819693B689B691A46FFF719FBCF
:104338007B6818683B6819693B681B7F012B02D1B1
:104348004FF0007300E000231A46FFF725FB7BE1DE
:104358007B681B6800211846FFF7D2FA0346C3F3AF
:104368001203002B0AD17B681B6800211846FFF74F
:10437800C7FA03469B0E03F01F021EE07B681B680A
:1043880000211846FFF7BCFA0346C7F8BC30D7F837
:10439800BC3093FAA3F3C7F8C030D7F8C030C7F8D9
:1043A800B830D7F8B830002B01D1202304E0D7F873
:1043B800B830B3FA83F3DBB21A463B681B68C3F321
:1043C8001203002B05D13B681B689B0E03F01F03EB
:1043D80018E03B681B68C7F8B030D7F8B03093FADC
:1043E800A3F3C7F8AC30D7F8AC30C7F8B430D7F877
:1043F800B430002B01D1202304E0D7F8B430B3FA4D
:1044080083F3DBB29A4206D17B681B680022002145
:104418001846FFF78BFA7B681B6801211846FFF7DF
:104428006FFA0346C3F31203002B0AD17B681B689B
:1044380001211846FFF764FA03469B0E03F01F029A
:104448001EE07B681B6801211846FFF759FA0346EE
:10445800C7F8A430D7F8A43093FAA3F3C7F8A0306C
:10446800D7F8A030C7F8A830D7F8A830002B01D16A
:10447800202304E0D7F8A830B3FA83F3DBB21A4656
:104488003B681B68C3F31203002B05D13B681B680C
:104498009B0E03F01F0318E03B681B68C7F89830B1
:1044A800D7F8983093FAA3F3C7F89430D7F8943034
:1044B800C7F89C30D7F89C30002B01D1202304E0AA
:1044C800D7F89C30B3FA83F3DBB29A4206D17B6803
:1044D8001B68002201211846FFF728FA7B681B6831
:1044E80002211846FFF70CFA0346C3F31203002B08
:1044F8000AD17B681B6802211846FFF701FA0346B8
:104508009B0E03F01F021EE07B681B680221184601
:10451800FFF7F6F90346C7F88C30D7F88C3093FAD2
:10452800A3F3C7F88830D7F88830C7F89030D7F8A1
:104538009030002B01D1202304E0D7F89030B3FA53
:1045480083F3DBB21A463B681B68C3F31203002BE4
:1045580005D13B681B689B0E03F01F0316E03B6800
:104568001B68C7F88030D7F8803093FAA3F3FB674D
:10457800FB6FC7F88430D7F88430002B01D1202393
:1045880004E0D7F88430B3FA83F3DBB29A4206D159
:104598007B681B68002202211846FFF7C7F97B6871
:1045A8001B6803211846FFF7ABF90346C3F3120350
:1045B800002B0AD17B681B6803211846FFF7A0F976
:1045C80003469B0E03F01F0217E07B681B6803215C
:1045D8001846FFF795F903467B677B6F93FAA3F3B9
:1045E8003B673B6FBB67BB6F002B01D1202303E008
:1045F800BB6FB3FA83F3DBB21A463B681B68C3F39D
:104608001203002B05D13B681B689B0E03F01F03A8
:1046180011E03B681B68BB66BB6E93FAA3F37B662D
:104628007B6EFB66FB6E002B01D1202303E0FB6E43
:10463800B3FA83F3DBB29A4206D17B681B68002287
:1046480003211846FFF772F97B681B681846FFF7C5
:10465800E3FA0346002B40F03D817B6818683B680D
:1046680019683B68DB681A46FFF72EFA3B68DB6877
:10467800A24A934240F02E817B6818683B681B6809
:10468800C3F31203002B0BD13B681B689B0E01334D
:1046980003F01F03092B94BF01230023DBB219E0A9
:1046A8003B681B68FB65FB6D93FAA3F3BB65BB6DA9
:1046B8003B663B6E002B01D1202303E03B6EB3FA2F
:1046C80083F3DBB2013303F01F03092B94BF0123EB
:1046D8000023DBB2002B79D03B681B68C3F31203BD
:1046E800002B07D13B681B689B0E01339B0603F028
:1046F800F84215E03B681B683B653B6D93FAA3F3F2
:10470800FB64FB6C7B657B6D002B01D1202303E0F0
:104718007B6DB3FA83F3DBB201339B0603F0F842F7
:104728003B681B68C3F31203002B09D13B681B6865
:104738009B0E013303F01F03012101FA03F317E075
:104748003B681B687B647B6C93FAA3F33B643B6C0C
:10475800BB64BB6C002B01D1202303E0BB6CB3FA14
:1047680083F3DBB2013303F01F03012101FA03F3E2
:1047780042EA03013B681B68C3F31203002B0AD10A
:104788003B681B689B0E013303F01F0213465B0056
:1047980013441B0518E03B681B68BB63BB6B93FAAB
:1047A800A3F37B637B6BFB63FB6B002B01D12023A3
:1047B80003E0FB6BB3FA83F3DBB2013303F01F02B0
:1047C80013465B0013441B050B437EE03B681B68E4
:1047D800C3F31203002B07D13B681B689B0E013300
:1047E8009B0603F0F84215E03B681B68FB62FB6A16
:1047F80093FAA3F3BB62BB6A3B633B6B002B01D10B
:10480800202303E03B6BB3FA83F3DBB201339B064F
:1048180003F0F8423B681B68C3F31203002B09D16D
:104828003B681B689B0E013303F01F03012101FA4B
:1048380003F317E03B681B683B623B6A93FAA3F3F8
:10484800FB61FB697B627B6A002B01D1202303E0BB
:104858007B6AB3FA83F3DBB2013303F01F03012150
:1048680001FA03F342EA03013B681B68C3F312032E
:10487800002B0DD13B681B689B0E013303F01F0210
:1048880013465B0013441E3B1B0543F000731BE0FB
:104898003B681B687B617B6993FAA3F33B613B69C7
:1048A800BB61BB69002B01D1202303E0BB69B3FACC
:1048B80083F3DBB2013303F01F0213465B0013449A
:1048C8001E3B1B0543F000730B433A689268194678
:1048D800FFF7CFF83B681A68094B1340002B00F02C
:1048E800BE807B681B68B3F1A04F04D07B681B684F
:1048F800044A93420AD1044B09E000BF00007F40FC
:10490800000008800001005000030050594B184671
:10491800FEF7C4FFC7F8C4003B681B68564A9342B9
:1049280004D03B681B68554A93423AD1D7F8C43043
:1049380003F40003002B34D17B681B68B3F1A04F4C
:1049480005D07B681B684E4A934240F085807B689F
:104958001B68B3F1A04F04D07B681B68494A934297
:1049680001D1494A00E0434AD7F8C43043F4000370
:1049780019461046FEF77FFF444B1B689B09444AC3
:10498800A2FB03239B095A1C13465B0013449B009C
:10499800FB6002E0FB68013BFB60FB68002BF9D180
:1049A8005AE03B681B683B4A934225D1D7F8C4308C
:1049B80003F08073002B1FD17B681B68314A934238
:1049C80004D17B681B68344A934247D07B681B68D4
:1049D800B3F1A04F04D07B681B682A4A934201D1E7
:1049E800294A00E0234AD7F8C43043F080731946B7
:1049F8001046FEF740FF31E03B681B68274A9342A8
:104A08002DD1D7F8C43003F48003002B27D17B685D
:104A18001B681C4A934222D07B681B68B3F1A04FE5
:104A280004D07B681B68174A934201D1164A00E0FC
:104A3800104AD7F8C43043F4800319461046FEF7ED
:104A48001AFF0CE07B68DB6D43F020027B68DA65B7
:104A5800012387F8D73002E000BF00E000BF7B6881
:104A6800002283F8582097F8D7301846D837BD4623
:104A780080BD00BF00070050000021C31000C09097
:104A8800000600500001005000030050A803002059
:104A9800632D3E05000052C700050050000084CB7E
:104AA80080B584B000AF78600023BB607B681B686A
:104AB8001846FFF7B1F80346002B76D17B681B68D0
:104AC8009A683C4B1340002B0DD07B68DB6D43F09C
:104AD80010027B68DA657B681B6E43F001027B6815
:104AE8001A66012362E07B681B681846FFF76CF8BA
:104AF8007B681B68B3F1A04F04D07B681B682E4A03
:104B0800934201D12D4B00E02D4B1846FEF7C6FE0F
:104B1800034603F40003002B13D02A4B1B689B09A0
:104B2800294AA2FB03239B095A1C13465B00134422
:104B38009B00BB6002E0BB68013BBB60BB68002B0D
:104B4800F9D100F029FAF86028E07B681B6818465C
:104B5800FFF762F80346002B04D17B681B681846F0
:104B6800FFF732F800F018FA0246FB68D31A022B56
:104B780014D97B681B681B6803F00103012B0DD057
:104B88007B68DB6D43F010027B68DA657B681B6E1F
:104B980043F001027B681A66012307E07B681B6803
:104BA8001B6803F00103012BCFD1002318461037EF
:104BB800BD4680BD3F00008000010050000300504A
:104BC80000070050A8030020632D3E0580B584B07F
:104BD80000AF78607B681B681846FFF730F8F8600C
:104BE8007B681B681846FFF717F80346002B47D069
:104BF800FB68002B44D17B681B689B6803F00D039E
:104C0800012B0CD17B681B681846FEF7F1FF7B6807
:104C18001B6803221A6000F0BFF9B86029E07B68BE
:104C2800DB6D43F010027B68DA657B681B6E43F02E
:104C380001027B681A66012323E000F0ADF9024601
:104C4800BB68D31A022B14D97B681B689B6803F0D6
:104C58000103002B0DD07B68DB6D43F010027B68ED
:104C6800DA657B681B6E43F001027B681A660123D4
:104C780007E07B681B689B6803F00103002BDCD10D
:104C8800002318461037BD4680BD80B584B000AFFC
:104C980078607B689B6AFB60FB68DB6D03F0500300
:104CA800002B4BD1FB68DB6D43F40072FB68DA65BF
:104CB800FB681B681B6803F00803002B21D0FB6806
:104CC8001B681846FEF796FE0346002B32D0FB6899
:104CD8001B68DB6803F40053002B2BD1FB68DB6DEA
:104CE80023F48072FB68DA65FB68DB6D03F480539C
:104CF800002B1FD1FB68DB6D43F00102FB68DA650E
:104D080018E0FB681B68DB6803F00203002B11D175
:104D1800FB68DB6D23F48072FB68DA65FB68DB6D8A
:104D280003F48053002B05D1FB68DB6D43F00102CF
:104D3800FB68DA65F868FDF739FC0EE0FB68DB6DA7
:104D480003F01003002B03D0F868FFF75FFA04E0C4
:104D5800FB685B6D5B6B7868984700BF1037BD4692
:104D680080BD80B584B000AF78607B689B6AFB60CB
:104D7800F868FFF741FA00BF1037BD4680BD80B51F
:104D880084B000AF78607B689B6AFB60FB68DB6D72
:104D980043F04002FB68DA65FB681B6E43F00402CF
:104DA800FB681A66F868FFF731FA00BF1037BD468E
:104DB80080BD80B483B000AF786039607B689B6841
:104DC80023F0404323F03F033A6802F08042134344
:104DD80043F000427B689A6000BF0C37BD465DF81F
:104DE800047B704780B483B000AF78607B689B68B1
:104DF80003F00043B3F1004F01D1012300E0002389
:104E080018460C37BD465DF8047B704780B584B002
:104E180000AF786039600023BB607B6893F8583036
:104E2800012B01D102234DE07B68012283F8582031
:104E38007868FFF7CBFE0346FB73FB7B002B36D16C
:104E48007B68DB6D23F4885323F0020343F00202EE
:104E58007B68DA657B681B6839681846FFF7A9FF25
:104E680014E0BB680133BB60BB68184A93420DD994
:104E78007B68DB6D23F0120343F010027B68DA6570
:104E88007B68002283F8582001231BE07B681B689D
:104E98001846FFF7A7FF0346002BE2D17B68DB6DBE
:104EA80023F0030343F001027B68DA6505E07B68C1
:104EB800DB6D43F010027B68DA657B68002283F8BB
:104EC8005820FB7B18461037BD4680BD01DE040024
:104ED80080B582B000AF0023FB71032001F0CCFE47
:104EE8000F2000F00DF80346002B02D00123FB71C0
:104EF80001E0FEF785FCFB7918460837BD4680BD02
:104F080080B584B000AF78600023FB73164B1B6834
:104F1800002B22D0154B1A68134B1B684FF47A717B
:104F2800B1FBF3F3B2FBF3F3184601F0D8FE0346E6
:104F3800002B0FD17B680F2B09D8002279684FF01E
:104F4800FF3001F0A4FE0A4A7B68136007E00123E2
:104F5800FB7304E00123FB7301E00123FB73FB7B7C
:104F680018461037BD4680BDA4030020A8030020C2
:104F7800A003002080B400AF054B1A68054B1B68DE
:104F88001344034A136000BFBD465DF8047B7047B5
:104F98004C0D0020A403002080B400AF034B1B6815
:104FA8001846BD465DF8047B704700BF4C0D0020D5
:104FB80080B584B000AF7860FFF7EEFFB8607B681B
:104FC800FB60FB68B3F1FF3F04D0094B1B68FA682C
:104FD8001344FB6000BFFFF7DFFF0246BB68D31A2C
:104FE800FA689A42F7D800BF00BF1037BD4680BDA7
:104FF800A403002080B400AF054B5B68044A43F06B
:105008000103536000BFBD465DF8047B704700BFD5
:10501800002004E080B400AF054B5B68044A43F00D
:105028000203536000BFBD465DF8047B704700BFB4
:10503800002004E080B483B000AF7860064B1B68A2
:1050480023F0020204497B6813430B6000BF0C374E
:10505800BD465DF8047B70473000014080B400AF66
:10506800054B1B68044A23F00103136000BFBD46CB
:105078005DF8047B704700BF3000014080B588B000
:1050880000AF78607B68002B01D10123FEE27B68CA
:105098001B6803F00103002B75D0974B9B6803F046
:1050A8000C03BB61944BDB6803F003037B61BB69B2
:1050B8000C2B02D17B69032B02D0BB69082B0BD1C7
:1050C8008D4B1B6803F40033002B5BD07B685B6857
:1050D800002B57D10123D9E27B685B68B3F5803F89
:1050E80006D1854B1B68844A43F4803313601DE066
:1050F8007B685B68B3F5A02F0CD17F4B1B687E4A99
:1051080043F4802313607C4B1B687B4A43F4803351
:1051180013600BE0784B1B68774A23F480331360E5
:10512800754B1B68744A23F4802313607B685B68A3
:10513800002B13D0FFF730FF386108E0FFF72CFF92
:1051480002463B69D31A642B01D903239EE26A4BBA
:105158001B6803F40033002BF0D014E0FFF71CFFAA
:10516800386108E0FFF718FF02463B69D31A642B41
:1051780001D903238AE2604B1B6803F40033002B38
:10518800F0D100E000BF7B681B6803F00203002B2E
:1051980075D0594B9B6803F00C03BB61564BDB6819
:1051A80003F003037B61BB690C2B02D17B69022BE3
:1051B80002D0BB69042B1FD14F4B1B6803F48063DB
:1051C800002B05D07B68DB68002B01D101235DE251
:1051D800494B5B6823F0FE427B681B691B06464906
:1051E80013434B60454B1B681846FFF789FE03467F
:1051F800002B43D0012349E27B68DB68002B23D0D6
:105208003D4B1B683C4A43F480731360FFF7C4FEB0
:10521800386108E0FFF7C0FE02463B69D31A022B4B
:1052280001D9032332E2344B1B6803F48063002B5B
:10523800F0D0314B5B6823F0FE427B681B691B068C
:105248002D4913434B601AE02B4B1B682A4A23F461
:1052580080731360FFF7A0FE386108E0FFF79CFE3B
:1052680002463B69D31A022B01D903230EE2224BD3
:105278001B6803F48063002BF0D100E000BF7B685B
:105288001B6803F00803002B41D07B685B69002B87
:105298001CD0194BD3F89430174A43F00103C2F8D5
:1052A8009430FFF779FE386108E0FFF775FE024693
:1052B8003B69D31A022B01D90323E7E10E4BD3F83C
:1052C800943003F00203002BEFD020E00A4BD3F810
:1052D8009430094A23F00103C2F89430FFF75CFECA
:1052E80038610DE0FFF758FE02463B69D31A022BDE
:1052F80006D90323CAE100BF00100240A003002022
:105308008C4BD3F8943003F00203002BEAD17B686E
:105318001B6803F00403002B00F0A6800023FB7732
:10532800844B9B6D03F08053002B01D1012300E0D7
:105338000023002B0DD07F4B9B6D7E4A43F080539A
:1053480093657C4B9B6D03F08053FB60FB680123E6
:10535800FB77794B1B6803F48073002B18D1764BCD
:105368001B68754A43F480731360FFF715FE3861B4
:1053780008E0FFF711FE02463B69D31A022B01D958
:10538800032383E16C4B1B6803F48073002BF0D07C
:105398007B689B68012B08D1664BD3F89030654A2F
:1053A80043F00103C2F8903024E07B689B68052B2A
:1053B80010D1604BD3F890305E4A43F00403C2F832
:1053C80090305C4BD3F890305A4A43F00103C2F84E
:1053D80090300FE0574BD3F89030564A23F0010332
:1053E800C2F89030534BD3F89030524A23F004035C
:1053F800C2F890307B689B68002B16D0FFF7CCFD75
:1054080038610AE0FFF7C8FD02463B69D31A41F24A
:105418008832934201D9032338E1464BD3F89030C0
:1054280003F00203002BEDD015E0FFF7B5FD38615E
:105438000AE0FFF7B1FD02463B69D31A41F2883210
:10544800934201D9032321E13A4BD3F8903003F07A
:105458000203002BEDD1FB7F012B05D1354B9B6D52
:10546800344A23F0805393657B681B6803F020035C
:10547800002B3CD07B689B69002B1CD02D4BD3F8AC
:1054880098302C4A43F00103C2F89830FFF784FDA6
:10549800386108E0FFF780FD02463B69D31A022B0A
:1054A80001D90323F2E0234BD3F8983003F0020329
:1054B800002BEFD01BE01F4BD3F898301D4A23F088
:1054C8000103C2F89830FFF767FD386108E0FFF77D
:1054D80063FD02463B69D31A022B01D90323D5E0A9
:1054E800144BD3F8983003F00203002BEFD17B68FC
:1054F800DB69002B00F0C9800E4B9B6803F00C039E
:105508000C2B00F083807B68DB69022B5ED1094B92
:105518001B68084A23F080731360FFF73DFD38616C
:105528000CE0FFF739FD02463B69D31A022B05D977
:105538000323ABE00010024000700040554B1B688D
:1055480003F00073002BECD1524BDA68524B134036
:105558007A68116A7A68526A013A120111437A68C4
:10556800926A120211437A68126B5208013A520584
:1055780011437A68526B5208013A520611437A680D
:10558800D26AD2060A4343491343CB60414B1B6896
:10559800404A43F0807313603E4BDB683D4A43F05A
:1055A8008073D360FFF7F8FC386108E0FFF7F4FC7C
:1055B80002463B69D31A022B01D9032366E0354B17
:1055C8001B6803F00073002BF0D05EE0314B1B68C2
:1055D800304A23F080731360FFF7DEFC386108E07F
:1055E800FFF7DAFC02463B69D31A022B01D90323E1
:1055F8004CE0284B1B6803F00073002BF0D1254BBF
:10560800DA682449254B1340CB603EE07B68DB69B0
:10561800012B01D1012339E01E4BDB687B617B69DB
:1056280003F003027B681B6A9A422CD17B6903F062
:10563800F0027B685B6A013B1B019A4223D17B69BC
:1056480003F4FE427B689B6A1B029A421BD17B696A
:1056580003F078427B68DB6ADB069A4213D17B69E8
:1056680003F4C0027B681B6B5B08013B5B059A4235
:1056780009D17B6903F0C0627B685B6B5B08013B07
:105688005B069A4201D0012300E000231846203728
:10569800BD4680BD001002400C809F01FCFFEEFE5D
:1056A80080B586B000AF7860396000237B617B6885
:1056B800002B01D101231EE1914B1B6803F00F035E
:1056C8003A689A4210D98E4B1B6823F00F028C4916
:1056D8003B6813430B608A4B1B6803F00F033A685F
:1056E8009A4201D0012306E17B681B6803F001039D
:1056F800002B73D07B685B68032B29D1814B1B6817
:1057080003F00073002B01D10123F4E000F09EF9AF
:1057180038613B697C4A93423FD97A4B9B6803F0D6
:10572800F003002B09D07B681B6803F00203002BF1
:1057380033D07B689B68002B2FD1724B9B6823F07A
:10574800F003704A43F08003936080237B6124E078
:105758007B685B68022B07D16A4B1B6803F4003334
:10576800002B09D10123C6E0664B1B6803F4806354
:10577800002B01D10123BEE000F0CEF838613B696F
:10578800614A934209D95F4B9B6823F0F0035D4A55
:1057980043F08003936080237B615A4B9B6823F01E
:1057A80003027B685B68574913438B60FFF7F4FB80
:1057B800F8600AE0FFF7F0FB0246FB68D31A41F2F3
:1057C8008832934201D9032395E04E4B9B6803F03E
:1057D8000C027B685B689B009A42EBD17B681B6874
:1057E80003F00203002B23D07B681B6803F004033B
:1057F800002B05D0434B9B68424A43F4E063936017
:105808007B681B6803F00803002B07D03D4B9B689F
:1058180023F47C533B4A43F4E0639360394B9B6821
:1058280023F0F0027B689B68364913438B6008E0DD
:105838007B69802B05D1334B9B68324A23F0F003F8
:1058480093602F4B1B6803F00F033A689A421DD2EE
:105858002B4B1B6823F00F0229493B6813430B604D
:10586800FFF79AFBF8600AE0FFF796FB0246FB6831
:10587800D31A41F28832934201D903233BE0204BEB
:105888001B6803F00F033A689A42EDD17B681B68E6
:1058980003F00403002B08D01A4B9B6823F4E06242
:1058A8007B68DB68174913438B607B681B6803F0D0
:1058B8000803002B09D0134B9B6823F460527B68C4
:1058C8001B69DB000F4913438B6000F025F8024683
:1058D8000C4B9B681B0903F00F030C49CB5C03F0CE
:1058E8001F0322FA03F30A4A13600A4B1B6818467F
:1058F800FFF706FB034618461837BD4680BD00BFB4
:10590800002002400010024000B4C4040CAE00089D
:10591800A8030020A003002080B487B000AF2C4B60
:105928009B6803F00C03042B02D12A4B3B6147E030
:10593800274B9B6803F00C03082B02D1264B3B61D5
:105948003EE0234B9B6803F00C030C2B36D1204B15
:10595800DB6803F00303FB601D4BDB681B0903F0E6
:105968000F030133BB60FB68032B0CD11A4ABB68D9
:10597800B2FBF3F3164AD268120A02F07F0202FB66
:1059880003F37B610CE0134ABB68B2FBF3F3104AE4
:10599800D268120A02F07F0202FB03F37B6100BFA8
:1059A8000B4BDB685B0E03F0030301335B007B608A
:1059B8007A697B68B2FBF3F33B6101E000233B614A
:1059C8003B6918461C37BD465DF8047B704700BF2D
:1059D800001002400024F40000127A0080B400AFE6
:1059E800034B1B681846BD465DF8047B704700BF33
:1059F800A803002080B500AFFFF7F0FF0246064B72
:105A08009B681B0A03F007030449CB5C03F01F03E0
:105A180022FA03F3184680BD001002401CAE0008AD
:105A280080B500AFFFF7DAFF0246064B9B68DB0A3A
:105A380003F007030449CB5C03F01F0322FA03F3C6
:105A4800184680BD001002401CAE000880B487B024
:105A580000AF1E4BDB6803F003033B611B4BDB68A5
:105A68001B0903F00F030133FB603B69032B0CD1C7
:105A7800174AFB68B2FBF3F3144AD268120A02F021
:105A88007F0202FB03F37B610CE0124AFB68B2FB66
:105A9800F3F30E4AD268120A02F07F0202FB03F304
:105AA8007B6100BF094BDB685B0E03F00303013326
:105AB8005B00BB607A69BB68B2FBF3F37B607B6811
:105AC80018461C37BD465DF8047B7047001002403D
