:020000040800F2
:100000000000022001BB0008254000082D40000828
:10001000354000083D400008454000080000000051
:100020000000000000000000000000004D4000083B
:100030005B400008000000006940000877400008AD
:1000400051BB000851BB000851BB000851BB000860
:1000500051BB000851BB000851BB000851BB000850
:1000600051BB000851BB000851BB00088540000887
:1000700051BB000851BB00089940000851BB000863
:1000800051BB000851BB000851BB000851BB000820
:1000900051BB000851BB000851BB000851BB000810
:1000A00051BB000851BB000851BB000851BB000800
:1000B00051BB000851BB000851BB000851BB0008F0
:1000C00051BB000851BB000851BB000851BB0008E0
:1000D00051BB000851BB0008AD40000851BB0008EF
:1000E000C140000851BB000851BB000851BB0008CB
:1000F00051BB000851BB000851BB000851BB0008B0
:1001000051BB0008E9400008FD40000851BB000851
:1001100051BB000851BB00081141000851BB000849
:100120002D41000851BB000851BB000851BB00081D
:1001300051BB000851BB000851BB000851BB00086F
:1001400051BB000851BB000851BB000851BB00085F
:1001500051BB000851BB000851BB000851BB00084F
:1001600051BB000851BB000851BB000851BB00083F
:1001700051BB000851BB000851BB000851BB00082F
:1001800051BB000851BB000851BB000851BB00081F
:1001900051BB00080000000051BB000851BB000823
:1001A00051BB000851BB000851BB000851BB0008FF
:1001B00051BB000851BB000851BB000851BB0008EF
:1001C00051BB000851BB000851BB000851BB0008DF
:0801D00051BB000851BB0008FF
:1001D80010B5054C237833B9044B13B10448AFF379
:1001E80000800123237010BDD80500200000000006
:1001F800ACBB000808B5034B1BB103490348AFF378
:10020800008008BD00000000DC050020ACBB000831
:1002180070B54FF0FF0C4CF4E06C1CEA11541DBF94
:100228001CEA135594EA0C0F95EA0C0F00F0DEF85F
:100238002C4481EA030621EA4C5123EA4C5350EA44
:10024800013518BF52EA033541F4801143F4801395
:1002580038D0A0FB02CE4FF00005E1FB02E506F026
:100268000042E0FB03E54FF00006E1FB03569CF07B
:10027800000F18BF4EF0010EA4F1FF04B6F5007F81
:1002880064F5407404D25FEA4E0E6D4146EB0606F3
:1002980042EAC62141EA55514FEAC52040EA5E507C
:1002A8004FEACE2EB4F1FD0C88BFBCF5E06F1ED826
:1002B800BEF1004F08BF5FEA500E50F1000041EB5D
:1002C800045170BD06F0004646EA010140EA02000A
:1002D80081EA0301B4EB5C04C2BFD4EB0C0541EA2C
:1002E800045170BD41F480114FF0000E013C00F341
:1002F800AB8014F1360FDEBF002001F0004170BD65
:10030800C4F10004203C35DA0C341BDC04F114047D
:10031800C4F1200500FA05F320FA04F001FA05F209
:1003280040EA020001F0004221F0004110EBD370D6
:1003380021FA04F642EB06015EEA430E08BF20EA02
:10034800D37070BDC4F10C04C4F1200500FA04F3A5
:1003580020FA05F001FA04F240EA020001F0004137
:1003680010EBD37041F100015EEA430E08BF20EAAA
:10037800D37070BDC4F1200500FA05F24EEA020EF2
:1003880020FA04F301FA05F243EA020321FA04F021
:1003980001F0004121FA04F220EA020000EBD370D8
:1003A8005EEA430E08BF20EAD37070BD94F0000FD8
:1003B8000FD101F00046400041EB010111F4801F0C
:1003C80008BF013CF7D041EA060195F0000F18BFBD
:1003D800704703F00046520043EB030313F4801FF9
:1003E80008BF013DF7D043EA0603704794EA0C0FB3
:1003F8000CEA135518BF95EA0C0F0CD050EA4106C9
:1004080018BF52EA4306D1D181EA030101F0004145
:100418004FF0000070BD50EA410606BF104619466D
:1004280052EA430619D094EA0C0F02D150EA013679
:1004380013D195EA0C0F05D152EA03361CBF1046BA
:1004480019460AD181EA030101F0004141F0FE4159
:1004580041F470014FF0000070BD41F0FE4141F4DD
:10046800780170BD81F0004102E000BF83F00043D5
:1004780030B54FEA41044FEA430594EA050F08BF37
:1004880090EA020F1FBF54EA000C55EA020C7FEAFB
:10049800645C7FEA655C00F0E2804FEA5454D4EB78
:1004A8005555B8BF6D420CDD2C4480EA020281EA42
:1004B800030382EA000083EA010180EA020281EA7A
:1004C8000303362D88BF30BD11F0004F4FEA0131CC
:1004D8004FF4801C4CEA113102D0404261EB4101DB
:1004E80013F0004F4FEA03334CEA133302D0524261
:1004F80063EB430394EA050F00F0A780A4F101041D
:10050800D5F1200E0DDB02FA0EFC22FA05F2801856
:1005180041F1000103FA0EF2801843FA05F359413C
:100528000EE0A5F120050EF1200E012A03FA0EFCBB
:1005380028BF4CF0020C43FA05F3C01851EBE371E5
:1005480001F0004507D54FF0000EDCF1000C7EEB02
:1005580000006EEB0101B1F5801F1BD3B1F5001F40
:100568000CD349085FEA30004FEA3C0C04F101045F
:100578004FEA445212F5800F80F09A80BCF1004F88
:1005880008BF5FEA500C50F1000041EB045141EA0A
:10059800050130BD5FEA4C0C404141EB0101013CD3
:1005A80028BFB1F5801FE9D291F0000F04BF0146C2
:1005B8000020B1FA81F308BF2033A3F10B03B3F194
:1005C80020020CDA0C3208DD02F1140CC2F10C0224
:1005D80001FA0CF021FA02F10CE002F11402D8BF82
:1005E800C2F1200C01FA02F120FA0CFCDCBF41EA4E
:1005F8000C019040E41AA2BF01EB0451294330BD1D
:100608006FEA04041F3C1CDA0C340EDC04F11404F9
:10061800C4F1200220FA04F001FA02F340EA0300D0
:1006280021FA04F345EA030130BDC4F10C04C4F116
:10063800200220FA02F001FA04F340EA03002946F6
:1006480030BD21FA04F0294630BD94F0000F83F440
:10065800801306BF81F480110134013D4EE77FEA23
:10066800645C18BF7FEA655C29D094EA050F08BF6F
:1006780090EA020F05D054EA000C04BF1946104650
:1006880030BD91EA030F1EBF0021002030BD5FEA94
:10069800545C05D14000494128BF41F0004130BDBC
:1006A80014F580043CBF01F5801130BD01F0004510
:1006B80045F0FE4141F470014FF0000030BD7FEA83
:1006C800645C1ABF194610467FEA655C1CBF0B467E
:1006D800024650EA013406BF52EA033591EA030F95
:1006E80041F4002130BD00BF90F0000F04BF00218D
:1006F800704730B54FF4806404F132044FF00005C0
:100708004FF0000150E700BF90F0000F04BF002138
:10071800704730B54FF4806404F1320410F000459E
:1007280048BF40424FF000013EE700BF42004FEA99
:10073800E2014FEA31014FEA02701FBF12F07F4316
:1007480093F07F4F81F06051704732F07F4208BFCD
:10075800704793F07F4F04BF41F40021704730B5D4
:100768004FF4607401F0004521F000411CE700BF20
:1007780050EA010208BF704730B54FF000050AE0A3
:1007880050EA010208BF704730B511F0004502D5A4
:10079800404261EB41014FF4806404F132045FEAA6
:1007A800915C3FF4D8AE4FF003025FEADC0C18BF4F
:1007B80003325FEADC0C18BF033202EBDC02C2F141
:1007C800200300FA03FC20FA02F001FA03FE40EAD3
:1007D8000E0021FA02F11444BDE600BF4FEA4102BF
:1007E800B2F1E04324BFB3F5001CDCF1FE5C0DD987
:1007F80001F0004C4FEAC0024CEA5070B2F1004FD1
:1008080040EB830008BF20F00100704711F0804FD3
:1008180021D113F13872BCBF01F00040704741F498
:1008280080114FEA5252C2F11802C2F1200C10FA9C
:100838000CF320FA02F018BF40F001004FEAC12380
:100848004FEAD32303FA0CFC40EA0C0023FA02F324
:100858004FEA4303CCE77FEA625307D150EA0133FA
:100868001EBF4FF0FE4040F44000704701F00040CA
:1008780040F0FE4040F40000704700BF53B94AB949
:10088800002908BF00281CBF4FF0FF314FF0FF3090
:1008980000F088B9ADF1080C6DE904CE00F006F857
:1008A800DDF804E0DDE9022304B070472DE9F047E4
:1008B800089D0F4604468C46002B48D18A421646AE
:1008C80061D9B2FA82F34BB1C3F1200201FA03FCF9
:1008D80020FA02F29E4042EA0C0C9C404FEA164E67
:1008E800B7B2BCFBFEF1220C0EFB11CC42EA0C4263
:1008F80001FB07F0904209D9B21801F1FF3C80F0E2
:10090800EE80904240F2EB8002393244121AA4B2CF
:10091800B2FBFEF00EFB102244EA024400FB07F78C
:10092800A74209D9341900F1FF3280F0DA80A742D2
:1009380040F2D7803444023840EA0140E41B0021E9
:100948001DB1DC400023C5E90043BDE8F0878B42B8
:1009580006D90DB1C5E9000100210846BDE8F087B8
:10096800B3FA83F1002948D1BB4202D3824200F294
:100978000781841A67EB030201209446002DE4D016
:10098800C5E9004CE1E7002A00F09280B2FA82F350
:10099800002B40F0A8808A1A4FEA164E1FFA86FCF0
:1009A8000121200CB2FBFEF70EFB172240EA02429F
:1009B8000CFB07F0904207D9B21807F1FF3802D2B2
:1009C800904200F2E2804746121AA4B2B2FBFEF04F
:1009D8000EFB102244EA02440CFB00FCA44507D994
:1009E800341900F1FF3202D2A44500F2CB80104640
:1009F800A4EB0C0440EA0740A2E7C1F120068B40B3
:100A080022FA06FC4CEA030C07FA01F420FA06F372
:100A1800F7404FEA1C49234300FA01F81FFA8CFEFD
:100A2800B7FBF9F01C0C09FB107744EA074400FBFC
:100A38000EF7A74202FA01F20AD91CEB040400F1EE
:100A4800FF3A80F09B80A74240F2988002386444C5
:100A5800E41B9FB2B4FBF9F309FB134447EA0444CF
:100A680003FB0EFEA64509D91CEB040403F1FF376E
:100A780080F08280A6457FD9023B644443EA004067
:100A8800A4EB0E04A0FB02E7BC427346B94663D34D
:100A980060D05DB1B8EB030264EB090404FA06F612
:100AA80022FA01F31E43CC40C5E9006400214CE75B
:100AB8006208480842EAC1710B0C43EA00438AB253
:100AC80042EA0342B3FBF6F1E407B4463746B646BA
:100AD8001F23B0FBF6F0D21B41EA004161E76146F3
:100AE80014E7104628E7C3F1200120FA01F29E40DE
:100AF80027FA01F19F403A434FEA164E1FFA86FC47
:100B0800B1FBFEF70EFB1710110C41EA004107FB81
:100B18000CF8884504FA03F43AD9711807F1FF3044
:100B280001D288451FD8A1EB0801B1FBFEF808FBEC
:100B38000CF70EFB181192B242EA0142BA422FD2C8
:100B4800B21808F1FF31C6D2BA42C4D2A8F10201E4
:100B58003244C0E7F0459CD2BEEB020367EB0C07BA
:100B68000138B94695E7A6EB08084144B81EB1FB21
:100B7800FEF808FB0CF7DCE73B467FE7504667E7E3
:100B88000846FBE63444023832E7023F32441BE7AA
:100B9800A1EB08013846B1FBFEF808FB0CF7C8E7E3
:100BA800414698E7704700BF80B48DB000AFF86148
:100BB8000B4687ED050AC7ED040A87ED031AC7ED52
:100BC800021A87ED012AC7ED002AFB76FB69FA7E37
:100BD8001A70FB697A695A60FB693A699A60FB691D
:100BE800FA68DA60FB69BA681A62FB697A685A635C
:100BF800FB693A689A63FB694FF00002DA61FB69A6
:100C08004FF000021A63FB694FF000025A62FB6959
:100C18004FF000029A62FB694FF00002DA62FB694A
:100C28004FF00002DA63FB694FF000021A64FB69B7
:100C38001033BB62BB6AFB62BB6A0C337B6208E0A1
:100C4800FB6A3B623B6A4FF000021A60FB6A04339E
:100C5800FB62FA6A7B6A9A42F2D100BF00BF34375E
:100C6800BD465DF8047B704780B584B000AF7860FE
:100C78003960786800F07EFA3B681A687B681A6009
:100C88003B685A687B685A603B681A897B681A8196
:100C98003B689A7A7B689A723B689A897B689A81E2
:100CA8003B681A697B681A613B681B7D082B02D870
:100CB8003B681A7D00E008227B681A753B689A69D0
:100CC8007B689A613B68DA697B68DA613B6893F80C
:100CD80020207B6883F820203B6893F821207B68DC
:100CE80083F821203B685A6A7B685A620023FB73A9
:100CF80018E0FB7B7A680A339B0013444FF000022C
:100D08001A60FB7B7A6812339B0013444FF0000291
:100D18001A60FA7B7B683432002123F81210FB7BBF
:100D28000133FB73FB7B072BE3D900BF00BF1037F0
:100D3800BD4680BD80B582B000AF78607B681B6817
:100D4800002B01D100230BE07B681B687F2118462C
:100D580004F01AFD0346002B0CBF01230023DBB26D
:100D680018460837BD4680BD80B582B000AF7860B0
:100D7800786800F055F9034683F00103DBB2002BD5
:100D880001D000234CE07B6893F82030002B0AD078
:100D98007868FFF7CFFF034683F00103DBB2002B2F
:100DA80001D0012300E00023002B01D0002337E00D
:100DB800786800F08BF9034683F00103DBB2002B5F
:100DC80001D000232CE07B6818687B6859687B6831
:100DD8001B891A4603F0D4FD0346002B14BF0123D8
:100DE8000023DBB2002B04D0786800F0C3F900239D
:100DF80016E07B6893F82130002B10D07B681B68C5
:100E08005B6D002B0BD07B681B685B6D1B681A68D9
:100E18007B681B685B6D1B6822F004021A60012363
:100E280018460837BD4680BD80B588B000AF7860E9
:100E3800786800F022F9034683F00103DBB2002B47
:100E480001D0002384E00023FB770023BB7779E0FF
:100E58007B681969BA7F13465B0013449B000B44F7
:100E68003B613B691B78072B68D83B695A787B68DC
:100E78009B7A9A4262D20023BB610023FB820EE078
:100E88003B695A78FB8A1946786800F07BF8034674
:100E98001A46BB691344BB61FB8A0133FB827B683A
:100EA8009B89FA8A9A42EBD3BB6907EE903AF8EE2F
:100EB800676A7B689B8907EE903AB8EE677AC6EE58
:100EC800877AC7ED037A7B6893ED067AD7ED037AC4
:100ED80067EE276A7B6893ED077AC6EE877AC7EDD7
:100EE800027A3B691B781A46D7ED037AFCEEE77A5B
:100EF80017EE903A99B27B68343223F812103B69A6
:100F08001B787A6812339B001344BA681A603B69ED
:100F180093ED017AD7ED027A27EE277A3B69D3ED74
:100F2800027A3B691B7877EE277A7A680A339B0046
:100F38001344C3ED007A0123FB7700E000BFBB7FB9
:100F48000133BB777B681B7DBA7F9A4280D3FB7FD6
:100F580018462037BD4680BD80B483B000AF7860A6
:100F68000B46FB70FB78072B05D8FA787B68343280
:100F780033F8123000E0002318460C37BD465DF800
:100F8800047B704780B485B000AF78600B467B80E7
:100F980013467B707B685B68002B09D07B689B7A63
:100FA8007A789A4204D27B689B897A889A4201D3DC
:100FB800002317E07B689B7A1A467B8813FB02F3B1
:100FC8009AB27B789BB21344FB817B681B89FA89B0
:100FD8009A4206D27B685A68FB895B0013441B88D7
:100FE80000E0002318461437BD465DF8047B7047BF
:100FF80080B483B000AF78607B689B8918460C3753
:10100800BD465DF8047B704780B483B000AF78605C
:101018007B689B7A18460C37BD465DF8047B7047A1
:1010280080B483B000AF78607B681B68002B1DD04C
:101038007B685B68002B19D07B681B89002B15D057
:101048007B689B7A002B11D07B689B89002B0DD085
:101058007B681A897B689B7A19467B689B8911FB98
:1010680003F39BB29A4201D3012300E00023184600
:101078000C37BD465DF8047B704780B582B000AF81
:1010880078607868FFF7CCFF034683F00103DBB292
:10109800002B0FD17B681B69002B0BD07B681B7D55
:1010A800002B07D07B68D3ED077AF5EEC07AF1EE16
:1010B80010FA01D8012300E00023002B01D00023FF
:1010C80000E0012318460837BD4680BD80B48BB0C8
:1010D80000AF78607B681B68002B01D100233EE0DD
:1010E800224BFB61214B7B62214BBB6119E07B6A80
:1010F800BB60BB681B687A689A420AD0BB681B68E9
:10110800002B0BD0BB681B681A687B681B689A4267
:1011180004D1BB687A681A60012320E07B6A043333
:101128007B627A6ABB699A42E1D1104B7B610F4BB3
:101138003B620F4B3B610DE03B6AFB60FB681B6841
:10114800002B04D1FB687A681A60012307E03B6A28
:1011580004333B623A6A3B699A42EDD10023184650
:101168002C37BD465DF8047B704700BFF4050020AE
:101178001406002080B487B000AF78600F4B3B6145
:101188000E4B7B610E4BFB600CE07B69BB60BB6860
:101198001B687A689A4202D1BB6800221A607B6990
:1011A80004337B617A69FB689A42EED100BF00BFC5
:1011B8001C37BD465DF8047B704700BFF40500206E
:1011C8001406002080B487B000AF0346FB710F4BB4
:1011D8003B610E4B7B610E4BFB600BE07B69BB6098
:1011E800BB681B78FA799A4201D1BB6807E07B6932
:1011F80014337B617A69FB689A42EFD10023184661
:101208001C37BD465DF8047B704700BF0000002016
:101218003C00002080B483B000AF786039607B6800
:101228001B8A002B01D100230BE07B681B8A1A461E
:101238003B68934203D37B681B8A013B00E03B6811
:1012480000BF18460C37BD465DF8047B70470000A8
:1012580080B483B000AF87ED010AD7ED017AF5EECF
:10126800C07AF1EE10FA02D54FF000030BE0D7ED8B
:10127800017A9FED097AF4EEC77AF1EE10FA01DDF2
:10128800064B00E07B6807EE903AB0EE670A0C3731
:10129800BD465DF8047B70476666663F6666663FD6
:1012A80080B586B000AF78607B6803F48033002B8C
:1012B80004D04FF48031124807F0CAFC114B3B614F
:1012C800104B7B61104BFB6010E07B69BB60BB6817
:1012D8005A687B681340002B05D0BB685B681946C9
:1012E800074807F0B5FC7B6914337B617A69FB68B2
:1012F8009A42EAD100BF00BF1837BD4680BD00BF83
:10130800000E0020000000203C00002080B582B0C4
:1013180000AF78607B68002B03D07968034807F03A
:101328006AFC00BF0837BD4680BD00BF000E002024
:1013380080B588B000AF034687ED000AFB71FB79E2
:101348001846FFF73FFFF861FB69002B01D1002326
:1013580037E09FED1E1ADFED1E0A97ED000A00F038
:101368001DF987ED060AFB691B8A7B617B6907EE1D
:10137800903AB8EE677AD7ED067A67EE277AFCEEF0
:10138800E77A17EE903A3B617A693B699A4204D949
:101398007A693B69D31A5B0800E00023FB60FA68AE
:1013A8003B691344BB60FB79FA680121184600F0D9
:1013B80011F8FB79BA680421184600F00BF80346C7
:1013C80000BF18462037BD4680BD00BF3333733F8A
:1013D80000000000B0B586B000AF0346B9607A607F
:1013E800FB73FB7B1846FFF7EDFE78617B69002BEA
:1013F80001D1002371E07B699B68062B2CD1BB6867
:10140800012B08D1374B1C6879687869FFF702FF10
:101418000346E36160E0BB68022B08D1314B1C68CE
:1014280079687869FFF7F6FE0346636254E0BB68A3
:10143800042B08D12B4B1C6879687869FFF7EAFE02
:101448000346A36248E0274B1C6879687869FFF770
:10145800E1FE0346E3623FE0BB68012B0DD1214B5F
:101468001C687B699D6879687869FFF7D3FE024636
:10147800EB0123449C331A602EE0BB68022B0DD18C
:10148800184B1C687B699D6879687869FFF7C2FE0C
:101498000246EB012344A4331A601DE0BB68042B09
:1014A8000DD1104B1C687B699D6879687869FFF7D6
:1014B800B1FE0246EB012344A8331A600CE0094B45
:1014C8001C687B699D6879687869FFF7A3FE024606
:1014D800EB012344AC331A60012318461837BD4684
:1014E800B0BD00BF000E002080B588B000AF87ED0A
:1014F800010A97ED010AFFF7ABFEF0EE407A254BA3
:10150800C3ED007A244B1B685B69FB61FB69002B08
:1015180002D149F2C973FB611F4B1B6843F698223D
:101528005A62FB699B083B61FB6907EE903AB8EE8B
:10153800677A184BD3ED007A67EE277AB6EE007A11
:1015480067EE877AFDEEE77A17EE903AFB603A6924
:10155800FB68D31ABB613A69FB6813447B61FB697A
:10156800013BBB60BB69002B01DA0023BB617A69D0
:10157800BB689A4201DDBB687B61074B1B68BA698F
:10158800DA61054B1B687A699A620123184620378D
:10159800BD4680BD14060020000E002080B485B032
:1015A80000AF87ED030AC7ED020A87ED011A97ED30
:1015B800037AD7ED027AB4EEE77AF1EE10FA01D5A4
:1015C800BB680BE097ED037AD7ED017AB4EEE77AC2
:1015D800F1EE10FA01DD7B6800E0FB6807EE903A57
:1015E800B0EE670A1437BD465DF8047B704700000B
:1015F80080B584B000AFF860B9601346FB71FB6832
:10160800BA681A60FB68FA791A71F86800F050F93C
:10161800FB68174A5A63FB68154A9A63FB6840F6E9
:101628000B129A87FB6840F2B362DA87FB6803F112
:10163800540001230122022100F090FAFB6803F113
:10164800400001230122022100F088FA0021F868F5
:1016580000F06AFA074808F023FA064808F078FA12
:10166800044B1B6800225A6200BF1037BD4680BD7C
:1016780000E0FB441810002080B586B000AF786009
:101688007B681B68002B00F0FE800023FB75D9E007
:101698007B681A68FB7D5B0013441B88FB81FB8910
:1016A80007EE903AB8EEE77A7B68D3ED0D7AB4EEA0
:1016B800E77AF1EE10FA15DD7B68D3ED0D7A9FED30
:1016C800747A27EE877AFB8907EE903AF8EE677A04
:1016D800DFED706A67EEA67A77EE277A7B68C3ED4E
:1016E8000D7A0DE07B68D3ED0D7A9FED6B7A67EE8E
:1016F800877A9FED6A7A77EE877A7B68C3ED0D7AF1
:10170800FB8907EE903AB8EEE77A7B68D3ED0E7A5C
:10171800B4EEE77AF1EE10FA15D57B68D3ED0E7AC0
:101728009FED5B7A27EE877AFB8907EE903AF8EE11
:10173800677ADFED586A67EEA67A77EE277A7B68D4
:10174800C3ED0E7A0DE07B68D3ED0E7A9FED547AE7
:1017580067EE877A9FED537A77EE877A7B68C3EDD9
:101768000E7A7B68D3ED0D7A9FED4F7A67EE877A14
:101778009FED4E7A77EE877AFCEEE77A17EE903A8D
:101788009AB27B689A877B68D3ED0E7A9FED467A8A
:1017980067EE877A9FED457A77EE877AFCEEE77AEF
:1017A80017EE903A9AB27B68DA877B6803F14000BB
:1017B8007B689B8FFA899A428CBF01230023DBB296
:1017C800194600F0ECF90346002B13D07B6854331C
:1017D800184600F025FA7B685B79002B0AD17B68F4
:1017E80001225A710121786800F09EF90121786878
:1017F80000F0A4F87B6803F154007B68DB8FFA895A
:101808009A4234BF01230023DBB2194600F0C7F91E
:101818000346002B13D07B684033184600F000FACB
:101828007B685B79012B0AD17B6800225A71002101
:10183800786800F079F90021786800F07FF8FB7D7E
:101848000133FB757B681B79FA7D9A42FFF420AF60
:101858004FF4C8533B617B689B6EB3F5C85F13D2E6
:101868007B689B6E5A1C7B689A667B689B6EB3F597
:10187800C85F09D17B68002283F86C207B6800224E
:1018880083F86D2000E000BF1837BD4680BD00BF5B
:10189800CDCC4C3ECDCC4C3F643B7F3FD7A3D4400E
:1018A80052B87E3F333311413333333F002017445E
:1018B80080B48BB000AF78607B6800225A717B6877
:1018C80000229A717B6800229A667B68002283F85E
:1018D8006C207B68002283F86D207B680733FB61EE
:1018E800FB697B62FB691433BB6107E07B6ABB6001
:1018F800BB6800221A707B6A01337B627A6ABB6913
:101908009A42F3D17B681B337B617B693B627B69BD
:101918000A333B6107E03B6AFB60FB6800221A70F0
:101928003B6A01333B623A6A3B699A42F3D100BF92
:1019380000BF2C37BD465DF8047B704780B584B086
:1019480000AF78600B46FB70124B1B685B6AFB604C
:10195800104B1B6800225A62FB68F92B04D9FB68FC
:1019680040F2E242934203D97B6800229A710EE06A
:10197800FB781946786800F00FF8FB6840F2ED2212
:10198800934204D9FB781946786800F005F81037B7
:10199800BD4680BD1810002080B582B000AF7860C9
:1019A8000B46FB707B689B79132B12D87B689B795D
:1019B8001A46154B9B5CFA789A4206D17B689B794C
:1019C8000133DAB27B689A7110E07B6800229A7161
:1019D8000CE07B689B79143B7A681344FA78DA71D7
:1019E8007B689B790133DAB27B689A717B689B7953
:1019F800282B05D17B6800229A71786800F006F8D8
:101A080000BF0837BD4680BDF8BB000880B485B06C
:101A180000AF78607B6800229A667B68012283F8B1
:101A28006C200023FB7315E0FB7B5B0001337A68B5
:101A38001344DA79FB7B01335B0079680B44DB796B
:101A48009A4204D17B68002283F86D2063E0FB7B17
:101A58000133FB73FB7B082BE6D90023BB7318E02B
:101A6800BB7B5B007A681344DA79BB7B5B0001338C
:101A780079680B44DB799A4214BF01230023DAB258
:101A8800BB7B11467A6813440A46DA76BB7B01337E
:101A9800BB73BB7B092BE3D900237B7300233B7308
:101AA8000FE03B7B01337A681344DB7E1A463B7BAD
:101AB80002FA03F3DAB27B7B13437B733B7B01337C
:101AC8003B733B7B072BECD97B68DA7E7B6883F81A
:101AD80028207B687A7B83F829207B7B07EE903A65
:101AE800B8EE677ADFED0E6AC7EE267A9FED0D7ABB
:101AF80067EE877A7B68C3ED0B7A7B68D3ED0C7A47
:101B0800B6EE007A67EE877A7B68C3ED0C7A7B685D
:101B1800012283F86D201437BD465DF8047B7047B9
:101B280000007F430000164380B483B000AF7860A4
:101B38000B46FB70FB78002B03D0074B08229A61F9
:101B480003E0054B4FF400229A6100BF0C37BD46F5
:101B58005DF8047B704700BF0004004880B584B07E
:101B680000AFF860B9607A603B60FB68BA681A60D9
:101B78007B68002B01D07B6800E00123FA68936042
:101B88003B68002B01D03B6800E00123FA68D36072
:101B9800F86800F045F800BF1037BD4680BD80B436
:101BA80085B000AF78600B46FB70FB78002B1BD02C
:101BB8007B685A687B681B689A4211D27B685A68AE
:101BC8007B689B681344FB607B681B68FA689A42D1
:101BD80002D97B681B6800E0FB687A68536017E0ED
:101BE8007B6801221A7413E07B685A687B68DB689B
:101BF8009A4207D97B685A687B68DB68D21A7B6887
:101C08005A6005E07B6800225A607B6800221A74DB
:101C18007B681B7C18461437BD465DF8047B70470B
:101C280080B483B000AF78607B6800225A607B681C
:101C380000221A7400BF0C37BD465DF8047B70475C
:101C480080B483B000AF87ED010AD7ED017AF5EED5
:101C5800C07AF1EE10FA01D80B4B0BE0D7ED017A00
:101C6800B7EE007AF4EEC77AF1EE10FA01DB074B13
:101C780000E07B6807EE903AB0EE670A0C37BD4685
:101C88005DF8047B704700BFCDCCCC3D6666663FEF
:101C980080B584B000AFF86087ED020AC7ED010A8D
:101CA80097ED020AFFF7CCFFF0EE407AFB68C3ED30
:101CB800007AFB687A685A60FB6801221A7200BFD2
:101CC8001037BD4680BD80B485B000AF786087ED21
:101CD800000A7B681B7A83F00103DBB2002B01D07A
:101CE8003B681AE07B6893ED007AD7ED007A27EE1F
:101CF800277A7B68D3ED007AF7EE006A76EEE76A1A
:101D08007B68D3ED017A66EEA77A77EE277AC7ED7E
:101D1800037A7B68FA685A60FB6807EE903AB0EE7F
:101D2800670A1437BD465DF8047B704780B584B0F8
:101D380000AFF8600B4687ED010A7B817B89002B99
:101D480002D101237B8104E07B89322B01D9322324
:101D58007B81FB687A89A3F8D02097ED010AF8689F
:101D680000F004F800BF1037BD4680BD80B485B0D0
:101D780000AF786087ED000A7B68B3F8D03007EED3
:101D8800903AB8EE677AD7ED007A67EE277A7B68E3
:101D9800C3ED327A7B680022A3F8CC207B68B3F8C5
:101DA800D0207B68A3F8CE200023FB8111E07B685C
:101DB800B3F8D030FA899A4201D23B6801E04FF07B
:101DC8000003FA89796892000A441360FB89013399
:101DD800FB81FB89312BEAD900BF00BF1437BD4610
:101DE8005DF8047B7047000080B582B000AF254BDA
:101DF8003B60A8220021386809F0A7FE3B6803224F
:101E08001A613B6803225A613B681F4A9A613B6822
:101E18001E4ADA613B684FF480621A623B6800220E
:101E28009A623B6800225A623B680022DA623B6889
:101E3800154A1A663B68164A5A663B6810229A6623
:101E48003B6800221A673B680022DA663B6800227A
:101E58005A6700237B600CE07B68C3F10F030D4ACF
:101E6800D15C3A687B6813440A461A707B68013370
:101E78007B607B680F2BEFD900BF00BF0837BD46DA
:101E880080BD00BF18060020C4BB0008C0060020A3
:101E9800C00A00200CBC000880B500AFFFF7A4FF03
:101EA80000BF80BD80B483B000AF0346FB71FB79EF
:101EB800002B06D0094B0C229A61094B01221A709B
:101EC80006E0064B4FF440229A61054B00221A7037
:101ED80000BF0C37BD465DF8047B7047000800481A
:101EE800D20A002080B500AF0020FFF7DBFF00F02A
:101EF80003F800BF80BD000080B400AF054B00228E
:101F08001A71054B00221A8000BFBD465DF8047B9C
:101F1800704700BF3C000020D00A002080B582B086
:101F280000AF0346FB80FB88002B01D0FB8800E054
:101F38000123044A1380FFF7DFFF00BF0837BD46BF
:101F480080BD00BF4800002080B400AF024B184697
:101F5800BD465DF8047B70474C000020B0B596B0D4
:101F680000AF78607B6808220021184609F0EDFD73
:101F78007B68083310220021184609F0E6FD7B68CB
:101F8800183318220021184609F0DFFD7B6830332A
:101F980008220021184609F0D8FD786800F0FCF9FD
:101FA8007B6803F5AC634FF000021A607B6803F2AC
:101FB80064534FF000021A607B6803F26C534FF0D1
:101FC80000021A607B6803F5AE634FF000021A60E6
:101FD8007B6803F274534FF000021A607B6803F5C4
:101FE8000473DFED540AB5EE000A1846FFF750FEF9
:101FF8007B6803F50773DFED4F0AB5EE000A184654
:10200800FFF746FE7B6803F50A739FED4A0A19211C
:102018001846FFF78BFE7B6803F53F73DFED450A33
:10202800B5EE000A1846FFF733FE7B6803F54273E6
:10203800DFED400AB5EE000A1846FFF729FE78687A
:1020480000F09AF83C4B07F130041D460FCD0FC441
:102058000FCD0FC495E8030084E80300374B3B63BA
:102068007B687B6304233B87012387F83A3004238A
:10207800BB87334B3B64012387F84430314BBB6447
:10208800314BFB647B68383307F130021146184640
:10209800FEF7EAFD284B07F108041D460FCD0FC4D3
:1020A8000FCD0FC495E8030084E80300274BBB60FD
:1020B8007B680833FB6004233B820223BB74022342
:1020C800BB82234BBB6102233B771E4B3B621E4BFB
:1020D8007B627B68B03307F1080211461846FEF7A9
:1020E800C3FD00BF7B6838331846FEF723FE03465E
:1020F80083F00103DBB2002BF4D100BF7B68B0335F
:102108001846FEF717FE034683F00103DBB2002BE7
:10211800F4D17B6803F5D0707B683033042219460C
:10212800FFF766FA786800F015F800BF5837BD4623
:10213800B0BD00BF00000000D0BB0008240B002089
:1021480020BC00088195534000F07F45900B00208B
:102158002CBC000880B582B000AF78607B6838334B
:102168001846FEF701FE7B68B0331846FEF7FCFD03
:1021780000BF0837BD4680BD80B582B000AF78602B
:102188007B68303308220021184609F0DEFC7B68A2
:10219800002283F85C257B6803F5AB634FF00002EF
:1021A8001A607B6803F5D0707B68303304221946C7
:1021B800FFF71EFA00BF0837BD4680BD80B582B064
:1021C80000AF786039603B680E4A934214D17B684F
:1021D800B0331846FEF728FE034683F00103DBB24E
:1021E800002B01D0002308E07B68B03319467868DB
:1021F80000F036F8012300E0002318460837BD46F2
:1022080080BD00BF900B002080B584B000AF78601F
:1022180039600023FB8119E03868FEF7F5FE0346B4
:10222800013BDAB2FB8919463868FEF7ABFE034674
:10223800BB813868FEF7DCFE03461A46BB8919469F
:10224800786800F088F9FB890133FB81FB89032B4F
:10225800E2D900BF00BF1037BD4680BD00000000B6
:1022680080B586B000AF786039607B68383319462E
:102278007868FFF7C9FF01213868FEF76DFE03464D
:10228800FB8202213868FEF767FE0346BB82BA8AE2
:10229800FB8A1946786800F0ABF87B6803F5AA63F7
:1022A800D3ED007A9FED381ADFED380AB0EE670AF1
:1022B80000F037F987ED040ABB8A07EE903AF8EE8A
:1022C800677A9FED337AC7EE876A16EE900AFEF7B3
:1022D8002DFA29A3D3E90023FDF79AFF02460B46FE
:1022E800104619464FF000022A4BFDF791FF0246AF
:1022F8000B461046194622A3D3E90023FEF7B8F887
:1023080002460B4610461946FEF768FA0346FB607C
:102318007B6803F5047397ED040A1846FFF7D3FCAE
:10232800F0EE407A7B6803F5AC63C3ED007A7B6816
:1023380003F5077397ED030A1846FFF7C4FCF0EEA0
:10234800407A7B6803F26453C3ED007A7B6803F537
:10235800AC6393ED007A7B6803F26453D3ED007AA3
:1023680067EE277A7B6803F5AD63C3ED007A00BF9B
:102378001837BD4680BD00BF6666666666660A4059
:102388009A9999999999C93F306D133C00000000BA
:1023980000F07F450000D03F80B582B000AF786084
:1023A8007B6803F2B44390220021184609F0CDFB64
:1023B8007B6803F2445308220021184609F0C5FB44
:1023C8007B68002283F84C257B68002283F84D2522
:1023D8007B6803F5AA634FF000021A607B6803F27A
:1023E80054534FF000021A6000BF0837BD4680BD45
:1023F80080B485B000AF78600B467B8013463B8085
:102408007B68D3F844257B6893F84C35796803F5E5
:1024180016735B000B449B88D21A7B68C3F844256B
:102428007B68D3F848257B6893F84C35796803F5C1
:102438001F735B000B449B88D21A7B68C3F848253E
:102448007B6893F84C357A6803F516735B00134480
:102458007A889A807B6893F84C357A6803F51F73FD
:102468005B0013443A889A807B68D3F844257B88BC
:102478001A447B68C3F844257B68D3F848253B8811
:102488001A447B68C3F848257B6893F84D35232B9D
:1024980007D87B6893F84D350133DAB27B6883F847
:1024A8004D257B6893F84C350133DAB27B6883F8A5
:1024B8004C257B6893F84C35232B03D97B68002285
:1024C80083F84C257B6893F84D3507EE903AF8EE83
:1024D800677AC7ED037A7B68D3F8443507EE903AFC
:1024E800F8EE676A97ED037AC6EE877A7B6803F59C
:1024F800AA63C3ED007A7B68D3F8483507EE903AB3
:10250800F8EE676A97ED037AC6EE877A7B6803F27E
:102518005453C3ED007A00BF1437BD465DF8047B01
:10252800704780B485B000AF87ED030AC7ED020A93
:1025380087ED011A97ED037AD7ED027A37EE677ABD
:10254800D7ED017A67EE277AB0EE670A1437BD46F1
:102558005DF8047B704780B582B000AF78600B46A9
:102568007B8013463B803B88002B22D07B6893F806
:102578005C351A467B681832798823F812107B6814
:1025880093F85C350133DAB27B6883F85C257B68A5
:1025980093F85C351A463B889A420BDB7B6800222D
:1025A80083F85C257B6803F5D0731846FFF764F859
:1025B80000E000BF0837BD4680BD000080B400AF12
:1025C800024B1846BD465DF8047B7047D80A0020C8
:1025D80080B582B000AF7860FFF7B6FC03461846B6
:1025E800FFF7BCFCFFF77EFC7B68DFED102AB7EE37
:1025F800002ADFED0F1A9FED0D1ADFED0E0A9FED91
:102608000E0A01211846FEF7CFFAFFF745FC7B6852
:10261800012283F84720786800F04EF9786800F0C6
:1026280005F900BF0837BD4680BD00BF00000000A7
:10263800CDCC4C3ECDCCCC3D0AD7233C80B582B026
:1026480000AF7860064BD3ED007AB0EE670AFEF76C
:102658004BFF786800F016F900BF0837BD4680BD0B
:10266800D40A002080B582B000AF786039603B683A
:10267800084A934202D17868FFF7E0FF3B681B687D
:10268800B3F1804F01D103F03BFA00BF0837BD46D4
:1026980080BD00BF800F002080B582B000AF786099
:1026A80039603B68094A93420BD1386806F0E0FF6D
:1026B8007B68002283F846207B68012283F8442047
:1026C80000E000BF0837BD4680BD00BFFC0E0020FB
:1026D80080B582B000AF78600B467B804FF4004134
:1026E800474804F06BFB0346012B0CBF0123002372
:1026F800DBB2002B16D07B6893F84630002B0CD049
:10270800786800F0A9F8FFF71FFC03461846FFF7A2
:1027180021FD7B68002283F846207B68032283F82A
:10272800442063E04FF48061354804F047FB0346DA
:10273800012B0CBF01230023DBB2002B13D0314B3C
:102748001B681846FDF7F2FF2BA3D3E90023FDF71A
:102758008FFE02460B4610461946FEF73FF8034621
:10276800284A136042E04FF40061254804F026FB34
:102778000346012B0CBF01230023DBB2002B22D020
:10278800204B1B681846FDF7D1FF1BA3D3E9002394
:10279800FDF76CFE02460B4610461946FEF71EF87A
:1027A8000346184A1360174BD3ED007AF5EEC07A4A
:1027B800F1EE10FA02D54FF0000301E0114B1B684F
:1027C800104A136012E04FF480510D4804F0F6FAF5
:1027D8000346012B0CBF01230023DBB2002B05D0DD
:1027E800094B01221A700120FFF798FB0837BD46F4
:1027F80080BD00BFAFF300809A9999999999B93F24
:1028080000080048D40A0020C805002080B582B01E
:1028180000AF78603960FFF797FB034639681846C0
:10282800FFF7CCFC00BF0837BD4680BD80B582B03D
:1028380000AF78607B6893F84530002B06D10548D7
:1028480007F0F6F97B68012283F8452000BF0837B6
:10285800BD4680BD800F002080B582B000AF786093
:10286800786800F029F87868FFF7E0FF7B680022B5
:10287800A3F848207B68032283F8442000BF083768
:10288800BD4680BD80B582B000AF7860094BD3EDFE
:10289800007AB0EE670A0120FEF74AFD054BD3ED3A
:1028A800007AB0EE670A0220FEF742FD00BF083743
:1028B800BD4680BDC405002080B582B000AF7860F9
:1028C8004FF4C200FEF7ECFC9FED070AFEF70CFE82
:1028D8004FF47060FEF71AFD7868FFF7D3FF00BF6A
:1028E8000837BD4680BD00BF0000000080B500AFBE
:1028F800FFF764FE03461846FFF76AFE00BF80BD77
:1029080080B582B000AF7860FFF758FE034679685B
:102918001846FFF77BFF00BF0837BD4680BD80B56E
:1029280082B000AF7860FFF749FE03467968184621
:10293800FFF798FE00BF0837BD4680BD80B582B05E
:1029480000AF7860FFF73AFE034679681846FFF74C
:10295800A3FE00BF0837BD4680BD80B582B000AF7A
:102968000346FB80FFF72AFE0246FB8819461046FD
:10297800FFF7AEFE00BF0837BD4680BD80B483B008
:1029880000AF78600B467B8000BF0C37BD465DF812
:10299800047B704780B500AF03F060F800F058F88A
:1029A80000F0A8F800F0EEFC00F042F900F030FD6D
:1029B80001F030F900F0A4F900F02EFA01F0DCF88B
:1029C80001F070F801F092F901F05AF901F04CFAAF
:1029D80000F028FC03F0D4F803F0E2F81B4B1B6965
:1029E8001A4A43F400631361184B9B68174A43F073
:1029F80001039360154B9B68144A43F008039360E6
:102A0800124B9B68114A43F0100393600F4B9B686D
:102A18000E4A43F0200393600C4B1B690B4A43F4A6
:102A280000531361094B9B68084A43F000439360C5
:102A3800064B1B69054A43F0806313614FF4FA7033
:102A480003F07CF8FFF752FF00BFFDE7002004E029
:102A580080B594B000AF07F118033822002118465A
:102A680009F073F83B1D00221A605A609A60DA6018
:102A78001A61002004F01CFD0923BB614FF4803368
:102A8800FB610123FB6202237B630323BB630223F5
:102A9800FB6355233B6402237B640223BB6402234C
:102AA800FB6407F11803184603F08AF80346002B65
:102AB80001D000F018F80F237B600323BB600023CC
:102AC800FB6000233B6100237B613B1D042118460A
:102AD80003F088FB0346002B01D000F004F800BF88
:102AE8005037BD4680BD80B400AF72B600BF00BF8E
:102AF800FDE7000080B58AB000AF07F1140300229B
:102B08001A605A609A60DA601A61464BDB6C454A73
:102B180043F02003D364434BDB6C03F020033B6199
:102B28003B69404BDB6C3F4A43F00403D3643D4BA5
:102B3800DB6C03F00403FB60FB683A4BDB6C394A3F
:102B480043F00103D364374BDB6C03F00103BB6034
:102B5800BB68344BDB6C334A43F00203D364314B1C
:102B6800DB6C03F002037B607B6800220C212E489B
:102B780004F03CF9002298212C4804F037F90C2382
:102B88007B610123BB610223FB6102233B6207F1E6
:102B980014031946244803F08FFF4FF400437B6168
:102BA8004FF48813BB610223FB6107F11403194634
:102BB8004FF0904003F080FF4FF4E0537B614FF4F7
:102BC8008813BB610223FB6107F1140319461648F9
:102BD80003F072FF18237B610123BB610023FB61B3
:102BE80002233B6207F114031946104803F064FFFF
:102BF80080237B611123BB610023FB6102233B62BD
:102C080007F114031946094803F056FF0022002172
:102C1800282004F0DCFD282004F0F3FD00BF28374D
:102C2800BD4680BD0010024000080048000400486E
:102C380080B588B000AF3B4620220021184608F036
:102C480084FF2C4B2C4A1A602A4B4FF440325A60AE
:102C5800284B00229A60274B0022DA60254B00227D
:102C68001A61244B00225A61224B08229A61214B97
:102C780000221A771F4B00225A771E4B01221A6234
:102C88001C4B002283F824201A4B4FF4D462DA62DA
:102C9800184B4FF480621A63164B012283F83820D0
:102CA800144B4FF48052DA63124B002283F8402011
:102CB800104801F0A9FC0346002B01D0FFF713FFD1
:102CC8000E4B3B6006237B600223BB607F23FB60C7
:102CD80004233B6100237B613B461946054801F00C
:102CE80037FF0346002B01D0FFF7FDFE00BF20375A
:102CF800BD4680BD240B0020000100500008302E86
:102D080080B58CB000AF07F1240300221A605A6026
:102D18009A603B1D20220021184608F016FF3A4B06
:102D28003A4A1A60384B4FF440325A60364B002208
:102D38009A60354B0022DA60334B00221A61324B1D
:102D480001225A61304B08229A612F4B00221A77D0
:102D58002D4B00225A772C4B02221A622A4B002252
:102D680083F82420284B4FF4D462DA62264B4FF4C0
:102D780080621A63244B012283F83820224B4FF4D7
:102D88008052DA63204B002283F840201E4801F06D
:102D98003BFC0346002B01D0FFF7A5FE00237B6216
:102DA80007F124031946184802F050FD0346002B8A
:102DB80001D0FFF798FE164B7B600623BB60032308
:102DC800FB607F233B6104237B610023BB613B1DC8
:102DD80019460D4801F0BCFE0346002B01D0FFF751
:102DE80082FE0C4B7B600C23BB603B1D19460648DA
:102DF80001F0AEFE0346002B01D0FFF774FE00BFC2
:102E08003037BD4680BD00BF900B00200004005045
:102E18002000F0140010603280B588B000AF3B4647
:102E280020220021184608F090FE3A4B3A4A1A60D0
:102E3800384B4FF440325A60364B00229A60354B7B
:102E48000022DA60334B00221A61324B01225A61A8
:102E5800304B08229A612F4B00221A772D4B002203
:102E68005A772C4B03221A622A4B002283F824201B
:102E7800284B4FF4D862DA62264B4FF480621A630B
:102E8800244B012283F83820224B4FF48052DA6316
:102E9800204B002283F840201E4801F0B5FB034672
:102EA800002B01D0FFF71FFE1C4B3B6006237B6005
:102EB8000323BB607F23FB6004233B6100237B610A
:102EC8003B461946134801F043FE0346002B01D048
:102ED800FFF709FE124B3B600C237B603B4619460B
:102EE8000C4801F035FE0346002B01D0FFF7FBFD2F
:102EF8000C4B3B6012237B603B461946054801F0AA
:102F080027FE0346002B01D0FFF7EDFD00BF203759
:102F1800BD4680BDFC0B0020000500500800900C49
:102F28001000C0102000F01480B5A2B000AF786087
:102F380007F1740300221A605A609A60DA601A6115
:102F480007F1200354220021184608F0FEFD7B6893
:102F58001B686A4A934260D14FF400433B624FF0CA
:102F680000537B6607F12003184603F057FB03461E
:102F7800002B01D0FFF7B7FD614BDB6C604A43F4CF
:102F88000053D3645E4BDB6C03F40053FB61FB69B5
:102F98005B4BDB6C5A4A43F00403D364584BDB6C3D
:102FA80003F00403BB61BB6920237B670323BB6772
:102FB8000023FB6707F174031946524803F07CFDB0
:102FC800514B524A1A60504B24225A604E4B0022F1
:102FD8009A604D4B0022DA604B4B80221A614A4BB3
:102FE8004FF480725A61484B4FF480629A61464BA5
:102FF8002022DA61444B4FF480521A62424803F0AF
:1030080025FF0346002B01D0FFF76DFD7B683E4A84
:103018005A653D4A7B689362F3E07B681B683C4ACB
:1030280093427FD14FF480333B624FF00043BB663D
:1030380007F12003184603F0F1FA0346002B01D0EC
:10304800FFF751FD334B1B680133324A1360314B94
:103058001B68012B0BD12A4BDB6C294A43F48043B4
:10306800D364274BDB6C03F480437B617B69244B7F
:10307800DB6C234A43F00203D364214BDB6C03F07F
:1030880002033B613B6942F201037B670323BB6791
:103098000023FB6707F1740319461F4803F00CFD72
:1030A8001E4B1F4A1A601D4B25225A601B4B0022DB
:1030B8009A601A4B0022DA60184B80221A61174B6B
:1030C8004FF480725A61154B4FF480629A61134B2A
:1030D8002022DA61114B4FF440521A620F4803F074
:1030E800B5FE0346002B01D0FFF7FDFC7B680B4AB9
:1030F8005A650A4A7B68936283E000BF000100506A
:103108000010024000080048680C00201C0402401F
:1031180000040050880D002000040048C80C00205E
:10312800080402407B681B68384A934269D14FF40F
:1031380080333B624FF00043BB6607F1200318461B
:1031480003F06CFA0346002B01D0FFF7CCFC304BA0
:103158001B6801332E4A13602D4B1B68012B0BD1C2
:103168002C4BDB6C2B4A43F48043D364294BDB6C38
:1031780003F48043FB60FB68264BDB6C254A43F075
:103188000203D364234BDB6C03F00203BB60BB6810
:103198004FF450437B670323BB670023FB6707F1AA
:1031A800740319461C4803F087FC1C4B1C4A1A6020
:1031B8001A4B26225A60194B00229A60174B00229C
:1031C800DA60164B80221A61144B4FF480725A61F0
:1031D800124B4FF480629A61104B2022DA610F4B38
:1031E8004FF480521A620D4803F030FE0346002B5C
:1031F80001D0FFF778FC7B68084A5A65074A7B6864
:10320800936200BF8837BD4680BD00BF00050050EF
:10321800880D00200010024000040048280D0020FE
:103228004400024080B58CB000AF3B4630220021FC
:10323800184608F08AFC164B164A1A60144804F01F
:10324800FAFA0346002B01D0FFF74DFC02233B603E
:1032580000233B7100237B710023BB600023FB60CC
:1032680000233B6100237B610123BB610023FB61D9
:103278003B4600221946064804F060FB0346002B33
:1032880001D0FFF730FC00BF3037BD4680BD00BF1E
:103298008C0D00200008005080B58AB000AF78601F
:1032A80007F1140300221A605A609A60DA601A6102
:1032B8007B681B682F4A934257D12F4BDB6C2E4AF1
:1032C80043F48033D3642C4BDB6C03F480333B61D1
:1032D8003B69294BDB6C284A43F00103D364264B36
:1032E800DB6C03F00103FB60FB6810237B610323A5
:1032F800BB610023FB6107F1140319464FF09040AE
:1033080003F0DAFB1D4B1E4A1A601C4B06225A605A
:103318001A4B10229A60194B0022DA60174B802250
:103328001A61164B4FF400725A61144B4FF48062C5
:103338009A61124B0022DA61104B00221A620F4880
:1033480003F084FD0346002B01D0FFF7CCFB7B681C
:103358000A4A9A60094A7B68936200220021362053
:1033680004F035FA362004F04CFA00BF2837BD4681
:1033780080BD00BF0008005000100240A00D0020D2
:103388001C00024080B584B000AF204B9B6C1F4AE4
:1033980043F0040393641D4B9B6C03F00403FB6030
:1033A800FB681A4B9B6C194A43F002039364174B52
:1033B8009B6C03F00203BB60BB68144B9B6C134A05
:1033C80043F001039364114B9B6C03F001037B6092
:1033D8007B68002200210B2004F0F9F90B2004F08F
:1033E80010FA002200210E2004F0F1F90E2004F05A
:1033F80008FA00220021382004F0E9F9382004F006
:1034080000FA00BF1037BD4680BD00BF0010024063
:1034180080B5BAB000AF07F1E00300221A605A6025
:1034280007F1D00300221A605A609A60DA6007F147
:10343800700360220021184608F087FB07F1640337
:1034480000221A605A609A6007F1480300221A6045
:103458005A609A60DA601A615A619A6107F1240326
:1034680024220021184608F070FB3B1D2022002171
:10347800184608F06AFBC64BC64A1A60C44B0022BD
:103488005A60C34B00229A60C14804F01BFC0346F3
:10349800002B01D0FFF727FB0C21BD4804F0E2FC0C
:1034A8000346002B01D0FFF71EFB0A21B84804F0A1
:1034B80031FD0346002B01D0FFF715FB0023C7F8A9
:1034C800E0300223C7F8E43007F1E0031A4601218F
:1034D800AF4804F07BFD0346002B01D0FFF703FB48
:1034E80000220121AA4804F05DFF0346002B01D009
:1034F800FFF7F9FA4FF40033C7F8E0304FF4003320
:10350800C7F8E43007F1E0031A460421A04804F0A4
:103518005DFD0346002B01D0FFF7E5FA00220421E8
:103528009B4804F03FFF0346002B01D0FFF7DBFA6E
:1035380049F2C973C7F8D0300323C7F8D430012340
:10354800C7F8D8300823C7F8DC3007F1D0031A468B
:1035580006218F4804F012FD0346002B01D0FFF727
:10356800C2FA10233B6700237B670023BB67002355
:10357800FB670123C7F880300023C7F88430002395
:10358800C7F888300023C7F88C300023C7F890307C
:103598000023C7F894304FF00063C7F89830002331
:1035A800C7F89C300023C7F8A0304FF00053C7F885
:1035B800A4300023C7F8CC3007F170031A4606215F
:1035C800734805F039F80346002B01D0FFF78BFA52
:1035D8004FF6EF737B6607F16403012206216C48FE
:1035E80005F06AF90346002B01D0FFF77CFA43F691
:1035F80098237B6607F1640302220621644805F0DC
:103608005BF90346002B01D0FFF76DFA4FF6EF7315
:103618007B6607F16403042206215D4805F04CF936
:103628000346002B01D0FFF75EFA46F64023C7F8A1
:10363800D0300023C7F8D43007F1D0031A4601214F
:10364800534804F09BFC0346002B01D0FFF74BFACC
:103658000023BB6400233B6500237B6500233B6696
:1036680007F148031A460121494805F072F8034654
:10367800002B01D0FFF737FA00233B6700237B6755
:103688000023C7F8A4300023C7F8A8300023C7F8E0
:10369800AC300023C7F8B0304FF48073C7F8B430AB
:1036A8000023C7F8B8304FF48013C7F8C03002239E
:1036B800C7F8C4304FF48023C7F8C83007F1700347
:1036C8001A460121324804F0B7FF0346002B01D007
:1036D800FFF709FA4FF00053C7F8A4300023C7F8E2
:1036E800B8304FF08073C7F8C0302023C7F8C43013
:1036F8000023C7F8C83007F170031A46042124488C
:1037080004F09AFF0346002B01D0FFF7ECF90023E1
:10371800C7F8B8308023C7F8C43007F170031A46D9
:1037280005211B4804F088FF0346002B01D0FFF752
:10373800DAF900237B6607F16403012201211448AA
:1037480005F0BAF80346002B01D0FFF7CCF944F690
:1037580020637B6607F16403042201210C4805F00D
:10376800ABF80346002B01D0FFF7BDF90023BB6679
:103778000023FB6607F1640308220121044805F0D1
:103788009BF80346002B07D0FFF7ADF904E000BF14
:10379800000E00200068014000237B628C23BB627E
:1037A8000023FB6200233B6300237B638C23BB6302
:1037B8000023FB6300233B6400237B6407F124039D
:1037C8001A460121734804F0F7FF0346002B01D085
:1037D800FFF789F907F124031A4604216D4804F01C
:1037E800EBFF0346002B01D0FFF77DF907F1240317
:1037F8001A460521674804F0DFFF0346002B01D075
:10380800FFF771F900237B600823BB602023FB606E
:1038180000233B6100237B610023BB610023FB6124
:1038280000233B623B1D042201215A4805F0B2F9EE
:103838000346002B01D0FFF756F93B1D4FF4807269
:103848000421544805F0A6F90346002B01D0FFF7E0
:103858004AF93B1D4FF4806205214E4805F09AF95C
:103868000346002B01D0FFF73EF90023BB6000237D
:10387800FB603B1D08220121464805F08BF90346F1
:10388800002B01D0FFF72FF93B1D4FF400720421E4
:10389800404805F07FF90346002B01D0FFF723F9D4
:1038A8003B1D4FF4006205213A4805F073F90346C1
:1038B800002B01D0FFF717F949F2C973C7F8D030C8
:1038C80007F1D0031A460421324804F057FB034697
:1038D800002B01D0FFF707F907F148031A46042126
:1038E8002C4804F036FF0346002B01D0FFF7FBF805
:1038F80006237B6607F1640301220421254804F0AE
:10390800DBFF0346002B01D0FFF7EDF807F1640356
:10391800042204211F4804F0CFFF0346002B01D0E6
:10392800FFF7E1F807F1D0031A460521194804F01A
:1039380025FB0346002B01D0FFF7D5F807F1480314
:103948001A460521134804F004FF0346002B01D052
:10395800FFF7C9F807F16403012205210D4804F0B7
:10396800ABFF0346002B01D0FFF7BDF807F1640356
:1039780004220521074804F09FFF0346002B01D0CD
:10398800FFF7B1F8034800F027F800BFE837BD4655
:1039980080BD00BF000E002080B485B000AF786005
:1039A8007B681B680A4A93420BD10A4B1B6E094A73
:1039B80043F080631366074B1B6E03F08063FB6064
:1039C800FB6800BF1437BD465DF8047B704700BF35
:1039D800006801400010024080B58AB000AF7860EE
:1039E80007F1140300221A605A609A60DA601A61BB
:1039F8007B681B68284A93424AD1284BDB6C274ACC
:103A080043F00403D364254BDB6C03F004033B61F0
:103A18003B69224BDB6C214A43F00103D3641F4B03
:103A2800DB6C03F00103FB60FB68C0237B610223AE
:103A3800BB610023FB6103233B620D237B6207F11B
:103A480014031946164803F037F84FF440737B61A6
:103A58000223BB610023FB6103233B6203237B62D8
:103A680007F1140319460E4803F026F84FF4406393
:103A78007B610223BB610023FB6103233B620D23AF
:103A88007B6207F1140319464FF0904003F014F8D5
:103A980000BF2837BD4680BD0068014000100240C5
:103AA8000008004880B500AF134B144A1A60124B47
:103AB80000225A60104B4FF420629A600E4B4FF66A
:103AC800FF725A610C4B00221A620B4B00225A6299
:103AD800094B00229A62084B0022DA62064B002248
:103AE8001A63054805F028FD0346002B01D0FEF7B0
:103AF800FAFF00BF80BD00BFFC0E0020007C004024
:103B080080B598B000AF786007F10C03542200210B
:103B1800184608F01AF87B681B68154A934223D1A7
:103B28004FF40073FB604FF48023BB6307F10C0371
:103B3800184602F073FD0346002B01D0FEF7D3FFB1
:103B48000C4B9B6D0B4A43F000439365094B9B6DEF
:103B580003F00043BB60BB6800220121312003F061
:103B680036FE312003F04DFE00BF6037BD4680BDF4
:103B7800007C00400010024080B588B000AF07F11B
:103B8800100300221A605A609A60DA603B1D002216
:103B98001A605A609A601D4B1D4A1A601B4BAA2274
:103BA8005A601A4B00229A60184B44F62062DA6079
:103BB800164B00221A61154B00229A61134805F032
:103BC8006FFF0346002B01D0FEF78DFF4FF48053A3
:103BD8003B6107F1100319460C4806F0F1F903465A
:103BE800002B01D0FEF77FFF00237B600023FB60E2
:103BF8003B1D1946054806F071FC0346002B01D011
:103C0800FEF771FF00BF2037BD4680BD340F00208E
:103C1800000C004080B584B000AF3B1D00221A6044
:103C28005A609A60144B154A1A60134B10225A6056
:103C3800114B00229A60104B40F6C312DA600E4B0B
:103C480000229A610C4805F02BFF0346002B01D097
:103C5800FEF749FF00237B600023FB603B1D1946EC
:103C6800054806F03BFC0346002B01D0FEF73BFF5E
:103C780000BF1037BD4680BD800F002000100040F7
:103C880080B584B000AF3B1D00221A605A609A606C
:103C9800144B154A1A60134BAA225A60114B002282
:103CA8009A60104B41F28832DA600E4B00229A611A
:103CB8000C4805F0F5FE0346002B01D0FEF713FF74
:103CC80000237B600023FB603B1D1946054806F076
:103CD80005FC0346002B01D0FEF705FF00BF103797
:103CE800BD4680BDCC0F00200014004080B588B0D0
:103CF80000AF07F1100300221A605A609A60DA6078
:103D08003B1D00221A605A609A60204B204A1A60B4
:103D18001E4BA9225A601D4B00229A601B4B41F290
:103D28008732DA60194B00221A61184B00225A6157
:103D3800164B00229A61154805F0B2FE0346002B87
:103D480001D0FEF7D0FE4FF480533B6107F110031A
:103D580019460E4806F034F90346002B01D0FEF749
:103D6800C2FE00237B600023BB600023FB603B1D79
:103D78001946064806F0B2FB0346002B01D0FEF7B1
:103D8800B2FE00BF2037BD4680BD00BF181000201E
:103D98000034014080B586B000AF78607B681B684E
:103DA8002C4A934214D12C4B9B6D2B4A43F00803A9
:103DB8009365294B9B6D03F008037B617B690022A7
:103DC8000021322003F003FD322003F01AFD3CE00D
:103DD8007B681B68214A934214D11F4B9B6D1E4A76
:103DE80043F0100393651C4B9B6D03F010033B617C
:103DF8003B6900220021362003F0E9FC362003F05D
:103E080000FD22E07B681B68154A93420CD1124BD7
:103E18009B6D114A43F0200393650F4B9B6D03F094
:103E28002003FB60FB6810E07B681B680D4A934227
:103E38000BD1094B1B6E084A43F400531366064B1B
:103E48001B6E03F40053BB60BB6800BF1837BD4648
:103E580080BD00BF000C0040001002400010004070
:103E6800001400400034014080B500AF224B234AC3
:103E78001A60214B4FF416525A601F4B00229A6069
:103E88001D4B0022DA601C4B00221A611A4B0C22CF
:103E98005A61194B00229A61174B0022DA61164BBE
:103EA80000221A62144B00225A62134B00229A62B3
:103EB800114806F0EFFB0346002B01D0FEF713FE76
:103EC80000210D4807F03BFD0346002B01D0FEF70B
:103ED8000AFE0021084807F070FD0346002B01D0B8
:103EE800FEF701FE044807F0F1FC0346002B01D061
:103EF800FEF7F9FD00BF80BD6410002000440040BB
:103F080080B59EB000AF786007F1640300221A60A4
:103F18005A609A60DA601A6107F11003542200218E
:103F2800184607F012FE7B681B68384A934268D12E
:103F380002233B610023BB6107F11003184602F01E
:103F48006DFB0346002B01D0FEF7CDFD304B9B6D7A
:103F58002F4A43F4003393652D4B9B6D03F40033D4
:103F6800FB60FB682A4BDB6C294A43F00103D364EE
:103F7800274BDB6C03F00103BB60BB680C237B663B
:103F88000223BB660023FB6600233B6707237B678E
:103F980007F1640319464FF0904002F08DFD1D4B68
:103FA8001D4A1A601B4B1A225A601A4B00229A604B
:103FB800184B0022DA60174B80221A61154B002239
:103FC8005A61144B00229A61124B0022DA61114B9C
:103FD80000221A620F4802F039FF0346002B01D075
:103FE800FEF781FD7B680B4AC3F88020094A7B688D
:103FF800936200220021262003F0E9FB262003F02B
:1040080000FC00BF7837BD4680BD00BF00440040BB
:1040180000100240F81000200800024080B400AFF1
:1040280000BFFDE780B400AF00BFFDE780B400AF7C
:1040380000BFFDE780B400AF00BFFDE780B400AF6C
:1040480000BFFDE780B400AF00BFBD465DF8047B4C
:10405800704780B400AF00BFBD465DF8047B704771
:1040680080B400AF00BFBD465DF8047B704780B5E3
:1040780000AF01F045FD00BF80BD000080B500AF76
:10408800024803F0C6F800BF80BD00BFF81000204A
:1040980080B500AF024803F0BCF800BF80BD00BF88
:1040A800280D002080B500AF024806F043FB00BF92
:1040B80080BD00BF6410002080B500AF4FF4806061
:1040C80002F0ACFE4FF4006002F0A8FE4FF48050FE
:1040D80002F0A4FE4FF4004002F0A0FE00BF80BD35
:1040E80080B500AF024805F0F7FA00BF80BD00BFF9
:1040F800FC0E002080B500AF024805F011FE00BF9D
:1041080080BD00BF340F002080B500AF034805F024
:1041180007FE034803F0B1FB00BF80BD800F0020FD
:104128008C0D002080B500AF024803F072F800BF84
:1041380080BD00BFC80C002080B582B000AF0F4B17
:104148001B6E0E4A43F0010313660C4B1B6E03F003
:1041580001037B607B68094B9B6D084A43F08053E1
:104168009365064B9B6D03F080533B603B6803F0FF
:1041780043FA00BF0837BD4680BD00BF00100240AB
:1041880080B483B000AF786039607B689B6823F4A3
:104198007C123B681A437B689A6000BF0C37BD46A7
:1041A8005DF8047B704780B483B000AF78603960F5
:1041B8007B689B6823F0E0723B681A437B689A60CF
:1041C80000BF0C37BD465DF8047B704780B483B0F0
:1041D80000AF78607B689B6803F0E07318460C3783
:1041E800BD465DF8047B704780B487B000AFF860C7
:1041F800B9607A603B60FB6860331A46BB689B0015
:1042080013447B617B691A68084B13407A6802F093
:10421800F8413A680A43134343F000427B691A6045
:1042280000BF1C37BD465DF8047B704700F0FF03F4
:1042380080B485B000AF786039607B6860331A4617
:104248003B689B001344FB60FB681B6803F0F84362
:1042580018461437BD465DF8047B704780B487B0B4
:1042680000AFF860B9607A60FB6860331A46BB68D3
:104278009B0013447B617B691B6823F000427B68C9
:104288001A437B691A6000BF1C37BD465DF8047B82
:10429800704780B487B000AFF860B9607A60FB6897
:1042A80060331A46BB689B0013447B617B691B68BB
:1042B80023F080727B681A437B691A6000BF1C3741
:1042C800BD465DF8047B704780B487B000AFF860E6
:1042D800B9607A60FB6860331A46BB689B00134478
:1042E8007B617B691B6823F000727B681A437B69DA
:1042F8001A6000BF1C37BD465DF8047B704780B468
:1043080083B000AF786039607B685B6923F0004256
:104318003B681A437B685A6100BF0C37BD465DF89D
:10432800047B704780B483B000AF78607B68DB683B
:1043380003F44063002B01D1012300E00023184659
:104348000C37BD465DF8047B704780B487B000AF7A
:10435800F860B9607A60FB6830331A46BB681B0A9C
:104368009B0003F00C0313447B617B691A68BB68EC
:1043780003F01F031F2101FA03F3DB431A407B6894
:104388009B0E03F01F01BB6803F01F0301FA03F340
:104398001A437B691A6000BF1C37BD465DF8047B71
:1043A800704780B487B000AFF860B9607A60FB6886
:1043B80014331A46BB685B0E9B0003F004031344D6
:1043C8007B617B691A68BB681B0D03F01F0307211B
:1043D80001FA03F3DB431A40BB681B0D03F01F030C
:1043E800796801FA03F31A437B691A6000BF1C3726
:1043F800BD465DF8047B704780B485B000AFF860B7
:10440800B9607A60FB68D3F8B020BB68C3F31203C5
:10441800DB431A407B6803F018030849D940BB689E
:104428000B40C3F312031A43FB68C3F8B02000BF64
:104438001437BD465DF8047B704700BFFFFF0700D7
:1044480080B483B000AF78607B689B6803F01F037B
:1044580018460C37BD465DF8047B704780B483B0BE
:1044680000AF78607B689B6823F0204323F03F030C
:104478007A68936000BF0C37BD465DF8047B7047CF
:1044880080B483B000AF78607B689B6803F000530A
:10449800B3F1005F01D1012300E0002318460C3777
:1044A800BD465DF8047B704780B483B000AF786088
:1044B8007B689B6823F0104323F03F0343F080524E
:1044C8007B689A6000BF0C37BD465DF8047B704777
:1044D80080B483B000AF78607B689B6803F080533A
:1044E800B3F1805F01D1012300E0002318460C37A7
:1044F800BD465DF8047B704780B483B000AF786038
:104508007B689B6823F0004323F03F0343F00102DC
:104518007B689A6000BF0C37BD465DF8047B704726
:1045280080B483B000AF78607B689B6823F0004359
:1045380023F03F0343F002027B689A6000BF0C3708
:10454800BD465DF8047B704780B483B000AF7860E7
:104558007B689B6803F00103012B01D1012300E074
:10456800002318460C37BD465DF8047B704780B4BD
:1045780083B000AF78607B689B6803F00203022B6E
:1045880001D1012300E0002318460C37BD465DF831
:10459800047B704780B483B000AF78607B689B6809
:1045A80023F0004323F03F0343F004027B689A6042
:1045B80000BF0C37BD465DF8047B704780B483B0FC
:1045C80000AF78607B689B6803F00403042B01D17B
:1045D800012300E0002318460C37BD465DF8047B34
:1045E800704780B483B000AF78607B689B6803F045
:1045F8000803082B01D1012300E0002318460C37DB
:10460800BD465DF8047B704790B589B000AF78600F
:104618000023FB770023FB607B68002B01D101237B
:10462800A9E17B685B69002B7B68DB6D002B09D1F6
:104638007868FEF779FC7B6800221A667B6800229E
:1046480083F858207B681B681846FFF719FF034654
:10465800002B04D07B681B681846FFF7FFFE7B68B9
:104668001B681846FFF734FF0346002B15D17B68FB
:104678001B681846FFF718FF9C4B1B689B099C4A50
:10468800A2FB03239B0901335B00FB6002E0FB688C
:10469800013BFB60FB68002BF9D17B681B6818465F
:1046A800FFF716FF0346002B0DD17B68DB6D43F047
:1046B80010027B68DA657B681B6E43F001027B6839
:1046C8001A660123FB777B681B681846FFF776FF9D
:1046D80078617B68DB6D03F01003002B40F04281AA
:1046E8007B69002B40F03E817B68DB6D23F481738E
:1046F80043F002027B68DA657B681B681846FFF79F
:1047080023FF0346002B41D17B681B68B3F1A04F00
:1047180004D07B681B68774A93420FD14FF0A040C2
:10472800FFF712FF04467348FFF70EFF03462343C3
:10473800002B0CBF01230023DBB212E06E48FFF709
:1047480003FF04466D48FFF7FFFE03461C436C4811
:10475800FFF7FAFE03462343002B0CBF0123002377
:10476800DBB2002B12D07B681B68B3F1A04F04D0DA
:104778007B681B685F4A934201D1624A00E0624A43
:104788007B685B6819461046FFF7FAFC7B685B7F1D
:104798005A037B68DB6B1A437B68DB681A437B68C8
:1047A8009B681A437B6893F824301B041343BB614E
:1047B8007B6893F82430012B06D17B689B6A013B08
:1047C8005B04BA691343BB617B68DB6A002B09D0C1
:1047D8007B68DB6A03F478727B681B6B1343BA69E6
:1047E8001343BB617B681B68DA68484B13407A68DF
:1047F8001268B9690B43D3607B681B681B6923F097
:1048080040617B685A6B7B681B680A431A617B6846
:104818001B681846FFF7E5FE38617B69002B7FD1DE
:104828003B69002B7CD17B681B7F9A037B6893F8DC
:1048380038305B001343BB617B681B68DB6823F47B
:10484800804323F002037A681268B9690B43D36086
:104858007B681B69002B17D07B681B681A697B680B
:104868001B6842F480321A617B681B68D3F8C03039
:1048780023F47F5323F03F037A6811697A6812683A
:104888000B43C2F8C03013E07B681B681A697B6869
:104898001B6822F480321A617B681B68D3F8C03029
:1048A8007A68126823F47F5323F03F03C2F8C030BC
:1048B8007B6893F84030012B2AD17B681B681B6901
:1048C80023F4FF6323F004037A68516C7A68926CCE
:1048D80011437A68D26C11437A68126D0A431A43FD
:1048E8007B681B6842F001021A6119E0D4050020B8
:1048F800632D3E05000100500004005000050050E3
:104908000006005000030050000700500740F0FF69
:104918007B681B681A697B681B6822F001021A61B0
:104928007B685B69012B0CD17B681B681B6B23F0D0
:104938000F017B681B6A5A1E7B681B680A431A634F
:1049480007E07B681B681A6B7B681B6822F00F0204
:104958001A637B68DB6D23F0030343F001027B6875
:10496800DA6507E07B68DB6D43F010027B68DA6587
:104978000123FB77FB7F18462437BD4690BD00BF57
:1049880080B586B000AFF860B9607A60FB681B68D4
:10499800B3F1A04F04D0FB681B685A4A934201D177
:1049A800594B00E0594B1846FFF74AFD3861FB6840
:1049B8001B681846FFF702FE0346002B40F09B8059
:1049C800FB6893F85830012B01D1022396E0FB686D
:1049D800012283F85820FB681B684D4A934208D08F
:1049E8003B69002B05D03B69052B02D03B69092B9D
:1049F8007AD1F86800F0ECFC0346FB75FB7D002BD0
:104A08006DD1FB68DB6D23F4706323F0010343F47D
:104A18008072FB68DA65FB681B683A4A934209D0E2
:104A2800FB681B683B4A934202D0FB681B6803E0A3
:104A3800394B01E04FF0A043FA681268934202D064
:104A48003B69002B05D1FB68DB6D23F48012FB6802
:104A5800DA65FB68DB6D03F48053002B06D0FB6836
:104A68001B6E23F00602FB681A6602E0FB68002250
:104A78001A66FB685B6D294ADA62FB685B6D284A37
:104A88001A63FB685B6D274A5A63FB681B681C2224
:104A98001A60FB68002283F85820FB681B685A6874
:104AA800FB681B6842F010025A60FB681B68DA68F2
:104AB800FB681B6842F00102DA60FB68586DFB680E
:104AC8001B6840331946BA687B6802F067FA0346E8
:104AD800FB75FB681B681846FFF75CFD0DE0FB687B
:104AE800002283F8582008E00123FB75FB680022A8
:104AF80083F8582001E00223FB75FB7D1846183720
:104B0800BD4680BD00010050000300500007005062
:104B1800000600500005005000040050C35500086E
:104B28009B560008B756000880B483B000AF786081
:104B380000BF0C37BD465DF8047B704780B483B076
:104B480000AF786000BF0C37BD465DF8047B704746
:104B580080B5B6B000AF78603960002387F8D730E9
:104B68000023FB607B6893F85830012B02D10223A5
:104B780000F013BC7B68012283F858207B681B680F
:104B88001846FFF71BFD0346002B40F0F3837B68B4
:104B980018683B6859683B681B681A46FFF7D5FBDD
:104BA8007B681B681846FFF709FDC7F8D0007B68CB
:104BB8001B681846FFF715FDC7F8CC00D7F8D030AA
:104BC800002B40F0D981D7F8CC30002B40F0D481AD
:104BD8003B689B68B3F1004F0FD17B6818683B684E
:104BE8001B6800221946FFF7DCFB7B681B684FF047
:104BF80000411846FFF783FB0EE07B6818683B68A6
:104C080019683B689B681A46FFF7CBFB7B681B68F3
:104C180000211846FFF773FB3B685A697B681B68DD
:104C2800DB68DB0803F003035B0002FA03F3C7F851
:104C3800C8303B681B69042B22D07B6818683B6826
:104C480019693B681A68D7F8C830FFF7CDFA7B684E
:104C580018683B6819693B689B691A46FFF719FB96
:104C68007B6818683B6819693B681B7F012B02D178
:104C78004FF0007300E000231A46FFF725FB7BE1A5
:104C88007B681B6800211846FFF7D2FA0346C3F376
:104C98001203002B0AD17B681B6800211846FFF716
:104CA800C7FA03469B0E03F01F021EE07B681B68D1
:104CB80000211846FFF7BCFA0346C7F8BC30D7F8FE
:104CC800BC3093FAA3F3C7F8C030D7F8C030C7F8A0
:104CD800B830D7F8B830002B01D1202304E0D7F83A
:104CE800B830B3FA83F3DBB21A463B681B68C3F3E8
:104CF8001203002B05D13B681B689B0E03F01F03B2
:104D080018E03B681B68C7F8B030D7F8B03093FAA2
:104D1800A3F3C7F8AC30D7F8AC30C7F8B430D7F83D
:104D2800B430002B01D1202304E0D7F8B430B3FA13
:104D380083F3DBB29A4206D17B681B68002200210C
:104D48001846FFF78BFA7B681B6801211846FFF7A6
:104D58006FFA0346C3F31203002B0AD17B681B6862
:104D680001211846FFF764FA03469B0E03F01F0261
:104D78001EE07B681B6801211846FFF759FA0346B5
:104D8800C7F8A430D7F8A43093FAA3F3C7F8A03033
:104D9800D7F8A030C7F8A830D7F8A830002B01D131
:104DA800202304E0D7F8A830B3FA83F3DBB21A461D
:104DB8003B681B68C3F31203002B05D13B681B68D3
:104DC8009B0E03F01F0318E03B681B68C7F8983078
:104DD800D7F8983093FAA3F3C7F89430D7F89430FB
:104DE800C7F89C30D7F89C30002B01D1202304E071
:104DF800D7F89C30B3FA83F3DBB29A4206D17B68CA
:104E08001B68002201211846FFF728FA7B681B68F7
:104E180002211846FFF70CFA0346C3F31203002BCE
:104E28000AD17B681B6802211846FFF701FA03467E
:104E38009B0E03F01F021EE07B681B6802211846C8
:104E4800FFF7F6F90346C7F88C30D7F88C3093FA99
:104E5800A3F3C7F88830D7F88830C7F89030D7F868
:104E68009030002B01D1202304E0D7F89030B3FA1A
:104E780083F3DBB21A463B681B68C3F31203002BAB
:104E880005D13B681B689B0E03F01F0316E03B68C7
:104E98001B68C7F88030D7F8803093FAA3F3FB6714
:104EA800FB6FC7F88430D7F88430002B01D120235A
:104EB80004E0D7F88430B3FA83F3DBB29A4206D120
:104EC8007B681B68002202211846FFF7C7F97B6838
:104ED8001B6803211846FFF7ABF90346C3F3120317
:104EE800002B0AD17B681B6803211846FFF7A0F93D
:104EF80003469B0E03F01F0217E07B681B68032123
:104F08001846FFF795F903467B677B6F93FAA3F37F
:104F18003B673B6FBB67BB6F002B01D1202303E0CE
:104F2800BB6FB3FA83F3DBB21A463B681B68C3F363
:104F38001203002B05D13B681B689B0E03F01F036F
:104F480011E03B681B68BB66BB6E93FAA3F37B66F4
:104F58007B6EFB66FB6E002B01D1202303E0FB6E0A
:104F6800B3FA83F3DBB29A4206D17B681B6800224E
:104F780003211846FFF772F97B681B681846FFF78C
:104F8800E3FA0346002B40F03D817B6818683B68D4
:104F980019683B68DB681A46FFF72EFA3B68DB683E
:104FA800A24A934240F02E817B6818683B681B68D0
:104FB800C3F31203002B0BD13B681B689B0E013314
:104FC80003F01F03092B94BF01230023DBB219E070
:104FD8003B681B68FB65FB6D93FAA3F3BB65BB6D70
:104FE8003B663B6E002B01D1202303E03B6EB3FAF6
:104FF80083F3DBB2013303F01F03092B94BF0123B2
:105008000023DBB2002B79D03B681B68C3F3120383
:10501800002B07D13B681B689B0E01339B0603F0EE
:10502800F84215E03B681B683B653B6D93FAA3F3B8
:10503800FB64FB6C7B657B6D002B01D1202303E0B7
:105048007B6DB3FA83F3DBB201339B0603F0F842BE
:105058003B681B68C3F31203002B09D13B681B682C
:105068009B0E013303F01F03012101FA03F317E03C
:105078003B681B687B647B6C93FAA3F33B643B6CD3
:10508800BB64BB6C002B01D1202303E0BB6CB3FADB
:1050980083F3DBB2013303F01F03012101FA03F3A9
:1050A80042EA03013B681B68C3F31203002B0AD1D1
:1050B8003B681B689B0E013303F01F0213465B001D
:1050C80013441B0518E03B681B68BB63BB6B93FA72
:1050D800A3F37B637B6BFB63FB6B002B01D120236A
:1050E80003E0FB6BB3FA83F3DBB2013303F01F0277
:1050F80013465B0013441B050B437EE03B681B68AB
:10510800C3F31203002B07D13B681B689B0E0133C6
:105118009B0603F0F84215E03B681B68FB62FB6ADC
:1051280093FAA3F3BB62BB6A3B633B6B002B01D1D1
:10513800202303E03B6BB3FA83F3DBB201339B0616
:1051480003F0F8423B681B68C3F31203002B09D134
:105158003B681B689B0E013303F01F03012101FA12
:1051680003F317E03B681B683B623B6A93FAA3F3BF
:10517800FB61FB697B627B6A002B01D1202303E082
:105188007B6AB3FA83F3DBB2013303F01F03012117
:1051980001FA03F342EA03013B681B68C3F31203F5
:1051A800002B0DD13B681B689B0E013303F01F02D7
:1051B80013465B0013441E3B1B0543F000731BE0C2
:1051C8003B681B687B617B6993FAA3F33B613B698E
:1051D800BB61BB69002B01D1202303E0BB69B3FA93
:1051E80083F3DBB2013303F01F0213465B00134461
:1051F8001E3B1B0543F000730B433A68926819463F
:10520800FFF7CFF83B681A68094B1340002B00F0F2
:10521800BE807B681B68B3F1A04F04D07B681B6815
:10522800044A93420AD1044B09E000BF00007F40C2
:10523800000008800001005000030050594B184638
:10524800FEF7C4FFC7F8C4003B681B68564A934280
:1052580004D03B681B68554A93423AD1D7F8C4300A
:1052680003F40003002B34D17B681B68B3F1A04F13
:1052780005D07B681B684E4A934240F085807B6866
:105288001B68B3F1A04F04D07B681B68494A93425E
:1052980001D1494A00E0434AD7F8C43043F4000337
:1052A80019461046FEF77FFF444B1B689B09444A8A
:1052B800A2FB03239B095A1C13465B0013449B0063
:1052C800FB6002E0FB68013BFB60FB68002BF9D147
:1052D8005AE03B681B683B4A934225D1D7F8C43053
:1052E80003F08073002B1FD17B681B68314A9342FF
:1052F80004D17B681B68344A934247D07B681B689B
:10530800B3F1A04F04D07B681B682A4A934201D1AD
:10531800294A00E0234AD7F8C43043F0807319467D
:105328001046FEF740FF31E03B681B68274A93426E
:105338002DD1D7F8C43003F48003002B27D17B6824
:105348001B681C4A934222D07B681B68B3F1A04FAC
:1053580004D07B681B68174A934201D1164A00E0C3
:10536800104AD7F8C43043F4800319461046FEF7B4
:105378001AFF0CE07B68DB6D43F020027B68DA657E
:10538800012387F8D73002E000BF00E000BF7B6848
:10539800002283F8582097F8D7301846D837BD46EA
:1053A80080BD00BF00070050000021C31000C0905E
:1053B800000600500001005000030050D4050020F2
:1053C800632D3E05000052C700050050000084CB45
:1053D80080B584B000AF78600023BB607B681B6831
:1053E8001846FFF7B1F80346002B76D17B681B6897
:1053F8009A683C4B1340002B0DD07B68DB6D43F063
:1054080010027B68DA657B681B6E43F001027B68DB
:105418001A66012362E07B681B681846FFF76CF880
:105428007B681B68B3F1A04F04D07B681B682E4AC9
:10543800934201D12D4B00E02D4B1846FEF7C6FED6
:10544800034603F40003002B13D02A4B1B689B0967
:10545800294AA2FB03239B095A1C13465B001344E9
:105468009B00BB6002E0BB68013BBB60BB68002BD4
:10547800F9D100F057FBF86028E07B681B681846F4
:10548800FFF762F80346002B04D17B681B681846B7
:10549800FFF732F800F046FB0246FB68D31A022BEE
:1054A80014D97B681B681B6803F00103012B0DD01E
:1054B8007B68DB6D43F010027B68DA657B681B6EE6
:1054C80043F001027B681A66012307E07B681B68CA
:1054D8001B6803F00103012BCFD1002318461037B6
:1054E800BD4680BD3F000080000100500003005011
:1054F80000070050D4050020632D3E0580B584B018
:1055080000AF78607B681B681846FFF730F8F860D2
:105518007B681B681846FFF717F80346002B47D02F
:10552800FB68002B44D17B681B689B6803F00D0364
:10553800012B0CD17B681B681846FEF7F1FF7B68CE
:105548001B6803221A6000F0EDFAB86029E07B6856
:10555800DB6D43F010027B68DA657B681B6E43F0F5
:1055680001027B681A66012323E000F0DBFA024699
:10557800BB68D31A022B14D97B681B689B6803F09D
:105588000103002B0DD07B68DB6D43F010027B68B4
:10559800DA657B681B6E43F001027B681A6601239B
:1055A80007E07B681B689B6803F00103002BDCD1D4
:1055B800002318461037BD4680BD80B584B000AFC3
:1055C80078607B689B6AFB60FB68DB6D03F05003C7
:1055D800002B4BD1FB68DB6D43F40072FB68DA6586
:1055E800FB681B681B6803F00803002B21D0FB68CD
:1055F8001B681846FEF796FE0346002B32D0FB6860
:105608001B68DB6803F40053002B2BD1FB68DB6DB0
:1056180023F48072FB68DA65FB68DB6D03F4805362
:10562800002B1FD1FB68DB6D43F00102FB68DA65D4
:1056380018E0FB681B68DB6803F00203002B11D13C
:10564800FB68DB6D23F48072FB68DA65FB68DB6D51
:1056580003F48053002B05D1FB68DB6D43F0010296
:10566800FB68DA65F868FDF74BF90EE0FB68DB6D5F
:1056780003F01003002B03D0F868FFF75FFA04E08B
:10568800FB685B6D5B6B7868984700BF1037BD4659
:1056980080BD80B584B000AF78607B689B6AFB6092
:1056A800F868FFF741FA00BF1037BD4680BD80B5E6
:1056B80084B000AF78607B689B6AFB60FB68DB6D39
:1056C80043F04002FB68DA65FB681B6E43F0040296
:1056D800FB681A66F868FFF731FA00BF1037BD4655
:1056E80080BD80B483B000AF78607B689B6803F0AE
:1056F8000103012B01D1012300E0002318460C37D8
:10570800BD465DF8047B704780B483B000AF786015
:1057180039607B689B6823F0404323F03F033A6875
:1057280002F08042134343F000427B689A6000BF56
:105738000C37BD465DF8047B704780B483B000AF7A
:1057480078607B689B6803F00043B3F1004F01D198
:10575800012300E0002318460C37BD465DF8047BA2
:10576800704780B483B000AF78607B689B6803F0B3
:105778000403042B01D1012300E0002318460C3751
:10578800BD465DF8047B704780B584B000AF786093
:1057980039600023BB607B6893F85830012B01D136
:1057A80002234DE07B68012283F858207868FFF7D0
:1057B800A5FE0346FB73FB7B002B36D17B68DB6DB4
:1057C80023F4885323F0020343F002027B68DA656E
:1057D8007B681B6839681846FFF796FF14E0BB68BA
:1057E8000133BB60BB68184A93420DD97B68DB6DF7
:1057F80023F0120343F010027B68DA657B6800220D
:1058080083F8582001231BE07B681B681846FFF7C4
:1058180094FF0346002BE2D17B68DB6D23F0030382
:1058280043F001027B68DA6505E07B68DB6D43F0D5
:1058380010027B68DA657B68002283F85820FB7BBE
:1058480018461037BD4680BD01DE040090B5A1B0F2
:1058580000AF78603960002387F87F307B6893F861
:105868005830012B01D10223E7E07B68012283F83D
:10587800582000237B660023BB667B681B68B3F156
:10588800A04F02D16F4BBB6009E07B681B686E4A72
:10589800934202D16D4BBB6001E00023BB60BB6843
:1058A800002B0BD17B68DB6D43F020027B68DA6547
:1058B8007B68002283F858200123BEE0BB681846A5
:1058C800FFF74FFFB8677B681B681846FFF749FF6B
:1058D8000346002B40F0A080BB6F002B40F09C805B
:1058E8007B681B68B3F1A04F04D07B681B68554ADE
:1058F800934201D1564B00E0564B7B673B681B68CF
:10590800002B4BD07B6F9B6823F460423B6859683F
:105918007B6893F838305B030B431A437B6F9A60BC
:105928007B681B68B3F1A04F04D07B681B68454AAD
:1059380093420FD14FF0A040FFF7D3FE04464148F1
:10594800FFF7CFFE03462343002B0CBF01230023A0
:10595800DBB212E03C48FFF7C4FE04463B48FFF7C1
:10596800C0FE03461C433C48FFF7BBFE03462343E7
:10597800002B0CBF01230023DBB2002B56D07B6F1A
:105988009B6823F4716323F00F033A6811683A683F
:1059980092680A431A437B6F9A6047E07B6F9B6863
:1059A80023F460427B6F9A607B681B68B3F1A04F59
:1059B80004D07B681B68234A93420FD14FF0A04064
:1059C800FFF78FFE04461F48FFF78BFE034623436D
:1059D800002B0CBF01230023DBB212E01A48FFF7AB
:1059E80080FE04461948FFF77CFE03461C431A480C
:1059F800FFF777FE03462343002B0CBF0123002348
:105A0800DBB2002B12D07B6F9B6823F4716323F009
:105A18000F037A6F936009E07B68DB6D43F0200227
:105A28007B68DA65012387F87F3000E000BF7B6878
:105A3800002283F8582097F87F3018468437BD46EF
:105A480090BD00BF00010050000400500005005048
:105A580000030050000700500006005080B582B0D7
:105A680000AF0023FB71032001F0A6FE0F2000F019
:105A78000DF80346002B02D00123FB7101E0FEF76D
:105A88005BFBFB7918460837BD4680BD80B584B0FE
:105A980000AF78600023FB73164B1B68002B22D0E5
:105AA800154B1A68134B1B684FF47A71B1FBF3F36B
:105AB800B2FBF3F3184601F0B2FE0346002B0FD1F8
:105AC8007B680F2B09D8002279684FF0FF3001F06E
