:020000040800F2
:100000000000022065C50008253C00082D3C0008C2
:10001000353C00083D3C0008453C0008000000005D
:100020000000000000000000000000004D3C00083F
:100030005B3C000800000000693C0008773C0008B9
:10004000B5C50008B5C50008B5C50008B5C50008A8
:10005000B5C50008B5C50008B5C50008B5C5000898
:10006000B5C50008B5C50008B5C50008853C000841
:10007000B5C50008B5C50008993C0008B5C500081D
:10008000B5C50008B5C50008B5C50008B5C5000868
:10009000B5C50008B5C50008B5C50008B5C5000858
:1000A000B5C50008B5C50008B5C50008B5C5000848
:1000B000B5C50008B5C50008B5C50008B5C5000838
:1000C000B5C50008B5C50008B5C50008B5C5000828
:1000D000B5C50008B5C50008AD3C0008B5C50008A9
:1000E000C13C0008B5C50008B5C50008B5C5000885
:1000F000B5C50008B5C50008B5C50008B5C50008F8
:10010000B5C50008E93C0008FD3C0008B5C500087D
:10011000B5C50008B5C50008113D0008B5C5000803
:10012000B5C50008B5C50008B5C50008B5C50008C7
:10013000B5C500082D3D0008B5C50008B5C50008C7
:10014000B5C50008B5C50008B5C50008B5C50008A7
:10015000B5C50008B5C50008B5C50008B5C5000897
:10016000B5C50008B5C50008B5C50008B5C5000887
:10017000B5C50008B5C50008B5C50008B5C5000877
:10018000B5C50008B5C50008B5C50008B5C5000867
:10019000B5C5000800000000413D0008553D0008BD
:1001A000B5C50008B5C50008B5C50008B5C5000847
:1001B000B5C50008B5C50008B5C50008B5C5000837
:1001C000B5C50008B5C50008B5C50008B5C5000827
:0801D000B5C50008B5C5000823
:1001D80010B5054C237833B9044B13B10448AFF379
:1001E80000800123237010BD0803002000000000D8
:1001F80010C6000808B5034B1BB103490348AFF309
:10020800008008BD000000000C03002010C6000894
:1002180053B94AB9002908BF00281CBF4FF0FF3165
:100228004FF0FF3000F088B9ADF1080C6DE904CE4D
:1002380000F006F8DDF804E0DDE9022304B07047B9
:100248002DE9F047089D0F4604468C46002B48D1FF
:100258008A42164661D9B2FA82F34BB1C3F1200241
:1002680001FA03FC20FA02F29E4042EA0C0C9C4080
:100278004FEA164EB7B2BCFBFEF1220C0EFB11CCB6
:1002880042EA0C4201FB07F0904209D9B21801F189
:10029800FF3C80F0EE80904240F2EB80023932441D
:1002A800121AA4B2B2FBFEF00EFB102244EA02447A
:1002B80000FB07F7A74209D9341900F1FF3280F093
:1002C800DA80A74240F2D7803444023840EA01403D
:1002D800E41B00211DB1DC400023C5E90043BDE853
:1002E800F0878B4206D90DB1C5E900010021084607
:1002F800BDE8F087B3FA83F1002948D1BB4202D3A5
:10030800824200F20781841A67EB030201209446B7
:10031800002DE4D0C5E9004CE1E7002A00F0928006
:10032800B2FA82F3002B40F0A8808A1A4FEA164EE0
:100338001FFA86FC0121200CB2FBFEF70EFB1722E8
:1003480040EA02420CFB07F0904207D9B21807F1C5
:10035800FF3802D2904200F2E2804746121AA4B255
:10036800B2FBFEF00EFB102244EA02440CFB00FC38
:10037800A44507D9341900F1FF3202D2A44500F28E
:10038800CB801046A4EB0C0440EA0740A2E7C1F179
:1003980020068B4022FA06FC4CEA030C07FA01F40B
:1003A80020FA06F3F7404FEA1C49234300FA01F804
:1003B8001FFA8CFEB7FBF9F01C0C09FB107744EA16
:1003C800074400FB0EF7A74202FA01F20AD91CEB18
:1003D800040400F1FF3A80F09B80A74240F2988025
:1003E80002386444E41B9FB2B4FBF9F309FB1344DD
:1003F80047EA044403FB0EFEA64509D91CEB040496
:1004080003F1FF3780F08280A6457FD9023B644420
:1004180043EA0040A4EB0E04A0FB02E7BC4273468B
:10042800B94663D360D05DB1B8EB030264EB09044D
:1004380004FA06F622FA01F31E43CC40C5E900642B
:1004480000214CE76208480842EAC1710B0C43EAF4
:1004580000438AB242EA0342B3FBF6F1E407B4462A
:100468003746B6461F23B0FBF6F0D21B41EA0041DF
:1004780061E7614614E7104628E7C3F1200120FA36
:1004880001F29E4027FA01F19F403A434FEA164E87
:100498001FFA86FCB1FBFEF70EFB1710110C41EAA0
:1004A800004107FB0CF8884504FA03F43AD971189F
:1004B80007F1FF3001D288451FD8A1EB0801B1FB35
:1004C800FEF808FB0CF70EFB181192B242EA014243
:1004D800BA422FD2B21808F1FF31C6D2BA42C4D2FA
:1004E800A8F102013244C0E7F0459CD2BEEB0203FA
:1004F80067EB0C070138B94695E7A6EB08084144B5
:10050800B81EB1FBFEF808FB0CF7DCE73B467FE7BB
:10051800504667E70846FBE63444023832E7023FB4
:1005280032441BE7A1EB08013846B1FBFEF808FB93
:100538000CF7C8E7414698E7704700BF80B483B01E
:1005480000AF87ED010AD7ED017AF5EEC07AF1EE3A
:1005580010FA02DDD7ED017A03E0D7ED017AF1EE6A
:10056800677AB0EE670A0C37BD465DF8047B7047C2
:1005780080B582B000AF786087ED000A7B68D3ED64
:100588000F7AF5EE407AF1EE10FA02D0786800F0B2
:10059800D3F87B683A681A627B681A697B685A6183
:1005A8007B68DA687B681A617B6893ED097A7B68F7
:1005B800D3ED087A77EE677A7B68C3ED037A7B68B8
:1005C80093ED0B7A7B68D3ED006A7B6893ED036A41
:1005D8007B68D3ED047A76EE677A66EEA76A7B6865
:1005E80093ED026A7B68D3ED035A7B68D3ED047AF6
:1005F80077EEA77A75EEE75A7B68D3ED057A75EE44
:10060800A77A66EE277A76EEA76A7B6893ED016A89
:100618007B68D3ED037A66EE277A76EEA76A7B6865
:10062800D3ED0E7A76EEA77A77EE277A7B68C3ED5C
:100638000B7A7B685A6A7B689A627B6893ED0B7ABF
:100648007B68D3ED0C7AB4EEE77AF1EE10FA04DDAC
:100658007B681A6B7B68DA620FE07B6893ED0B7A34
:100668007B68D3ED0D7AB4EEE77AF1EE10FA00D498
:1006780003E07B685A6B7B68DA6200BF0837BD46C7
:1006880080BD80B48DB000AFF86187ED060AC7ED74
:10069800050A87ED041AC7ED031A87ED022AC7ED8C
:1006A800012AFB69BA691A60FB697A695A60FB69B1
:1006B8003A699A60FB69FA68DA61FB69BA681A6391
:1006C800FB697A685A63FB694FF000029A61FB691B
:1006D8004FF00002DA62FB694FF000021A62FB6910
:1006E8004FF000025A62FB694FF000029A62FB6900
:1006F8004FF000029A63FB694FF00002DA63FB696E
:100708000C33BB62BB6AFB62BB6A0C337B6208E0DA
:10071800FB6A3B623B6A4FF000021A60FB6A0433D3
:10072800FB62FA6A7B6A9A42F2D100BF00BF343793
:10073800BD465DF8047B704780B584B000AF786033
:100748004FF00003FB607B6893ED0A7A7B68D3ED7A
:10075800097A77EE677AB0EE670AFFF7EFFEB0EE38
:10076800407A7B68D3ED0F7AB4EEE77AF1EE10FAAF
:1007780094BF01230023DBB2002B2FD17B6893EDBC
:100788000A7A7B68D3ED097A77EE677AF5EEC07A54
:10079800F1EE10FA02DD134BFB600FE07B6893ED7E
:1007A8000A7A7B68D3ED097A77EE677AF5EEC07A34
:1007B800F1EE10FA02D54FF07E53FB607B6893EDA3
:1007C8000A7A7B68D3ED0F6AD7ED037A66EEA77ACB
:1007D80077EE277A7B68C3ED097A00E000BF10370F
:1007E800BD4680BD000080BF80B487B000AF786090
:1007F8007B684FF000029A617B684FF00002DA6272
:100808007B680C333B613B697B613B690C33FB6064
:1008180008E07B69BB60BB684FF000021A607B6927
:1008280004337B617A69FB689A42F2D100BF00BF4A
:100838001C37BD465DF8047B704780B584B000AFB7
:1008480078603960786800F083FA3B681A687B68DA
:100858001A603B685A687B685A603B681A897B68EB
:100868001A813B689A7A7B689A723B689A897B6896
:100878009A813B681A697B681A613B681B7D082B63
:1008880002D83B681A7D00E008227B681A753B682D
:100898009A697B689A613B68DA697B68DA613B68C8
:1008A80093F820207B6883F820203B6893F8212068
:1008B8007B6883F821203B685A6A7B685A62002368
:1008C800FB7318E0FB7B7A680A339B0013444FF0F4
:1008D80000021A60FB7B7A6812339B0013444FF0C6
:1008E80000021A60FA7B7B683432002123F8121068
:1008F800FB7B0133FB73FB7B072BE3D900BF00BFF6
:100908001037BD4680BD80B582B000AF78607B6887
:100918001B68002B01D100230BE07B681B687F213B
:10092800184604F0AFFF0346002B0CBF0123002339
:10093800DBB218460837BD4680BD80B582B000AF2F
:100948007860786800F05AF9034683F00103DBB257
:10095800002B01D000234CE07B6893F82030002B5B
:100968000AD07868FFF7CFFF034683F00103DBB2B4
:10097800002B01D0012300E00023002B01D000232D
:1009880037E0786800F090F9034683F00103DBB2A2
:10099800002B01D000232CE07B6818687B6859681D
:1009A8007B681B891A4603F025FE0346002B14BFFB
:1009B80001230023DBB2002B04D0786800F0C8F9CB
:1009C800002316E07B6893F82130002B10D07B6859
:1009D8001B685B6D002B0BD07B681B685B6D1B680D
:1009E8001A687B681B685B6D1B6822F004021A603A
:1009F800012318460837BD4680BD80B588B000AFD2
:100A08007860786800F027F9034683F00103DBB2C9
:100A1800002B01D000239CE00023FB770023BB7749
:100A280090E07B681A69BB7F1B0113443B613B69FB
:100A38001B78072B00F282803B695A787B689B7A87
:100A48009A427BD20023BB610023FB820EE03B6904
:100A58005A78FB8A1946786800F09AF803461A46CD
:100A6800BB691344BB61FB8A0133FB827B689B89AA
:100A7800FA8A9A42EBD3BB6907EE903AF8EE676AB6
:100A88007B689B8907EE903AB8EE677AC6EE877A5C
:100A9800C7ED037A3B691B781A46D7ED037AFCEE5B
:100AA800E77A17EE903A99B27B68343223F812103D
:100AB8003B691B7B012B14D13B6993ED017AD7ED80
:100AC800037A27EE277A3B69D3ED027A3B691B78D4
:100AD80077EE277A7A680A339B001344C3ED007ACD
:100AE80029E07B6893ED067AD7ED037A67EE276AEB
:100AF8007B6893ED077AC6EE877AC7ED027A3B6981
:100B08001B787A6812339B001344BA681A603B69F1
:100B180093ED017AD7ED027A27EE277A3B69D3ED78
:100B2800027A3B691B7877EE277A7A680A339B004A
:100B38001344C3ED007A0123FB7700E000BFBB7FBD
:100B48000133BB777B681B7DBA7F9A42FFF469AF9C
:100B5800FB7F18462037BD4680BD80B483B000AF08
:100B680078600B46FB70FB78072B06D8FB787A6811
:100B78000A339B0013441B6801E04FF0000307EEA3
:100B8800903AB0EE670A0C37BD465DF8047B7047B3
:100B980080B485B000AF78600B467B8013467B70CD
:100BA8007B685B68002B09D07B689B7A7A789A42CD
:100BB80004D27B689B897A889A4201D3002317E084
:100BC8007B689B7A1A467B8813FB02F39AB27B7880
:100BD8009BB21344FB817B681B89FA899A4206D22F
:100BE8007B685A68FB895B0013441B8800E000237C
:100BF80018461437BD465DF8047B704780B483B04F
:100C080000AF78607B681B68002B1DD07B685B6831
:100C1800002B19D07B681B89002B15D07B689B7A29
:100C2800002B11D07B689B89002B0DD07B681A891B
:100C38007B689B7A19467B689B8911FB03F39BB2FF
:100C48009A4201D3012300E0002318460C37BD4621
:100C58005DF8047B704780B582B000AF7860786833
:100C6800FFF7CCFF034683F00103DBB2002B0FD163
:100C78007B681B69002B0BD07B681B7D002B07D082
:100C88007B68D3ED077AF5EEC07AF1EE10FA01D859
:100C9800012300E00023002B01D0002300E0012302
:100CA80018460837BD4680BD80B48BB000AF786069
:100CB8007B681B68002B01D100233EE0224BFB61BF
:100CC800214B7B62214BBB6119E07B6ABB60BB682F
:100CD8001B687A689A420AD0BB681B68002B0BD045
:100CE800BB681B681A687B681B689A4204D1BB689A
:100CF8007A681A60012320E07B6A04337B627A6A8F
:100D0800BB699A42E1D1104B7B610F4B3B620F4BA1
:100D18003B610DE03B6AFB60FB681B68002B04D15C
:100D2800FB687A681A60012307E03B6A04333B6278
:100D38003A6A3B699A42EDD1002318462C37BD46E2
:100D48005DF8047B704700BF2403002044030020A3
:100D580080B487B000AF78600F4B3B610E4B7B616E
:100D68000E4BFB600CE07B69BB60BB681B687A6854
:100D78009A4202D1BB6800221A607B6904337B6106
:100D88007A69FB689A42EED100BF00BF1C37BD46A6
:100D98005DF8047B704700BF240300204403002053
:100DA80080B487B000AF0346FB710F4B3B610E4B1D
:100DB8007B610E4BFB600BE07B69BB60BB681B78FB
:100DC800FA799A4201D1BB6807E07B6914337B61E9
:100DD8007A69FB689A42EFD1002318461C37BD4652
:100DE8005DF8047B704700BF000000203C00002035
:100DF80080B483B000AF786039607B681B8A002BB1
:100E080001D100230BE07B681B8A1A463B6893429A
:100E180003D37B681B8A013B00E03B6800BF184690
:100E28000C37BD465DF8047B7047000080B586B07E
:100E380000AF78607B6803F48033002B04D04FF454
:100E48008031124808F0E9FD114B3B61104B7B6182
:100E5800104BFB6010E07B69BB60BB685A687B681D
:100E68001340002B05D0BB685B681946074808F09B
:100E7800D4FD7B6914337B617A69FB689A42EAD1B5
:100E880000BF00BF1837BD4680BD00BF3005002039
:100E9800000000203C00002080B582B000AF7860E0
:100EA8007B68002B03D07968034808F05CFD00BF1D
:100EB8000837BD4680BD00BF3005002080B582B030
:100EC80000AF78607B68002B03D07968034808F08E
:100ED80077FD00BF0837BD4680BD00BF3005002044
:100EE800B0B586B000AF0346B9607A60FB73FB7B90
:100EF8001846FFF755FF78617B69002B01D1002365
:100F080071E07B699B68062B2CD1BB68012B08D14B
:100F1800374B1C6879687869FFF76AFF0346E36115
:100F280060E0BB68022B08D1314B1C68796878698E
:100F3800FFF75EFF0346636254E0BB68042B08D1E9
:100F48002B4B1C6879687869FFF752FF0346A36248
:100F580048E0274B1C6879687869FFF749FF034622
:100F6800E3623FE0BB68012B0DD1214B1C687B6914
:100F78009D6879687869FFF73BFF0246EB012344D7
:100F88009C331A602EE0BB68022B0DD1184B1C68ED
:100F98007B699D6879687869FFF72AFF0246EB014B
:100FA8002344A4331A601DE0BB68042B0DD1104BF9
:100FB8001C687B699D6879687869FFF719FF0246A4
:100FC800EB012344A8331A600CE0094B1C687B69C9
:100FD8009D6879687869FFF70BFF0246EB012344A7
:100FE800AC331A60012318461837BD46B0BD00BFA0
:100FF8003005002080B52DED028B86B000AF03468A
:1010080087ED020A7960FB73FB7B1846FFF7C8FE81
:1010180078617B69002B01D100232AE07B691B8A58
:1010280007EE903AB8EE678A9FED151ADFED150ABC
:1010380097ED020A00F067F8F0EE407A68EE277A3A
:10104800FCEEE77A17EE903A3B61FB7B0022012128
:101058001846FFF745FFFB7B3A6904211846FFF75E
:101068003FFFFB7B7A6808211846FFF739FF0346E4
:1010780000BF18461837BD46BDEC028B80BD00BFC7
:101088003333733F0000000080B584B000AF0346DF
:10109800FB71FB791846FFF783FEF860FB68002BAD
:1010A80002D0FB685B6800E0002318461037BD4695
:1010B80080BD80B584B000AF0346FB71FB7918464C
:1010C800FFF76EFEF860FB68002B02D0FB68DB6858
:1010D80000E0002318461037BD4680BD80B584B0B7
:1010E80000AF0346FB71FB791846FFF759FEF8601D
:1010F800FB68002B02D0FB681B8A00E0002318461F
:101108001037BD4680BD80B485B000AF87ED030AB7
:10111800C7ED020A87ED011A97ED037AD7ED027A37
:10112800B4EEE77AF1EE10FA01D5BB680BE097ED63
:10113800037AD7ED017AB4EEE77AF1EE10FA01DD21
:101148007B6800E0FB6807EE903AB0EE670A143758
:10115800BD465DF8047B704780B400AF0F4B1B6839
:1011680003F00103002B14BF01230023DBB2002B83
:101178000FD10B4BDB680A4A43F08073D360074BEF
:1011880000225A60054B1B68044A43F001031360B0
:1011980000E000BFBD465DF8047B7047001000E02A
:1011A800F0ED00E02DE9B04382B000AF78607968D7
:1011B8000020884681460F49096800200A460346F0
:1011C80002FB09F008FB03F10144A8FB02454B1997
:1011D8001D464FF47A724FF0000320462946FFF768
:1011E80017F802460B46134618460837BD46BDE8B1
:1011F800B08300BF0403002080B584B000AFF8605E
:10120800B9607A60FFF7A8FFB868FFF7CBFF02461E
:10121800FB681A607B68002B02D1FB681B6803E03F
:101228007868FFF7BFFF0346FA685360F86800F074
:101238005FF800BF1037BD4680BD000080B485B0A0
:1012480000AF78600B46FB70284B5B68FB60FB784F
:10125800002B1ED07B689B68FA689A420BD07B688B
:10126800DA687B689B68F968CB1A1A447B68DA608D
:101278007B68FA689A607B68DA687B681B689A42C0
:101288002CD37B681A687B68DA607B6801221A7441
:1012980024E07B689B68FA689A4216D07B689B6852
:1012A800FA68D31ABB607B68FA689A607B68DB6867
:1012B800BA689A4206D27B68DA68BB68D21A7B6839
:1012C800DA6002E07B680022DA607B68DA687B68B3
:1012D8005B689A4202D27B6800221A747B681B7C86
:1012E80018461437BD465DF8047B7047001000E0CF
:1012F80080B483B000AF78607B680022DA607B68D6
:1013080000221A74044B5A687B689A6000BF0C3735
:10131800BD465DF8047B7047001000E080B483B0E0
:1013280000AF87ED010AD7ED017AF5EEC07AF1EE4C
:1013380010FA01D80B4B0BE0D7ED017AB7EE007A23
:10134800F4EEC77AF1EE10FA01DB074B00E07B6898
:1013580007EE903AB0EE670A0C37BD465DF8047B9D
:10136800704700BFCDCCCC3D6666663F80B584B083
:1013780000AFF86087ED020AC7ED010A97ED020A8F
:10138800FFF7CCFFF0EE407AFB68C3ED007AFB680C
:101398007A685A60FB6801221A7200BF1037BD468E
:1013A80080BD80B485B000AF786087ED000A7B68A7
:1013B8001B7A83F00103DBB2002B01D03B681AE0F3
:1013C8007B6893ED007AD7ED007A27EE277A7B6861
:1013D800D3ED007AF7EE006A76EEE76A7B68D3ED24
:1013E800017A66EEA77A77EE277AC7ED037A7B68EB
:1013F800FA685A60FB6807EE903AB0EE670A14374D
:10140800BD465DF8047B704780B584B000AFF860D6
:101418000B4687ED010A7B817B89002B02D10123D2
:101428007B8104E07B89322B01D932237B81FB68E5
:101438007A89A3F8D02097ED010AF86800F067F8D8
:1014480000BF1037BD4680BD80B485B000AF78605E
:1014580087ED000A7B68B3F8D030002B02D1D7EDB6
:10146800007A4DE07B68B3F8CC307A689B0013446F
:101478001B68FB607B68B3F8CC307A689B00134428
:101488003A681A607B6893ED327AD7ED006AD7ED37
:10149800037A76EEE77A77EE277A7B68C3ED327ABD
:1014A8007B68B3F8CC3001339AB27B68A3F8CC20C0
:1014B8007B68B3F8CC207B68B3F8D0309A4203D36A
:1014C8007B680022A3F8CC207B68B3F8CE207B6829
:1014D800B3F8D0309A4207D27B68B3F8CE300133E4
:1014E8009AB27B68A3F8CE207B68D3ED326A7B681A
:1014F800B3F8CE3007EE903AB8EE677AC6EE877A40
:10150800B0EE670A1437BD465DF8047B704780B4B7
:1015180085B000AF786087ED000A7B68B3F8D030FB
:1015280007EE903AB8EE677AD7ED007A67EE277A39
:101538007B68C3ED327A7B680022A3F8CC207B68F5
:10154800B3F8D0207B68A3F8CE200023FB8111E0FC
:101558007B68B3F8D030FA899A4201D23B6801E03F
:101568004FF00003FA89796892000A441360FB89F6
:101578000133FB81FB89312BEAD900BF00BF143747
:10158800BD465DF8047B704780B582B000AF7860D7
:101598007B683B4ADA617B683A4A1A627B683A4A56
:1015A8009A617B6800221A857B68384A5A627B6890
:1015B80003F190027B68D3ED077A7B6893ED087A94
:1015C800F0EE472AB0EE672ADFED311A9FED311AA7
:1015D800DFED310A9FED310A1046FFF752F87B68BC
:1015E80003F1D0027B68D3ED087A7B6893ED077A24
:1015F8007B68D3ED086AF0EE662AB0EE472AF0EE73
:10160800671A9FED241ADFED260A9FED260A104679
:10161800FFF737F87B684FF000021A607B682C33BD
:10162800022219211846FFF7E7FD7B6840330222A2
:1016380019211846FFF7E0FD7B6854330A2214216C
:101648001846FFF7D9FD7B6868330222192118462E
:10165800FFF7D2FD7B687C33022219211846FFF779
:10166800CBFD0020FFF710FD03461846FFF7DEFB11
:101678007B6800221A8200BF0837BD4680BD00BFC4
:101688001F856B3FCDCC4C3DCDCC4C3E8FC2F53C3D
:101698009A9999BE0000000017B751390AD7233C20
:1016A8006F12033B0AD7A33B80B582B000AF7860C6
:1016B8007B68B3F928309AB2013A92B211B27A68CB
:1016C8001185114A9342B4BF01230023DBB2002BDA
:1016D80015D07B6801221A85786800F0CBF8F0EE07
:1016E800407AB0EE670A786800F089F80020FFF7C2
:1016F800E0FC03461846FFF7CFFB012300E0002378
:1017080018460837BD4680BD31F8FFFF80B582B066
:1017180000AF78600020FFF7CCFC03461846FFF7BF
:10172800CDFB7B6890331846FFF75EF87B68D033B3
:101738001846FFF759F87B684FF000021A607B687B
:1017480000221A857B68034A9A6100BF0837BD46A4
:1017580080BD00BFCDCC4C3E80B584B000AF786072
:101768007B68B3F92830012B02D07868FFF79CFF1B
:10177800786800F0CFF8F860786800F067FBFB68DD
:101788005B79002B0FD1FB681B79002B0BD1FB6811
:10179800DB79002B07D1FB689B79002B03D1FB6811
:1017A8009B78002B03D07868FFF7B0FF23E0FB6835
:1017B8001B88002B1CD17B68D3ED027AB3EE027A2A
:1017C800F4EEC77AF1EE10FA03DB002000F07CFC9F
:1017D80002E0012000F078FC786800F0DBF97B6813
:1017E800D3ED067AB0EE670A786800F008F802E0F0
:1017F8007868FFF78BFF00BF1037BD4680BD80B506
:1018080084B000AF786087ED000A7B68D3ED087A72
:101818007B6893ED077AB0EE471AF0EE670A97ED0A
:10182800000AFFF770FC87ED000A7B683A689A6146
:101838000020FFF753FC0346FB60FB6807EE903A75
:10184800B8EE677AD7ED007A67EE277AFCEEE77A8A
:1018580017EE903ABB60B968786800F038F903462B
:10186800194697ED000A0020FFF7C4FB00BF1037A8
:10187800BD4680BD80B584B000AF78607B68D3ED8D
:10188800037AF5EE407AF1EE10FA03D17B68D3EDD6
:10189800087A1EE07B68D3ED026A7B6893ED037AD1
:1018A800C6EE877A9FED0D7A77EE877AC7ED037AD1
:1018B8007B68D3ED087A7B6893ED077AB0EE471A18
:1018C800F0EE670A97ED030AFFF71DFCF0EE407A89
:1018D80000BFB0EE670A1037BD4680BD0AD7233C6B
:1018E80080B485B000AFF86087ED020AC7ED010A41
:1018F80087ED001AFB68BA685A60FB687A689A60D4
:10190800FB683A68DA6000BF1437BD465DF8047BAF
:101918007047000080B584B000AF78607B68D3ED75
:10192800037AB2EE087AF4EEC77AF1EE10FA01D52E
:10193800012300E00023FB730023BB737B68D3ED16
:10194800017AB3EE047AF4EEC77AF1EE10FA09DC04
:101958007B68D3ED017ABFEE007AF4EEC77AF1EE38
:1019680010FA01D5012300E000237B737B68D3EDD7
:10197800037A9FED477AF4EEC77AF1EE10FA01DDAB
:10198800012300E000233B737B68D3ED027A9FEDCF
:10199800417AF4EEC77AF1EE10FA0EDC7B68D3EDEB
:1019A800037AB7EE007A37EE877A7B68D3ED027A4E
:1019B800B4EEE77AF1EE10FA01D5012300E0002336
:1019C800FB727B682C33FA7B1946786800F064F860
:1019D80003461A467B689A747B684033002219468E
:1019E800786800F059F803461A467B68DA747B6811
:1019F80054337A7B1946786800F04EF803461A4645
:101A08007B685A757B6868333A7B1946786800F0BA
:101A180043F803461A467B68DA757B687C33FA7AA2
:101A28001946786800F038F803461A467B689A75B4
:101A38007B689B7C1AB27B68DB7C1BB25B001BB2A9
:101A480013431AB27B681B7D1BB29B001BB2134366
:101A58001AB27B685B7D1BB2DB001BB213431AB260
:101A68007B689B7D1BB21B011BB213431AB27B68B8
:101A7800DB7D1BB25B011BB213431BB29AB27B68BE
:101A88001A827B68103318461037BD4680BD00BFE8
:101A98000000A0420000BC4180B584B000AFF860EF
:101AA800B9601346FB71FB79002B14BF0123002397
:101AB800DBB21946B868FFF7C1FB0346002B01D01B
:101AC800012300E0002318461037BD4680BD80B5CD
:101AD80088B000AF786039600020FFF7FFFA03464E
:101AE800BB613B687B61BA693B68D31A3B6142F2D0
:101AF8009333FB603B6942F29232934213D93A69BD
:101B08007B699A4204D27B6942F2923293420AD8A4
:101B18003B69A3F50E53133B5A083B68134403F57E
:101B28007A73FB6129E07B6942F29232934208D9C9
:101B38007B69A3F50E53133B5B0803F57A73FB61CE
:101B48001BE03B6941F6C232934208D93B69A3F5D1
:101B5800DE53033B5B083A681344FB610DE07B6985
:101B680041F6C232934206D97B69A3F5DE53033BA3
:101B78005B08FB6101E03B68FB61FA69BB699A425B
:101B880002D3BB69013B00E0FB6918462037BD461C
:101B980080BD000080B58CB000AF78604FF0824304
:101BA8003B62A74BFB617B68D3ED027AB2EE007A09
:101BB800F4EEC77AF1EE10FA49D57B68A04AC3F86B
:101BC800F4207B6803F1D0027B68D3ED017AB0EE94
:101BD800670A1046FEF7CCFC7B68D3F8FC30FB6242
:101BE8007868FFF747FE87ED040A97ED0B7AD7ED83
:101BF800047AB4EEE77AF1EE10FA05D53B69FB6298
:101C08007B683A69C3F8FC207B68DA687B68C3F8AC
:101C1800B4207B6890338B4AD2ED007AB0EE670A25
:101C28001846FEF7A5FC7B68D3ED026A854B93ED59
:101C3800007AC6EE877A97ED0B7A77EE677A9FED92
:101C4800827A77EEC77A7B68C3ED2F7AB9E07B6832
:101C5800D3ED026A7B4B93ED007AC6EE877A9FED4F
:101C68007A7A77EE877AC7ED0A7A7B68D3ED087AB5
:101C780097ED0A7AB4EEE77AF1EE10FA02D57B68AE
:101C88001B6ABB627B68D3ED077A97ED0A7AB4EEDC
:101C9800E77AF1EE10FA02DD7B68DB69BB627B68EC
:101CA800DA687B68C3F8B4207B689033654AD2ED64
:101CB800007AB0EE670A1846FEF75AFC7B68D3ED47
:101CC8002F7A97ED0A7A77EE277AC7ED0B7A4FF0DD
:101CD8008243BB617B68D3ED037AB6EE007AF4EEFB
:101CE800C77AF1EE10FA32DD7B68D3ED027AB2EEF4
:101CF800007A77EE876A7B6893ED037AC6EE877A77
:101D0800C7ED097A7B68D3ED087A97ED097AB4EEC6
:101D1800E77AF1EE10FA02D57B681B6A7B627B6872
:101D2800D3ED077A97ED097AB4EEE77AF1EE10FA77
:101D380002DD7B68DB697B6297ED0B7AD7ED097A68
:101D4800B4EEE77AF1EE10FA01DD7B6AFB6278689F
:101D5800FFF790FD87ED050A97ED0B7AD7ED057A29
:101D6800B4EEE77AF1EE10FA01D57B69FB627B6885
:101D780093ED2F7AD7ED0A7A77EE277A97ED0B7ADB
:101D8800B4EE677AF1EE10FA08D097ED0B7AD7ED3A
:101D98000A7A77EE677A7B68C3ED2F7A7B68284AE0
:101DA800C3F8F4207B6803F1D0027B68D3ED017A95
:101DB800B0EE670A1046FEF7DBFB7B68FA6AC3F8E9
:101DC800FC207B68D3ED067A97ED0B7A77EE677A7D
:101DD800C7ED037A7B68D3ED097A97ED037AB4EE01
:101DE800E77AF1EE10FA0BDD7B6893ED067A7B68F3
:101DF800D3ED097A77EE277A7B68C3ED067A1AE085
:101E08007B68D3ED097AF1EE677A97ED037AB4EE41
:101E1800E77AF1EE10FA0BD57B6893ED067A7B68CA
:101E2800D3ED097A77EE677A7B68C3ED067A02E02C
:101E38007B68FA6A9A6100BF3037BD4680BD00BF33
:101E4800333333403C0000200AD7233C80B584B0AC
:101E580000AF7860244BB3F900309BB201339BB2DA
:101E68001AB2214B1A80204BB3F90030072B38DD0A
:101E78001D4B00221A807B681B8AFB810323BB81D0
:101E8800FB89002B05D101220421184804F042FFE8
:101E980027E0FB8903F00303002B05D0002204216F
:101EA800124804F037FF1CE0114B1B8801339AB22B
:101EB8000F4B1A800E4B1B887C2B05D8012204215E
:101EC8000A4804F027FF0CE0094B1B88F92B05D8BA
:101ED80000220421054804F01DFF02E0044B002203
:101EE8001A801037BD4680BD440300200008004812
:101EF8004603002080B483B000AF87ED010AD7ED18
:101F0800017AF5EEC07AF1EE10FA02D54FF000032F
:101F18000BE0D7ED017A9FED097AF4EEC77AF1EE7E
:101F280010FA01DD064B00E07B6807EE903AB0EE50
:101F3800670A0C37BD465DF8047B704700001643FE
:101F48000000164380B483B000AF0346FB71FB79F1
:101F5800002B06D0094B18229A61094B01221A70EE
:101F680006E0064B4FF4C0129A61054B00221A7026
:101F780000BF0C37BD465DF8047B7047000400487D
:101F88004C03002080B500AF1821074804F0DAFEA2
:101F9800064B1B78DBB2002B01D1012200E00022A6
:101FA800024B1A7000BF80BD000400484C0300209B
:101FB80080B52DED028B86B000AF00F097F97861FF
:101FC800786900F081FAB0EE408A786900F06CFA1E
:101FD800F0EE407A68EE277AC7ED047A97ED040AA6
:101FE800FFF788FFF0EE407A274BC3ED027A264BC5
:101FF800D3ED027A9FED257A67EE877AFCEEE77AD1
:10200800C7ED017A3B79DAB21F4B5A711E4B9B79A7
:1020180003F001039AB21C4B5B795B009BB213433C
:10202800FB81FB891B0A9AB2FB895340FB81FB8920
:102038001B099AB2FB895340FB81FB899B089AB222
:10204800FB895340FB81FB895B089AB2FB895340AB
:10205800FB810D4B9B7903F001039AB20A4B5B7924
:102068005B009BB213439AB2FB895B029BB203F4F9
:1020780000739BB213439AB2034B5A8000BF1837C0
:10208800BD46BDEC028B80BD400000209A99D93F27
:1020980080B500AF0020FFF755FF00F003F800BF40
:1020A80080BD000080B400AF054B00221A71054BBB
:1020B80000221A8000BFBD465DF8047B704700BF50
:1020C800400000204803002080B483B000AF0346DE
:1020D800FB71FB7903F00103DAB2044B9A7100BF7C
:1020E8000C37BD465DF8047B704700BF40000020F8
:1020F80080B582B000AF794B1B889BB201339AB28E
:10210800764B1A80754B1B889BB240F69F729342A0
:102118008CBF01230023DBB2002B02D06F4B0022BF
:102128001A806F4B1B7883F00103DBB2002B05D0BC
:102138000020FFF707FFFFF7B5FFCBE0694B1B88CF
:102148009BB2002B0CBF01230023DBB2002B02D073
:10215800644B01221A80644B1B8801339AB2624B8C
:102168001A80614B1A885F4B1B889BB29A4234BF16
:1021780001230023DBB2002B40F0AB805A4B002236
:102188001A80574B1B79272B7DD801A252F823F0D0
:1021980039220008512200088F2200088F220008E7
:1021A8008F2200088F2200088F2200088F22000843
:1021B8008F2200088F2200088F2200088F22000833
:1021C8008F2200088F2200088F2200088F22000823
:1021D8008F2200088F2200088F2200088F22000813
:1021E8008F2200088F2200085F220008732200084F
:1021F8008F2200088F2200088F2200088F220008F3
:102208008F2200088F2200088F2200088F220008E2
:102218008F2200088F2200088F2200088F220008D2
:102228008F2200088F2200088F22000881220008D0
:102238000120FFF787FEFFF7BBFE294B1B7901330F
:10224800DAB2274B1A7145E0254B1B790133DAB214
:10225800234B1A713EE00020FFF774FE204B1B79D8
:102268000133DAB21E4B1A7134E01D4B1B7901336E
:10227800DAB21B4B1A712DE00020FFF763FE184BF2
:1022880000221A7126E0164B1B7903F00103002B7C
:1022980016D0134B1B795B08DBB2013BFB71104B6B
:1022A8001B79172B09D80E4B5B881A46FB7942FA23
:1022B80003F303F00103002B04D0FFF763FE01E0F2
:1022C800FFF760FE064B1B790133DAB2044B1A7133
:1022D80000E000BF0837BD4680BD00BF4A030020AC
:1022E800400000204C0000204803002080B400AFCC
:1022F800024B1846BD465DF8047B7047500000202D
:10230800B0B58CB000AF78607B6818220021184601
:102318000AF04DF97B6818330822002118460AF0A4
:1023280046F97B684FF00002C3F894227B684FF0AF
:102338000002C3F898227B684FF00002C3F89C2281
:102348007B6898339FED330A19211846FFF75CF82C
:102358007B6803F5B673DFED2F0A9FED2F0A184649
:10236800FFF704F87B6803F5BC73DFED2A0A9FEDDD
:102378002B0A1846FEF7FAFF294B07F108041D46F9
:102388000FCD0FC40FCD0FC495E8030084E80300F8
:10239800244BBB607B68FB600C233B820323BB742C
:1023A8000423BB82204BBB6103233B771F4B3B625B
:1023B8001F4B7B627B68203307F1080211461846E1
:1023C800FEF73BFA00BF7B6820331846FEF79BFAFE
:1023D800034683F00103DBB2002BF4D17B6803F5DD
:1023E800C2731846FFF7D0F8124B5A687B68C3F8D7
:1023F800A022114B1B68114AA2FB03231A0A7B680F
:10240800C3F8A422786800F01BF800BF3037BD4637
:10241800B0BD00BF000000009A99993E3333333FA6
:1024280028C600088C03002050C600080000204081
:1024380000F07F45001000E004030020D34D621037
:1024480080B582B000AF78607B6820331846FEF70D
:1024580074FA00BF0837BD4680BD000080B582B061
:1024680000AF786039603B680E4A934214D17B68AC
:1024780020331846FEF7C1FA034683F00103DBB2A6
:10248800002B01D0002308E07B68203319467868C8
:1024980000F02AF8012300E0002318460837BD465B
:1024A80080BD00BF8C03002080B483B000AF78608B
:1024B8007B68D3F8983207EE903AB0EE670A0C378B
:1024C800BD465DF8047B704780B483B000AF786088
:1024D8007B68D3F89C3207EE903AB0EE670A0C3767
:1024E800BD465DF8047B704790B585B000AF786055
:1024F80039607B6803F1980400213868FEF72DFBEA
:10250800F0EE407AB0EE670A2046FEF79DFFF0EE47
:10251800407A7B68C3EDA57A7B6803F5B67402211F
:102528003868FEF71AFBF0EE407AB0EE670A2046EC
:10253800FEF737FFF0EE407A7B68C3EDA67A7B683A
:1025480003F5BC7401213868FEF707FBF0EE407A0A
:10255800B0EE670A2046FEF724FFF0EE407A7B686B
:10256800C3EDA77A7B6803F5C2727B68D3EDA67AC0
:102578007B6893EDA77A7B68D3EDA56AB0EE661AFF
:10258800F0EE470AB0EE670A1046FFF7A9F90D4BBF
:102598005B68FB607B68D3F8A032FA68D21A7B6864
:1025A800D3F8A4329A4209D37B68FA68C3F8A02208
:1025B8007B6803F5C2731846FFF7CEF800BF1437DF
:1025C800BD4690BD001000E080B586B000AF3B4628
:1025D80000221A605A609A60DA601A615A61002310
:1025E8003B600023BB6000237B6000233B6140F21B
:1025F800FF737B610123FB603B461946084805F0E1
:1026080069FC0346002B14BF01230023DBB2002B17
:1026180001D000F07FFA00BF1837BD4680BD00BF6B
:10262800CC04002080B485B000AF786087ED000A44
:10263800D7ED007AB3EE047AF4EEC77AF1EE10FA29
:1026480001D5204B3B60D7ED007A9FED1F7AF4EE61
:10265800C77AF1EE10FA01DD1C4B3B60D7ED007A2A
:102668009FED1B7A67EE877AFDEEE77A17EE903AD0
:10267800FB81FB891B0A9BB2DAB27B681A707B6804
:102688000133FA89D2B21A707B68023300221A70B9
:102698007B68033300221A707B68043300221A70A7
:1026A8007B68053300221A707B68063300221A7093
:1026B8007B68073300221A7000BF1437BD465DF8E7
:1026C800047B70470000A0410000484300004843D5
:1026D8000000C84280B483B000AF0346FB71044ACF
:1026E800FB79137000BF0C37BD465DF8047B70475B
:1026F8006103002080B500AF054805F045FC0022C5
:102708000121034805F036FEFFF75EFF00BF80BDDC
:10271800CC04002080B584B000AF87ED010A294AB7
:102728007B681360284B1B685B6C03F08003002BED
:1027380014BF01230023DBB2002B0BD0224805F085
:102748004BFC214805F020FC002201211E4805F021
:1027580011FE34E007F1080397ED010A1846FFF768
:1027680061FF1A4B40F211221A60184B00225A607E
:10277800164B00229A60154B0822DA60134B002290
:102788001A61124B00225A61104B00229A610F4BBA
:102798000022DA610D4B00221A620B4805F0D8FDC1
:1027A8000346002B14BF01230023DBB2002B06D005
:1027B80007F108031A460549034805F07DFC103760
:1027C800BD4680BDF8020020CC0400206403002030
:1027D80080B485B000AF78607B681B781BB21B02A1
:1027E8001AB27B6801331B781BB21343FB817B68E9
:1027F80002331B781BB21B021AB27B6803331B78A7
:102808001BB21343BB817B6804331B781BB21B02CA
:102818001AB27B6805331B781BB213437B817B6834
:1028280006331B781BB21B021AB27B6807331B786E
:102838001BB213433B81B7F90E3007EE903AB8EE5E
:10284800E77ADFED1B6AC7EE267A1A4BC3ED007AEA
:10285800B7F90C3007EE903AB8EEE77ADFED146A74
:10286800C7EE267A144BC3ED007AB7F90A3007EEA3
:10287800903AB8EEE77ADFED0E6AC7EE267A0F4B8C
:10288800C3ED007AB7F9083007EE903AB8EEE77A68
:10289800DFED076AC7EE267A094BC3ED007A094BCC
:1028A80001221A7000BF1437BD465DF8047B7047DB
:1028B8000000C842500300205403002058030020A1
:1028C8005C0300206003002080B58EB000AF786004
:1028D800396007F1080307F110024021786805F014
:1028E8002FFC0346002B0CBF01230023DBB2002B77
:1028F80009D03B6940F21122934204D107F1080341
:102908001846FFF765FF00BF3837BD4680BD80B564
:102918008EB000AF7860396007F1080307F1100244
:102928004121786805F00CFC0346002B0CBF0123FD
:102938000023DBB2002B09D03B6940F211229342FD
:1029480004D107F108031846FFF742FF00BF3837E4
:10295800BD4680BD80B500AFFFF7C8FC03461846EA
:10296800FFF7CEFCFFF794FBFFF7C4FE0120FFF74B
:10297800B1FE024807F08EFE00BF80BDB006002001
:1029880080B582B000AF7860FFF7B0FC0346796885
:102998001846FFF763FD00BF0837BD4680BD00003D
:1029A80080B582B000AF78607B680F4A934217D138
:1029B800FFF79EFB0D4B1B780133DAB20B4B1A70F5
:1029C8000A4B1B78C72B8CBF01230023DBB2002BDB
:1029D80006D0064B00221A70B3EE040AFFF79AFEDF
:1029E80000BF0837BD4680BDB00600208803002020
:1029F80080B483B000AF0346FB8000BF0C37BD46F0
:102A08005DF8047B704780B483B000AF78600B46F4
:102A18007B8000BF0C37BD465DF8047B704780B4EF
:102A280083B000AF786000BF0C37BD465DF8047B0B
:102A3800704780B500AF02F0B9FF00F020F800F051
:102A48006FF800F0E1FA00F0C1FB00F0E3FE00F0DF
:102A580005F900F091FE00F025FE00F047FF00F0B8
:102A68000FFF01F001F800F01FFA00F0FFFA4FF431
:102A7800FA7003F00BF8FFF76DFF00BFFDE780B5B4
:102A880094B000AF07F1180338220021184609F066
:102A98008EFD3B1D00221A605A609A60DA601A6146
:102AA800002004F0B3FC0923BB614FF48033FB61C1
:102AB8000123FB6202237B630323BB630223FB63C3
:102AC80055233B6402237B640223BB640223FB641B
:102AD80007F11803184603F01FF80346002B01D02E
:102AE80000F018F80F237B600323BB600023FB6012
:102AF80000233B6100237B613B1D0421184603F042
:102B08001DFB0346002B01D000F004F800BF50372E
:102B1800BD4680BD80B400AF72B600BF00BFFDE700
:102B280080B58AB000AF07F1140300221A605A601A
:102B38009A60DA601A61464BDB6C454A43F0200321
:102B4800D364434BDB6C03F020033B613B69404B90
:102B5800DB6C3F4A43F00403D3643D4BDB6C03F06A
:102B68000403FB60FB683A4BDB6C394A43F0010312
:102B7800D364374BDB6C03F00103BB60BB68344B99
:102B8800DB6C334A43F00203D364314BDB6C03F054
:102B980002037B607B6800220C212E4804F0BAF8FF
:102BA800002298212C4804F0B5F80C237B610123FE
:102BB800BB610223FB6102233B6207F11403194640
:102BC800244803F025FF4FF400437B614FF488133A
:102BD800BB610223FB6107F1140319464FF09040D3
:102BE80003F016FF4FF4E0537B614FF48813BB6189
:102BF8000223FB6107F114031946164803F008FF86
:102C080018237B610123BB610223FB6102233B6222
:102C180007F114031946104803F0FAFE80237B617C
:102C28001123BB610023FB6102233B6207F11403FC
:102C38001946094803F0ECFE00220021282004F080
:102C480074FD282004F08BFD00BF2837BD4680BDE9
:102C580000100240000800480004004880B590B009
:102C680000AF07F1200320220021184609F09FFC3D
:102C78003B1D00221A605A609A60DA601A615A6134
:102C88009A613C4B3C4A1A603A4B4FF440325A60C6
:102C9800384B00229A60374B0022DA60354B00220D
:102CA8001A61344B01225A61324B08229A61314B26
:102CB80000221A772F4B00225A772E4B03221A62D2
:102CC8002C4B002283F824202A4B4FF4D862DA6276
:102CD800284B4FF480621A63264B012283F8382070
:102CE800244B4FF48052DA63224B002283F84020B1
:102CF800204801F0C3FA0346002B01D0FFF70AFF72
:102D08001E4B3B6206237B620323BB627F23FB626D
:102D180004233B6300237B6307F12003194615480E
:102D280001F0BAFF0346002B01D0FFF7F3FE144B66
:102D38003B620C237B6207F1200319460D4801F022
:102D4800ABFF0346002B01D0FFF7E4FE0D4B3B62BF
:102D580012237B6207F120031946064801F09CFF05
:102D68000346002B01D0FFF7D5FE00BF4037BD4614
:102D780080BD00BF8C030020000500500800900CA7
:102D88001000C0102000F01480B59EB000AF78602D
:102D980007F1640300221A605A609A60DA601A61C7
:102DA80007F1100354220021184609F000FC7B6843
:102DB8001B68384A934268D14FF480333B614FF027
:102DC8000043BB6507F11003184603F0D3FB034625
:102DD800002B01D0FFF79EFE2F4BDB6C2E4A43F4ED
:102DE8008043D3642C4BDB6C03F48043FB60FB68AB
:102DF800294BDB6C284A43F00203D364264BDB6C77
:102E080003F00203BB60BB684FF450437B660323A7
:102E1800BB660023FB6607F1640319461F4803F0ED
:102E2800F7FD1F4B1F4A1A601D4B26225A601C4B88
:102E380000229A601A4B0022DA60194B80221A612C
:102E4800174B4FF480725A61154B4FF480629A61A8
:102E5800134B2022DA61124B4FF480521A62104849
:102E680003F0A2FF0346002B01D0FFF753FE7B6857
:102E78000B4A5A650A4A7B689362002200213D206A
:102E880004F053FC3D2004F06AFC00BF7837BD46CF
:102E980080BD00BF0005005000100240000400483B
:102EA800F80300204400024080B58CB000AF3B46D8
:102EB80030220021184609F07AFB164B164A1A6090
:102EC800144804F066FC0346002B01D0FFF722FEED
:102ED80002233B6000233B7100237B710023BB600E
:102EE8000023FB6000233B6100237B610123BB615E
:102EF8000023FB613B4600221946064804F0CCFC3F
:102F08000346002B01D0FFF705FE00BF3037BD4652
:102F180080BD00BF580400200008005080B58AB06A
:102F280000AF786007F1140300221A605A609A60B3
:102F3800DA601A617B681B682F4A934257D12F4B7E
:102F4800DB6C2E4A43F48033D3642C4BDB6C03F4E4
:102F580080333B613B69294BDB6C284A43F0010312
:102F6800D364264BDB6C03F00103FB60FB68102382
:102F78007B610323BB610023FB6107F1140319463E
:102F88004FF0904003F044FD1D4B1E4A1A601C4B45
:102F980006225A601A4B10229A60194B0022DA60F6
:102FA800174B80221A61164B4FF400725A61144B6A
:102FB8004FF480629A61124B0022DA61104B0022B2
:102FC8001A620F4803F0F0FE0346002B01D0FFF70A
:102FD800A1FD7B680A4A9A60094A7B6893620022CD
:102FE8000021362004F0A1FB362004F0B8FB00BF16
:102FF8002837BD4680BD00BF0008005000100240C1
:103008006C0400201C00024080B582B000AF164B53
:103018009B6C154A43F004039364134B9B6C03F0B9
:1030280004037B607B68104B9B6C0F4A43F00103E1
:1030380093640D4B9B6C03F001033B603B680022DB
:1030480000210B2004F071FB0B2004F088FB002208
:1030580000210E2004F069FB0E2004F080FB00BF65
:103068000837BD4680BD00BF0010024080B500AFE4
:103078001F4B204A1A601E4B00225A601C4B00222C
:103088009A601B4B0022DA60194B01221A74184B04
:1030980000225A74164B00229A74154B11225A6159
:1030A800134B01229A61124B0522DA61104B04225C
:1030B8001A620F4B01225A620D4B01229A620C4B85
:1030C8000122DA620A4B01221A63094B01225A6370
:1030D800074B00229A63064B0022DA63044804F087
:1030E8009FFD0346002B01D0FFF714FD00BF80BDF4
:1030F800CC0400200068004080B59EB000AF786026
:1031080007F1640300221A605A609A60DA601A6153
:1031180007F1100354220021184609F048FA7B6889
:103128001B68274A934247D14FF480533B614FF0C5
:103138000073BB6407F11003184603F01BFA03463B
:10314800002B01D0FFF7E6FC1E4B9B6D1D4A43F098
:10315800007393651B4B9B6D03F00073FB60FB686A
:10316800184BDB6C174A43F00203D364154BDB6C36
:1031780003F00203BB60BB6860237B660223BB6667
:103188000023FB6602233B6709237B6707F164037F
:1031980019460D4803F03CFC00220021562004F09B
:1031A800C4FA562004F0DBFA00220021572004F06C
:1031B800BCFA572004F0D3FA00BF7837BD4680BD6B
:1031C80000680040001002400004004880B5BAB012
:1031D80000AF07F1E00300221A605A6007F1D0033C
:1031E80000221A605A609A60DA6007F17003602260
:1031F8000021184609F0DBF907F1640300221A6080
:103208005A609A6007F1480300221A605A609A606F
:10321800DA601A615A619A6107F1240324220021B5
:10322800184609F0C4F93B1D20220021184609F070
:10323800BEF9CB4BCB4A1A60C94B00225A60C84B27
:1032480000229A60C64805F0F5FB0346002B01D022
:10325800FFF760FC0C21C24805F0BCFC0346002BBC
:1032680001D0FFF757FC0A21BD4805F00BFD0346C6
:10327800002B01D0FFF74EFC0023C7F8E0300223F3
:10328800C7F8E43007F1E0031A460121B44805F015
:1032980055FD0346002B01D0FFF73CFC002201211D
:1032A800AF4805F037FF0346002B01D0FFF732FC8B
:1032B8004FF40033C7F8E0304FF40033C7F8E43078
:1032C80007F1E0031A460421A54805F037FD034637
:1032D800002B01D0FFF71EFC00220421A04805F0B6
:1032E80019FF0346002B01D0FFF714FC49F2C973FC
:1032F800C7F8D0300323C7F8D4300123C7F8D83033
:103308000823C7F8DC3007F1D0031A460621944891
:1033180005F0ECFC0346002B01D0FFF7FBFB102364
:103328003B6700237B670023BB670023FB67012300
:10333800C7F880300023C7F884300023C7F88830E6
:103348000023C7F88C300023C7F890300023C7F853
:1033580094304FF00063C7F898300023C7F89C30CA
:103368000023C7F8A0304FF00053C7F8A43000235B
:10337800C7F8CC3007F170031A460621784806F0E2
:1033880013F80346002B01D0FFF7C4FB4FF6EF7389
:103398007B6607F1640301220621714806F044F9AF
:1033A8000346002B01D0FFF7B5FB43F698237B6655
:1033B80007F1640302220621694806F035F903463D
:1033C800002B01D0FFF7A6FB4FF6EF737B6607F1E2
:1033D800640304220621624806F026F90346002BFE
:1033E80001D0FFF797FB46F64023C7F8D0300023FB
:1033F800C7F8D43007F1D0031A460121584805F020
:1034080075FC0346002B01D0FFF784FB0023BB6447
:1034180000233B6500237B6500233B6607F14803D7
:103428001A4601214E4806F04CF80346002B01D0FD
:10343800FFF770FB00233B6700237B670023C7F877
:10344800A4300023C7F8A8300023C7F8AC30002305
:10345800C7F8B0304FF48073C7F8B4300023C7F80A
:10346800B8304FF48013C7F8C0300223C7F8C4300F
:103478004FF48023C7F8C83007F170031A460121BA
:10348800374805F091FF0346002B01D0FFF742FBB8
:1034980000237B6607F1640301220121304806F00E
:1034A800C3F80346002B01D0FFF734FB44F6206332
:1034B8007B6607F1640304220121294806F0B4F869
:1034C8000346002B01D0FFF725FB0023BB66002332
:1034D800FB6607F1640308220121214806F0A4F8DD
:1034E8000346002B01D0FFF715FB00237B628C23DA
:1034F800BB620023FB6200233B6300237B638C23B6
:10350800BB630023FB6300233B6400237B6407F158
:1035180024031A460121124806F006F80346002B38
:1035280001D0FFF7F7FA00237B600823BB60202354
:10353800FB6000233B6100237B610023BB61002308
:10354800FB6100233B623B1D04220121044806F075
:10355800D9F90346002B07D0FFF7DCFA04E000BFD7
:1035680030050020006801400023BB600023FB6099
:103578003B1D08220121074806F0C4F90346002B29
:1035880001D0FFF7C7FA034800F026F800BFE83774
:10359800BD4680BD3005002080B485B000AF78609E
:1035A8007B681B680A4A93420BD10A4B1B6E094A77
:1035B80043F080631366074B1B6E03F08063FB6068
:1035C800FB6800BF1437BD465DF8047B704700BF39
:1035D800006801400010024080B58AB000AF7860F2
:1035E80007F1140300221A605A609A60DA601A61BF
:1035F8007B681B68284A93424AD1284BDB6C274AD0
:1036080043F00403D364254BDB6C03F004033B61F4
:103618003B69224BDB6C214A43F00103D3641F4B07
:10362800DB6C03F00103FB60FB68C0237B610223B2
:10363800BB610023FB6103233B620D237B6207F11F
:1036480014031946164803F0E3F94FF480737B61BD
:103658000223BB610023FB6103233B6203237B62DC
:1036680007F1140319460E4803F0D2F94FF44063EA
:103678007B610223BB610023FB6103233B620D23B3
:103688007B6207F1140319464FF0904003F0C0F92C
:1036980000BF2837BD4680BD0068014000100240C9
:1036A8000008004880B500AF134B144A1A60124B4B
:1036B80000225A60104B4FF420629A600E4B4FF66E
:1036C800FF725A610C4B00221A620B4B00225A629D
:1036D800094B00229A62084B0022DA62064B00224C
:1036E8001A63054806F00CFE0346002B01D0FFF7CD
:1036F80011FA00BF80BD00BF2C060020007C0040EE
:1037080080B598B000AF786007F10C03542200210F
:10371800184608F04CFF7B681B68154A934223D172
:103728004FF40073FB604FF48023BB6307F10C0375
:10373800184602F01FFF0346002B01D0FFF7EAF9F5
:103748000C4B9B6D0B4A43F000439365094B9B6DF3
:1037580003F00043BB60BB6800220121312003F065
:10376800E4FF312003F0FBFF00BF6037BD4680BD9A
:10377800007C00400010024080B588B000AF07F11F
:10378800100300221A605A609A60DA603B1D00221A
:103798001A605A609A601D4B1D4A1A601B4BAA2278
:1037A8005A601A4B00229A60184B44F62062DA607D
:1037B800164B00221A61154B00229A61134806F035
:1037C80012FF0346002B01D0FFF7A4F94FF48053F2
:1037D8003B6107F1100319460C4807F023F903462B
:1037E800002B01D0FFF796F900237B600023FB60D4
:1037F8003B1D1946054807F0A3FB0346002B01D0E3
:10380800FFF788F900BF2037BD4680BD6406002059
:10381800000C004080B584B000AF3B1D00221A6048
:103828005A609A60144B154A1A60134B10225A605A
:10383800114B00229A60104B40F6C312DA600E4B0F
:1038480000229A610C4806F0CEFE0346002B01D0F8
:10385800FFF760F900237B600023FB603B1D1946DE
:10386800054807F06DFB0346002B01D0FFF752F91E
:1038780000BF1037BD4680BDB006002000100040D4
:1038880080B584B000AF3B1D00221A605A609A6070
:10389800144B154A1A60134BAA225A60114B002286
:1038A8009A60104B41F28832DA600E4B00229A611E
:1038B8000C4806F098FE0346002B01D0FFF72AF9C2
:1038C80000237B600023FB603B1D1946054807F079
:1038D80037FB0346002B01D0FFF71CF900BF103758
:1038E800BD4680BDFC0600200014004080B588B0AD
:1038F80000AF07F1100300221A605A609A60DA607C
:103908003B1D00221A605A609A60204B204A1A60B8
:103918001E4BA9225A601D4B00229A601B4B41F294
:103928008732DA60194B00221A61184B00225A615B
:10393800164B00229A61154806F055FE0346002BE7
:1039480001D0FFF7E7F84FF480533B6107F110030C
:1039580019460E4807F066F80346002B01D0FFF71A
:10396800D9F800237B600023BB600023FB603B1D6C
:103978001946064807F0E4FA0346002B01D0FFF782
:10398800C9F800BF2037BD4680BD00BF48070020EA
:103998000034014080B586B000AF78607B681B6852
:1039A8002C4A934214D12C4B9B6D2B4A43F00803AD
:1039B8009365294B9B6D03F008037B617B690022AB
:1039C8000021322003F0B1FE322003F0C8FE3CE0B3
:1039D8007B681B68214A934214D11F4B9B6D1E4A7A
:1039E80043F0100393651C4B9B6D03F010033B6180
:1039F8003B6900220021362003F097FE362003F0B1
:103A0800AEFE22E07B681B68154A93420CD1124B2C
:103A18009B6D114A43F0200393650F4B9B6D03F098
:103A28002003FB60FB6810E07B681B680D4A93422B
:103A38000BD1094B1B6E084A43F400531366064B1F
:103A48001B6E03F40053BB60BB6800BF1837BD464C
:103A580080BD00BF000C0040001002400010004074
:103A6800001400400034014080B500AF224B234AC7
:103A78001A60214B4FF416525A601F4B00229A606D
:103A88001D4B0022DA601C4B00221A611A4B0C22D3
:103A98005A61194B00229A61174B0022DA61164BC2
:103AA80000221A62144B00225A62134B00229A62B7
:103AB800114807F021FB0346002B01D0FFF72AF835
:103AC80000210D4808F06DFC0346002B01D0FFF7DC
:103AD80021F80021084808F0A2FC0346002B01D079
:103AE800FFF718F8044808F023FC0346002B01D020
:103AF800FFF710F800BF80BD940700200044004085
:103B080080B59EB000AF786007F1640300221A60A8
:103B18005A609A60DA601A6107F110035422002192
:103B2800184608F044FD7B681B68384A934268D100
:103B380002233B610023BB6107F11003184602F022
:103B480019FD0346002B01D0FEF7E4FF304B9B6DB7
:103B58002F4A43F4003393652D4B9B6D03F40033D8
:103B6800FB60FB682A4BDB6C294A43F00103D364F2
:103B7800274BDB6C03F00103BB60BB680C237B663F
:103B88000223BB660023FB6600233B6707237B6792
:103B980007F1640319464FF0904002F039FF1D4BBE
:103BA8001D4A1A601B4B1A225A601A4B00229A604F
:103BB800184B0022DA60174B80221A61154B00223D
:103BC8005A61144B00229A61124B0022DA61114BA0
:103BD80000221A620F4803F0E7F80346002B01D0D1
:103BE800FEF798FF7B680B4AC3F88020094A7B6878
:103BF800936200220021262003F097FD262003F07F
:103C0800AEFD00BF7837BD4680BD00BF0044004010
:103C180000100240280800200800024080B400AFCD
:103C280000BFFDE780B400AF00BFFDE780B400AF80
:103C380000BFFDE780B400AF00BFFDE780B400AF70
:103C480000BFFDE780B400AF00BFBD465DF8047B50
:103C5800704780B400AF00BFBD465DF8047B704775
:103C680080B400AF00BFBD465DF8047B704780B5E7
:103C780000AF01F0EDFE00BF80BD000080B500AFD1
:103C8800024803F074FA00BF80BD00BF2808002076
:103C980080B500AF024803F06AFA00BF80BD00BFDC
:103CA800F803002080B500AF024807F075FA00BF9E
:103CB80080BD00BF9407002080B500AF4FF480603E
:103CC80003F05AF84FF4006003F056F84FF48050B0
:103CD80003F052F84FF4004003F04EF800BF80BDE7
:103CE80080B500AF024806F0A7FB00BF80BD00BF4B
:103CF8002C06002080B500AF024806F043FD00BF47
:103D080080BD00BF6406002080B500AF034806F000
:103D180039FD034803F05FFD00BF80BDB0060020F9
:103D28005804002080B500AF024800F037FD00BFFE
:103D380080BD00BF8C03002080B500AF024804F0AE
:103D4800FFFB00BF80BD00BFCC04002080B500AFE2
:103D5800024804F0F5FB00BF80BD00BFCC04002082
:103D680080B582B000AF114B1B6E104A43F00103BF
:103D780013660E4B1B6E03F001037B607B680B4BD5
:103D88009B6D0A4A43F080539365084B9B6D03F083
:103D980080533B603B6801F0AFFE022001F098FEC3
:103DA80003F0D8FB00BF0837BD4680BD00100240B5
:103DB80080B483B000AF786039607B689B6823F477
:103DC8007C123B681A437B689A6000BF0C37BD467B
:103DD8005DF8047B704780B483B000AF78603960C9
:103DE8007B689B6823F0E0723B681A437B689A60A3
:103DF80000BF0C37BD465DF8047B704780B483B0C4
:103E080000AF78607B689B6803F0E07318460C3756
:103E1800BD465DF8047B704780B487B000AFF8609A
:103E2800B9607A603B60FB6860331A46BB689B00E8
:103E380013447B617B691A68084B13407A6802F067
:103E4800F8413A680A43134343F000427B691A6019
:103E580000BF1C37BD465DF8047B704700F0FF03C8
:103E680080B485B000AF786039607B6860331A46EB
:103E78003B689B001344FB60FB681B6803F0F84336
:103E880018461437BD465DF8047B704780B487B088
:103E980000AFF860B9607A60FB6860331A46BB68A7
:103EA8009B0013447B617B691B6823F000427B689D
:103EB8001A437B691A6000BF1C37BD465DF8047B56
:103EC800704780B487B000AFF860B9607A60FB686B
:103ED80060331A46BB689B0013447B617B691B688F
:103EE80023F080727B681A437B691A6000BF1C3715
:103EF800BD465DF8047B704780B487B000AFF860BA
:103F0800B9607A60FB6860331A46BB689B0013444B
:103F18007B617B691B6823F000727B681A437B69AD
:103F28001A6000BF1C37BD465DF8047B704780B43B
:103F380083B000AF786039607B685B6923F000422A
:103F48003B681A437B685A6100BF0C37BD465DF871
:103F5800047B704780B483B000AF78607B68DB680F
:103F680003F44063002B01D1012300E0002318462D
:103F78000C37BD465DF8047B704780B487B000AF4E
:103F8800F860B9607A60FB6830331A46BB681B0A70
:103F98009B0003F00C0313447B617B691A68BB68C0
:103FA80003F01F031F2101FA03F3DB431A407B6868
:103FB8009B0E03F01F01BB6803F01F0301FA03F314
:103FC8001A437B691A6000BF1C37BD465DF8047B45
:103FD800704780B483B000AF78607B68DB6C03F413
:103FE800C073002B01D1012300E0002318460C37D1
:103FF800BD465DF8047B704780B487B000AFF860B9
:10400800B9607A60FB6814331A46BB685B0E9B0084
:1040180003F0040313447B617B691A68BB681B0DBA
:1040280003F01F03072101FA03F3DB431A40BB68BF
:104038001B0D03F01F03796801FA03F31A437B6928
:104048001A6000BF1C37BD465DF8047B704700004E
:1040580080B485B000AFF860B9607A60FB68D3F8C7
:10406800B020BB68C3F31203DB431A407B6803F03C
:1040780018030849D940BB680B40C3F312031A431D
:10408800FB68C3F8B02000BF1437BD465DF8047B59
:10409800704700BFFFFF070080B483B000AF7860AF
:1040A8007B689B6803F01F0318460C37BD465DF814
:1040B800047B704780B483B000AF78607B689B68EE
:1040C80003F4604318460C37BD465DF8047B70471F
:1040D80080B483B000AF78607B689B6823F020438E
:1040E80023F03F037A68936000BF0C37BD465DF844
:1040F800047B704780B483B000AF78607B689B68AE
:1041080003F00053B3F1005F01D1012300E0002365
:1041180018460C37BD465DF8047B704780B483B001
:1041280000AF78607B689B6823F0104323F03F035F
:1041380043F080527B689A6000BF0C37BD465DF83B
:10414800047B704780B483B000AF78607B689B685D
:1041580003F08053B3F1805F01D1012300E0002315
:1041680018460C37BD465DF8047B704780B483B0B1
:1041780000AF78607B689B6823F0004323F03F031F
:1041880043F001027B689A6000BF0C37BD465DF8BA
:10419800047B704780B483B000AF78607B689B680D
:1041A80023F0004323F03F0343F002027B689A6048
:1041B80000BF0C37BD465DF8047B704780B483B000
:1041C80000AF78607B689B6803F00103012B01D185
:1041D800012300E0002318460C37BD465DF8047B38
:1041E800704780B483B000AF78607B689B6803F049
:1041F8000203022B01D1012300E0002318460C37EB
:10420800BD465DF8047B704780B483B000AF78602A
:104218007B689B6823F0004323F03F0343F00402CC
:104228007B689A6000BF0C37BD465DF8047B704719
:1042380080B483B000AF78607B689B6803F00403A8
:10424800042B01D1012300E0002318460C37BD469A
:104258005DF8047B704780B483B000AF78607B68FA
:104268009B6803F00803082B01D1012300E0002319
:1042780018460C37BD465DF8047B704790B589B089
:1042880000AF78600023FB770023FB607B68002B7E
:1042980001D10123A9E17B685B69002B7B68DB6D99
:1042A800002B09D17868FEF76FFD7B6800221A663B
:1042B8007B68002283F858207B681B681846FFF744
:1042C80019FF0346002B04D07B681B681846FFF7CC
:1042D800FFFE7B681B681846FFF734FF0346002B78
:1042E80015D17B681B681846FFF718FF9C4B1B68A5
:1042F8009B099C4AA2FB03239B0901335B00FB60DB
:1043080002E0FB68013BFB60FB68002BF9D17B688E
:104318001B681846FFF716FF0346002B0DD17B6874
:10432800DB6D43F010027B68DA657B681B6E43F037
:1043380001027B681A660123FB777B681B681846B5
:10434800FFF776FF78617B68DB6D03F01003002BC5
:1043580040F042817B69002B40F03E817B68DB6D39
:1043680023F4817343F002027B68DA657B681B687B
:104378001846FFF723FF0346002B41D17B681B68D3
:10438800B3F1A04F04D07B681B68774A93420FD1E2
:104398004FF0A040FFF712FF04467348FFF70EFFE7
:1043A80003462343002B0CBF01230023DBB212E09A
:1043B8006E48FFF703FF04466D48FFF7FFFE03460C
:1043C8001C436C48FFF7FAFE03462343002B0CBF3F
:1043D80001230023DBB2002B12D07B681B68B3F1EA
:1043E800A04F04D07B681B685F4A934201D1624AA0
:1043F80000E0624A7B685B6819461046FFF7D8FC04
:104408007B685B7F5A037B68DB6B1A437B68DB68DE
:104418001A437B689B681A437B6893F824301B0413
:104428001343BB617B6893F82430012B06D17B686A
:104438009B6A013B5B04BA691343BB617B68DB6A17
:10444800002B09D07B68DB6A03F478727B681B6BEE
:104458001343BA691343BB617B681B68DA68484B2E
:1044680013407A681268B9690B43D3607B681B688C
:104478001B6923F040617B685A6B7B681B680A43A1
:104488001A617B681B681846FFF7E5FE38617B698F
:10449800002B7FD13B69002B7CD17B681B7F9A0363
:1044A8007B6893F838305B001343BB617B681B68FB
:1044B800DB6823F4804323F002037A681268B96941
:1044C8000B43D3607B681B69002B17D07B681B6884
:1044D8001A697B681B6842F480321A617B681B6822
:1044E800D3F8C03023F47F5323F03F037A6811696F
:1044F8007A6812680B43C2F8C03013E07B681B6807
:104508001A697B681B6822F480321A617B681B6811
:10451800D3F8C0307A68126823F47F5323F03F033E
:10452800C2F8C0307B6893F84030012B2AD17B68F1
:104538001B681B6923F4FF6323F004037A68516C3A
:104548007A68926C11437A68D26C11437A68126D5A
:104558000A431A437B681B6842F001021A6119E09A
:1045680004030020632D3E050001005000040050A4
:1045780000050050000600500003005000070050DE
:104588000740F0FF7B681B681A697B681B6822F08C
:1045980001021A617B685B69012B0CD17B681B687F
:1045A8001B6B23F00F017B681B6A5A1E7B681B6814
:1045B8000A431A6307E07B681B681A6B7B681B68F1
:1045C80022F00F021A637B68DB6D23F0030343F0CC
:1045D80001027B68DA6507E07B68DB6D43F0100257
:1045E8007B68DA650123FB77FB7F18462437BD46D5
:1045F80090BD00BF80B586B000AFF860B9607A6042
:10460800FB681B68B3F1A04F04D0FB681B685A4ACB
:10461800934201D1594B00E0594B1846FFF73CFD36
:104628003861FB681B681846FFF702FE0346002B3B
:1046380040F09B80FB6893F85830012B01D102238E
:1046480096E0FB68012283F85820FB681B684D4AF6
:10465800934208D03B69002B05D03B69052B02D05B
:104668003B69092B7AD1F86800F056FF0346FB75C1
:10467800FB7D002B6DD1FB68DB6D23F4706323F0A9
:10468800010343F48072FB68DA65FB681B683A4AE9
:10469800934209D0FB681B683B4A934202D0FB68EF
:1046A8001B6803E0394B01E04FF0A043FA68126839
:1046B800934202D03B69002B05D1FB68DB6D23F4E4
:1046C8008012FB68DA65FB68DB6D03F48053002B0E
:1046D80006D0FB681B6E23F00602FB681A6602E030
:1046E800FB6800221A66FB685B6D294ADA62FB6880
:1046F8005B6D284A1A63FB685B6D274A5A63FB683F
:104708001B681C221A60FB68002283F85820FB688B
:104718001B685A68FB681B6842F010025A60FB6805
:104728001B68DA68FB681B6842F00102DA60FB6804
:10473800586DFB681B6840331946BA687B6802F0FD
:10474800DBFB0346FB75FB681B681846FFF75CFD3F
:104758000DE0FB68002283F8582008E00123FB7570
:10476800FB68002283F8582001E00223FB75FB7DDB
:1047780018461837BD4680BD0001005000030050A0
:1047880000070050000600500005005000040050CB
:104798000B570008E3570008FF57000880B58AB098
:1047A80000AF786000237B627B681B681B68FB6135
:1047B8007B681B685B68BB617B681B68B3F1A04FB3
:1047C80004D07B681B688E4A934201D18D4B00E070
:1047D8008D4B1846FFF760FC7861FB6903F0020314
:1047E800002B17D0BB6903F00203002B12D07B68A3
:1047F800DB6D03F01003002B05D17B68DB6D43F400
:1048080000627B68DA65786801F0C6F87B681B6827
:1048180002221A60FB6903F00403002B04D0BB6971
:1048280003F00403002B0BD1FB6903F00803002BF2
:1048380000F09480BB6903F00803002B00F08E8021
:104848007B68DB6D03F01003002B05D17B68DB6D03
:1048580043F400727B68DA657B681B681846FFF7CB
:1048680079FB0346002B72D07B681B68644A93422D
:1048780009D07B681B68654A934202D07B681B6835
:1048880003E0634B01E04FF0A0437A68126893425B
:1048980008D07B69002B05D07B69052B02D07B698A
:1048A800092B04D17B681B68DB683B6214E07B68DA
:1048B8001B68534A934209D07B681B68534A93424A
:1048C80002D07B681B6803E0514B01E04FF0A04326
:1048D8003B613B69DB683B623B6A03F40053002B96
:1048E80035D17B681B681B6803F00803082B2ED1A1
:1048F8007B681B681846FFF79BFC0346002B1AD100
:104908007B681B685A687B681B6822F00C025A6037
:104918007B68DB6D23F480727B68DA657B68DB6D0E
:1049280003F48053002B12D17B68DB6D43F0010246
:104938007B68DA650BE07B68DB6D43F010027B680F
:10494800DA657B681B6E43F001027B681A6678683B
:10495800FEF716F87B681B680C221A60FB6903F0E7
:104968002003002B04D0BB6903F02003002B0BD1DC
:10497800FB6903F04003002B00F0B380BB6903F030
:104988004003002B00F0AD807B68DB6D03F0100363
:10499800002B05D17B68DB6D43F400527B68DA6538
:1049A8007B681B681846FFF714FBF8607B681B6878
:1049B8001846FFF7CFFAB8607B681B68104A934225
:1049C80009D07B681B68114A934202D07B681B6838
:1049D80003E00F4B01E04FF0A0437A68126893425E
:1049E80008D07B69002B05D07B69062B02D07B6938
:1049F800072B0FD17B681B68DB683B621FE000BF99
:104A0800000100500003005000070050000500504E
:104A1800000400507B681B688B4A934209D07B686E
:104A28001B688A4A934202D07B681B6803E0884B64
:104A380001E04FF0A0433B613B69DB683B62FB68E8
:104A4800002B47D03B6A03F00073002B07D0BB68EC
:104A5800002B3FD03B6A03F40053002B3AD17B680C
:104A68001B681B6803F04003402B33D13B6A03F4F7
:104A78000013002B2ED17B681B681846FFF7EBFB51
:104A88000346002B1AD17B681B685A687B681B6831
:104A980022F060025A607B68DB6D23F480527B68E9
:104AA800DA657B68DB6D03F48073002B12D17B68B9
:104AB800DB6D43F001027B68DA650BE07B68DB6D38
:104AC80043F010027B68DA657B681B6E43F00102D5
:104AD8007B681A66786800F037FF7B681B6860227D
:104AE8001A60FB6903F08003002B11D0BB6903F047
:104AF8008003002B0CD07B68DB6D43F480327B682D
:104B0800DA65786800F0B4F87B681B6880221A6060
:104B1800FB6903F48073002B12D0BB6903F4807324
:104B2800002B0DD07B68DB6D43F400327B68DA65BF
:104B3800786800F01DFF7B681B684FF480721A606C
:104B4800FB6903F40073002B12D0BB6903F40073F4
:104B5800002B0DD07B68DB6D43F480227B68DA651F
:104B6800786800F00FFF7B681B684FF400721A60CA
:104B7800FB6903F01003002B43D0BB6903F010035B
:104B8800002B3ED07B68DB6B002B02D101237B62BC
:104B980021E07B69002B15D07B681B68B3F1A04F1F
:104BA80004D07B681B68284A934201D1294B00E056
:104BB800294B1846FFF77EFA0346002B0BD001233A
:104BC8007B6208E07B681B68DB6803F00103002B4D
:104BD80001D001237B627B6A012B0ED17B68DB6DE0
:104BE80043F480627B68DA657B681B6E43F00202DF
:104BF8007B681A66786800F045F87B681B681022A5
:104C08001A60FB6903F48063002B18D0BB6903F4B6
:104C18008063002B13D07B68DB6D43F480427B6894
:104C2800DA657B681B6E43F008027B681A667B684E
:104C38001B684FF480621A60786800F08FFE00BF2E
:104C48002837BD4680BD00BF000100500005005058
:104C580000040050000300500007005080B483B0E7
:104C680000AF786000BF0C37BD465DF8047B704725
:104C780080B483B000AF786000BF0C37BD465DF8E4
:104C8800047B704780B483B000AF786000BF0C37F6
:104C9800BD465DF8047B704780B5B6B000AF78605C
:104CA8003960002387F8D7300023FB607B6893F8CE
:104CB8005830012B02D1022300F013BC7B6801227B
:104CC80083F858207B681B681846FFF7B1FA03463B
:104CD800002B40F0F3837B6818683B6859683B6891
:104CE8001B681A46FFF749F97B681B681846FFF7E7
:104CF8009FFAC7F8D0007B681B681846FFF7ABFA25
:104D0800C7F8CC00D7F8D030002B40F0D981D7F8BD
:104D1800CC30002B40F0D4813B689B68B3F1004F46
:104D28000FD17B6818683B681B6800221946FFF79B
:104D380063F97B681B684FF000411846FFF7F7F8E6
:104D48000EE07B6818683B6819683B689B681A46E0
:104D5800FFF752F97B681B6800211846FFF7E7F850
:104D68003B685A697B681B68DB68DB0803F0030350
:104D78005B0002FA03F3C7F8C8303B681B69042BD1
:104D880022D07B6818683B6819693B681A68D7F8AD
:104D9800C830FFF741F87B6818683B6819693B68B9
:104DA8009B691A46FFF78DF87B6818683B68196994
:104DB8003B681B7F012B02D14FF0007300E00023FA
:104DC8001A46FFF799F87BE17B681B6800211846B3
:104DD800FFF746F80346C3F31203002B0AD17B689A
:104DE8001B6800211846FFF73BF803469B0E03F0AB
:104DF8001F021EE07B681B6800211846FFF730F889
:104E08000346C7F8BC30D7F8BC3093FAA3F3C7F809
:104E1800C030D7F8C030C7F8B830D7F8B830002B52
:104E280001D1202304E0D7F8B830B3FA83F3DBB21A
:104E38001A463B681B68C3F31203002B05D13B6875
:104E48001B689B0E03F01F0318E03B681B68C7F83C
:104E5800B030D7F8B03093FAA3F3C7F8AC30D7F82E
:104E6800AC30C7F8B430D7F8B430002B01D12023C8
:104E780004E0D7F8B430B3FA83F3DBB29A4206D130
:104E88007B681B68002200211846FEF7FFFF7B683D
:104E98001B6801211846FEF7E3FF0346C3F312031C
:104EA800002B0AD17B681B6801211846FEF7D8FF42
:104EB80003469B0E03F01F021EE07B681B6801215E
:104EC8001846FEF7CDFF0346C7F8A430D7F8A4303C
:104ED80093FAA3F3C7F8A030D7F8A030C7F8A830E2
:104EE800D7F8A830002B01D1202304E0D7F8A83048
:104EF800B3FA83F3DBB21A463B681B68C3F31203A9
:104F0800002B05D13B681B689B0E03F01F0318E0BC
:104F18003B681B68C7F89830D7F8983093FAA3F322
:104F2800C7F89430D7F89430C7F89C30D7F89C303D
:104F3800002B01D1202304E0D7F89C30B3FA83F387
:104F4800DBB29A4206D17B681B6800220121184611
:104F5800FEF79CFF7B681B6802211846FEF780FF5E
:104F68000346C3F31203002B0AD17B681B68022196
:104F78001846FEF775FF03469B0E03F01F021EE05E
:104F88007B681B6802211846FEF76AFF0346C7F8CC
:104F98008C30D7F88C3093FAA3F3C7F88830D7F859
:104FA8008830C7F89030D7F89030002B01D12023F3
:104FB80004E0D7F89030B3FA83F3DBB21A463B68C3
:104FC8001B68C3F31203002B05D13B681B689B0EBB
:104FD80003F01F0316E03B681B68C7F88030D7F85A
:104FE800803093FAA3F3FB67FB6FC7F88430D7F8D8
:104FF8008430002B01D1202304E0D7F88430B3FAA1
:1050080083F3DBB29A4206D17B681B680022022137
:105018001846FEF73BFF7B681B6803211846FEF71E
:105028001FFF0346C3F31203002B0AD17B681B68DA
:1050380003211846FEF714FF03469B0E03F01F02D8
:1050480017E07B681B6803211846FEF709FF034633
:105058007B677B6F93FAA3F33B673B6FBB67BB6FC1
:10506800002B01D1202303E0BB6FB3FA83F3DBB23B
:105078001A463B681B68C3F31203002B05D13B6833
:105088001B689B0E03F01F0311E03B681B68BB669F
:10509800BB6E93FAA3F37B667B6EFB66FB6E002BFD
:1050A80001D1202303E0FB6EB3FA83F3DBB29A420B
:1050B80006D17B681B68002203211846FEF7E6FE2E
:1050C8007B681B681846FFF779F80346002B40F009
:1050D8003D817B6818683B6819683B68DB681A463D
:1050E800FEF7B6FF3B68DB68A24A934240F02E8188
:1050F8007B6818683B681B68C3F31203002B0BD14D
:105108003B681B689B0E013303F01F03092B94BFF8
:1051180001230023DBB219E03B681B68FB65FB6DCC
:1051280093FAA3F3BB65BB6D3B663B6E002B01D1C5
:10513800202303E03B6EB3FA83F3DBB2013303F0C1
:105148001F03092B94BF01230023DBB2002B79D066
:105158003B681B68C3F31203002B07D13B681B682D
:105168009B0E01339B0603F0F84215E03B681B6871
:105178003B653B6D93FAA3F3FB64FB6C7B657B6D2E
:10518800002B01D1202303E07B6DB3FA83F3DBB25C
:1051980001339B0603F0F8423B681B68C3F3120314
:1051A800002B09D13B681B689B0E013303F01F03DA
:1051B800012101FA03F317E03B681B687B647B6CF1
:1051C80093FAA3F33B643B6CBB64BB6C002B01D12B
:1051D800202303E0BB6CB3FA83F3DBB2013303F0A3
:1051E8001F03012101FA03F342EA03013B681B682C
:1051F800C3F31203002B0AD13B681B689B0E0133D3
:1052080003F01F0213465B0013441B0518E03B68BC
:105218001B68BB63BB6B93FAA3F37B637B6BFB637A
:10522800FB6B002B01D1202303E0FB6BB3FA83F364
:10523800DBB2013303F01F0213465B0013441B0566
:105248000B437EE03B681B68C3F31203002B07D1B6
:105258003B681B689B0E01339B0603F0F84215E080
:105268003B681B68FB62FB6A93FAA3F3BB62BB6AE9
:105278003B633B6B002B01D1202303E03B6BB3FA6C
:1052880083F3DBB201339B0603F0F8423B681B68EB
:10529800C3F31203002B09D13B681B689B0E013333
:1052A80003F01F03012101FA03F317E03B681B68B1
:1052B8003B623B6A93FAA3F3FB61FB697B627B6AFF
:1052C800002B01D1202303E07B6AB3FA83F3DBB21E
:1052D800013303F01F03012101FA03F342EA03013A
:1052E8003B681B68C3F31203002B0DD13B681B6896
:1052F8009B0E013303F01F0213465B0013441E3B51
:105308001B0543F000731BE03B681B687B617B69EE
:1053180093FAA3F33B613B69BB61BB69002B01D1E5
:10532800202303E0BB69B3FA83F3DBB2013303F054
:105338001F0213465B0013441E3B1B0543F000731A
:105348000B433A6892681946FEF756FE3B681A689E
:10535800094B1340002B00F0BE807B681B68B3F13B
:10536800A04F04D07B681B68044A93420AD1044BBF
:1053780009E000BF00007F400000088000010050E5
:1053880000030050594B1846FEF738FDC7F8C40013
:105398003B681B68564A934204D03B681B68554AD1
:1053A80093423AD1D7F8C43003F40003002B34D128
:1053B8007B681B68B3F1A04F05D07B681B684E4A19
:1053C800934240F085807B681B68B3F1A04F04D0FE
:1053D8007B681B68494A934201D1494A00E0434A25
:1053E800D7F8C43043F4000319461046FEF7F3FC1F
:1053F800444B1B689B09444AA2FB03239B095A1C84
:1054080013465B0013449B00FB6002E0FB68013B12
:10541800FB60FB68002BF9D15AE03B681B683B4AEC
:10542800934225D1D7F8C43003F08073002B1FD1E5
:105438007B681B68314A934204D17B681B68344AF5
:10544800934247D07B681B68B3F1A04F04D07B68B8
:105458001B682A4A934201D1294A00E0234AD7F817
:10546800C43043F0807319461046FEF7B4FC31E0AF
:105478003B681B68274A93422DD1D7F8C43003F400
:105488008003002B27D17B681B681C4A934222D0DB
:105498007B681B68B3F1A04F04D07B681B68174A70
:1054A800934201D1164A00E0104AD7F8C43043F4B9
:1054B800800319461046FEF78EFC0CE07B68DB6D16
:1054C80043F020027B68DA65012387F8D73002E0D1
:1054D80000BF00E000BF7B68002283F8582097F8DF
:1054E800D7301846D837BD4680BD00BF00070050EA
:1054F800000021C31000C0900006005000010050B9
:105508000003005004030020632D3E05000052C72D
:1055180000050050000084CB80B584B000AF7860EF
:105528000023BB607B681B681846FEF747FE0346EE
:10553800002B76D17B681B689A683C4B1340002B84
:105548000DD07B68DB6D43F010027B68DA657B6801
:105558001B6E43F001027B681A66012362E07B68D8
:105568001B681846FEF702FE7B681B68B3F1A04F64
:1055780004D07B681B682E4A934201D12D4B00E072
:105588002D4B1846FEF73AFC034603F40003002BA4
:1055980013D02A4B1B689B09294AA2FB03239B09AA
:1055A8005A1C13465B0013449B00BB6002E0BB68B7
:1055B800013BBB60BB68002BF9D100F05BFAF860D7
:1055C80028E07B681B681846FEF7F8FD0346002BA9
:1055D80004D17B681B681846FEF7C8FD00F04AFA3C
:1055E8000246FB68D31A022B14D97B681B681B6818
:1055F80003F00103012B0DD07B68DB6D43F0100233
:105608007B68DA657B681B6E43F001027B681A666B
:10561800012307E07B681B681B6803F00103012B6B
:10562800CFD1002318461037BD4680BD3F0000800B
:105638000001005000030050000700500403002040
:10564800632D3E0580B584B000AF78607B681B6829
:105658001846FEF7C6FDF8607B681B681846FEF71B
:10566800ADFD0346002B47D0FB68002B44D17B6877
:105678001B689B6803F00D03012B0CD17B681B682A
:105688001846FEF787FD7B681B6803221A6000F046
:10569800F1F9B86029E07B68DB6D43F010027B68A4
:1056A800DA657B681B6E43F001027B681A6601238A
:1056B80023E000F0DFF90246BB68D31A022B14D9A5
:1056C8007B681B689B6803F00103002B0DD07B6887
:1056D800DB6D43F010027B68DA657B681B6E43F074
:1056E80001027B681A66012307E07B681B689B68D8
:1056F80003F00103002BDCD1002318461037BD4608
:1057080080BD80B584B000AF78607B689B6AFB6021
:10571800FB68DB6D03F05003002B4BD1FB68DB6D9E
:1057280043F40072FB68DA65FB681B681B6803F0CA
:105738000803002B21D0FB681B681846FEF70AFCFB
:105748000346002B32D0FB681B68DB6803F4005368
:10575800002B2BD1FB68DB6D23F48072FB68DA65C4
:10576800FB68DB6D03F48053002B1FD1FB68DB6DF6
:1057780043F00102FB68DA6518E0FB681B68DB6828
:1057880003F00203002B11D1FB68DB6D23F4807258
:10579800FB68DA65FB68DB6D03F48053002B05D1E9
:1057A800FB68DB6D43F00102FB68DA65F868FDF71A
:1057B800E7F80EE0FB68DB6D03F01003002B03D065
:1057C800F868FFF75FFA04E0FB685B6D5B6B78686D
:1057D800984700BF1037BD4680BD80B584B000AF84
:1057E80078607B689B6AFB60F868FFF737FA00BF50
:1057F8001037BD4680BD80B584B000AF78607B6847
:105808009B6AFB60FB68DB6D43F04002FB68DA656E
:10581800FB681B6E43F00402FB681A66F868FFF722
:1058280031FA00BF1037BD4680BD80B483B000AFE9
:10583800786039607B689B6823F0404323F03F031E
:105848003A6802F08042134343F000427B689A6052
:1058580000BF0C37BD465DF8047B704780B483B049
:1058680000AF78607B689B6803F00043B3F1004F9A
:1058780001D1012300E0002318460C37BD465DF82E
:10588800047B704780B584B000AF7860396000232E
:10589800BB607B6893F85830012B01D102234DE09F
:1058A8007B68012283F858207868FFF7CBFE03460F
:1058B800FB73FB7B002B36D17B68DB6D23F48853AD
:1058C80023F0020343F002027B68DA657B681B68F9
:1058D80039681846FFF7A9FF14E0BB680133BB60BD
:1058E800BB68184A93420DD97B68DB6D23F012031D
:1058F80043F010027B68DA657B68002283F8582041
:1059080001231BE07B681B681846FFF7A7FF0346C7
:10591800002BE2D17B68DB6D23F0030343F0010227
:105928007B68DA6505E07B68DB6D43F010027B6815
:10593800DA657B68002283F85820FB7B184610370D
:10594800BD4680BD01DE040080B483B000AF78603E
:1059580000BF0C37BD465DF8047B704780B483B048
:1059680000AF786000BF0C37BD465DF8047B704718
:1059780080B483B000AF786000BF0C37BD465DF8D7
:10598800047B704780B483B000AF786000BF0C37E9
:10599800BD465DF8047B704780B483B000AF786083
:1059A80000BF0C37BD465DF8047B704780B582B0F8
:1059B80000AF0023FB71032001F0ACFE0F2000F0C4
:1059C8000DF80346002B02D00123FB7101E0FEF71E
:1059D800C7F9FB7918460837BD4680BD80B584B045
:1059E80000AF78600023FB73164B1B68002B22D096
:1059F800154B1A68134B1B684FF47A71B1FBF3F31C
:105A0800B2FBF3F3184601F0B8FE0346002B0FD1A2
:105A18007B680F2B09D8002279684FF0FF3001F01E
:105A280084FE0A4A7B68136007E00123FB7304E0E5
:105A38000123FB7301E00123FB73FB7B184610373E
:105A4800BD4680BD0003002004030020FC020020A6
:105A580080B400AF054B1A68054B1B681344034A12
:105A6800136000BFBD465DF8047B704788080020BE
:105A78000003002080B400AF034B1B681846BD46E6
:105A88005DF8047B704700BF8808002080B584B0AB
:105A980000AF7860FFF7EEFFB8607B68FB60FB68DB
:105AA800B3F1FF3F04D0094B1B68FA681344FB604D
:105AB80000BFFFF7DFFF0246BB68D31AFA689A42B5
:105AC800F7D800BF00BF1037BD4680BD00030020D7
