:020000040800F2
:10000000000002204DA10008C9350008D1350008C4
:10001000D9350008E1350008E93500080000000086
:10002000000000000000000000000000F1350008A2
:10003000FF350008000000000D3600081B360008E0
:100040009DA100089DA100089DA100089DA1000898
:100050009DA100089DA100089DA100089DA1000888
:100060009DA100089DA100089DA100089DA1000878
:10007000293600083D36000851360008653600086C
:100080009DA100089DA100089DA100089DA1000858
:100090009DA100089DA100089DA100089DA1000848
:1000A0009DA100089DA100089DA100089DA1000838
:1000B0009DA100089DA100089DA100089DA1000828
:1000C0009DA100089DA100089DA100089DA1000818
:1000D0009DA100089DA100089DA100089DA1000808
:1000E0009DA100089DA100089DA100089DA10008F8
:1000F0009DA100089DA100089DA100089DA10008E8
:100100009DA10008793600088D3600089DA10008E1
:100110009DA100089DA10008A13600089DA100082E
:100120009DA100089DA100089DA100089DA10008B7
:100130009DA100089DA100089DA100089DA10008A7
:100140009DA100089DA100089DA100089DA1000897
:100150009DA100089DA100089DA100089DA1000887
:100160009DA100089DA100089DA100089DA1000877
:100170009DA100089DA100089DA100089DA1000867
:100180009DA100089DA100089DA100089DA1000857
:100190009DA10008000000009DA100089DA100088D
:1001A0009DA100089DA100089DA100089DA1000837
:1001B0009DA100089DA100089DA100089DA1000827
:1001C0009DA100089DA100089DA100089DA1000817
:0801D0009DA100089DA100089B
:1001D800830730B547D0541E002A3ED0CAB2034622
:1001E80001E0013C39D303F8012B9D07F9D1032C19
:1001F8002CD9CDB205EB05250F2C05EB054535D9D6
:10020800A4F1100222F00F0C03F1100EE6444FEA9D
:10021800121C1A46C2E90055C2E90255103272454D
:10022800F8D10CF1010214F00C0F03EB021204F0E8
:100238000F0C13D0ACF1040323F00303043313446D
:1002480042F8045B9342FBD10CF003042CB1C9B211
:100258001C4403F8011BA342FBD130BD644613467E
:10026800002CF4D1F9E703461446C0E71A46A44621
:10027800E0E700BF70B50F4B0F4DAB42A3EB05068F
:1002880007D0B610002455F8043B01349847A6421D
:10029800F9D80AF02BF8094D094B5E1BAB424FEA1F
:1002A800A60606D0002455F8043B01349847A64218
:1002B800F9D870BD3CAB00083CAB00083CAB00086B
:1002C80040AB0008704700BF704700BF704700BFD1
:1002D800704700BF704700BF704700BF01207047DC
:1002E80001207047704700BF704700BF002950D0F9
:1002F80038B551F8043C0C1F002BB8BFE41805466C
:1003080000F0F6F8274A13682BB1A3420CD92168EC
:10031800601883422CD0636028461460BDE83840DA
:1003280000F0ECB8A3420FD81A465B68002BF9D14D
:1003380011685018844217D02CD363605460284643
:10034800BDE8384000F0DAB811685018A04214D05F
:1003580020D8216860188342EFD118685B68084488
:10036800C4E900035460EAE723680B441360E6E736
:1003780018685B6808442060CDE72068014450187D
:1003880083421160DBD1D3E900040144C2E90014BF
:10039800D5E770470C232B602846BDE8384000F0AD
:1003A800ADB800BF6802002070B5104E336805462E
:1003B8000C46B3B12146284600F0A6F8431C0CD0E1
:1003C800C41C24F00304A04205D0211A284600F0DA
:1003D8009BF8013001D0204670BD4FF0FF34204615
:1003E80070BD194600F090F83060E3E76402002021
:1003F8002DE9F843CD1C25F0030508350C2D38BF31
:100408000C25002D064618DBA94216D8DFF8DC803B
:1004180000F06EF8D8F80420A2B1144603E063682F
:1004280022467BB11C4623685B1BF8D40B2B1FD8D4
:100438009442636854D053600CE00C23336000206E
:10044800BDE8F88329463046FFF7AEFF431C044653
:1004580019D00560304600F051F804F10B00231D57
:1004680020F00700C21A1CBF1B1AA350BDE8F8836E
:1004780061199442256014BF5160C8F80410635193
:1004880063684B60E6E7D8F804701FB33C467F68A2
:10049800002FFBD123683946304604EB030900F0EE
:1004A80033F8814516D12368ED1A29463046FFF7FF
:1004B8007BFF01300ED02368D8F804202B4423603A
:1004C800536883B1A34203D01A465B689C42FBD1B0
:1004D8000023B0E70C233360304600F00FF8AEE796
:1004E800C8F80430B6E7C8F80470B3E7640200201F
:1004F8000148FFF7F1BE00BF540200200148FFF792
:10050800F3BE00BF5402002038B5074D0022044650
:1005180008462A6009F0E0FD431C00D038BD2B686E
:10052800002BFBD0236038BD4002002081F0004141
:1005380002E000BF83F0004330B54FEA41044FEAC0
:10054800430594EA050F08BF90EA020F1FBF54EA5B
:10055800000C55EA020C7FEA645C7FEA655C00F0F7
:10056800E2804FEA5454D4EB5555B8BF6D420CDDC8
:100578002C4480EA020281EA030382EA000083EA4B
:10058800010180EA020281EA0303362D88BF30BDEB
:1005980011F0004F4FEA01314FF4801C4CEA113141
:1005A80002D0404261EB410113F0004F4FEA0333A0
:1005B8004CEA133302D0524263EB430394EA050F2B
:1005C80000F0A780A4F10104D5F1200E0DDB02FA9A
:1005D8000EFC22FA05F2801841F1000103FA0EF22E
:1005E800801843FA05F359410EE0A5F120050EF1F4
:1005F800200E012A03FA0EFC28BF4CF0020C43FA25
:1006080005F3C01851EBE37101F0004507D54FF031
:10061800000EDCF1000C7EEB00006EEB0101B1F581
:10062800801F1BD3B1F5001F0CD349085FEA3000C7
:100638004FEA3C0C04F101044FEA445212F5800FD2
:1006480080F09A80BCF1004F08BF5FEA500C50F16F
:10065800000041EB045141EA050130BD5FEA4C0C52
:10066800404141EB0101013C28BFB1F5801FE9D2AF
:1006780091F0000F04BF01460020B1FA81F308BFD2
:100688002033A3F10B03B3F120020CDA0C3208DD9E
:1006980002F1140CC2F10C0201FA0CF021FA02F179
:1006A8000CE002F11402D8BFC2F1200C01FA02F1E9
:1006B80020FA0CFCDCBF41EA0C019040E41AA2BF0E
:1006C80001EB0451294330BD6FEA04041F3C1CDAD6
:1006D8000C340EDC04F11404C4F1200220FA04F0F6
:1006E80001FA02F340EA030021FA04F345EA0301A0
:1006F80030BDC4F10C04C4F1200220FA02F001FA62
:1007080004F340EA0300294630BD21FA04F02946E3
:1007180030BD94F0000F83F4801306BF81F480117C
:100728000134013D4EE77FEA645C18BF7FEA655CEF
:1007380029D094EA050F08BF90EA020F05D054EAC1
:10074800000C04BF1946104630BD91EA030F1EBFC6
:100758000021002030BD5FEA545C05D140004941CA
:1007680028BF41F0004130BD14F580043CBF01F5BD
:10077800801130BD01F0004545F0FE4141F47001A3
:100788004FF0000030BD7FEA645C1ABF194610467E
:100798007FEA655C1CBF0B46024650EA013406BF7F
:1007A80052EA033591EA030F41F4002130BD00BF3E
:1007B80090F0000F04BF0021704730B54FF48064FB
:1007C80004F132044FF000054FF0000150E700BF7C
:1007D80090F0000F04BF0021704730B54FF48064DB
:1007E80004F1320410F0004548BF40424FF00001C8
:1007F8003EE700BF42004FEAE2014FEA31014FEA0B
:1008080002701FBF12F07F4393F07F4F81F0605159
:10081800704732F07F4208BF704793F07F4F04BFA4
:1008280041F40021704730B54FF4607401F0004581
:1008380021F000411CE700BF50EA010208BF7047E1
:1008480030B54FF000050AE050EA010208BF7047D2
:1008580030B511F0004502D5404261EB41014FF43B
:10086800806404F132045FEA915C3FF4D8AE4FF043
:1008780003025FEADC0C18BF03325FEADC0C18BF26
:10088800033202EBDC02C2F1200300FA03FC20FA77
:1008980002F001FA03FE40EA0E0021FA02F11444C4
:1008A800BDE600BF70B54FF0FF0C4CF4E06C1CEADD
:1008B80011541DBF1CEA135594EA0C0F95EA0C0F4E
:1008C80000F0DEF82C4481EA030621EA4C5123EAC1
:1008D8004C5350EA013518BF52EA033541F48011F0
:1008E80043F4801338D0A0FB02CE4FF00005E1FBA3
:1008F80002E506F00042E0FB03E54FF00006E1FBED
:1009080003569CF0000F18BF4EF0010EA4F1FF042F
:10091800B6F5007F64F5407404D25FEA4E0E6D416F
:1009280046EB060642EAC62141EA55514FEAC52080
:1009380040EA5E504FEACE2EB4F1FD0C88BFBCF5FC
:10094800E06F1ED8BEF1004F08BF5FEA500E50F1AD
:10095800000041EB045170BD06F0004646EA010173
:1009680040EA020081EA0301B4EB5C04C2BFD4EBA5
:100978000C0541EA045170BD41F480114FF0000E9E
:10098800013C00F3AB8014F1360FDEBF002001F00C
:10099800004170BDC4F10004203C35DA0C341BDC86
:1009A80004F11404C4F1200500FA05F320FA04F058
:1009B80001FA05F240EA020001F0004221F000418C
:1009C80010EBD37021FA04F642EB06015EEA430EFF
:1009D80008BF20EAD37070BDC4F10C04C4F120052F
:1009E80000FA04F320FA05F001FA04F240EA0200E2
:1009F80001F0004110EBD37041F100015EEA430EB3
:100A080008BF20EAD37070BDC4F1200500FA05F2D2
:100A18004EEA020E20FA04F301FA05F243EA020351
:100A280021FA04F001F0004121FA04F220EA020060
:100A380000EBD3705EEA430E08BF20EAD37070BDA6
:100A480094F0000F0FD101F00046400041EB010186
:100A580011F4801F08BF013CF7D041EA060195F068
:100A6800000F18BF704703F00046520043EB030322
:100A780013F4801F08BF013DF7D043EA060370470F
:100A880094EA0C0F0CEA135518BF95EA0C0F0CD01A
:100A980050EA410618BF52EA4306D1D181EA030160
:100AA80001F000414FF0000070BD50EA410606BF5A
:100AB8001046194652EA430619D094EA0C0F02D19F
:100AC80050EA013613D195EA0C0F05D152EA0336E4
:100AD8001CBF104619460AD181EA030101F0004102
:100AE80041F0FE4141F470014FF0000070BD41F04B
:100AF800FE4141F4780170BD70B54FF0FF0C4CF425
:100B0800E06C1CEA11541DBF1CEA135594EA0C0F43
:100B180095EA0C0F00F0A7F8A4EB050481EA030E90
:100B280052EA03354FEA013100F088804FEA033377
:100B38004FF0805545EA131343EA12634FEA022245
:100B480045EA111545EA10654FEA00260EF0004106
:100B58009D4208BF964244F1FD0404F5407402D258
:100B68005B084FEA3202B61A65EB03055B084FEAE9
:100B780032024FF480104FF4002CB6EB020E75EBE6
:100B8800030E22BFB61A754640EA0C005B084FEA0E
:100B98003202B6EB020E75EB030E22BFB61A75468B
:100BA80040EA5C005B084FEA3202B6EB020E75EBD6
:100BB800030E22BFB61A754640EA9C005B084FEA4E
:100BC8003202B6EB020E75EB030E22BFB61A75465B
:100BD80040EADC0055EA060E18D04FEA051545EA4A
:100BE80016754FEA06164FEAC30343EA52734FEAF3
:100BF800C2025FEA1C1CC0D111F4801F0BD141EA6C
:100C080000014FF000004FF0004CB6E711F4801FD0
:100C180004BF01430020B4F1FD0C88BFBCF5E06FB0
:100C28003FF6AFAEB5EB030C04BFB6EB020C5FEAC0
:100C3800500C50F1000041EB045170BD0EF0004E15
:100C48004EEA113114EB5C04C2BFD4EB0C0541EA47
:100C5800045170BD41F480114FF0000E013C90E644
:100C680045EA060E8DE60CEA135594EA0C0F08BF08
:100C780095EA0C0F3FF43BAF94EA0C0F0AD150EA07
:100C880001347FF434AF95EA0C0F7FF425AF10469A
:100C980019462CE795EA0C0F06D152EA03353FF4C2
:100CA800FDAE1046194622E750EA410618BF52EA3F
:100CB80043067FF4C5AE50EA41047FF40DAF52EA13
:100CC80043057FF4EBAE12E74FF0FF3C06E000BFB0
:100CD8004FF0010C02E000BF4FF0010C4DF804CDBD
:100CE8004FEA410C7FEA6C5C4FEA430C18BF7FEA7D
:100CF8006C5C1BD001B050EA410C0CBF52EA430CAB
:100D080091EA030F02BF90EA020F0020704710F12A
:100D1800000F91EA030F58BF994208BF90422CBFB9
:100D2800D8176FEAE37040F0010070474FEA410CB2
:100D38007FEA6C5C02D150EA013C07D14FEA430CD0
:100D48007FEA6C5CD6D152EA033CD3D05DF8040B41
:100D5800704700BF8446104662468C461946634673
:100D680000E000BF01B5FFF7B7FF002848BF10F14A
:100D7800000F01BD4DF808EDFFF7F4FF0CBF01208F
:100D880000205DF808FB00BF4DF808EDFFF7EAFF0B
:100D980034BF012000205DF808FB00BF4DF808EDC6
:100DA800FFF7E0FF94BF012000205DF808FB00BFBB
:100DB8004DF808EDFFF7CEFF94BF012000205DF845
:100DC80008FB00BF4DF808EDFFF7C4FF34BF012052
:100DD80000205DF808FB00BF4FEA4102B2F1E04392
:100DE80024BFB3F5001CDCF1FE5C0DD901F0004C0A
:100DF8004FEAC0024CEA5070B2F1004F40EB83005A
:100E080008BF20F00100704711F0804F21D113F185
:100E18003872BCBF01F00040704741F480114FEABE
:100E28005252C2F11802C2F1200C10FA0CF320FA47
:100E380002F018BF40F001004FEAC1234FEAD32364
:100E480003FA0CFC40EA0C0023FA02F34FEA4303CE
:100E5800CCE77FEA625307D150EA01331EBF4FF057
:100E6800FE4040F44000704701F0004040F0FE4072
:100E780040F40000704700BF024B01461868FFF7B6
:100E8800B7BA00BF00000020024B01461868FFF700
:100E98002DBA00BF00000020014B1868704700BF42
:100EA8000000002008B52DED028BB0EE408A00F05E
:100EB8001BF8B4EE488AF1EE10FA06D6DFED098A7F
:100EC800B4EEE88AF1EE10FA02D4BDEC028B08BD4C
:100ED800FFF7E2FF88EEA80ABDEC028B212303602E
:100EE80008BD00BF00000000B1EEC00A704700BF97
:100EF80010B5054C237833B9044B13B10448AFF34C
:100F080000800123237010BD6C0200200000000047
:100F1800F4A2000808B5034B1BB103490348AFF31B
:100F2800008008BD0000000070020020F4A2000844
:100F380080B500AF00BF7F21174803F0DFFE0346EE
:100F4800002BF8D110221549134802F0D3FF14489A
:100F580000F0F9F8134800F0F6F8134800F0F3F839
:100F6800124800F0F0F8DFED120AB5EE000A114859
:100F780000F028F8DFED0E0A9FED0F0A0F4800F089
:100F880021F81820FFF778FF03461A460C4B1A6021
:100F98000B4B1B68184680BD0C6600208802002099
:100FA800C4020020940300206404002034050020BB
:100FB8000000000004060020CDCC4C3E10060020A6
:100FC800C002002080B485B000AFF86087ED020A47
:100FD800C7ED010AFB68002B1ED0D7ED027AF5EEAB
:100FE800C07AF1EE10FA02D80E4BBB600AE0D7EDDA
:100FF800027AB7EE007AF4EEC77AF1EE10FA01DB66
:10100800094BBB60FB68BA681A60FB687A685A606B
:10101800FB6801221A7200E000BF1437BD465DF874
:10102800047B7047CDCCCC3D6666663F80B485B006
:1010380000AF786087ED000A7B68002B03D07B68DF
:101048001B7A002B01D13B681AE07B6893ED007A8C
:10105800D7ED007A27EE277A7B68D3ED007AF7EE92
:10106800006A76EEE76A7B68D3ED017A66EEA77AC6
:1010780077EE277AC7ED037A7B68FA685A60FB68CF
:1010880007EE903AB0EE670A1437BD465DF8047B68
:10109800704780B487B000AFF86087ED020A7960C6
:1010A8007B68013B7B610FE07B69013BFA689B0031
:1010B800134404331A68F9687B699B000B440433B2
:1010C8001A607B69013B7B617B69002BECDCFB6868
:1010D800BA685A60FB681B687A689A4202D1FB6852
:1010E80000221A60FB684FF00002C3F8CC200023EE
:1010F8007B6111E0FB6893ED337AFA687B699B00AA
:1011080013440433D3ED007A77EE277AFB68C3EDF6
:10111800337A7B6901337B617A697B689A42E9DBC0
:10112800FB6893ED337A7B6807EE903AF8EEE77A3E
:10113800C7EE276AF0EE667AB0EE670A1C37BD463E
:101148005DF8047B704780B483B000AF78607B683B
:1011580000221A607B684FF00002C3F8CC204FF0E1
:10116800000307EE903AB0EE670A0C37BD465DF80B
:10117800047B704700000000B0B58AB000AF78600B
:101188007B68BB4A934240F05E810023FB840023C6
:10119800BB8400237B8400233B840023FB7725E06A
:1011A800FB7F9B00B34A32F81320FB8C1344FB846B
:1011B800FB7F9B000133AF4A32F81320BB8C1344EA
:1011C800BB84FB7F9B000233AA4A32F813207B8C36
:1011D80013447B84FB7F9B000333A64A32F8132019
:1011E8003B8C13443B84FB7F0133FB77FB7F07EE8B
:1011F800903AF8EEE77AB1EE007AF4EEC77AF1EEBB
:1012080010FACDD43B8C07EE903AB8EEE77A9A4BB9
:10121800D3ED007A27EE277A984BD3ED007A37EE94
:10122800677A974BD3ED007A964B1B8867EE277A3F
:10123800954A9B001344C3ED007ABB8C07EE903AA5
:10124800B8EEE77A8C4BD3ED007A27EE277A8B4BF2
:10125800D3ED007A37EE677A894BD3ED007A894B64
:101268001B8867EE277A884A03F5FA639B001344C4
:10127800C3ED007A7B8C07EE903AF8EE677A834BE1
:101288001B781946B0EE670A8148FFF702FFB0EEF7
:10129800407A794BD3ED007A67EE277A7D4BC3ED20
:1012A800007A7B8C07EE903AF8EE677AB0EE670A20
:1012B8007948FFF7BBFEF0EE407AFCEEE77A17EECE
:1012C800903A7B843B8C07EE903AF8EE677AB0EE62
:1012D800670A7248FFF7AAFEF0EE407AFCEEE77A5A
:1012E80017EE903A3B843B8C07EE903AB8EEE77ADB
:1012F800614BD3ED007A67EE277A694BC3ED007A2C
:101308007B8C07EE903AB8EEE77A5B4BD3ED007A28
:1013180067EE277A634BC3ED007A7B8C07EE903A31
:10132800B8EEE77A544BD3ED007A27EE277A5E4B76
:10133800D3ED007A77EE677A17EE900AFFF75AFA3C
:1013480004460D46564B1B681846FFF753FA0246EB
:101358000B4645A1D1E90001FFF7ECF802460B4620
:1013680020462946FFF7E8F802460B4614461D4674
:101378004E4B1B681846FFF73DFA02460B462046BF
:101388002946FFF78FFA02460B4610461946FFF723
:1013980023FD0346464A13607B8C07EE903AB8EE6D
:1013A800E77A354BD3ED007A27EE277A3E4BD3ED1B
:1013B800007A37EE677A3D4BD3ED007A67EE277AED
:1013C8003C4BC3ED007A2F4B1B881846384B1A68E4
:1013D800394900F57A739B000B441A60294B1B8826
:1013E80001339AB2274B1A80264B1B8840F2ED2214
:1013F800934240F24F81314B1B6804331A4640F246
:10140800EE212F4808F0C8FE2C4B1B6808331A46FB
:1014180040F2EE212B4808F0BFFE284B1B680C3326
:101428001A4640F2EE21184808F0B6FE234B1B6816
:1014380014331A4640F2EE21234808F0ADFE114B52
:1014480000221A8026E17B68204A934240F02281DC
:101458000023BB614FF000037B6100233B61002345
:10146800FB7361E0AFF30080986E1283C0CAF13F4E
:101478000C660020880200200CA3000810A30008B6
:1014880014A30008F06300201C060020540000206C
:1014980094030020E06300200406002010060020CA
:1014A800E8630020DC63002018A300085000002037
:1014B800E4630020EC630020FC340020C00200201C
:1014C8009C4400203C5400205C25002078660020C5
:1014D800FA7B13465B001344774A32F813301A46F6
:1014E800BB691344BB61FA7B13465B0013440133A9
:1014F800714A32F8133007EE903AF8EEE77A97ED32
:10150800057A77EE277AC7ED057AFA7B13465B00F2
:1015180013440233684A32F813301A463B691344BD
:101528003B61FB7B0133FB73FB7B07EE903AF8EEE4
:10153800E77AB1EE007AF4EEC77AF1EE10FAC7D482
:10154800BB6907EE903AF8EE677AF1EE006A87EE2B
:10155800A67ADFED5A6AC7EE267A9FED597A67EECA
:10156800877A17EE900AFFF745F94DA3D3E90023D0
:10157800FEF7E0FF02460B46104619464AA3D3E998
:101588000023FFF78FF902460B464E4909880C469F
:1015980010461946FFF720FC02464B49A3000B44AE
:1015A8001A603B6907EE903AF8EE677AF1EE006A46
:1015B80087EEA67ADFED416AC7EE267A9FED407A7C
:1015C80067EE877A17EE900AFFF714F938A3D3E984
:1015D8000023FEF7AFFF02460B46104619464FF0B0
:1015E80000023A4BFFF75EF902460B463549098877
:1015F8000C4610461946FFF7EFFB0246344904F53E
:101608007A739B000B441A60BB6907EE903AB8EEF8
:10161800677A304BD3ED007A27EE277A2E4BD3ED3D
:10162800007A37EE677A2D4BD3ED007A254B1B886D
:1016380067EE277A244A9B001344C3ED007A3B697E
:1016480007EE903AB8EE677A224BD3ED007A27EE90
:10165800277A234BD3ED007A37EE677A214BD3ED07
:10166800007A184B1B8867EE277A194A03F57A73B4
:101678009B001344C3ED007A124B1B8801339AB2C6
:10168800104B1A800F4B1B88B3F57A7F02D30D4B92
:1016980000221A8000BF2837BD46B0BDAFF30080D6
:1016A8009A9999999999F93F0000006066E6324045
:1016B800EC51B81E85EB0340A802002000F07F45DE
:1016C80081955340F2630020FC3400200000204044
:1016D8001C0600201CA3000820A3000824A300085F
:1016E80010A3000814A3000880B500AF00F04CF860
:1016F800DFED1B2A9FED1B2AF6EE001A9FED181A44
:10170800DFED190A9FED190A0121194800F055FB70
:101718004FF48031174806F084FA4FF40011154849
:1017280006F07FFA4FF48001124806F07AFA124B5D
:101738001B680F4A9362114807F062FAFFF7F8FB3B
:1017480003460F4A1360002204210E4804F0AEFD40
:10175800002208210B4804F0A9FD00BF80BD00BF8E
:101768000000000085EB113F52499D390AD7233C00
:101778008465002040690020580000200C6B002080
:10178800C86500200008004880B582B000AF00237B
:10179800FB8023E0FB8807EE903AF8EEE77A9FEDAE
:1017A800137A27EE877ADFED126AC7EE267AC7ED3D
:1017B800007A97ED000A08F053FDF0EE407A9FEDAD
:1017C8000D7A67EE877AFB88FDEEE77A17EE901AB6
:1017D800094A42F82310FB880133FB80FB88632BFE
:1017E800D8D900BF00BF0837BD4680BDDB0FC94050
:1017F8000000C84200805446F463002080B500AF62
:10180800124B1B68124A9362124B1B6893ED007AC5
:10181800104B1B68D3ED027A37EE277A0D4B1B6805
:10182800D3ED017A77EE277A9FED0B7A67EE877A08
:101838000A4BC3ED007A094BD3ED007AB0EE670A84
:10184800034800F0CBF900BF80BD00BF580000205E
:1018580084650020C865002036CD133FF865002058
:1018680080B584B000AF0023FB73574B1B8801334E
:101878009AB2554B1A80544B1B8842F2107293420D
:1018880002D9514B00221A804F4B1B884F4AA2FBAA
:10189800031292094FF47A7101FB02F29B1A9BB270
:1018A800002B02D10123FB7301E00023FB73484B9B
:1018B8001B78002B62D0FB7B002B5FD0454B1B684D
:1018C8001846FEF797FF3CA3D3E90023FEF734FE42
:1018D80002460B4610461946FFF77EFA03463D4A74
:1018E80013603C4B1B681846FEF784FF34A3D3E90A
:1018F8000023FFF75DFA0346002B03D0354B4FF06A
:1019080000021A60334BD3ED007AFCEEE77AC7ED9C
:10191800017A3B79DBB21A46642302FB03F32E4AB1
:10192800D35C07EE903AF8EE677A2C4BC3ED007A59
:10193800284BD3ED007AFCEEE77AC7ED017A3B79C4
:10194800DBB21A46642302FB03F3234AD35C002B61
:101958000AD001220421224804F0A8FC012208210F
:101968001F4804F0A3FC09E0002204211C4804F0ED
:101978009DFC002208211A4804F098FC194B1B68AA
:1019880043F22052C3F89C22164B1B6849F660723A
:10199800C3F8A822134B1B6843F22052C3F81C2338
:1019A800104B1B6849F66072C3F8282300BF103734
:1019B800BD4680BDAFF300807B14AE47E17A843F1B
:1019C800666666666666F63FFC650020D34D621063
:1019D800FE650020046600205C00002000660020F0
:1019E800000800484069002080B500AF1C4B1B78F8
:1019F800002B17D01B4B1B78002B13D01A4B00223F
:101A08001A80174B00221A70184800F09DFA4FF4FC
:101A18004071174806F0ABF84FF44061144806F0DF
:101A2800A6F817E00E4B1B78002B03D10D4B1B7843
:101A3800002B0FD10C4B1B8801339AB20A4B1A802A
:101A48004FF440710A4806F0BFF84FF44061084867
:101A580006F0BAF8FFF7D2FEFFF702FF00BF80BD1D
:101A6800F5000020F40000200866002084650020AE
:101A78004069002080B582B000AF78607B683F4A3B
:101A8800934202D1FFF7B0FF73E07B683C4A934270
:101A98006FD13C4B1B78002B23D14FF480613A481F
:101AA80004F0ECFB0346012B03D1364B01221A70DC
:101AB8005FE04FF40061344804F0E0FB0346012B7B
:101AC80003D1304B02221A7053E04FF480512E4854
:101AD80004F0D4FB0346012B4BD12A4B03221A7086
:101AE80047E04FF48061284804F0C8FB0346002B08
:101AF80013D1244B1B78012B0FD1224B00221A70D3
:101B0800224BD3ED007AB7EE007A77EE877AB0EE03
:101B1800670A1E4800F03CFA2BE04FF400611A48AF
:101B280004F0ACFB0346002B13D1164B1B78022B99
:101B38000FD1144B00221A70144BD3ED007AB7EE74
:101B4800007A77EEC77AB0EE670A104800F020FAFC
:101B58000FE04FF480510C4804F090FB0346002B33
:101B680007D1084B1B78032B03D1064B00221A70B0
:101B7800FFE700BF0837BD4680BD00BF0C6B0020E3
:101B8800C06A00200A66002000080048CC650020D2
:101B980080B582B000AF786003F09AFA786806F0F2
:101BA800BFFDFFF721FF4FF480610B4804F066FB8F
:101BB8000346012B0CD04FF47A722021786806F086
:101BC8003FFD03F075FA0121002004F0F9FD00E063
:101BD80000BF0837BD4680BD0008004880B584B006
:101BE80000AF786087ED000A7B68D3ED107AF5EED8
:101BF800407AF1EE10FA02D0786800F039F97B6883
:101C08003A685A627B685A697B689A617B681A6984
:101C18007B685A617B6893ED0A7A7B68D3ED097A11
:101C280077EE677A7B68C3ED047A7B681B78002BB4
:101C38005DD17B6893ED047A7B68D3ED057A77EE06
:101C4800677AC7ED037A7B6893ED077A7B68D3EDF3
:101C5800026A7B68D3ED047A66EEA77A77EE277A74
:101C68007B68C3ED077A7B6893ED077A7B68D3EDD1
:101C7800087AB4EEE77AF1EE10FA04DD7B681A6AA6
:101C88007B68DA6114E07B6893ED077A7B68D3EDB3
:101C9800087AF1EE677AB4EEE77AF1EE10FA07D532
:101CA8007B68D3ED087AF1EE677A7B68C3ED077A33
:101CB8007B6893ED017A7B68D3ED047A27EE277A67
:101CC8007B68D3ED077A37EE277A7B68D3ED036A12
:101CD800D7ED037A66EEA77A37EE277A7B68D3EDDD
:101CE8000F7A77EE277A7B68C3ED0C7A3DE07B6844
:101CF8001B78012B39D17B6893ED0C7A7B68D3ED87
:101D0800016A7B6893ED046A7B68D3ED057A76EE09
:101D1800677A66EEA76A7B6893ED036A7B68D3ED02
:101D2800045A7B68D3ED057A77EEA77A75EEE75A01
:101D38007B68D3ED067A75EEA77A66EE277A76EE9B
:101D4800A76A7B6893ED026A7B68D3ED047A66EE36
:101D5800277A76EEA76A7B68D3ED0F7A76EEA77AB4
:101D680077EE277A7B68C3ED0C7A7B689A6A7B6882
:101D7800DA627B6893ED0C7A7B68D3ED0D7AB4EE6A
:101D8800E77AF1EE10FA04DD7B685A6B7B681A6318
:101D980010E07B6893ED0C7A7B68D3ED0E7AB4EE95
:101DA800E77AF1EE10FA00D404E07B689A6B7B685E
:101DB8001A6300BF1037BD4680BD80B48BB000AF3A
:101DC800F8610B4687ED050AC7ED040A87ED031A8B
:101DD800C7ED021A87ED012AC7ED002AFB76FB69D9
:101DE800FA7E1A70FB697A695A60FB693A699A60E7
:101DF800FB69FA68DA60FB69BA681A62FB697A6893
:101E08005A63FB693A689A63FB694FF00002DA612A
:101E1800FB694FF000021A63FB694FF000025A6237
:101E2800FB694FF000029A62FB694FF00002DA6228
:101E3800FB694FF00002DA63FB694FF000021A6495
:101E480000237B620AE0FA697B6A04339B0013442F
:101E58004FF000021A607B6A01337B627B6A022BB7
:101E6800F1DD00BF2C37BD465DF8047B70470000EC
:101E780080B485B000AF78604FF00003FB607B68EA
:101E880093ED0B7A7B68D3ED0A7A77EE677AF5EEF5
:101E9800C07AF1EE10FA08DD7B6893ED0B7A7B6867
:101EA800D3ED0A7A77EE677A09E07B6893ED0B7ACF
:101EB8007B68D3ED0A7A77EE677AF1EE677A7B680A
:101EC80093ED107AF4EEC77AF1EE10FA33D97B6805
:101ED80093ED0B7A7B68D3ED0A7A77EE677AF5EEA5
:101EE800C07AF1EE10FA02DD164BFB6013E07B6856
:101EF80093ED0B7A7B68D3ED0A7A77EE677AF5EE85
:101F0800C07AF1EE10FA03D54FF07E53FB6002E081
:101F18004FF00003FB607B6893ED0B7A7B68D3ED91
:101F2800106AD7ED037A66EEA77A77EE277A7B6890
:101F3800C3ED0A7A00E000BF1437BD465DF8047BA4
:101F4800704700BF000080BF80B485B000AF7860E4
:101F58007B684FF00002DA617B684FF000021A6379
:101F68000023FB600AE07A68FB6804339B00134493
:101F78004FF000021A60FB680133FB60FB68022B1C
:101F8800F1DD00BF00BF1437BD465DF8047B704724
:101F980080B483B000AF786087ED000AD7ED007A8F
:101FA8009FED167AF4EEC77AF1EE10FA01DD144BC4
:101FB8000BE0D7ED007AB3EE047AF4EEC77AF1EECF
:101FC80010FA01D50F4B00E03B683B607B683A682C
:101FD8001A60D7ED007A9FED0C7A67EE876A7B6806
:101FE80093ED017AC6EE877A7B68C3ED027A00BF6B
:101FF8000C37BD465DF8047B704700BF0000C8423F
:102008000000C8420000A041DB0FC94080B500AF06
:1020180002F0DEFF00F01AF800F068F800F05CFD4E
:1020280000F0F4F800F09AFD01F0FAF900F086F9F2
:1020380000F01EFA00F0A4FA01F0A4F901F09AF8F1
:1020480001F000F9FFF750FB00BFFDE780B594B041
:1020580000AF07F11803382200211846FEF7B8F838
:102068003B1D00221A605A609A60DA601A610020EB
:1020780004F0D8FB0123BB614FF48033FB610223DA
:102088007B630323BB630223FB6355233B64022367
:102098007B640223BB640223FB6407F11803184620
:1020A80003F026F80346002B01D000F018F80F23A0
:1020B8007B600323BB600023FB6000233B6100239C
:1020C8007B613B1D0421184603F024FB0346002BCB
:1020D80001D000F004F800BF5037BD4680BD80B481
:1020E80000AF72B600BF00BFFDE7000080B58AB040
:1020F80000AF07F1140300221A605A609A60DA6090
:102108001A613F4BDB6C3E4A43F02003D3643C4BDF
:10211800DB6C03F020033B613B69394BDB6C384ACD
:1021280043F00403D364364BDB6C03F00403FB6019
:10213800FB68334BDB6C324A43F00103D364304B0A
:10214800DB6C03F00103BB60BB682D4BDB6C2C4AD6
:1021580043F00203D3642A4BDB6C03F002037B6079
:102168007B6800220C21274804F0A0F800224FF4D5
:1021780000414FF0904004F099F800228021224855
:1021880004F094F80C237B610123BB610223FB61FB
:1021980002233B6207F1140319461A4803F0ECFEC8
:1021A8004FF400437B611123BB610023FB610123D2
:1021B8003B6207F1140319464FF0904003F0DCFE30
:1021C8004FF4E0537B610023BB610223FB6107F1FD
:1021D800140319460B4803F0CFFE80237B611123BB
:1021E800BB610023FB6101233B6207F1140319461D
:1021F800054803F0C1FE00BF2837BD4680BD00BFBB
:1022080000100240000800480004004880B588B06B
:1022180000AF3B46202200211846FDF7D9FF414B6D
:10222800414A1A603F4B4FF440325A603D4B0022FE
:102238009A603C4B0022DA603A4B00221A61394B13
:1022480001225A61374B04229A61364B00221A77D1
:10225800344B00225A77334B04221A62314B002246
:1022680083F824202F4B4FF4D462DA622D4B4FF4BD
:1022780080621A632B4B012283F83820294B4FF4D4
:102288008052DA63274B002283F84020254801F06A
:1022980075FC0346002B01D0FFF721FF234B3B6061
:1022A80006237B600323BB607F23FB6004233B6121
:1022B80000237B613B4619461A4801F003FF034699
:1022C800002B01D0FFF70BFF194B3B600C237B6001
:1022D8003B461946134801F0F5FE0346002B01D092
:1022E800FFF7FDFE134B3B6012237B603B4619460C
:1022F8000C4801F0E7FE0346002B01D0FFF7EFFE84
:102308000D4B3B6018237B603B461946054801F09E
:10231800D9FE0346002B01D0FFF7E1FE00BF2037AE
:10232800BD4680BD0C660020000100501000C010A2
:102338002000F0140008302E0010603280B58CB0F8
:1023480000AF07F1240300221A605A609A603B1D0F
:10235800202200211846FDF73BFF404B404A1A60F7
:102368003E4B4FF440325A603C4B00229A603B4B44
:102378000022DA60394B00221A61384B01225A6177
:10238800364B04229A61354B00221A77334B0022D0
:102398005A77324B03221A62304B002283F82420EA
:1023A8002E4B4FF4D462DA622C4B4FF480621A63DE
:1023B8002A4B012283F83820284B0022DA63274B66
:1023C800002283F84020254801F0D8FB0346002B63
:1023D80001D0FFF784FE00237B6207F1240319462E
:1023E8001E4802F0EDFC0346002B01D0FFF777FEF4
:1023F8001C4B7B600623BB600223FB607F233B6191
:1024080004237B610023BB613B1D1946134801F07F
:1024180059FE0346002B01D0FFF761FE124B7B608B
:102428000C23BB603B1D19460C4801F04BFE0346CC
:10243800002B01D0FFF753FE0C4B7B601223BB60CF
:102448003B1D1946054801F03DFE0346002B01D00F
:10245800FFF745FE00BF3037BD4680BD78660020D7
:1024680000040050020030042000F0140010603214
:1024780080B588B000AF3B46202200211846FDF702
:10248800A7FE3A4B3A4A1A60384B4FF440325A602A
:10249800364B00229A60354B0022DA60334B00221B
:1024A8001A61324B01225A61304B04229A612F4B38
:1024B80000221A772D4B00225A772C4B03221A62DE
:1024C8002A4B002283F82420284B4FF4D462DA6286
:1024D800264B4FF480621A63244B012283F838207C
:1024E800224B0022DA63214B002283F840201F4848
:1024F80001F044FB0346002B01D0FFF7F0FD1D4B14
:102508003B6006237B600223BB607F23FB600423C0
:102518003B6100237B613B461946144801F0D2FD1C
:102528000346002B01D0FFF7DAFD134B3B600C2369
:102538007B603B4619460D4801F0C4FD0346002B5D
:1025480001D0FFF7CCFD0D4B3B6012237B603B466F
:102558001946064801F0B6FD0346002B01D0FFF7E7
:10256800BEFD00BF2037BD4680BD00BFE466002029
:10257800000500500800900C1000C0102000F01456
:1025880080B588B000AF3B46202200211846FDF7F1
:102598001FFE334B334A1A60314B4FF440325A60B6
:1025A8002F4B00229A602E4B0022DA602C4B00221F
:1025B8001A612B4B01225A61294B04229A61284B3C
:1025C80000221A77264B00225A77254B02221A62DC
:1025D800234B002283F82420214B4FF4D462DA6283
:1025E8001F4B4FF480621A631D4B002283F838207A
:1025F8001B4B0022DA631A4B002283F8402018484C
:1026080001F0BCFA0346002B01D0FFF768FD164B1A
:102618003B6006237B600223BB607F23FB600423AF
:102628003B6100237B613B4619460D4801F04AFD9A
:102638000346002B01D0FFF752FD0C4B3B600C23E7
:102648007B603B461946064801F03CFD0346002BDB
:1026580001D0FFF744FD00BF2037BD4680BD00BF55
:102668005067002000060050020030040400600893
:1026780080B5A6B000AF786007F1840300221A6025
:102688005A609A60DA601A6107F130035422002117
:102698001846FDF79DFD7B681B68884A934240F009
:1026A8009A804FF400433B634FF000537B6707F178
:1026B8003003184603F012FA0346002B01D0FFF747
:1026C8000EFD7F4BDB6C7E4A43F40053D3647C4B96
:1026D800DB6C03F40053FB62FB6A794BDB6C784AD2
:1026E80043F00103D364764BDB6C03F00103BB6258
:1026F800BB6A734BDB6C724A43F00403D364704BC0
:10270800DB6C03F004037B627B6A6D4BDB6C6C4A09
:1027180043F00203D3646A4BDB6C03F002033B62B1
:102728003B6A8023C7F884300323C7F88830002326
:10273800C7F88C3007F1840319464FF0904003F036
:102748001BFC3023C7F884300323C7F888300023E4
:10275800C7F88C3007F1840319465A4803F00CFC7B
:102768000423C7F884300323C7F888300023C7F848
:102778008C3007F184031946534803F0FDFB534B93
:10278800534A1A60514B24225A60504B00229A60D7
:102798004E4B0022DA604D4B80221A614B4B4FF4AE
:1027A80080725A61494B4FF480629A61474B2022EC
:1027B800DA61464B00221A62444803F08FFD034653
:1027C800002B01D0FFF78BFC7B68404A5A653F4AD3
:1027D8007B6893626AE17B681B683E4A934240F0DB
:1027E80081804FF480333B634FF00043BB6707F1B0
:1027F8003003184603F072F90346002B01D0FFF7A7
:102808006EFC354B1B680133334A1360324B1B682F
:10281800012B0BD12A4BDB6C294A43F48043D36448
:10282800274BDB6C03F48043FB61FB69244BDB6CB7
:10283800234A43F00203D364214BDB6C03F0020309
:10284800BB61BB6942F20303C7F884300323C7F8AE
:1028580088300023C7F88C3007F1840319461A48DA
:1028680003F08AFB1D4B1E4A1A601C4B25225A6036
:102878001A4B00229A60194B0022DA60174B80220B
:102888001A61164B4FF480725A61144B4FF48062F0
:102898009A61124B2022DA61104B00221A620F480B
:1028A80003F01CFD0346002B01D0FFF718FC7B68E2
:1028B8000A4A5A65094A7B689362F7E000010050AA
:1028C800001002400008004800040048BC670020CF
:1028D8001C000240000400503C6900201C680020D5
:1028E800300002407B681B68724A93426CD14FF4F7
:1028F80080333B634FF00043BB6707F13003184652
:1029080003F0ECF80346002B01D0FFF7E8FB6A4B15
:102918001B680133684A1360674B1B68012B0BD196
:10292800664BDB6C654A43F48043D364634BDB6CD2
:1029380003F480437B617B69604BDB6C5F4A43F047
:102948000203D3645D4BDB6C03F002033B613B691C
:102958004FF45043C7F884300323C7F88830002366
:10296800C7F88C3007F184031946554803F004FB77
:10297800544B554A1A60534B26225A60514B002239
:102988009A60504B0022DA604E4B80221A614D4B00
:102998004FF480725A614B4B4FF480629A61494BF5
:1029A8002022DA61474B00221A62464803F096FC5F
:1029B8000346002B01D0FFF792FB7B68414A5A651A
:1029C800404A7B68936271E07B681B683F4A934288
:1029D8006CD14FF480333B634FF00043BB6707F182
:1029E8003003184603F07AF80346002B01D0FFF7AE
:1029F80076FB314B1B6801332F4A13602E4B1B6843
:102A0800012B0BD12D4BDB6C2C4A43F48043D36450
:102A18002A4BDB6C03F48043FB60FB68274BDB6CC1
:102A2800264A43F00103D364244BDB6C03F0010313
:102A3800BB60BB684FF44073C7F884300323C7F802
:102A480088300023C7F88C3007F1840319464FF00B
:102A5800904003F091FA1E4B1E4A1A601C4B272225
:102A68005A601B4B00229A60194B0022DA60184BFF
:102A780080221A61164B4FF480725A61144B4FF43E
:102A880080629A61124B2022DA61114B00221A628D
:102A98000F4803F023FC0346002B01D0FFF71FFB70
:102AA8007B680B4A5A650A4A7B68936200BF98376D
:102AB800BD4680BD000500503C6900200010024062
:102AC800000400487C6800204400024000060050D2
:102AD800DC6800205800024080B582B000AF1E4B71
:102AE8009B6C1D4A43F0040393641B4B9B6C03F0DF
:102AF80004037B607B68184B9B6C174A43F0010307
:102B08009364154B9B6C03F001033B603B68002208
:102B180000210C2004F05DF80C2004F074F8002269
:102B280000210D2004F055F80D2004F06CF8002267
:102B380000210E2004F04DF80E2004F064F8002265
:102B480000210F2004F045F80F2004F05CF800BFC6
:102B58000837BD4680BD00BF0010024080B5BAB03E
:102B680000AF07F1E00300221A605A6007F1D003B2
:102B780000221A605A609A60DA6007F170036022D6
:102B880000211846FDF724FB07F1640300221A60B0
:102B98005A609A6007F1480300221A605A609A60E6
:102BA800DA601A615A619A6107F12403242200212C
:102BB8001846FDF70DFB3B1D202200211846FDF7A6
:102BC80007FBC34BC34A1A60C14B00225A60C04B73
:102BD80000229A60BE4804F031F80346002B01D069
:102BE800FFF77DFA0C21BA4804F0F8F80346002BE9
:102BF80001D0FFF774FA0A21B54804F047F90346F3
:102C0800002B01D0FFF76BFA0023C7F8E03002234E
:102C1800C7F8E43007F1E0031A460121AC4804F094
:102C280091F90346002B01D0FFF759FA0022012140
:102C3800A74804F073FB0346002B01D0FFF74FFAB7
:102C48004DF28043C7F8D0300023C7F8D4300123B1
:102C5800C7F8D8300823C7F8DC3007F1D0031A4684
:102C680006219B4804F046F90346002B01D0FFF7E4
:102C780036FA00233B6700237B670023BB670023EA
:102C8800FB670123C7F880300023C7F8843000238E
:102C9800C7F888300023C7F88C300023C7F8903075
:102CA8000023C7F894304FF00063C7F8983000232A
:102CB800C7F89C300023C7F8A0304FF00053C7F87E
:102CC800A4300023C7F8CC3007F170031A46062158
:102CD8007F4804F06DFC0346002B01D0FFF7FFF995
:102CE8004FF6EF737B6607F16403012206217848EB
:102CF80004F09EFD0346002B01D0FFF7F0F949F6DA
:102D0800F0337B6607F1640302220621704804F061
:102D18008FFD0346002B01D0FFF7E1F94FF6EF7363
:102D28007B6607F1640304220621694804F080FDEC
:102D38000346002B01D0FFF7D2F907F164030822FC
:102D48000621634804F074FD0346002B01D0FFF709
:102D5800C6F946F64023C7F8D03007F1D0031A4623
:102D680001215B4804F0C6F80346002B01D0FFF7A9
:102D7800B6F90023BB6400233B6500237B65002371
:102D88003B6607F148031A460121514804F09DFCAF
:102D98000346002B01D0FFF7A2F900233B6700236D
:102DA8007B670023C7F8A8300023C7F8AC3000239E
:102DB800C7F8B0304FF48073C7F8B4300023C7F8B1
:102DC800B8300023C7F8C0301023C7F8C430002338
:102DD800C7F8C83007F170031A4601213C4804F0CF
:102DE800E7FB0346002B01D0FFF779F90023C7F86A
:102DF800B83007F170031A460421354804F0D8FBAF
:102E08000346002B01D0FFF76AF90023C7F8B83052
:102E180007F170031A4605212D4804F0C9FB034643
:102E2800002B01D0FFF75BF906237B6607F16403EB
:102E380001220121264804F0FBFC0346002B01D0A7
:102E4800FFF74DF907F1640304220121204804F03B
:102E5800EFFC0346002B01D0FFF741F900237B620A
:102E68004FF49673BB620023FB6200233B6300238D
:102E78007B634FF49673BB630023FB6300233B64BF
:102E880000237B6407F124031A460121104804F04B
:102E98004FFC0346002B01D0FFF721F907F124036B
:102EA8001A4604210A4804F043FC0346002B01D0CB
:102EB800FFF715F907F124031A460521044804F021
:102EC80037FC0346002B07D0FFF709F904E000BFE1
:102ED800406900200068014000237B600823BB6034
:102EE8002023FB6000233B6100237B610023BB613F
:102EF8000023FB6100233B623B1D0422012159484A
:102F080004F004FE0346002B01D0FFF7E8F83B1D50
:102F18004FF480720421534804F0F8FD0346002B57
:102F280001D0FFF7DCF83B1D4FF4806205214D48C6
:102F380004F0ECFD0346002B01D0FFF7D0F8002386
:102F4800BB600023FB603B1D08220121454804F0BB
:102F5800DDFD0346002B01D0FFF7C1F83B1D4FF400
:102F6800007204213F4804F0D1FD0346002B01D034
:102F7800FFF7B5F83B1D4FF400620521394804F00E
:102F8800C5FD0346002B01D0FFF7A9F84DF2804399
:102F9800C7F8D03007F1D0031A460421314803F0AE
:102FA800A9FF0346002B01D0FFF799F807F1480362
:102FB8001A4604212B4804F088FB0346002B01D055
:102FC800FFF78DF807F1640301220421254804F076
:102FD8002FFC0346002B01D0FFF781F807F16403AB
:102FE800042204211F4804F023FC0346002B01D0CF
:102FF800FFF775F807F1D0031A460521194803F0C1
:1030080079FF0346002B01D0FFF769F807F1480361
:103018001A460521134804F058FB0346002B01D03B
:10302800FFF75DF807F16403012205210D4804F05C
:10303800FFFB0346002B01D0FFF751F807F16403AB
:1030480004220521074804F0F3FB0346002B01D0B6
:10305800FFF745F8034800F027F800BFE837BD46FA
:1030680080BD00BF4069002080B485B000AF7860A3
:103078007B681B680A4A93420BD10A4B1B6E094AAC
:1030880043F080631366074B1B6E03F08063FB609D
:10309800FB6800BF1437BD465DF8047B704700BF6E
:1030A800006801400010024080B58AB000AF786027
:1030B80007F1140300221A605A609A60DA601A61F4
:1030C8007B681B68284A93424AD1284BDB6C274A05
:1030D80043F00403D364254BDB6C03F004033B612A
:1030E8003B69224BDB6C214A43F00103D3641F4B3D
:1030F800DB6C03F00103FB60FB68C0237B610223E8
:10310800BB610023FB6103233B620D237B6207F154
:1031180014031946164802F02FFF4FF440737B61E1
:103128000223BB610023FB6103233B6203237B6211
:1031380007F1140319460E4802F01EFF4FF44063CE
:103148007B610223BB610023FB6103233B620D23E8
:103158007B6207F1140319464FF0904002F00CFF10
:1031680000BF2837BD4680BD0068014000100240FE
:103178000008004880B500AF124B134A1A60114B83
:1031880000225A600F4B00229A600E4B4FF6FF72D6
:103198005A610C4B00221A620A4B00225A62094BF0
:1031A80000229A62074B0022DA62064B00221A6359
:1031B800044805F0A9F90346002B01D0FEF78FFF5C
:1031C80000BF80BD3C6A0020007C004080B598B0FC
:1031D80000AF786007F10C03542200211846FCF771
:1031E800F7FF7B681B68154A934222D14FF400739E
:1031F800FB600023BB6307F10C03184602F06EFC6A
:103208000346002B01D0FEF76AFF0D4B9B6D0C4A5D
:1032180043F0004393650A4B9B6D03F00043BB608A
:10322800BB6800220021312003F0D3FC312003F0D9
:10323800EAFC00BF6037BD4680BD00BF007C00408F
:103248000010024080B598B000AF07F15403002287
:103258001A605A609A6007F1380300221A605A60AF
:103268009A60DA601A615A619A613B1D3422002122
:103278001846FCF7ADFF414B414A1A603F4B1122FB
:103288005A603E4B00229A603C4B4FF4FA62DA6077
:103298003A4B00221A61394B00225A61374B0022FF
:1032A8009A61364805F024FD0346002B01D0FEF74D
:1032B80016FF00237B650023BB650023FB6507F130
:1032C800540319462D4806F085FD0346002B01D00E
:1032D800FEF705FF6023BB630023FB6300233B6409
:1032E80000237B640023BB640023FB6400233B654D
:1032F80007F1380300221946204805F09FFE0346CF
:10330800002B01D0FEF7EBFE07F138030422194623
:103318001A4805F093FE0346002B01D0FEF7DFFEA6
:1033280000237B600023BB600023FB6000233B611C
:1033380000237B614FF40053BB610023FB61002332
:103348003B6200237B624FF00073BB620023FB6289
:1033580000233B6300237B633B1D1946074806F0A7
:10336800CFFD0346002B01D0FEF7B9FE034800F05D
:10337800EFF800BF6037BD4680BD00BF746A00200B
:10338800002C014080B588B000AF07F1100300227F
:103398001A605A609A60DA603B1D00221A605A600F
:1033A8009A601D4B1D4A1A601B4BAA225A601A4B81
:1033B80000229A60184B44F62062DA60164B00220D
:1033C8001A61154B00229A61134805F0C1FB0346A8
:1033D800002B01D0FEF783FE4FF480533B6107F1C9
:1033E800100319460C4805F03DFF0346002B01D099
:1033F800FEF775FE00237B600023FB603B1D19462A
:10340800054806F0E7FC0346002B01D0FEF767FEEF
:1034180000BF2037BD4680BDC06A0020000C0040B8
:1034280080B584B000AF3B1D00221A605A609A60D4
:10343800144B154A1A60134B00225A60114B002294
:103448009A60104B44F26722DA600E4B00229A61B0
:103458000C4805F07DFB0346002B01D0FEF73FFE2C
:1034680000237B600023FB603B1D1946054806F0DE
:10347800B1FC0346002B01D0FEF731FE00BF103728
:10348800BD4680BD0C6B00200010004080B485B0A4
:1034980000AF78607B681B680A4A93420BD10A4BDD
:1034A8001B6E094A43F400631366074B1B6E03F453
:1034B8000063FB60FB6800BF1437BD465DF8047B02
:1034C800704700BF002C01400010024080B584B056
:1034D80000AF78607B681B681A4A934214D11A4B74
:1034E8009B6D194A43F008039365174B9B6D03F0D6
:1034F8000803FB60FB6800220021322003F069FB0F
:10350800322003F080FB18E07B681B680F4A934267
:1035180013D10D4B9B6D0C4A43F0100393650A4B76
:103528009B6D03F01003BB60BB68002200213620AE
:1035380003F04FFB362003F066FB00BF1037BD4693
:1035480080BD00BF000C0040001002400010004089
:1035580080B588B000AF786007F10C0300221A60CC
:103568005A609A60DA601A617B681B68114A934254
:103578001BD1114BDB6C104A43F00403D3640E4B90
:10358800DB6C03F00403BB60BB680323FB6002230E
:103598003B6100237B610023BB610223FB6107F1D0
:1035A8000C031946054802F0E7FC00BF2037BD466A
:1035B80080BD00BF002C01400010024000080048F8
:1035C80080B400AF00BFFDE780B400AF00BFFDE7E7
:1035D80080B400AF00BFFDE780B400AF00BFFDE7D7
:1035E80080B400AF00BFFDE780B400AF00BFBD46A8
:1035F8005DF8047B704780B400AF00BFBD465DF83E
:10360800047B704780B400AF00BFBD465DF8047B03
:10361800704780B500AF01F02DFD00BF80BD0000F0
:1036280080B500AF024802F07CFF00BF80BD00BF3C
:10363800BC67002080B500AF024802F072FF00BFEF
:1036480080BD00BF1C68002080B500AF024802F0B2
:1036580068FF00BF80BD00BF7C68002080B500AF58
:10366800024802F05EFF00BF80BD00BFDC6800209A
:1036780080B500AF024805F087F800BF80BD00BFE5
:103688003C6A002080B500AF024805F088FB00BF07
:1036980080BD00BFC06A002080B500AF024805F0B9
:1036A8007EFB00BF80BD00BF0C6B002080B582B0E0
:1036B80000AF0F4B1B6E0E4A43F0010313660C4B11
:1036C8001B6E03F001037B607B68094B9B6D084A06
:1036D80043F080539365064B9B6D03F080533B602A
:1036E8003B6803F08BF900BF0837BD4680BD00BFBB
:1036F8000010024080B483B000AF786039607B6806
:103708009B6823F47C123B681A437B689A6000BF6D
:103718000C37BD465DF8047B704780B483B000AFBA
:10372800786039607B689B6823F0E0723B681A43D5
:103738007B689A6000BF0C37BD465DF8047B704714
:1037480080B483B000AF78607B689B6803F0E07357
:1037580018460C37BD465DF8047B704780B487B0C7
:1037680000AFF860B9607A603B60FB6860331A4666
:10377800BB689B0013447B617B691A68084B134044
:103788007A6802F0F8413A680A43134343F000426A
:103798007B691A6000BF1C37BD465DF8047B704723
:1037A80000F0FF0380B485B000AF786039607B68B3
:1037B80060331A463B689B001344FB60FB681B6838
:1037C80003F0F84318461437BD465DF8047B70478C
:1037D80080B487B000AFF860B9607A60FB68603386
:1037E8001A46BB689B0013447B617B691B6823F006
:1037F80000427B681A437B691A6000BF1C37BD46CC
:103808005DF8047B704780B487B000AFF860B9609A
:103818007A60FB6860331A46BB689B0013447B617F
:103828007B691B6823F080727B681A437B691A6086
:1038380000BF1C37BD465DF8047B704780B487B075
:1038480000AFF860B9607A60FB6860331A46BB68FD
:103858009B0013447B617B691B6823F000727B68C3
:103868001A437B691A6000BF1C37BD465DF8047BAC
:10387800704780B483B000AF786039607B685B695B
:1038880023F000423B681A437B685A6100BF0C373B
:10389800BD465DF8047B704780B483B000AF7860A4
:1038A8007B68DB6803F44063002B01D1012300E04F
:1038B800002318460C37BD465DF8047B704780B47A
:1038C80087B000AFF860B9607A60FB6830331A4699
:1038D800BB681B0A9B0003F00C0313447B617B69E4
:1038E8001A68BB6803F01F031F2101FA03F3DB43C7
:1038F8001A407B689B0E03F01F01BB6803F01F038F
:1039080001FA03F31A437B691A6000BF1C37BD46EE
:103918005DF8047B704780B487B000AFF860B96089
:103928007A60FB6814331A46BB685B0E9B0003F091
:10393800040313447B617B691A68BB681B0D03F0A1
:103948001F03072101FA03F3DB431A40BB681B0D71
:1039580003F01F03796801FA03F31A437B691A60BD
:1039680000BF1C37BD465DF8047B704780B485B046
:1039780000AFF860B9607A60FB68D3F8B020BB6824
:10398800C3F31203DB431A407B6803F018030849AA
:10399800D940BB680B40C3F312031A43FB68C3F852
:1039A800B02000BF1437BD465DF8047B704700BFE8
:1039B800FFFF070080B483B000AF78607B689B6826
:1039C80003F01F0318460C37BD465DF8047B7047AB
:1039D80080B483B000AF78607B689B6823F0204395
:1039E80023F03F037A68936000BF0C37BD465DF84B
:1039F800047B704780B483B000AF78607B689B68B5
:103A080003F00053B3F1005F01D1012300E000236C
:103A180018460C37BD465DF8047B704780B483B008
:103A280000AF78607B689B6823F0104323F03F0366
:103A380043F080527B689A6000BF0C37BD465DF842
:103A4800047B704780B483B000AF78607B689B6864
:103A580003F08053B3F1805F01D1012300E000231C
:103A680018460C37BD465DF8047B704780B483B0B8
:103A780000AF78607B689B6823F0004323F03F0326
:103A880043F001027B689A6000BF0C37BD465DF8C1
:103A9800047B704780B483B000AF78607B689B6814
:103AA80023F0004323F03F0343F002027B689A604F
:103AB80000BF0C37BD465DF8047B704780B483B007
:103AC80000AF78607B689B6803F00103012B01D18C
:103AD800012300E0002318460C37BD465DF8047B3F
:103AE800704780B483B000AF78607B689B6803F050
:103AF8000203022B01D1012300E0002318460C37F2
:103B0800BD465DF8047B704780B483B000AF786031
:103B18007B689B6823F0004323F03F0343F00402D3
:103B28007B689A6000BF0C37BD465DF8047B704720
:103B380080B483B000AF78607B689B6803F00403AF
:103B4800042B01D1012300E0002318460C37BD46A1
:103B58005DF8047B704780B483B000AF78607B6801
:103B68009B6803F00803082B01D1012300E0002320
:103B780018460C37BD465DF8047B704790B589B090
:103B880000AF78600023FB770023FB607B68002B85
:103B980001D10123A9E17B685B69002B7B68DB6DA0
:103BA800002B09D17868FEF763FD7B6800221A664E
:103BB8007B68002283F858207B681B681846FFF74B
:103BC80019FF0346002B04D07B681B681846FFF7D3
:103BD800FFFE7B681B681846FFF734FF0346002B7F
:103BE80015D17B681B681846FFF718FF9C4B1B68AC
:103BF8009B099C4AA2FB03239B0901335B00FB60E2
:103C080002E0FB68013BFB60FB68002BF9D17B6895
:103C18001B681846FFF716FF0346002B0DD17B687B
:103C2800DB6D43F010027B68DA657B681B6E43F03E
:103C380001027B681A660123FB777B681B681846BC
:103C4800FFF776FF78617B68DB6D03F01003002BCC
:103C580040F042817B69002B40F03E817B68DB6D40
:103C680023F4817343F002027B68DA657B681B6882
:103C78001846FFF723FF0346002B41D17B681B68DA
:103C8800B3F1A04F04D07B681B68774A93420FD1E9
:103C98004FF0A040FFF712FF04467348FFF70EFFEE
:103CA80003462343002B0CBF01230023DBB212E0A1
:103CB8006E48FFF703FF04466D48FFF7FFFE034613
:103CC8001C436C48FFF7FAFE03462343002B0CBF46
:103CD80001230023DBB2002B12D07B681B68B3F1F1
:103CE800A04F04D07B681B685F4A934201D1624AA7
:103CF80000E0624A7B685B6819461046FFF7FAFCE9
:103D08007B685B7F5A037B68DB6B1A437B68DB68E5
:103D18001A437B689B681A437B6893F824301B041A
:103D28001343BB617B6893F82430012B06D17B6871
:103D38009B6A013B5B04BA691343BB617B68DB6A1E
:103D4800002B09D07B68DB6A03F478727B681B6BF5
:103D58001343BA691343BB617B681B68DA68484B35
:103D680013407A681268B9690B43D3607B681B6893
:103D78001B6923F040617B685A6B7B681B680A43A8
:103D88001A617B681B681846FFF7E5FE38617B6996
:103D9800002B7FD13B69002B7CD17B681B7F9A036A
:103DA8007B6893F838305B001343BB617B681B6802
:103DB800DB6823F4804323F002037A681268B96948
:103DC8000B43D3607B681B69002B17D07B681B688B
:103DD8001A697B681B6842F480321A617B681B6829
:103DE800D3F8C03023F47F5323F03F037A68116976
:103DF8007A6812680B43C2F8C03013E07B681B680E
:103E08001A697B681B6822F480321A617B681B6818
:103E1800D3F8C0307A68126823F47F5323F03F0345
:103E2800C2F8C0307B6893F84030012B2AD17B68F8
:103E38001B681B6923F4FF6323F004037A68516C41
:103E48007A68926C11437A68D26C11437A68126D61
:103E58000A431A437B681B6842F001021A6119E0A1
:103E680000010020632D3E050001005000040050B1
:103E780000050050000600500003005000070050E5
:103E88000740F0FF7B681B681A697B681B6822F093
:103E980001021A617B685B69012B0CD17B681B6886
:103EA8001B6B23F00F017B681B6A5A1E7B681B681B
:103EB8000A431A6307E07B681B681A6B7B681B68F8
:103EC80022F00F021A637B68DB6D23F0030343F0D3
:103ED80001027B68DA6507E07B68DB6D43F010025E
:103EE8007B68DA650123FB77FB7F18462437BD46DC
:103EF80090BD00BF80B586B000AFF860B9607A6049
:103F0800FB681B68B3F1A04F04D0FB681B685A4AD2
:103F1800934201D1594B00E0594B1846FFF74AFD2F
:103F28003861FB681B681846FFF702FE0346002B42
:103F380040F09B80FB6893F85830012B01D1022395
:103F480096E0FB68012283F85820FB681B684D4AFD
:103F5800934208D03B69002B05D03B69052B02D062
:103F68003B69092B7AD1F86800F0ECFC0346FB7535
:103F7800FB7D002B6DD1FB68DB6D23F4706323F0B0
:103F8800010343F48072FB68DA65FB681B683A4AF0
:103F9800934209D0FB681B683B4A934202D0FB68F6
:103FA8001B6803E0394B01E04FF0A043FA68126840
:103FB800934202D03B69002B05D1FB68DB6D23F4EB
:103FC8008012FB68DA65FB68DB6D03F48053002B15
:103FD80006D0FB681B6E23F00602FB681A6602E037
:103FE800FB6800221A66FB685B6D294ADA62FB6887
:103FF8005B6D284A1A63FB685B6D274A5A63FB6846
:104008001B681C221A60FB68002283F85820FB6892
:104018001B685A68FB681B6842F010025A60FB680C
:104028001B68DA68FB681B6842F00102DA60FB680B
:10403800586DFB681B6840331946BA687B6802F004
:10404800F5F90346FB75FB681B681846FFF75CFD2E
:104058000DE0FB68002283F8582008E00123FB7577
:10406800FB68002283F8582001E00223FB75FB7DE2
:1040780018461837BD4680BD0001005000030050A7
:1040880000070050000600500005005000040050D2
:10409800374B00080F4C00082B4C000880B483B045
:1040A80000AF786000BF0C37BD465DF8047B7047F1
:1040B80080B483B000AF786000BF0C37BD465DF8B0
:1040C800047B704780B5B6B000AF786039600023D4
:1040D80087F8D7300023FB607B6893F85830012BB2
:1040E80002D1022300F013BC7B68012283F8582018
:1040F8007B681B681846FFF71BFD0346002B40F042
:10410800F3837B6818683B6859683B681B681A46E4
:10411800FFF7D5FB7B681B681846FFF709FDC7F852
:10412800D0007B681B681846FFF715FDC7F8CC0060
:10413800D7F8D030002B40F0D981D7F8CC30002BFD
:1041480040F0D4813B689B68B3F1004F0FD17B6886
:1041580018683B681B6800221946FFF7DCFB7B6880
:104168001B684FF000411846FFF783FB0EE07B68A1
:1041780018683B6819683B689B681A46FFF7CBFBD1
:104188007B681B6800211846FFF773FB3B685A6978
:104198007B681B68DB68DB0803F003035B0002FA3B
:1041A80003F3C7F8C8303B681B69042B22D07B682F
:1041B80018683B6819693B681A68D7F8C830FFF770
:1041C800CDFA7B6818683B6819693B689B691A4691
:1041D800FFF719FB7B6818683B6819693B681B7F08
:1041E800012B02D14FF0007300E000231A46FFF7BD
:1041F80025FB7BE17B681B6800211846FFF7D2FA94
:104208000346C3F31203002B0AD17B681B68002105
:104218001846FFF7C7FA03469B0E03F01F021EE07D
:104228007B681B6800211846FFF7BCFA0346C7F8ED
:10423800BC30D7F8BC3093FAA3F3C7F8C030D7F82E
:10424800C030C7F8B830D7F8B830002B01D12023D8
:1042580004E0D7F8B830B3FA83F3DBB21A463B6808
:104268001B68C3F31203002B05D13B681B689B0E28
:1042780003F01F0318E03B681B68C7F8B030D7F895
:10428800B03093FAA3F3C7F8AC30D7F8AC30C7F81E
:10429800B430D7F8B430002B01D1202304E0D7F88C
:1042A800B430B3FA83F3DBB29A4206D17B681B6859
:1042B800002200211846FFF78BFA7B681B68012152
:1042C8001846FFF76FFA0346C3F31203002B0AD10F
:1042D8007B681B6801211846FFF764FA03469B0EAA
:1042E80003F01F021EE07B681B6801211846FFF7D8
:1042F80059FA0346C7F8A430D7F8A43093FAA3F3C1
:10430800C7F8A030D7F8A030C7F8A830D7F8A83039
:10431800002B01D1202304E0D7F8A830B3FA83F3A7
:10432800DBB21A463B681B68C3F31203002B05D1A6
:104338003B681B689B0E03F01F0318E03B681B6873
:10434800C7F89830D7F8983093FAA3F3C7F89430A1
:10435800D7F89430C7F89C30D7F89C30002B01D19F
:10436800202304E0D7F89C30B3FA83F3DBB29A42F7
:1043780006D17B681B68002201211846FFF728FA3E
:104388007B681B6802211846FFF70CFA0346C3F343
:104398001203002B0AD17B681B6802211846FFF71D
:1043A80001FA03469B0E03F01F021EE07B681B68A0
:1043B80002211846FFF7F6F90346C7F88C30D7F8FC
:1043C8008C3093FAA3F3C7F88830D7F88830C7F849
:1043D8009030D7F89030002B01D1202304E0D7F893
:1043E8009030B3FA83F3DBB21A463B681B68C3F319
:1043F8001203002B05D13B681B689B0E03F01F03BB
:1044080016E03B681B68C7F88030D7F8803093FA0D
:10441800A3F3FB67FB6FC7F88430D7F88430002B11
:1044280001D1202304E0D7F88430B3FA83F3DBB258
:104438009A4206D17B681B68002202211846FFF7C2
:10444800C7F97B681B6803211846FFF7ABF90346D9
:10445800C3F31203002B0AD17B681B68032118469B
:10446800FFF7A0F903469B0E03F01F0217E07B68D5
:104478001B6803211846FFF795F903467B677B6F96
:1044880093FAA3F33B673B6FBB67BB6F002B01D16C
:10449800202303E0BB6FB3FA83F3DBB21A463B6811
:1044A8001B68C3F31203002B05D13B681B689B0EE6
:1044B80003F01F0311E03B681B68BB66BB6E93FAF1
:1044C800A3F37B667B6EFB66FB6E002B01D120237A
:1044D80003E0FB6EB3FA83F3DBB29A4206D17B6842
:1044E8001B68002203211846FFF772F97B681B68D6
:1044F8001846FFF7E3FA0346002B40F03D817B683E
:1045080018683B6819683B68DB681A46FFF72EFA9B
:104518003B68DB68A24A934240F02E817B681868AA
:104528003B681B68C3F31203002B0BD13B681B6865
:104538009B0E013303F01F03092B94BF01230023B3
:10454800DBB219E03B681B68FB65FB6D93FAA3F3CC
:10455800BB65BB6D3B663B6E002B01D1202303E09E
:104568003B6EB3FA83F3DBB2013303F01F03092B6D
:1045780094BF01230023DBB2002B79D03B681B6872
:10458800C3F31203002B07D13B681B689B0E013352
:104598009B0603F0F84215E03B681B683B653B6DE2
:1045A80093FAA3F3FB64FB6C7B657B6D002B01D155
:1045B800202303E07B6DB3FA83F3DBB201339B0660
:1045C80003F0F8423B681B68C3F31203002B09D1C0
:1045D8003B681B689B0E013303F01F03012101FA9E
:1045E80003F317E03B681B687B647B6C93FAA3F3C7
:1045F8003B643B6CBB64BB6C002B01D1202303E004
:10460800BB6CB3FA83F3DBB2013303F01F03012160
:1046180001FA03F342EA03013B681B68C3F3120380
:10462800002B0AD13B681B689B0E013303F01F0265
:1046380013465B0013441B0518E03B681B68BB630B
:10464800BB6B93FAA3F37B637B6BFB63FB6B002B66
:1046580001D1202303E0FB6BB3FA83F3DBB2013310
:1046680003F01F0213465B0013441B050B437EE057
:104678003B681B68C3F31203002B07D13B681B6818
:104688009B0E01339B0603F0F84215E03B681B685C
:10469800FB62FB6A93FAA3F3BB62BB6A3B633B6BA7
:1046A800002B01D1202303E03B6BB3FA83F3DBB289
:1046B80001339B0603F0F8423B681B68C3F31203FF
:1046C800002B09D13B681B689B0E013303F01F03C5
:1046D800012101FA03F317E03B681B683B623B6A60
:1046E80093FAA3F3FB61FB697B627B6A002B01D120
:1046F800202303E07B6AB3FA83F3DBB2013303F0D0
:104708001F03012101FA03F342EA03013B681B6816
:10471800C3F31203002B0DD13B681B689B0E0133BA
:1047280003F01F0213465B0013441E3B1B0543F0B6
:1047380000731BE03B681B687B617B6993FAA3F3FA
:104748003B613B69BB61BB69002B01D1202303E0BE
:10475800BB69B3FA83F3DBB2013303F01F021346DC
:104768005B0013441E3B1B0543F000730B433A6880
:1047780092681946FFF7CFF83B681A68094B13404F
:10478800002B00F0BE807B681B68B3F1A04F04D0FB
:104798007B681B68044A93420AD1044B09E000BFB6
:1047A80000007F4000000880000100500003005016
:1047B800594B1846FEF7C4FFC7F8C4003B681B688E
:1047C800564A934204D03B681B68554A93423AD1F3
:1047D800D7F8C43003F40003002B34D17B681B687E
:1047E800B3F1A04F05D07B681B684E4A934240F056
:1047F80085807B681B68B3F1A04F04D07B681B6879
:10480800494A934201D1494A00E0434AD7F8C430A3
:1048180043F4000319461046FEF77FFF444B1B681C
:104828009B09444AA2FB03239B095A1C13465B00BD
:1048380013449B00FB6002E0FB68013BFB60FB68E4
:10484800002BF9D15AE03B681B683B4A934225D1BB
:10485800D7F8C43003F08073002B1FD17B681B6826
:10486800314A934204D17B681B68344A934247D04B
:104878007B681B68B3F1A04F04D07B681B682A4A89
:10488800934201D1294A00E0234AD7F8C43043F0C3
:10489800807319461046FEF740FF31E03B681B68FD
:1048A800274A93422DD1D7F8C43003F48003002B54
:1048B80027D17B681B681C4A934222D07B681B68FF
:1048C800B3F1A04F04D07B681B68174A934201D10B
:1048D800164A00E0104AD7F8C43043F4800319465A
:1048E8001046FEF71AFF0CE07B68DB6D43F02002F0
:1048F8007B68DA65012387F8D73002E000BF00E063
:1049080000BF7B68002283F8582097F8D7301846F4
:10491800D837BD4680BD00BF00070050000021C346
:104928001000C09000060050000100500003005025
:1049380000010020632D3E05000052C7000500500D
:10494800000084CB80B584B000AF78600023BB60E2
:104958007B681B681846FFF7B1F80346002B76D131
:104968007B681B689A683C4B1340002B0DD07B6812
:10497800DB6D43F010027B68DA657B681B6E43F0E1
:1049880001027B681A66012362E07B681B6818468F
:10499800FFF76CF87B681B68B3F1A04F04D07B6805
:1049A8001B682E4A934201D12D4B00E02D4B18462F
:1049B800FEF7C6FE034603F40003002B13D02A4B70
:1049C8001B689B09294AA2FB03239B095A1C13460F
:1049D8005B0013449B00BB6002E0BB68013BBB600B
:1049E800BB68002BF9D100F057FBF86028E07B6822
:1049F8001B681846FFF762F80346002B04D17B6852
:104A08001B681846FFF732F800F046FB0246FB68C1
:104A1800D31A022B14D97B681B681B6803F00103A7
:104A2800012B0DD07B68DB6D43F010027B68DA65E3
:104A38007B681B6E43F001027B681A66012307E05E
:104A48007B681B681B6803F00103012BCFD100238F
:104A580018461037BD4680BD3F0000800001005059
:104A6800000300500007005000010020632D3E05A0
:104A780080B584B000AF78607B681B681846FFF784
:104A880030F8F8607B681B681846FFF717F803468C
:104A9800002B47D0FB68002B44D17B681B689B68C0
:104AA80003F00D03012B0CD17B681B681846FEF739
:104AB800F1FF7B681B6803221A6000F0EDFAB8600A
:104AC80029E07B68DB6D43F010027B68DA657B6860
:104AD8001B6E43F001027B681A66012323E000F095
:104AE800DBFA0246BB68D31A022B14D97B681B6811
:104AF8009B6803F00103002B0DD07B68DB6D43F04E
:104B080010027B68DA657B681B6E43F001027B68E4
:104B18001A66012307E07B681B689B6803F00103A2
:104B2800002BDCD1002318461037BD4680BD80B568
:104B380084B000AF78607B689B6AFB60FB68DB6DC4
:104B480003F05003002B4BD1FB68DB6D43F400727C
:104B5800FB68DA65FB681B681B6803F00803002B19
:104B680021D0FB681B681846FEF796FE0346002B0B
:104B780032D0FB681B68DB6803F40053002B2BD191
:104B8800FB68DB6D23F48072FB68DA65FB68DB6D1C
:104B980003F48053002B1FD1FB68DB6D43F0010247
:104BA800FB68DA6518E0FB681B68DB6803F0020342
:104BB800002B11D1FB68DB6D23F48072FB68DA658A
:104BC800FB68DB6D03F48053002B05D1FB68DB6DBC
:104BD80043F00102FB68DA65F868FCF7CDFA0EE0ED
:104BE800FB68DB6D03F01003002B03D0F868FFF7B8
:104BF8005FFA04E0FB685B6D5B6B7868984700BF01
:104C08001037BD4680BD80B584B000AF78607B6842
:104C18009B6AFB60F868FFF741FA00BF1037BD4692
:104C280080BD80B584B000AF78607B689B6AFB600C
:104C3800FB68DB6D43F04002FB68DA65FB681B6EBE
:104C480043F00402FB681A66F868FFF731FA00BF00
:104C58001037BD4680BD80B483B000AF78607B68F4
:104C68009B6803F00103012B01D1012300E000231D
:104C780018460C37BD465DF8047B704780B483B096
:104C880000AF786039607B689B6823F0404323F06D
:104C98003F033A6802F08042134343F000427B68C6
:104CA8009A6000BF0C37BD465DF8047B704780B43E
:104CB80083B000AF78607B689B6803F00043B3F172
:104CC800004F01D1012300E0002318460C37BD46F0
:104CD8005DF8047B704780B483B000AF78607B6870
:104CE8009B6803F00403042B01D1012300E0002397
:104CF80018460C37BD465DF8047B704780B584B014
:104D080000AF786039600023BB607B6893F8583047
:104D1800012B01D102234DE07B68012283F8582042
:104D28007868FFF7A5FE0346FB73FB7B002B36D1A3
:104D38007B68DB6D23F4885323F0020343F00202FF
:104D48007B68DA657B681B6839681846FFF796FF49
:104D580014E0BB680133BB60BB68184A93420DD9A5
:104D68007B68DB6D23F0120343F010027B68DA6581
:104D78007B68002283F8582001231BE07B681B68AE
:104D88001846FFF794FF0346002BE2D17B68DB6DE2
:104D980023F0030343F001027B68DA6505E07B68D2
:104DA800DB6D43F010027B68DA657B68002283F8CC
:104DB8005820FB7B18461037BD4680BD01DE040035
:104DC80090B5A1B000AF78603960002387F87F30D4
:104DD8007B6893F85830012B01D10223E7E07B6808
:104DE800012283F8582000237B660023BB667B687A
:104DF8001B68B3F1A04F02D16F4BBB6009E07B6821
:104E08001B686E4A934202D16D4BBB6001E00023E0
:104E1800BB60BB68002B0BD17B68DB6D43F02002C5
:104E28007B68DA657B68002283F858200123BEE09E
:104E3800BB681846FFF74FFFB8677B681B681846C2
:104E4800FFF749FF0346002B40F0A080BB6F002B03
:104E580040F09C807B681B68B3F1A04F04D07B684E
:104E68001B68554A934201D1564B00E0564B7B676D
:104E78003B681B68002B4BD07B6F9B6823F4604218
:104E88003B6859687B6893F838305B030B431A43D7
:104E98007B6F9A607B681B68B3F1A04F04D07B6876
:104EA8001B68454A93420FD14FF0A040FFF7D3FE4D
:104EB80004464148FFF7CFFE03462343002B0CBFAF
:104EC80001230023DBB212E03C48FFF7C4FE04468E
:104ED8003B48FFF7C0FE03461C433C48FFF7BBFEB8
:104EE80003462343002B0CBF01230023DBB2002B16
:104EF80056D07B6F9B6823F4716323F00F033A68E5
:104F080011683A6892680A431A437B6F9A6047E0CF
:104F18007B6F9B6823F460427B6F9A607B681B6899
:104F2800B3F1A04F04D07B681B68234A93420FD18A
:104F38004FF0A040FFF78FFE04461F48FFF78BFE97
:104F480003462343002B0CBF01230023DBB212E0EE
:104F58001A48FFF780FE04461948FFF77CFE03460F
:104F68001C431A48FFF777FE03462343002B0CBF68
:104F780001230023DBB2002B12D07B6F9B6823F444
:104F8800716323F00F037A6F936009E07B68DB6D30
:104F980043F020027B68DA65012387F87F3000E060
:104FA80000BF7B68002283F8582097F87F301846A6
:104FB8008437BD4690BD00BF00010050000400507A
:104FC8000005005000030050000700500006005084
:104FD80080B582B000AF0023FB71032001F0EEFD25
:104FE8000F2000F00DF80346002B02D00123FB71BF
:104FF80001E0FEF75BFBFB7918460837BD4680BD2C
:1050080080B584B000AF78600023FB73164B1B6833
:10501800002B22D0154B1A68134B1B684FF47A717A
:10502800B1FBF3F3B2FBF3F3184601F0FAFD0346C4
:10503800002B0FD17B680F2B09D8002279684FF01D
:10504800FF3001F0C6FD0A4A7B68136007E00123C0
:10505800FB7304E00123FB7301E00123FB73FB7B7B
:1050680018461037BD4680BDFC0000200001002016
:10507800F800002080B400AF054B1A68054B1B6888
:105088001344034A136000BFBD465DF8047B7047B4
:10509800586B0020FC00002080B400AF034B1B6855
:1050A8001846BD465DF8047B704700BF586B00206A
:1050B80080B400AF054B1B68044A23F00203136059
:1050C80000BFBD465DF8047B704700BF10E000E0FC
:1050D80080B400AF054B1B68044A43F00203136019
:1050E80000BFBD465DF8047B704700BF10E000E0DC
:1050F80080B588B000AF78607B68002B01D10123B0
:10510800FEE27B681B6803F00103002B75D0974B08
:105118009B6803F00C03BB61944BDB6803F003034B
:105128007B61BB690C2B02D17B69032B02D0BB6965
:10513800082B0BD18D4B1B6803F40033002B5BD07D
:105148007B685B68002B57D10123D9E27B685B68D9
:10515800B3F5803F06D1854B1B68844A43F48033FE
:1051680013601DE07B685B68B3F5A02F0CD17F4B03
:105178001B687E4A43F4802313607C4B1B687B4A80
:1051880043F4803313600BE0784B1B68774A23F4B1
:1051980080331360754B1B68744A23F480231360B3
:1051A8007B685B68002B13D0FFF776FF386108E057
:1051B800FFF772FF02463B69D31A642B01D9032318
:1051C8009EE26A4B1B6803F40033002BF0D014E016
:1051D800FFF762FF386108E0FFF75EFF02463B69B0
:1051E800D31A642B01D903238AE2604B1B6803F4AA
:1051F8000033002BF0D100E000BF7B681B6803F090
:105208000203002B75D0594B9B6803F00C03BB615C
:10521800564BDB6803F003037B61BB690C2B02D19F
:105228007B69022B02D0BB69042B1FD14F4B1B6833
:1052380003F48063002B05D07B68DB68002B01D169
:1052480001235DE2494B5B6823F0FE427B681B69E2
:105258001B06464913434B60454B1B681846FFF72E
:10526800CFFE0346002B43D0012349E27B68DB686D
:10527800002B23D03D4B1B683C4A43F480731360DA
:10528800FFF70AFF386108E0FFF706FF02463B69AF
:10529800D31A022B01D9032332E2344B1B6803F4DF
:1052A8008063002BF0D0314B5B6823F0FE427B68B3
:1052B8001B691B062D4913434B601AE02B4B1B68D7
:1052C8002A4A23F480731360FFF7E6FE386108E08A
:1052D800FFF7E2FE02463B69D31A022B01D90323EA
:1052E8000EE2224B1B6803F48063002BF0D100E030
:1052F80000BF7B681B6803F00803002B41D07B6864
:105308005B69002B1CD0194BD3F89430174A43F033
:105318000103C2F89430FFF7BFFE386108E0FFF7D9
:10532800BBFE02463B69D31A022B01D90323E7E1EE
:105338000E4BD3F8943003F00203002BEFD020E09B
:105348000A4BD3F89430094A23F00103C2F8943089
:10535800FFF7A2FE38610DE0FFF79EFE02463B69AB
:10536800D31A022B06D90323CAE100BF001002405A
:10537800F80000208C4BD3F8943003F00203002B84
:10538800EAD17B681B6803F00403002B00F0A680B9
:105398000023FB77844B9B6D03F08053002B01D1D6
:1053A800012300E00023002B0DD07F4B9B6D7E4A2C
:1053B80043F0805393657C4B9B6D03F08053FB60F7
:1053C800FB680123FB77794B1B6803F48073002B80
:1053D80018D1764B1B68754A43F480731360FFF746
:1053E8005BFE386108E0FFF757FE02463B69D31AB7
:1053F800022B01D9032383E16C4B1B6803F48073F0
:10540800002BF0D07B689B68012B08D1664BD3F842
:105418009030654A43F00103C2F8903024E07B687D
:105428009B68052B10D1604BD3F890305E4A43F04F
:105438000403C2F890305C4BD3F890305A4A43F0DA
:105448000103C2F890300FE0574BD3F89030564A1A
:1054580023F00103C2F89030534BD3F89030524AEE
:1054680023F00403C2F890307B689B68002B16D0A9
:10547800FFF712FE38610AE0FFF70EFE02463B69AD
:10548800D31A41F28832934201D9032338E1464BBB
:10549800D3F8903003F00203002BEDD015E0FFF7AE
:1054A800FBFD38610AE0FFF7F7FD02463B69D31AB6
:1054B80041F28832934201D9032321E13A4BD3F8D0
:1054C800903003F00203002BEDD1FB7F012B05D1B7
:1054D800354B9B6D344A23F0805393657B681B687A
:1054E80003F02003002B3CD07B689B69002B1CD069
:1054F8002D4BD3F898302C4A43F00103C2F898306A
:10550800FFF7CAFD386108E0FFF7C6FD02463B69B0
:10551800D31A022B01D90323F2E0234BD3F8983096
:1055280003F00203002BEFD01BE01F4BD3F8983099
:105538001D4A23F00103C2F89830FFF7ADFD38612A
:1055480008E0FFF7A9FD02463B69D31A022B01D9EF
:105558000323D5E0144BD3F8983003F00203002B53
:10556800EFD17B68DB69002B00F0C9800E4B9B688C
:1055780003F00C030C2B00F083807B68DB69022BA3
:105588005ED1094B1B68084A23F080731360FFF74C
:1055980083FD38610CE0FFF77FFD02463B69D31AB3
:1055A800022B05D90323ABE0001002400070004035
:1055B800554B1B6803F00073002BECD1524BDA6893
:1055C800524B13407A68116A7A68526A013A12019A
:1055D80011437A68926A120211437A68126B520870
:1055E800013A520511437A68526B5208013A520641
:1055F80011437A68D26AD2060A4343491343CB60FF
:10560800414B1B68404A43F0807313603E4BDB6894
:105618003D4A43F08073D360FFF73EFD386108E0F0
:10562800FFF73AFD02463B69D31A022B01D903233F
:1056380066E0354B1B6803F00073002BF0D05EE08A
:10564800314B1B68304A23F080731360FFF724FD49
:10565800386108E0FFF720FD02463B69D31A022BA8
:1056680001D903234CE0284B1B6803F00073002B7F
:10567800F0D1254BDA682449254B1340CB603EE036
:105688007B68DB69012B01D1012339E01E4BDB6804
:105698007B617B6903F003027B681B6A9A422CD109
:1056A8007B6903F0F0027B685B6A013B1B019A424D
:1056B80023D17B6903F4FE427B689B6A1B029A42F2
:1056C8001BD17B6903F078427B68DB6ADB069A4270
:1056D80013D17B6903F4C0027B681B6B5B08013B39
:1056E8005B059A4209D17B6903F0C0627B685B6BFA
:1056F8005B08013B5B069A4201D0012300E00023CE
:1057080018462037BD4680BD001002400C809F011E
:10571800FCFFEEFE80B586B000AF786039600023EC
:105728007B617B68002B01D101231EE1914B1B6833
:1057380003F00F033A689A4210D98E4B1B6823F086
:105748000F028C493B6813430B608A4B1B6803F0BC
:105758000F033A689A4201D0012306E17B681B686F
:1057680003F00103002B73D07B685B68032B29D1FE
:10577800814B1B6803F00073002B01D10123F4E077
:1057880000F066F938613B697C4A93423FD97A4B0D
:105798009B6803F0F003002B09D07B681B6803F0BB
:1057A8000203002B33D07B689B68002B2FD1724BF0
:1057B8009B6823F0F003704A43F0800393608023D2
:1057C8007B6124E07B685B68022B07D16A4B1B680E
:1057D80003F40033002B09D10123C6E0664B1B6894
:1057E80003F48063002B01D10123BEE000F0CEF862
:1057F80038613B69614A934209D95F4B9B6823F042
:10580800F0035D4A43F08003936080237B615A4B29
:105818009B6823F003027B685B68574913438B60DE
:10582800FFF73AFCF8600AE0FFF736FC0246FB682F
:10583800D31A41F28832934201D9032395E04E4BA3
:105848009B6803F00C027B685B689B009A42EBD173
:105858007B681B6803F00203002B23D07B681B685E
:1058680003F00403002B05D0434B9B68424A43F4E2
:10587800E06393607B681B6803F00803002B07D084
:105888003D4B9B6823F47C533B4A43F4E0639360AD
:10589800394B9B6823F0F0027B689B6836491343B9
:1058A8008B6008E07B69802B05D1334B9B68324ABB
:1058B80023F0F00393602F4B1B6803F00F033A6843
:1058C8009A421DD22B4B1B6823F00F0229493B68D3
:1058D80013430B60FFF7E0FBF8600AE0FFF7DCFB1F
:1058E8000246FB68D31A41F28832934201D9032356
:1058F8003BE0204B1B6803F00F033A689A42EDD156
:105908007B681B6803F00403002B08D01A4B9B68C4
:1059180023F4E0627B68DB68174913438B607B687C
:105928001B6803F00803002B09D0134B9B6823F472
:1059380060527B681B69DB000F4913438B6000F0E2
:1059480025F802460C4B9B681B0903F00F030C4912
:10595800CB5C03F01F0322FA03F30A4A13600A4BD5
:105968001B681846FFF74CFB034618461837BD4618
:1059780080BD00BF002002400010024000B4C404F3
:1059880028A3000800010020F800002080B487B098
:1059980000AF2C4B9B6803F00C03042B02D12A4B5D
:1059A8003B6147E0274B9B6803F00C03082B02D1AF
:1059B800264B3B613EE0234B9B6803F00C030C2B0A
:1059C80036D1204BDB6803F00303FB601D4BDB681B
:1059D8001B0903F00F030133BB60FB68032B0CD1D9
:1059E8001A4ABB68B2FBF3F3164AD268120A02F0ED
:1059F8007F0202FB03F37B610CE0134ABB68B2FB36
:105A0800F3F3104AD268120A02F07F0202FB03F392
:105A18007B6100BF0B4BDB685B0E03F003030133B4
:105A28005B007B607A697B68B2FBF3F33B6101E062
:105A380000233B613B6918461C37BD465DF8047B73
:105A4800704700BF001002400024F40000127A00E2
:105A580080B487B000AF1E4BDB6803F003033B61E3
:105A68001B4BDB681B0903F00F030133FB603B6929
:105A7800032B0CD1174AFB68B2FBF3F3144AD26824
:105A8800120A02F07F0202FB03F37B610CE0124A68
:105A9800FB68B2FBF3F30E4AD268120A02F07F02E7
:105AA80002FB03F37B6100BF094BDB685B0E03F06D
:105AB800030301335B00BB607A69BB68B2FBF3F395
:105AC8007B607B6818461C37BD465DF8047B7047D1
