:020000040800F2
:100000000000022065B500084139000849390008A0
:100010005139000859390008613900080000000012
:100020000000000000000000000000006939000826
:10003000773900080000000085390008933900086E
:10004000B5B50008B5B50008B5B50008B5B50008E8
:10005000B5B50008B5B50008B5B50008B5B50008D8
:10006000B5B50008B5B50008B5B50008A139000858
:10007000B5B50008B5390008C9390008B5B500089C
:10008000B5B50008B5B50008B5B50008B5B50008A8
:10009000B5B50008B5B50008B5B50008B5B5000898
:1000A000B5B50008B5B50008B5B50008B5B5000888
:1000B000B5B50008B5B50008B5B50008B5B5000878
:1000C000B5B50008B5B50008B5B50008B5B5000868
:1000D000B5B50008B5B50008DD390008B5B50008AC
:1000E000F1390008B5B50008B5B50008B5B5000888
:1000F000B5B50008B5B50008B5B50008B5B5000838
:10010000B5B50008193A00082D3A0008B5B5000841
:10011000B5B50008B5B50008413A0008B5B5000806
:10012000B5B500085D3A0008B5B50008B5B50008DA
:10013000B5B50008B5B50008B5B50008B5B50008F7
:10014000B5B50008B5B50008B5B50008B5B50008E7
:10015000B5B50008B5B50008B5B50008B5B50008D7
:10016000B5B50008B5B50008B5B50008B5B50008C7
:10017000B5B50008B5B50008B5B50008B5B50008B7
:10018000B5B50008B5B50008B5B50008B5B50008A7
:10019000B5B5000800000000B5B50008B5B5000809
:1001A000B5B50008B5B50008B5B50008B5B5000887
:1001B000B5B50008B5B50008B5B50008B5B5000877
:1001C000B5B50008B5B50008B5B50008B5B5000867
:0801D000B5B50008B5B5000843
:1001D800830730B547D0541E002A3ED0CAB2034622
:1001E80001E0013C39D303F8012B9D07F9D1032C19
:1001F8002CD9CDB205EB05250F2C05EB054535D9D6
:10020800A4F1100222F00F0C03F1100EE6444FEA9D
:10021800121C1A46C2E90055C2E90255103272454D
:10022800F8D10CF1010214F00C0F03EB021204F0E8
:100238000F0C13D0ACF1040323F00303043313446D
:1002480042F8045B9342FBD10CF003042CB1C9B211
:100258001C4403F8011BA342FBD130BD644613467E
:10026800002CF4D1F9E703461446C0E71A46A44621
:10027800E0E700BF70B50F4B0F4DAB42A3EB05068F
:1002880007D0B610002455F8043B01349847A6421D
:10029800F9D80BF0DDFA094D094B5E1BAB424FEA6A
:1002A800A60606D0002455F8043B01349847A64218
:1002B800F9D870BD1CB900081CB900081CB90008A1
:1002C80020B9000881F0004102E000BF83F000433C
:1002D80030B54FEA41044FEA430594EA050F08BFD9
:1002E80090EA020F1FBF54EA000C55EA020C7FEA9D
:1002F800645C7FEA655C00F0E2804FEA5454D4EB1A
:100308005555B8BF6D420CDD2C4480EA020281EAE3
:10031800030382EA000083EA010180EA020281EA1B
:100328000303362D88BF30BD11F0004F4FEA01316D
:100338004FF4801C4CEA113102D0404261EB41017C
:1003480013F0004F4FEA03334CEA133302D0524202
:1003580063EB430394EA050F00F0A780A4F10104BE
:10036800D5F1200E0DDB02FA0EFC22FA05F28018F8
:1003780041F1000103FA0EF2801843FA05F35941DE
:100388000EE0A5F120050EF1200E012A03FA0EFC5D
:1003980028BF4CF0020C43FA05F3C01851EBE37187
:1003A80001F0004507D54FF0000EDCF1000C7EEBA4
:1003B80000006EEB0101B1F5801F1BD3B1F5001FE2
:1003C8000CD349085FEA30004FEA3C0C04F1010401
:1003D8004FEA445212F5800F80F09A80BCF1004F2A
:1003E80008BF5FEA500C50F1000041EB045141EAAC
:1003F800050130BD5FEA4C0C404141EB0101013C75
:1004080028BFB1F5801FE9D291F0000F04BF014663
:100418000020B1FA81F308BF2033A3F10B03B3F135
:1004280020020CDA0C3208DD02F1140CC2F10C02C5
:1004380001FA0CF021FA02F10CE002F11402D8BF23
:10044800C2F1200C01FA02F120FA0CFCDCBF41EAEF
:100458000C019040E41AA2BF01EB0451294330BDBE
:100468006FEA04041F3C1CDA0C340EDC04F114049B
:10047800C4F1200220FA04F001FA02F340EA030072
:1004880021FA04F345EA030130BDC4F10C04C4F1B8
:10049800200220FA02F001FA04F340EA0300294698
:1004A80030BD21FA04F0294630BD94F0000F83F4E2
:1004B800801306BF81F480110134013D4EE77FEAC5
:1004C800645C18BF7FEA655C29D094EA050F08BF11
:1004D80090EA020F05D054EA000C04BF19461046F2
:1004E80030BD91EA030F1EBF0021002030BD5FEA36
:1004F800545C05D14000494128BF41F0004130BD5E
:1005080014F580043CBF01F5801130BD01F00045B1
:1005180045F0FE4141F470014FF0000030BD7FEA24
:10052800645C1ABF194610467FEA655C1CBF0B461F
:10053800024650EA013406BF52EA033591EA030F36
:1005480041F4002130BD00BF90F0000F04BF00212E
:10055800704730B54FF4806404F132044FF0000561
:100568004FF0000150E700BF90F0000F04BF0021DA
:10057800704730B54FF4806404F1320410F0004540
:1005880048BF40424FF000013EE700BF42004FEA3B
:10059800E2014FEA31014FEA02701FBF12F07F43B8
:1005A80093F07F4F81F06051704732F07F4208BF6F
:1005B800704793F07F4F04BF41F40021704730B576
:1005C8004FF4607401F0004521F000411CE700BFC2
:1005D80050EA010208BF704730B54FF000050AE045
:1005E80050EA010208BF704730B511F0004502D546
:1005F800404261EB41014FF4806404F132045FEA48
:10060800915C3FF4D8AE4FF003025FEADC0C18BFF0
:1006180003325FEADC0C18BF033202EBDC02C2F1E2
:10062800200300FA03FC20FA02F001FA03FE40EA74
:100638000E0021FA02F11444BDE600BF70B54FF078
:10064800FF0C4CF4E06C1CEA11541DBF1CEA135556
:1006580094EA0C0F95EA0C0F00F0DEF82C4481EABE
:10066800030621EA4C5123EA4C5350EA013518BFDE
:1006780052EA033541F4801143F4801338D0A0FBCB
:1006880002CE4FF00005E1FB02E506F00042E0FB78
:1006980003E54FF00006E1FB03569CF0000F18BF7E
:1006A8004EF0010EA4F1FF04B6F5007F64F5407426
:1006B80004D25FEA4E0E6D4146EB060642EAC621B9
:1006C80041EA55514FEAC52040EA5E504FEACE2E26
:1006D800B4F1FD0C88BFBCF5E06F1ED8BEF1004F29
:1006E80008BF5FEA500E50F1000041EB045170BDA5
:1006F80006F0004646EA010140EA020081EA0301E9
:10070800B4EB5C04C2BFD4EB0C0541EA045170BDE4
:1007180041F480114FF0000E013C00F3AB8014F15E
:10072800360FDEBF002001F0004170BDC4F10004A7
:10073800203C35DA0C341BDC04F11404C4F1200528
:1007480000FA05F320FA04F001FA05F240EA020083
:1007580001F0004221F0004110EBD37021FA04F6B9
:1007680042EB06015EEA430E08BF20EAD37070BD73
:10077800C4F10C04C4F1200500FA04F320FA05F0D2
:1007880001FA04F240EA020001F0004110EBD370D4
:1007980041F100015EEA430E08BF20EAD37070BD44
:1007A800C4F1200500FA05F24EEA020E20FA04F31D
:1007B80001FA05F243EA020321FA04F001F00041CC
:1007C80021FA04F220EA020000EBD3705EEA430E3D
:1007D80008BF20EAD37070BD94F0000F0FD101F06C
:1007E8000046400041EB010111F4801F08BF013CA5
:1007F800F7D041EA060195F0000F18BF704703F0E3
:100808000046520043EB030313F4801F08BF013D69
:10081800F7D043EA0603704794EA0C0F0CEA135525
:1008280018BF95EA0C0F0CD050EA410618BF52EADF
:100838004306D1D181EA030101F000414FF00000E5
:1008480070BD50EA410606BF1046194652EA4306F3
:1008580019D094EA0C0F02D150EA013613D195EA67
:100868000C0F05D152EA03361CBF104619460AD1AF
:1008780081EA030101F0004141F0FE4141F47001B9
:100888004FF0000070BD41F0FE4141F4780170BDA9
:1008980070B54FF0FF0C4CF4E06C1CEA11541DBF0E
:1008A8001CEA135594EA0C0F95EA0C0F00F0A7F810
:1008B800A4EB050481EA030E52EA03354FEA01313D
:1008C80000F088804FEA03334FF0805545EA131350
:1008D80043EA12634FEA022245EA111545EA106518
:1008E8004FEA00260EF000419D4208BF964244F1AF
:1008F800FD0404F5407402D25B084FEA3202B61ACE
:1009080065EB03055B084FEA32024FF480104FF4A1
:10091800002CB6EB020E75EB030E22BFB61A754615
:1009280040EA0C005B084FEA3202B6EB020E75EBA8
:10093800030E22BFB61A754640EA5C005B084FEA10
:100948003202B6EB020E75EB030E22BFB61A7546DD
:1009580040EA9C005B084FEA3202B6EB020E75EBE8
:10096800030E22BFB61A754640EADC0055EA060EA9
:1009780018D04FEA051545EA16754FEA06164FEAEC
:10098800C30343EA52734FEAC2025FEA1C1CC0D198
:1009980011F4801F0BD141EA00014FF000004FF025
:1009A800004CB6E711F4801F04BF01430020B4F1E6
:1009B800FD0C88BFBCF5E06F3FF6AFAEB5EB030C9E
:1009C80004BFB6EB020C5FEA500C50F1000041EB9B
:1009D800045170BD0EF0004E4EEA113114EB5C0468
:1009E800C2BFD4EB0C0541EA045170BD41F480113B
:1009F8004FF0000E013C90E645EA060E8DE60CEA43
:100A0800135594EA0C0F08BF95EA0C0F3FF43BAF5F
:100A180094EA0C0F0AD150EA01347FF434AF95EA16
:100A28000C0F7FF425AF104619462CE795EA0C0FFA
:100A380006D152EA03353FF4FDAE1046194622E7C7
:100A480050EA410618BF52EA43067FF4C5AE50EAA1
:100A580041047FF40DAF52EA43057FF4EBAE12E791
:100A68004A0011D212F5001211D20DD56FF4787325
:100A7800B3EB62520ED44FEAC12343F0004343EA7A
:100A8800505323FA02F070474FF00000704750EAC5
:100A9800013002D14FF0FF3070474FF0000070472F
:100AA80053B94AB9002908BF00281CBF4FF0FF31CD
:100AB8004FF0FF3000F00CB8ADF1080C6DE904CE32
:100AC8000AF075FDDDF804E0DDE9022304B07047A3
:100AD800704700BF10B5054C237833B9044B13B1E8
:100AE8000448AFF300800123237010BD2C000020C0
:100AF8000000000058B8000808B5034B1BB10349B3
:100B08000348AFF3008008BD00000000300000205B
:100B180058B8000890B583B000AF70220021704823
:100B2800FFF756FB4FF4D07200216E48FFF750FBD9
:100B3800042200216C48FFF74BFB6C4B00221A8003
:100B4800042200216A48FFF743FB08220021694874
:100B5800FFF73EFB102200216748FFF739FB1822F8
:100B680000216648FFF734FB082200216448FFF79C
:100B78002FFB644B00221A70634B00221A70634BE0
:100B88004FF000021A60624B00221A80614B4FF04E
:100B980000021A60604B00221A80604B00221A8003
:100BA8005F4B00221A8000237B6011E07A681346AD
:100BB800DB009B1A9B005B4A1344184600F064FA5A
:100BC8000346002B01D101F014FC7B6801337B60E4
:100BD8007B68002BEAD000237B6012E000BF5149FC
:100BE8007A681346DB009B1A9B000B441B687F2125
:100BF800184604F061FA0346002BF0D17B680133F4
:100C08007B607B68002BE9D0DFED470AB5EE000A70
:100C1800464801F02FF99FED440A1421444801F099
:100C28007BF99FED410A1921424801F075F9DFED82
:100C38003E0AB5EE000A404801F01CF9DFED3A0A19
:100C4800B5EE000A3D4801F015F904222C49244864
:100C580000F000FF234801F06FFA00237B6037E0C3
:100C680030497A681346DB009B1A9B000B441868CE
:100C78002C497A681346DB009B1A9B000B4404330B
:100C88001968284C7A681346DB009B1A9B0023449A
:100C980008331B881A4603F00BFB22497A6813466F
:100CA800DB009B1A9B000B441B685B6D1B68196873
:100CB8001C487A681346DB009B1A9B0003441B6898
:100CC8005B6D1B6821F004021A607B6801337B604E
:100CD8007B68002BC4D000BF00BF0C37BD4690BD59
:100CE80080000020F00000209002002094020020E4
:100CF80098020020480000205000002060000020DA
:100D08007800002076040020770400207804002072
:100D1800680400206C040020700400207204002085
:100D28007404002090B80008000000007003002040
:100D38009C0200207C030020500400205C0400205A
:100D480090B583B000AF00237B6037E01F497A6815
:100D58001346DB009B1A9B000B4418681B497A68F2
:100D68001346DB009B1A9B000B4404331968174C8D
:100D78007A681346DB009B1A9B00234408331B88C0
:100D88001A4603F095FA11497A681346DB009B1A54
:100D98009B000B441B685B6D1B6819680B487A68DD
:100DA8001346DB009B1A9B0003441B685B6D1B68A2
:100DB80021F004021A607B6801337B607B68002B9A
:100DC800C4D000BF00BF0C37BD4690BD90B8000826
:100DD80080B584B000AF7860786800F02BF9F860CF
:100DE800FB68002B0BD0F86800F042F8FB689B69A1
:100DF800002B05D0FB689B69F868984700E000BFA6
:100E08001037BD4680BD80B582B000AF786087EDF1
:100E1800000A7B68002B02D1D7ED007A23E07B68BB
:100E28001B7B022B13D0022B1BDC002B02D0012BC7
:100E380003D016E0D7ED007A15E07B681B6997EDC3
:100E4800000A184601F035F8F0EE407A0BE07B68AE
:100E58001B6997ED000A184601F0A9F8F0EE407AF0
:100E680001E0D7ED007AB0EE670A0837BD4680BDCD
:100E78002DE9F0438BB000AF78607B68002B00F061
:100E8800C7807B689B7A002B00F0C2807B689B89B7
:100E9800002B00F0BD807B681B69002B00F0BA8036
:100EA8007B681B7D002B00F0B5806B461E467B6877
:100EB8009B7A013B3B627B689B7ADBB200229846B7
:100EC80091464FF000024FF000034FEA491343EAFE
:100ED800D8634FEA48127B689B7ADBB200221C4633
:100EE80015464FF000024FF000036B0143EAD4634C
:100EF80062017B689B7A9B000733DB08DB00ADEB64
:100F0800030D6B4603339B089B00FB617B689B7A50
:100F18009B001A460021F869FFF75AF9F9697868C1
:100F280000F00AF9002387F8273069E07B6819691F
:100F380097F8272013469B0013449B000B44BB6182
:100F4800BB695A787B689B7A9A4253D2BB695B78B3
:100F58001A46FB6953F822307B617B6907EE903AA9
:100F6800F8EE676A7B689B8907EE903AB8EE677A75
:100F7800C6EE877AC7ED047AD7ED047A9FED287A12
:100F880027EE877ADFED276AC7EE267AC7ED037A60
:100F9800BB6993ED017AD7ED037A27EE277ABB690F
:100FA800D3ED027A77EE277AC7ED027ABB691B7810
:100FB8001A46D7ED047AFCEEE77A17EE903A99B222
:100FC800194B23F81210BB691B78184A9B0013446D
:100FD800FA681A60BB691B781C4697ED020AB86963
:100FE800FFF711FFF0EE407A114AA3001344C3ED56
:100FF800007A00E000BF97F82730013387F82730E0
:101008007B681B7D97F827209A428FD3B54602E06C
:1010180000BF00E000BF2C37BD46BDE8F08300BF2D
:101028008195534000F07F459402002098020020EB
:101038009002002080B485B000AF78600023FB6088
:1010480015E01049FA681346DB009B1A9B000B4415
:101058001B687A689A4207D1FA681346DB009B1A24
:101068009B00084A134406E0FB680133FB60FB68F9
:10107800002BE6D0002318461437BD465DF8047BE4
:10108800704700BF90B8000880B485B000AF7860A2
:101098007B68002B07D07B681B68002B03D07B681C
:1010A8005B68002B01D1002340E07B681B89002B83
:1010B80007D07B689B7A002B03D07B689B89002B29
:1010C80001D1002332E07B681B891A467B689B7A32
:1010D80019467B689B8901FB03F39A4201D00023E0
:1010E80024E07B681B7D002B05D07B681B69002BE7
:1010F80001D100231AE00023FB7311E07B68196912
:10110800FA7B13469B0013449B000B445A787B6878
:101118009B7A9A4201D3002308E0FB7B0133FB73DF
:101128007B681B7DFA7B9A42E8D301231846143763
:10113800BD465DF8047B704780B487B000AF786027
:1011480039607B68002B43D07B685B68002B3FD0FD
:101158007B689B7A002B3BD07B689B89002B37D020
:101168003B68002B34D07B685B683B617B689B7A6B
:10117800FB730023FB8225E0FB7B9BB2FA8A12FB00
:1011880003F3BB8100237B7515E07B7D9B003A68E8
:1011980013441A68B9897B7D0B445B0039690B4499
:1011A8001B8818467B7D9B0039680B4402441A60F3
:1011B8007B7D01337B757A7DFB7B9A42E5D3FB8A85
:1011C8000133FB827B689B89FA8A9A42D4D300E078
:1011D80000BF1C37BD465DF8047B704780B582B000
:1011E80000AF03460A46FB801346BB80BB88002B32
:1011F8001CD0104B1B7819460F4AFB8822F8113077
:101208000C4B1B780133DAB20A4B1A70094B1B7866
:101218001A46BB8893420AD8064B00221A70074B1D
:1012280001221A70064800F0E5FA00E000BF08370E
:10123800BD4680BD77040020780000207604002099
:101248008000002080B586B000AF78607B68002BF6
:101258006DD07B685B68002B69D07B689B89002B0D
:1012680065D07B689B7A002B61D04FF6FF73BB82F9
:1012780000237B8200233B820023FB8227E07B68DC
:101288005A68FB8A7968897A01FB03F319467B68F7
:101298009B7A0B44013B5B0013441B88FB81FA8952
:1012A800BB8A9A4201D2FB89BB82FA897B8A9A421D
:1012B80001D9FB897B82FB893B827B689A89FB8900
:1012C80011461846FFF78AFFFB8A0133FB827B68C9
:1012D8009B89FA8A9A42D2D3174A3B8A1380174AC3
:1012E800BB8A1380164A7B8A13807A8ABB8AD31AF0
:1012F8009AB2144B1A803B8A07EE903AF8EE677A56
:101308009FED117A27EE877ADFED106AC7EE267A0D
:101318000F4BC3ED007A0F4A3B8A13800C4B1B68B6
:101328000D4A13600A4B1B680C4A136000E000BFAB
:101338001837BD4680BD00BF680400207004002037
:1013480072040020740400208195534000F07F450A
:101358006C040020940200209802002090020020D3
:1013680080B582B000AF78607B68002B07D07B68BF
:101378009B89002B03D07868FFF764FF00E000BF6B
:101388000837BD4680BD000080B500AFFFF7C2FB3F
:1013980000F0CCFE094B01221A70002204210848F3
:1013A80005F0BCF900220821054805F0B7F900F05E
:1013B8004DF900F039F900BF80BD00BF7F0400205F
:1013C8000008004880B582B000AF0023FB713F4B96
:1013D8001B889BB201339AB23C4B1A803C4B1B884A
:1013E8009BB2002B02D13A4B01221A80394B1B8841
:1013F8009BB201339AB2374B1A80364B1B889AB28C
:10140800334B1B889BB29A4205D2334B00221A7089
:1014180000F050F957E02F4B00221A802E4B012282
:101428001A702E4B1B78DBB2002B16D02C4B1B7876
:10143800DBB20133DAB22A4B1A70294B1B78DBB2C4
:10144800132B02D9264B00221A70254B1B78DBB2CE
:101458001A46244B9B5CFB7115E0214B1B78DBB2D1
:101468000133DAB21E4B1A701D4B1B78DBB2132BFB
:1014780002D91B4B00221A70194B1B78DBB21A4693
:10148800184B9B5CFB71184AFB791370FB79002B96
:101498000AD001220421154805F040F9012208214B
:1014A800124805F03BF909E0002204210F4805F035
:1014B80035F9002208210D4805F030F9064B0022C5
:1014C8001A7000F0F7F80837BD4680BD8604002082
:1014D8001800002082040020890400200000002059
:1014E800840400200400002088040020000800482C
:1014F80080B582B000AF78607B68084A934201D11A
:10150800FFF760FF7B681B68B3F1804F01D103F0E0
:101518008FFF00BF0837BD4680BD00BFA80D002063
:1015280080B582B000AF78607B68084A934209D1E1
:10153800786807F0CFFD064B00221A70054B012290
:101548001A7000E000BF0837BD4680BD240D00209A
:101558007E0400207C04002080B582B000AF0346E2
:10156800FB804FF40041294805F0C0F80346012BE1
:101578000ED1274B1B78002B06D000F089F8FFF717
:10158800DFFB234B00221A70224B03221A703AE029
:101598004FF480611D4805F0A9F80346012B09D1D5
:1015A8001D4B00221A701D4B00221A801C4B002272
:1015B8001A7028E04FF40061144805F097F80346C4
:1015C800012B0CD1144B01221A70164B0A221A80D7
:1015D800124B00221A80124B00221A7013E04FF4AB
:1015E80080510A4805F082F80346012B0BD10A4BBB
:1015F80001221A700B4B01221A80084B00221A8014
:10160800074B00221A700837BD4680BD0008004805
:101618007E0400207C0400200000002082040020BA
:10162800840400201800002080B500AF054B1B780B
:10163800002B05D1044808F02DF8024B01221A703E
:1016480000BF80BD7D040020A80D002080B500AF3C
:101658004FF480310D4807F02DF84FF400110B4876
:1016680007F028F84FF48001084807F023F84FF4F2
:101678004071064806F0F1FF4FF44061034806F058
:10168800ECFF00F017F800BF80BD00BF280C002059
:1016980080B500AFFFF7DAFFFFF7C6FF034B002264
:1016A8001A80034B03221A7000BF80BD80040020FB
:1016B8007C04002080B400AF0E4B1B6842F2F2524B
:1016C800C3F89C220B4B1B6847F2D612C3F8A8221A
:1016D800084B1B6842F2F252C3F81C23054B1B68E7
:1016E80047F2D612C3F8282300BFBD465DF8047B35
:1016F800704700BF280C002080B483B000AF78602A
:101708000B467B8000BF0C37BD465DF8047B7047F5
:1017180080B48BB000AFF8610B4687ED050AC7EDC2
:10172800040A87ED031AC7ED021A87ED012AC7EDEF
:10173800002AFB76FB69FA7E1A70FB697A695A609F
:10174800FB693A699A60FB69FA68DA60FB69BA680A
:101758001A62FB697A685A63FB693A689A63FB699B
:101768004FF00002DA61FB694FF000021A63FB696F
:101778004FF000025A62FB694FF000029A62FB695F
:101788004FF00002DA62FB694FF00002DA63FB698E
:101798004FF000021A6400237B620AE0FA697B6A50
:1017A80004339B0013444FF000021A607B6A013334
:1017B8007B627B6A022BF1DD00BF2C37BD465DF8EA
:1017C800047B704780B483B000AF0346FB71FB799C
:1017D800002B03D0064B08229A6103E0044B4FF418
:1017E80000229A6100BF0C37BD465DF8047B704744
:1017F8000004004880B584B000AF78600023FB7314
:10180800F5E07B681A68FB7B5B0013441B881A466B
:10181800874B1A607B681A68FB7B5B0013441B8844
:1018280007EE903AB8EEE77A7B68D3ED0D7AB4EE1E
:10183800E77AF1EE10FA1ADD7B68D3ED0D7A9FEDA9
:101848007D7A27EE877A7B681A68FB7B5B001344F6
:101858001B8807EE903AF8EEE77ADFED776A67EED5
:10186800A67A77EE277A7B68C3ED0D7A0DE07B6860
:10187800D3ED0D7A9FED717A67EE877A9FED707AD6
:1018880077EE877A7B68C3ED0D7A7B681A68FB7BF5
:101898005B0013441B8807EE903AB8EEE77A7B6842
:1018A800D3ED0E7AB4EEE77AF1EE10FA1AD57B682A
:1018B800D3ED0E7A9FED5F7A27EE877A7B681A68F8
:1018C800FB7B5B0013441B8807EE903AF8EEE77A3F
:1018D800DFED596A67EEA67A77EE277A7B68C3ED63
:1018E8000E7A0DE07B68D3ED0E7A9FED567A67EE9F
:1018F800877A9FED557A77EE877A7B68C3ED0E7A03
:101908007B68D3ED0D7A9FED517A67EE877A9FED6C
:10191800507A77EE877AFCEEE77A17EE903A9AB229
:101928007B689A877B68D3ED0E7A9FED487A67EEDD
:10193800877A9FED477A77EE877AFCEEE77A17EE9B
:10194800903A9AB27B68DA877B6803F140007B683B
:101958001A68FB7B5B0013441A887B689B8F9A424A
:101968008CBF01230023DBB2194600F018FA0346A6
:10197800002B11D07B685433184600F042FA7B687C
:101988005B79002B08D17B6801225A710120FFF78F
:1019980019FF012000F0B4F87B6803F154007B685C
:1019A8001A68FB7B5B0013441A887B68DB8F9A42BA
:1019B80034BF01230023DBB2194600F0F0F90346D7
:1019C800002B11D07B684033184600F01AFA7B6868
:1019D8005B79012B08D17B6800225A710020FFF740
:1019E800F1FE002000F08CF8FB7B0133FB737B6871
:1019F8001B79FA7B9A42FFF404AF7B689B6EB3F5C0
:101A0800615F11D27B689B6E5A1C7B689A667B6803
:101A18009B6EB3F5615F07D17B68002283F86C2069
:101A28007B68002283F86D2000BF1037BD4680BD5B
:101A38008C040020CDCC4C3ECDCC4C3F643B7F3F4A
:101A4800D7A3D44052B87E3F333311413333333FA9
:101A58000020174480B584B000AFF860B960134621
:101A6800FB71FB68FA791A71FB68BA681A60FB683F
:101A780000225A71FB6800229A71FB681D4A5A635A
:101A8800FB681C4A9A63FB6840F60B129A87FB684E
:101A980040F2B362DA87FB6800229A66FB6800228C
:101AA80083F86C20FB68002283F86D20FB6803F143
:101AB800540001230122022100F046F9FB6803F1DA
:101AC800400001230122022100F03EF90A4AFB6886
:101AD80013600020FFF776FE084807F013FD07485B
:101AE80007F068FD054B1B6800225A6200BF1037DB
:101AF800BD4680BD00E0FB4490040020400E00205D
:101B080080B584B000AF0346FB71144B1B685B6A59
:101B1800FB60124B1B6800225A62FB687C2B04D9BD
:101B2800FB6840F27122934204D90D4B1B680022D6
:101B38009A7110E0FB68B3F5BB7F04D8FB791846AF
:101B480000F010F807E0FB79184600F00BF8FB7975
:101B5800184600F007F81037BD4680BD400E00203B
:101B68009004002080B582B000AF0346FB711F4B84
:101B78001B689B791422934216D21C4B1B689B79D5
:101B88001A461B4B9B5CFA799A4208D1174B1B6883
:101B98009A79164B1B680132D2B29A7117E0134B2F
:101BA8001B6800229A7112E0104B1A680F4B1B68D1
:101BB8009B7919461423CB1A1344FA79DA710B4B23
:101BC8001B689A79094B1B680132D2B29A71074B8C
:101BD8001B689B79282B05D1044B1B6800229A713E
:101BE80000F008F800BF0837BD4680BD900400200B
:101BF800ACB8000880B485B000AF504B1B68002219
:101C08009A664E4B1B68012283F86C200023FB73F5
:101C180018E04A4B1A68FB7B5B0001331344DA79FE
:101C2800464B1968FB7B01335B000B44DB799A4216
:101C380005D1424B1B68002283F86D2078E0FB7BBE
:101C48000133FB73FB7B082BE3D90023BB731EE036
:101C58003A4B1A68BB7B5B001344DA79374B196837
:101C6800BB7B5B0001330B44DB799A4206D1334BD3
:101C78001A68BB7B13440022DA7605E02F4B1A68FA
:101C8800BB7B13440122DA76BB7B0133BB73BB7B7E
:101C9800092BDDD9294B1B68DB7EFB7200237B7384
:101CA8004FF000037B6000233B7310E0234B1A685E
:101CB8003B7B01331344DB7E1A463B7B02FA03F37A
:101CC800DAB27B7B13437B733B7B01333B733B7BF8
:101CD800072BEBD97B7B07EE903AB8EE677ADFEDFE
:101CE800186AC7EE267A9FED177A67EE877AC7EDEE
:101CF800017A124B1B68FA7A83F828200F4B1B686D
:101D08007A7B83F829200D4B1B687A68DA620B4BC3
:101D18001B68D3ED0C7A094B1B68B6EE007A67EEA8
:101D2800877AC3ED0C7A054B1B68012283F86D2076
:101D38001437BD465DF8047B704700BF900400204F
:101D480000007F430000164380B485B000AFF86000
:101D5800B9607A603B60FB68BA681A60FB687A68A9
:101D6800DA60FB683A681A61FB6800221A71FB683E
:101D780000229A6000BF1437BD465DF8047B7047A7
:101D880080B582B000AF78603960012301223968DC
:101D98007868FFF7D9FF00BF0837BD4680BD80B41B
:101DA80083B000AF78600B46FB70FB78002B11D036
:101DB8007B689A687B681B689A4207D27B689A6836
:101DC8007B68DB681A447B689A6012E07B680122B2
:101DD8001A710EE07B689B68002B07D07B689A68B5
:101DE8007B681B69D21A7B689A6002E07B680022D4
:101DF8001A717B681B7918460C37BD465DF8047B61
:101E0800704780B483B000AF78607B6800221A7195
:101E18007B6800229A6000BF0C37BD465DF8047BE2
:101E28007047000080B483B000AF87ED010AD7ED9A
:101E3800017AF5EEC07AF1EE10FA01D80B4B0BE0FF
:101E4800D7ED017AB7EE007AF4EEC77AF1EE10FA20
:101E580001DB074B00E07B6807EE903AB0EE670ABB
:101E68000C37BD465DF8047B704700BFCDCCCC3D38
:101E78006666663F80B584B000AFF86087ED020AF9
:101E8800C7ED010AFB68002B0FD097ED020AFFF798
:101E9800C9FFF0EE407AFB68C3ED007AFB687A6808
:101EA8005A60FB6801221A7200E000BF1037BD4675
:101EB80080BD80B485B000AF786087ED000A7B688C
:101EC800002B03D07B681B7A002B01D13B681AE0FA
:101ED8007B6893ED007AD7ED007A27EE277A7B6846
:101EE800D3ED007AF7EE006A76EEE76A7B68D3ED09
:101EF800017A66EEA77A77EE277AC7ED037A7B68D0
:101F0800FA685A60FB6807EE903AB0EE670A143731
:101F1800BD465DF8047B704780B487B000AFF860B9
:101F28000B4687ED010A7B81FB68002B39D07B8942
:101F3800002B02D101237B8104E07B89322B01D95C
:101F480032237B817B8907EE903AB8EEE77AD7EDAA
:101F5800017A67EE277AFB68C3ED327AFB680022C4
:101F6800A3F8CC20FB687A89A3F8CE20FB687A898D
:101F7800A3F8D0200023FB820FE0FA8A7B899A42DB
:101F880001D27B6801E04FF00003FA8AF9689200F9
:101F98000A441360FB8A0133FB82FB8A312BECD99C
:101FA80000E000BF1C37BD465DF8047B704780B475
:101FB80085B000AF786087ED000A7B68002B04D0FD
:101FC8007B68B3F8D030002B02D1D7ED007A4DE012
:101FD8007B68B3F8CC307A689B0013441B68FB60BD
:101FE8007B68B3F8CC307A689B0013443A681A606F
:101FF8007B6893ED327AD7ED006AD7ED037A76EEF7
:10200800E77A77EE277A7B68C3ED327A7B68B3F894
:10201800CC3001339AB27B68A3F8CC207B68B3F844
:10202800CC207B68B3F8D0309A4203D37B68002277
:10203800A3F8CC207B68B3F8CE207B68B3F8D03007
:102048009A4207D27B68B3F8CE3001339AB27B68E4
:10205800A3F8CE207B68D3ED326A7B68B3F8CE3024
:1020680007EE903AB8EE677AC6EE877AB0EE670A5E
:102078001437BD465DF8047B7047000080B582B018
:1020880000AF254B3B60A82200213868FEF7A0F876
:102098003B6803221A613B6803225A613B681F4A66
:1020A8009A613B681E4ADA613B684FF480621A62A3
:1020B8003B6800229A623B6800225A623B68002211
:1020C800DA623B68154A1A663B68164A5A663B68E4
:1020D80010229A663B6800221A673B680022DA667B
:1020E8003B6800225A6700237B600CE07B68C3F1E1
:1020F8000F030D4AD15C3A687B6813440A461A708C
:102108007B6801337B607B680F2BEFD900BF00BF72
:102118000837BD4680BD00BF9404002070B8000891
:102128003C0500203C090020C0B8000880B500AF7D
:10213800FFF7A4FF00BF80BD80B582B000AF786014
:102148007B68344ADA617B68334A1A627B68334AAF
:102158009A617B6800221A857B68314A5A627B68DB
:102168009033DFED302AB0EE082AF6EE001A9FED24
:102178002D1ADFED2D0A9FED2D0A01211846FFF7D4
:10218800C7FA7B6803F58C727B68D3ED077A7B68A6
:1021980093ED087AF0EE472AB0EE672ADFED241AAD
:1021A8009FED201ADFED200A9FED220A012110463B
:1021B800FFF7AEFA7B682C334FF416711846FFF719
:1021C800DFFD7B6840334FF416711846FFF7D8FDE2
:1021D8007B6854334FF496611846FFF7D1FD7B684E
:1021E80068334FF416711846FFF7CAFD7B687C33D5
:1021F8004FF416711846FFF7C3FD4FF480210E48BF
:1022080006F058FA7B6801229A7300BF0837BD466A
:1022180080BD00BF9A99593FCDCC4C3DCDCC4C3EAA
:102228000AD7A33C0000000052499D390AD7233C35
:10223800CDCCCC3D0AD7A33C280C002000000000E0
:1022480080B500AF03F0A2F800F088F800F0D8F8E5
:1022580000F01EFD00F072F900F068FD01F068F969
:1022680000F0D4F900F05EFA01F014F901F0A8F8D2
:1022780001F0CAF901F092F901F084FA00F058FC73
:1022880003F016F903F024F9314B1B69304A43F483
:10229800006313612E4B9B682D4A43F00103936042
:1022A8002B4B9B682A4A43F008039360284B9B6892
:1022B800274A43F010039360254B9B68244A43F058
:1022C80020039360224B1B69214A43F40053136196
:1022D8001F4B9B681E4A43F0004393601C4B1B69CD
:1022E8001B4A43F0806313614FF4FA7003F0BEF8A1
:1022F800184B1B681846FEF749F911A3D3E90023C8
:10230800FEF7C6FA02460B46104619460EA3D3E955
:102318000023FEF793F902460B4610461946FEF7CE
:102328009FFB0346002200210B4805F001F800211D
:10233800094804F03BFFFFF727F800BFFDE700BF9F
:102348006666666666660A400000000000FEAF40EA
:10235800002004E01C000020B40B002080B594B0DD
:1023680000AF07F11803382200211846FDF730FFA7
:102378003B1D00221A605A609A60DA601A610020D8
:1023880004F02EFD0923BB614FF48033FB61012368
:10239800FB6202237B630323BB630223FB63552396
:1023A8003B6402237B640223BB640223FB6407F1C2
:1023B8001803184603F09CF80346002B01D000F0E0
:1023C80018F80F237B600323BB600023FB60002306
:1023D8003B6100237B613B1D0421184603F09AFBF7
:1023E8000346002B01D000F004F800BF5037BD466B
:1023F80080BD80B400AF72B600BF00BFFDE700002B
:1024080080B58AB000AF07F1140300221A605A6041
:102418009A60DA601A61464BDB6C454A43F0200348
:10242800D364434BDB6C03F020033B613B69404BB7
:10243800DB6C3F4A43F00403D3643D4BDB6C03F091
:102448000403FB60FB683A4BDB6C394A43F0010339
:10245800D364374BDB6C03F00103BB60BB68344BC0
:10246800DB6C334A43F00203D364314BDB6C03F07B
:1024780002037B607B6800220C212E4804F04EF991
:10248800002298212C4804F049F90C237B61012390
:10249800BB610223FB6102233B6207F11403194667
:1024A800244803F0A1FF4FF400437B614FF48813E5
:1024B800BB610223FB6107F1140319464FF09040FA
:1024C80003F092FF4FF4E0537B614FF48813BB6134
:1024D8000223FB6107F114031946164803F084FF31
:1024E80018237B610123BB610023FB6102233B624C
:1024F80007F114031946104803F076FF80237B6127
:102508001123BB610023FB6102233B6207F1140323
:102518001946094803F068FF00220021282004F02A
:10252800EEFD282004F005FE00BF2837BD4680BD1B
:1025380000100240000800480004004880B588B038
:1025480000AF3B46202200211846FDF741FE2C4BE8
:102558002C4A1A602A4B4FF440325A60284B00220A
:102568009A60274B0022DA60254B00221A61244B1F
:1025780000225A61224B08229A61214B00221A77C5
:102588001F4B00225A771E4B01221A621C4B002255
:1025980083F824201A4B4FF4D462DA62184B4FF4B4
:1025A80080621A63164B012283F83820144B4FF4CB
:1025B8008052DA63124B002283F84020104801F061
:1025C800BBFC0346002B01D0FFF713FF0E4B3B600B
:1025D80006237B600223BB607F23FB6004233B61EF
:1025E80000237B613B461946054801F049FF034635
:1025F800002B01D0FFF7FDFE00BF2037BD4680BD90
:102608004C090020000100500008302E80B58CB025
:1026180000AF07F1240300221A605A609A603B1D3C
:10262800202200211846FDF7D3FD3A4B3A4A1A609A
:10263800384B4FF440325A60364B00229A60354B83
:102648000022DA60334B00221A61324B01225A61B0
:10265800304B08229A612F4B00221A772D4B00220B
:102668005A772C4B02221A622A4B002283F8242024
:10267800284B4FF4D462DA62264B4FF480621A6317
:10268800244B012283F83820224B4FF48052DA631E
:10269800204B002283F840201E4801F04DFC0346E1
:1026A800002B01D0FFF7A5FE00237B6207F124036E
:1026B8001946184802F062FD0346002B01D0FFF7C7
:1026C80098FE164B7B600623BB600223FB607F23CA
:1026D8003B6104237B610023BB613B1D19460D4808
:1026E80001F0CEFE0346002B01D0FFF782FE0C4B13
:1026F8007B600C23BB603B1D1946064801F0C0FEF9
:102708000346002B01D0FFF774FE00BF3037BD46EB
:1027180080BD00BFB8090020000400502000F0145C
:102728000010603280B588B000AF3B4620220021FF
:102738001846FDF74DFD3A4B3A4A1A60384B4FF4AC
:1027480040325A60364B00229A60354B0022DA60DC
:10275800334B00221A61324B01225A61304B082256
:102768009A612F4B00221A772D4B00225A772C4B57
:1027780003221A622A4B002283F82420284B4FF4A4
:10278800D862DA62264B4FF480621A63244B012226
:1027980083F83820224B4FF48052DA63204B002212
:1027A80083F840201E4801F0C7FB0346002B01D0E8
:1027B800FFF71FFE1C4B3B6006237B600323BB60B7
:1027C8007F23FB6004233B6100237B613B46194662
:1027D800134801F055FE0346002B01D0FFF709FE10
:1027E800124B3B600C237B603B4619460C4801F0BA
:1027F80047FE0346002B01D0FFF7FBFD0C4B3B6067
:1028080012237B603B461946054801F039FE034612
:10281800002B01D0FFF7EDFD00BF2037BD4680BD7E
:10282800240A0020000500500800900C1000C01079
:102838002000F01480B5A2B000AF786007F17403EF
:1028480000221A605A609A60DA601A6107F1200360
:10285800542200211846FDF7BBFC7B681B686A4AB6
:10286800934260D14FF400433B624FF000537B66C4
:1028780007F12003184603F069FB0346002B01D03B
:10288800FFF7B7FD614BDB6C604A43F40053D36438
:102898005E4BDB6C03F40053FB61FB695B4BDB6C49
:1028A8005A4A43F00403D364584BDB6C03F0040327
:1028B800BB61BB6920237B670323BB670023FB67DE
:1028C80007F174031946524803F08EFD514B524AE2
:1028D8001A60504B24225A604E4B00229A604D4B8E
:1028E8000022DA604B4B80221A614A4B4FF4807207
:1028F8005A61484B4FF480629A61464B2022DA6154
:10290800444B4FF480521A62424803F037FF0346A3
:10291800002B01D0FFF76DFD7B683E4A5A653D4AA2
:102928007B689362F3E07B681B683C4A93427FD1E3
:102938004FF480333B624FF00043BB6607F120033E
:10294800184603F003FB0346002B01D0FFF751FDA7
:10295800334B1B680133324A1360314B1B68012B20
:102968000BD12A4BDB6C294A43F48043D364274BB1
:10297800DB6C03F480437B617B69244BDB6C234A6B
:1029880043F00203D364214BDB6C03F002033B6189
:102998003B6942F201037B670323BB670023FB67A4
:1029A80007F1740319461F4803F01EFD1E4B1F4A0A
:1029B8001A601D4B25225A601B4B00229A601A4B45
:1029C8000022DA60184B80221A61174B4FF480728C
:1029D8005A61154B4FF480629A61134B2022DA61D9
:1029E800114B4FF440521A620F4803F0C7FE0346DA
:1029F800002B01D0FFF7FDFC7B680B4A5A650A4A99
:102A08007B68936283E000BF000100500010024021
:102A180000080048900A00201C04024000040050EE
:102A2800B00B002000040048F00A002030000240EB
:102A38007B681B68384A934269D14FF480333B6204
:102A48004FF00043BB6607F12003184603F07EFAF7
:102A58000346002B01D0FFF7CCFC304B1B68013339
:102A68002E4A13602D4B1B68012B0BD12C4BDB6CB2
:102A78002B4A43F48043D364294BDB6C03F4804333
:102A8800FB60FB68264BDB6C254A43F00203D364EA
:102A9800234BDB6C03F00203BB60BB684FF450436D
:102AA8007B670323BB670023FB6707F174031946A1
:102AB8001C4803F099FC1C4B1C4A1A601A4B26222E
:102AC8005A60194B00229A60174B0022DA60164BA5
:102AD80080221A61144B4FF480725A61124B4FF4E2
:102AE80080629A61104B2022DA610F4B4FF48052BA
:102AF8001A620D4803F042FE0346002B01D0FFF78F
:102B080078FC7B68084A5A65074A7B68936200BF6D
:102B18008837BD4680BD00BF00050050B00B0020BF
:102B28000010024000040048500B002044000240FE
:102B380080B58CB000AF3B46302200211846FDF727
:102B480047FB164B164A1A60144804F00CFB034660
:102B5800002B01D0FFF74DFC02233B6000233B71A3
:102B680000237B710023BB600023FB6000233B61D3
:102B780000237B610123BB610023FB613B460022EC
:102B88001946064804F00CFC0346002B01D0FFF759
:102B980030FC00BF3037BD4680BD00BFB40B0020FD
:102BA8000008005080B58AB000AF786007F11403C0
:102BB80000221A605A609A60DA601A617B681B68A2
:102BC8002F4A934257D12F4BDB6C2E4A43F4803364
:102BD800D3642C4BDB6C03F480333B613B69294B9A
:102BE800DB6C284A43F00103D364264BDB6C03F00B
:102BF8000103FB60FB6810237B610323BB61002397
:102C0800FB6107F1140319464FF0904003F0ECFB09
:102C18001D4B1E4A1A601C4B06225A601A4B102282
:102C28009A60194B0022DA60174B80221A61164B02
:102C38004FF400725A61144B4FF480629A61124B40
:102C48000022DA61104B00221A620F4803F096FD49
:102C58000346002B01D0FFF7CCFB7B680A4A9A6039
:102C6800094A7B68936200220021362004F047FA63
:102C7800362004F05EFA00BF2837BD4680BD00BF8D
:102C88000008005000100240C80B00201C00024041
:102C980080B584B000AF244B9B6C234A43F00403F7
:102CA8009364214B9B6C03F00403FB60FB681E4B91
:102CB8009B6C1D4A43F0010393641B4B9B6C03F010
:102CC8000103BB60BB68184B9B6C174A43F00203B7
:102CD8009364154B9B6C03F002037B607B680022B6
:102CE80000210B2004F00BFA0B2004F022FA00223A
:102CF80000210D2004F003FA0D2004F01AFA002236
:102D080000210E2004F0FBF90E2004F012FA002234
:102D18000021392004F0F3F9392004F00AFA00BF41
:102D28001037BD4680BD00BF0010024080B5BAB064
:102D380000AF07F1E00300221A605A6007F1D003E0
:102D480000221A605A609A60DA6007F17003602204
:102D580000211846FDF73CFA07F1640300221A60C7
:102D68005A609A6007F1480300221A605A609A6014
:102D7800DA601A615A619A6107F12403242200215A
:102D88001846FDF725FA3B1D202200211846FDF7BD
:102D98001FFAC64BC64A1A60C44B00225A60C34B7E
:102DA80000229A60C14804F0BFFC0346002B01D002
:102DB800FFF71FFB0C21BD4804F086FD0346002BDE
:102DC80001D0FFF716FB0A21B84804F0D5FD0346E9
:102DD800002B01D0FFF70DFB0023C7F8E0300223DA
:102DE800C7F8E43007F1E0031A460121AF4804F0C0
:102DF8001FFE0346002B01D0FFF7FBFA002201213A
:102E0800AA4805F001F80346002B01D0FFF7F1FAB4
:102E18004FF40033C7F8E0304FF40033C7F8E4301C
:102E280007F1E0031A460421A04804F001FE034616
:102E3800002B01D0FFF7DDFA002204219B4804F0A3
:102E4800E3FF0346002B01D0FFF7D3FA49F2C97319
:102E5800C7F8D0300323C7F8D4300123C7F8D830D7
:102E68000823C7F8DC3007F1D0031A4606218F483B
:102E780004F0B6FD0346002B01D0FFF7BAFA102381
:102E88003B6700237B670023BB670023FB670123A5
:102E9800C7F880300023C7F884300023C7F888308B
:102EA8000023C7F88C300023C7F890300023C7F8F8
:102EB80094304FF00063C7F898300023C7F89C306F
:102EC8000023C7F8A0304FF00053C7F8A430002300
:102ED800C7F8CC3007F170031A460621734805F08D
:102EE800DDF80346002B01D0FFF783FA4FF6EF73A6
:102EF8007B6607F16403012206216C4805F00EFA8F
:102F08000346002B01D0FFF774FA41F288337B6641
:102F180007F1640302220621644805F0FFF903461D
:102F2800002B01D0FFF765FA4FF6EF737B6607F1C8
:102F38006403042206215D4805F0F0F90346002BDE
:102F480001D0FFF756FA46F64023C7F8D0300023E1
:102F5800C7F8D43007F1D0031A460121534804F0CA
:102F68003FFD0346002B01D0FFF743FA0023BB6463
:102F780000233B6500237B6500233B6607F148037C
:102F88001A460121494805F016F90346002B01D0DD
:102F9800FFF72FFA00233B6700237B670023C7F85E
:102FA800A4300023C7F8A8300023C7F8AC300023AA
:102FB800C7F8B0304FF48073C7F8B4300023C7F8AF
:102FC800B8304FF48013C7F8C0300223C7F8C430B4
:102FD8004FF48023C7F8C83007F170031A4601215F
:102FE800324805F05BF80346002B01D0FFF701FAE1
:102FF8004FF00053C7F8A4300023C7F8B8304FF09B
:103008008073C7F8C0302023C7F8C4300023C7F83E
:10301800C83007F170031A460421244805F03EF829
:103028000346002B01D0FFF7E4F90023C7F8B830B6
:103038008023C7F8C43007F170031A4605211B48DE
:1030480005F02CF80346002B01D0FFF7D2F9002336
:103058007B6607F1640301220121144805F05EF93B
:103068000346002B01D0FFF7C4F944F620637B66C2
:1030780007F16403042201210C4805F04FF90346C7
:10308800002B01D0FFF7B5F90023BB660023FB66D0
:1030980007F1640308220121044805F03FF90346BB
:1030A800002B07D0FFF7A5F904E000BF280C00208B
:1030B8000068014000237B628C23BB620023FB6213
:1030C80000233B6300237B638C23BB630023FB63E8
:1030D80000233B6400237B6407F124031A46012183
:1030E800734805F09BF80346002B01D0FFF781F9E0
:1030F80007F124031A4604216D4805F08FF80346AA
:10310800002B01D0FFF775F907F124031A460521B2
:10311800674805F083F80346002B01D0FFF769F9EB
:1031280000237B600823BB602023FB6000233B61F6
:1031380000237B610023BB610023FB6100233B620A
:103148003B1D042201215A4805F056FA0346002B7C
:1031580001D0FFF74EF93B1D4FF48072042154480B
:1031680005F04AFA0346002B01D0FFF742F93B1D50
:103178004FF4806205214E4805F03EFA0346002BC5
:1031880001D0FFF736F90023BB600023FB603B1D2D
:1031980008220121464805F02FFA0346002B01D0EA
:1031A800FFF727F93B1D4FF400720421404805F052
:1031B80023FA0346002B01D0FFF71BF93B1D4FF400
:1031C800006205213A4805F017FA0346002B01D0A2
:1031D800FFF70FF949F2C973C7F8D03007F1D003E8
:1031E8001A460421324804F0FBFB0346002B01D0A9
:1031F800FFF7FFF807F148031A4604212C4804F0AA
:10320800DAFF0346002B01D0FFF7F3F806237B66AD
:1032180007F1640301220421254805F07FF80346DD
:10322800002B01D0FFF7E5F807F16403042204211D
:103238001F4805F073F80346002B01D0FFF7D9F8B3
:1032480007F1D0031A460521194804F0C9FB0346C3
:10325800002B01D0FFF7CDF807F148031A460521E6
:10326800134804F0A8FF0346002B01D0FFF7C1F86C
:1032780007F16403012205210D4805F04FF80346C4
:10328800002B01D0FFF7B5F807F1640304220521EC
:10329800074805F043F80346002B01D0FFF7A9F8CB
:1032A800034800F027F800BFE837BD4680BD00BFDF
:1032B800280C002080B485B000AF78607B681B685C
:1032C8000A4A93420BD10A4B1B6E094A43F08063AA
:1032D8001366074B1B6E03F08063FB60FB6800BF3F
:1032E8001437BD465DF8047B704700BF0068014095
:1032F8000010024080B58AB000AF786007F114036F
:1033080000221A605A609A60DA601A617B681B684A
:10331800284A93424AD1284BDB6C274A43F00403DE
:10332800D364254BDB6C03F004033B613B69224B00
:10333800DB6C214A43F00103D3641F4BDB6C03F0C1
:103348000103FB60FB68C0237B610223BB61002390
:10335800FB6103233B620D237B6207F114031946CB
:10336800164803F041F84FF440737B610223BB61B8
:103378000023FB6103233B6203237B6207F11403F1
:1033880019460E4803F030F84FF440637B6102237E
:10339800BB610023FB6103233B620D237B6207F1C2
:1033A800140319464FF0904003F01EF800BF283769
:1033B800BD4680BD0068014000100240000800487A
:1033C80080B500AF134B144A1A60124B00225A60A2
:1033D800104B4FF420629A600E4B4FF6FF725A6101
:1033E8000C4B00221A620B4B00225A62094B002236
:1033F8009A62084B0022DA62064B00221A630548DB
:1034080005F0CCFD0346002B01D0FEF7F2FF00BF0C
:1034180080BD00BF240D0020007C004080B598B01E
:1034280000AF786007F10C03542200211846FCF71E
:10343800CFFE7B681B68154A934223D14FF4007373
:10344800FB604FF48023BB6307F10C03184602F0BE
:103458007DFD0346002B01D0FEF7CBFF0C4B9B6D87
:103468000B4A43F000439365094B9B6D03F00043FF
:10347800BB60BB6800220121312003F040FE3120EF
:1034880003F057FE00BF6037BD4680BD007C00409A
:103498000010024080B588B000AF07F11003002289
:1034A8001A605A609A60DA603B1D00221A605A60FE
:1034B8009A601D4B1D4A1A601B4BAA225A601A4B70
:1034C80000229A60184B44F62062DA60164B0022FC
:1034D8001A61154B00229A61134806F013F8034647
:1034E800002B01D0FEF785FF4FF480533B6107F1B5
:1034F800100319460C4806F095FA0346002B01D034
:10350800FEF777FF00237B600023FB603B1D194615
:10351800054806F015FD0346002B01D0FEF769FFAC
:1035280000BF2037BD4680BD5C0D0020000C004068
:1035380080B584B000AF3B1D00221A605A609A60C3
:10354800144B154A1A60134B10225A60114B002273
:103558009A60104B40F6C312DA600E4B00229A6153
:103568000C4805F0CFFF0346002B01D0FEF741FFC2
:1035780000237B600023FB603B1D1946054806F0CD
:10358800DFFC0346002B01D0FEF733FF00BF1037E6
:10359800BD4680BDA80D00200010004080B584B055
:1035A80000AF3B1D00221A605A609A60144B154AFE
:1035B8001A60134BAA225A60114B00229A60104BD2
:1035C80041F28832DA600E4B00229A610C4805F00D
:1035D80099FF0346002B01D0FEF70BFF00237B6009
:1035E8000023FB603B1D1946054806F0A9FC03466D
:1035F800002B01D0FEF7FDFE00BF1037BD4680BD91
:10360800F40D00200014004080B588B000AF07F129
:10361800100300221A605A609A60DA603B1D00228B
:103628001A605A609A60204B204A1A601E4BA922E1
:103638005A601D4B00229A601B4B41F28732DA60B8
:10364800194B00221A61184B00225A61164B0022AE
:103658009A61154805F056FF0346002B01D0FEF786
:10366800C8FE4FF480533B6107F1100319460E481A
:1036780006F0D8F90346002B01D0FEF7BAFE002366
:103688007B600023BB600023FB603B1D1946064896
:1036980006F056FC0346002B01D0FEF7AAFE00BF39
:1036A8002037BD4680BD00BF400E002000340140D9
:1036B80080B586B000AF78607B681B682C4A93425F
:1036C80014D12C4B9B6D2B4A43F008039365294B6F
:1036D8009B6D03F008037B617B6900220021322087
:1036E80003F00DFD322003F024FD3CE07B681B68ED
:1036F800214A934214D11F4B9B6D1E4A43F010037D
:1037080093651C4B9B6D03F010033B613B690022E2
:103718000021362003F0F3FC362003F00AFD22E0F6
:103728007B681B68154A93420CD1124B9B6D114A5A
:1037380043F0200393650F4B9B6D03F02003FB6060
:10374800FB6810E07B681B680D4A93420BD1094B5C
:103758001B6E084A43F400531366064B1B6E03F4B2
:103768000053BB60BB6800BF1837BD4680BD00BFB3
:10377800000C0040001002400010004000140040FF
:103788000034014080B500AF224B234A1A60214B18
:103798004FF416525A601F4B00229A601D4B0022AC
:1037A800DA601C4B00221A611A4B0C225A61194B21
:1037B80000229A61174B0022DA61164B00221A6226
:1037C800144B00225A62134B00229A62114806F0E9
:1037D80093FC0346002B01D0FEF70BFE00210D4899
:1037E80007F0DFFD0346002B01D0FEF702FE0021A3
:1037F800084807F014FE0346002B01D0FEF7F9FD38
:10380800044807F095FD0346002B01D0FEF7F1FDB3
:1038180000BF80BD8C0E00200044004080B59EB0E3
:1038280000AF786007F1640300221A605A609A605A
:10383800DA601A6107F11003542200211846FCF7D8
:10384800C7FC7B681B68384A934268D102233B61F6
:103858000023BB6107F11003184602F077FB03460B
:10386800002B01D0FEF7C5FD304B9B6D2F4A43F46A
:10387800003393652D4B9B6D03F40033FB60FB68AD
:103888002A4BDB6C294A43F00103D364274BDB6CDA
:1038980003F00103BB60BB680C237B660223BB6695
:1038A8000023FB6600233B6707237B6707F164035C
:1038B80019464FF0904002F097FD1D4B1D4A1A60C3
:1038C8001B4B1A225A601A4B00229A60184B00228E
:1038D800DA60174B80221A61154B00225A61144B8B
:1038E80000229A61124B0022DA61114B00221A62FF
:1038F8000F4802F043FF0346002B01D0FEF779FD85
:103908007B680B4AC3F88020094A7B6893620022CF
:103918000021262003F0F3FB262003F00AFC00BF59
:103928007837BD4680BD00BF00440040001002400B
:10393800200F00200800024080B400AF00BFFDE760
:1039480080B400AF00BFFDE780B400AF00BFFDE763
:1039580080B400AF00BFFDE780B400AF00BFFDE753
:1039680080B400AF00BFBD465DF8047B704780B4EB
:1039780000AF00BFBD465DF8047B704780B400AF60
:1039880000BFBD465DF8047B704780B500AF01F00D
:103998004FFD00BF80BD000080B500AF024803F0B6
:1039A800D0F800BF80BD00BF200F002080B500AF59
:1039B800024803F0C6F800BF80BD00BFF00A00202F
:1039C80080B500AF024803F0BCF800BF80BD00BF5F
:1039D800500B002080B500AF024806F0DDFB00BFA9
:1039E80080BD00BF8C0E002080B500AF4FF4806012
:1039F80002F0ACFE4FF4006002F0A8FE4FF48050D5
:103A080002F0A4FE4FF4004002F0A0FE00BF80BD0B
:103A180080B500AF024805F091FB00BF80BD00BF34
:103A2800240D002080B500AF024805F0ABFE00BFB2
:103A380080BD00BF5C0D002080B500AF034805F0D5
:103A4800A1FE034803F01EFC00BF80BDA80D0020A6
:103A5800B40B002080B500AF024803F072F800BF35
:103A680080BD00BF900A002080B582B000AF0F4B28
:103A78001B6E0E4A43F0010313660C4B1B6E03F0DA
:103A880001037B607B68094B9B6D084A43F08053B8
:103A98009365064B9B6D03F080533B603B6803F0D6
:103AA80043FA00BF0837BD4680BD00BF0010024082
:103AB80080B483B000AF786039607B689B6823F47A
:103AC8007C123B681A437B689A6000BF0C37BD467E
:103AD8005DF8047B704780B483B000AF78603960CC
:103AE8007B689B6823F0E0723B681A437B689A60A6
:103AF80000BF0C37BD465DF8047B704780B483B0C7
:103B080000AF78607B689B6803F0E07318460C3759
:103B1800BD465DF8047B704780B487B000AFF8609D
:103B2800B9607A603B60FB6860331A46BB689B00EB
:103B380013447B617B691A68084B13407A6802F06A
:103B4800F8413A680A43134343F000427B691A601C
:103B580000BF1C37BD465DF8047B704700F0FF03CB
:103B680080B485B000AF786039607B6860331A46EE
:103B78003B689B001344FB60FB681B6803F0F84339
:103B880018461437BD465DF8047B704780B487B08B
:103B980000AFF860B9607A60FB6860331A46BB68AA
:103BA8009B0013447B617B691B6823F000427B68A0
:103BB8001A437B691A6000BF1C37BD465DF8047B59
:103BC800704780B487B000AFF860B9607A60FB686E
:103BD80060331A46BB689B0013447B617B691B6892
:103BE80023F080727B681A437B691A6000BF1C3718
:103BF800BD465DF8047B704780B487B000AFF860BD
:103C0800B9607A60FB6860331A46BB689B0013444E
:103C18007B617B691B6823F000727B681A437B69B0
:103C28001A6000BF1C37BD465DF8047B704780B43E
:103C380083B000AF786039607B685B6923F000422D
:103C48003B681A437B685A6100BF0C37BD465DF874
:103C5800047B704780B483B000AF78607B68DB6812
:103C680003F44063002B01D1012300E00023184630
:103C78000C37BD465DF8047B704780B487B000AF51
:103C8800F860B9607A60FB6830331A46BB681B0A73
:103C98009B0003F00C0313447B617B691A68BB68C3
:103CA80003F01F031F2101FA03F3DB431A407B686B
:103CB8009B0E03F01F01BB6803F01F0301FA03F317
:103CC8001A437B691A6000BF1C37BD465DF8047B48
:103CD800704780B487B000AFF860B9607A60FB685D
:103CE80014331A46BB685B0E9B0003F004031344AD
:103CF8007B617B691A68BB681B0D03F01F030721F2
:103D080001FA03F3DB431A40BB681B0D03F01F03E2
:103D1800796801FA03F31A437B691A6000BF1C37FC
:103D2800BD465DF8047B704780B485B000AFF8608D
:103D3800B9607A60FB68D3F8B020BB68C3F312039C
:103D4800DB431A407B6803F018030849D940BB6875
:103D58000B40C3F312031A43FB68C3F8B02000BF3B
:103D68001437BD465DF8047B704700BFFFFF0700AE
:103D780080B483B000AF78607B689B6803F01F0352
:103D880018460C37BD465DF8047B704780B483B095
:103D980000AF78607B689B6823F0204323F03F03E3
:103DA8007A68936000BF0C37BD465DF8047B7047A6
:103DB80080B483B000AF78607B689B6803F00053E1
:103DC800B3F1005F01D1012300E0002318460C374E
:103DD800BD465DF8047B704780B483B000AF78605F
:103DE8007B689B6823F0104323F03F0343F0805225
:103DF8007B689A6000BF0C37BD465DF8047B70474E
:103E080080B483B000AF78607B689B6803F0805310
:103E1800B3F1805F01D1012300E0002318460C377D
:103E2800BD465DF8047B704780B483B000AF78600E
:103E38007B689B6823F0004323F03F0343F00102B3
:103E48007B689A6000BF0C37BD465DF8047B7047FD
:103E580080B483B000AF78607B689B6823F0004330
:103E680023F03F0343F002027B689A6000BF0C37DF
:103E7800BD465DF8047B704780B483B000AF7860BE
:103E88007B689B6803F00103012B01D1012300E04B
:103E9800002318460C37BD465DF8047B704780B494
:103EA80083B000AF78607B689B6803F00203022B45
:103EB80001D1012300E0002318460C37BD465DF808
:103EC800047B704780B483B000AF78607B689B68E0
:103ED80023F0004323F03F0343F004027B689A6019
:103EE80000BF0C37BD465DF8047B704780B483B0D3
:103EF80000AF78607B689B6803F00403042B01D152
:103F0800012300E0002318460C37BD465DF8047B0A
:103F1800704780B483B000AF78607B689B6803F01B
:103F28000803082B01D1012300E0002318460C37B1
:103F3800BD465DF8047B704790B589B000AF7860E6
:103F48000023FB770023FB607B68002B01D1012352
:103F5800A9E17B685B69002B7B68DB6D002B09D1CD
:103F68007868FEF767FC7B6800221A667B68002287
:103F780083F858207B681B681846FFF719FF03462B
:103F8800002B04D07B681B681846FFF7FFFE7B6890
:103F98001B681846FFF734FF0346002B15D17B68D2
:103FA8001B681846FFF718FF9C4B1B689B099C4A27
:103FB800A2FB03239B0901335B00FB6002E0FB6863
:103FC800013BFB60FB68002BF9D17B681B68184636
:103FD800FFF716FF0346002B0DD17B68DB6D43F01E
:103FE80010027B68DA657B681B6E43F001027B6810
:103FF8001A660123FB777B681B681846FFF776FF74
:1040080078617B68DB6D03F01003002B40F0428180
:104018007B69002B40F03E817B68DB6D23F4817364
:1040280043F002027B68DA657B681B681846FFF775
:1040380023FF0346002B41D17B681B68B3F1A04FD7
:1040480004D07B681B68774A93420FD14FF0A04099
:10405800FFF712FF04467348FFF70EFF034623439A
:10406800002B0CBF01230023DBB212E06E48FFF7E0
:1040780003FF04466D48FFF7FFFE03461C436C48E8
:10408800FFF7FAFE03462343002B0CBF012300234E
:10409800DBB2002B12D07B681B68B3F1A04F04D0B1
:1040A8007B681B685F4A934201D1624A00E0624A1A
:1040B8007B685B6819461046FFF7FAFC7B685B7FF4
:1040C8005A037B68DB6B1A437B68DB681A437B689F
:1040D8009B681A437B6893F824301B041343BB6125
:1040E8007B6893F82430012B06D17B689B6A013BDF
:1040F8005B04BA691343BB617B68DB6A002B09D098
:104108007B68DB6A03F478727B681B6B1343BA69BC
:104118001343BB617B681B68DA68484B13407A68B5
:104128001268B9690B43D3607B681B681B6923F06D
:1041380040617B685A6B7B681B680A431A617B681D
:104148001B681846FFF7E5FE38617B69002B7FD1B5
:104158003B69002B7CD17B681B7F9A037B6893F8B3
:1041680038305B001343BB617B681B68DB6823F452
:10417800804323F002037A681268B9690B43D3605D
:104188007B681B69002B17D07B681B681A697B68E2
:104198001B6842F480321A617B681B68D3F8C03010
:1041A80023F47F5323F03F037A6811697A68126811
:1041B8000B43C2F8C03013E07B681B681A697B6840
:1041C8001B6822F480321A617B681B68D3F8C03000
:1041D8007A68126823F47F5323F03F03C2F8C03093
:1041E8007B6893F84030012B2AD17B681B681B69D8
:1041F80023F4FF6323F004037A68516C7A68926CA5
:1042080011437A68D26C11437A68126D0A431A43D3
:104218007B681B6842F001021A6119E0280000203F
:10422800632D3E05000100500004005000050050B9
:104238000006005000030050000700500740F0FF40
:104248007B681B681A697B681B6822F001021A6187
:104258007B685B69012B0CD17B681B681B6B23F0A7
:104268000F017B681B6A5A1E7B681B680A431A6326
:1042780007E07B681B681A6B7B681B6822F00F02DB
:104288001A637B68DB6D23F0030343F001027B684C
:10429800DA6507E07B68DB6D43F010027B68DA655E
:1042A8000123FB77FB7F18462437BD4690BD00BF2E
:1042B80080B586B000AFF860B9607A60FB681B68AB
:1042C800B3F1A04F04D0FB681B685A4A934201D14E
:1042D800594B00E0594B1846FFF74AFD3861FB6817
:1042E8001B681846FFF702FE0346002B40F09B8030
:1042F800FB6893F85830012B01D1022396E0FB6844
:10430800012283F85820FB681B684D4A934208D065
:104318003B69002B05D03B69052B02D03B69092B73
:104328007AD1F86800F0ECFC0346FB75FB7D002BA6
:104338006DD1FB68DB6D23F4706323F0010343F454
:104348008072FB68DA65FB681B683A4A934209D0B9
:10435800FB681B683B4A934202D0FB681B6803E07A
:10436800394B01E04FF0A043FA681268934202D03B
:104378003B69002B05D1FB68DB6D23F48012FB68D9
:10438800DA65FB68DB6D03F48053002B06D0FB680D
:104398001B6E23F00602FB681A6602E0FB68002227
:1043A8001A66FB685B6D294ADA62FB685B6D284A0E
:1043B8001A63FB685B6D274A5A63FB681B681C22FB
:1043C8001A60FB68002283F85820FB681B685A684B
:1043D800FB681B6842F010025A60FB681B68DA68C9
:1043E800FB681B6842F00102DA60FB68586DFB68E5
:1043F8001B6840331946BA687B6802F067FA0346BF
:10440800FB75FB681B681846FFF75CFD0DE0FB6851
:10441800002283F8582008E00123FB75FB6800227E
:1044280083F8582001E00223FB75FB7D18461837F6
:10443800BD4680BD00010050000300500007005039
:10444800000600500005005000040050F34E00081C
:10445800CB4F0008E74F000880B483B000AF786006
:1044680000BF0C37BD465DF8047B704780B483B04D
:1044780000AF786000BF0C37BD465DF8047B70471D
:1044880080B5B6B000AF78603960002387F8D730C0
:104498000023FB607B6893F85830012B02D102237C
:1044A80000F013BC7B68012283F858207B681B68E6
:1044B8001846FFF71BFD0346002B40F0F3837B688B
:1044C80018683B6859683B681B681A46FFF7D5FBB4
:1044D8007B681B681846FFF709FDC7F8D0007B68A2
:1044E8001B681846FFF715FDC7F8CC00D7F8D03081
:1044F800002B40F0D981D7F8CC30002B40F0D48184
:104508003B689B68B3F1004F0FD17B6818683B6824
:104518001B6800221946FFF7DCFB7B681B684FF01D
:1045280000411846FFF783FB0EE07B6818683B687C
:1045380019683B689B681A46FFF7CBFB7B681B68CA
:1045480000211846FFF773FB3B685A697B681B68B4
:10455800DB68DB0803F003035B0002FA03F3C7F828
:10456800C8303B681B69042B22D07B6818683B68FD
:1045780019693B681A68D7F8C830FFF7CDFA7B6825
:1045880018683B6819693B689B691A46FFF719FB6D
:104598007B6818683B6819693B681B7F012B02D14F
:1045A8004FF0007300E000231A46FFF725FB7BE17C
:1045B8007B681B6800211846FFF7D2FA0346C3F34D
:1045C8001203002B0AD17B681B6800211846FFF7ED
:1045D800C7FA03469B0E03F01F021EE07B681B68A8
:1045E80000211846FFF7BCFA0346C7F8BC30D7F8D5
:1045F800BC3093FAA3F3C7F8C030D7F8C030C7F877
:10460800B830D7F8B830002B01D1202304E0D7F810
:10461800B830B3FA83F3DBB21A463B681B68C3F3BE
:104628001203002B05D13B681B689B0E03F01F0388
:1046380018E03B681B68C7F8B030D7F8B03093FA79
:10464800A3F3C7F8AC30D7F8AC30C7F8B430D7F814
:10465800B430002B01D1202304E0D7F8B430B3FAEA
:1046680083F3DBB29A4206D17B681B6800220021E3
:104678001846FFF78BFA7B681B6801211846FFF77D
:104688006FFA0346C3F31203002B0AD17B681B6839
:1046980001211846FFF764FA03469B0E03F01F0238
:1046A8001EE07B681B6801211846FFF759FA03468C
:1046B800C7F8A430D7F8A43093FAA3F3C7F8A0300A
:1046C800D7F8A030C7F8A830D7F8A830002B01D108
:1046D800202304E0D7F8A830B3FA83F3DBB21A46F4
:1046E8003B681B68C3F31203002B05D13B681B68AA
:1046F8009B0E03F01F0318E03B681B68C7F898304F
:10470800D7F8983093FAA3F3C7F89430D7F89430D1
:10471800C7F89C30D7F89C30002B01D1202304E047
:10472800D7F89C30B3FA83F3DBB29A4206D17B68A0
:104738001B68002201211846FFF728FA7B681B68CE
:1047480002211846FFF70CFA0346C3F31203002BA5
:104758000AD17B681B6802211846FFF701FA034655
:104768009B0E03F01F021EE07B681B68022118469F
:10477800FFF7F6F90346C7F88C30D7F88C3093FA70
:10478800A3F3C7F88830D7F88830C7F89030D7F83F
:104798009030002B01D1202304E0D7F89030B3FAF1
:1047A80083F3DBB21A463B681B68C3F31203002B82
:1047B80005D13B681B689B0E03F01F0316E03B689E
:1047C8001B68C7F88030D7F8803093FAA3F3FB67EB
:1047D800FB6FC7F88430D7F88430002B01D1202331
:1047E80004E0D7F88430B3FA83F3DBB29A4206D1F7
:1047F8007B681B68002202211846FFF7C7F97B680F
:104808001B6803211846FFF7ABF90346C3F31203ED
:10481800002B0AD17B681B6803211846FFF7A0F913
:1048280003469B0E03F01F0217E07B681B680321F9
:104838001846FFF795F903467B677B6F93FAA3F356
:104848003B673B6FBB67BB6F002B01D1202303E0A5
:10485800BB6FB3FA83F3DBB21A463B681B68C3F33A
:104868001203002B05D13B681B689B0E03F01F0346
:1048780011E03B681B68BB66BB6E93FAA3F37B66CB
:104888007B6EFB66FB6E002B01D1202303E0FB6EE1
:10489800B3FA83F3DBB29A4206D17B681B68002225
:1048A80003211846FFF772F97B681B681846FFF763
:1048B800E3FA0346002B40F03D817B6818683B68AB
:1048C80019683B68DB681A46FFF72EFA3B68DB6815
:1048D800A24A934240F02E817B6818683B681B68A7
:1048E800C3F31203002B0BD13B681B689B0E0133EB
:1048F80003F01F03092B94BF01230023DBB219E047
:104908003B681B68FB65FB6D93FAA3F3BB65BB6D46
:104918003B663B6E002B01D1202303E03B6EB3FACC
:1049280083F3DBB2013303F01F03092B94BF012388
:104938000023DBB2002B79D03B681B68C3F312035A
:10494800002B07D13B681B689B0E01339B0603F0C5
:10495800F84215E03B681B683B653B6D93FAA3F38F
:10496800FB64FB6C7B657B6D002B01D1202303E08E
:104978007B6DB3FA83F3DBB201339B0603F0F84295
:104988003B681B68C3F31203002B09D13B681B6803
:104998009B0E013303F01F03012101FA03F317E013
:1049A8003B681B687B647B6C93FAA3F33B643B6CAA
:1049B800BB64BB6C002B01D1202303E0BB6CB3FAB2
:1049C80083F3DBB2013303F01F03012101FA03F380
:1049D80042EA03013B681B68C3F31203002B0AD1A8
:1049E8003B681B689B0E013303F01F0213465B00F4
:1049F80013441B0518E03B681B68BB63BB6B93FA49
:104A0800A3F37B637B6BFB63FB6B002B01D1202340
:104A180003E0FB6BB3FA83F3DBB2013303F01F024D
:104A280013465B0013441B050B437EE03B681B6881
:104A3800C3F31203002B07D13B681B689B0E01339D
:104A48009B0603F0F84215E03B681B68FB62FB6AB3
:104A580093FAA3F3BB62BB6A3B633B6B002B01D1A8
:104A6800202303E03B6BB3FA83F3DBB201339B06ED
:104A780003F0F8423B681B68C3F31203002B09D10B
:104A88003B681B689B0E013303F01F03012101FAE9
:104A980003F317E03B681B683B623B6A93FAA3F396
:104AA800FB61FB697B627B6A002B01D1202303E059
:104AB8007B6AB3FA83F3DBB2013303F01F030121EE
:104AC80001FA03F342EA03013B681B68C3F31203CC
:104AD800002B0DD13B681B689B0E013303F01F02AE
:104AE80013465B0013441E3B1B0543F000731BE099
:104AF8003B681B687B617B6993FAA3F33B613B6965
:104B0800BB61BB69002B01D1202303E0BB69B3FA69
:104B180083F3DBB2013303F01F0213465B00134437
:104B28001E3B1B0543F000730B433A689268194615
:104B3800FFF7CFF83B681A68094B1340002B00F0C9
:104B4800BE807B681B68B3F1A04F04D07B681B68EC
:104B5800044A93420AD1044B09E000BF00007F4099
:104B6800000008800001005000030050594B18460F
:104B7800FEF7C4FFC7F8C4003B681B68564A934257
:104B880004D03B681B68554A93423AD1D7F8C430E1
:104B980003F40003002B34D17B681B68B3F1A04FEA
:104BA80005D07B681B684E4A934240F085807B683D
:104BB8001B68B3F1A04F04D07B681B68494A934235
:104BC80001D1494A00E0434AD7F8C43043F400030E
:104BD80019461046FEF77FFF444B1B689B09444A61
:104BE800A2FB03239B095A1C13465B0013449B003A
:104BF800FB6002E0FB68013BFB60FB68002BF9D11E
:104C08005AE03B681B683B4A934225D1D7F8C43029
:104C180003F08073002B1FD17B681B68314A9342D5
:104C280004D17B681B68344A934247D07B681B6871
:104C3800B3F1A04F04D07B681B682A4A934201D184
:104C4800294A00E0234AD7F8C43043F08073194654
:104C58001046FEF740FF31E03B681B68274A934245
:104C68002DD1D7F8C43003F48003002B27D17B68FB
:104C78001B681C4A934222D07B681B68B3F1A04F83
:104C880004D07B681B68174A934201D1164A00E09A
:104C9800104AD7F8C43043F4800319461046FEF78B
:104CA8001AFF0CE07B68DB6D43F020027B68DA6555
:104CB800012387F8D73002E000BF00E000BF7B681F
:104CC800002283F8582097F8D7301846D837BD46C1
:104CD80080BD00BF00070050000021C31000C09035
:104CE800000600500001005000030050280000207A
:104CF800632D3E05000052C700050050000084CB1C
:104D080080B584B000AF78600023BB607B681B6807
:104D18001846FFF7B1F80346002B76D17B681B686D
:104D28009A683C4B1340002B0DD07B68DB6D43F039
:104D380010027B68DA657B681B6E43F001027B68B2
:104D48001A66012362E07B681B681846FFF76CF857
:104D58007B681B68B3F1A04F04D07B681B682E4AA0
:104D6800934201D12D4B00E02D4B1846FEF7C6FEAD
:104D7800034603F40003002B13D02A4B1B689B093E
:104D8800294AA2FB03239B095A1C13465B001344C0
:104D98009B00BB6002E0BB68013BBB60BB68002BAB
:104DA800F9D100F057FBF86028E07B681B681846CB
:104DB800FFF762F80346002B04D17B681B6818468E
:104DC800FFF732F800F046FB0246FB68D31A022BC5
:104DD80014D97B681B681B6803F00103012B0DD0F5
:104DE8007B68DB6D43F010027B68DA657B681B6EBD
:104DF80043F001027B681A66012307E07B681B68A1
:104E08001B6803F00103012BCFD10023184610378C
:104E1800BD4680BD3F0000800001005000030050E7
:104E28000007005028000020632D3E0580B584B09F
:104E380000AF78607B681B681846FFF730F8F860A9
:104E48007B681B681846FFF717F80346002B47D006
:104E5800FB68002B44D17B681B689B6803F00D033B
:104E6800012B0CD17B681B681846FEF7F1FF7B68A5
:104E78001B6803221A6000F0EDFAB86029E07B682D
:104E8800DB6D43F010027B68DA657B681B6E43F0CC
:104E980001027B681A66012323E000F0DBFA024670
:104EA800BB68D31A022B14D97B681B689B6803F074
:104EB8000103002B0DD07B68DB6D43F010027B688B
:104EC800DA657B681B6E43F001027B681A66012372
:104ED80007E07B681B689B6803F00103002BDCD1AB
:104EE800002318461037BD4680BD80B584B000AF9A
:104EF80078607B689B6AFB60FB68DB6D03F050039E
:104F0800002B4BD1FB68DB6D43F40072FB68DA655C
:104F1800FB681B681B6803F00803002B21D0FB68A3
:104F28001B681846FEF796FE0346002B32D0FB6836
:104F38001B68DB6803F40053002B2BD1FB68DB6D87
:104F480023F48072FB68DA65FB68DB6D03F4805339
:104F5800002B1FD1FB68DB6D43F00102FB68DA65AB
:104F680018E0FB681B68DB6803F00203002B11D113
:104F7800FB68DB6D23F48072FB68DA65FB68DB6D28
:104F880003F48053002B05D1FB68DB6D43F001026D
:104F9800FB68DA65F868FBF71BFF0EE0FB68DB6D62
:104FA80003F01003002B03D0F868FFF75FFA04E062
:104FB800FB685B6D5B6B7868984700BF1037BD4630
:104FC80080BD80B584B000AF78607B689B6AFB6069
:104FD800F868FFF741FA00BF1037BD4680BD80B5BD
:104FE80084B000AF78607B689B6AFB60FB68DB6D10
:104FF80043F04002FB68DA65FB681B6E43F004026D
:10500800FB681A66F868FFF731FA00BF1037BD462B
:1050180080BD80B483B000AF78607B689B6803F084
:105028000103012B01D1012300E0002318460C37AE
:10503800BD465DF8047B704780B483B000AF7860EC
:1050480039607B689B6823F0404323F03F033A684C
:1050580002F08042134343F000427B689A6000BF2D
:105068000C37BD465DF8047B704780B483B000AF51
:1050780078607B689B6803F00043B3F1004F01D16F
:10508800012300E0002318460C37BD465DF8047B79
:10509800704780B483B000AF78607B689B6803F08A
:1050A8000403042B01D1012300E0002318460C3728
:1050B800BD465DF8047B704780B584B000AF78606A
:1050C80039600023BB607B6893F85830012B01D10D
:1050D80002234DE07B68012283F858207868FFF7A7
:1050E800A5FE0346FB73FB7B002B36D17B68DB6D8B
:1050F80023F4885323F0020343F002027B68DA6545
:105108007B681B6839681846FFF796FF14E0BB6890
:105118000133BB60BB68184A93420DD97B68DB6DCD
:1051280023F0120343F010027B68DA657B680022E3
:1051380083F8582001231BE07B681B681846FFF79B
:1051480094FF0346002BE2D17B68DB6D23F0030359
:1051580043F001027B68DA6505E07B68DB6D43F0AC
:1051680010027B68DA657B68002283F85820FB7B95
:1051780018461037BD4680BD01DE040090B5A1B0C9
:1051880000AF78603960002387F87F307B6893F838
:105198005830012B01D10223E7E07B68012283F814
:1051A800582000237B660023BB667B681B68B3F12D
:1051B800A04F02D16F4BBB6009E07B681B686E4A49
:1051C800934202D16D4BBB6001E00023BB60BB681A
:1051D800002B0BD17B68DB6D43F020027B68DA651E
:1051E8007B68002283F858200123BEE0BB6818467C
:1051F800FFF74FFFB8677B681B681846FFF749FF42
:105208000346002B40F0A080BB6F002B40F09C8031
:105218007B681B68B3F1A04F04D07B681B68554AB4
:10522800934201D1564B00E0564B7B673B681B68A5
:10523800002B4BD07B6F9B6823F460423B68596816
:105248007B6893F838305B030B431A437B6F9A6093
:105258007B681B68B3F1A04F04D07B681B68454A84
:1052680093420FD14FF0A040FFF7D3FE04464148C8
:10527800FFF7CFFE03462343002B0CBF0123002377
:10528800DBB212E03C48FFF7C4FE04463B48FFF798
:10529800C0FE03461C433C48FFF7BBFE03462343BE
:1052A800002B0CBF01230023DBB2002B56D07B6FF1
:1052B8009B6823F4716323F00F033A6811683A6816
:1052C80092680A431A437B6F9A6047E07B6F9B683A
:1052D80023F460427B6F9A607B681B68B3F1A04F30
:1052E80004D07B681B68234A93420FD14FF0A0403B
:1052F800FFF78FFE04461F48FFF78BFE0346234344
:10530800002B0CBF01230023DBB212E01A48FFF781
:1053180080FE04461948FFF77CFE03461C431A48E2
:10532800FFF777FE03462343002B0CBF012300231E
:10533800DBB2002B12D07B6F9B6823F4716323F0E0
:105348000F037A6F936009E07B68DB6D43F02002FE
:105358007B68DA65012387F87F3000E000BF7B684F
:10536800002283F8582097F87F3018468437BD46C6
:1053780090BD00BF0001005000040050000500501F
:1053880000030050000700500006005080B582B0AE
:1053980000AF0023FB71032001F0A6FE0F2000F0F0
:1053A8000DF80346002B02D00123FB7101E0FEF744
:1053B8005BFBFB7918460837BD4680BD80B584B0D5
:1053C80000AF78600023FB73164B1B68002B22D0BC
:1053D800154B1A68134B1B684FF47A71B1FBF3F342
:1053E800B2FBF3F3184601F0B2FE0346002B0FD1CF
:1053F8007B680F2B09D8002279684FF0FF3001F045
:105408007EFE0A4A7B68136007E00123FB7304E011
:105418000123FB7301E00123FB73FB7B1846103764
:10542800BD4680BD24000020280000202000002068
:1054380080B400AF054B1A68054B1B681344034A38
:10544800136000BFBD465DF8047B7047800F0020E5
:105458002400002080B400AF034B1B681846BD46EB
:105468005DF8047B704700BF800F002080B584B0D2
:1054780000AF7860FFF7EEFFB8607B68FB60FB6801
:10548800B3F1FF3F04D0094B1B68FA681344FB6073
:1054980000BFFFF7DFFF0246BB68D31AFA689A42DB
:1054A800F7D800BF00BF1037BD4680BD24000020DC
:1054B80080B400AF054B5B68044A43F001035360B6
:1054C80000BFBD465DF8047B704700BF002004E0C4
:1054D80080B400AF054B5B68044A43F00203536095
:1054E80000BFBD465DF8047B704700BF002004E0A4
:1054F80080B588B000AF78607B68002B01D10123AC
:10550800FEE27B681B6803F00103002B75D0974B04
:105518009B6803F00C03BB61944BDB6803F0030347
:105528007B61BB690C2B02D17B69032B02D0BB6961
:10553800082B0BD18D4B1B6803F40033002B5BD079
:105548007B685B68002B57D10123D9E27B685B68D5
:10555800B3F5803F06D1854B1B68844A43F48033FA
:1055680013601DE07B685B68B3F5A02F0CD17F4BFF
:105578001B687E4A43F4802313607C4B1B687B4A7C
:1055880043F4803313600BE0784B1B68774A23F4AD
:1055980080331360754B1B68744A23F480231360AF
:1055A8007B685B68002B13D0FFF754FF386108E075
:1055B800FFF750FF02463B69D31A642B01D9032336
:1055C8009EE26A4B1B6803F40033002BF0D014E012
:1055D800FFF740FF386108E0FFF73CFF02463B69F0
:1055E800D31A642B01D903238AE2604B1B6803F4A6
:1055F8000033002BF0D100E000BF7B681B6803F08C
:105608000203002B75D0594B9B6803F00C03BB6158
:10561800564BDB6803F003037B61BB690C2B02D19B
:105628007B69022B02D0BB69042B1FD14F4B1B682F
:1056380003F48063002B05D07B68DB68002B01D165
:1056480001235DE2494B5B6823F0FE427B681B69DE
:105658001B06464913434B60454B1B681846FFF72A
:10566800ADFE0346002B43D0012349E27B68DB688B
:10567800002B23D03D4B1B683C4A43F480731360D6
:10568800FFF7E8FE386108E0FFF7E4FE02463B69F1
:10569800D31A022B01D9032332E2344B1B6803F4DB
:1056A8008063002BF0D0314B5B6823F0FE427B68AF
:1056B8001B691B062D4913434B601AE02B4B1B68D3
:1056C8002A4A23F480731360FFF7C4FE386108E0A8
:1056D800FFF7C0FE02463B69D31A022B01D9032308
:1056E8000EE2224B1B6803F48063002BF0D100E02C
:1056F80000BF7B681B6803F00803002B41D07B6860
:105708005B69002B1CD0194BD3F89430174A43F02F
:105718000103C2F89430FFF79DFE386108E0FFF7F7
:1057280099FE02463B69D31A022B01D90323E7E10C
:105738000E4BD3F8943003F00203002BEFD020E097
:105748000A4BD3F89430094A23F00103C2F8943085
:10575800FFF780FE38610DE0FFF77CFE02463B69EB
:10576800D31A022B06D90323CAE100BF0010024056
:10577800200000208C4BD3F8943003F00203002B58
:10578800EAD17B681B6803F00403002B00F0A680B5
:105798000023FB77844B9B6D03F08053002B01D1D2
:1057A800012300E00023002B0DD07F4B9B6D7E4A28
:1057B80043F0805393657C4B9B6D03F08053FB60F3
:1057C800FB680123FB77794B1B6803F48073002B7C
:1057D80018D1764B1B68754A43F480731360FFF742
:1057E80039FE386108E0FFF735FE02463B69D31AF7
:1057F800022B01D9032383E16C4B1B6803F48073EC
:10580800002BF0D07B689B68012B08D1664BD3F83E
:105818009030654A43F00103C2F8903024E07B6879
:105828009B68052B10D1604BD3F890305E4A43F04B
:105838000403C2F890305C4BD3F890305A4A43F0D6
:105848000103C2F890300FE0574BD3F89030564A16
:1058580023F00103C2F89030534BD3F89030524AEA
:1058680023F00403C2F890307B689B68002B16D0A5
:10587800FFF7F0FD38610AE0FFF7ECFD02463B69EF
:10588800D31A41F28832934201D9032338E1464BB7
:10589800D3F8903003F00203002BEDD015E0FFF7AA
:1058A800D9FD38610AE0FFF7D5FD02463B69D31AF6
:1058B80041F28832934201D9032321E13A4BD3F8CC
:1058C800903003F00203002BEDD1FB7F012B05D1B3
:1058D800354B9B6D344A23F0805393657B681B6876
:1058E80003F02003002B3CD07B689B69002B1CD065
:1058F8002D4BD3F898302C4A43F00103C2F8983066
:10590800FFF7A8FD386108E0FFF7A4FD02463B69F0
:10591800D31A022B01D90323F2E0234BD3F8983092
:1059280003F00203002BEFD01BE01F4BD3F8983095
:105938001D4A23F00103C2F89830FFF78BFD386148
:1059480008E0FFF787FD02463B69D31A022B01D90D
:105958000323D5E0144BD3F8983003F00203002B4F
:10596800EFD17B68DB69002B00F0C9800E4B9B6888
:1059780003F00C030C2B00F083807B68DB69022B9F
:105988005ED1094B1B68084A23F080731360FFF748
:1059980061FD38610CE0FFF75DFD02463B69D31AF3
:1059A800022B05D90323ABE0001002400070004031
:1059B800554B1B6803F00073002BECD1524BDA688F
:1059C800524B13407A68116A7A68526A013A120196
:1059D80011437A68926A120211437A68126B52086C
:1059E800013A520511437A68526B5208013A52063D
:1059F80011437A68D26AD2060A4343491343CB60FB
:105A0800414B1B68404A43F0807313603E4BDB6890
:105A18003D4A43F08073D360FFF71CFD386108E00E
:105A2800FFF718FD02463B69D31A022B01D903235D
:105A380066E0354B1B6803F00073002BF0D05EE086
:105A4800314B1B68304A23F080731360FFF702FD67
:105A5800386108E0FFF7FEFC02463B69D31A022BC7
:105A680001D903234CE0284B1B6803F00073002B7B
:105A7800F0D1254BDA682449254B1340CB603EE032
:105A88007B68DB69012B01D1012339E01E4BDB6800
:105A98007B617B6903F003027B681B6A9A422CD105
:105AA8007B6903F0F0027B685B6A013B1B019A4249
:105AB80023D17B6903F4FE427B689B6A1B029A42EE
:105AC8001BD17B6903F078427B68DB6ADB069A426C
