:020000040800F2
:100000000000022081B00008054100080D410008F1
:10001000154100081D4100082541000800000000AE
:100020000000000000000000000000002D4100085A
:100030003B4100080000000049410008574100080A
:10004000D1B00008D1B00008D1B00008D1B000088C
:10005000D1B00008D1B00008D1B00008D1B000087C
:10006000D1B00008D1B00008D1B00008D1B000086C
:10007000D1B0000865410008794100088D410008B1
:10008000D1B00008D1B00008D1B00008D1B000084C
:10009000D1B00008D1B00008D1B00008D1B000083C
:1000A000D1B00008D1B00008D1B00008D1B000082C
:1000B000D1B00008D1B00008D1B00008D1B000081C
:1000C000D1B00008D1B00008D1B00008D1B000080C
:1000D000D1B00008D1B00008D1B00008D1B00008FC
:1000E000A1410008D1B00008D1B00008D1B000088B
:1000F000D1B00008D1B00008D1B00008D1B00008DC
:10010000D1B00008B1410008C5410008D1B00008D5
:10011000D1B00008D1B00008D9410008D1B0000822
:10012000ED410008D1B00008D1B00008D1B00008FE
:10013000D1B00008D1B00008D1B00008D1B000089B
:10014000D1B00008D1B00008D1B00008D1B000088B
:10015000D1B00008D1B00008D1B00008D1B000087B
:10016000D1B00008D1B00008D1B00008D1B000086B
:10017000D1B00008D1B00008D1B00008D1B000085B
:10018000D1B00008D1B00008D1B00008D1B000084B
:10019000D1B0000800000000D1B00008D1B00008C4
:1001A000D1B00008D1B00008D1B00008D1B000082B
:1001B000D1B00008D1B00008D1B00008D1B000081B
:1001C000D1B00008D1B00008D1B00008D1B000080B
:0801D000D1B00008D1B0000815
:1001D800830730B547D0541E002A3ED0CAB2034622
:1001E80001E0013C39D303F8012B9D07F9D1032C19
:1001F8002CD9CDB205EB05250F2C05EB054535D9D6
:10020800A4F1100222F00F0C03F1100EE6444FEA9D
:10021800121C1A46C2E90055C2E90255103272454D
:10022800F8D10CF1010214F00C0F03EB021204F0E8
:100238000F0C13D0ACF1040323F00303043313446D
:1002480042F8045B9342FBD10CF003042CB1C9B211
:100258001C4403F8011BA342FBD130BD644613467E
:10026800002CF4D1F9E703461446C0E71A46A44621
:10027800E0E700BF70B50F4B0F4DAB42A3EB05068F
:1002880007D0B610002455F8043B01349847A6421D
:10029800F9D80AF01BFF094D094B5E1BAB424FEA28
:1002A800A60606D0002455F8043B01349847A64218
:1002B800F9D870BD68B1000868B1000868B10008D5
:1002C8006CB1000881F0004102E000BF83F00043F8
:1002D80030B54FEA41044FEA430594EA050F08BFD9
:1002E80090EA020F1FBF54EA000C55EA020C7FEA9D
:1002F800645C7FEA655C00F0E2804FEA5454D4EB1A
:100308005555B8BF6D420CDD2C4480EA020281EAE3
:10031800030382EA000083EA010180EA020281EA1B
:100328000303362D88BF30BD11F0004F4FEA01316D
:100338004FF4801C4CEA113102D0404261EB41017C
:1003480013F0004F4FEA03334CEA133302D0524202
:1003580063EB430394EA050F00F0A780A4F10104BE
:10036800D5F1200E0DDB02FA0EFC22FA05F28018F8
:1003780041F1000103FA0EF2801843FA05F35941DE
:100388000EE0A5F120050EF1200E012A03FA0EFC5D
:1003980028BF4CF0020C43FA05F3C01851EBE37187
:1003A80001F0004507D54FF0000EDCF1000C7EEBA4
:1003B80000006EEB0101B1F5801F1BD3B1F5001FE2
:1003C8000CD349085FEA30004FEA3C0C04F1010401
:1003D8004FEA445212F5800F80F09A80BCF1004F2A
:1003E80008BF5FEA500C50F1000041EB045141EAAC
:1003F800050130BD5FEA4C0C404141EB0101013C75
:1004080028BFB1F5801FE9D291F0000F04BF014663
:100418000020B1FA81F308BF2033A3F10B03B3F135
:1004280020020CDA0C3208DD02F1140CC2F10C02C5
:1004380001FA0CF021FA02F10CE002F11402D8BF23
:10044800C2F1200C01FA02F120FA0CFCDCBF41EAEF
:100458000C019040E41AA2BF01EB0451294330BDBE
:100468006FEA04041F3C1CDA0C340EDC04F114049B
:10047800C4F1200220FA04F001FA02F340EA030072
:1004880021FA04F345EA030130BDC4F10C04C4F1B8
:10049800200220FA02F001FA04F340EA0300294698
:1004A80030BD21FA04F0294630BD94F0000F83F4E2
:1004B800801306BF81F480110134013D4EE77FEAC5
:1004C800645C18BF7FEA655C29D094EA050F08BF11
:1004D80090EA020F05D054EA000C04BF19461046F2
:1004E80030BD91EA030F1EBF0021002030BD5FEA36
:1004F800545C05D14000494128BF41F0004130BD5E
:1005080014F580043CBF01F5801130BD01F00045B1
:1005180045F0FE4141F470014FF0000030BD7FEA24
:10052800645C1ABF194610467FEA655C1CBF0B461F
:10053800024650EA013406BF52EA033591EA030F36
:1005480041F4002130BD00BF90F0000F04BF00212E
:10055800704730B54FF4806404F132044FF0000561
:100568004FF0000150E700BF90F0000F04BF0021DA
:10057800704730B54FF4806404F1320410F0004540
:1005880048BF40424FF000013EE700BF42004FEA3B
:10059800E2014FEA31014FEA02701FBF12F07F43B8
:1005A80093F07F4F81F06051704732F07F4208BF6F
:1005B800704793F07F4F04BF41F40021704730B576
:1005C8004FF4607401F0004521F000411CE700BFC2
:1005D80050EA010208BF704730B54FF000050AE045
:1005E80050EA010208BF704730B511F0004502D546
:1005F800404261EB41014FF4806404F132045FEA48
:10060800915C3FF4D8AE4FF003025FEADC0C18BFF0
:1006180003325FEADC0C18BF033202EBDC02C2F1E2
:10062800200300FA03FC20FA02F001FA03FE40EA74
:100638000E0021FA02F11444BDE600BF4FEA410260
:10064800B2F1E04324BFB3F5001CDCF1FE5C0DD928
:1006580001F0004C4FEAC0024CEA5070B2F1004F72
:1006680040EB830008BF20F00100704711F0804F75
:1006780021D113F13872BCBF01F00040704741F43A
:1006880080114FEA5252C2F11802C2F1200C10FA3E
:100698000CF320FA02F018BF40F001004FEAC12322
:1006A8004FEAD32303FA0CFC40EA0C0023FA02F3C6
:1006B8004FEA4303CCE77FEA625307D150EA01339C
:1006C8001EBF4FF0FE4040F44000704701F000406C
:1006D80040F0FE4040F40000704700BF10B5054CE4
:1006E800237833B9044B13B10448AFF300800123D6
:1006F800237010BD2400002000000000D4B00008C2
:1007080008B5034B1BB103490348AFF3008008BD8C
:100718000000000028000020D4B0000890B583B085
:1007280000AF702200216748FFF752FD4FF4D072E6
:1007380000216548FFF74CFD142200216348FFF7AC
:1007480047FD0A2200216248FFF742FD18220021D6
:100758006048FFF73DFD102200215F48FFF738FD94
:10076800182200215D48FFF733FD082200215C486C
:10077800FFF72EFD5B4B00221A705B4B00221A70AC
:100788005A4B4FF000021A6000237B6011E07A6830
:100798001346DB009B1A9B00554A1344184600F089
:1007A80089FA0346002B01D102F09FF87B680133D8
:1007B8007B607B68002BEAD000237B6012E000BFDF
:1007C8004B497A681346DB009B1A9B000B441B6855
:1007D8007F21184605F07EF90346002BF0D17B688F
:1007E80001337B607B68002BE9D0DFED420AB5EE70
:1007F800000A414801F088FB9FED3E0A14213F485A
:1008080001F0E9FB9FED3B0A14213D4801F0E3FBB1
:10081800DFED380AB5EE000A3A4801F075FBDFED66
:10082800350AB5EE000A384801F06EFB04222C495F
:10083800244801F03FF9244801F07EFC00237B6046
:1008480037E02B497A681346DB009B1A9B000B4460
:10085800186827497A681346DB009B1A9B000B44EB
:1008680004331968224C7A681346DB009B1A9B00F4
:10087800234408331B881A4604F00AF91C497A688D
:100888001346DB009B1A9B000B441B685B6D1B68BF
:10089800196817487A681346DB009B1A9B000344C3
:1008A8001B685B6D1B6821F004021A607B680133CA
:1008B8007B607B68002BC4D000BF00BF0C37BD46EF
:1008C80090BD00BF88000020F8000020980200209A
:1008D800AC020020400000205800002068000020E2
:1008E8008000002084040020850400208804002063
:1008F80028B10008000000008C030020B802002086
:10090800980300206C0400207804002090B583B080
:1009180000AF00237B6037E01F497A681346DB008D
:100928009B1A9B000B4418681B497A681346DB0026
:100938009B1A9B000B4404331968174C7A681346BA
:10094800DB009B1A9B00234408331B881A4604F0DB
:100958009FF811497A681346DB009B1A9B000B44E9
:100968001B685B6D1B6819680B487A681346DB00C7
:100978009B1A9B0003441B685B6D1B6821F00402F3
:100988001A607B6801337B607B68002BC4D000BF92
:1009980000BF0C37BD4690BD28B1000880B582B0B5
:1009A80000AF00237B600DE00A497A681346DB003C
:1009B8009B1A9B000B441B68184604F03DF97B68A2
:1009C80001337B607B68002BEED000BF00BF083787
:1009D800BD4680BD28B1000880B500AF08220021BF
:1009E8000748FFF7F5FB074B00221A70064B002259
:1009F8001A7004220249054801F05CF800BF80BD66
:100A08008000002084040020850400208800002045
:100A180080B584B000AF7860786800F021F9F8609C
:100A2800FB68002B0BD0F86800F042F8FB689B6964
:100A3800002B05D0FB689B69F868984700E000BF69
:100A48001037BD4680BD80B582B000AF786087EDB5
:100A5800000A7B68002B02D1D7ED007A23E07B687F
:100A68001B7B022B13D0022B1BDC002B02D0012B8B
:100A780003D016E0D7ED007A15E07B681B6997ED87
:100A8800000A184601F074FAF0EE407A0BE07B6831
:100A98001B6997ED000A184601F0E8FAF0EE407A73
:100AA80001E0D7ED007AB0EE670A0837BD4680BD91
:100AB8002DE9F0438BB000AF78607B68002B00F025
:100AC800C0807B689B7A002B00F0BB807B689B8989
:100AD800002B00F0B6807B681B69002B00F0B38008
:100AE8007B681B7D002B00F0AE806B461E467B6842
:100AF8009B7A013B3B627B689B7ADBB2002298467B
:100B080091464FF000024FF000034FEA491343EAC1
:100B1800D8634FEA48127B689B7ADBB200221C46F6
:100B280015464FF000024FF000036B0143EAD4630F
:100B380062017B689B7A9B000733DB08DB00ADEB27
:100B4800030D6B4603339B089B00FB617B689B7A14
:100B58009B001A460021F869FFF73AFBF9697868A3
:100B680000F000F9002387F8273062E07B681969F4
:100B780097F8272013469B0013449B000B44BB6146
:100B8800BB695A787B689B7A9A424CD2BB695B787E
:100B98001A46FB6953F822307B617B6907EE903A6D
:100BA800F8EE676A7B689B8907EE903AB8EE677A39
:100BB800C6EE877AC7ED047AD7ED047A9FED247ADA
:100BC80027EE877ADFED236AC7EE267AC7ED037A28
:100BD800BB6993ED017AD7ED037A27EE277ABB69D3
:100BE800D3ED027A77EE277AC7ED027ABB691B78D4
:100BF8001A46D7ED047AFCEEE77A17EE903A99B2E6
:100C0800154B23F81210BB691B781C4697ED020A96
:100C1800B869FFF718FFF0EE407A104AA3001344B2
:100C2800C3ED007A00E000BF97F82730013387F85A
:100C380027307B681B7D97F827209A4296D3B546C4
:100C480002E000BF00E000BF2C37BD46BDE8F083DE
:100C58008195534000F07F45AC02002098020020A7
:100C680080B485B000AF78600023FB6015E01049C0
:100C7800FA681346DB009B1A9B000B441B687A68D2
:100C88009A4207D1FA681346DB009B1A9B00084A70
:100C9800134406E0FB680133FB60FB68002BE6D0D9
:100CA800002318461437BD465DF8047B704700BF23
:100CB80028B1000880B485B000AF78607B68002B4D
:100CC80007D07B681B68002B03D07B685B68002B10
:100CD80001D1002340E07B681B89002B07D07B688B
:100CE8009B7A002B03D07B689B89002B01D10023C2
:100CF80032E07B681B891A467B689B7A19467B68B9
:100D08009B8901FB03F39A4201D0002324E07B680E
:100D18001B7D002B05D07B681B69002B01D10023AC
:100D28001AE00023FB7311E07B681969FA7B13460C
:100D38009B0013449B000B445A787B689B7A9A4229
:100D480001D3002308E0FB7B0133FB737B681B7D29
:100D5800FA7B9A42E8D3012318461437BD465DF85A
:100D6800047B704780B487B000AF786039607B68D7
:100D7800002B43D07B685B68002B3FD07B689B7A55
:100D8800002B3BD07B689B89002B37D03B68002B1E
:100D980034D07B685B683B617B689B7AFB7300237C
:100DA800FB8225E0FB7B9BB2FA8A12FB03F3BB8133
:100DB80000237B7515E07B7D9B003A6813441A6815
:100DC800B9897B7D0B445B0039690B441B88184645
:100DD8007B7D9B0039680B4402441A607B7D01339C
:100DE8007B757A7DFB7B9A42E5D3FB8A0133FB82D4
:100DF8007B689B89FA8A9A42D4D300E000BF1C37EB
:100E0800BD465DF8047B704780B582B000AF0346ED
:100E18000A46FB801346BB80BB88002B1CD0104BB6
:100E28001B7819460F4AFB8822F811300C4B1B78A7
:100E38000133DAB20A4B1A70094B1B781A46BB8881
:100E480093420AD8064B00221A70074B01221A70E7
:100E5800064800F009FD00E000BF0837BD4680BD28
:100E680085040020800000208404002088000020E1
:100E780080B584B000AF78607B68002B28D0164B13
:100E88009A887B689B8919461046FFF7BDFF00F0DA
:100E9800E5F90346FB73114BDB68114A13600F4BEE
:100EA8009B680F4A93600D4B1B690D4A5360FB7B8F
:100EB800032B02D0FB7B042B02D1094801F052FB23
:100EC800084B1B78002B04D0064B00221A7000E058
:100ED80000BF1037BD4680BDAC020020980200203C
:100EE800F80000208404002080B400AF034B93F87E
:100EF8006D301846BD465DF8047B704788000020B9
:100F080080B500AFFFF70AFC084B01221A700022D7
:100F18000421074806F0D8F800220821044806F002
:100F2800D3F800F057FA00BF80BD00BF8F0400203F
:100F38000008004880B500AF314B1B78042B59D806
:100F480001A252F823F000BF650F00086B0F0008DC
:100F5800710F0008B70F0008DD0F000800F03AFA1B
:100F68004CE000F057FA49E0264B1B680133254A4C
:100F78001360FFF7B9FF0346002B07D000F07AF99A
:100F88000346002B02D000F061FA37E01E4B1B88A5
:100F9800002B05D01C4B1B88013B9AB21A4B1A80B8
:100FA800194B1B88002B28D100F014FA25E0FFF715
:100FB8009BFF0346002B04D000F05CF90346002B8E
:100FC80002D100F007FA19E00D4B04221A7000F064
:100FD8001DF813E0FFF788FF0346002B04D000F04C
:100FE80049F90346002B02D100F0F4F906E000F0BD
:100FF8000DF803E000F0EEF900E000BF80BD00BF8F
:101008008C040020980400209004002080B584B04F
:1010180000AF0023FB733E4B1B8801339AB23C4B55
:101028001A803B4B1B8842F21072934202D9384B0C
:1010380000221A80364B1B88364AA2FB031252093B
:10104800642101FB02F29B1A9BB2002B01D1012300
:10105800FB73314B1B78002B53D0FB7B002B50D0FC
:101068002E4BD3ED007A9FED2E7A77EE877A2B4BB5
:10107800C3ED007A294BD3ED007A9FED2A7AF4EE7E
:10108800C77AF1EE10FA03DB244B4FF000021A6026
:10109800224BD3ED007A9FED247A67EE877AFCEE37
:1010A800E77AC7ED017A3B79DBB21A461F4B9A5CA7
:1010B8001F4B1A70194BD3ED007A9FED1B7A67EE20
:1010C800877AFCEEE77AC7ED017A3B79DBB21A46FC
:1010D800164B9B5C002B0AD001220421154805F011
:1010E800F3FF01220821134805F0EEFF09E0002272
:1010F8000421104805F0E8FF002208210D4805F0FA
:10110800E3FF00F0B5F900BF1037BD4680BD00BF52
:10111800920400201F85EB51940400209C040020B9
:101128000AD7233CCDCC4C3E0000C842000000202A
:10113800950400200008004880B500AF174B1B78C5
:10114800002B26D1164B1B78002B0CD14FF4FA72CA
:101158004FF4FA71134808F013FA0346002B02D132
:101168000F4B01221A700E4B1B78002B13D004F082
:10117800ADFE01214FF4804006F0A2FA01F06AFBAF
:1011880004F0B4FE054B1B78012B05D100F084F860
:1011980002E000BF00E000BF80BD00BF8C0400205B
:1011A8008E040020DC08002080B582B000AF786093
:1011B8007B68044A934201D1FFF7BCFE00BF0837A1
:1011C800BD4680BDAC09002080B582B000AF786014
:1011D8007B68084A934209D1786808F041FA064BBF
:1011E80000221A70054B01221A7000E000BF083770
:1011F800BD4680BDDC0800208E0400208C04002041
:1012080080B582B000AF0346FB80FB88B3F5806FE2
:1012180015D14FF480610D4805F03EFF0346012BC0
:101228000FD10B4B1B78002B05D00A4808F018FA91
:10123800074B00221A70084B01221A7002E000BF07
:1012480000E000BF0837BD4680BD00BF0008004869
:101258008E040020DC0800208C04002080B400AF3D
:10126800034B1B781846BD465DF8047B704700BFEA
:101278008C04002080B500AF4FF48061054805F06C
:101288000BFF0346012B0CBF01230023DBB21846DA
:1012980080BD00BF0008004880B500AF054B1B7833
:1012A800002B05D1044808F04BFC024B01221A70B0
:1012B80000BF80BD8D040020AC09002080B500AFC0
:1012C800054B1B78002B05D0044808F0B1FC024BF5
:1012D80000221A7000BF80BD8D040020AC090020D8
:1012E80080B500AF4FF48031184807F00EFC4FF47A
:1012F8000011164807F009FC4FF48001134807F065
:1013080004FC4FF44071114807F0A5FB4FF440610D
:101318000E4807F0A0FB0D4B1B6843F22052C3F8A0
:101328009C220A4B1B6849F66072C3F8A822074B37
:101338001B6843F22052C3F81C23044B1B6849F670
:101348006072C3F8282300BF80BD00BFE0070020FB
:1013580080B500AF4FF480310D4807F0D6FB4FF44D
:1013680000110B4807F0D1FB4FF48001084807F043
:10137800CCFB4FF44071064807F06DFB4FF4406119
:10138800034807F068FB00F073F800BF80BD00BF9A
:10139800E007002080B500AF4FF440710C4807F01B
:1013A80087FB4FF440610A4807F082FB4FF40011B5
:1013B800074807F0D5FB4FF48001054807F0D0FB3C
:1013C8004FF48031024807F0CBFB00BF80BD00BF5F
:1013D800E007002080B500AFFFF7DCFF0A4B1B7861
:1013E800002B04D0FFF7DAFA074B00221A70FFF738
:1013F800F3FAFFF763FF054B00221A80044B002223
:101408001A7000BF80BD00BF8F0400209004002028
:101418008C04002080B500AFFFF7DEFAFFF776FAFC
:10142800074B01221A70FFF75BFFFFF735FF054BEB
:10143800C8221A80044B02221A7000BF80BD00BF68
:101448008F040020900400208C04002080B500AF99
:10145800FFF77EFFFFF720FF034B00221A80034BA4
:1014680003221A7000BF80BD900400208C04002065
:1014780080B400AF0E4B1B6843F22052C3F89C2285
:101488000B4B1B6849F66072C3F8A822084B1B680F
:1014980043F22052C3F81C23054B1B6849F66072BF
:1014A800C3F8282300BFBD465DF8047B704700BF22
:1014B800E007002080B584B000AF786087ED000AAF
:1014C8007B68D3ED107AF5EE407AF1EE10FA02D08F
:1014D800786800F039F97B683A685A627B685A691B
:1014E8007B689A617B681A697B685A617B6893EDAF
:1014F8000A7A7B68D3ED097A77EE677A7B68C3ED61
:10150800047A7B681B78002B5DD17B6893ED047AA5
:101518007B68D3ED057A77EE677AC7ED037A7B6847
:1015280093ED077A7B68D3ED026A7B68D3ED047A82
:1015380066EEA77A77EE277A7B68C3ED077A7B6831
:1015480093ED077A7B68D3ED087AB4EEE77AF1EE8B
:1015580010FA04DD7B681A6A7B68DA6114E07B683C
:1015680093ED077A7B68D3ED087AF1EE677AB4EEEB
:10157800E77AF1EE10FA07D57B68D3ED087AF1EE39
:10158800677A7B68C3ED077A7B6893ED017A7B689D
:10159800D3ED047A27EE277A7B68D3ED077A37EE06
:1015A800277A7B68D3ED036AD7ED037A66EEA77ACC
:1015B80037EE277A7B68D3ED0F7A77EE277A7B6848
:1015C800C3ED0C7A3DE07B681B78012B39D17B6831
:1015D80093ED0C7A7B68D3ED016A7B6893ED046A1E
:1015E8007B68D3ED057A76EE677A66EEA76A7B6844
:1015F80093ED036A7B68D3ED045A7B68D3ED057AD3
:1016080077EEA77A75EEE75A7B68D3ED067A75EE22
:10161800A77A66EE277A76EEA76A7B6893ED026A68
:101628007B68D3ED047A66EE277A76EEA76A7B6844
:10163800D3ED0F7A76EEA77A77EE277A7B68C3ED3B
:101648000C7A7B689A6A7B68DA627B6893ED0C7A1D
:101658007B68D3ED0D7AB4EEE77AF1EE10FA04DD8B
:101668007B685A6B7B681A6310E07B6893ED0C7A91
:101678007B68D3ED0E7AB4EEE77AF1EE10FA00D477
:1016880004E07B689A6B7B681A6300BF1037BD461D
:1016980080BD80B48BB000AFF8610B4687ED050ABA
:1016A800C7ED040A87ED031AC7ED021A87ED012A70
:1016B800C7ED002AFB76FB69FA7E1A70FB697A6926
:1016C8005A60FB693A699A60FB69FA68DA60FB69F3
:1016D800BA681A62FB697A685A63FB693A689A635E
:1016E800FB694FF00002DA61FB694FF000021A63F0
:1016F800FB694FF000025A62FB694FF000029A62E0
:10170800FB694FF00002DA62FB694FF00002DA630E
:10171800FB694FF000021A6400237B620AE0FA6951
:101728007B6A04339B0013444FF000021A607B6A03
:1017380001337B627B6A022BF1DD00BF2C37BD468B
:101748005DF8047B7047000080B485B000AF786016
:101758004FF00003FB607B6893ED0B7A7B68D3ED59
:101768000A7A77EE677AF5EEC07AF1EE10FA08DDBC
:101778007B6893ED0B7A7B68D3ED0A7A77EE677A0C
:1017880009E07B6893ED0B7A7B68D3ED0A7A77EEF4
:10179800677AF1EE677A7B6893ED107AF4EEC77A90
:1017A800F1EE10FA33D97B6893ED0B7A7B68D3EDB1
:1017B8000A7A77EE677AF5EEC07AF1EE10FA02DD72
:1017C800164BFB6013E07B6893ED0B7A7B68D3EDD7
:1017D8000A7A77EE677AF5EEC07AF1EE10FA03D559
:1017E8004FF07E53FB6002E04FF00003FB607B6824
:1017F80093ED0B7A7B68D3ED106AD7ED037A66EE2A
:10180800A77A77EE277A7B68C3ED0A7A00E000BFF3
:101818001437BD465DF8047B704700BF000080BFE9
:1018280080B485B000AF78607B684FF00002DA6161
:101838007B684FF000021A630023FB600AE07A68B5
:10184800FB6804339B0013444FF000021A60FB68E6
:101858000133FB60FB68022BF1DD00BF00BF1437CA
:10186800BD465DF8047B704780B584B000AF7860F2
:101878000023FB73EFE07B681A68FB7B5B00134473
:101888001B881A46834B1A607B681A68FB7B5B00CF
:1018980013441B8807EE903AB8EEE77A7B68D3EDDD
:1018A8000D7AB4EEE77AF1EE10FA1ADD7B68D3ED23
:1018B8000D7A9FED797A27EE877A7B681A68FB7B29
:1018C8005B0013441B8807EE903AF8EEE77ADFEDE9
:1018D800736A67EEA67A77EE277A7B68C3ED0D7A8E
:1018E8000DE07B68D3ED0D7A9FED6D7A67EE877A10
:1018F8009FED6C7A77EE877A7B68C3ED0D7A7B680B
:101908001A68FB7B5B0013441B8807EE903AB8EE1D
:10191800E77A7B68D3ED0E7AB4EEE77AF1EE10FA47
:101928001AD57B68D3ED0E7A9FED5B7A27EE877A1E
:101938007B681A68FB7B5B0013441B8807EE903AB0
:10194800F8EEE77ADFED556A67EEA67A77EE277A42
:101958007B68C3ED0E7A0DE07B68D3ED0E7A9FEDC0
:10196800527A67EE877AB1EE017A77EE877A7B68EA
:10197800C3ED0E7A7B68D3ED0D7A9FED4C7A67EE56
:10198800877A9FED4B7A77EE877AFCEEE77A17EE47
:10199800903A9AB27B689A877B68D3ED0E7A9FED6E
:1019A800437A67EE877A9FED427A77EE877AFCEE84
:1019B800E77A17EE903A9AB27B68DA877B6803F188
:1019C80040007B681A68FB7B5B0013441A887B68BD
:1019D8009B8F9A428CBF01230023DBB2194600F08B
:1019E80050FA0346002B0ED07B684033184600F0AF
:1019F8007AFA7B685B79002B05D17B6801225A71E2
:101A0800012000F0A5F87B6803F154007B681A6890
:101A1800FB7B5B0013441A887B68DB8F9A4234BFD8
:101A280001230023DBB2194600F02BFA0346002BF2
:101A38000ED07B684033184600F055FA7B685B7916
:101A4800012B05D17B6800225A71002000F080F834
:101A5800FB7B0133FB737B681B79FA7B9A42FFF4AB
:101A68000AAF7B689B6E092B10D87B689B6E5A1C4B
:101A78007B689A667B689B6E0A2B07D17B6800227D
:101A880083F86C207B68002283F86D2000BF103734
:101A9800BD4680BDA0040020CDCC4C3ECDCC4C3FF3
:101AA800643B7F3FCDCC5C4052B87E3F3333333FFD
:101AB8000000964380B584B000AFF860B960134663
:101AC800FB71FB68FA791A71FB68BA681A60FB68DF
:101AD80000225A71FB6800229A71FB68184A5A63FF
:101AE800FB68184A9A63FB6840F2E2429A87FB68EF
:101AF80040F2EE22DA87FB6800229A66FB68002231
:101B080083F86C20FB68002283F86D20FB6803F1E2
:101B18005400012301220A2100F088F9FB6803F12F
:101B28004000012301220A2100F080F9064AFB68DF
:101B38001360064807F0ACFF00BF1037BD4680BDF4
:101B48000080BB440000FA43A4040020440A00209B
:101B580080B584B000AF0346FB710E4B1B685B6A0F
:101B6800FB600C4B1B6800225A62FB68B3F5BB7F15
:101B780004D8FB79184600F00FF807E0FB791846FF
:101B880000F00AF8FB79184600F006F800BF103795
:101B9800BD4680BD440A002080B582B000AF034630
:101BA800FB711F4B1B689B791422934216D21C4B66
:101BB8001B689B791A461B4B9B5CFA799A4208D1A1
:101BC800174B1B689A79164B1B680132D2B29A716F
:101BD80017E0134B1B6800229A7112E0104B1A6829
:101BE8000F4B1B689B7919461423CB1A1344FA79B7
:101BF800DA710B4B1B689A79094B1B680132D2B218
:101C08009A71074B1B689B79282B05D1044B1B68DD
:101C180000229A7100F008F800BF0837BD4680BD61
:101C2800A404002044B1000880B487B000AF7A4B08
:101C38001B6800229A66784B1B68012283F86C2087
:101C48000023FB7518E0744B1A68FB7D5B000133B9
:101C58001344DA79704B1968FB7D01335B000B4440
:101C6800DB799A4205D16C4B1B68002283F86D2002
:101C7800CDE0FB7D0133FB75FB7D082BE3D9002309
:101C8800BB751EE0644B1A68BB7D5B001344DA79B0
:101C9800614B1968BB7D5B0001330B44DB799A42C9
:101CA80006D15D4B1A68BB7D13440022DA7605E045
:101CB800594B1A68BB7D13440122DA76BB7D013388
:101CC800BB75BB7D092BDDD9534B1B68DB7EFB74D1
:101CD80000237B754FF00003FB604FF07C53BB6023
:101CE80000233B7512E04C4B1A683B7D01331344CB
:101CF800DB7E1A463B7D02FA03F35AB297F9153098
:101D080013435BB27B753B7D01333B753B7D072BF2
:101D1800E9D9FB7C1AB27B7D1BB25B001BB2134373
:101D28001BB2FB80FB881B0A9AB2FB885340FB80DE
:101D3800FB881B099AB2FB885340FB80FB889B08F1
:101D48009AB2FB885340FB80FB885B089AB2FB88F9
:101D58005340FB80FB8803F001032F4A126892F876
:101D68002420934205D02C4B1B68002283F86D2059
:101D78004DE07B7D07EE903AB8EE677ADFED276A93
:101D8800C7EE267A9FED267A67EE877AC7ED037A43
:101D9800D7ED027A9FED237AF4EEC77AF1EE10FAC6
:101DA80008D4D7ED027A9FED207AF4EEC77AF1EEE7
:101DB80010FA05DD184B1B68002283F86D2026E019
:101DC800154B1B68FA7C83F82820134B1B687A7D17
:101DD80083F82920104B1B68FA68DA62D7ED027A7B
:101DE800B6EE007A27EE877A0B4B1B68D3ED0C7A98
:101DF800F6EE006A67EEA67A074B1B6877EE277A3D
:101E0800C3ED0C7A044B1B68012283F86D201C3744
:101E1800BD465DF8047B7047A404002000007F43A2
:101E280000001643CDCC4C3E6666663F80B485B054
:101E380000AFF860B9607A603B60FB68BA681A6006
:101E4800FB687A68DA60FB683A681A61FB68002206
:101E58001A71FB6800229A6000BF1437BD465DF80E
:101E6800047B704780B582B000AF78603960012389
:101E7800012239687868FFF7D9FF00BF0837BD46E7
:101E880080BD80B483B000AF78600B46FB70FB78F0
:101E9800002B11D07B689A687B681B689A4207D22E
:101EA8007B689A687B68DB681A447B689A6012E0F2
:101EB8007B6801221A710EE07B689B68002B07D0B3
:101EC8007B689A687B681B69D21A7B689A6002E013
:101ED8007B6800221A717B681B7918460C37BD464F
:101EE8005DF8047B704780B483B000AF78607B688E
:101EF80000221A717B6800229A6000BF0C37BD4629
:101F08005DF8047B7047000080B485B000AFF860CE
:101F180087ED020AC7ED010AFB68002B1ED0D7ED3A
:101F2800027AF5EEC07AF1EE10FA02D80E4BBB60D9
:101F38000AE0D7ED027AB7EE007AF4EEC77AF1EE4E
:101F480010FA01DB094BBB60FB68BA681A60FB68D2
:101F58007A685A60FB6801221A7200E000BF1437E1
:101F6800BD465DF8047B7047CDCCCC3D6666663FC8
:101F780080B485B000AF786087ED000A7B68002BDD
:101F880003D07B681B7A002B01D13B681AE07B6881
:101F980093ED007AD7ED007A27EE277A7B68D3EDA8
:101FA800007AF7EE006A76EEE76A7B68D3ED017A8D
:101FB80066EEA77A77EE277AC7ED037A7B68FA6828
:101FC8005A60FB6807EE903AB0EE670A1437BD46D0
:101FD8005DF8047B704780B487B000AFF8600B46AB
:101FE80087ED010A7B81FB68002B39D07B89002BA8
:101FF80002D101237B8104E07B89322B01D9322372
:102008007B817B8907EE903AB8EEE77AD7ED017AC3
:1020180067EE277AFB68C3ED327AFB680022A3F8E3
:10202800CC20FB687A89A3F8CE20FB687A89A3F8CC
:10203800D0200023FB820FE0FA8A7B899A4201D2E2
:102048007B6801E04FF00003FA8AF96892000A44BD
:102058001360FB8A0133FB82FB8A312BECD900E049
:1020680000BF1C37BD465DF8047B704780B485B05F
:1020780000AF786087ED000A7B68002B04D07B688E
:10208800B3F8D030002B02D1D7ED007A4DE07B6851
:10209800B3F8CC307A689B0013441B68FB607B68FC
:1020A800B3F8CC307A689B0013443A681A607B68AE
:1020B80093ED327AD7ED006AD7ED037A76EEE77AB8
:1020C80077EE277A7B68C3ED327A7B68B3F8CC3039
:1020D80001339AB27B68A3F8CC207B68B3F8CC2094
:1020E8007B68B3F8D0309A4203D37B680022A3F808
:1020F800CC207B68B3F8CE207B68B3F8D0309A4206
:1021080007D27B68B3F8CE3001339AB27B68A3F864
:10211800CE207B68D3ED326A7B68B3F8CE3007EE09
:10212800903AB8EE677AC6EE877AB0EE670A143747
:10213800BD465DF8047B704780B582B000AF78601B
:102148007B68344ADA617B68334A1A627B68334AAF
:102158009A617B6800221A857B68314A5A627B68DB
:102168009033DFED302AB0EE082AF6EE001A9FED24
:102178002D1ADFED2D0A9FED2D0A01211846FFF7D4
:1021880088FA7B6803F58C727B68D3ED077A7B68E5
:1021980093ED087AF0EE472AB0EE672ADFED241AAD
:1021A8009FED201ADFED200A9FED220A012110463B
:1021B800FFF76FFA7B682C334FF416711846FFF758
:1021C80051FE7B6840334FF416711846FFF74AFEFC
:1021D8007B6854334FF496611846FFF743FE7B68DB
:1021E80068334FF416711846FFF73CFE7B687C3362
:1021F8004FF416711846FFF735FE4FF480210E484C
:1022080006F083FC7B6801229A7300BF0837BD463D
:1022180080BD00BF9A99593FCDCC4C3DCDCC4C3EAA
:102228000AD7A33C0000000052499D390AD7233C35
:10223800CDCCCC3D0AD7A33CE007002080B582B0C6
:1022480000AF78607B68B3F928309AB2013A92B24D
:1022580011B27A68118513F5FA6F12DC7B680122D6
:102268001A85786800F06CFAF0EE407AB0EE670AEA
:10227800786800F087F80C21044806F0ECFB01238D
:1022880000E0002318460837BD4680BDE00700205F
:1022980080B582B000AF78600C210A4806F008FCCF
:1022A8007B6803F58C731846FFF7BAFA7B6890339E
:1022B8001846FFF7B5FA7B6800221A8500BF083771
:1022C800BD4680BDE007002080B584B000AFF8604F
:1022D80087ED020AC7ED010A87ED001AFB683A6824
:1022E800C3F8B820FB68903397ED020A1846FFF749
:1022F800E1F8FB68D3F8C020FB68C3F84021FB680D
:1023080003F58C7397ED010A1846FFF7D3F8FB68BD
:10231800D3ED307AB0EE670AF86800F033F800BF02
:102328001037BD4680BD80B584B000AFF86087ED3A
:10233800020AC7ED010A87ED001AFB683A68C3F87C
:10234800FC20FB68D43397ED020A1846FFF7B2F871
:10235800FB68D3F80421FB68C3F88421FB6803F504
:10236800AE7397ED010A1846FFF7A4F8FB68D3EDA2
:10237800637AB0EE670AF86800F004F800BF103717
:10238800BD4680BD80B483B000AF786087ED000A99
:102398007B68D3ED077A97ED007AB4EEE77AF1EE31
:1023A80010FA03DD7B68DB693B600CE07B68D3EDEA
:1023B800087A97ED007AB4EEE77AF1EE10FA02D5D2
:1023C8007B681B6A3B607B683A689A610C4B1B68A8
:1023D8000022C3F81C21D7ED007A9FED0A7A67EE38
:1023E800877A074B1B68FCEEE77A17EE902AC3F84A
:1023F800282100BF0C37BD465DF8047B704700BF3D
:10240800E00700200080D44680B584B000AF786033
:102418007B68D3ED027A9FED517AF4EEC77AF1EE3C
:1024280010FA01D5012300E00023FB730023BB73DE
:102438007B68D3ED007AB2EE0E7AF4EEC77AF1EE4D
:1024480010FA09DC7B68D3ED007A9FED457AF4EE4B
:10245800C77AF1EE10FA01D5012300E000237B735F
:102468007B68D3ED027AB3EE0A7AF4EEC77AF1EE1E
:1024780010FA01DD012300E000233B737B68D3EDF4
:10248800017AB3EE077AF4EEC77AF1EE10FA0ADCB5
:102498007B6893ED027A7B68D3ED017AB4EEE77A34
:1024A800F1EE10FA01D5012300E00023FB727B68EE
:1024B8002C33FA7B1146184600F08EF903461A466B
:1024C8007B681A747B684033BA7B1146184600F063
:1024D80083F903461A467B685A747B6854337A7BBF
:1024E8001146184600F078F903461A467B68DA74F4
:1024F8007B6868333A7B1146184600F06DF903464D
:102508001A467B685A757B687C33FA7A11461846F6
:1025180000F062F903461A467B681A757B681B7CD3
:10252800002B11D17B685B7C002B0DD17B68DB7C99
:10253800002B09D17B685B7D002B05D17B681B7D57
:10254800002B01D1012300E00023DAB27B689A73E3
:102558007B680C3318461037BD4680BDCDCC74411E
:102568009A9999BE80B586B000AF78607B68002BD9
:1025780000F0DE807868FFF747FF38613B695B78D9
:10258800002B12D07B68D3ED027A7B6893ED007A3A
:102598007B68D3ED026AB0EE661AF0EE470AB0EE39
:1025A800670A7868FFF790FEC3E03B69DB78002B89
:1025B80012D07B68D3ED027A7B6893ED007A7B6852
:1025C800D3ED026AB0EE661AF0EE470AB0EE670A7B
:1025D8007868FFF7A8FEACE03B69DB79002B03D0F5
:1025E8007868FFF755FEA4E03B699B79002B03D080
:1025F8007868FFF74DFE9CE03B695B7A002B03D0BF
:102608007868FFF745FE94E03B691B7A002B03D0FE
:102618007868FFF73DFE8CE03B691B78002B40F0A3
:1026280088803B691B79002B03D07868FFF730FE60
:102638007FE03B699B78002B76D07B68B3F9283024
:10264800012B03D07868FFF7F9FD72E03A4B1A685E
:102658007B68C3F840217B6803F58C727B68D3EDF7
:10266800007AB0EE670A1046FEF724FF786800F09B
:1026780067F887ED030A7B68D3F848317B6197EDEB
:10268800057AD7ED037AB4EEE77AF1EE10FA05D5BC
:10269800FB687B617B68FA68C3F848217B68D3EDE7
:1026A800067A97ED057A77EE677A244BC3ED007AC0
:1026B8007B6893ED097A214BD3ED007AB4EEE77A83
:1026C800F1EE10FA0BD57B6893ED067A7B68D3EDB3
:1026D800097A77EE277A7B68C3ED067A1BE07B6878
:1026E800D3ED097AB1EE677A144BD3ED007AB4EEE4
:1026F800E77AF1EE10FA0BDD7B6893ED067A7B68DA
:10270800D3ED097A77EE677A7B68C3ED067A02E043
:102718007B687A699A617B68D3ED067AB0EE670ABE
:102728007868FFF72FFE04E07868FFF7B1FD00E056
:1027380000BF1837BD4680BD14000020A804002043
:1027480080B584B000AF78607B68002B02D14FF071
:10275800000334E07B6893ED017A7B68D3ED027A5D
:10276800C7EE276A16EE900AFDF710FF18A3D3E903
:102778000023FDF7ADFD02460B4610461946FDF74E
:102788005DFF0346FB607B68D3ED077A97ED037A1C
:10279800B4EEE77AF1EE10FA03DD7B68DB69FB60E3
:1027A8000CE07B68D3ED087A97ED037AB4EEE77A0C
:1027B800F1EE10FA02D57B681B6AFB60FB6807EE36
:1027C800903AB0EE670A1037BD4680BDAFF300807F
:1027D8007B14AE47E17A843F80B582B000AF786061
:1027E8000B46FB707B68002B01D1FB7805E0FB787A
:1027F80019467868FFF745FB034618460837BD4673
:1028080080BD80B500AF03F0CFFA00F023F800F0E8
:1028180073F800F051FD00F015F900F09BFD01F090
:1028280059FA00F097F900F021FA00F0A7FA01F040
:1028380003FA01F0F7F801F05FF901F0B7FA01F0D7
:102848007FFA4FF4FA6003F01FFBFEF759FBFEF71F
:1028580073FCFCE780B594B000AF07F11803382289
:1028680000211846FDF7B4FC3B1D00221A605A608F
:102878009A60DA601A61002004F03AFF0923BB610C
:102888004FF48033FB610123FB6202237B63032344
:10289800BB630223FB6355233B6402237B6402234F
:1028A800BB640223FB6407F11803184603F02EFBF0
:1028B8000346002B01D000F018F80F237B60032398
:1028C800BB600023FB6000233B6100237B613B1D51
:1028D8000421184603F02CFE0346002B01D000F01B
:1028E80004F800BF5037BD4680BD80B400AF72B653
:1028F80000BF00BFFDE7000080B58AB000AF07F158
:10290800140300221A605A609A60DA601A614A4B0E
:10291800DB6C494A43F02003D364474BDB6C03F07C
:1029280020033B613B69444BDB6C434A43F004039F
:10293800D364414BDB6C03F00403FB60FB683E4B44
:10294800DB6C3D4A43F00103D3643B4BDB6C03F083
:102958000103BB60BB68384BDB6C374A43F00203AA
:10296800D364354BDB6C03F002037B607B68002289
:102978000C21324804F0A8FB00224FF400414FF02C
:10298800904004F0A1FB002280212D4804F09CFB1C
:102998000C237B610123BB610223FB6102233B62A1
:1029A80007F114031946254804F0F4F94FF40043DD
:1029B8007B611123BB610023FB6101233B6207F1AB
:1029C800140319464FF0904004F0E4F94FF4806383
:1029D8007B614FF48813BB610223FB6107F1140389
:1029E8001946164804F0D6F94FF4C0537B6100230A
:1029F800BB610223FB6107F1140319460F4804F079
:102A0800C9F980237B611123BB610023FB6101238A
:102A18003B6207F114031946094804F0BBF9002288
:102A28000021282005F049F8282005F060F800BFAB
:102A38002837BD4680BD00BF00100240000800488E
:102A48000004004880B588B000AF3B462022002132
:102A58001846FDF7BDFB3A4B3A4A1A60384B4FF41B
:102A680040325A60364B00229A60354B0022DA60B9
:102A7800334B00221A61324B01225A61304B082233
:102A88009A612F4B00221A772D4B00225A772C4B34
:102A980003221A622A4B002283F82420284B4FF481
:102AA800D862DA62264B4FF480621A63244B012203
:102AB80083F83820224B4FF48052DA63204B0022EF
:102AC80083F840201E4801F027FE0346002B01D062
:102AD800FFF70BFF1C4B3B6006237B600323BB60A7
:102AE8007F23FB6004233B6100237B613B4619463F
:102AF800134802F017F90346002B01D0FFF7F5FE43
:102B0800124B3B600C237B603B4619460C4802F095
:102B180009F90346002B01D0FFF7E7FE0C4B3B6099
:102B280012237B603B461946054802F0FBF8034632
:102B3800002B01D0FFF7D9FE00BF2037BD4680BD6E
:102B4800AC040020000100500008302E2000F014D2
:102B58001000C01080B58CB000AF07F1240300222C
:102B68001A605A609A603B1D202200211846FDF722
:102B78002FFB3A4B3A4A1A60384B4FF440325A60AE
:102B8800364B00229A60354B0022DA60334B002224
:102B98001A61324B01225A61304B08229A612F4B3D
:102BA80000221A772D4B00225A772C4B02221A62E8
:102BB8002A4B002283F82420284B4FF4D462DA628F
:102BC800264B4FF480621A63244B012283F8382085
:102BD800224B4FF48052DA63204B002283F84020C6
:102BE8001E4801F099FD0346002B01D0FFF77DFE3A
:102BF80000237B6207F124031946184802F0CCFF32
:102C08000346002B01D0FFF770FE164B7B600623AE
:102C1800BB600223FB607F233B6104237B610023AD
:102C2800BB613B1D19460D4802F07CF80346002B9A
:102C380001D0FFF75AFE0C4B7B600C23BB603B1D99
:102C48001946064802F06EF80346002B01D0FFF73C
:102C58004CFE00BF3037BD4680BD00BF18050020C0
:102C6800000400502000F0140010603280B588B0D5
:102C780000AF3B46202200211846FDF7A9FA3A4B3F
:102C88003A4A1A60384B4FF440325A60364B0022A9
:102C98009A60354B0022DA60334B00221A61324BBE
:102CA80001225A61304B08229A612F4B00221A7771
:102CB8002D4B00225A772C4B03221A622A4B0022F2
:102CC80083F82420284B4FF4D862DA62264B4FF45D
:102CD80080621A63244B012283F83820224B4FF478
:102CE8008052DA63204B002283F840201E4801F00E
:102CF80013FD0346002B01D0FFF7F7FD1C4B3B608B
:102D080006237B600323BB607F23FB6004233B61B6
:102D180000237B613B461946134802F003F803463B
:102D2800002B01D0FFF7E1FD124B3B600C237B60C9
:102D38003B4619460C4801F0F5FF0346002B01D02D
:102D4800FFF7D3FD0C4B3B6012237B603B461946D3
:102D5800054801F0E7FF0346002B01D0FFF7C5FD4A
:102D680000BF2037BD4680BD840500200005005007
:102D78000800900C1000C0102000F01480B588B036
:102D880000AF3B46202200211846FDF721FA2B4BC5
:102D98002B4A1A60294B4FF440325A60274B0022C5
:102DA8009A60264B0022DA60244B00221A61234BDA
:102DB80000225A61214B04229A61204B00221A7783
:102DC8001E4B00225A771D4B01221A621B4B002210
:102DD80083F82420194B0022DA62184B00221A6368
:102DE800164B002283F83820144B4FF48052DA63D4
:102DF800124B002283F84020104801F08DFC034656
:102E0800002B01D0FFF771FD0E4B3B6006237B6062
:102E18000323BB607F23FB6004233B6100237B61AA
:102E28003B461946054801F07DFF0346002B01D0BB
:102E3800FFF75BFD00BF2037BD4680BDF0050020D1
:102E4800000600500200300480B5A6B000AF7860DC
:102E580007F1840300221A605A609A60DA601A61E6
:102E680007F13003542200211846FDF7B1F97B68B9
:102E78001B68894A934240F09B804FF400433B63B0
:102E88004FF000537B6707F13003184603F034FD19
:102E98000346002B01D0FFF728FD804BDB6C7F4AEF
:102EA80043F40053D3647D4BDB6C03F40053FB62A3
:102EB800FB6A7A4BDB6C794A43F00103D364774BA6
:102EC800DB6C03F00103BB62BB6A744BDB6C734AB7
:102ED80043F00403D364714BDB6C03F004037B629F
:102EE8007B6A6E4BDB6C6D4A43F00203D3646B4B19
:102EF800DB6C03F002033B623B6A8023C7F8843033
:102F08000323C7F888300023C7F88C3007F18403FF
:102F180019464FF0904003F03DFF3023C7F8843046
:102F28000323C7F888300023C7F88C3007F18403DF
:102F380019465B4803F02EFF0423C7F884300323A7
:102F4800C7F888300023C7F88C3007F18403194686
:102F5800544803F01FFF544B544A1A60524B242222
:102F68005A60514B00229A604F4B0022DA604E4B58
:102F780080221A614C4B4FF480725A614A4B4FF4CD
:102F880080629A61484B2022DA61474B4FF48052A5
:102F98001A62454804F0C8F80346002B01D0FFF731
:102FA800A4FC7B68404A5A653F4A7B6893626DE19E
:102FB8007B681B683E4A934240F082804FF480331E
:102FC8003B634FF00043BB6707F13003184603F03B
:102FD80093FC0346002B01D0FFF787FC354B1B6899
:102FE8000133344A1360334B1B68012B0BD12B4B35
:102FF800DB6C2A4A43F48043D364284BDB6C03F42C
:103008008043FB61FB69254BDB6C244A43F00203D8
:10301800D364224BDB6C03F00203BB61BB6942F251
:103028000303C7F884300323C7F888300023C7F8A0
:103038008C3007F1840319461A4803F0ABFE1E4B87
:103048001E4A1A601C4B25225A601B4B00229A60AC
:10305800194B0022DA60184B80221A61164B4FF484
:1030680080725A61144B4FF480629A61124B20228D
:10307800DA61114B4FF440521A620F4804F054F8C9
:103088000346002B01D0FFF730FC7B680A4A5A65DB
:10309800094A7B689362F9E0000100500010024081
:1030A80000080048000400485C06002008040240AC
:1030B80000040050DC070020BC060020300002405D
:1030C8007B681B68734A93426DD14FF480333B632E
:1030D8004FF00043BB6707F13003184603F00CFCC0
:1030E8000346002B01D0FFF700FC6B4B1B68013334
:1030F800694A1360684B1B68012B0BD1674BDB6C6B
:10310800664A43F48043D364644BDB6C03F4804326
:103118007B617B69614BDB6C604A43F00203D364DB
:103128005E4BDB6C03F002033B613B694FF4504399
:10313800C7F884300323C7F888300023C7F88C30D9
:1031480007F184031946564803F024FE554B564AA6
:103158001A60544B26225A60524B00229A60514BF7
:103168000022DA604F4B80221A614E4B4FF4807276
:103178005A614C4B4FF480629A614A4B2022DA61C3
:10318800484B4FF480521A62464803F0CDFF03467D
:10319800002B01D0FFF7A9FB7B68424A5A65414AD8
:1031A8007B68936272E07B681B68404A93426DD1EA
:1031B8004FF480333B634FF00043BB6707F13003A4
:1031C800184603F099FB0346002B01D0FFF78DFB4F
:1031D800314B1B680133304A13602F4B1B68012B9E
:1031E8000BD12E4BDB6C2D4A43F48043D3642B4B1D
:1031F800DB6C03F48043FB60FB68284BDB6C274ADD
:1032080043F00103D364254BDB6C03F00103BB607F
:10321800BB684FF44073C7F884300323C7F888307D
:103228000023C7F88C3007F1840319464FF090400B
:1032380003F0B0FD1E4B1F4A1A601D4B27225A602F
:103248001B4B00229A601A4B0022DA60184B80222E
:103258001A61174B4FF480725A61154B4FF4806214
:103268009A61134B2022DA61114B4FF480521A6293
:103278000F4803F059FF0346002B01D0FFF735FB39
:103288007B680B4A5A650A4A7B68936200BF983785
:10329800BD4680BD00050050DC070020001002403C
:1032A800000400481C0700204400024000060050AB
:1032B8007C0700205800024080B584B000AF244B42
:1032C8009B6C234A43F004039364214B9B6C03F0EB
:1032D8000403FB60FB681E4B9B6C1D4A43F0010313
:1032E80093641B4B9B6C03F00103BB60BB68184BDA
:1032F8009B6C174A43F002039364154B9B6C03F0D5
:1033080002037B607B68002200210D2004F0D5FBBE
:103318000D2004F0ECFB002200210E2004F0CDFB70
:103328000E2004F0E4FB002200210F2004F0C5FB6E
:103338000F2004F0DCFB00220021382004F0BDFB44
:10334800382004F0D4FB00BF1037BD4680BD00BF55
:103358000010024080B5BAB000AF07F1E0030022C8
:103368001A605A6007F1D00300221A605A609A6006
:10337800DA6007F17003602200211846FCF728FF85
:1033880007F1640300221A605A609A6007F1480343
:1033980000221A605A609A60DA601A615A619A616A
:1033A80007F12403242200211846FCF711FF3B1DD6
:1033B800202200211846FCF70BFFD14BD14A1A6096
:1033C800CF4B00225A60CE4B00229A60CC4804F0C2
:1033D800A9FB0346002B01D0FFF787FA0C21C84848
:1033E80004F070FC0346002B01D0FFF77EFA0A2197
:1033F800C34804F0BFFC0346002B01D0FFF775FA61
:103408000023C7F8E0300223C7F8E43007F1E003EF
:103418001A460121BA4804F009FD0346002B01D0E1
:10342800FFF763FA00220121B54804F0EBFE0346DA
:10343800002B01D0FFF759FA4FF40033C7F8E030FA
:103448004FF48033C7F8E43007F1E0031A4602214D
:10345800AB4804F0EBFC0346002B01D0FFF745FA1C
:1034680000220221A64804F0CDFE0346002B01D01D
:10347800FFF73BFA4FF40033C7F8E43007F1E003F5
:103488001A4604219E4804F0D1FC0346002B01D0C3
:10349800FFF72BFA00220421994804F0B3FE0346F3
:1034A800002B01D0FFF721FA4DF28043C7F8D03046
:1034B8000323C7F8D4300123C7F8D8300823C7F846
:1034C800DC3007F1D0031A4606218D4804F086FC4B
:1034D8000346002B01D0FFF708FA10233B670023AF
:1034E8007B670023BB670023FB670123C7F8803095
:1034F8000023C7F884300023C7F888300023C7F8B2
:103508008C300023C7F890300023C7F894304FF070
:103518000063C7F898300023C7F89C300023C7F829
:10352800A0304FF00053C7F8A4300023C7F8CC30C0
:1035380007F170031A460621714804F0ADFF0346EF
:10354800002B01D0FFF7D1F94FF6EF737B6607F137
:103558006403012206216A4805F0DEF80346002BC1
:1035680001D0FFF7C2F949F6F0337B6607F164032F
:1035780002220621624805F0CFF80346002B01D04D
:10358800FFF7B3F94FF6EF737B6607F16403042284
:1035980006215B4805F0C0F80346002B01D0FFF771
:1035A800A4F946F64023C7F8D0300023C7F8D43032
:1035B80007F1D0031A460121514804F00FFC0346D5
:1035C800002B01D0FFF791F90023BB6400233B6572
:1035D80000237B6500233B6607F148031A46012157
:1035E800474804F0E6FF0346002B01D0FFF77DF9BA
:1035F80000233B6700237B670023C7F8A430002320
:10360800C7F8A8300023C7F8AC300023C7F8B0309B
:103618004FF48073C7F8B4300023C7F8B8304FF4BC
:103628008013C7F8C0300223C7F8C4304FF4802392
:10363800C7F8C83007F170031A460121304804F072
:103648002BFF0346002B01D0FFF74FF94FF0005333
:10365800C7F8A4300023C7F8B8304FF08073C7F814
:10366800C0302023C7F8C4300023C7F8C83007F19A
:1036780070031A460421224804F00EFF0346002B6B
:1036880001D0FFF732F90023C7F8B8308023C7F814
:10369800C43007F170031A460521194804F0FCFEEE
:1036A8000346002B01D0FFF720F900237B6607F1C2
:1036B800640301220121124805F02EF80346002B6D
:1036C80001D0FFF712F944F620637B6607F1640323
:1036D800042201210A4805F01FF80346002B01D0F7
:1036E800FFF703F90023BB660023FB6607F16403B9
:1036F80008220121024805F00FF80346002B03E0D9
:10370800E00700200068014001D0FFF7EEF8002331
:103718007B628C23BB620023FB6200233B63002394
:103728007B638C23BB630023FB6300233B64002380
:103738007B6407F124031A460121764804F06CFFE4
:103748000346002B01D0FFF7D0F84FF49673BB6205
:103758004FF49673BB6307F124031A4604216D489E
:1037680004F05AFF0346002B01D0FFF7BEF807F11B
:1037780024031A460521674804F04EFF0346002B30
:1037880001D0FFF7B2F800237B600823BB60202339
:10379800FB6000233B6100237B610023BB610023A6
:1037A800FB6100233B623B1D04220121594805F0BF
:1037B80021F90346002B01D0FFF797F83B1D4FF482
:1037C80080720421534805F015F90346002B01D0F7
:1037D800FFF78BF83B1D4FF4806205214D4805F03B
:1037E80009F90346002B01D0FFF77FF80023BB60DF
:1037F8000023FB603B1D08220121464805F0FAF82A
:103808000346002B01D0FFF770F83B1D4FF4007200
:103818000421404805F0EEF80346002B01D0FFF7DD
:1038280064F83B1D4FF4006205213A4805F0E2F8C0
:103838000346002B01D0FFF758F84DF28043C7F834
:10384800D03007F1D0031A460421324804F0C6FAF2
:103858000346002B01D0FFF748F807F148031A4642
:1038680004212C4804F0A5FE0346002B01D0FFF7E5
:103878003CF806237B6607F16403012204212548EE
:1038880004F04AFF0346002B01D0FFF72EF807F19A
:103898006403042204211F4804F03EFF0346002B62
:1038A80001D0FFF722F807F1D0031A46052119487D
:1038B80004F094FA0346002B01D0FFF716F807F13D
:1038C80048031A460521134804F073FE0346002BEB
:1038D80001D0FFF70AF807F16403012205210D481A
:1038E80004F01AFF0346002B01D0FEF7FEFF07F194
:1038F800640304220521074804F00EFF0346002B49
:1039080001D0FEF7F2FF034800F026F800BFE837C1
:10391800BD4680BDE007002080B485B000AF786068
:103928007B681B680A4A93420BD10A4B1B6E094AF3
:1039380043F080631366074B1B6E03F08063FB60E4
:10394800FB6800BF1437BD465DF8047B704700BFB5
:10395800006801400010024080B58AB000AF78606E
:1039680007F1140300221A605A609A60DA601A613B
:103978007B681B68284A93424AD1284BDB6C274A4C
:1039880043F00403D364254BDB6C03F004033B6171
:103998003B69224BDB6C214A43F00103D3641F4B84
:1039A800DB6C03F00103FB60FB68C0237B6102232F
:1039B800BB610023FB6103233B620D237B6207F19C
:1039C80014031946164803F0E5F94FF440737B6178
:1039D8000223BB610023FB6103233B6203237B6259
:1039E80007F1140319460E4803F0D4F94FF4406365
:1039F8007B610223BB610023FB6103233B620D2330
:103A08007B6207F1140319464FF0904003F0C2F9A6
:103A180000BF2837BD4680BD006801400010024045
:103A28000008004880B500AF134B144A1A60124BC7
:103A380000225A60104B4FF420629A600E4B4FF6EA
:103A4800FF725A610C4B00221A620B4B00225A6219
:103A5800094B00229A62084B0022DA62064B0022C8
:103A68001A63054805F0F0FC0346002B01D0FEF769
:103A78003CFF00BF80BD00BFDC080020007C004088
:103A880080B598B000AF786007F10C03542200218C
:103A98001846FCF79DFB7B681B68154A934223D1A7
:103AA8004FF40073FB604FF48023BB6307F10C03F2
:103AB800184602F021FF0346002B01D0FEF715FF40
:103AC8000C4B9B6D0B4A43F000439365094B9B6D70
:103AD80003F00043BB60BB6800220121312003F0E2
:103AE800ECFF312004F003F800BF6037BD4680BD0D
:103AF800007C00400010024080B598B000AF07F18C
:103B0800540300221A605A609A6007F138030022B1
:103B18001A605A609A60DA601A615A619A613B1DAC
:103B2800342200211846FCF753FB414B414A1A60E6
:103B38003F4B11225A603E4B00229A603C4B4FF497
:103B4800FA62DA603A4B00221A61394B00225A6154
:103B5800374B00229A61364806F099F80346002B45
:103B680001D0FEF7C2FE00237B650023BB6500235E
:103B7800FB6507F1540319462D4807F0FBF8034687
:103B8800002B01D0FEF7B1FE6023BB630023FB636B
:103B980000233B6400237B640023BB640023FB6495
:103BA80000233B6507F1380300221946204806F038
:103BB80015FA0346002B01D0FEF797FE07F13803EC
:103BC800042219461A4806F009FA0346002B01D0C8
:103BD800FEF78BFE00237B600023BB600023FB60A5
:103BE80000233B6100237B614FF40053BB6100233A
:103BF800FB6100233B6200237B624FF00073BB62D2
:103C08000023FB6200233B6300237B633B1D1946B3
:103C1800074807F045F90346002B01D0FEF765FE7B
:103C2800034800F0FDF900BF6037BD4680BD00BF06
:103C380014090020002C014080B588B000AF07F1BE
:103C4800100300221A605A609A60DA603B1D002255
:103C58001A605A609A601D4B1D4A1A601B4BAA22B3
:103C68005A601A4B00229A60184B44F62062DA60B8
:103C7800164B00221A61154B00229A61134805F071
:103C880007FF0346002B01D0FEF72FFE4FF48053A9
:103C98003B6107F1100319460C4806F0B3FA0346D6
:103CA800002B01D0FEF721FE00237B600023FB6080
:103CB8003B1D1946054807F05DF80346002B01D067
:103CC800FEF713FE00BF2037BD4680BD6009002007
:103CD800000C004080B584B000AF3B1D00221A6084
:103CE8005A609A60144B154A1A60134B10225A6096
:103CF800114B00229A60104B42F20F72DA600E4BA1
:103D080000229A610C4805F0C3FE0346002B01D03F
:103D1800FEF7EBFD00237B600023FB603B1D19468B
:103D2800054807F027F80346002B01D0FEF7DDFD14
:103D380000BF1037BD4680BDAC0900200010004010
:103D480080B584B000AF3B1D00221A605A609A60AB
:103D5800144B154A1A60134BAA225A60114B0022C1
:103D68009A60104B41F28832DA600E4B00229A6159
:103D78000C4805F08DFE0346002B01D0FEF7B5FD7B
:103D880000237B600023FB603B1D1946054806F0B5
:103D9800F1FF0346002B01D0FEF7A7FD00BF103747
:103DA800BD4680BDF80900200014004080B59CB0D5
:103DB80000AF07F1600300221A605A609A60DA6067
:103DC80007F1540300221A605A609A6007F1380319
:103DD80000221A605A609A60DA601A615A619A6120
:103DE8003B1D342200211846FCF7F2F9454B464AA0
:103DF8001A60444B10225A60424B00229A60414B91
:103E08006322DA603F4B00221A613E4B00225A615E
:103E18003C4B00229A613B4805F03AFE0346002BD2
:103E280001D0FEF762FD4FF480533B6607F1600353
:103E38001946344806F0E6F90346002B01D0FEF790
:103E480054FD304805F023FF0346002B01D0FEF750
:103E58004CFD00237B650023BB650023FB6507F150
:103E680054031946274806F085FF0346002B01D066
:103E7800FEF73BFD6023BB630023FB6300233B6429
:103E880000237B640023BB640023FB6400233B65A1
:103E980007F13803002219461A4806F09FF803462E
:103EA800002B01D0FEF721FD00237B600023BB60BF
:103EB8000023FB6000233B6100237B614FF4005328
:103EC800BB610023FB6100233B6200237B624FF050
:103ED8000073BB620023FB6200233B6300237B6308
:103EE8003B1D1946074806F0DBFF0346002B01D0AF
:103EF800FEF7FBFC034800F093F800BF7037BD469F
:103F080080BD00BF440A00200034014080B485B061
:103F180000AF78607B681B680A4A93420BD10A4B52
:103F28001B6E094A43F400631366074B1B6E03F4C8
:103F38000063FB60FB6800BF1437BD465DF8047B77
:103F4800704700BF002C01400010024080B586B0C9
:103F580000AF78607B681B682C4A934214D12C4BC5
:103F68009B6D2B4A43F008039365294B9B6D03F027
:103F780008037B617B6900220021322003F09DFD4C
:103F8800322003F0B4FD3CE07B681B68214A934271
:103F980014D11F4B9B6D1E4A43F0100393651C4BB5
:103FA8009B6D03F010033B613B6900220021362022
:103FB80003F083FD362003F09AFD22E07B681B683E
:103FC800154A93420CD1124B9B6D114A43F02003C2
:103FD80093650F4B9B6D03F02003FB60FB6810E0BB
:103FE8007B681B680D4A93420BD1094B1B6E084A2C
:103FF80043F400531366064B1B6E03F40053BB6077
:10400800BB6800BF1837BD4680BD00BF000C00402C
:10401800001002400010004000140040003401402D
:1040280080B58AB000AF786007F1140300221A60E7
:104038005A609A60DA601A617B681B682A4A934260
:104048001CD12A4BDB6C294A43F00403D364274B69
:10405800DB6C03F004033B613B6903237B610223B0
:10406800BB610023FB6100233B6202237B6207F1F3
:10407800140319461E4802F08DFE30E07B681B6869
:104088001C4A93422BD1194BDB6C184A43F00203AC
:10409800D364164BDB6C03F00203FB60FB68082358
:1040A8007B610223BB610023FB6100233B62042385
:1040B8007B6207F1140319460F4802F06BFE402398
:1040C8007B610223BB610023FB6100233B62052364
:1040D8007B6207F114031946074802F05BFE00BF34
:1040E8002837BD4680BD00BF002C014000100240AB
:1040F80000080048003401400004004880B400AFC4
:1041080000BFFDE780B400AF00BFFDE780B400AF9B
:1041180000BFFDE780B400AF00BFFDE780B400AF8B
:1041280000BFFDE780B400AF00BFBD465DF8047B6B
:10413800704780B400AF00BFBD465DF8047B704790
:1041480080B400AF00BFBD465DF8047B704780B502
:1041580000AF01F07BFE00BF80BD000080B500AF5E
:10416800024803F05DF900BF80BD00BFBC06002017
:1041780080B500AF024803F053F900BF80BD00BF0F
:104188001C07002080B500AF024803F049F900BFC2
:1041980080BD00BF7C07002080B500AF4FF4806071
:1041A80002F0AAFF00BF80BD80B500AF024805F04D
:1041B8008BFA00BF80BD00BFDC08002080B500AFCF
:1041C800024805F0BBFD00BF80BD00BF60090020AC
:1041D80080B500AF024805F0B1FD00BF80BD00BF4B
:1041E800AC09002080B500AF024803F019F900BF00
:1041F80080BD00BF5C06002080B582B000AF0F4BC9
:104208001B6E0E4A43F0010313660C4B1B6E03F042
:1042180001037B607B68094B9B6D084A43F0805320
:104228009365064B9B6D03F080533B603B6803F03E
:1042380059FB00BF0837BD4680BD00BF00100240D3
:1042480080B483B000AF786039607B689B6823F4E2
:104258007C123B681A437B689A6000BF0C37BD46E6
:104268005DF8047B704780B483B000AF7860396034
:104278007B689B6823F0E0723B681A437B689A600E
:1042880000BF0C37BD465DF8047B704780B483B02F
:1042980000AF78607B689B6803F0E07318460C37C2
:1042A800BD465DF8047B704780B487B000AFF86006
:1042B800B9607A603B60FB6860331A46BB689B0054
:1042C80013447B617B691A68084B13407A6802F0D3
:1042D800F8413A680A43134343F000427B691A6085
:1042E80000BF1C37BD465DF8047B704700F0FF0334
:1042F80080B485B000AF786039607B6860331A4657
:104308003B689B001344FB60FB681B6803F0F843A1
:1043180018461437BD465DF8047B704780B487B0F3
:1043280000AFF860B9607A60FB6860331A46BB6812
:104338009B0013447B617B691B6823F000427B6808
:104348001A437B691A6000BF1C37BD465DF8047BC1
:10435800704780B487B000AFF860B9607A60FB68D6
:1043680060331A46BB689B0013447B617B691B68FA
:1043780023F080727B681A437B691A6000BF1C3780
:10438800BD465DF8047B704780B487B000AFF86025
:10439800B9607A60FB6860331A46BB689B001344B7
:1043A8007B617B691B6823F000727B681A437B6919
:1043B8001A6000BF1C37BD465DF8047B704780B4A7
:1043C80083B000AF786039607B685B6923F0004296
:1043D8003B681A437B685A6100BF0C37BD465DF8DD
:1043E800047B704780B483B000AF78607B68DB687B
:1043F80003F44063002B01D1012300E00023184699
:104408000C37BD465DF8047B704780B487B000AFB9
:10441800F860B9607A60FB6830331A46BB681B0ADB
:104428009B0003F00C0313447B617B691A68BB682B
:1044380003F01F031F2101FA03F3DB431A407B68D3
:104448009B0E03F01F01BB6803F01F0301FA03F37F
:104458001A437B691A6000BF1C37BD465DF8047BB0
:10446800704780B487B000AFF860B9607A60FB68C5
:1044780014331A46BB685B0E9B0003F00403134415
:104488007B617B691A68BB681B0D03F01F0307215A
:1044980001FA03F3DB431A40BB681B0D03F01F034B
:1044A800796801FA03F31A437B691A6000BF1C3765
:1044B800BD465DF8047B704780B485B000AFF860F6
:1044C800B9607A60FB68D3F8B020BB68C3F3120305
:1044D800DB431A407B6803F018030849D940BB68DE
:1044E8000B40C3F312031A43FB68C3F8B02000BFA4
:1044F8001437BD465DF8047B704700BFFFFF070017
:1045080080B483B000AF78607B689B6803F01F03BA
:1045180018460C37BD465DF8047B704780B483B0FD
:1045280000AF78607B689B6823F0204323F03F034B
:104538007A68936000BF0C37BD465DF8047B70470E
:1045480080B483B000AF78607B689B6803F0005349
:10455800B3F1005F01D1012300E0002318460C37B6
:10456800BD465DF8047B704780B483B000AF7860C7
:104578007B689B6823F0104323F03F0343F080528D
:104588007B689A6000BF0C37BD465DF8047B7047B6
:1045980080B483B000AF78607B689B6803F0805379
:1045A800B3F1805F01D1012300E0002318460C37E6
:1045B800BD465DF8047B704780B483B000AF786077
:1045C8007B689B6823F0004323F03F0343F001021C
:1045D8007B689A6000BF0C37BD465DF8047B704766
:1045E80080B483B000AF78607B689B6823F0004399
:1045F80023F03F0343F002027B689A6000BF0C3748
:10460800BD465DF8047B704780B483B000AF786026
:104618007B689B6803F00103012B01D1012300E0B3
:10462800002318460C37BD465DF8047B704780B4FC
:1046380083B000AF78607B689B6803F00203022BAD
:1046480001D1012300E0002318460C37BD465DF870
:10465800047B704780B483B000AF78607B689B6848
:1046680023F0004323F03F0343F004027B689A6081
:1046780000BF0C37BD465DF8047B704780B483B03B
:1046880000AF78607B689B6823F0004323F03F030A
:1046980043F010027B689A6000BF0C37BD465DF896
:1046A800047B704780B483B000AF78607B689B68F8
:1046B80003F00403042B01D1012300E00023184672
:1046C8000C37BD465DF8047B704780B483B000AFFB
:1046D80078607B689B6823F0004323F03F0343F036
:1046E80020027B689A6000BF0C37BD465DF8047BEA
:1046F800704780B483B000AF78607B689B6803F034
:104708000803082B01D1012300E0002318460C37C9
:10471800BD465DF8047B704790B589B000AF7860FE
:104728000023FB770023FB607B68002B01D101236A
:10473800A9E17B685B69002B7B68DB6D002B09D1E5
:104748007868FEF781FB7B6800221A667B68002286
:1047580083F858207B681B681846FFF7F1FE03466C
:10476800002B04D07B681B681846FFF7D7FE7B68D0
:104778001B681846FFF70CFF0346002B15D17B6812
:104788001B681846FFF7F0FE9C4B1B689B099C4A68
:10479800A2FB03239B0901335B00FB6002E0FB687B
:1047A800013BFB60FB68002BF9D17B681B6818464E
:1047B800FFF7EEFE0346002B0DD17B68DB6D43F05F
:1047C80010027B68DA657B681B6E43F001027B6828
:1047D8001A660123FB777B681B681846FFF762FFA0
:1047E80078617B68DB6D03F01003002B40F0428199
:1047F8007B69002B40F03E817B68DB6D23F481737D
:1048080043F002027B68DA657B681B681846FFF78D
:10481800FBFE0346002B41D17B681B68B3F1A04F18
:1048280004D07B681B68774A93420FD14FF0A040B1
:10483800FFF7EAFE04467348FFF7E6FE0346234304
:10484800002B0CBF01230023DBB212E06E48FFF7F8
:10485800DBFE04466D48FFF7D7FE03461C436C4851
:10486800FFF7D2FE03462343002B0CBF012300238E
:10487800DBB2002B12D07B681B68B3F1A04F04D0C9
:104888007B681B685F4A934201D1624A00E0624A32
:104898007B685B6819461046FFF7D2FC7B685B7F34
:1048A8005A037B68DB6B1A437B68DB681A437B68B7
:1048B8009B681A437B6893F824301B041343BB613D
:1048C8007B6893F82430012B06D17B689B6A013BF7
:1048D8005B04BA691343BB617B68DB6A002B09D0B0
:1048E8007B68DB6A03F478727B681B6B1343BA69D5
:1048F8001343BB617B681B68DA68484B13407A68CE
:104908001268B9690B43D3607B681B681B6923F085
:1049180040617B685A6B7B681B680A431A617B6835
:104928001B681846FFF7E5FE38617B69002B7FD1CD
:104938003B69002B7CD17B681B7F9A037B6893F8CB
:1049480038305B001343BB617B681B68DB6823F46A
:10495800804323F002037A681268B9690B43D36075
:104968007B681B69002B17D07B681B681A697B68FA
:104978001B6842F480321A617B681B68D3F8C03028
:1049880023F47F5323F03F037A6811697A68126829
:104998000B43C2F8C03013E07B681B681A697B6858
:1049A8001B6822F480321A617B681B68D3F8C03018
:1049B8007A68126823F47F5323F03F03C2F8C030AB
:1049C8007B6893F84030012B2AD17B681B681B69F0
:1049D80023F4FF6323F004037A68516C7A68926CBD
:1049E80011437A68D26C11437A68126D0A431A43EC
:1049F8007B681B6842F001021A6119E02000002060
:104A0800632D3E05000100500004005000050050D1
:104A18000006005000030050000700500740F0FF58
:104A28007B681B681A697B681B6822F001021A619F
:104A38007B685B69012B0CD17B681B681B6B23F0BF
:104A48000F017B681B6A5A1E7B681B680A431A633E
:104A580007E07B681B681A6B7B681B6822F00F02F3
:104A68001A637B68DB6D23F0030343F001027B6864
:104A7800DA6507E07B68DB6D43F010027B68DA6576
:104A88000123FB77FB7F18462437BD4690BD00BF46
:104A980080B586B000AFF860B9607A60FB681B68C3
:104AA800B3F1A04F04D0FB681B685A4A934201D166
:104AB800594B00E0594B1846FFF722FD3861FB6857
:104AC8001B681846FFF7EEFD0346002B40F09B805D
:104AD800FB6893F85830012B01D1022396E0FB685C
:104AE800012283F85820FB681B684D4A934208D07E
:104AF8003B69002B05D03B69052B02D03B69092B8C
:104B08007AD1F86800F00AFE0346FB75FB7D002B9E
:104B18006DD1FB68DB6D23F4706323F0010343F46C
:104B28008072FB68DA65FB681B683A4A934209D0D1
:104B3800FB681B683B4A934202D0FB681B6803E092
:104B4800394B01E04FF0A043FA681268934202D053
:104B58003B69002B05D1FB68DB6D23F48012FB68F1
:104B6800DA65FB68DB6D03F48053002B06D0FB6825
:104B78001B6E23F00602FB681A6602E0FB6800223F
:104B88001A66FB685B6D294ADA62FB685B6D284A26
:104B98001A63FB685B6D274A5A63FB681B681C2213
:104BA8001A60FB68002283F85820FB681B685A6863
:104BB800FB681B6842F010025A60FB681B68DA68E1
:104BC800FB681B6842F00102DA60FB68586DFB68FD
:104BD8001B6840331946BA687B6802F04DFB0346F0
:104BE800FB75FB681B681846FFF734FD0DE0FB6892
:104BF800002283F8582008E00123FB75FB68002297
:104C080083F8582001E00223FB75FB7D184618370E
:104C1800BD4680BD00010050000300500007005051
:104C28000006005000050050000400500F5900080D
:104C3800E7590008035A000880B584B000AF7860CF
:104C48007B6893F85830012B01D1022351E07B682F
:104C5800012283F858200321786800F0A3FC03465A
:104C6800FB73FB7B002B3FD17B681B68DA687B6892
:104C78001B6822F00102DA607B685B6D93F82530CF
:104C8800DBB2022B0FD17B685B6D184602F06FFB1D
:104C98000346FB73FB7B002B05D07B68DB6D43F081
:104CA80040027B68DA657B681B685A687B681B680A
:104CB80022F010025A60FB7B002B05D1786800F0C7
:104CC800C3FD0346FB7302E0786800F0BDFDFB7B83
:104CD800002B09D17B68DB6D23F4885323F0010393
:104CE80043F001027B68DA657B68002283F858206C
:104CF800FB7B18461037BD4680BD80B483B000AF3B
:104D0800786000BF0C37BD465DF8047B704780B4FF
:104D180083B000AF786000BF0C37BD465DF8047BF8
:104D28007047000080B5B6B000AF786039600023E6
:104D380087F8D7300023FB607B6893F85830012B45
:104D480002D1022300F013BC7B68012283F85820AB
:104D58007B681B681846FFF7A5FC0346002B40F04C
:104D6800F3837B6818683B6859683B681B681A4678
:104D7800FFF74BFB7B681B681846FFF793FCC7F8E7
:104D8800D0007B681B681846FFF7B3FCC7F8CC0057
:104D9800D7F8D030002B40F0D981D7F8CC30002B91
:104DA80040F0D4813B689B68B3F1004F0FD17B681A
:104DB80018683B681B6800221946FFF752FB7B689E
:104DC8001B684FF000411846FFF7F9FA0EE07B68C0
:104DD80018683B6819683B689B681A46FFF741FBEF
:104DE8007B681B6800211846FFF7E9FA3B685A6997
:104DF8007B681B68DB68DB0803F003035B0002FACF
:104E080003F3C7F8C8303B681B69042B22D07B68C2
:104E180018683B6819693B681A68D7F8C830FFF703
:104E280043FA7B6818683B6819693B689B691A46AE
:104E3800FFF78FFA7B6818683B6819693B681B7F26
:104E4800012B02D14FF0007300E000231A46FFF750
:104E58009BFA7BE17B681B6800211846FFF748FA3C
:104E68000346C3F31203002B0AD17B681B68002199
:104E78001846FFF73DFA03469B0E03F01F021EE09B
:104E88007B681B6800211846FFF732FA0346C7F80B
:104E9800BC30D7F8BC3093FAA3F3C7F8C030D7F8C2
:104EA800C030C7F8B830D7F8B830002B01D120236C
:104EB80004E0D7F8B830B3FA83F3DBB21A463B689C
:104EC8001B68C3F31203002B05D13B681B689B0EBC
:104ED80003F01F0318E03B681B68C7F8B030D7F829
:104EE800B03093FAA3F3C7F8AC30D7F8AC30C7F8B2
:104EF800B430D7F8B430002B01D1202304E0D7F820
:104F0800B430B3FA83F3DBB29A4206D17B681B68EC
:104F1800002200211846FFF701FA7B681B6801216F
:104F28001846FFF7E5F90346C3F31203002B0AD12D
:104F38007B681B6801211846FFF7DAF903469B0EC8
:104F480003F01F021EE07B681B6801211846FFF76B
:104F5800CFF90346C7F8A430D7F8A43093FAA3F3DF
:104F6800C7F8A030D7F8A030C7F8A830D7F8A830CD
:104F7800002B01D1202304E0D7F8A830B3FA83F33B
:104F8800DBB21A463B681B68C3F31203002B05D13A
:104F98003B681B689B0E03F01F0318E03B681B6807
:104FA800C7F89830D7F8983093FAA3F3C7F8943035
:104FB800D7F89430C7F89C30D7F89C30002B01D133
:104FC800202304E0D7F89C30B3FA83F3DBB29A428B
:104FD80006D17B681B68002201211846FFF79EF95D
:104FE8007B681B6802211846FFF782F90346C3F362
:104FF8001203002B0AD17B681B6802211846FFF7B1
:1050080077F903469B0E03F01F021EE07B681B68BE
:1050180002211846FFF76CF90346C7F88C30D7F819
:105028008C3093FAA3F3C7F88830D7F88830C7F8DC
:105038009030D7F89030002B01D1202304E0D7F826
:105048009030B3FA83F3DBB21A463B681B68C3F3AC
:105058001203002B05D13B681B689B0E03F01F034E
:1050680016E03B681B68C7F88030D7F8803093FAA1
:10507800A3F3FB67FB6FC7F88430D7F88430002BA5
:1050880001D1202304E0D7F88430B3FA83F3DBB2EC
:105098009A4206D17B681B68002202211846FFF756
:1050A8003DF97B681B6803211846FFF721F9034681
:1050B800C3F31203002B0AD17B681B68032118462F
:1050C800FFF716F903469B0E03F01F0217E07B68F3
:1050D8001B6803211846FFF70BF903467B677B6FB4
:1050E80093FAA3F33B673B6FBB67BB6F002B01D100
:1050F800202303E0BB6FB3FA83F3DBB21A463B68A5
:105108001B68C3F31203002B05D13B681B689B0E79
:1051180003F01F0311E03B681B68BB66BB6E93FA84
:10512800A3F37B667B6EFB66FB6E002B01D120230D
:1051380003E0FB6EB3FA83F3DBB29A4206D17B68D5
:105148001B68002203211846FFF7E8F87B681B68F4
:105158001846FFF759FA0346002B40F03D817B685B
:1051680018683B6819683B68DB681A46FFF7A4F9BA
:105178003B68DB68A24A934240F02E817B6818683E
:105188003B681B68C3F31203002B0BD13B681B68F9
:105198009B0E013303F01F03092B94BF0123002347
:1051A800DBB219E03B681B68FB65FB6D93FAA3F360
:1051B800BB65BB6D3B663B6E002B01D1202303E032
:1051C8003B6EB3FA83F3DBB2013303F01F03092B01
:1051D80094BF01230023DBB2002B79D03B681B6806
:1051E800C3F31203002B07D13B681B689B0E0133E6
:1051F8009B0603F0F84215E03B681B683B653B6D76
:1052080093FAA3F3FB64FB6C7B657B6D002B01D1E8
:10521800202303E07B6DB3FA83F3DBB201339B06F3
:1052280003F0F8423B681B68C3F31203002B09D153
:105238003B681B689B0E013303F01F03012101FA31
:1052480003F317E03B681B687B647B6C93FAA3F35A
:105258003B643B6CBB64BB6C002B01D1202303E097
:10526800BB6CB3FA83F3DBB2013303F01F030121F4
:1052780001FA03F342EA03013B681B68C3F3120314
:10528800002B0AD13B681B689B0E013303F01F02F9
:1052980013465B0013441B0518E03B681B68BB639F
:1052A800BB6B93FAA3F37B637B6BFB63FB6B002BFA
:1052B80001D1202303E0FB6BB3FA83F3DBB20133A4
:1052C80003F01F0213465B0013441B050B437EE0EB
:1052D8003B681B68C3F31203002B07D13B681B68AC
:1052E8009B0E01339B0603F0F84215E03B681B68F0
:1052F800FB62FB6A93FAA3F3BB62BB6A3B633B6B3B
:10530800002B01D1202303E03B6BB3FA83F3DBB21C
:1053180001339B0603F0F8423B681B68C3F3120392
:10532800002B09D13B681B689B0E013303F01F0358
:10533800012101FA03F317E03B681B683B623B6AF3
:1053480093FAA3F3FB61FB697B627B6A002B01D1B3
:10535800202303E07B6AB3FA83F3DBB2013303F063
:105368001F03012101FA03F342EA03013B681B68AA
:10537800C3F31203002B0DD13B681B689B0E01334E
:1053880003F01F0213465B0013441E3B1B0543F04A
:1053980000731BE03B681B687B617B6993FAA3F38E
:1053A8003B613B69BB61BB69002B01D1202303E052
:1053B800BB69B3FA83F3DBB2013303F01F02134670
:1053C8005B0013441E3B1B0543F000730B433A6814
:1053D80092681946FFF745F83B681A68094B13406D
:1053E800002B00F0BE807B681B68B3F1A04F04D08F
:1053F8007B681B68044A93420AD1044B09E000BF4A
:1054080000007F40000008800001005000030050A9
:10541800594B1846FEF73AFFC7F8C4003B681B68AB
:10542800564A934204D03B681B68554A93423AD186
:10543800D7F8C43003F40003002B34D17B681B6811
:10544800B3F1A04F05D07B681B684E4A934240F0E9
:1054580085807B681B68B3F1A04F04D07B681B680C
:10546800494A934201D1494A00E0434AD7F8C43037
:1054780043F4000319461046FEF7F5FE444B1B683B
:105488009B09444AA2FB03239B095A1C13465B0051
:1054980013449B00FB6002E0FB68013BFB60FB6878
:1054A800002BF9D15AE03B681B683B4A934225D14F
:1054B800D7F8C43003F08073002B1FD17B681B68BA
:1054C800314A934204D17B681B68344A934247D0DF
:1054D8007B681B68B3F1A04F04D07B681B682A4A1D
:1054E800934201D1294A00E0234AD7F8C43043F057
:1054F800807319461046FEF7B6FE31E03B681B681C
:10550800274A93422DD1D7F8C43003F48003002BE7
:1055180027D17B681B681C4A934222D07B681B6892
:10552800B3F1A04F04D07B681B68174A934201D19E
:10553800164A00E0104AD7F8C43043F480031946ED
:105548001046FEF790FE0CE07B68DB6D43F020020E
:105558007B68DA65012387F8D73002E000BF00E0F6
:1055680000BF7B68002283F8582097F8D730184688
:10557800D837BD4680BD00BF00070050000021C3DA
:105588001000C090000600500001005000030050B9
:1055980020000020632D3E05000052C70005005082
:1055A800000084CB80B588B000AF786039600023F4
:1055B800FB613B68BB617B681B681846FFF772F8A4
:1055C80038617B681B681846FFF793F8F8603B69F9
:1055D800002B03D1FB68002B00F098807B681B68C8
:1055E800DB6803F00073002B2AD07B685B7F012BFC
:1055F80026D17B681B7F012B22D10123BB6114E0DC
:10560800FB69454A93420DD97B68DB6D43F0100274
:105618007B68DA657B681B6E43F001027B681A665B
:10562800012374E0FB690133FB617B681B681B681D
:1056380003F04003402BE3D17B681B6840221A60CB
:10564800BB69022B14D07B681B681846FFF72AF841
:105658000346002B0CD07B681B681846FEF7E7FF53
:105668000346002B04D17B681B681846FFF706F831
:10567800BB69012B14D07B681B681846FFF739F803
:105688000346002B0CD07B681B681846FEF7CFFF3B
:105698000346002B04D17B681B681846FFF715F8F2
:1056A800BB69022B05D0BB69032B05D10C237B6199
:1056B80005E008237B6102E004237B6100BF00F062
:1056C800D7FBB8601BE000F0D3FB0246BB68D31AD7
:1056D800052B14D97B681B689A687B691340002BDB
:1056E8000DD07B68DB6D43F010027B68DA657B6860
:1056F8001B6E43F001027B681A66012307E07B6892
:105708001B689A687B691340002BDCD1002318467C
:105718002037BD4680BD00BFFFFF3FA380B584B0E2
:1057280000AF78600023BB607B681B681846FEF7F3
:105738006BFF0346002B76D17B681B689A683C4B4D
:105748001340002B0DD07B68DB6D43F010027B68A3
:10575800DA657B681B6E43F001027B681A660123D9
:1057680062E07B681B681846FEF726FF7B681B68AB
:10577800B3F1A04F04D07B681B682E4A934201D135
:105788002D4B00E02D4B1846FEF780FD034603F431
:105798000003002B13D02A4B1B689B09294AA2FB44
:1057A80003239B095A1C13465B0013449B00BB60F0
:1057B80002E0BB68013BBB60BB68002BF9D100F07D
:1057C80057FBF86028E07B681B681846FEF71CFF4B
:1057D8000346002B04D17B681B681846FEF7ECFED5
:1057E80000F046FB0246FB68D31A022B14D97B68EB
:1057F8001B681B6803F00103012B0DD07B68DB6D70
:1058080043F010027B68DA657B681B6E43F0010287
:105818007B681A66012307E07B681B681B6803F036
:105828000103012BCFD1002318461037BD4680BD98
:105838003F000080000100500003005000070050A6
:1058480020000020632D3E0580B584B000AF78604D
:105858007B681B681846FEF7EAFEF8607B681B68E1
:105868001846FEF7D1FE0346002B47D0FB68002BF5
:1058780044D17B681B689B6803F00D03012B0CD196
:105888007B681B681846FEF7ABFE7B681B68032223
:105898001A6000F0EDFAB86029E07B68DB6D43F030
:1058A80010027B68DA657B681B6E43F001027B6837
:1058B8001A66012323E000F0DBFA0246BB68D31A1C
:1058C800022B14D97B681B689B6803F00103002B2B
:1058D8000DD07B68DB6D43F010027B68DA657B686E
:1058E8001B6E43F001027B681A66012307E07B68A0
:1058F8001B689B6803F00103002BDCD100231846CA
:105908001037BD4680BD80B584B000AF78607B6835
:105918009B6AFB60FB68DB6D03F05003002B4BD1E7
:10592800FB68DB6D43F40072FB68DA65FB681B6893
:105938001B6803F00803002B21D0FB681B6818467E
:10594800FEF750FD0346002B32D0FB681B68DB686E
:1059580003F40053002B2BD1FB68DB6D23F480721A
:10596800FB68DA65FB68DB6D03F48053002B1FD1FD
:10597800FB68DB6D43F00102FB68DA6518E0FB6841
:105988001B68DB6803F00203002B11D1FB68DB6D99
:1059980023F48072FB68DA65FB68DB6D03F48053DF
:1059A800002B05D1FB68DB6D43F00102FB68DA656B
:1059B800F868FBF72DF80EE0FB68DB6D03F01003C9
:1059C800002B03D0F868FFF7A2F904E0FB685B6DD1
:1059D8005B6B7868984700BF1037BD4680BD80B5BF
:1059E80084B000AF78607B689B6AFB60F868FFF75B
:1059F80084F900BF1037BD4680BD80B584B000AFC4
:105A080078607B689B6AFB60FB68DB6D43F0400253
:105A1800FB68DA65FB681B6E43F00402FB681A66D4
:105A2800F868FFF774F900BF1037BD4680BD80B431
:105A380083B000AF78607B689B6803F00103012B9B
:105A480001D1012300E0002318460C37BD465DF85C
:105A5800047B704780B483B000AF786039607B689E
:105A68009B6823F0404323F03F033A6802F08042EA
:105A7800134343F000427B689A6000BF0C37BD4671
:105A88005DF8047B704780B483B000AF78607B68B2
:105A98009B6803F00043B3F1004F01D1012300E0FC
:105AA800002318460C37BD465DF8047B704780B468
:105AB80083B000AF78607B689B6803F00403042B15
:105AC80001D1012300E0002318460C37BD465DF8DC
