:020000040800F2
:1000000000000220659D0008C1430008C9430008A4
:10001000D1430008D9430008E14300080000000074
:10002000000000000000000000000000E94300089C
:10003000F7430008000000000544000813440008CE
:10004000B59D0008B59D0008B59D0008B59D000848
:10005000B59D0008B59D0008B59D0008B59D000838
:10006000B59D0008B59D0008B59D0008B59D000828
:100070002144000835440008494400085D44000854
:10008000B59D0008B59D0008B59D0008B59D000808
:10009000B59D0008B59D0008B59D0008B59D0008F8
:1000A000B59D0008B59D0008B59D0008B59D0008E8
:1000B000B59D0008B59D0008B59D0008B59D0008D8
:1000C000B59D0008B59D0008B59D0008B59D0008C8
:1000D000B59D0008B59D0008B59D0008B59D0008B8
:1000E000B59D0008B59D0008B59D0008B59D0008A8
:1000F000B59D0008B59D0008B59D0008B59D000898
:10010000B59D0008B59D000871440008B59D000824
:10011000B59D0008B59D000885440008B59D000800
:10012000B59D0008B59D0008B59D0008B59D000867
:10013000B59D0008B59D0008B59D0008B59D000857
:10014000B59D0008B59D0008B59D0008B59D000847
:10015000B59D0008B59D0008B59D0008B59D000837
:10016000B59D0008B59D0008B59D0008B59D000827
:10017000B59D0008B59D0008B59D0008B59D000817
:10018000B59D0008B59D0008B59D0008B59D000807
:10019000B59D000800000000B59D0008B59D000851
:1001A000B59D0008B59D0008B59D0008B59D0008E7
:1001B000B59D0008B59D0008B59D0008B59D0008D7
:1001C000B59D0008B59D0008B59D0008B59D0008C7
:0801D000B59D0008B59D000873
:1001D800830730B547D0541E002A3ED0CAB2034622
:1001E80001E0013C39D303F8012B9D07F9D1032C19
:1001F8002CD9CDB205EB05250F2C05EB054535D9D6
:10020800A4F1100222F00F0C03F1100EE6444FEA9D
:10021800121C1A46C2E90055C2E90255103272454D
:10022800F8D10CF1010214F00C0F03EB021204F0E8
:100238000F0C13D0ACF1040323F00303043313446D
:1002480042F8045B9342FBD10CF003042CB1C9B211
:100258001C4403F8011BA342FBD130BD644613467E
:10026800002CF4D1F9E703461446C0E71A46A44621
:10027800E0E700BF70B50F4B0F4DAB42A3EB05068F
:1002880007D0B610002455F8043B01349847A6421D
:10029800F9D809F01DFE094D094B5E1BAB424FEA28
:1002A800A60606D0002455F8043B01349847A64218
:1002B800F9D870BD14A7000814A7000814A70008EF
:1002C80018A70008704700BF704700BF704700BFFD
:1002D800704700BF704700BF704700BF01207047DC
:1002E80001207047704700BF704700BF002950D0F9
:1002F80038B551F8043C0C1F002BB8BFE41805466C
:1003080000F0F6F8274A13682BB1A3420CD92168EC
:10031800601883422CD0636028461460BDE83840DA
:1003280000F0ECB8A3420FD81A465B68002BF9D14D
:1003380011685018844217D02CD363605460284643
:10034800BDE8384000F0DAB811685018A04214D05F
:1003580020D8216860188342EFD118685B68084488
:10036800C4E900035460EAE723680B441360E6E736
:1003780018685B6808442060CDE72068014450187D
:1003880083421160DBD1D3E900040144C2E90014BF
:10039800D5E770470C232B602846BDE8384000F0AD
:1003A800ADB800BFCC01002070B5104E33680546CB
:1003B8000C46B3B12146284600F0A6F8431C0CD0E1
:1003C800C41C24F00304A04205D0211A284600F0DA
:1003D8009BF8013001D0204670BD4FF0FF34204615
:1003E80070BD194600F090F83060E3E7C8010020BE
:1003F8002DE9F843CD1C25F0030508350C2D38BF31
:100408000C25002D064618DBA94216D8DFF8DC803B
:1004180000F06EF8D8F80420A2B1144603E063682F
:1004280022467BB11C4623685B1BF8D40B2B1FD8D4
:100438009442636854D053600CE00C23336000206E
:10044800BDE8F88329463046FFF7AEFF431C044653
:1004580019D00560304600F051F804F10B00231D57
:1004680020F00700C21A1CBF1B1AA350BDE8F8836E
:1004780061199442256014BF5160C8F80410635193
:1004880063684B60E6E7D8F804701FB33C467F68A2
:10049800002FFBD123683946304604EB030900F0EE
:1004A80033F8814516D12368ED1A29463046FFF7FF
:1004B8007BFF01300ED02368D8F804202B4423603A
:1004C800536883B1A34203D01A465B689C42FBD1B0
:1004D8000023B0E70C233360304600F00FF8AEE796
:1004E800C8F80430B6E7C8F80470B3E7C8010020BC
:1004F8000148FFF7F1BE00BFB80100200148FFF72F
:10050800F3BE00BFB801002038B5074D00220446ED
:1005180008462A6009F0ECFB431C00D038BD2B6864
:10052800002BFBD0236038BDA401002081F00041DE
:1005380002E000BF83F0004330B54FEA41044FEAC0
:10054800430594EA050F08BF90EA020F1FBF54EA5B
:10055800000C55EA020C7FEA645C7FEA655C00F0F7
:10056800E2804FEA5454D4EB5555B8BF6D420CDDC8
:100578002C4480EA020281EA030382EA000083EA4B
:10058800010180EA020281EA0303362D88BF30BDEB
:1005980011F0004F4FEA01314FF4801C4CEA113141
:1005A80002D0404261EB410113F0004F4FEA0333A0
:1005B8004CEA133302D0524263EB430394EA050F2B
:1005C80000F0A780A4F10104D5F1200E0DDB02FA9A
:1005D8000EFC22FA05F2801841F1000103FA0EF22E
:1005E800801843FA05F359410EE0A5F120050EF1F4
:1005F800200E012A03FA0EFC28BF4CF0020C43FA25
:1006080005F3C01851EBE37101F0004507D54FF031
:10061800000EDCF1000C7EEB00006EEB0101B1F581
:10062800801F1BD3B1F5001F0CD349085FEA3000C7
:100638004FEA3C0C04F101044FEA445212F5800FD2
:1006480080F09A80BCF1004F08BF5FEA500C50F16F
:10065800000041EB045141EA050130BD5FEA4C0C52
:10066800404141EB0101013C28BFB1F5801FE9D2AF
:1006780091F0000F04BF01460020B1FA81F308BFD2
:100688002033A3F10B03B3F120020CDA0C3208DD9E
:1006980002F1140CC2F10C0201FA0CF021FA02F179
:1006A8000CE002F11402D8BFC2F1200C01FA02F1E9
:1006B80020FA0CFCDCBF41EA0C019040E41AA2BF0E
:1006C80001EB0451294330BD6FEA04041F3C1CDAD6
:1006D8000C340EDC04F11404C4F1200220FA04F0F6
:1006E80001FA02F340EA030021FA04F345EA0301A0
:1006F80030BDC4F10C04C4F1200220FA02F001FA62
:1007080004F340EA0300294630BD21FA04F02946E3
:1007180030BD94F0000F83F4801306BF81F480117C
:100728000134013D4EE77FEA645C18BF7FEA655CEF
:1007380029D094EA050F08BF90EA020F05D054EAC1
:10074800000C04BF1946104630BD91EA030F1EBFC6
:100758000021002030BD5FEA545C05D140004941CA
:1007680028BF41F0004130BD14F580043CBF01F5BD
:10077800801130BD01F0004545F0FE4141F47001A3
:100788004FF0000030BD7FEA645C1ABF194610467E
:100798007FEA655C1CBF0B46024650EA013406BF7F
:1007A80052EA033591EA030F41F4002130BD00BF3E
:1007B80090F0000F04BF0021704730B54FF48064FB
:1007C80004F132044FF000054FF0000150E700BF7C
:1007D80090F0000F04BF0021704730B54FF48064DB
:1007E80004F1320410F0004548BF40424FF00001C8
:1007F8003EE700BF42004FEAE2014FEA31014FEA0B
:1008080002701FBF12F07F4393F07F4F81F0605159
:10081800704732F07F4208BF704793F07F4F04BFA4
:1008280041F40021704730B54FF4607401F0004581
:1008380021F000411CE700BF50EA010208BF7047E1
:1008480030B54FF000050AE050EA010208BF7047D2
:1008580030B511F0004502D5404261EB41014FF43B
:10086800806404F132045FEA915C3FF4D8AE4FF043
:1008780003025FEADC0C18BF03325FEADC0C18BF26
:10088800033202EBDC02C2F1200300FA03FC20FA77
:1008980002F001FA03FE40EA0E0021FA02F11444C4
:1008A800BDE600BF70B54FF0FF0C4CF4E06C1CEADD
:1008B80011541DBF1CEA135594EA0C0F95EA0C0F4E
:1008C80000F0DEF82C4481EA030621EA4C5123EAC1
:1008D8004C5350EA013518BF52EA033541F48011F0
:1008E80043F4801338D0A0FB02CE4FF00005E1FBA3
:1008F80002E506F00042E0FB03E54FF00006E1FBED
:1009080003569CF0000F18BF4EF0010EA4F1FF042F
:10091800B6F5007F64F5407404D25FEA4E0E6D416F
:1009280046EB060642EAC62141EA55514FEAC52080
:1009380040EA5E504FEACE2EB4F1FD0C88BFBCF5FC
:10094800E06F1ED8BEF1004F08BF5FEA500E50F1AD
:10095800000041EB045170BD06F0004646EA010173
:1009680040EA020081EA0301B4EB5C04C2BFD4EBA5
:100978000C0541EA045170BD41F480114FF0000E9E
:10098800013C00F3AB8014F1360FDEBF002001F00C
:10099800004170BDC4F10004203C35DA0C341BDC86
:1009A80004F11404C4F1200500FA05F320FA04F058
:1009B80001FA05F240EA020001F0004221F000418C
:1009C80010EBD37021FA04F642EB06015EEA430EFF
:1009D80008BF20EAD37070BDC4F10C04C4F120052F
:1009E80000FA04F320FA05F001FA04F240EA0200E2
:1009F80001F0004110EBD37041F100015EEA430EB3
:100A080008BF20EAD37070BDC4F1200500FA05F2D2
:100A18004EEA020E20FA04F301FA05F243EA020351
:100A280021FA04F001F0004121FA04F220EA020060
:100A380000EBD3705EEA430E08BF20EAD37070BDA6
:100A480094F0000F0FD101F00046400041EB010186
:100A580011F4801F08BF013CF7D041EA060195F068
:100A6800000F18BF704703F00046520043EB030322
:100A780013F4801F08BF013DF7D043EA060370470F
:100A880094EA0C0F0CEA135518BF95EA0C0F0CD01A
:100A980050EA410618BF52EA4306D1D181EA030160
:100AA80001F000414FF0000070BD50EA410606BF5A
:100AB8001046194652EA430619D094EA0C0F02D19F
:100AC80050EA013613D195EA0C0F05D152EA0336E4
:100AD8001CBF104619460AD181EA030101F0004102
:100AE80041F0FE4141F470014FF0000070BD41F04B
:100AF800FE4141F4780170BD70B54FF0FF0C4CF425
:100B0800E06C1CEA11541DBF1CEA135594EA0C0F43
:100B180095EA0C0F00F0A7F8A4EB050481EA030E90
:100B280052EA03354FEA013100F088804FEA033377
:100B38004FF0805545EA131343EA12634FEA022245
:100B480045EA111545EA10654FEA00260EF0004106
:100B58009D4208BF964244F1FD0404F5407402D258
:100B68005B084FEA3202B61A65EB03055B084FEAE9
:100B780032024FF480104FF4002CB6EB020E75EBE6
:100B8800030E22BFB61A754640EA0C005B084FEA0E
:100B98003202B6EB020E75EB030E22BFB61A75468B
:100BA80040EA5C005B084FEA3202B6EB020E75EBD6
:100BB800030E22BFB61A754640EA9C005B084FEA4E
:100BC8003202B6EB020E75EB030E22BFB61A75465B
:100BD80040EADC0055EA060E18D04FEA051545EA4A
:100BE80016754FEA06164FEAC30343EA52734FEAF3
:100BF800C2025FEA1C1CC0D111F4801F0BD141EA6C
:100C080000014FF000004FF0004CB6E711F4801FD0
:100C180004BF01430020B4F1FD0C88BFBCF5E06FB0
:100C28003FF6AFAEB5EB030C04BFB6EB020C5FEAC0
:100C3800500C50F1000041EB045170BD0EF0004E15
:100C48004EEA113114EB5C04C2BFD4EB0C0541EA47
:100C5800045170BD41F480114FF0000E013C90E644
:100C680045EA060E8DE60CEA135594EA0C0F08BF08
:100C780095EA0C0F3FF43BAF94EA0C0F0AD150EA07
:100C880001347FF434AF95EA0C0F7FF425AF10469A
:100C980019462CE795EA0C0F06D152EA03353FF4C2
:100CA800FDAE1046194622E750EA410618BF52EA3F
:100CB80043067FF4C5AE50EA41047FF40DAF52EA13
:100CC80043057FF4EBAE12E74FF0FF3C06E000BFB0
:100CD8004FF0010C02E000BF4FF0010C4DF804CDBD
:100CE8004FEA410C7FEA6C5C4FEA430C18BF7FEA7D
:100CF8006C5C1BD001B050EA410C0CBF52EA430CAB
:100D080091EA030F02BF90EA020F0020704710F12A
:100D1800000F91EA030F58BF994208BF90422CBFB9
:100D2800D8176FEAE37040F0010070474FEA410CB2
:100D38007FEA6C5C02D150EA013C07D14FEA430CD0
:100D48007FEA6C5CD6D152EA033CD3D05DF8040B41
:100D5800704700BF8446104662468C461946634673
:100D680000E000BF01B5FFF7B7FF002848BF10F14A
:100D7800000F01BD4DF808EDFFF7F4FF0CBF01208F
:100D880000205DF808FB00BF4DF808EDFFF7EAFF0B
:100D980034BF012000205DF808FB00BF4DF808EDC6
:100DA800FFF7E0FF94BF012000205DF808FB00BFBB
:100DB8004DF808EDFFF7CEFF94BF012000205DF845
:100DC80008FB00BF4DF808EDFFF7C4FF34BF012052
:100DD80000205DF808FB00BF4FEA4102B2F1E04392
:100DE80024BFB3F5001CDCF1FE5C0DD901F0004C0A
:100DF8004FEAC0024CEA5070B2F1004F40EB83005A
:100E080008BF20F00100704711F0804F21D113F185
:100E18003872BCBF01F00040704741F480114FEABE
:100E28005252C2F11802C2F1200C10FA0CF320FA47
:100E380002F018BF40F001004FEAC1234FEAD32364
:100E480003FA0CFC40EA0C0023FA02F34FEA4303CE
:100E5800CCE77FEA625307D150EA01331EBF4FF057
:100E6800FE4040F44000704701F0004040F0FE4072
:100E780040F40000704700BF024B01461868FFF7B6
:100E8800B7BA00BF00000020024B01461868FFF700
:100E98002DBA00BF00000020014B1868704700BF42
:100EA8000000002000000000F8B52DED028B55EC85
:100EB800114B57EC106B00F06FF922462B46204679
:100EC8002946B0EE408AF0EE608A01F0C5F878B99C
:100ED8000022002330463946FFF74CFFF0B10022CC
:100EE800002320462946FFF745FF40B19FED288B98
:100EF800B0EE480AF0EE680ABDEC028BF8BD45EC8E
:100F0800104B00F049F80028F2D0002200232046B8
:100F18002946FFF739FF0028EAD02EE0B0EE480A4C
:100F2800F0EE680A00F038F8A0B151EC180B002276
:100F38000023FFF71FFF0028DAD047EC106B00F002
:100F48002BF80028D4D045EC104B00F025F80028E9
:100F5800CED012E047EC106B00F01EF80028E4D069
:100F680045EC104B00F018F80028DED053EC182B95
:100F780051EC180B01F070F820B9FFF78DFF222310
:100F88000360B5E7FFF788FF21230360B0E700BFE0
:100F9800000000000000F03F82B08DED000B0198CA
:100FA80040F0004000F58010C00F02B0704700BF4D
:100FB8002DE9F047754955EC104BA94300F0A9807D
:100FC800002D2A46234655DD2C1562D0C2F31302A4
:100FD800E107A4F2FF3742F4801203D4D90F01EBE2
:100FE80042025B005200002602EBD3727F105B00C6
:100FF8001624B4464FF400110CEB010090424FEA5E
:10100800D3754FEA430303DC00EB010C121A0E44BC
:10101800013C05EB42024FEA5101EDD1A0462025E3
:101028004FF000400AE043D0510001EBD371013D7D
:101038000A464FEA43034FEA500045D0944508EB6F
:10104800000EF0DABEF1000F0EEB00080CDBE146F3
:10105800A2EB0C019E4588BF01F1FF314900CC4647
:10106800A3EB0E030444E0E7B8F1000FEFDB0CF14B
:101078000109EDE725F00041214344D0002D6FD14F
:10108800D90A153A5B050029FAD0CE02144674D461
:101098000A4600215200D502084601F10101F9D59E
:1010A800C1F1200523FA05F52A438B40241A8DE760
:1010B8009E4502D94FEA4C01B7E7BEF1000F0EEB8F
:1010C800000822DB0021CBE7194310D0DFF8C0A0CD
:1010D800DAE90001DAE90223FFF72CFADAE90089F4
:1010E80002460B4640464946FFF758FEF8B96508E0
:1010F800711001F17F5101F5001101EB075345EA29
:10110800C67243EC102BBDE8F087B8F1000FAEDAD9
:10111800D8E722462B4620462946FFF7C3FB22463E
:101128002B46FFF709FA41EC100BBDE8F087B4F144
:10113800FF3FDAE90001DAE9022322D0FFF7FCF9E0
:10114800DAE9008902460B4640464946FFF71CFE8D
:10115800C8B1A31C04F1020508BF01366D08C7E732
:1011680022462B4620462946FFF7E4F902460B465D
:10117800FFF7C2FC41EC100BC5E74FF0FF300A4601
:1011880094E70136B4E70134B1E700BF0000F07F0F
:10119800F09E0008000000002DE9F04F55EC114BBF
:1011A80025F0004353EA040057EC106B93B012D1BA
:1011B800B3198D4987F4002252419842914120D2B7
:1011C80022462B4630463946FFF7B6F941EC100B5C
:1011D80013B0BDE8F08F854827F0004A8245B8462D
:1011E800314613D908F1404808F5801858EA010833
:1011F800E6D123197C4985F4002252419845914152
:10120800DED39FED770B13B0BDE8F08FA9462246D9
:1012180016D08342E6D8504600F0B680B8F1000FE9
:1012280016DB002A40F0C580DFF8CCC1634540F0EA
:10123800FD83B9F1000FC0F2068547EC106BC7E7D4
:10124800002EBDD15345BBD800F024845046E5E7B5
:10125800DFF8A8C1634500F2E383DFF898C163456E
:1012680042D8002A40F01284B9F1804F33D0934617
:1012780047EC106B04910290009300F097FD0499DD
:10128800009B0298002953D04FEAD872013A52EADB
:101298000B0100F0A0800BF1FF3B5BEA020B00F0B2
:1012A800BA839FED4F7B8DED067BB3F1844F40F2FF
:1012B800A7804F4A93424F4B40F226849A4500F24A
:1012C800DA84B9F1000FC0F2DA84002013B0BDE867
:1012D800F04F00F02DBE32463B4630463946FFF708
:1012E800E1FA41EC100B73E74FEA235CACF2FF3CE8
:1012F800BCF1140F40F38C84CCF1340C22FA0CFEB0
:101308000EFA0CFC944500F00185002A40F0BE83DB
:10131800B9F1804F049102900093DCD047EC106B38
:1013280000F044FD0499009B0298002953D18B4694
:10133800314A28F04041914202D0BAF1000FA3D1BE
:10134800B9F1000F07DA53EC102B2B490020FFF7F7
:10135800D3FB41EC100BB8F1000FBFF639AF0AF11F
:10136800404A0AF5801A5AEA0B0A40F0768453EC90
:10137800102B10461946FFF7DDF802460B46FFF71B
:10138800BBFB41EC100B23E7002C7FF42BAF0AF1D9
:10139800404303F5801333433FF433AF154B9A456D
:1013A80040F22884B9F1000FC0F29F8445EC104B3D
:1013B8000EE74FF0000B47EC106B0491029000937E
:1013C80000F0F4FC0499009B02980029B0D04FEA81
:1013D800D872013A5FE732463B46CAE7AFF300806E
:1013E800000000000000F03F0000F0FF0000F07F68
:1013F8000000F043FFFFEF3F0000F03FFFFF3F43D7
:10140800DB4B08EA0303002253B951EC100BD94B0C
:10141800FFF748FA41EC100B10EE900A6FF0340217
:101428000315A3F2FF339A18D34B0B92C0F31300A2
:1014380040F07F56984246F4401640F3CD83CF4B98
:10144800984240F322849FEDB47B8DED087B9FED9D
:10145800B47B8DED047B9FEDB07B8DED107B01326D
:101468000B92A6F58016002753EC102B9246504697
:10147800DDE904233146FFF75DF8B346DDE90423CF
:101488008046894650463146CDE90CABFFF754F803
:1014980002460B460020BA49FFF72EFB8C468346CE
:1014A80063465A4640464946CDE90EBCFFF7FAF96D
:1014B8000A460146CDE90012CDE902120021009149
:1014C8007610DDE900AB46F0005606F50023002053
:1014D800D91906460F4602460B4650465946FFF7AD
:1014E800E1F902460B4640464946FFF723F8DDE995
:1014F80004238046894630463946FFF71BF80246E2
:101508000B46DDE90C01FFF715F852465B46FFF77D
:10151800C9F902460B4640464946FFF70BF8DDE994
:101528000E23FFF7BFF9DDE90267CDE90401324672
:101538003B4630463946FFF7B5F97BA3D3E900238C
:1015480006460F46FFF7AEF979A3D3E90023FEF765
:10155800F3FF32463B46FFF7A5F977A3D3E900230B
:10156800FEF7EAFF32463B46FFF79CF974A3D3E93E
:101578000023FEF7E1FF32463B46FFF793F972A3DB
:10158800D3E90023FEF7D8FF32463B46FFF78AF936
:101598006FA3D3E90023FEF7CFFF32468046894682
:1015A8003B4630463946FFF77DF902460B46404632
:1015B8004946FFF777F9524606460F465B46DDE98E
:1015C8000201FEF7B9FFDDE90423FFF76BF93246A4
:1015D8003B46FEF7B1FF524606460F465B4650466D
:1015E8005946FFF75FF9674B002280468946FEF7A8
:1015F800A3FF32463B46CDE90C67FEF79DFF002668
:101608000F4632463B4650465946FFF74BF95D4B6D
:1016180082468B46002230463946FEF78BFF42460B
:101628004B46FEF787FF02460B46DDE90C01FEF745
:1016380081FFDDE90223FFF735F932468046894606
:101648003B46DDE90401FFF72DF902460B4640460B
:101658004946FEF771FF8046894642464B4650464A
:101668005946FEF769FF00263BA3D3E9002330461D
:101678000F46FFF717F952465B4682468B463046BF
:101688003946FEF757FF02460B4640464946FEF7E5
:1016980051FF33A3D3E90023FFF704F902460B46B1
:1016A8003046394616461F462FA3D3E90023FFF7D5
:1016B800F9F802460B4630463946FEF73DFFDDE9AC
:1016C8001023FEF739FF80460B988946FFF780F80C
:1016D800424606460F464B4650465946CDE902ABB0
:1016E800FEF72AFFDDE90823FEF726FF32463B46D0
:1016F800FEF722FF002032463B4682468B46FEF725
:1017080019FFDDE90823FEF715FFDDE90223FEF7DF
:1017180011FF39E0AFF30080000000000000000076
:10172800000000000000F03FEF4E454A287ECA3F07
:1017380065DBC9934A86CD3F01411DA96074D13F3D
:101748004D268F515555D53FFFAB6FDBB66DDB3F4F
:10175800033333333333E33F000000E009C7EE3F80
:10176800FD033ADC09C7EE3FF5015B14E02F3EBEEE
:101778000000F07F000040438E98030079B60B000C
:101788000000F03F0000084002460B46404649462C
:10179800FEF7D0FECDE902010023CDE90045009314
:1017A800DDE900892046424629464B46FEF7C2FE3F
:1017B80052465B46FFF776F8224606460F462B460A
:1017C800DDE90201FFF76EF802460B46304639465E
:1017D800FEF7B2FE424604460D464B465046594671
:1017E800CDE90245FFF75EF806460F462046294632
:1017F8003B463246FEF7A0FEBD4B994204460D46D5
:10180800884640F3238101F13F4303F5E003034396
:1018180040F05382A2A3D3E90023DDE90201FEF7D9
:101828008BFE02460B462046294614461D46324684
:101838003B46FEF77FFE02460B4620462946FFF749
:10184800C1FA002840F039824FF400734344C3F3CF
:101858000A52A84CA2F2FF321441C3F3130AC2F190
:101868001402002004EA03014AF4801A4AFA02FA30
:101878000B460246B8F1000F30463946B8BFCAF1E8
:10188800000AFEF757FE02460B4606460F46DDE9FC
:101898000201FEF751FE4FEA0A5B0D46002482A3BF
:1018A800D3E9002320462946FEF7FCFF324680464E
:1018B80089463B4620462946FEF73CFE02460B4633
:1018C800DDE90201FEF736FE79A3D3E90023FEF72E
:1018D800E9FF02460B462046294614461D4676A3D4
:1018E800D3E90023FEF7DEFF02460B4620462946D1
:1018F800FEF722FE06460F4632463B46404649461C
:10190800FEF71AFE42464B4604460D46FEF712FE07
:1019180002460B4630463946FEF70CFE2246804604
:1019280089462B4620462946FEF7BCFF64A3D3E927
:10193800002306460F46FEF7B5FF63A3D3E900234D
:10194800FEF7F8FD32463B46FEF7ACFF60A3D3E94D
:101958000023FEF7F1FD32463B46FEF7A3FF5EA3E8
:10196800D3E90023FEF7E6FD32463B46FEF79AFF31
:101978005BA3D3E90023FEF7DFFD32463B46FEF7C3
:1019880091FF02460B4620462946FEF7D3FD064640
:101998000F4632463B4620462946FEF783FF02465D
:1019A8000B463046394616461F4600224FF0804304
:1019B800FEF7C0FD02460B4630463946FFF79CF855
:1019C800424606460F464B4620462946FEF76AFF22
:1019D80042464B46FEF7B0FD02460B4630463946B6
:1019E800FEF7A8FD22462B46FEF7A4FD0B4602464D
:1019F80041490020FEF79EFD0B465B44B3F5801F6E
:101A0800C0F253811946DDE90623FEF74BFF41EC8E
:101A1800100BFFF7DDBB9FED347B8DED067B44E4B7
:101A28004FF0020B002A7FF4C6AC21E4B9F1804FD5
:101A38003FF451ACDFF8C8C0E1457FF418AC47EC7F
:101A4800106B13B0BDE8F04FFFF7B2BADFF8B4C0BF
:101A580021F00043634540F2ED80284B0B440343DB
:101A68000AD132463B46FEF765FDDDE90223FFF762
:101A78009FF900283FF4E8AEDDE9060100220023C3
:101A8800FFF782F9003818BF01201FE40491029083
:101A9800009343E4002C7FF493AB7FE4AFF3008022
:101AA800FE822B654715973C00000000432EE63F59
:101AB800EF39FAFE422EE63F396CA80C615C20BE75
:101AC800D0A4BE726937663EF16BD2C541BDBB3E3C
:101AD8002CDE25AF6A56113F93BDBE166CC1663F1A
:101AE8003E5555555555C53F000000000000F0BF54
:101AF800FFFF8F400000F0FF0000F03F00346F3F11
:101B08000000E03FFFCB90409A45C0F0E080A44B36
:101B18009A454FF0000200F2EC8051EC100BA04BFC
:101B2800FEF708FD8CA3D3E9002306460F46FEF70F
:101B3800B9FE8BA3D3E9002380468946304639464F
:101B4800FEF7B0FE974B82468B4600223046394658
:101B5800FEF7A8FE02460B4683A1D1E90001FEF775
:101B6800E9FC32463B46FEF79DFE02460B46002046
:101B78008D49FEF7DFFC3246CDE900013B46304691
:101B88003946FEF78FFE02460B46DDE90001FEF7F7
:101B980089FE77A3D3E90023FEF784FE02460B46AD
:101BA80050465946FEF7C6FC06460F4632463B46A7
:101BB80040464946FEF7C0FC002042464B46824656
:101BC8008B46FEF7B7FC02460B4630463946FEF711
:101BD800B1FCCDE90201DFE59FED677B8DED087B68
:101BE8009FED677B8DED047B9DED087B00278DEDD8
:101BF800107B39E4B9F1000F9FED5F0BBFF6E8AA3F
:101C080005F1004300EE104A00EE903AFFF7E0BA03
:101C1800002A7FF43BAFCCF1140C43FA0CFE0EFA09
:101C28000CFC9C4579D0DFF878C163453FF401ABE3
:101C3800FFF71ABB5C4A934200F28580DDE9002376
:101C4800934692462AE65649002032463B46FEF71E
:101C580053FF41EC100BFFF7BBBABBF1010F7FF448
:101C6800B7AA10EE901A10EE102A01F1004343ECC7
:101C7800102BFFF7ADBAB9F1000F7FF726AB0020A4
:101C880013B0BDE8F04F00F063B99FED3F7B8DEDD9
:101C9800087B9FED3F7B8DED107B9FED3F7B4FF4E5
:101CA80080278DED047BFFF7DFBB41EC100B50461E
:101CB80000F086F851EC100BA5E6DDE906010022DC
:101CC8000023FFF761F8003818BF0120D8E7DDE9E5
:101CD800060100220023FFF757F8003818BF01203B
:101CE800B9F1000FBFF6F2AACAE79FED230BFFF781
:101CF8006FBADDE906010023FFF746F8003818BF80
:101D08000120B9F1000FBBDCFFF7E0BA9AB10EF081
:101D1800010ECEF1020BFFF74EBB214A93423FF46E
:101D280088AAB9F1804F3FF4D6AA0EF0010ECEF181
:101D3800020BFFF79DBAB9F1804F3FF4CCAA4FF0E0
:101D4800020BFFF795BA1B15A3F2FE334FF480126E
:101D580042FA03F37AE500BF000000604715F73F39
:101D680044DF5DF80BAE543E555555555555D53F96
:101D7800FE822B654715F73F0000000000000000B9
:101D8800000000000000F03F0000004003B8E23F00
:101D980006D0CF43EBFD4C3E000000000000F83FAA
:101DA8000000F03F0000D03F0000E03F51EC100B76
:101DB800024621F0004343EC102B7047000000005E
:101DC80070B555EC104BC5F30A5206462B4672BB4C
:101DD80025F00043234329D03B4B204629460022C7
:101DE800FEF760FD394B9E4204460D4652DBC1F3B7
:101DF8000A520B46363A4CF250318E4223DC1644D6
:101E080040F2FE7296421EDC002E34DC16F1350FCD
:101E180038DB6FF31E53363643EA065520462C4B03
:101E280029460022FEF73EFD41EC100B70BD40F242
:101E3800FF718A42DFD1224620462946FEF77CFB05
:101E480041EC100B70BD002D17A1D1E9000107DB93
:101E580015A3D3E90023FEF725FD41EC100B70BD57
:101E680013A1D1E9000110A3D3E90023FEF71AFD5D
:101E780041EC100BF3E76FF31E5343EA065545ECAC
:101E8800104B70BD002D0CA1D1E9000102DA0CA1A4
:101E9800D1E9000108A3D3E90023FEF703FD41ECD3
:101EA800100B70BDAFF300809C7500883CE4377E52
:101EB8009C7500883CE437FE59F3F8C21F6EA501F3
:101EC80059F3F8C21F6EA58100005043B03CFFFFD4
:101ED8000000903C0000000010B52DED028BB0EE24
:101EE800408AF0EE608A0446FEF7D6FFB0EE480A54
:101EF800F0EE680ABDEC028B046010BD00B5034625
:101F080083B051EC100B7BB1024601F10043CDE9DF
:101F18000023DDE90023FEF7C5FC41EC100B22206D
:101F280003B05DF804EBD7E702460B46EFE700BFC6
:101F38009FED010BE2E700BF000000000000001069
:101F48009FED010BDAE700BF000000000000581EFB
:101F58009FED010BD2E700BF0000000000000070F9
:101F680000B5002283B078B1084BCDE90023DDE944
:101F7800000100220023FEF7BFFD41EC100B2220D8
:101F880003B05DF804EBA7E7014BEEE70000F0BFF4
:101F98000000F03F38B555EC104B2DED028B224672
:101FA8002B4620462946FEF7C5FA02460B46FEF7A1
:101FB800A3FD224641EC180B2B462046294600F08B
:101FC8004BF8B0EE480AF0EE680A28B9BDEC028B6F
:101FD8002120BDE838407FE7BDEC028B38BD00BF4B
:101FE80008B551EC100B2DED028BB0EE408AF0EEE7
:101FF800608A00220023FEF7BDFEB0EE480AF0EE2C
:10200800680A10B9BDEC028B08BDBDEC028B22201A
:10201800BDE8084060E700BFF8B555EC104B25F067
:1020280000470C4B4FF0FF322046394600F014F8B9
:1020380038B9084B204639464FF0FF32FEF7AEFE5E
:1020480010B145EC104BF8BD45EC104B2220BDE813
:10205800F84041E7FFFFEF7F4FEA410C7FEA6C5CF5
:1020680002D150EA013C0AD14FEA430C7FEA6C5C8A
:1020780002D152EA033C02D14FF0000070474FF002
:102088000100704710B5054C237833B9044B13B1E0
:102098000448AFF300800123237010BDD001002055
:1020A80000000000D89E000808B5034B1BB1034987
:1020B8000348AFF3008008BD00000000D4010020F1
:1020C800D89E000880B584B000AF786087ED000A1C
:1020D8007B68D3ED107AF5EE407AF1EE10FA02D073
:1020E800786800F039F97B683A685A627B685A69FF
:1020F8007B689A617B681A697B685A617B6893ED93
:102108000A7A7B68D3ED097A77EE677A7B68C3ED44
:10211800047A7B681B78002B5DD17B6893ED047A89
:102128007B68D3ED057A77EE677AC7ED037A7B682B
:1021380093ED077A7B68D3ED026A7B68D3ED047A66
:1021480066EEA77A77EE277A7B68C3ED077A7B6815
:1021580093ED077A7B68D3ED087AB4EEE77AF1EE6F
:1021680010FA04DD7B681A6A7B68DA6114E07B6820
:1021780093ED077A7B68D3ED087AF1EE677AB4EECF
:10218800E77AF1EE10FA07D57B68D3ED087AF1EE1D
:10219800677A7B68C3ED077A7B6893ED017A7B6881
:1021A800D3ED047A27EE277A7B68D3ED077A37EEEA
:1021B800277A7B68D3ED036AD7ED037A66EEA77AB0
:1021C80037EE277A7B68D3ED0F7A77EE277A7B682C
:1021D800C3ED0C7A3DE07B681B78012B39D17B6815
:1021E80093ED0C7A7B68D3ED016A7B6893ED046A02
:1021F8007B68D3ED057A76EE677A66EEA76A7B6828
:1022080093ED036A7B68D3ED045A7B68D3ED057AB6
:1022180077EEA77A75EEE75A7B68D3ED067A75EE06
:10222800A77A66EE277A76EEA76A7B6893ED026A4C
:102238007B68D3ED047A66EE277A76EEA76A7B6828
:10224800D3ED0F7A76EEA77A77EE277A7B68C3ED1F
:102258000C7A7B689A6A7B68DA627B6893ED0C7A01
:102268007B68D3ED0D7AB4EEE77AF1EE10FA04DD6F
:102278007B685A6B7B681A6310E07B6893ED0C7A75
:102288007B68D3ED0E7AB4EEE77AF1EE10FA00D45B
:1022980004E07B689A6B7B681A6300BF1037BD4601
:1022A80080BD80B48BB000AFF8610B4687ED050A9E
:1022B800C7ED040A87ED031AC7ED021A87ED012A54
:1022C800C7ED002AFB76FB69FA7E1A70FB697A690A
:1022D8005A60FB693A699A60FB69FA68DA60FB69D7
:1022E800BA681A62FB697A685A63FB693A689A6342
:1022F800FB694FF00002DA61FB694FF000021A63D4
:10230800FB694FF000025A62FB694FF000029A62C3
:10231800FB694FF00002DA62FB694FF00002DA63F2
:10232800FB694FF000021A6400237B620AE0FA6935
:102338007B6A04339B0013444FF000021A607B6AE7
:1023480001337B627B6A022BF1DD00BF2C37BD466F
:102358005DF8047B7047000080B485B000AF7860FA
:102368004FF00003FB607B6893ED0B7A7B68D3ED3D
:102378000A7A77EE677AF5EEC07AF1EE10FA08DDA0
:102388007B6893ED0B7A7B68D3ED0A7A77EE677AF0
:1023980009E07B6893ED0B7A7B68D3ED0A7A77EED8
:1023A800677AF1EE677A7B6893ED107AF4EEC77A74
:1023B800F1EE10FA33D97B6893ED0B7A7B68D3ED95
:1023C8000A7A77EE677AF5EEC07AF1EE10FA02DD56
:1023D800164BFB6013E07B6893ED0B7A7B68D3EDBB
:1023E8000A7A77EE677AF5EEC07AF1EE10FA03D53D
:1023F8004FF07E53FB6002E04FF00003FB607B6808
:1024080093ED0B7A7B68D3ED106AD7ED037A66EE0D
:10241800A77A77EE277A7B68C3ED0A7A00E000BFD7
:102428001437BD465DF8047B704700BF000080BFCD
:1024380080B500AF00BF7F21144803F051FB03466D
:10244800002BF8D100BF7F21114803F049FB034658
:10245800002BF8D110220F490C4802F03DFC0C2249
:102468000D490B4802F038FC0C4800F01DF80C48E8
:1024780000F01AF81820FEF7FFFC03461A46094B2D
:102488001A60084B1B68184680BD00BF98040020DE
:1024980004050020EC0100200C0200202802002086
:1024A800F80200202402002080B483B000AF7860D6
:1024B8007B6800221A607B684FF00002C3F8CC20CA
:1024C8004FF0000307EE903AB0EE670A0C37BD46AE
:1024D8005DF8047B704780B483B000AF786000BFBC
:1024E8000C37BD465DF8047B7047000080B500AF2F
:1024F8009FED251ADFED250A9FED250A254800F0F6
:1025080025FAFFF795FF0346234A1360DFED202ADB
:10251800B0EE002AF6EE001A9FED1D1ADFED1C0A38
:102528009FED1E0A00211E48FFF7BBFEDFED182AAB
:102538009FED1C2AF6EE001A9FED151ADFED140A1E
:102548009FED160A00211848FFF7ABFE4FF48031C3
:10255800164806F0BEF94FF40011144806F0B9F910
:102568004FF48001114806F0B4F94FF480210F4868
:1025780006F0AFF90E4806F077FE0E4B1B68084AC6
:10258800936200BF80BD00BF00409C4600004842E7
:102598000000000054040020500400200AD7233C07
:1025A800C80300209A99993F0C040020CC0700200A
:1025B800140900205000002080B487B000AF87EDD8
:1025C800010AD7ED017AB6EE007A67EE877AC7ED91
:1025D800057A7B683B6107F110031B68FB60FB68A9
:1025E8005A10124B9B1AFB6007F10C031B683B61E6
:1025F80097ED047AD7ED057A27EE277AD7ED047A96
:1026080067EE277AB7EE087A37EE677AD7ED047A5D
:1026180067EE277AC7ED047A3B6907EE903AB0EE89
:10262800670A1C37BD465DF8047B7047DF59375F82
:1026380080B582B000AF3C4B1B6893ED007A3A4BF3
:102648001B68D3ED027A37EE277A374B1B68D3ED38
:10265800017A77EE277A17EE900AFEF7CBF8024652
:102668000B469FED2F1B43EC102BFEF71DFC53EC84
:10267800102B10461946FEF7AFFB03467B602A4B2A
:102688001B6893ED007A284B1B68D3ED017A27EE7F
:10269800277A254B1B68D3ED006A234B1B68D3EDC3
:1026A800027A66EEA77A37EE277A1F4B1B68D3EDBE
:1026B800016A1D4B1B68D3ED027A66EEA77A77EEA6
:1026C800277A97ED017A77EE277AC7ED017AD7ED69
:1026D800017A9FED167A67EE877AC7ED017A4FF097
:1026E80000033B60F7EE006AD7ED017A86EEA77A21
:1026F800B0EE470AFFF760FF87ED000A97ED000A82
:102708000B48FFF7DFFC0B4B0B4A9A61094800F0B6
:10271800F1FC00BF0837BD4680BD00BFAFF30080A5
:102728000000000000000040500400202A8EE33E14
:10273800C803002054040020CDCC4C3E80B400AF28
:102748003F4BD3ED087A9FED3F7A67EE877A9FED8E
:102758003D7A77EE677A3C4B1B68FCEEE77A17EE1A
:10276800902AC3F89C22364BD3ED087A9FED357A30
:1027780067EE877A9FED337A77EE877A324B1B685C
:10278800FCEEE77A17EE902AC3F8A8222C4BD3ED7B
:10279800097A9FED2C7A67EE877A9FED2A7A77EE91
:1027A800677A294B1B68FCEEE77A17EE902AC3F884
:1027B8001C23234BD3ED097A9FED227A67EE877AA3
:1027C8009FED207A77EE877A1F4B1B68FCEEE77A3D
:1027D80017EE902AC3F82823194BD3ED0A7A9FEDF8
:1027E800197A67EE877A9FED177A77EE677A164B34
:1027F8001B68FCEEE77A17EE902AC3F81C21104BF1
:10280800D3ED0A7A9FED0F7A67EE877A9FED0D7AFE
:1028180077EE877A0C4B1B68FCEEE77A17EE902A66
:10282800C3F82821094BD3E90023501C43F10001C8
:10283800064BC3E9000100BFBD465DF8047B704745
:102848005404002000D08446CC07002080040020D7
:1028580080B500AF1D4B1B88B3F5FA6F18D91C4B18
:102868001B78002B14D0194B00221A80184B002219
:102878001A704FF44071174805F0D1FF4FF44061CA
:10288800144805F0CCFF0C21124805F0C8FF17E0EA
:102898000F4B1B78002B13D00C4B1B8801339AB2BB
:1028A8000A4B1A804FF440710A4805F0E5FF4FF4CF
:1028B8004061084805F0E0FF0C21064805F0DCFF00
:1028C800FFF7B6FEFFF73AFF00BF80BD880400207F
:1028D80054000020CC07002080B582B000AF78609B
:1028E8007B68164A934202D1FFF7B2FF22E07B6869
:1028F800134A93421ED1134B1B78012B0BD14FF473
:102908000051114804F08CFB0346002B12D10D4BEB
:1029180000221A700EE00B4B1B78002B0AD14FF4E3
:102928000051094804F07CFB0346012B02D1054BFA
:1029380001221A7000BF0837BD4680BD1409002067
:10294800C80800208A0400200008004880B485B028
:1029580000AFF86087ED020AC7ED010A87ED001A9B
:10296800FB687A681A60FB683A685A60D7ED017AA2
:102978009FED087A67EE876A97ED007AC6EE877A48
:10298800FB68C3ED027A00BF1437BD465DF8047BCF
:10299800704700BFDB0FC94080B52DED028B82B0B8
:1029A80000AF78607B6893ED057A7B68D3ED027A97
:1029B80077EE277A7B68C3ED057A7B68D3ED057AD5
:1029C8009FED1C7AF4EEC77AF1EE10FA09DB7B680A
:1029D800D3ED057A9FED177A77EEC77A7B68C3ED5A
:1029E800057A7B6893ED068A7B68D3ED057AB0EEAD
:1029F800670A07F023FAF0EE407A68EE277A7B68D8
:102A0800C3ED037A7B6893ED068A7B68D3ED057A7C
:102A1800B0EE670A07F0CCF9F0EE407A68EE277A54
:102A28007B68C3ED047A00BF0837BD46BDEC028B56
:102A380080BD00BFDB0FC940B0B584B000AF78607F
:102A48007B68D3ED047AF5EEC07AF1EE10FACCBFCC
:102A580001230023DBB2FB737B68DB681846FDF7B4
:102A6800C9FE49A3D3E90023FDF71CFF02460B4624
:102A780014461D467B681B691846FDF7BBFE0246D7
:102A88000B4620462946FDF755FD02460B461046E3
:102A9800194601231C464FF000024FF00003FEF7D1
:102AA80091F90346002B01D100231C46E3B2BB7306
:102AB8007B68DB681846FDF79DFE35A3D3E9002344
:102AC800FDF7F0FE02460B4614461D467B681B695F
:102AD8001846FDF78FFE02460B4620462946FDF7AD
:102AE80029FD02460B461046194601231C464FF0A5
:102AF80000024FF00003FEF765F90346002B01D1F1
:102B080000231C46E3B27B737B7B5B00DAB2BB7BA2
:102B18001344DBB25B00DAB2FB7B13443B733B7BB1
:102B2800013B052B26D801A252F823F04D2B0008B3
:102B3800552B00085D2B0008652B00086D2B00083D
:102B4800752B00087B6802221A7717E07B6806223B
:102B58001A7713E07B6801221A770FE07B6804225A
:102B68001A770BE07B6803221A7707E07B68052257
:102B78001A7703E07B6801221A7700BF00BF10377D
:102B8800BD46B0BDAFF30080AA4C58E87AB6FB3F0B
:102B9800AA4C58E87AB6FBBFB0B586B000AF7860EB
:102BA8007B681B691846FDF725FE0FF21843D3E929
:102BB8000023FDF777FE02460B4610461946FEF73E
:102BC8000BF903467B617B68D3ED037AB0EE087A94
:102BD80067EE877A17EE900AFDF70CFE04460D465D
:102BE8007B681B691846FDF705FEF6A3D3E90023A9
:102BF800FDF758FE02460B4620462946FDF79CFC89
:102C080002460B46104619464FF000024FF080432B
:102C1800FDF772FF02460B4610461946FEF7DCF830
:102C280003463B617B68D3ED037AB8EE087A67EE1A
:102C3800877A17EE900AFDF7DDFD04460D467B689E
:102C48001B691846FDF7D6FDDEA3D3E90023FDF77F
:102C580029FE02460B4620462946FDF76DFC024632
:102C68000B46104619464FF000024FF08043FDF71F
:102C780043FF02460B4610461946FEF7ADF80346D9
:102C8800FB607B681B7F013B052B51D801A252F8E2
:102C980023F000BFB52C0008CB2C0008D92C000865
:102CA800EF2C0008052D0008232D0008D7ED037A26
:102CB800F1EE677AC04BC3ED007AC04A7B691360B6
:102CC80041E0BD4A3B691360BC4AFB6813603AE0C7
:102CD800B94A7B691360D7ED047AF1EE677AB74B8E
:102CE800C3ED007A2FE0B44AFB681360D7ED057A8C
:102CF800F1EE677AB14BC3ED007A24E0D7ED047AA0
:102D0800F1EE677AAC4BC3ED007AD7ED037AF1EEBA
:102D1800677AAA4BC3ED007A15E0D7ED057AF1EE94
:102D2800677AA54BC3ED007AA44A3B6913600AE0B1
:102D3800D7ED037AF1EE677A9F4BC3ED007A9F4A8D
:102D48007B69136000BF9C4B93ED007A9B4BD3EDDE
:102D5800007A77EE277AB7EE007A77EE677A984BA3
:102D6800C3ED007A7B681B7F013B052B00F22E81A7
:102D780001A252F823F000BF992D0008F52D000894
:102D8800512E0008AD2E0008092F0008652F0008F5
:102D9800894B93ED007A894BD3ED007A37EE277A89
:102DA800874BD3ED006AB0EE006AC6EE867A77EEFE
:102DB800277A7B68C3ED087A814BD3ED007AF0EE71
:102DC800006A87EEA67A7D4BD3ED007A77EE277AF4
:102DD8007B68C3ED097A7A4B93ED007AF0EE006ACE
:102DE800C7EE267A7B68C3ED0A7A1DE1744BD3EDF2
:102DF800007AF0EE006A87EEA67A6F4BD3ED007A80
:102E080077EE277A7B68C3ED087A6B4B93ED007AEF
:102E18006A4BD3ED007A37EE277A694BD3ED006A17
:102E2800B0EE006AC6EE867A77EE277A7B68C3ED45
:102E3800097A634B93ED007AF0EE006AC7EE267AC2
:102E48007B68C3ED0A7AEFE05D4B93ED007AF0EE14
:102E5800006AC7EE267A7B68C3ED087A564B93ED75
:102E6800007A564BD3ED007A37EE277A544BD3EDE0
:102E7800006AB0EE006AC6EE867A77EE277A7B683B
:102E8800C3ED097A4E4BD3ED007AF0EE006A87EE77
:102E9800A67A4A4BD3ED007A77EE277A7B68C3EDA2
:102EA8000A7AC1E0464B93ED007AF0EE006AC7EE6D
:102EB800267A7B68C3ED087A414BD3ED007AF0EEB1
:102EC800006A87EEA67A3C4BD3ED007A77EE277A34
:102ED8007B68C3ED097A384B93ED007A374BD3ED15
:102EE800007A37EE277A364BD3ED006AB0EE006AE7
:102EF800C6EE867A77EE277A7B68C3ED0A7A93E086
:102F08002F4BD3ED007AF0EE006A87EEA67A2B4BB2
:102F1800D3ED007A77EE277A7B68C3ED087A284BE1
:102F280093ED007AF0EE006AC7EE267A7B68C3ED6F
:102F3800097A214B93ED007A204BD3ED007A37EED6
:102F4800277A1F4BD3ED006AB0EE006AC6EE867A88
:102F580077EE277A7B68C3ED0A7A65E0164B93ED26
:102F6800007A164BD3ED007A37EE277A144BD3ED5F
:102F7800006AB0EE006AC6EE867A77EE277A7B683A
:102F8800C3ED087A0E4B93ED007AF0EE006AC7EEB7
:102F9800267A7B68C3ED097A094BD3ED007AF0EE07
:102FA800006A87EEA67A044BD3ED007A77EE277A8B
:102FB8007B68C3ED0A7A37E08C0400209004002077
:102FC80094040020AA4C58E87AB6FB3F424B93ED94
:102FD800007A424BD3ED007A37EE277A404BD3ED97
:102FE800006AB0EE006AC6EE867A77EE277A7B68CA
:102FF800C3ED087A3A4BD3ED007AF0EE006A87EE1B
:10300800A67A364BD3ED007A77EE277A7B68C3ED44
:10301800097A334B93ED007AF0EE006AC7EE267A10
:103028007B68C3ED0A7A00BF7B68D3ED087A9FED11
:103038002D7AF4EEC77AF1EE10FA01DD2A4B0DE095
:103048007B68D3ED087A9FED297AF4EEC77AF1EE22
:1030580010FA01D5264B01E07B681B6A7A68136277
:103068007B68D3ED097A9FED1F7AF4EEC77AF1EE0B
:1030780010FA01DD1C4B0DE07B68D3ED097A9FED5A
:103088001B7AF4EEC77AF1EE10FA01D5184B01E07D
:103098007B685B6A7A6853627B68D3ED0A7A9FED36
:1030A800117AF4EEC77AF1EE10FA01DD0E4B0DE05D
:1030B8007B68D3ED0A7A9FED0D7AF4EEC77AF1EECC
:1030C80010FA01D50A4B01E07B689B6A7A68936223
:1030D80000BF1837BD46B0BD8C0400209004002006
:1030E800940400203333733F3333733FCDCC4C3DCE
:1030F800CDCC4C3D80B582B000AF78607868FFF7E2
:103108004BFC7868FFF798FC7868FFF745FD00BF2F
:103118000837BD4680BD80B500AF02F04BFE00F019
:1031280016F800F063F800F043FD00F0DBF800F05B
:1031380081FD01F0C9F800F06DF900F005FA00F022
:103148008BFA01F073F8FFF7D1F900BFFDE780B5FE
:1031580094B000AF07F11803382200211846FDF794
:1031680037F83B1D00221A605A609A60DA601A61CB
:10317800002004F0F7F90123BB614FF48033FB61B1
:1031880002237B630323BB630223FB6355233B6456
:1031980002237B640223BB640223FB6407F1180348
:1031A800184602F077FE0346002B01D000F018F80D
:1031B8000F237B600323BB600023FB6000233B617C
:1031C80000237B613B1D0421184603F075F9034673
:1031D800002B01D000F004F800BF5037BD4680BD79
:1031E80080B400AF72B600BF00BFFDE780B58AB0FB
:1031F80000AF07F1140300221A605A609A60DA607F
:103208001A61354BDB6C344A43F00403D364324B08
:10321800DB6C03F004033B613B692F4BDB6C2E4AEC
:1032280043F02003D3642C4BDB6C03F02003FB60DA
:10323800FB68294BDB6C284A43F00103D364264B17
:10324800DB6C03F00103BB60BB68234BDB6C224AD9
:1032580043F00203D364204BDB6C03F002037B6072
:103268007B6800224FF400414FF0904003F0F0FEDD
:1032780000228021194803F0EBFE4FF400537B61D4
:103288000023BB610223FB6107F1140319461448AC
:1032980003F044FD4FF400437B611123BB6100231D
:1032A800FB6101233B6207F1140319464FF090407C
:1032B80003F034FD80237B611123BB610023FB6194
:1032C80001233B6207F114031946044803F026FD65
:1032D80000BF2837BD4680BD0010024000040048EA
:1032E8000008004880B588B000AF3B462022002186
:1032F8001846FCF76DFF414B414A1A603F4B4FF4AB
:1033080040325A603D4B00229A603C4B0022DA6002
:103318003A4B00221A61394B01225A61374B042279
:103328009A61364B00221A77344B01225A77334B75
:1033380004221A62314B002283F824202F4B4FF4C9
:10334800D462DA622D4B4FF480621A632B4B012250
:1033580083F83820294B4FF48052DA63274B002238
:1033680083F84020254801F0FBFA0346002B01D0E2
:10337800FFF736FF234B3B6006237B600523BB60CA
:103388007F23FB6004233B6100237B613B46194696
:103398001A4801F089FD0346002B01D0FFF720FFF2
:1033A800194B3B600C237B603B461946134801F0E0
:1033B8007BFD0346002B01D0FFF712FF134B3B6048
:1033C80012237B603B4619460C4801F06DFD03460D
:1033D800002B01D0FFF704FF0D4B3B6018237B60E7
:1033E8003B461946054801F05FFD0346002B01D016
:1033F800FFF7F6FE00BF2037BD4680BD98040020C9
:10340800000100501000C0102000F0140008302EF9
:103418000010603280B58CB000AF07F124030022A1
:103428001A605A609A603B1D202200211846FCF75A
:10343800CFFE404B404A1A603E4B4FF440325A6030
:103448003C4B00229A603B4B0022DA60394B002249
:103458001A61384B01225A61364B04229A61354B66
:1034680000221A77334B01225A77324B03221A6211
:10347800304B002283F824202E4B4FF4D462DA62BA
:103488002C4B4FF480621A632A4B012283F83820B0
:10349800284B0022DA63274B002283F84020254876
:1034A80001F05EFA0346002B01D0FFF799FE0023D6
:1034B8007B6207F1240319461E4802F073FB03469A
:1034C800002B01D0FFF78CFE1C4B7B600623BB60F2
:1034D8000523FB607F233B6104237B610023BB61E1
:1034E8003B1D1946134801F0DFFC0346002B01D0B1
:1034F800FFF776FE124B7B600C23BB603B1D194621
:103508000C4801F0D1FC0346002B01D0FFF768FE00
:103518000C4B7B601223BB603B1D1946054801F02C
:10352800C3FC0346002B01D0FFF75AFE00BF30371B
:10353800BD4680BD04050020000400500200300490
:103548002000F0140010603280B588B000AF3B4610
:10355800202200211846FCF73BFE3A4B3A4A1A60F3
:10356800384B4FF440325A60364B00229A60354B44
:103578000022DA60334B00221A61324B01225A6171
:10358800304B04229A612F4B00221A772D4B0122CF
:103598005A772C4B03221A622A4B002283F82420E4
:1035A800284B4FF4D462DA62264B4FF480621A63D8
:1035B800244B012283F83820224B0022DA63214B66
:1035C800002283F840201F4801F0CAF90346002B67
:1035D80001D0FFF705FE1D4B3B6006237B600223ED
:1035E800BB607F23FB6004233B6100237B613B4678
:1035F8001946144801F058FC0346002B01D0FFF788
:10360800EFFD134B3B600C237B603B4619460D488E
:1036180001F04AFC0346002B01D0FFF7E1FD0D4BFA
:103628003B6012237B603B461946064801F03CFC90
:103638000346002B01D0FFF7D3FD00BF2037BD465E
:1036480080BD00BF70050020000500500800900CE8
:103658001000C0102000F01480B588B000AF3B46C1
:10366800202200211846FCF7B3FD334B334A1A6079
:10367800314B4FF440325A602F4B00229A602E4B48
:103688000022DA602C4B00221A612B4B01225A616E
:10369800294B04229A61284B00221A77264B0022D4
:1036A8005A77254B02221A62234B002283F82420E2
:1036B800214B4FF4D462DA621F4B4FF480621A63D5
:1036C8001D4B002283F838201B4B0022DA631A4B6B
:1036D800002283F84020184801F042F90346002BE5
:1036E80001D0FFF77DFD164B3B6006237B6002236C
:1036F800BB607F23FB6004233B6100237B613B4667
:1037080019460D4801F0D0FB0346002B01D0FFF706
:1037180067FD0C4B3B600C237B603B461946064813
:1037280001F0C2FB0346002B01D0FFF759FD00BF93
:103738002037BD4680BD00BFDC05002000060050D4
:10374800020030040400600880B5A6B000AF7860BD
:1037580007F1840300221A605A609A60DA601A61DD
:1037680007F13003542200211846FCF731FD7B682D
:103778001B68884A934240F09A804FF400433B63A9
:103788004FF000537B6707F13003184603F078F8D1
:103798000346002B01D0FFF723FD7F4BDB6C7E4AED
:1037A80043F40053D3647C4BDB6C03F40053FB629B
:1037B800FB6A794BDB6C784A43F00103D364764BA0
:1037C800DB6C03F00103BB62BB6A734BDB6C724AB0
:1037D80043F00403D364704BDB6C03F004037B6297
:1037E8007B6A6D4BDB6C6C4A43F00203D3646A4B13
:1037F800DB6C03F002033B623B6A8023C7F884302A
:103808000323C7F888300023C7F88C3007F18403F6
:1038180019464FF0904003F081FA3023C7F88430FE
:103828000323C7F888300023C7F88C3007F18403D6
:1038380019465A4803F072FA0423C7F88430032360
:10384800C7F888300023C7F88C3007F1840319467D
:10385800534803F063FA534B534A1A60514B2422DE
:103868005A60504B00229A604E4B0022DA604D4B52
:1038780080221A614B4B4FF480725A61494B4FF4C6
:1038880080629A61474B2022DA61464B00221A6215
:10389800444803F0F5FB0346002B01D0FFF7A0FCDA
:1038A8007B68404A5A653F4A7B6893626AE17B6855
:1038B8001B683E4A934240F081804FF480333B635B
:1038C8004FF00043BB6707F13003184602F0D8FFFA
:1038D8000346002B01D0FFF783FC354B1B680133EF
:1038E800334A1360324B1B68012B0BD12A4BDB6C1C
:1038F800294A43F48043D364274BDB6C03F48043A9
:10390800FB61FB69244BDB6C234A43F00203D3645D
:10391800214BDB6C03F00203BB61BB6942F203037A
:10392800C7F884300323C7F888300023C7F88C30E1
:1039380007F1840319461A4803F0F0F91D4B1E4A93
:103948001A601C4B25225A601A4B00229A60194BA8
:103958000022DA60174B80221A61164B4FF48072EE
:103968005A61144B4FF480629A61124B2022DA613B
:10397800104B00221A620F4803F082FB0346002B0B
:1039880001D0FFF72DFC7B680A4A5A65094A7B6813
:103998009362F7E000010050001002400008004860
:1039A80000040048480600201C00024000040050A3
:1039B800C8070020A8060020300002407B681B686A
:1039C800724A93426CD14FF480333B634FF000430B
:1039D800BB6707F13003184602F052FF0346002B7D
:1039E80001D0FFF7FDFB6A4B1B680133684A13607F
:1039F800674B1B68012B0BD1664BDB6C654A43F4A4
:103A08008043D364634BDB6C03F480437B617B6945
:103A1800604BDB6C5F4A43F00203D3645D4BDB6CA5
:103A280003F002033B613B694FF45043C7F884300D
:103A38000323C7F888300023C7F88C3007F18403C4
:103A48001946554803F06AF9544B554A1A60534BC6
:103A580026225A60514B00229A60504B0022DA60AD
:103A68004E4B80221A614D4B4FF480725A614B4B7A
:103A78004FF480629A61494B2022DA61474B002259
:103A88001A62464803F0FCFA0346002B01D0FFF700
:103A9800A7FB7B68414A5A65404A7B68936271E09C
:103AA8007B681B683F4A93426CD14FF480333B6379
:103AB8004FF00043BB6707F13003184602F0E0FE01
:103AC8000346002B01D0FFF78BFB314B1B680133FA
:103AD8002F4A13602E4B1B68012B0BD12D4BDB6C2F
:103AE8002C4A43F48043D3642A4BDB6C03F48043B1
:103AF800FB60FB68274BDB6C264A43F00103D36469
:103B0800244BDB6C03F00103BB60BB684FF44073CC
:103B1800C7F884300323C7F888300023C7F88C30EF
:103B280007F1840319464FF0904003F0F7F81E4B55
:103B38001E4A1A601C4B27225A601B4B00229A60AF
:103B4800194B0022DA60184B80221A61164B4FF489
:103B580080725A61144B4FF480629A61124B202292
:103B6800DA61114B00221A620F4803F089FA034602
:103B7800002B01D0FFF734FB7B680B4A5A650A4AD1
:103B88007B68936200BF9837BD4680BD0005005032
:103B9800C807002000100240000400480807002061
:103BA8004400024000060050680700205800024008
:103BB80080B582B000AF1E4B9B6C1D4A43F00403D6
:103BC80093641B4B9B6C03F004037B607B68184B6E
:103BD8009B6C174A43F001039364154B9B6C03F0ED
:103BE80001033B603B68002200210C2003F049FEE2
:103BF8000C2003F060FE002200210D2003F041FE9E
:103C08000D2003F058FE002200210E2003F039FE9B
:103C18000E2003F050FE002200210F2003F031FE99
:103C28000F2003F048FE00BF0837BD4680BD00BF27
:103C38000010024080B5BAB000AF07F1E0030022DF
:103C48001A605A6007F1D00300221A605A609A601D
:103C5800DA6007F17003602200211846FCF7B8FA11
:103C680007F1640300221A605A609A6007F148035A
:103C780000221A605A609A60DA601A615A619A6181
:103C880007F12403242200211846FCF7A1FA3B1D62
:103C9800202200211846FCF79BFACB4BCB4A1A602E
:103CA800C94B00225A60C84B00229A60C64803F0EC
:103CB8001DFE0346002B01D0FFF792FA0C21C248E3
:103CC80003F0E4FE0346002B01D0FFF789FA0A212E
:103CD800BD4803F033FF0346002B01D0FFF780FAFD
:103CE8004FF40033C7F8E0301023C7F8E43007F189
:103CF800E0031A460121B44803F07CFF0346002B79
:103D080001D0FFF76DFA00220121AF4804F05EF9F7
:103D18000346002B01D0FFF763FA48F2D043C7F8F7
:103D2800D0300023C7F8D4300323C7F8D83008238D
:103D3800C7F8DC3007F1D0031A460621A24803F081
:103D480031FF0346002B01D0FFF74AFA00233B67F7
:103D580000237B670023BB670023FB670123C7F8A9
:103D680080300023C7F884300023C7F88830002348
:103D7800C7F88C300023C7F890300023C7F8943078
:103D88004FF00063C7F898300023C7F89C30002331
:103D9800C7F8A0304FF00053C7F8A4300023C7F885
:103DA800CC3007F170031A460621874804F058FA08
:103DB8000346002B01D0FFF713FA4FF6FB737B661F
:103DC80007F16403012206217F4804F089FB0346BA
:103DD800002B01D0FFF704FA07F164030222062141
:103DE800794804F07DFB0346002B01D0FFF7F8F972
:103DF80007F1640304220621734804F071FB0346AB
:103E0800002B01D0FFF7ECF907F164030822062123
:103E18006D4804F065FB0346002B01D0FFF7E0F97D
:103E280007F1D0031A460121674803F0BBFE034699
:103E3800002B01D0FFF7D4F90023BB6400233B65B6
:103E480000237B6500233B6607F148031A460121DE
:103E58005D4804F092FA0346002B01D0FFF7C0F941
:103E680000233B6700237B670023C7F8A8300023A3
:103E7800C7F8AC300023C7F8B0304FF48073C7F8E8
:103E8800B4300023C7F8B8300023C7F8C030102377
:103E9800C7F8C4300023C7F8C83007F170031A46C2
:103EA8000121494804F0DCF90346002B01D0FFF753
:103EB80097F90023C7F8B83007F170031A460421B0
:103EC800414804F0CDF90346002B01D0FFF788F9EB
:103ED8000023C7F8B83007F170031A4605213A489D
:103EE80004F0BEF90346002B01D0FFF779F9062349
:103EF8007B6607F1640301220121334804F0F0FADC
:103F08000346002B01D0FFF76BF907F16403042285
:103F180001212D4804F0E4FA0346002B01D0FFF7F5
:103F28005FF900237B62B423BB620023FB6200239A
:103F38003B6300237B63B423BB630023FB63002341
:103F48003B6400237B6407F124031A4601211E48C1
:103F580004F046FA0346002B01D0FFF741F907F1B8
:103F680024031A460421184804F03AFA0346002BA1
:103F780001D0FFF735F907F124031A460521124845
:103F880004F02EFA0346002B01D0FFF729F900238D
:103F98007B600823BB602023FB6000233B61002378
:103FA8007B610023BB610023FB6100233B623B1D57
:103FB80004220121044804F001FC0346002B07D029
:103FC800FFF70EF904E000BFCC07002000680140AD
:103FD8003B1D4FF480720421504804F0EFFB034668
:103FE800002B01D0FFF7FCF83B1D4FF48062052140
:103FF8004A4804F0E3FB0346002B01D0FFF7F0F832
:104008000023BB600023FB603B1D082201214348BD
:1040180004F0D4FB0346002B01D0FFF7E1F83B1D69
:104028004FF4007204213D4804F0C8FB0346002BFE
:1040380001D0FFF7D5F83B1D4FF400620521374842
:1040480004F0BCFB0346002B01D0FFF7C9F807F1C9
:10405800D0031A460421314803F0A4FD0346002B7F
:1040680001D0FFF7BDF807F148031A4604212B4891
:1040780004F083F90346002B01D0FFF7B1F807F1EC
:10408800640301220421254804F02AFA0346002B80
:1040980001D0FFF7A5F807F16403042204211F48A3
:1040A80004F01EFA0346002B01D0FFF799F807F138
:1040B800D0031A460521194803F074FD0346002B66
:1040C80001D0FFF78DF807F148031A460521134878
:1040D80004F053F90346002B01D0FFF781F807F1EC
:1040E8006403012205210D4804F0FAF90346002B68
:1040F80001D0FFF775F807F164030422052107488A
:1041080004F0EEF90346002B01D0FFF769F80348E5
:1041180000F026F800BFE837BD4680BDCC07002078
:1041280080B485B000AF78607B681B680A4A934208
:104138000BD10A4B1B6E094A43F080631366074B89
:104148001B6E03F08063FB60FB6800BF1437BD463D
:104158005DF8047B704700BF006801400010024012
:1041680080B58AB000AF786007F1140300221A60A6
:104178005A609A60DA601A617B681B68284A934221
:104188004AD1284BDB6C274A43F00403D364254B00
:10419800DB6C03F004033B613B69224BDB6C214A77
:1041A80043F00103D3641F4BDB6C03F00103FB6096
:1041B800FB68C0237B610223BB610023FB610323EF
:1041C8003B620D237B6207F114031946164802F07F
:1041D800A5FD4FF440737B610223BB610023FB61A3
:1041E80003233B6203237B6207F1140319460E483D
:1041F80002F094FD4FF440637B610223BB6100230E
:10420800FB6103233B620D237B6207F1140319460C
:104218004FF0904002F082FD00BF2837BD4680BDB8
:1042280000680140001002400008004880B588B0CE
:1042380000AF07F1100300221A605A609A60DA6032
:104248003B1D00221A605A609A601D4B1D4A1A6075
:104258001B4BAA225A601A4B00229A60184B42F252
:104268001072DA60164B00221A61154B00229A610F
:10427800134804F0A1FF0346002B01D0FEF7B0FF5E
:104288004FF480533B6107F1100319460C4805F0C1
:10429800B3F90346002B01D0FEF7A2FF00237B6091
:1042A8000023FB603B1D1946054805F033FC034617
:1042B800002B01D0FEF794FF00BF2037BD4680BD1C
:1042C800C8080020000C004080B584B000AF3B1D3A
:1042D80000221A605A609A60144B154A1A60134BF0
:1042E80000225A60114B00229A60104B42F233129E
:1042F800DA600E4B00229A610C4804F05DFF034619
:10430800002B01D0FEF76CFF00237B600023FB60CD
:104318003B1D1946054805F0FDFB0346002B01D05F
:10432800FEF75EFF00BF1037BD4680BD14090020B0
:104338000010004080B584B000AF78607B681B68CF
:104348001A4A934214D11A4B9B6D194A43F0080339
:104358009365174B9B6D03F00803FB60FB68002215
:104368000021322003F08DFA322003F0A4FA18E07D
:104378007B681B680F4A934213D10D4B9B6D0C4A07
:1043880043F0100393650A4B9B6D03F01003BB6069
:10439800BB6800220021362003F073FA362003F0B0
:1043A8008AFA00BF1037BD4680BD00BF000C004030
:1043B800001002400010004080B400AF00BFFDE7CD
:1043C80080B400AF00BFFDE780B400AF00BFFDE7D9
:1043D80080B400AF00BFFDE780B400AF00BFFDE7C9
:1043E80080B400AF00BFBD465DF8047B704780B461
:1043F80000AF00BFBD465DF8047B704780B400AFD6
:1044080000BFBD465DF8047B704780B500AF01F082
:1044180023FD00BF80BD000080B500AF024802F058
:1044280052FF00BF80BD00BF4806002080B500AF26
:10443800024802F048FF00BF80BD00BFA806002068
:1044480080B500AF024802F03EFF00BF80BD00BF4C
:104458000807002080B500AF024802F034FF00BF13
:1044680080BD00BF6807002080B500AF024804F097
:1044780073FF00BF80BD00BFC808002080B500AF33
:10448800024804F069FF00BF80BD00BF1409002086
:1044980080B582B000AF0F4B1B6E0E4A43F001038C
:1044A80013660C4B1B6E03F001037B607B68094BA2
:1044B8009B6D084A43F080539365064B9B6D03F050
:1044C80080533B603B6803F0F1F800BF0837BD46F6
:1044D80080BD00BF0010024080B483B000AF786098
:1044E80039607B689B6823F47C123B681A437B68BD
:1044F8009A6000BF0C37BD465DF8047B704780B4F6
:1045080083B000AF786039607B689B6823F0E07205
:104518003B681A437B689A6000BF0C37BD465DF85C
:10452800047B704780B483B000AF78607B689B6879
:1045380003F0E07318460C37BD465DF8047B7047FE
:1045480080B487B000AFF860B9607A603B60FB6800
:1045580060331A46BB689B0013447B617B691A6809
:10456800084B13407A6802F0F8413A680A4313434B
:1045780043F000427B691A6000BF1C37BD465DF8F6
:10458800047B704700F0FF0380B485B000AF78600B
:1045980039607B6860331A463B689B001344FB60B4
:1045A800FB681B6803F0F84318461437BD465DF8EE
:1045B800047B704780B487B000AFF860B9607A6058
:1045C800FB6860331A46BB689B0013447B617B69B8
:1045D8001B6823F000427B681A437B691A6000BF9E
:1045E8001C37BD465DF8047B704780B487B000AFC8
:1045F800F860B9607A60FB6860331A46BB689B0054
:1046080013447B617B691B6823F080727B681A43C3
:104618007B691A6000BF1C37BD465DF8047B704794
:1046280080B487B000AFF860B9607A60FB68603327
:104638001A46BB689B0013447B617B691B6823F0A7
:1046480000727B681A437B691A6000BF1C37BD463D
:104658005DF8047B704780B483B000AF7860396040
:104668007B685B6923F000423B681A437B685A61A8
:1046780000BF0C37BD465DF8047B704780B483B03B
:1046880000AF78607B68DB6803F44063002B01D1DE
:10469800012300E0002318460C37BD465DF8047B73
:1046A800704780B487B000AFF860B9607A60FB6883
:1046B80030331A46BB681B0A9B0003F00C031344F3
:1046C8007B617B691A68BB6803F01F031F2101FA2D
:1046D80003F3DB431A407B689B0E03F01F01BB68A2
:1046E80003F01F0301FA03F31A437B691A6000BF42
:1046F8001C37BD465DF8047B704780B487B000AFB7
:10470800F860B9607A60FB6814331A46BB685B0EC0
:104718009B0003F0040313447B617B691A68BB6840
:104728001B0D03F01F03072101FA03F3DB431A40B3
:10473800BB681B0D03F01F03796801FA03F31A43E2
:104748007B691A6000BF1C37BD465DF8047B704763
:1047580080B485B000AFF860B9607A60FB68D3F8C0
:10476800B020BB68C3F31203DB431A407B6803F035
:1047780018030849D940BB680B40C3F312031A4316
:10478800FB68C3F8B02000BF1437BD465DF8047B52
:10479800704700BFFFFF070080B483B000AF7860A8
:1047A8007B689B6803F01F0318460C37BD465DF80D
:1047B800047B704780B483B000AF78607B689B68E7
:1047C80023F0204323F03F037A68936000BF0C373F
:1047D800BD465DF8047B704780B483B000AF786055
:1047E8007B689B6803F00053B3F1005F01D101239C
:1047F80000E0002318460C37BD465DF8047B70477F
:1048080080B483B000AF78607B689B6823F0104366
:1048180023F03F0343F080527B689A6000BF0C3757
:10482800BD465DF8047B704780B483B000AF786004
:104838007B689B6803F08053B3F1805F01D101234B
:1048480000E0002318460C37BD465DF8047B70472E
:1048580080B483B000AF78607B689B6823F0004326
:1048680023F03F0343F001027B689A6000BF0C37D6
:10487800BD465DF8047B704780B483B000AF7860B4
:104888007B689B6823F0004323F03F0343F0020258
:104898007B689A6000BF0C37BD465DF8047B7047A3
:1048A80080B483B000AF78607B689B6803F0010335
:1048B800012B01D1012300E0002318460C37BD4627
:1048C8005DF8047B704780B483B000AF78607B6884
:1048D8009B6803F00203022B01D1012300E00023AF
:1048E80018460C37BD465DF8047B704780B483B02A
:1048F80000AF78607B689B6823F0004323F03F0398
:1049080043F004027B689A6000BF0C37BD465DF82F
:10491800047B704780B483B000AF78607B689B6885
:1049280003F00403042B01D1012300E000231846FF
:104938000C37BD465DF8047B704780B483B000AF88
:1049480078607B689B6803F00803082B01D101237A
:1049580000E0002318460C37BD465DF8047B70471D
:1049680090B589B000AF78600023FB770023FB6027
:104978007B68002B01D10123A9E17B685B69002BCF
:104988007B68DB6D002B09D17868FEF7DDFE7B685C
:1049980000221A667B68002283F858207B681B680F
:1049A8001846FFF719FF0346002B04D07B681B68E5
:1049B8001846FFF7FFFE7B681B681846FFF734FFB1
:1049C8000346002B15D17B681B681846FFF718FFB4
:1049D8009C4B1B689B099C4AA2FB03239B09013340
:1049E8005B00FB6002E0FB68013BFB60FB68002B9F
:1049F800F9D17B681B681846FFF716FF0346002BA2
:104A08000DD17B68DB6D43F010027B68DA657B684B
:104A18001B6E43F001027B681A660123FB777B68F3
:104A28001B681846FFF776FF78617B68DB6D03F03B
:104A38001003002B40F042817B69002B40F03E813F
:104A48007B68DB6D23F4817343F002027B68DA65CF
:104A58007B681B681846FFF723FF0346002B41D1EC
:104A68007B681B68B3F1A04F04D07B681B68774A4A
:104A780093420FD14FF0A040FFF712FF044673484E
:104A8800FFF70EFF03462343002B0CBF012300232F
:104A9800DBB212E06E48FFF703FF04466D48FFF7EC
:104AA800FFFE03461C436C48FFF7FAFE0346234308
:104AB800002B0CBF01230023DBB2002B12D07B6834
:104AC8001B68B3F1A04F04D07B681B685F4A934210
:104AD80001D1624A00E0624A7B685B681946104669
:104AE800FFF7FAFC7B685B7F5A037B68DB6B1A4332
:104AF8007B68DB681A437B689B681A437B6893F87A
:104B080024301B041343BB617B6893F82430012BCA
:104B180006D17B689B6A013B5B04BA691343BB619E
:104B28007B68DB6A002B09D07B68DB6A03F4787248
:104B38007B681B6B1343BA691343BB617B681B68B3
:104B4800DA68484B13407A681268B9690B43D36036
:104B58007B681B681B6923F040617B685A6B7B6824
:104B68001B680A431A617B681B681846FFF7E5FE55
:104B780038617B69002B7FD13B69002B7CD17B6836
:104B88001B7F9A037B6893F838305B001343BB6143
:104B98007B681B68DB6823F4804323F002037A6890
:104BA8001268B9690B43D3607B681B69002B17D067
:104BB8007B681B681A697B681B6842F480321A613B
:104BC8007B681B68D3F8C03023F47F5323F03F037E
:104BD8007A6811697A6812680B43C2F8C03013E02A
:104BE8007B681B681A697B681B6822F480321A612B
:104BF8007B681B68D3F8C0307A68126823F47F5347
:104C080023F03F03C2F8C0307B6893F84030012B93
:104C18002AD17B681B681B6923F4FF6323F0040314
:104C28007A68516C7A68926C11437A68D26C114335
:104C38007A68126D0A431A437B681B6842F00102C6
:104C48001A6119E060000020632D3E050001005044
:104C580000040050000500500006005000030050FA
:104C6800000700500740F0FF7B681B681A697B68E3
:104C78001B6822F001021A617B685B69012B0CD169
:104C88007B681B681B6B23F00F017B681B6A5A1E2D
:104C98007B681B680A431A6307E07B681B681A6B0A
:104CA8007B681B6822F00F021A637B68DB6D23F0B8
:104CB800030343F001027B68DA6507E07B68DB6D7C
:104CC80043F010027B68DA650123FB77FB7F184607
:104CD8002437BD4690BD00BF80B586B000AFF860F0
:104CE800B9607A60FB681B68B3F1A04F04D0FB6819
:104CF8001B685A4A934201D1594B00E0594B184658
:104D0800FFF74AFD3861FB681B681846FFF702FE8B
:104D18000346002B40F09B80FB6893F85830012B2A
:104D280001D1022396E0FB68012283F85820FB6832
:104D38001B684D4A934208D03B69002B05D03B695C
:104D4800052B02D03B69092B7AD1F86800F0ECFCFE
:104D58000346FB75FB7D002B6DD1FB68DB6D23F4EF
:104D6800706323F0010343F48072FB68DA65FB6823
:104D78001B683A4A934209D0FB681B683B4A934236
:104D880002D0FB681B6803E0394B01E04FF0A043F9
:104D9800FA681268934202D03B69002B05D1FB6880
:104DA800DB6D23F48012FB68DA65FB68DB6D03F4C6
:104DB8008053002B06D0FB681B6E23F00602FB68AD
:104DC8001A6602E0FB6800221A66FB685B6D294AD6
:104DD800DA62FB685B6D284A1A63FB685B6D274AD9
:104DE8005A63FB681B681C221A60FB68002283F860
:104DF8005820FB681B685A68FB681B6842F0100261
:104E08005A60FB681B68DA68FB681B6842F001029D
:104E1800DA60FB68586DFB681B6840331946BA684E
:104E28007B6802F0D5F90346FB75FB681B681846DA
:104E3800FFF75CFD0DE0FB68002283F8582008E0CE
:104E48000123FB75FB68002283F8582001E0022348
:104E5800FB75FB7D18461837BD4680BD0001005024
:104E680000030050000700500006005000050050E5
:104E7800000400501B590008F35900080F5A000895
:104E880080B483B000AF786000BF0C37BD465DF8D2
:104E9800047B704780B483B000AF786000BF0C37E4
:104EA800BD465DF8047B704780B5B6B000AF78604A
:104EB8003960002387F8D7300023FB607B6893F8BC
:104EC8005830012B02D1022300F013BC7B68012269
:104ED80083F858207B681B681846FFF71BFD0346BC
:104EE800002B40F0F3837B6818683B6859683B687F
:104EF8001B681A46FFF7D5FB7B681B681846FFF747
:104F080009FDC7F8D0007B681B681846FFF715FD38
:104F1800C7F8CC00D7F8D030002B40F0D981D7F8AB
:104F2800CC30002B40F0D4813B689B68B3F1004F34
:104F38000FD17B6818683B681B6800221946FFF789
:104F4800DCFB7B681B684FF000411846FFF783FBCA
:104F58000EE07B6818683B6819683B689B681A46CE
:104F6800FFF7CBFB7B681B6800211846FFF773FB34
:104F78003B685A697B681B68DB68DB0803F003033E
:104F88005B0002FA03F3C7F8C8303B681B69042BBF
:104F980022D07B6818683B6819693B681A68D7F89B
:104FA800C830FFF7CDFA7B6818683B6819693B6819
:104FB8009B691A46FFF719FB7B6818683B681969F3
:104FC8003B681B7F012B02D14FF0007300E00023E8
:104FD8001A46FFF725FB7BE17B681B680021184612
:104FE800FFF7D2FA0346C3F31203002B0AD17B68FA
:104FF8001B6800211846FFF7C7FA03469B0E03F00B
:105008001F021EE07B681B6800211846FFF7BCFAE8
:105018000346C7F8BC30D7F8BC3093FAA3F3C7F8F7
:10502800C030D7F8C030C7F8B830D7F8B830002B40
:1050380001D1202304E0D7F8B830B3FA83F3DBB208
:105048001A463B681B68C3F31203002B05D13B6863
:105058001B689B0E03F01F0318E03B681B68C7F82A
:10506800B030D7F8B03093FAA3F3C7F8AC30D7F81C
:10507800AC30C7F8B430D7F8B430002B01D12023B6
:1050880004E0D7F8B430B3FA83F3DBB29A4206D11E
:105098007B681B68002200211846FFF78BFA7B68A3
:1050A8001B6801211846FFF76FFA0346C3F3120382
:1050B800002B0AD17B681B6801211846FFF764FAA8
:1050C80003469B0E03F01F021EE07B681B6801214C
:1050D8001846FFF759FA0346C7F8A430D7F8A430A2
:1050E80093FAA3F3C7F8A030D7F8A030C7F8A830D0
:1050F800D7F8A830002B01D1202304E0D7F8A83036
:10510800B3FA83F3DBB21A463B681B68C3F3120396
:10511800002B05D13B681B689B0E03F01F0318E0AA
:105128003B681B68C7F89830D7F8983093FAA3F310
:10513800C7F89430D7F89430C7F89C30D7F89C302B
:10514800002B01D1202304E0D7F89C30B3FA83F375
:10515800DBB29A4206D17B681B68002201211846FF
:10516800FFF728FA7B681B6802211846FFF70CFA3C
:105178000346C3F31203002B0AD17B681B68022184
:105188001846FFF701FA03469B0E03F01F021EE0C4
:105198007B681B6802211846FFF7F6F90346C7F833
:1051A8008C30D7F88C3093FAA3F3C7F88830D7F847
:1051B8008830C7F89030D7F89030002B01D12023E1
:1051C80004E0D7F89030B3FA83F3DBB21A463B68B1
:1051D8001B68C3F31203002B05D13B681B689B0EA9
:1051E80003F01F0316E03B681B68C7F88030D7F848
:1051F800803093FAA3F3FB67FB6FC7F88430D7F8C6
:105208008430002B01D1202304E0D7F88430B3FA8E
:1052180083F3DBB29A4206D17B681B680022022125
:105228001846FFF7C7F97B681B6803211846FFF784
:10523800ABF90346C3F31203002B0AD17B681B6842
:1052480003211846FFF7A0F903469B0E03F01F023F
:1052580017E07B681B6803211846FFF795F903469A
:105268007B677B6F93FAA3F33B673B6FBB67BB6FAF
:10527800002B01D1202303E0BB6FB3FA83F3DBB229
:105288001A463B681B68C3F31203002B05D13B6821
:105298001B689B0E03F01F0311E03B681B68BB668D
:1052A800BB6E93FAA3F37B667B6EFB66FB6E002BEB
:1052B80001D1202303E0FB6EB3FA83F3DBB29A42F9
:1052C80006D17B681B68002203211846FFF772F994
:1052D8007B681B681846FFF7E3FA0346002B40F08B
:1052E8003D817B6818683B6819683B68DB681A462B
:1052F800FFF72EFA3B68DB68A24A934240F02E8102
:105308007B6818683B681B68C3F31203002B0BD13A
:105318003B681B689B0E013303F01F03092B94BFE6
:1053280001230023DBB219E03B681B68FB65FB6DBA
:1053380093FAA3F3BB65BB6D3B663B6E002B01D1B3
:10534800202303E03B6EB3FA83F3DBB2013303F0AF
:105358001F03092B94BF01230023DBB2002B79D054
:105368003B681B68C3F31203002B07D13B681B681B
:105378009B0E01339B0603F0F84215E03B681B685F
:105388003B653B6D93FAA3F3FB64FB6C7B657B6D1C
:10539800002B01D1202303E07B6DB3FA83F3DBB24A
:1053A80001339B0603F0F8423B681B68C3F3120302
:1053B800002B09D13B681B689B0E013303F01F03C8
:1053C800012101FA03F317E03B681B687B647B6CDF
:1053D80093FAA3F33B643B6CBB64BB6C002B01D119
:1053E800202303E0BB6CB3FA83F3DBB2013303F091
:1053F8001F03012101FA03F342EA03013B681B681A
:10540800C3F31203002B0AD13B681B689B0E0133C0
:1054180003F01F0213465B0013441B0518E03B68AA
:105428001B68BB63BB6B93FAA3F37B637B6BFB6368
:10543800FB6B002B01D1202303E0FB6BB3FA83F352
:10544800DBB2013303F01F0213465B0013441B0554
:105458000B437EE03B681B68C3F31203002B07D1A4
:105468003B681B689B0E01339B0603F0F84215E06E
:105478003B681B68FB62FB6A93FAA3F3BB62BB6AD7
:105488003B633B6B002B01D1202303E03B6BB3FA5A
:1054980083F3DBB201339B0603F0F8423B681B68D9
:1054A800C3F31203002B09D13B681B689B0E013321
:1054B80003F01F03012101FA03F317E03B681B689F
:1054C8003B623B6A93FAA3F3FB61FB697B627B6AED
:1054D800002B01D1202303E07B6AB3FA83F3DBB20C
:1054E800013303F01F03012101FA03F342EA030128
:1054F8003B681B68C3F31203002B0DD13B681B6884
:105508009B0E013303F01F0213465B0013441E3B3E
:105518001B0543F000731BE03B681B687B617B69DC
:1055280093FAA3F33B613B69BB61BB69002B01D1D3
:10553800202303E0BB69B3FA83F3DBB2013303F042
:105548001F0213465B0013441E3B1B0543F0007308
:105558000B433A6892681946FFF7CFF83B681A6818
:10556800094B1340002B00F0BE807B681B68B3F129
:10557800A04F04D07B681B68044A93420AD1044BAD
:1055880009E000BF00007F400000088000010050D3
:1055980000030050594B1846FEF7C4FFC7F8C40073
:1055A8003B681B68564A934204D03B681B68554ABF
:1055B80093423AD1D7F8C43003F40003002B34D116
:1055C8007B681B68B3F1A04F05D07B681B684E4A07
:1055D800934240F085807B681B68B3F1A04F04D0EC
:1055E8007B681B68494A934201D1494A00E0434A13
:1055F800D7F8C43043F4000319461046FEF77FFF7E
:10560800444B1B689B09444AA2FB03239B095A1C71
:1056180013465B0013449B00FB6002E0FB68013B00
:10562800FB60FB68002BF9D15AE03B681B683B4ADA
:10563800934225D1D7F8C43003F08073002B1FD1D3
:105648007B681B68314A934204D17B681B68344AE3
:10565800934247D07B681B68B3F1A04F04D07B68A6
:105668001B682A4A934201D1294A00E0234AD7F805
:10567800C43043F0807319461046FEF740FF31E00E
:105688003B681B68274A93422DD1D7F8C43003F4EE
:105698008003002B27D17B681B681C4A934222D0C9
:1056A8007B681B68B3F1A04F04D07B681B68174A5E
:1056B800934201D1164A00E0104AD7F8C43043F4A7
:1056C800800319461046FEF71AFF0CE07B68DB6D75
:1056D80043F020027B68DA65012387F8D73002E0BF
:1056E80000BF00E000BF7B68002283F8582097F8CD
:1056F800D7301846D837BD4680BD00BF00070050D8
:10570800000021C31000C0900006005000010050A6
:105718000003005060000020632D3E05000052C7C2
:1057280000050050000084CB80B584B000AF7860DD
:105738000023BB607B681B681846FFF7B1F8034677
:10574800002B76D17B681B689A683C4B1340002B72
:105758000DD07B68DB6D43F010027B68DA657B68EF
:105768001B6E43F001027B681A66012362E07B68C6
:105778001B681846FFF76CF87B681B68B3F1A04FED
:1057880004D07B681B682E4A934201D12D4B00E060
:105798002D4B1846FEF7C6FE034603F40003002B04
:1057A80013D02A4B1B689B09294AA2FB03239B0998
:1057B8005A1C13465B0013449B00BB6002E0BB68A5
:1057C800013BBB60BB68002BF9D100F057FBF860C8
:1057D80028E07B681B681846FFF762F80346002B31
:1057E80004D17B681B681846FFF732F800F046FBC7
:1057F8000246FB68D31A022B14D97B681B681B6806
:1058080003F00103012B0DD07B68DB6D43F0100220
:105818007B68DA657B681B6E43F001027B681A6659
:10582800012307E07B681B681B6803F00103012B59
:10583800CFD1002318461037BD4680BD3F000080F9
:1058480000010050000300500007005060000020D5
:10585800632D3E0580B584B000AF78607B681B6817
:105868001846FFF730F8F8607B681B681846FFF7A2
:1058780017F80346002B47D0FB68002B44D17B6800
:105888001B689B6803F00D03012B0CD17B681B6818
:105898001846FEF7F1FF7B681B6803221A6000F0C8
:1058A800EDFAB86029E07B68DB6D43F010027B6895
:1058B800DA657B681B6E43F001027B681A66012378
:1058C80023E000F0DBFA0246BB68D31A022B14D996
:1058D8007B681B689B6803F00103002B0DD07B6875
:1058E800DB6D43F010027B68DA657B681B6E43F062
:1058F80001027B681A66012307E07B681B689B68C6
:1059080003F00103002BDCD1002318461037BD46F5
:1059180080BD80B584B000AF78607B689B6AFB600F
:10592800FB68DB6D03F05003002B4BD1FB68DB6D8C
:1059380043F40072FB68DA65FB681B681B6803F0B8
:105948000803002B21D0FB681B681846FEF796FE5B
:105958000346002B32D0FB681B68DB6803F4005356
:10596800002B2BD1FB68DB6D23F48072FB68DA65B2
:10597800FB68DB6D03F48053002B1FD1FB68DB6DE4
:1059880043F00102FB68DA6518E0FB681B68DB6816
:1059980003F00203002B11D1FB68DB6D23F4807246
:1059A800FB68DA65FB68DB6D03F48053002B05D1D7
:1059B800FB68DB6D43F00102FB68DA65F868FCF709
:1059C8008AFD0EE0FB68DB6D03F01003002B03D0AB
:1059D800F868FFF75FFA04E0FB685B6D5B6B78685B
:1059E800984700BF1037BD4680BD80B584B000AF72
:1059F80078607B689B6AFB60F868FFF741FA00BF34
:105A08001037BD4680BD80B584B000AF78607B6834
:105A18009B6AFB60FB68DB6D43F04002FB68DA655C
:105A2800FB681B6E43F00402FB681A66F868FFF710
:105A380031FA00BF1037BD4680BD80B483B000AFD7
:105A480078607B689B6803F00103012B01D1012377
:105A580000E0002318460C37BD465DF8047B70470C
:105A680080B483B000AF786039607B689B6823F0AE
:105A7800404323F03F033A6802F08042134343F067
:105A880000427B689A6000BF0C37BD465DF8047B16
:105A9800704780B483B000AF78607B689B6803F080
:105AA8000043B3F1004F01D1012300E00023184661
:105AB8000C37BD465DF8047B704780B483B000AFF7
:105AC80078607B689B6803F00403042B01D10123F1
