:020000040800F2
:1000000000000220E1CA00084D47000855470008DB
:100010005D470008654700086D47000800000000C4
:10002000000000000000000000000000754700080C
:100030008347000800000000914700089F47000820
:1000400031CB000831CB000831CB000831CB0008A0
:1000500031CB000831CB000831CB000831CB000890
:1000600031CB000831CB000831CB0008AD47000888
:1000700031CB000831CB0008C147000831CB000864
:1000800031CB000831CB000831CB000831CB000860
:1000900031CB000831CB000831CB000831CB000850
:1000A00031CB000831CB000831CB000831CB000840
:1000B00031CB000831CB000831CB000831CB000830
:1000C00031CB000831CB000831CB000831CB000820
:1000D00031CB000831CB0008D547000831CB0008F0
:1000E000E947000831CB000831CB000831CB0008CC
:1000F00031CB000831CB000831CB000831CB0008F0
:1001000031CB0008114800082548000831CB000811
:1001100031CB000831CB00083948000831CB00084A
:1001200031CB000831CB000831CB000831CB0008BF
:1001300031CB000831CB000831CB000831CB0008AF
:1001400031CB000831CB000831CB000831CB00089F
:1001500031CB000831CB000831CB000831CB00088F
:1001600031CB000831CB000831CB000831CB00087F
:1001700031CB000831CB000831CB000831CB00086F
:1001800031CB000831CB000831CB000831CB00085F
:1001900031CB0008000000005548000869480008FD
:1001A00031CB000831CB000831CB000831CB00083F
:1001B00031CB000831CB000831CB000831CB00082F
:1001C00031CB000831CB000831CB000831CB00081F
:0801D00031CB000831CB00081F
:1001D80010B5054C237833B9044B13B10448AFF379
:1001E80000800123237010BD64030020000000007C
:1001F8003CCD000808B5034B1BB103490348AFF3D6
:10020800008008BD00000000680300203CCD000805
:1002180053B94AB9002908BF00281CBF4FF0FF3165
:100228004FF0FF3000F088B9ADF1080C6DE904CE4D
:1002380000F006F8DDF804E0DDE9022304B07047B9
:100248002DE9F047089D0F4604468C46002B48D1FF
:100258008A42164661D9B2FA82F34BB1C3F1200241
:1002680001FA03FC20FA02F29E4042EA0C0C9C4080
:100278004FEA164EB7B2BCFBFEF1220C0EFB11CCB6
:1002880042EA0C4201FB07F0904209D9B21801F189
:10029800FF3C80F0EE80904240F2EB80023932441D
:1002A800121AA4B2B2FBFEF00EFB102244EA02447A
:1002B80000FB07F7A74209D9341900F1FF3280F093
:1002C800DA80A74240F2D7803444023840EA01403D
:1002D800E41B00211DB1DC400023C5E90043BDE853
:1002E800F0878B4206D90DB1C5E900010021084607
:1002F800BDE8F087B3FA83F1002948D1BB4202D3A5
:10030800824200F20781841A67EB030201209446B7
:10031800002DE4D0C5E9004CE1E7002A00F0928006
:10032800B2FA82F3002B40F0A8808A1A4FEA164EE0
:100338001FFA86FC0121200CB2FBFEF70EFB1722E8
:1003480040EA02420CFB07F0904207D9B21807F1C5
:10035800FF3802D2904200F2E2804746121AA4B255
:10036800B2FBFEF00EFB102244EA02440CFB00FC38
:10037800A44507D9341900F1FF3202D2A44500F28E
:10038800CB801046A4EB0C0440EA0740A2E7C1F179
:1003980020068B4022FA06FC4CEA030C07FA01F40B
:1003A80020FA06F3F7404FEA1C49234300FA01F804
:1003B8001FFA8CFEB7FBF9F01C0C09FB107744EA16
:1003C800074400FB0EF7A74202FA01F20AD91CEB18
:1003D800040400F1FF3A80F09B80A74240F2988025
:1003E80002386444E41B9FB2B4FBF9F309FB1344DD
:1003F80047EA044403FB0EFEA64509D91CEB040496
:1004080003F1FF3780F08280A6457FD9023B644420
:1004180043EA0040A4EB0E04A0FB02E7BC4273468B
:10042800B94663D360D05DB1B8EB030264EB09044D
:1004380004FA06F622FA01F31E43CC40C5E900642B
:1004480000214CE76208480842EAC1710B0C43EAF4
:1004580000438AB242EA0342B3FBF6F1E407B4462A
:100468003746B6461F23B0FBF6F0D21B41EA0041DF
:1004780061E7614614E7104628E7C3F1200120FA36
:1004880001F29E4027FA01F19F403A434FEA164E87
:100498001FFA86FCB1FBFEF70EFB1710110C41EAA0
:1004A800004107FB0CF8884504FA03F43AD971189F
:1004B80007F1FF3001D288451FD8A1EB0801B1FB35
:1004C800FEF808FB0CF70EFB181192B242EA014243
:1004D800BA422FD2B21808F1FF31C6D2BA42C4D2FA
:1004E800A8F102013244C0E7F0459CD2BEEB0203FA
:1004F80067EB0C070138B94695E7A6EB08084144B5
:10050800B81EB1FBFEF808FB0CF7DCE73B467FE7BB
:10051800504667E70846FBE63444023832E7023FB4
:1005280032441BE7A1EB08013846B1FBFEF808FB93
:100538000CF7C8E7414698E7704700BF80B483B01E
:1005480000AF87ED010AD7ED017AF5EEC07AF1EE3A
:1005580010FA02DDD7ED017A03E0D7ED017AF1EE6A
:10056800677AB0EE670A0C37BD465DF8047B7047C2
:1005780080B584B000AF786087ED000A7B68D3ED62
:10058800107AF5EE407AF1EE10FA02D0786800F0B1
:100598003FF97B683A685A627B685A697B689A6156
:1005A8007B681A697B685A617B6893ED0A7A7B6875
:1005B800D3ED097A77EE677A7B68C3ED047A7B68B6
:1005C8001B78002B5DD17B6893ED047A7B68D3EDB3
:1005D800057A77EE677AC7ED037A7B6893ED077A39
:1005E8007B68D3ED026A7B68D3ED047A66EEA77A5E
:1005F80077EE277A7B68C3ED077A7B6893ED077AF5
:100608007B68D3ED087AB4EEE77AF1EE10FA04DDF0
:100618007B681A6A7B68DA6114E07B6893ED077A75
:100628007B68D3ED087AF1EE677AB4EEE77AF1EEFB
:1006380010FA07D57B68D3ED087AF1EE677A7B6804
:10064800C3ED077A7B6893ED017A7B68D3ED047A72
:1006580027EE277A7B68D3ED077A37EE277A7B680F
:10066800D3ED036AD7ED037A66EEA77A37EE277AD9
:100678007B68D3ED0F7A77EE277A7B68C3ED0C7A27
:100688003DE07B681B78012B39D17B6893ED0C7AB0
:100698007B68D3ED016A7B6893ED046A7B68D3EDD0
:1006A800057A76EE677A66EEA76A7B6893ED036A49
:1006B8007B68D3ED045A7B68D3ED057A77EEA77A89
:1006C80075EEE75A7B68D3ED067A75EEA77A66EE83
:1006D800277A76EEA76A7B6893ED026A7B68D3ED8A
:1006E800047A66EE277A76EEA76A7B68D3ED0F7AEE
:1006F80076EEA77A77EE277A7B68C3ED0C7A7B686B
:100708009A6A7B68DA627B6893ED0C7A7B68D3ED32
:100718000D7AB4EEE77AF1EE10FA04DD7B685A6BD5
:100728007B681A630FE07B6893ED0C7A7B68D3EDE6
:100738000E7AB4EEE77AF1EE10FA00D403E07B68A3
:100748009A6B7B681A6300BF1037BD4680BD80B4C2
:100758008DB000AFF8610B4687ED050AC7ED040AB6
:1007680087ED031AC7ED021A87ED012AC7ED002AA3
:10077800FB76FB69FA7E1A70FB697A695A60FB6935
:100788003A699A60FB69FA68DA60FB69BA681A62C2
:10079800FB697A685A63FB693A689A63FB694FF0A8
:1007A8000002DA61FB694FF000021A63FB694FF03F
:1007B80000025A62FB694FF000029A62FB694FF02F
:1007C8000002DA62FB694FF00002DA63FB694FF05E
:1007D80000021A64FB691033BB62BB6AFB62BB6A26
:1007E8000C337B6208E0FB6A3B623B6A4FF0000215
:1007F8001A60FB6A0433FB62FA6A7B6A9A42F2D196
:1008080000BF00BF3437BD465DF8047B7047000069
:1008180080B584B000AF78604FF00003FB607B6860
:1008280093ED0B7A7B68D3ED0A7A77EE677AB0EEB0
:10083800670AFFF783FEB0EE407A7B68D3ED107A43
:10084800B4EEE77AF1EE10FA94BF01230023DBB28D
:10085800002B2FD17B6893ED0B7A7B68D3ED0A7A56
:1008680077EE677AF5EEC07AF1EE10FA02DD134BF7
:10087800FB600FE07B6893ED0B7A7B68D3ED0A7A17
:1008880077EE677AF5EEC07AF1EE10FA02D54FF0FE
:100898007E53FB607B6893ED0B7A7B68D3ED106A1F
:1008A800D7ED037A66EEA77A77EE277A7B68C3EDF1
:1008B8000A7A00E000BF1037BD4680BD000080BF47
:1008C80080B487B000AF78607B684FF00002DA61CF
:1008D8007B684FF000021A637B6810333B613B6909
:1008E8007B613B690C33FB6008E07B69BB60BB68DC
:1008F8004FF000021A607B6904337B617A69FB68F8
:100908009A42F2D100BF00BF1C37BD465DF8047B98
:10091800704780B584B000AF78603960786800F0BF
:1009280083FA3B681A687B681A603B685A687B6878
:100938005A603B681A897B681A813B689A7A7B6897
:100948009A723B689A897B689A813B681A697B68C6
:100958001A613B681B7D082B02D83B681A7D00E0B2
:1009680008227B681A753B689A697B689A613B68BC
:10097800DA697B68DA613B6893F820207B6883F842
:1009880020203B6893F821207B6883F821203B686E
:100998005A6A7B685A620023FB7318E0FB7B7A680B
:1009A8000A339B0013444FF000021A60FB7B7A68FD
:1009B80012339B0013444FF000021A60FA7B7B68E5
:1009C8003432002123F81210FB7B0133FB73FB7BCD
:1009D800072BE3D900BF00BF1037BD4680BD80B5E7
:1009E80082B000AF78607B681B68002B01D10023C0
:1009F8000BE07B681B687F21184605F041FA034627
:100A0800002B0CBF01230023DBB218460837BD4674
:100A180080BD80B582B000AF7860786800F05AF980
:100A2800034683F00103DBB2002B01D000234CE026
:100A38007B6893F82030002B0AD07868FFF7CFFF47
:100A4800034683F00103DBB2002B01D0012300E051
:100A58000023002B01D0002337E0786800F090F9DC
:100A6800034683F00103DBB2002B01D000232CE006
:100A78007B6818687B6859687B681B891A4604F08C
:100A880021FB0346002B14BF01230023DBB2002BFC
:100A980004D0786800F0C8F9002316E07B6893F862
:100AA8002130002B10D07B681B685B6D002B0BD0AE
:100AB8007B681B685B6D1B681A687B681B685B6DCD
:100AC8001B6822F004021A60012318460837BD4645
:100AD80080BD80B588B000AF7860786800F027F9ED
:100AE800034683F00103DBB2002B01D000239CE016
:100AF8000023FB770023BB7790E07B681A69BB7FF4
:100B08001B0113443B613B691B78072B00F2828071
:100B18003B695A787B689B7A9A427BD20023BB61F7
:100B28000023FB820EE03B695A78FB8A19467868F5
:100B380000F09AF803461A46BB691344BB61FB8A66
:100B48000133FB827B689B89FA8A9A42EBD3BB69A3
:100B580007EE903AF8EE676A7B689B8907EE903A51
:100B6800B8EE677AC6EE877AC7ED037A3B691B78D9
:100B78001A46D7ED037AFCEEE77A17EE903A99B267
:100B88007B68343223F812103B691B7B012B14D18C
:100B98003B6993ED017AD7ED037A27EE277A3B6913
:100BA800D3ED027A3B691B7877EE277A7A680A33A5
:100BB8009B001344C3ED007A29E07B6893ED067A25
:100BC800D7ED037A67EE276A7B6893ED077AC6EE5E
:100BD800877AC7ED027A3B691B787A6812339B00E3
:100BE8001344BA681A603B6993ED017AD7ED027A2B
:100BF80027EE277A3B69D3ED027A3B691B7877EEBB
:100C0800277A7A680A339B001344C3ED007A0123DC
:100C1800FB7700E000BFBB7F0133BB777B681B7DA0
:100C2800BA7F9A42FFF469AFFB7F18462037BD466A
:100C380080BD80B483B000AF78600B46FB70FB7852
:100C4800072B06D8FB787A680A339B0013441B6885
:100C580001E04FF0000307EE903AB0EE670A0C3758
:100C6800BD465DF8047B704780B485B000AF7860FE
:100C78000B467B8013467B707B685B68002B09D032
:100C88007B689B7A7A789A4204D27B689B897A88B7
:100C98009A4201D3002317E07B689B7A1A467B8827
:100CA80013FB02F39AB27B789BB21344FB817B68F7
:100CB8001B89FA899A4206D27B685A68FB895B00CD
:100CC80013441B8800E0002318461437BD465DF81E
:100CD800047B704780B483B000AF78607B681B6882
:100CE800002B1DD07B685B68002B19D07B681B89A3
:100CF800002B15D07B689B7A002B11D07B689B89D1
:100D0800002B0DD07B681A897B689B7A19467B6813
:100D18009B8911FB03F39BB29A4201D3012300E0A4
:100D2800002318460C37BD465DF8047B704780B534
:100D380082B000AF78607868FFF7CCFF034683F095
:100D48000103DBB2002B0FD17B681B69002B0BD092
:100D58007B681B7D002B07D07B68D3ED077AF5EE07
:100D6800C07AF1EE10FA01D8012300E00023002B2D
:100D780001D0002300E0012318460837BD4680BD96
:100D880080B48BB000AF78607B681B68002B01D102
:100D980000233EE0224BFB61214B7B62214BBB6170
:100DA80019E07B6ABB60BB681B687A689A420AD004
:100DB800BB681B68002B0BD0BB681B681A687B6874
:100DC8001B689A4204D1BB687A681A60012320E044
:100DD8007B6A04337B627A6ABB699A42E1D1104B21
:100DE8007B610F4B3B620F4B3B610DE03B6AFB6045
:100DF800FB681B68002B04D1FB687A681A60012322
:100E080007E03B6A04333B623A6A3B699A42EDD198
:100E1800002318462C37BD465DF8047B704700BF99
:100E280080030020A003002080B487B000AF786062
:100E38000F4B3B610E4B7B610E4BFB600CE07B69FB
:100E4800BB60BB681B687A689A4202D1BB68002203
:100E58001A607B6904337B617A69FB689A42EED138
:100E680000BF00BF1C37BD465DF8047B704700BF5C
:100E780080030020A003002080B487B000AF0346A1
:100E8800FB710F4B3B610E4B7B610E4BFB600BE024
:100E98007B69BB60BB681B78FA799A4201D1BB6851
:100EA80007E07B6914337B617A69FB689A42EFD16A
:100EB800002318461C37BD465DF8047B704700BF09
:100EC800040000204000002080B483B000AF7860A8
:100ED80039607B681B8A002B01D100230BE07B68FB
:100EE8001B8A1A463B68934203D37B681B8A013BE3
:100EF80000E03B6800BF18460C37BD465DF8047B30
:100F08007047000080B586B000AF78607B6803F456
:100F18008033002B04D04FF48031124809F017F8C1
:100F2800114B3B61104B7B61104BFB6010E07B6900
:100F3800BB60BB685A687B681340002B05D0BB6850
:100F48005B681946074809F002F87B6914337B612E
:100F58007A69FB689A42EAD100BF00BF1837BD46DC
:100F680080BD00BFB40A002004000020400000201B
:100F780080B582B000AF78607B68002B03D07968B9
:100F8800034808F08AFF00BF0837BD4680BD00BF90
:100F9800B40A002080B582B000AF78607B68002B6F
:100FA80003D07968034808F0A5FF00BF0837BD469D
:100FB80080BD00BFB40A0020B0B586B000AF0346BC
:100FC800B9607A60FB73FB7B1846FFF755FF7861C1
:100FD8007B69002B01D1002371E07B699B68062B9C
:100FE8002CD1BB68012B08D1374B1C68796878690C
:100FF800FFF76AFF0346E36160E0BB68022B08D194
:10100800314B1C6879687869FFF75EFF03466362B5
:1010180054E0BB68042B08D12B4B1C6879687869AD
:10102800FFF752FF0346A36248E0274B1C68796824
:101038007869FFF749FF0346E3623FE0BB68012B8D
:101048000DD1214B1C687B699D6879687869FFF729
:101058003BFF0246EB0123449C331A602EE0BB6839
:10106800022B0DD1184B1C687B699D6879687869DB
:10107800FFF72AFF0246EB012344A4331A601DE060
:10108800BB68042B0DD1104B1C687B699D6879687F
:101098007869FFF719FF0246EB012344A8331A6069
:1010A8000CE0094B1C687B699D6879687869FFF7D3
:1010B8000BFF0246EB012344AC331A6001231846A8
:1010C8001837BD46B0BD00BFB40A002080B52DED6D
:1010D800028B86B000AF034687ED020A7960FB7386
:1010E800FB7B1846FFF7C8FE78617B69002B01D1AE
:1010F80000232AE07B691B8A07EE903AB8EE678ADC
:101108009FED151ADFED150A97ED020A00F067F852
:10111800F0EE407A68EE277AFCEEE77A17EE903A1E
:101128003B61FB7B002201211846FFF745FFFB7B53
:101138003A6904211846FFF73FFFFB7B7A680821CC
:101148001846FFF739FF034600BF18461837BD4653
:10115800BDEC028B80BD00BF3333733F000000003D
:1011680080B584B000AF0346FB71FB791846FFF7E2
:1011780083FEF860FB68002B02D0FB685B6800E028
:10118800002318461037BD4680BD80B584B000AF37
:101198000346FB71FB791846FFF76EFEF860FB68A3
:1011A800002B02D0FB68DB6800E0002318461037EC
:1011B800BD4680BD80B584B000AF0346FB71FB79A6
:1011C8001846FFF759FEF860FB68002B02D0FB6851
:1011D8001B8A00E0002318461037BD4680BD80B446
:1011E80085B000AF87ED030AC7ED020A87ED011A43
:1011F80097ED037AD7ED027AB4EEE77AF1EE10FABA
:1012080001D5BB680BE097ED037AD7ED017AB4EE10
:10121800E77AF1EE10FA01DD7B6800E0FB6807EE83
:10122800903AB0EE670A1437BD465DF8047B704704
:1012380080B582B000AF78607B689B68002B05D0D2
:101248007B689B6878687968032298477B681846AA
:101258000837BD4680BD80B483B000AF78607B6836
:101268009B68002B0CBF01230023DBB218460C3708
:10127800BD465DF8047B704780B483B000AF7860EA
:10128800044A7B681A607B6818460C37BD465DF8CF
:10129800047B7047A0CD000880B582B000AF7860AD
:1012A8007B681846FFF7C4FF7B6818460837BD46B9
:1012B80080BD000080B582B000AF78607B681846BA
:1012C800FFF7DAFF064A7B681A607B6850331846D6
:1012D80000F03DFA7B6818460837BD4680BD00BF60
:1012E80090CD000880B582B000AF78607B6800229E
:1012F8001A70786800F005F87B6818460837BD460C
:1013080080BD80B483B000AF78607B6800225A60EB
:101318007A687B689A607A687B68DA607B68002202
:101328001A6100BF0C37BD465DF8047B704780B476
:1013380083B000AF786039607B681A683B681B68C7
:101348009A4209D07B681A683B681B689A4234BF86
:1013580001230023DBB208E07B685A683B685B68BE
:101368009A4234BF01230023DBB218460C37BD462E
:101378005DF8047B704780B485B000AF78607B6807
:10138800FB607B6818461437BD465DF8047B7047E0
:1013980080B582B000AF78607B68184600F0EDF940
:1013A8007B6818460837BD4680BD80B582B000AF5F
:1013B80078607B681846FFF7EBFF7B6818460837AC
:1013C800BD4680BD80B483B000AF786039603B68AB
:1013D800082B03D83B68002B00D000E0FEE77B68B1
:1013E8003A689A6300BF0C37BD465DF8047B7047C6
:1013F8002DE9B04384B000AF786087ED000A7968C2
:10140800896A0968496C01F08001002914BF01212B
:101418000021C9B200290BD07B689B6A1B689A69B6
:101428007B689B6A1B6822F001029A6101236FE0C6
:101438003A49096801F0010100290CBF0121002186
:10144800C9B200290ED03649C968354841F08071C3
:10145800C160324900204860304909682F4841F08E
:1014680001010160D7ED007AFCEEE77A002117EE62
:10147800908A89462B49096800200A46034602FBE0
:1014880009F008FB03F10144A8FB02454B191D466E
:101498004FF47A724FF0000320462946FEF7B8FE53
:1014A80002460B461346FB601C4B5B68BB600DE0B5
:1014B8001A4B5A68BB68D31AFA689A4234BF012398
:1014C8000023DBB2002B01D0012321E07B689B6A5B
:1014D800184607F0D7F90346002B0CBF0123002359
:1014E800DBB2002BE4D17B68986A7B6803F12C019E
:1014F8007B681C331A4607F05BF80346002B14BFC1
:1015080001230023DBB2002B01D0012300E00023DC
:1015180018461037BD46BDE8B08300BF001000E094
:10152800F0ED00E01003002080B582B000AF7860D5
:10153800064A7B681A607B6850331846FFF7ACFE92
:101548007B6818460837BD4680BD00BF90CD0008AF
:1015580080B58CB000AF786039609EE007F1180361
:10156800574A3968786807F067F8554B1B68BB62BB
:10157800BB6AB3F5047F30D13B7E1BB21B021AB2A3
:101588007B7E1BB21343FB84B7F9263007EE903AF3
:10159800B8EEE77ADFED4B6AC7EE267AC7ED0B7A2D
:1015A800D7ED0B7AB3EE047AF4EEC77AF1EE10FABF
:1015B80001D5454BFB62D7ED0B7A9FED447AF4EEEB
:1015C800C77AF1EE10FA01DD414BFB62414AFB6A32
:1015D8001360414B01221A705FE07B683B61BB6A74
:1015E8007B6107F1100319463C4800F001F90346F6
:1015F800FB603A4800F00BF903463B6207F1200212
:1016080007F10C031146184600F00EF9034683F063
:101618000103DBB2002B0ED007F10C03184600F0D3
:1016280017F903460833184600F0D2F80346002B92
:1016380001D0012300E00023002B2ED0284B1B688B
:1016480003F00103002B0AD12648FFF733FE244B91
:1016580001221A60244A254922480BF066FA214AD9
:10166800BB6A1361164BDB68DAB21E4B1A72144B55
:10167800DA6807F1180319461D480BF003FB194AED
:101688007B68936207F10C03184600F0E1F8034603
:1016980008331449184600F0E9F83968786807F003
:1016A800D3F80346002B14BF01230023DBB2002B21
:1016B8007FF454AF00BF00BF3037BD4680BD00BFC8
:1016C800C00300200000C8420000A04100004843B9
:1016D80000004843A0030020A4030020A803002022
:1016E80048040020E803002000000020311500080D
:1016F800FC03002080B582B000AF786039604021DB
:101708007868FFF725FF00BF0837BD4680BD80B564
:1017180082B000AF7860396041217868FFF718FF20
:1017280000BF0837BD4680BD80B483B000AF786085
:101738007B681A460023136053607B6800229A6016
:101748007B6818460C37BD465DF8047B704780B54A
:1017580082B000AF78607B681A460023136053603C
:1017680093607B681846FFF7DFFF7B680022DA602A
:101778007B6818460837BD4680BD80B584B000AF89
:1017880078607B68FB60FB68BB607B68184600F08C
:101798008AF87B6804331846FFF7A4FD7B6818466F
:1017A8001037BD4680BD80B582B000AF78607868DC
:1017B80000F0A4F803461946786800F07FF87B68C3
:1017C8001846FFF7D8FD7B6818460837BD4680BD28
:1017D80080B582B000AF78607B681846FFF73BFDA4
:1017E800034683F00103DBB218460837BD4680BDC7
:1017F80080B582B000AF786039607B683968184678
:1018080000F097F8034618460837BD4680BD80B5F6
:1018180082B000AF78607B68184600F0C6F80346CF
:1018280018460837BD4680BD80B483B000AF7860E5
:1018380039607B681A683B681B689A420CBF0123B1
:101848000023DBB218460C37BD465DF8047B7047B1
:1018580080B582B000AF78607B681B68184600F0DE
:10186800B5F8034618460837BD4680BDB0B582B006
:1018780000AF786039607B681846FFF7ECFC0346D8
:10188800002B01D00BF05AF97B68DC687D683B4679
:10189800184600F0A9F8034619462846A04700BF95
:1018A8000837BD46B0BD80B483B000AF78607B68B0
:1018B80018460C37BD465DF8047B704780B584B088
:1018C80000AF7860396011E0386800F098F8034696
:1018D80019467868FFF7F2FF386800F09CF8F8605E
:1018E8003968786800F0A3F8FB683B603B68002B18
:1018F800EAD100BF00BF1037BD4680BD80B582B0B9
:1019080000AF7860786800F0A3F8034618460837F7
:10191800BD4680BD80B584B000AFF860B9607A601C
:101928007968B868FFF703FD034618461037BD46C7
:1019380080BD90B585B000AF786039607868FFF7F2
:10194800DDFF0446786800F09EF802463B682146B1
:10195800786800F0A4F80346BB60786800F025F8C2
:101968000346FB6007F10C0207F10803114618460D
:10197800FFF75AFF0346002B0DD17C68BB68184659
:1019880000F0BEF803461A4639682046FFF7C2FF42
:101998000346002B04D0786800F007F8034600E0FF
:1019A800BB6818461437BD4690BD80B584B000AFFB
:1019B80078607B681A1D07F10C031146184600F081
:1019C80053F8FB6818461037BD4680BD80B582B015
:1019D80000AF78607B681033184600F09DF8034626
:1019E80018460837BD4680BD80B483B000AF786024
:1019F8007B6818460C37BD465DF8047B704780B499
:101A080083B000AF78607B68DB6818460C37BD464A
:101A18005DF8047B704780B483B000AF78607B6862
:101A28009B6818460C37BD465DF8047B704780B547
:101A380082B000AF786039603968786800F078F86B
:101A48003968786800F08BF800BF0837BD4680BD5C
:101A580080B483B000AF78607B689B6818460C3709
:101A6800BD465DF8047B704780B483B000AF7860F2
:101A780039607B683A681A607B6818460C37BD463F
:101A88005DF8047B704780B483B000AF78607B68F2
:101A9800043318460C37BD465DF8047B704790B593
:101AA80087B000AFF860B9607A603B601AE0FC6804
:101AB800B86800F079F803463A6819462046FFF7F7
:101AC80029FF034683F00103DBB2002B06D0BB6875
:101AD8007B60B868FFF79FFFB86003E0B868FFF75E
:101AE8008EFFB860BB68002BE1D107F11403796859
:101AF8001846FFF7B9FF7B6918461C37BD4690BDED
:101B080080B582B000AF7860786800F04DF8034681
:101B180018460837BD4680BD80B582B000AF7860F2
:101B2800786800F054F8034618460837BD4680BD6B
:101B380090B585B000AF78603960786800F052F8E9
:101B480004463868FFF742FF0346FB60BC60F8684C
:101B580000F07BF800BF00BF1437BD4690BD80B5CC
:101B680088B000AF78603960786800F03BF80346C9
:101B7800FB613B68BB6101237B61FB693B61BB691E
:101B8800FB607B69BB600023002B03D0F8680AF078
:101B9800D1FF04E0BA68F968386900F06DF800BF51
:101BA80000BF2037BD4680BD80B584B000AF7860E7
:101BB800786800F022F8024607F10C03114618462F
:101BC80000F029F8034618461037BD4680BD80B49A
:101BD80083B000AF78607B6818460C37BD465DF867
:101BE800047B704780B483B000AF78607B68184688
:101BF8000C37BD465DF8047B704780B582B000AFF6
:101C080078607B681033184600F02AF803461846B7
:101C18000837BD4680BD80B483B000AF78603960B6
:101C28003B6818460C37BD465DF8047B704780B5A5
:101C380082B000AF78607B6808331846FFF72CFB4A
:101C48007B6818460837BD4680BD80B582B000AFB6
:101C580078607868FFF7EBFF00BF0837BD4680BDA6
:101C680080B582B000AF7860786800F017F8034656
:101C780018460837BD4680BD80B584B000AFF8600F
:101C8800B9607A607A6813469B001344DB001946F2
:101C9800B8680AF051FF1037BD4680BD80B483B0E4
:101CA80000AF78607B6818460C37BD465DF8047B4A
:101CB800704780B582B000AF78607B681846FFF740
:101CC80072FD7B6818460837BD4680BD80B500AFF9
:101CD8000448FFF76AFB044A044902480AF025FF52
:101CE80000BF80BDA803002000000020BB1C000826
:101CF80080B500AFFFF7EAFF80BD000080B400AFF9
:101D08000F4B1B6803F00103002B14BF01230023B2
:101D1800DBB2002B0FD10B4BDB680A4A43F0807310
:101D2800D360074B00225A60054B1B68044A43F0F6
:101D38000103136000E000BFBD465DF8047B7047F7
:101D4800001000E0F0ED00E02DE9B04382B000AFF4
:101D5800786079680020884681460F490968002024
:101D68000A46034602FB09F008FB03F10144A8FBFD
:101D780002454B191D464FF47A724FF00003204676
:101D88002946FEF745FA02460B4613461846083719
:101D9800BD46BDE8B08300BF1003002080B584B005
:101DA80000AFF860B9607A60FFF7A8FFB868FFF77E
:101DB800CBFF0246FB681A607B68002B02D1FB68E8
:101DC8001B6803E07868FFF7BFFF0346FA685360B3
:101DD800F86800F05FF800BF1037BD4680BD00000E
:101DE80080B485B000AF78600B46FB70284B5B6809
:101DF800FB60FB78002B1ED07B689B68FA689A42D0
:101E08000BD07B68DA687B689B68F968CB1A1A4440
:101E18007B68DA607B68FA689A607B68DA687B6856
:101E28001B689A422CD37B681A687B68DA607B68E7
:101E380001221A7424E07B689B68FA689A4216D0DB
:101E48007B689B68FA68D31ABB607B68FA689A60FB
:101E58007B68DB68BA689A4206D27B68DA68BB6836
:101E6800D21A7B68DA6002E07B680022DA607B685D
:101E7800DA687B685B689A4202D27B6800221A742F
:101E88007B681B7C18461437BD465DF8047B704799
:101E9800001000E080B483B000AF78607B68002257
:101EA800DA607B6800221A74044B5A687B689A606F
:101EB80000BF0C37BD465DF8047B7047001000E09A
:101EC80080B483B000AF87ED010AD7ED017AF5EE53
:101ED800C07AF1EE10FA01D80B4B0BE0D7ED017A7E
:101EE800B7EE007AF4EEC77AF1EE10FA01DB074B91
:101EF80000E07B6807EE903AB0EE670A0C37BD4603
:101F08005DF8047B704700BFCDCCCC3D6666663F6C
:101F180080B584B000AFF86087ED020AC7ED010A0A
:101F280097ED020AFFF7CCFFF0EE407AFB68C3EDAD
:101F3800007AFB687A685A60FB6801221A7200BF4F
:101F48001037BD4680BD80B485B000AF786087ED9E
:101F5800000A7B681B7A83F00103DBB2002B01D0F7
:101F68003B681AE07B6893ED007AD7ED007A27EE9C
:101F7800277A7B68D3ED007AF7EE006A76EEE76A97
:101F88007B68D3ED017A66EEA77A77EE277AC7EDFC
:101F9800037A7B68FA685A60FB6807EE903AB0EEFD
:101FA800670A1437BD465DF8047B704780B584B076
:101FB80000AFF8600B4687ED010A7B817B89002B17
:101FC80002D101237B8104E07B89322B01D93223A2
:101FD8007B81FB687A89A3F8D02097ED010AF8681D
:101FE80000F067F800BF1037BD4680BD80B485B0EB
:101FF80000AF786087ED000A7B68B3F8D030002B1B
:1020080002D1D7ED007A4DE07B68B3F8CC307A681E
:102018009B0013441B68FB607B68B3F8CC307A687C
:102028009B0013443A681A607B6893ED327AD7EDC7
:10203800006AD7ED037A76EEE77A77EE277A7B683F
:10204800C3ED327A7B68B3F8CC3001339AB27B683F
:10205800A3F8CC207B68B3F8CC207B68B3F8D030E9
:102068009A4203D37B680022A3F8CC207B68B3F89C
:10207800CE207B68B3F8D0309A4207D27B68B3F899
:10208800CE3001339AB27B68A3F8CE207B68D3EDBB
:10209800326A7B68B3F8CE3007EE903AB8EE677ACA
:1020A800C6EE877AB0EE670A1437BD465DF8047B42
:1020B800704780B485B000AF786087ED000A7B6810
:1020C800B3F8D03007EE903AB8EE677AD7ED007AD9
:1020D80067EE277A7B68C3ED327A7B680022A3F823
:1020E800CC207B68B3F8D0207B68A3F8CE200023EF
:1020F800FB8111E07B68B3F8D030FA899A4201D2AB
:102108003B6801E04FF00003FA89796892000A44BD
:102118001360FB890133FB81FB89312BEAD900BFAE
:1021280000BF1437BD465DF8047B704780B582B0A8
:1021380000AF254B3B60A822002138680AF02AFD31
:102148003B6803221A613B6803225A613B681F4AB5
:102158009A613B681E4ADA613B684FF480621A62F2
:102168003B6800229A623B6800225A623B68002260
:10217800DA623B68154A1A663B68164A5A663B6833
:1021880010229A663B6800221A673B680022DA66CA
:102198003B6800225A6700237B600CE07B68C3F130
:1021A8000F030D4AD15C3A687B6813440A461A70DB
:1021B8007B6801337B607B680F2BEFD900BF00BFC2
:1021C8000837BD4680BD00BF4C04002054CD000830
:1021D800F4040020F4080020A8CD000880B500AF62
:1021E800FFF7A4FF00BF80BD80B582B000AF786064
:1021F8007B683C4A1A627B683B4A5A627B683B4A66
:10220800DA617B6800229A857B68394A9A627B6822
:1022180003F194027B68D3ED087A7B6893ED097A21
:10222800F0EE472AB0EE672ADFED321A9FED321A38
:10223800DFED320A9FED320A01211046FEF787FAD8
:102248007B6803F1D8027B68D3ED097A7B6893ED4C
:10225800087A7B68D3ED096AF0EE662AB0EE472A61
:10226800F0EE671A9FED241ADFED260A9FED260A85
:1022780001211046FEF76BFA7B684FF000021A60E6
:102288007B683033022219211846FFF787FD7B68E7
:102298004433022219211846FFF780FD7B68583322
:1022A8000A2214211846FFF779FD7B686C33022255
:1022B80019211846FFF772FD7B6880330222192125
:1022C8001846FFF76BFD0020FEF74AFF0346184645
:1022D800FEF718FE7B6801229A7400BF0837BD46D6
:1022E80080BD00BF1F856B3FCDCC4C3DCDCC4C3E57
:1022F8008FC2F53C9A9999BE0000000017B7513972
:102308000AD7233C6F12033B0AD7A33B80B582B0A0
:1023180000AF78607B68B3F92C309AB2013A92B278
:1023280011B27A689185114A9342B4BF0123002300
:10233800DBB2002B15D07B6801229A85786800F003
:10234800CBF8F0EE407AB0EE670A786800F089F8CA
:102358000020FEF71AFF03461846FEF709FE012380
:1023680000E0002318460837BD4680BD31F8FFFF5E
:1023780080B582B000AF78600020FEF706FF034604
:102388001846FEF707FE7B6894331846FEF798FA5E
:102398007B68D8331846FEF793FA7B684FF0000243
:1023A8001A607B6800229A857B68034ADA6100BF5D
:1023B8000837BD4680BD00BFCDCC4C3E80B584B04B
:1023C80000AF78607B68B3F92C30012B02D07868B5
:1023D800FFF79CFF786800F0CFF8F860786800F0A5
:1023E80081FBFB689B79002B0FD1FB685B79002B85
:1023F8000BD1FB681B7A002B07D1FB68DB79002B1C
:1024080003D1FB68DB78002B03D07868FFF7B0FFB7
:1024180023E0FB689B78002B1CD07B68D3ED027A05
:10242800B2EE0A7AF4EEC77AF1EE10FA03DB002076
:1024380000F09AFC02E0012000F096FC786800F0B9
:10244800F5F97B68D3ED077AB0EE670A786800F093
:1024580008F802E07868FFF78BFF00BF1037BD4629
:1024680080BD80B584B000AF786087ED000A7B68D6
:10247800D3ED097A7B6893ED087AB0EE471AF0EE4F
:10248800670A97ED000AFEF7AAFE87ED000A7B6847
:102498003A68DA610020FEF78DFE0346FB60FB68B0
:1024A80007EE903AB8EE677AD7ED007A67EE277AAA
:1024B800FCEEE77A17EE903ABB60B968786800F0EE
:1024C80052F90346194697ED000A0020FEF7FEFD73
:1024D80000BF1037BD4680BD80B584B000AF7860BE
:1024E8007B68D3ED037AF5EE407AF1EE10FA03D16A
:1024F8007B68D3ED097A1EE07B68D3ED026A7B68BE
:1025080093ED037AC6EE877A9FED0D7A77EE877A98
:10251800C7ED037A7B68D3ED097A7B6893ED087A77
:10252800B0EE471AF0EE670A97ED030AFEF757FE7A
:10253800F0EE407A00BFB0EE670A1037BD4680BDA6
:102548000AD7233C80B485B000AFF86087ED020A53
:10255800C7ED010A87ED001AFB68BA685A60FB6884
:102568007A689A60FB683A68DA6000BF1437BD463B
:102578005DF8047B7047000080B584B000AF7860D8
:102588007B68D3ED037AB2EE087AF4EEC77AF1EEFF
:1025980010FA01D5012300E00023FB730023BB736D
:1025A8007B68D3ED017AB3EE047AF4EEC77AF1EEE4
:1025B80010FA09DC7B68D3ED017ABFEE007AF4EEFD
:1025C800C77AF1EE10FA01D5012300E000237B73EE
:1025D8007B68D3ED037A9FED547AF4EEC77AF1EE77
:1025E80010FA01DD012300E000233B737B68D3ED83
:1025F800027A9FED4E7AF4EEC77AF1EE10FA0EDC0D
:102608007B68D3ED037AB7EE007A37EE877A7B687A
:10261800D3ED027AB4EEE77AF1EE10FA01D5012390
:1026280000E00023FB727B683033FA7B1946786838
:1026380000F07EF803461A467B68DA747B684433F8
:1026480000221946786800F073F803461A467B683A
:102658001A757B6858337A7B1946786800F068F8F1
:1026680003461A467B689A757B686C333A7B194631
:10267800786800F05DF803461A467B681A767B682E
:102688008033FA7A1946786800F052F803461A46F9
:102698007B68DA757B68DB7C1AB27B681B7D1BB2B2
:1026A8005B001BB213431AB27B685B7D1BB29B00B5
:1026B8001BB213431AB27B689B7D1BB2DB001BB2B3
:1026C80013431AB27B68DB7D1BB21B011BB2134399
:1026D8001AB27B681B7E1BB25B011BB213431BB291
:1026E8009AB27B681A827B68DB7C002B11D17B68ED
:1026F8001B7D002B0DD17B689B7D002B09D17B684E
:102708001B7E002B05D17B68DB7D002B01D10123CB
:1027180000E000231A467B689A747B6810331846D9
:102728001037BD4680BD00BF0000A0420000BC417C
:1027380080B584B000AFF860B9601346FB71FB79CF
:10274800002B14BF01230023DBB21946B868FFF73A
:1027580047FB0346002B01D0012300E00023184665
:102768001037BD4680BD80B588B000AF786039604D
:102778000020FEF71FFD0346BB613B687B61BA6919
:102788003B68D31A3B6142F29333FB603B6942F2E8
:102798009232934213D93A697B699A4204D27B698F
:1027A80042F2923293420AD83B69A3F50E53133B87
:1027B8005A083B68134403F57A73FB6129E07B6987
:1027C80042F29232934208D97B69A3F50E53133B28
:1027D8005B0803F57A73FB611BE03B6941F6C23283
:1027E800934208D93B69A3F5DE53033B5B083A687B
:1027F8001344FB610DE07B6941F6C232934206D96E
:102808007B69A3F5DE53033B5B08FB6101E03B6892
:10281800FB61FA69BB699A4202D3BB69013B00E0DC
:10282800FB6918462037BD4680BD000080B58CB0D6
:1028380000AF78604FF082433B62A74BFB617B6837
:10284800D3ED027AB2EE007AF4EEC77AF1EE10FA1E
:1028580049D57B68A04AC3F800217B6803F1D802F8
:102868007B68D3ED017AB0EE670A1046FDF780FE6B
:102878007B68D3F80831FB627868FFF72DFE87ED97
:10288800040A97ED0B7AD7ED047AB4EEE77AF1EE05
:1028980010FA05D53B69FB627B683A69C3F80821E1
:1028A8007B68DA687B68C3F8BC207B6894338B4A02
:1028B800D2ED007AB0EE670A1846FDF759FE7B683C
:1028C800D3ED026A854B93ED007AC6EE877A97EDD1
:1028D8000B7A77EE677A9FED827A77EEC77A7B6814
:1028E800C3ED317AB9E07B68D3ED026A7B4B93ED97
:1028F800007AC6EE877A9FED7A7A77EE877AC7ED07
:102908000A7A7B68D3ED097A97ED0A7AB4EEE77A0A
:10291800F1EE10FA02D57B685B6ABB627B68D3ED87
:10292800087A97ED0A7AB4EEE77AF1EE10FA02DD4A
:102938007B681B6ABB627B68DA687B68C3F8BC206B
:102948007B689433654AD2ED007AB0EE670A184680
:10295800FDF70EFE7B68D3ED317A97ED0A7A77EEB4
:10296800277AC7ED0B7A4FF08243BB617B68D3EDC2
:10297800037AB6EE007AF4EEC77AF1EE10FA32DD99
:102988007B68D3ED027AB2EE007A77EE876A7B68CD
:1029980093ED037AC6EE877AC7ED097A7B68D3EDA3
:1029A800097A97ED097AB4EEE77AF1EE10FA02D5D2
:1029B8007B685B6A7B627B68D3ED087A97ED097A5E
:1029C800B4EEE77AF1EE10FA02DD7B681B6A7B62EF
:1029D80097ED0B7AD7ED097AB4EEE77AF1EE10FAB3
:1029E80001DD7B6AFB627868FFF776FD87ED050AF3
:1029F80097ED0B7AD7ED057AB4EEE77AF1EE10FA97
:102A080001D57B69FB627B6893ED317AD7ED0A7A51
:102A180077EE277A97ED0B7AB4EE677AF1EE10FA33
:102A280008D097ED0B7AD7ED0A7A77EE677A7B684C
:102A3800C3ED317A7B68284AC3F800217B6803F12B
:102A4800D8027B68D3ED017AB0EE670A1046FDF72D
:102A58008FFD7B68FA6AC3F808217B68D3ED077A93
:102A680097ED0B7A77EE677AC7ED037A7B68D3ED3B
:102A78000A7A97ED037AB4EEE77AF1EE10FA0BDDF5
:102A88007B6893ED077A7B68D3ED0A7A77EE277A2D
:102A98007B68C3ED077A1AE07B68D3ED0A7AF1EE1A
:102AA800677A97ED037AB4EEE77AF1EE10FA0BD570
:102AB8007B6893ED077A7B68D3ED0A7A77EE677ABD
:102AC8007B68C3ED077A02E07B68FA6ADA6100BFC7
:102AD8003037BD4680BD00BF33333340400000204F
:102AE8000AD7233C80B584B000AF7860264BB3F991
:102AF80000309BB201339BB21AB2234B1A80224B8F
:102B0800B3F90030072B3CDD1F4B00221A807B688D
:102B18001B8AFB810323BB81FB89002B09D17B68BE
:102B28009B7C002B05D001220421184804F0DEFB11
:102B380027E0FB8903F00303002B05D000220421C2
:102B4800124804F0D3FB1CE0114B1B8801339AB2E6
:102B58000F4B1A800E4B1B887C2B05D801220421B1
:102B68000A4804F0C3FB0CE0094B1B88F92B05D875
:102B780000220421054804F0B9FB02E0044B0022BE
:102B88001A801037BD4680BD04090020000800489F
:102B98000609002080B483B000AF87ED010AD7EDA5
:102BA800017AF5EEC07AF1EE10FA02D54FF0000383
:102BB8000BE0D7ED017A9FED097AF4EEC77AF1EED2
:102BC80010FA01DD064B00E07B6807EE903AB0EEA4
:102BD800670A0C37BD465DF8047B70470000164352
:102BE8000000164380B483B000AF0346FB71FB7945
:102BF800002B06D0094B18229A61094B01221A7042
:102C080006E0064B4FF4C0129A61054B00221A7079
:102C180000BF0C37BD465DF8047B704700040048D0
:102C28000C09002080B500AF1821074804F076FB96
:102C3800064B1B78DBB2002B01D1012200E00022F9
:102C4800024B1A7000BF80BD000400480C09002028
:102C580080B52DED028B86B000AF00F097F9786152
:102C6800786900F091FAB0EE408A786900F07CFA51
:102C7800F0EE407A68EE277AC7ED047A97ED040AF9
:102C8800FFF788FFF0EE407A274BC3ED027A264B18
:102C9800D3ED027A9FED257A67EE877AFCEEE77A24
:102CA800C7ED017A3B79DAB21F4B5A711E4B9B79FB
:102CB80003F001039AB21C4B5B795B009BB2134390
:102CC800FB81FB891B0A9AB2FB895340FB81FB8974
:102CD8001B099AB2FB895340FB81FB899B089AB276
:102CE800FB895340FB81FB895B089AB2FB895340FF
:102CF800FB810D4B9B7903F001039AB20A4B5B7978
:102D08005B009BB213439AB2FB895B029BB203F44C
:102D180000739BB213439AB2034B5A8000BF183713
:102D2800BD46BDEC028B80BD440000209A99D93F76
:102D380080B500AF0020FFF755FF00F003F800BF93
:102D480080BD000080B400AF054B00221A71054B0E
:102D580000221A8000BFBD465DF8047B704700BFA3
:102D6800440000200809002080B483B000AF034667
:102D7800FB71FB7903F00103DAB2044B9A7100BFCF
:102D88000C37BD465DF8047B704700BF4400002047
:102D980080B582B000AF794B1B889BB201339AB2E1
:102DA800764B1A80754B1B889BB240F69F729342F4
:102DB8008CBF01230023DBB2002B02D06F4B002213
:102DC8001A806F4B1B7883F00103DBB2002B05D010
:102DD8000020FFF707FFFFF7B5FFCBE0694B1B8823
:102DE8009BB2002B0CBF01230023DBB2002B02D0C7
:102DF800644B01221A80644B1B8801339AB2624BE0
:102E08001A80614B1A885F4B1B889BB29A4234BF69
:102E180001230023DBB2002B40F0AB805A4B002289
:102E28001A80574B1B79272B7DD801A252F823F023
:102E3800D92E0008F12E00082F2F00082F2F000888
:102E48002F2F00082F2F00082F2F00082F2F0008E2
:102E58002F2F00082F2F00082F2F00082F2F0008D2
:102E68002F2F00082F2F00082F2F00082F2F0008C2
:102E78002F2F00082F2F00082F2F00082F2F0008B2
:102E88002F2F00082F2F0008FF2E0008132F0008EF
:102E98002F2F00082F2F00082F2F00082F2F000892
:102EA8002F2F00082F2F00082F2F00082F2F000882
:102EB8002F2F00082F2F00082F2F00082F2F000872
:102EC8002F2F00082F2F00082F2F0008212F000870
:102ED8000120FFF787FEFFF7BBFE294B1B79013363
:102EE800DAB2274B1A7145E0254B1B790133DAB268
:102EF800234B1A713EE00020FFF774FE204B1B792C
:102F08000133DAB21E4B1A7134E01D4B1B790133C1
:102F1800DAB21B4B1A712DE00020FFF763FE184B45
:102F280000221A7126E0164B1B7903F00103002BCF
:102F380016D0134B1B795B08DBB2013BFB71104BBE
:102F48001B79172B09D80E4B5B881A46FB7942FA76
:102F580003F303F00103002B04D0FFF763FE01E045
:102F6800FFF760FE064B1B790133DAB2044B1A7186
:102F780000E000BF0837BD4680BD00BF0A09002039
:102F880044000020500000200809002080B400AF51
:102F9800024B1846BD465DF8047B7047540000207C
:102FA800B0B58CB000AF78607B6818220021184655
:102FB80009F0F0FD7B68183308220021184609F053
:102FC800E9FD7B684FF00002C3F8A0227B684FF050
:102FD8000002C3F8A4227B684FF00002C3F8A822BD
:102FE8007B6898339FED330A19211846FEF7DEFFF8
:102FF8007B6803F5B673DFED2F0A9FED2F0A18469D
:10300800FEF786FF7B6803F5BC73DFED2A0A9FEDA8
:103018002B0A1846FEF77CFF294B07F108041D46CA
:103028000FCD0FC40FCD0FC495E8030084E803004B
:10303800244BBB607B68FB600C233B820323BB747F
:103048000423BB82204BBB6103233B771F4B3B62AE
:103058001F4B7B627B68203307F108021146184634
:10306800FDF757FC00BF7B6820331846FDF7B7FC17
:10307800034683F00103DBB2002BF4D17B6803F530
:10308800C2731846FFF7B0F8124B5A687B68C3F84A
:10309800AC22114B1B68114AA2FB03231A0A7B6856
:1030A800C3F8B022786800F01BF800BF3037BD467F
:1030B800B0BD00BF000000009A99993E3333333FFA
:1030C80060CD000810090020BCCD00080000204099
:1030D80000F07F45001000E010030020D34D62107F
:1030E80080B582B000AF78607B6820331846FDF762
:1030F80090FC00BF0837BD4680BD000080B582B097
:1031080000AF786039603B680E4A934214D17B68FF
:1031180020331846FDF7DDFC034683F00103DBB2DC
:10312800002B01D0002308E07B682033194678681B
:1031380000F03AF8012300E0002318460837BD469E
:1031480080BD00BF1009002080B483B000AF786054
:103158007B68D3F8A03207EE903AB0EE670A0C37D6
:10316800BD465DF8047B704780B483B000AF7860DB
:103178007B68D3F8A43207EE903AB0EE670A0C37B2
:10318800BD465DF8047B704780B483B000AF7860BB
:103198007B68D3F8A83207EE903AB0EE670A0C378E
:1031A800BD465DF8047B704790B585B000AF786088
:1031B80039607B6803F1980400213868FDF739FD10
:1031C800F0EE407AB0EE670A2046FEF70FFFF0EE09
:1031D800407A7B68C3EDA87A7B6803F5B674022150
:1031E8003868FDF726FDF0EE407AB0EE670A204613
:1031F800FEF7A9FEF0EE407A7B68C3EDA97A7B68FA
:1032080003F5BC7401213868FDF713FDF0EE407A30
:10321800B0EE670A2046FEF796FEF0EE407A7B682D
:10322800C3EDAA7A7B6803F5C2727B68D3EDA97AED
:103238007B6893EDAA7A7B68D3EDA86AB0EE661A2C
:10324800F0EE470AB0EE670A1046FFF77BF90D4B20
:103258005B68FB607B68D3F8AC32FA68D21A7B688B
:10326800D3F8B0329A4209D37B68FA68C3F8AC2223
:103278007B6803F5C2731846FFF7A0F800BF143740
:10328800BD4690BD001000E080B586B000AF3B465B
:1032980000221A605A609A60DA601A615A61002343
:1032A8003B600023BB6000237B6000233B6140F24E
:1032B800FF737B610123FB603B461946084805F014
:1032C800F5F80346002B14BF01230023DBB2002BC3
:1032D80001D000F0C8F900BF1837BD4680BD00BF57
:1032E800500A002080B586B000AF7860FFF74EFE28
:1032F80078617869FFF728FFF0EE407A9FED297A28
:1033080067EE877AFDEEE77A17EE903A7B82786966
:10331800FFF73AFFF0EE407A9FED227A67EE877A60
:10332800FDEEE77A17EE903A3B827869FFF71CFFCB
:10333800F0EE407A9FED1B7A67EE877AFDEEE77A2A
:1033480017EE903AFB817B8A1B0A9BB2DAB27B6844
:103358001A707B6801337A8AD2B21A703B8A1B0AC8
:103368009AB27B680233D2B21A707B6803333A8A06
:10337800D2B21A70FB891B0A9AB27B680433D2B2A4
:103388001A707B680533FA89D2B21A707B680633E3
:1033980000221A707B68073300221A7000BF1837A2
:1033A800BD4680BD0000C84280B500AF054805F0A5
:1033B800D7F800220121034805F076FAFFF764FFE9
:1033C80000BF80BD500A002080B58CB000AF07F167
:1033D80028031846FFF786FF3B1D242200211846C4
:1033E80009F0D8FB40F211237B600023BB60002367
:1033F800FB6008233B6100237B610023BB61002342
:10340800FB6100233B6200237B620B4805F03AFA1C
:103418000346002B14BF01230023DBB2002B06D088
:1034280007F128023B1D1946034805F0C1F800BF03
:103438003037BD4680BD00BF500A002080B500AFC0
:10344800FFF7A4FD03461846FFF7AAFDFFF770FC37
:10345800FEF7C4FEFFF7A8FF024807F0B5FB00BF60
:1034680080BD00BF340C002080B582B000AF78600A
:10347800FFF78CFD034679681846FFF73FFE00BF4B
:103488000837BD4680BD000080B582B000AF7860C7
:103498007B680E4A934215D1FFF77AFC0C4B1B78D8
:1034A8000133DAB20A4B1A70094B1B78032B8CBF15
:1034B80001230023DBB2002B04D0054B00221A7035
:1034C800FFF782FF00BF0837BD4680BD340C0020DF
:1034D8000D09002080B483B000AF0346FB8000BF15
:1034E8000C37BD465DF8047B704780B483B000AFED
:1034F80078600B467B8000BF0C37BD465DF8047BC7
:10350800704780B483B000AF786000BF0C37BD4609
:103518005DF8047B7047000080B500AF02F012FD33
:1035280000F056F800F0A6F800F002FB00F0E2FB0D
:1035380000F004FF00F03CF900F0B2FE00F046FE97
:1035480000F068FF00F030FF01F022F800F040FAC8
:1035580000F020FB02F088FD02F096FD1B4B1B6972
:103568001A4A43F400631361184B9B68174A43F0E7
:1035780001039360154B9B68144A43F0080393605A
:10358800124B9B68114A43F0100393600F4B9B68E2
:103598000E4A43F0200393600C4B1B690B4A43F41B
:1035A80000531361094B9B68084A43F0004393603A
:1035B800064B1B69054A43F0806313614FF4FA70A8
:1035C80002F030FDFFF73AFF00BFFDE7002004E0FE
:1035D80080B594B000AF07F11803382200211846CF
:1035E80009F0D8FA3B1D00221A605A609A60DA6026
:1035F8001A61002004F0F6F90923BB614FF4803307
:10360800FB610123FB6202237B630323BB63022369
:10361800FB6355233B6402237B640223BB640223C0
:10362800FB6407F11803184602F062FD0346002BFD
:1036380001D000F018F80F237B600323BB60002340
:10364800FB6000233B6100237B613B1D042118467E
:1036580003F060F80346002B01D000F004F800BF27
:103668005037BD4680BD80B400AF72B600BF00BF02
:10367800FDE7000080B58AB000AF07F1140300220F
:103688001A605A609A60DA601A61464BDB6C454AE8
:1036980043F02003D364434BDB6C03F020033B610E
:1036A8003B69404BDB6C3F4A43F00403D3643D4B1A
:1036B800DB6C03F00403FB60FB683A4BDB6C394AB4
:1036C80043F00103D364374BDB6C03F00103BB60A9
:1036D800BB68344BDB6C334A43F00203D364314B91
:1036E800DB6C03F002037B607B6800220C212E4810
:1036F80003F0FCFD002298212C4803F0F7FD0C2371
:103708007B610123BB610223FB6102233B6207F15A
:1037180014031946244803F067FC4FF400437B6107
:103728004FF48813BB610223FB6107F114031946A8
:103738004FF0904003F058FC4FF4E0537B614FF496
:103748008813BB610223FB6107F11403194616486D
:1037580003F04AFC18237B610123BB610223FB6150
:1037680002233B6207F114031946104803F03CFC9E
:1037780080237B611123BB610023FB6102233B6231
:1037880007F114031946094803F02EFC0022002112
:10379800282004F0B6FA282004F0CDFA00BF283714
:1037A800BD4680BD001002400008004800040048E3
:1037B80080B588B000AF3B4620220021184609F0AA
:1037C800E9F93A4B3A4A1A60384B4FF440325A609A
:1037D800364B00229A60354B0022DA60334B0022C8
:1037E8001A61324B01225A61304B08229A612F4BE1
:1037F80000221A772D4B00225A772C4B03221A628B
:103808002A4B002283F82420284B4FF4D862DA622E
:10381800264B4FF480621A63244B012283F8382028
:10382800224B4FF48052DA63204B002283F8402069
:103838001E4801F08BFA0346002B01D0FFF713FF57
:103848001C4B3B6006237B600323BB607F23FB602C
:1038580004233B6100237B613B461946134801F072
:1038680019FD0346002B01D0FFF7FDFE124B3B600C
:103878000C237B603B4619460C4801F00BFD0346C0
:10388800002B01D0FFF7EFFE0C4B3B6012237B604F
:103898003B461946054801F0FDFC0346002B01D0C4
:1038A800FFF7E1FE00BF2037BD4680BD10090020AC
:1038B800000500500800900C1000C0102000F01403
:1038C80080B59EB000AF786007F1640300221A60EB
:1038D8005A609A60DA601A6107F1100354220021D5
:1038E800184609F057F97B681B68344A934260D13F
:1038F8004FF480333B614FF00043BB6507F1100381
:10390800184603F023F90346002B01D0FFF7ABFE5E
:103918002B4BDB6C2A4A43F48043D364284BDB6C83
:1039280003F48043FB60FB68254BDB6C244A43F0BF
:103938000203D364224BDB6C03F00203BB60BB6859
:103948004FF450437B660323BB660023FB6607F1F5
:10395800640319461B4803F047FB1B4B1B4A1A60BC
:10396800194B26225A60184B00229A60164B0022E7
:10397800DA60154B80221A61134B4FF480725A613A
:10398800114B4FF480629A610F4B2022DA610E4B83
:103998004FF480521A620C4803F0F2FC0346002BE5
:1039A80001D0FFF760FE7B68074A5A65064A7B68C4
:1039B800936200BF7837BD4680BD00BF0005005048
:1039C80000100240000400487C0900204400024026
:1039D80080B58CB000AF3B4630220021184609F074
:1039E800D9F8164B164A1A60144804F0BEF9034673
:1039F800002B01D0FFF737FE02233B6000233B7109
:103A080000237B710023BB600023FB6000233B6124
:103A180000237B610123BB610023FB613B4600223D
:103A28001946064804F024FA0346002B01D0FFF794
:103A38001AFE00BF3037BD4680BD00BFDC0900203C
:103A48000008005080B58AB000AF786007F1140311
:103A580000221A605A609A60DA601A617B681B68F3
:103A68002F4A934257D12F4BDB6C2E4A43F48033B5
:103A7800D3642C4BDB6C03F480333B613B69294BEB
:103A8800DB6C284A43F00103D364264BDB6C03F05C
:103A98000103FB60FB6810237B610323BB610023E8
:103AA800FB6107F1140319464FF0904003F09CFAAC
:103AB8001D4B1E4A1A601C4B06225A601A4B1022D4
:103AC8009A60194B0022DA60174B80221A61164B54
:103AD8004FF400725A61144B4FF480629A61124B92
:103AE8000022DA61104B00221A620F4803F048FCEA
:103AF8000346002B01D0FFF7B6FD7B680A4A9A609F
:103B0800094A7B68936200220021362004F0F9F804
:103B1800362004F010F900BF2837BD4680BD00BF2D
:103B28000008005000100240F00900201C0002406C
:103B380080B582B000AF164B9B6C154A43F0040366
:103B48009364134B9B6C03F004037B607B68104BFE
:103B58009B6C0F4A43F0010393640D4B9B6C03F07D
:103B680001033B603B68002200210B2004F0C9F8E8
:103B78000B2004F0E0F8002200210E2004F0C1F828
:103B88000E2004F0D8F800BF0837BD4680BD00BF3E
:103B98000010024080B500AF1F4B204A1A601E4B30
:103BA80000225A601C4B00229A601B4B0022DA60EC
:103BB800194B00221A74184B00225A74164B002213
:103BC8009A74154B11225A61134B01229A61124BB8
:103BD8000722DA61104B02221A620F4B01225A6245
:103BE8000D4B01229A620C4B0122DA620A4B012228
:103BF8001A63094B01225A63074B00229A63064B4A
:103C08000022DA63044804F0F7FA0346002B01D0D7
:103C1800FFF729FD00BF80BD500A00200068004062
:103C280080B59EB000AF786007F1640300221A6087
:103C38005A609A60DA601A6107F110035422002171
:103C4800184608F0A7FF7B681B68274A934247D1AC
:103C58004FF480533B614FF00073BB6407F11003CE
:103C6800184602F073FF0346002B01D0FFF7FBFC58
:103C78001E4B9B6D1D4A43F0007393651B4B9B6D58
:103C880003F00073FB60FB68184BDB6C174A43F0CA
:103C98000203D364154BDB6C03F00203BB60BB6803
:103CA80060237B660223BB660023FB6600233B6719
:103CB80009237B6707F1640319460D4803F094F95B
:103CC80000220021562004F01CF8562004F033F896
:103CD80000220021572004F014F8572004F02BF894
:103CE80000BF7837BD4680BD006800400010024024
:103CF8000004004880B5BAB000AF07F1E003002225
:103D08001A605A6007F1D00300221A605A609A605C
:103D1800DA6007F1700360220021184608F03AFFC4
:103D280007F1640300221A605A609A6007F1480399
:103D380000221A605A609A60DA601A615A619A61C0
:103D480007F1240324220021184608F023FF3B1D15
:103D580020220021184608F01DFFCB4BCB4A1A60E1
:103D6800C94B00225A60C84B00229A60C64805F029
:103D7800FBF80346002B01D0FFF775FC0C21C24865
:103D880005F0C2F90346002B01D0FFF76CFC0A21AD
:103D9800BD4805F011FA0346002B01D0FFF763FC7C
:103DA8000023C7F8E0300223C7F8E43007F1E00346
:103DB8001A460121B44805F05BFA0346002B01D0EE
:103DC800FFF751FC00220121AF4805F03DFC0346F6
:103DD800002B01D0FFF747FC4FF40033C7F8E03061
:103DE8004FF40033C7F8E43007F1E0031A46042122
:103DF800A54805F03DFA0346002B01D0FFF733FC38
:103E080000220421A04805F01FFC0346002B01D026
:103E1800FFF729FC49F2C973C7F8D0300323C7F864
:103E2800D4300123C7F8D8300823C7F8DC3007F1AD
:103E3800D0031A460621944805F0F2F90346002BF0
:103E480001D0FFF710FC10233B6700237B6700239A
:103E5800BB670023FB670123C7F880300023C7F83E
:103E680084300023C7F888300023C7F88C3000233B
:103E7800C7F890300023C7F894304FF00063C7F8B4
:103E880098300023C7F89C300023C7F8A0304FF0C3
:103E98000053C7F8A4300023C7F8CC3007F17003EB
:103EA8001A460621784805F019FD0346002B01D073
:103EB800FFF7D9FB4FF6EF737B6607F16403012226
:103EC8000621714805F04AFE0346002B01D0FFF792
:103ED800CAFB43F698237B6607F164030222062196
:103EE800694805F03BFE0346002B01D0FFF7BBFBFA
:103EF8004FF6EF737B6607F16403042206216248DC
:103F080005F02CFE0346002B01D0FFF7ACFB46F66C
:103F18004023C7F8D0300023C7F8D43007F1D003C6
:103F28001A460121584805F07BF90346002B01D0B9
:103F3800FFF799FB0023BB6400233B6500237B65E7
:103F480000233B6607F148031A4601214E4805F055
:103F580052FD0346002B01D0FFF785FB00233B678A
:103F680000237B670023C7F8A4300023C7F8A830D4
:103F78000023C7F8AC300023C7F8B0304FF4807383
:103F8800C7F8B4300023C7F8B8304FF48013C7F827
:103F9800C0300223C7F8C4304FF48023C7F8C830B4
:103FA80007F170031A460121374805F097FC0346CC
:103FB800002B01D0FFF757FB00237B6607F1640352
:103FC80001220121304805F0C9FD0346002B01D02C
:103FD800FFF749FB44F620637B6607F1640304227C
:103FE8000121294805F0BAFD0346002B01D0FFF74F
:103FF8003AFB0023BB660023FB6607F16403082233
:104008000121214805F0AAFD0346002B01D0FFF746
:104018002AFB00237B628C23BB620023FB62002304
:104028003B6300237B638C23BB630023FB63002378
:104038003B6400237B6407F124031A4601211248DC
:1040480005F00CFD0346002B01D0FFF70CFB002305
:104058007B600823BB602023FB6000233B610023B7
:104068007B610023BB610023FB6100233B623B1D96
:1040780004220121044805F0DFFE0346002B07D087
:10408800FFF7F1FA04E000BFB40A0020006801401D
:104098000023BB600023FB603B1D08220121074869
:1040A80005F0CAFE0346002B01D0FFF7DCFA0348EF
:1040B80000F026F800BFE837BD4680BDB40A0020EE
:1040C80080B485B000AF78607B681B680A4A934269
:1040D8000BD10A4B1B6E094A43F080631366074BEA
:1040E8001B6E03F08063FB60FB6800BF1437BD469E
:1040F8005DF8047B704700BF006801400010024073
:1041080080B58AB000AF786007F1140300221A6006
:104118005A609A60DA601A617B681B68284A934281
:104128004AD1284BDB6C274A43F00403D364254B60
:10413800DB6C03F004033B613B69224BDB6C214AD7
:1041480043F00103D3641F4BDB6C03F00103FB60F6
:10415800FB68C0237B610223BB610023FB6103234F
:104168003B620D237B6207F114031946164802F0DF
:104178003BFF4FF480737B610223BB610023FB612B
:1041880003233B6203237B6207F1140319460E489D
:1041980002F02AFF4FF440637B610223BB610023D6
:1041A800FB6103233B620D237B6207F1140319466D
:1041B8004FF0904002F018FF00BF2837BD4680BD81
:1041C80000680140001002400008004880B500AFB8
:1041D800134B144A1A60124B00225A60104B4FF4CA
:1041E80020629A600E4B4FF6FF725A610C4B002208
:1041F8001A620B4B00225A62094B00229A62084B42
:104208000022DA62064B00221A63054806F012FB08
:104218000346002B01D0FFF726FA00BF80BD00BF80
:10422800B00B0020007C004080B598B000AF7860EB
:1042380007F10C0354220021184608F0ABFC7B68F8
:104248001B68154A934223D14FF40073FB604FF467
:104258008023BB6307F10C03184602F077FC034682
:10426800002B01D0FFF7FFF90C4B9B6D0B4A43F075
:1042780000439365094B9B6D03F00043BB60BB682B
:1042880000220121312003F03CFD312003F053FDD1
:1042980000BF6037BD4680BD007C00400010024072
:1042A80080B588B000AF07F1100300221A605A6089
:1042B8009A60DA603B1D00221A605A609A601D4BB2
:1042C8001D4A1A601B4BAA225A601A4B00229A6098
:1042D800184B44F62062DA60164B00221A61154B1F
:1042E80000229A61134806F018FC0346002B01D0FF
:1042F800FFF7B9F94FF480533B6107F110031946F2
:104308000C4806F029FE0346002B01D0FFF7ABF955
:1043180000237B600023FB603B1D1946054807F01E
:10432800A9F80346002B01D0FFF79DF900BF2037FD
:10433800BD4680BDE80B0020000C004080B584B06D
:1043480000AF3B1D00221A605A609A60144B154A50
:104358001A60134B10225A60114B00229A60104BBE
:1043680040F6C312DA600E4B00229A610C4806F040
:10437800D4FB0346002B01D0FFF775F900237B60BF
:104388000023FB603B1D1946054807F073F80346F8
:10439800002B01D0FFF767F900BF1037BD4680BD7D
:1043A800340C00200010004080B584B000AF3B1DE5
:1043B80000221A605A609A60144B154A1A60134B0F
:1043C800AA225A60114B00229A60104B41F288329F
:1043D800DA600E4B00229A610C4806F09EFB0346F9
:1043E800002B01D0FFF73FF900237B600023FB601F
:1043F8003B1D1946054807F03DF80346002B01D040
:10440800FFF731F900BF1037BD4680BD800C002092
:104418000014004080B588B000AF07F110030022F7
:104428001A605A609A60DA603B1D00221A605A606E
:104438009A60204B204A1A601E4BA9225A601D4BD5
:1044480000229A601B4B41F28732DA60194B002236
:104458001A61184B00225A61164B00229A611548BE
:1044680006F05BFB0346002B01D0FFF7FCF84FF486
:1044780080533B6107F1100319460E4806F06CFDA6
:104488000346002B01D0FFF7EEF800237B600023E2
:10449800BB600023FB603B1D1946064806F0EAFF97
:1044A8000346002B01D0FFF7DEF800BF2037BD46DA
:1044B80080BD00BFCC0C00200034014080B586B020
:1044C80000AF78607B681B682C4A934214D12C4B50
:1044D8009B6D2B4A43F008039365294B9B6D03F0B2
:1044E80008037B617B6900220021322003F009FC6C
:1044F800322003F020FC3CE07B681B68214A934291
:1045080014D11F4B9B6D1E4A43F0100393651C4B3F
:104518009B6D03F010033B613B69002200213620AC
:1045280003F0EFFB362003F006FC22E07B681B68F3
:10453800154A93420CD1124B9B6D114A43F020034C
:1045480093650F4B9B6D03F02003FB60FB6810E045
:104558007B681B680D4A93420BD1094B1B6E084AB6
:1045680043F400531366064B1B6E03F40053BB6001
:10457800BB6800BF1837BD4680BD00BF000C0040B7
:1045880000100240001000400014004000340140B8
:1045980080B500AF224B234A1A60214B4FF41652C4
:1045A8005A601F4B00229A601D4B0022DA601C4B98
:1045B80000221A611A4B0C225A61194B00229A6187
:1045C800174B0022DA61164B00221A62144B0022A4
:1045D8005A62134B00229A62114807F027F80346E3
:1045E800002B01D0FFF73FF800210D4808F073F9C0
:1045F8000346002B01D0FFF736F80021084808F0E1
:10460800A8F90346002B01D0FFF72DF8044808F05D
:1046180029F90346002B01D0FFF725F800BF80BD1C
:10462800180D00200044004080B59EB000AF7860AF
:1046380007F1640300221A605A609A60DA601A610E
:1046480007F1100354220021184608F0A3FA7B68EA
:104658001B68384A934268D102233B610023BB613F
:1046680007F11003184602F071FA0346002B01D037
:10467800FEF7F9FF304B9B6D2F4A43F400339365E7
:104688002D4B9B6D03F40033FB60FB682A4BDB6CFE
:10469800294A43F00103D364274BDB6C03F0010381
:1046A800BB60BB680C237B660223BB660023FB66EA
:1046B80000233B6707237B6707F1640319464FF024
:1046C800904002F091FC1D4B1D4A1A601B4B1A22A8
:1046D8005A601A4B00229A60184B0022DA60174B76
:1046E80080221A61154B00225A61144B00229A61EC
:1046F800124B0022DA61114B00221A620F4802F0B5
:104708003FFE0346002B01D0FEF7ADFF7B680B4A46
:10471800C3F88020094A7B68936200220021262082
:1047280003F0EFFA262003F006FB00BF7837BD46FA
:1047380080BD00BF0044004000100240AC0D0020C6
:104748000800024080B400AF00BFFDE780B400AFAE
:1047580000BFFDE780B400AF00BFFDE780B400AF45
:1047680000BFFDE780B400AF00BFFDE780B400AF35
:1047780000BFBD465DF8047B704780B400AF00BF42
:10478800BD465DF8047B704780B400AF00BFBD46EE
:104798005DF8047B704780B500AF01F025FC00BFD1
:1047A80080BD000080B500AF024802F0CCFF00BF1A
:1047B80080BD00BFAC0D002080B500AF024802F0FC
:1047C800C2FF00BF80BD00BF7C09002080B500AFDC
:1047D800024806F07BFF00BF80BD00BF180D002017
:1047E80080B500AF4FF4806002F0B2FD4FF4006076
:1047F80002F0AEFD4FF4805002F0AAFD4FF40040E5
:1048080002F0A6FD00BF80BD80B500AF024806F0EB
:10481800ADF800BF80BD00BFB00B002080B500AF71
:10482800024806F049FA00BF80BD00BFE80B00202F
:1048380080B500AF034806F03FFA034803F0B7FA23
:1048480000BF80BD340C0020DC09002080B500AF1B
:10485800024804F00FF900BF80BD00BF500A0020D5
:1048680080B500AF024804F005F900BF80BD00BF65
:10487800500A002080B582B000AF114B1B6E104A61
:1048880043F0010313660E4B1B6E03F001037B60BC
:104898007B680B4B9B6D0A4A43F080539365084B2A
:1048A8009B6D03F080533B603B6801F011FC0220D4
:1048B80001F0FAFB03F03AF900BF0837BD4680BDA6
:1048C8000010024080B483B000AF786039607B6824
:1048D8009B6823F47C123B681A437B689A6000BF8C
:1048E8000C37BD465DF8047B704780B483B000AFD9
:1048F800786039607B689B6823F0E0723B681A43F4
:104908007B689A6000BF0C37BD465DF8047B704732
:1049180080B483B000AF78607B689B6803F0E07375
:1049280018460C37BD465DF8047B704780B487B0E5
:1049380000AFF860B9607A603B60FB6860331A4684
:10494800BB689B0013447B617B691A68084B134062
:104958007A6802F0F8413A680A43134343F0004288
:104968007B691A6000BF1C37BD465DF8047B704741
:1049780000F0FF0380B485B000AF786039607B68D1
:1049880060331A463B689B001344FB60FB681B6856
:1049980003F0F84318461437BD465DF8047B7047AA
:1049A80080B487B000AFF860B9607A60FB686033A4
:1049B8001A46BB689B0013447B617B691B6823F024
:1049C80000427B681A437B691A6000BF1C37BD46EA
:1049D8005DF8047B704780B487B000AFF860B960B9
:1049E8007A60FB6860331A46BB689B0013447B619E
:1049F8007B691B6823F080727B681A437B691A60A5
:104A080000BF1C37BD465DF8047B704780B487B093
:104A180000AFF860B9607A60FB6860331A46BB681B
:104A28009B0013447B617B691B6823F000727B68E1
:104A38001A437B691A6000BF1C37BD465DF8047BCA
:104A4800704780B483B000AF786039607B685B6979
:104A580023F000423B681A437B685A6100BF0C3759
:104A6800BD465DF8047B704780B483B000AF7860C2
:104A78007B68DB6803F44063002B01D1012300E06D
:104A8800002318460C37BD465DF8047B704780B498
:104A980087B000AFF860B9607A60FB6830331A46B7
:104AA800BB681B0A9B0003F00C0313447B617B6902
:104AB8001A68BB6803F01F031F2101FA03F3DB43E5
:104AC8001A407B689B0E03F01F01BB6803F01F03AD
:104AD80001FA03F31A437B691A6000BF1C37BD460D
:104AE8005DF8047B704780B487B000AFF860B960A8
:104AF8007A60FB6814331A46BB685B0E9B0003F0B0
:104B0800040313447B617B691A68BB681B0D03F0BF
:104B18001F03072101FA03F3DB431A40BB681B0D8F
:104B280003F01F03796801FA03F31A437B691A60DB
:104B380000BF1C37BD465DF8047B704780B485B064
:104B480000AFF860B9607A60FB68D3F8B020BB6842
:104B5800C3F31203DB431A407B6803F018030849C8
:104B6800D940BB680B40C3F312031A43FB68C3F870
:104B7800B02000BF1437BD465DF8047B704700BF06
:104B8800FFFF070080B483B000AF78607B689B6844
:104B980003F01F0318460C37BD465DF8047B7047C9
:104BA80080B483B000AF78607B689B6823F02043B3
:104BB80023F03F037A68936000BF0C37BD465DF869
:104BC800047B704780B483B000AF78607B689B68D3
:104BD80003F00053B3F1005F01D1012300E000238B
:104BE80018460C37BD465DF8047B704780B483B027
:104BF80000AF78607B689B6823F0104323F03F0385
:104C080043F080527B689A6000BF0C37BD465DF860
:104C1800047B704780B483B000AF78607B689B6882
:104C280003F08053B3F1805F01D1012300E000233A
:104C380018460C37BD465DF8047B704780B483B0D6
:104C480000AF78607B689B6823F0004323F03F0344
:104C580043F001027B689A6000BF0C37BD465DF8DF
:104C6800047B704780B483B000AF78607B689B6832
:104C780023F0004323F03F0343F002027B689A606D
:104C880000BF0C37BD465DF8047B704780B483B025
:104C980000AF78607B689B6803F00103012B01D1AA
:104CA800012300E0002318460C37BD465DF8047B5D
:104CB800704780B483B000AF78607B689B6803F06E
:104CC8000203022B01D1012300E0002318460C3710
:104CD800BD465DF8047B704780B483B000AF786050
:104CE8007B689B6823F0004323F03F0343F00402F2
:104CF8007B689A6000BF0C37BD465DF8047B70473F
:104D080080B483B000AF78607B689B6803F00403CD
:104D1800042B01D1012300E0002318460C37BD46BF
:104D28005DF8047B704780B483B000AF78607B681F
:104D38009B6803F00803082B01D1012300E000233E
:104D480018460C37BD465DF8047B704790B589B0AE
:104D580000AF78600023FB770023FB607B68002BA3
:104D680001D10123A9E17B685B69002B7B68DB6DBE
:104D7800002B09D17868FEF7A3FD7B6800221A662C
:104D88007B68002283F858207B681B681846FFF769
:104D980019FF0346002B04D07B681B681846FFF7F1
:104DA800FFFE7B681B681846FFF734FF0346002B9D
:104DB80015D17B681B681846FFF718FF9C4B1B68CA
:104DC8009B099C4AA2FB03239B0901335B00FB6000
:104DD80002E0FB68013BFB60FB68002BF9D17B68B4
:104DE8001B681846FFF716FF0346002B0DD17B689A
:104DF800DB6D43F010027B68DA657B681B6E43F05D
:104E080001027B681A660123FB777B681B681846DA
:104E1800FFF776FF78617B68DB6D03F01003002BEA
:104E280040F042817B69002B40F03E817B68DB6D5E
:104E380023F4817343F002027B68DA657B681B68A0
:104E48001846FFF723FF0346002B41D17B681B68F8
:104E5800B3F1A04F04D07B681B68774A93420FD107
:104E68004FF0A040FFF712FF04467348FFF70EFF0C
:104E780003462343002B0CBF01230023DBB212E0BF
:104E88006E48FFF703FF04466D48FFF7FFFE034631
:104E98001C436C48FFF7FAFE03462343002B0CBF64
:104EA80001230023DBB2002B12D07B681B68B3F10F
:104EB800A04F04D07B681B685F4A934201D1624AC5
:104EC80000E0624A7B685B6819461046FFF7FAFC07
:104ED8007B685B7F5A037B68DB6B1A437B68DB6804
:104EE8001A437B689B681A437B6893F824301B0439
:104EF8001343BB617B6893F82430012B06D17B6890
:104F08009B6A013B5B04BA691343BB617B68DB6A3C
:104F1800002B09D07B68DB6A03F478727B681B6B13
:104F28001343BA691343BB617B681B68DA68484B53
:104F380013407A681268B9690B43D3607B681B68B1
:104F48001B6923F040617B685A6B7B681B680A43C6
:104F58001A617B681B681846FFF7E5FE38617B69B4
:104F6800002B7FD13B69002B7CD17B681B7F9A0388
:104F78007B6893F838305B001343BB617B681B6820
:104F8800DB6823F4804323F002037A681268B96966
:104F98000B43D3607B681B69002B17D07B681B68A9
:104FA8001A697B681B6842F480321A617B681B6847
:104FB800D3F8C03023F47F5323F03F037A68116994
:104FC8007A6812680B43C2F8C03013E07B681B682C
:104FD8001A697B681B6822F480321A617B681B6837
:104FE800D3F8C0307A68126823F47F5323F03F0364
:104FF800C2F8C0307B6893F84030012B2AD17B6817
:105008001B681B6923F4FF6323F004037A68516C5F
:105018007A68926C11437A68D26C11437A68126D7F
:105028000A431A437B681B6842F001021A6119E0BF
:1050380010030020632D3E050001005000040050BD
:105048000005005000060050000300500007005003
:105058000740F0FF7B681B681A697B681B6822F0B1
:1050680001021A617B685B69012B0CD17B681B68A4
:105078001B6B23F00F017B681B6A5A1E7B681B6839
:105088000A431A6307E07B681B681A6B7B681B6816
:1050980022F00F021A637B68DB6D23F0030343F0F1
:1050A80001027B68DA6507E07B68DB6D43F010027C
:1050B8007B68DA650123FB77FB7F18462437BD46FA
:1050C80090BD00BF80B586B000AFF860B9607A6067
:1050D800FB681B68B3F1A04F04D0FB681B685A4AF1
:1050E800934201D1594B00E0594B1846FFF74AFD4E
:1050F8003861FB681B681846FFF702FE0346002B61
:1051080040F09B80FB6893F85830012B01D10223B3
:1051180096E0FB68012283F85820FB681B684D4A1B
:10512800934208D03B69002B05D03B69052B02D080
:105138003B69092B7AD1F86800F0ECFC0346FB7553
:10514800FB7D002B6DD1FB68DB6D23F4706323F0CE
:10515800010343F48072FB68DA65FB681B683A4A0E
:10516800934209D0FB681B683B4A934202D0FB6814
:105178001B6803E0394B01E04FF0A043FA6812685E
:10518800934202D03B69002B05D1FB68DB6D23F409
:105198008012FB68DA65FB68DB6D03F48053002B33
:1051A80006D0FB681B6E23F00602FB681A6602E055
:1051B800FB6800221A66FB685B6D294ADA62FB68A5
:1051C8005B6D284A1A63FB685B6D274A5A63FB6864
:1051D8001B681C221A60FB68002283F85820FB68B1
:1051E8001B685A68FB681B6842F010025A60FB682B
:1051F8001B68DA68FB681B6842F00102DA60FB682A
:10520800586DFB681B6840331946BA687B6802F022
:105218005FF90346FB75FB681B681846FFF75CFDE2
:105228000DE0FB68002283F8582008E00123FB7595
:10523800FB68002283F8582001E00223FB75FB7D00
:1052480018461837BD4680BD0001005000030050C5
:1052580000070050000600500005005000040050F0
:10526800075D0008DF5D0008FB5D000880B483B0BF
:1052780000AF786000BF0C37BD465DF8047B70470F
:1052880080B483B000AF786000BF0C37BD465DF8CE
:10529800047B704780B5B6B000AF786039600023F2
:1052A80087F8D7300023FB607B6893F85830012BD0
:1052B80002D1022300F013BC7B68012283F8582036
:1052C8007B681B681846FFF71BFD0346002B40F060
:1052D800F3837B6818683B6859683B681B681A4603
:1052E800FFF7D5FB7B681B681846FFF709FDC7F871
:1052F800D0007B681B681846FFF715FDC7F8CC007F
:10530800D7F8D030002B40F0D981D7F8CC30002B1B
:1053180040F0D4813B689B68B3F1004F0FD17B68A4
:1053280018683B681B6800221946FFF7DCFB7B689E
:105338001B684FF000411846FFF783FB0EE07B68BF
:1053480018683B6819683B689B681A46FFF7CBFBEF
:105358007B681B6800211846FFF773FB3B685A6996
:105368007B681B68DB68DB0803F003035B0002FA59
:1053780003F3C7F8C8303B681B69042B22D07B684D
:1053880018683B6819693B681A68D7F8C830FFF78E
:10539800CDFA7B6818683B6819693B689B691A46AF
:1053A800FFF719FB7B6818683B6819693B681B7F26
:1053B800012B02D14FF0007300E000231A46FFF7DB
:1053C80025FB7BE17B681B6800211846FFF7D2FAB2
:1053D8000346C3F31203002B0AD17B681B68002124
:1053E8001846FFF7C7FA03469B0E03F01F021EE09C
:1053F8007B681B6800211846FFF7BCFA0346C7F80C
:10540800BC30D7F8BC3093FAA3F3C7F8C030D7F84C
:10541800C030C7F8B830D7F8B830002B01D12023F6
:1054280004E0D7F8B830B3FA83F3DBB21A463B6826
:105438001B68C3F31203002B05D13B681B689B0E46
:1054480003F01F0318E03B681B68C7F8B030D7F8B3
:10545800B03093FAA3F3C7F8AC30D7F8AC30C7F83C
:10546800B430D7F8B430002B01D1202304E0D7F8AA
:10547800B430B3FA83F3DBB29A4206D17B681B6877
:10548800002200211846FFF78BFA7B681B68012170
:105498001846FFF76FFA0346C3F31203002B0AD12D
:1054A8007B681B6801211846FFF764FA03469B0EC8
:1054B80003F01F021EE07B681B6801211846FFF7F6
:1054C80059FA0346C7F8A430D7F8A43093FAA3F3DF
:1054D800C7F8A030D7F8A030C7F8A830D7F8A83058
:1054E800002B01D1202304E0D7F8A830B3FA83F3C6
:1054F800DBB21A463B681B68C3F31203002B05D1C5
:105508003B681B689B0E03F01F0318E03B681B6891
:10551800C7F89830D7F8983093FAA3F3C7F89430BF
:10552800D7F89430C7F89C30D7F89C30002B01D1BD
:10553800202304E0D7F89C30B3FA83F3DBB29A4215
:1055480006D17B681B68002201211846FFF728FA5C
:105558007B681B6802211846FFF70CFA0346C3F361
:105568001203002B0AD17B681B6802211846FFF73B
:1055780001FA03469B0E03F01F021EE07B681B68BE
:1055880002211846FFF7F6F90346C7F88C30D7F81A
:105598008C3093FAA3F3C7F88830D7F88830C7F867
:1055A8009030D7F89030002B01D1202304E0D7F8B1
:1055B8009030B3FA83F3DBB21A463B681B68C3F337
:1055C8001203002B05D13B681B689B0E03F01F03D9
:1055D80016E03B681B68C7F88030D7F8803093FA2C
:1055E800A3F3FB67FB6FC7F88430D7F88430002B30
:1055F80001D1202304E0D7F88430B3FA83F3DBB277
:105608009A4206D17B681B68002202211846FFF7E0
:10561800C7F97B681B6803211846FFF7ABF90346F7
:10562800C3F31203002B0AD17B681B6803211846B9
:10563800FFF7A0F903469B0E03F01F0217E07B68F3
:105648001B6803211846FFF795F903467B677B6FB4
:1056580093FAA3F33B673B6FBB67BB6F002B01D18A
:10566800202303E0BB6FB3FA83F3DBB21A463B682F
:105678001B68C3F31203002B05D13B681B689B0E04
:1056880003F01F0311E03B681B68BB66BB6E93FA0F
:10569800A3F37B667B6EFB66FB6E002B01D1202398
:1056A80003E0FB6EB3FA83F3DBB29A4206D17B6860
:1056B8001B68002203211846FFF772F97B681B68F4
:1056C8001846FFF7E3FA0346002B40F03D817B685C
:1056D80018683B6819683B68DB681A46FFF72EFABA
:1056E8003B68DB68A24A934240F02E817B681868C9
:1056F8003B681B68C3F31203002B0BD13B681B6884
:105708009B0E013303F01F03092B94BF01230023D1
:10571800DBB219E03B681B68FB65FB6D93FAA3F3EA
:10572800BB65BB6D3B663B6E002B01D1202303E0BC
:105738003B6EB3FA83F3DBB2013303F01F03092B8B
:1057480094BF01230023DBB2002B79D03B681B6890
:10575800C3F31203002B07D13B681B689B0E013370
:105768009B0603F0F84215E03B681B683B653B6D00
:1057780093FAA3F3FB64FB6C7B657B6D002B01D173
:10578800202303E07B6DB3FA83F3DBB201339B067E
:1057980003F0F8423B681B68C3F31203002B09D1DE
:1057A8003B681B689B0E013303F01F03012101FABC
:1057B80003F317E03B681B687B647B6C93FAA3F3E5
:1057C8003B643B6CBB64BB6C002B01D1202303E022
:1057D800BB6CB3FA83F3DBB2013303F01F0301217F
:1057E80001FA03F342EA03013B681B68C3F312039F
:1057F800002B0AD13B681B689B0E013303F01F0284
:1058080013465B0013441B0518E03B681B68BB6329
:10581800BB6B93FAA3F37B637B6BFB63FB6B002B84
:1058280001D1202303E0FB6BB3FA83F3DBB201332E
:1058380003F01F0213465B0013441B050B437EE075
:105848003B681B68C3F31203002B07D13B681B6836
:105858009B0E01339B0603F0F84215E03B681B687A
:10586800FB62FB6A93FAA3F3BB62BB6A3B633B6BC5
:10587800002B01D1202303E03B6BB3FA83F3DBB2A7
:1058880001339B0603F0F8423B681B68C3F312031D
:10589800002B09D13B681B689B0E013303F01F03E3
:1058A800012101FA03F317E03B681B683B623B6A7E
:1058B80093FAA3F3FB61FB697B627B6A002B01D13E
:1058C800202303E07B6AB3FA83F3DBB2013303F0EE
:1058D8001F03012101FA03F342EA03013B681B6835
:1058E800C3F31203002B0DD13B681B689B0E0133D9
:1058F80003F01F0213465B0013441E3B1B0543F0D5
:1059080000731BE03B681B687B617B6993FAA3F318
:105918003B613B69BB61BB69002B01D1202303E0DC
:10592800BB69B3FA83F3DBB2013303F01F021346FA
:105938005B0013441E3B1B0543F000730B433A689E
:1059480092681946FFF7CFF83B681A68094B13406D
:10595800002B00F0BE807B681B68B3F1A04F04D019
:105968007B681B68044A93420AD1044B09E000BFD4
:1059780000007F4000000880000100500003005034
:10598800594B1846FEF7C4FFC7F8C4003B681B68AC
:10599800564A934204D03B681B68554A93423AD111
:1059A800D7F8C43003F40003002B34D17B681B689C
:1059B800B3F1A04F05D07B681B684E4A934240F074
:1059C80085807B681B68B3F1A04F04D07B681B6897
:1059D800494A934201D1494A00E0434AD7F8C430C2
:1059E80043F4000319461046FEF77FFF444B1B683B
:1059F8009B09444AA2FB03239B095A1C13465B00DC
:105A080013449B00FB6002E0FB68013BFB60FB6802
:105A1800002BF9D15AE03B681B683B4A934225D1D9
:105A2800D7F8C43003F08073002B1FD17B681B6844
:105A3800314A934204D17B681B68344A934247D069
:105A48007B681B68B3F1A04F04D07B681B682A4AA7
:105A5800934201D1294A00E0234AD7F8C43043F0E1
:105A6800807319461046FEF740FF31E03B681B681B
:105A7800274A93422DD1D7F8C43003F48003002B72
:105A880027D17B681B681C4A934222D07B681B681D
:105A9800B3F1A04F04D07B681B68174A934201D129
:105AA800164A00E0104AD7F8C43043F48003194678
:105AB8001046FEF71AFF0CE07B68DB6D43F020020E
:105AC8007B68DA65012387F8D73002E000BF00E081
