:020000040800F2
:1000000000000220B1B30008F94C0008014D0008BF
:10001000094D0008114D0008194D000800000000AE
:10002000000000000000000000000000214D00085A
:100030002F4D0008000000003D4D00084B4D00080A
:1000400001B4000801B4000801B4000801B40008BC
:1000500001B4000801B4000801B4000801B40008AC
:1000600001B40008574D000801B4000801B40008AD
:1000700001B4000801B4000801B4000801B400088C
:1000800001B4000801B4000801B4000801B400087C
:1000900001B4000801B4000801B4000801B400086C
:1000A00001B4000801B4000801B4000801B400085C
:1000B00001B4000801B4000801B4000801B400084C
:1000C00001B4000801B4000801B4000801B400083C
:1000D00001B4000801B4000801B4000801B400082C
:1000E000654D000801B4000801B4000801B400081F
:1000F00001B4000801B4000801B4000801B400080C
:1001000001B400087D4D0008914D000801B40008BD
:1001100001B4000801B40008A54D000801B40008AE
:10012000C14D000801B4000801B4000801B4000882
:1001300001B4000801B4000801B4000801B40008CB
:1001400001B4000801B4000801B4000801B40008BB
:1001500001B4000801B4000801B4000801B40008AB
:1001600001B4000801B4000801B4000801B400089B
:1001700001B4000801B4000801B4000801B400088B
:1001800001B4000801B4000801B4000801B400087B
:1001900001B400080000000001B4000801B4000828
:1001A00001B4000801B4000801B4000801B400085B
:1001B00001B4000801B4000801B4000801B400084B
:1001C00001B4000801B4000801B4000801B400083B
:0801D00001B4000801B40008AD
:1001E00010B5054C237833B9044B13B10448AFF371
:1001F00000800123237010BD88060020000000004D
:1002000020EA000808B5034B1BB103490348AFF3CC
:10021000008008BD000000008C06002020EA0008D5
:1002200001F0FF01102A2BDB10F0070F08D010F8A7
:10023000013B013A8B422DD010F0070F42B3F6D1AB
:10024000F0B441EA012141EA014122F007047FF0C4
:1002500000070023F0E80256083C85EA010586EA1B
:10026000010685FA47F5A3FA87F586FA47F6A5FA57
:1002700087F68EB9EED1F0BC01F0FF0102F0070263
:1002800032B110F8013B013A83EA010313B1F8D10E
:100290000020704701387047002D06BF35460338EF
:1002A000073815F0010F07D1013015F4807F02BF28
:1002B000013015F4C03F0130F0BC0138704700BF79
:1002C000034613F8012B002AFBD1181A0138704796
:1002D00081F0004102E000BF83F0004330B54FEAF7
:1002E00041044FEA430594EA050F08BF90EA020F64
:1002F0001FBF54EA000C55EA020C7FEA645C7FEAF7
:10030000655C00F0E2804FEA5454D4EB5555B8BF19
:100310006D420CDD2C4480EA020281EA030382EA8A
:10032000000083EA010180EA020281EA0303362D1C
:1003300088BF30BD11F0004F4FEA01314FF4801CEF
:100340004CEA113102D0404261EB410113F0004F01
:100350004FEA03334CEA133302D0524263EB4303B8
:1003600094EA050F00F0A780A4F10104D5F1200E56
:100370000DDB02FA0EFC22FA05F2801841F10001B1
:1003800003FA0EF2801843FA05F359410EE0A5F185
:1003900020050EF1200E012A03FA0EFC28BF4CF0B6
:1003A000020C43FA05F3C01851EBE37101F000456C
:1003B00007D54FF0000EDCF1000C7EEB00006EEB79
:1003C0000101B1F5801F1BD3B1F5001F0CD3490803
:1003D0005FEA30004FEA3C0C04F101044FEA44525A
:1003E00012F5800F80F09A80BCF1004F08BF5FEAE1
:1003F000500C50F1000041EB045141EA050130BDC1
:100400005FEA4C0C404141EB0101013C28BFB1F5D2
:10041000801FE9D291F0000F04BF01460020B1FA1D
:1004200081F308BF2033A3F10B03B3F120020CDAF0
:100430000C3208DD02F1140CC2F10C0201FA0CF0CE
:1004400021FA02F10CE002F11402D8BFC2F1200C33
:1004500001FA02F120FA0CFCDCBF41EA0C019040E9
:10046000E41AA2BF01EB0451294330BD6FEA040432
:100470001F3C1CDA0C340EDC04F11404C4F120021D
:1004800020FA04F001FA02F340EA030021FA04F32F
:1004900045EA030130BDC4F10C04C4F1200220FA86
:1004A00002F001FA04F340EA0300294630BD21FAC4
:1004B00004F0294630BD94F0000F83F4801306BF8A
:1004C00081F480110134013D4EE77FEA645C18BF7E
:1004D0007FEA655C29D094EA050F08BF90EA020F15
:1004E00005D054EA000C04BF1946104630BD91EA0D
:1004F000030F1EBF0021002030BD5FEA545C05D110
:100500004000494128BF41F0004130BD14F580044E
:100510003CBF01F5801130BD01F0004545F0FE41C2
:1005200041F470014FF0000030BD7FEA645C1ABFF7
:10053000194610467FEA655C1CBF0B46024650EA2E
:10054000013406BF52EA033591EA030F41F400215A
:1005500030BD00BF90F0000F04BF0021704730B5E0
:100560004FF4806404F132044FF000054FF00001B5
:1005700050E700BF90F0000F04BF0021704730B576
:100580004FF4806404F1320410F0004548BF40424B
:100590004FF000013EE700BF42004FEAE2014FEAA0
:1005A00031014FEA02701FBF12F07F4393F07F4F7B
:1005B00081F06051704732F07F4208BF704793F07E
:1005C0007F4F04BF41F40021704730B54FF4607491
:1005D00001F0004521F000411CE700BF50EA010294
:1005E00008BF704730B54FF000050AE050EA01023D
:1005F00008BF704730B511F0004502D5404261EBAD
:1006000041014FF4806404F132045FEA915C3FF4ED
:10061000D8AE4FF003025FEADC0C18BF03325FEA8A
:10062000DC0C18BF033202EBDC02C2F1200300FA3B
:1006300003FC20FA02F001FA03FE40EA0E0021FA60
:1006400002F11444BDE600BF70B54FF0FF0C4CF44E
:10065000E06C1CEA11541DBF1CEA135594EA0C0F00
:1006600095EA0C0F00F0DEF82C4481EA030621EA3B
:100670004C5123EA4C5350EA013518BF52EA033576
:1006800041F4801143F4801338D0A0FB02CE4FF028
:100690000005E1FB02E506F00042E0FB03E54FF058
:1006A0000006E1FB03569CF0000F18BF4EF0010E50
:1006B000A4F1FF04B6F5007F64F5407404D25FEA4C
:1006C0004E0E6D4146EB060642EAC62141EA5551FF
:1006D0004FEAC52040EA5E504FEACE2EB4F1FD0C41
:1006E00088BFBCF5E06F1ED8BEF1004F08BF5FEABF
:1006F000500E50F1000041EB045170BD06F0004671
:1007000046EA010140EA020081EA0301B4EB5C041D
:10071000C2BFD4EB0C0541EA045170BD41F4801115
:100720004FF0000E013C00F3AB8014F1360FDEBF3A
:10073000002001F0004170BDC4F10004203C35DA16
:100740000C341BDC04F11404C4F1200500FA05F399
:1007500020FA04F001FA05F240EA020001F000423A
:1007600021F0004110EBD37021FA04F642EB0601B0
:100770005EEA430E08BF20EAD37070BDC4F10C04DA
:10078000C4F1200500FA04F320FA05F001FA04F29E
:1007900040EA020001F0004110EBD37041F100018A
:1007A0005EEA430E08BF20EAD37070BDC4F1200595
:1007B00000FA05F24EEA020E20FA04F301FA05F2FD
:1007C00043EA020321FA04F001F0004121FA04F2A5
:1007D00020EA020000EBD3705EEA430E08BF20EA75
:1007E000D37070BD94F0000F0FD101F000464000AF
:1007F00041EB010111F4801F08BF013CF7D041EA31
:10080000060195F0000F18BF704703F00046520034
:1008100043EB030313F4801F08BF013DF7D043EA05
:100820000603704794EA0C0F0CEA135518BF95EABB
:100830000C0F0CD050EA410618BF52EA4306D1D142
:1008400081EA030101F000414FF0000070BD50EA61
:10085000410606BF1046194652EA430619D094EAEB
:100860000C0F02D150EA013613D195EA0C0F05D1D5
:1008700052EA03361CBF104619460AD181EA030129
:1008800001F0004141F0FE4141F470014FF00000E1
:1008900070BD41F0FE4141F4780170BD70B54FF07C
:1008A000FF0C4CF4E06C1CEA11541DBF1CEA1355FC
:1008B00094EA0C0F95EA0C0F00F0A7F8A4EB0504DE
:1008C00081EA030E52EA03354FEA013100F08880D5
:1008D0004FEA03334FF0805545EA131343EA12639E
:1008E0004FEA022245EA111545EA10654FEA002653
:1008F0000EF000419D4208BF964244F1FD0404F50C
:10090000407402D25B084FEA3202B61A65EB030567
:100910005B084FEA32024FF480104FF4002CB6EB24
:10092000020E75EB030E22BFB61A754640EA0C00A4
:100930005B084FEA3202B6EB020E75EB030E22BFE4
:10094000B61A754640EA5C005B084FEA3202B6EB25
:10095000020E75EB030E22BFB61A754640EA9C00E4
:100960005B084FEA3202B6EB020E75EB030E22BFB4
:10097000B61A754640EADC0055EA060E18D04FEA72
:10098000051545EA16754FEA06164FEAC30343EA12
:1009900052734FEAC2025FEA1C1CC0D111F4801FDF
:1009A0000BD141EA00014FF000004FF0004CB6E7D8
:1009B00011F4801F04BF01430020B4F1FD0C88BF77
:1009C000BCF5E06F3FF6AFAEB5EB030C04BFB6EB82
:1009D000020C5FEA500C50F1000041EB045170BD75
:1009E0000EF0004E4EEA113114EB5C04C2BFD4EBA2
:1009F0000C0541EA045170BD41F480114FF0000E26
:100A0000013C90E645EA060E8DE60CEA135594EAA1
:100A10000C0F08BF95EA0C0F3FF43BAF94EA0C0FA4
:100A20000AD150EA01347FF434AF95EA0C0F7FF419
:100A300025AF104619462CE795EA0C0F06D152EA6D
:100A400003353FF4FDAE1046194622E750EA410651
:100A500018BF52EA43067FF4C5AE50EA41047FF462
:100A60000DAF52EA43057FF4EBAE12E74FF0FF3CC7
:100A700006E000BF4FF0010C02E000BF4FF0010C98
:100A80004DF804CD4FEA410C7FEA6C5C4FEA430C11
:100A900018BF7FEA6C5C1BD001B050EA410C0CBF60
:100AA00052EA430C91EA030F02BF90EA020F0020C2
:100AB000704710F1000F91EA030F58BF994208BF29
:100AC00090422CBFD8176FEAE37040F001007047E6
:100AD0004FEA410C7FEA6C5C02D150EA013C07D13D
:100AE0004FEA430C7FEA6C5CD6D152EA033CD3D088
:100AF0005DF8040B704700BF8446104662468C4682
:100B00001946634600E000BF01B5FFF7B7FF0028B4
:100B100048BF10F1000F01BD4DF808EDFFF7F4FFDD
:100B20000CBF012000205DF808FB00BF4DF808ED68
:100B3000FFF7EAFF34BF012000205DF808FB00BF8B
:100B40004DF808EDFFF7E0FF94BF012000205DF8AD
:100B500008FB00BF4DF808EDFFF7CEFF94BF012062
:100B600000205DF808FB00BF4DF808EDFFF7C4FF5B
:100B700034BF012000205DF808FB00BF4FEA410CA4
:100B80007FEA6C5C02D150EA013C0AD14FEA430C87
:100B90007FEA6C5C02D152EA033C02D14FF00000C4
:100BA00070474FF0010070474FEA410212F5001202
:100BB00015D211D56FF47873B3EB625212D94FEAA4
:100BC000C12343F0004343EA505311F0004F23FA8E
:100BD00002F018BF404270474FF00000704750EAE3
:100BE000013005D111F0004008BF6FF000407047A0
:100BF0004FF00000704700BF80B483B000AF87EDB6
:100C0000010AD7ED017AF5EEC07AF1EE10FA02DDB5
:100C1000D7ED017A03E0D7ED017AF1EE677AB0EE15
:100C2000670A0C37BD465DF8047B704780B584B019
:100C300000AF786087ED000A7B68D3ED107AF5EE9F
:100C4000407AF1EE10FA02D0786800F03FF97B6844
:100C50003A685A627B685A697B689A617B681A694C
:100C60007B685A617B6893ED0A7A7B68D3ED097AD9
:100C700077EE677A7B68C3ED047A7B681B78002B7C
:100C80005DD17B6893ED047A7B68D3ED057A77EECE
:100C9000677AC7ED037A7B6893ED077A7B68D3EDBB
:100CA000026A7B68D3ED047A66EEA77A77EE277A3C
:100CB0007B68C3ED077A7B6893ED077A7B68D3ED99
:100CC000087AB4EEE77AF1EE10FA04DD7B681A6A6E
:100CD0007B68DA6114E07B6893ED077A7B68D3ED7B
:100CE000087AF1EE677AB4EEE77AF1EE10FA07D5FA
:100CF0007B68D3ED087AF1EE677A7B68C3ED077AFB
:100D00007B6893ED017A7B68D3ED047A27EE277A2E
:100D10007B68D3ED077A37EE277A7B68D3ED036AD9
:100D2000D7ED037A66EEA77A37EE277A7B68D3EDA4
:100D30000F7A77EE277A7B68C3ED0C7A3DE07B680B
:100D40001B78012B39D17B6893ED0C7A7B68D3ED4E
:100D5000016A7B6893ED046A7B68D3ED057A76EED1
:100D6000677A66EEA76A7B6893ED036A7B68D3EDCA
:100D7000045A7B68D3ED057A77EEA77A75EEE75AC9
:100D80007B68D3ED067A75EEA77A66EE277A76EE63
:100D9000A76A7B6893ED026A7B68D3ED047A66EEFE
:100DA000277A76EEA76A7B68D3ED0F7A76EEA77A7C
:100DB00077EE277A7B68C3ED0C7A7B689A6A7B684A
:100DC000DA627B6893ED0C7A7B68D3ED0D7AB4EE32
:100DD000E77AF1EE10FA04DD7B685A6B7B681A63E0
:100DE0000FE07B6893ED0C7A7B68D3ED0E7AB4EE5E
:100DF000E77AF1EE10FA00D403E07B689A6B7B6827
:100E00001A6300BF1037BD4680BD80B48DB000AFFF
:100E1000F8610B4687ED050AC7ED040A87ED031A52
:100E2000C7ED021A87ED012AC7ED002AFB76FB69A0
:100E3000FA7E1A70FB697A695A60FB693A699A60AE
:100E4000FB69FA68DA60FB69BA681A62FB697A685A
:100E50005A63FB693A689A63FB694FF00002DA61F2
:100E6000FB694FF000021A63FB694FF000025A62FF
:100E7000FB694FF000029A62FB694FF00002DA62F0
:100E8000FB694FF00002DA63FB694FF000021A645D
:100E9000FB691033BB62BB6AFB62BB6A0C337B62CB
:100EA00008E0FB6A3B623B6A4FF000021A60FB6A93
:100EB0000433FB62FA6A7B6A9A42F2D100BF00BF38
:100EC0003437BD465DF8047B7047000080B584B0C0
:100ED00000AF78604FF00003FB607B6893ED0B7A06
:100EE0007B68D3ED0A7A77EE677AB0EE670AFFF790
:100EF00083FEB0EE407A7B68D3ED107AB4EEE77AE9
:100F0000F1EE10FA94BF01230023DBB2002B2FD1A6
:100F10007B6893ED0B7A7B68D3ED0A7A77EE677A7C
:100F2000F5EEC07AF1EE10FA02DD134BFB600FE034
:100F30007B6893ED0B7A7B68D3ED0A7A77EE677A5C
:100F4000F5EEC07AF1EE10FA02D54FF07E53FB6059
:100F50007B6893ED0B7A7B68D3ED106AD7ED037A4B
:100F600066EEA77A77EE277A7B68C3ED0A7A00E00F
:100F700000BF1037BD4680BD000080BF80B487B081
:100F800000AF78607B684FF00002DA617B684FF059
:100F900000021A637B6810333B613B697B613B69EC
:100FA0000C33FB6008E07B69BB60BB684FF000025C
:100FB0001A607B6904337B617A69FB689A42F2D1DB
:100FC00000BF00BF1C37BD465DF8047B704780B58D
:100FD00084B000AF78603960786800F07FFA3B68D1
:100FE0001A687B681A603B685A687B685A603B687D
:100FF0001A897B681A813B689A7A7B689A723B6887
:101000009A897B689A813B681A697B681A613B6898
:101010001B7D082B02D83B681A7D00E008227B6804
:101020001A753B689A697B689A613B68DA697B68E4
:10103000DA613B6893F820207B6883F820203B68C6
:1010400093F821207B6883F821203B685A6A7B68EB
:101050005A620023FB7318E0FB7B7A680A339B001B
:1010600013444FF000021A60FB7B7A6812339B0036
:1010700013444FF000021A60FA7B7B68343200217F
:1010800023F81210FB7B0133FB73FB7B072BE3D9A7
:1010900000BF00BF1037BD4680BD80B582B000AF35
:1010A00078607B681B68002B01D100230BE07B6814
:1010B0001B687F21184605F0B9F90346002B0CBFC9
:1010C00001230023DBB218460837BD4680BD80B53A
:1010D00082B000AF7860786800F055F9034683F07D
:1010E0000103DBB2002B01D000234CE07B6893F8B6
:1010F0002030002B0AD07868FFF7CFFF034683F03B
:101100000103DBB2002B01D0012300E00023002B00
:1011100001D0002337E0786800F08CF9034683F0B3
:101120000103DBB2002B01D000232CE07B681868A0
:101130007B6859687B681B891A4604F073FA03467A
:10114000002B14BF01230023DBB2002B04D07868EE
:1011500000F0C4F9002316E07B6893F82130002BDF
:1011600010D07B681B685B6D002B0BD07B681B6805
:101170005B6D1B681A687B681B685B6D1B6822F0DF
:1011800004021A60012318460837BD4680BD80B5A9
:1011900088B000AF7860786800F022F9034683F0E9
:1011A0000103DBB2002B01D000239CE00023FB777E
:1011B0000023BB7790E07B681A69BB7F1B01134457
:1011C0003B613B691B78072B00F282803B695A78B0
:1011D0007B689B7A9A427BD20023BB610023FB820F
:1011E0000EE03B695A78FB8A1946786800F095F85A
:1011F00003461A46BB691344BB61FB8A0133FB8279
:101200007B689B89FA8A9A42EBD3BB6907EE903AD6
:10121000F8EE676A7B689B8907EE903AB8EE677ACA
:10122000C6EE877AC7ED037A3B691B781A46D7ED7D
:10123000037AFCEEE77A17EE903A99B27B68343283
:1012400023F812103B691B7B012B14D13B6993EDF2
:10125000017AD7ED037A27EE277A3B69D3ED027A3C
:101260003B691B7877EE277A7A680A339B00134430
:10127000C3ED007A29E07B6893ED067AD7ED037A17
:1012800067EE276A7B6893ED077AC6EE877AC7ED2B
:10129000027A3B691B787A6812339B001344BA6860
:1012A0001A603B6993ED017AD7ED027A27EE277A2F
:1012B0003B69D3ED027A3B691B7877EE277A7A682F
:1012C0000A339B001344C3ED007A0123FB7700E04F
:1012D00000BFBB7F0133BB777B681B7DBA7F9A421F
:1012E000FFF469AFFB7F18462037BD4680BD80B450
:1012F00083B000AF78600B46FB70FB78072B05D8F6
:10130000FA787B68343233F8123000E00023184654
:101310000C37BD465DF8047B704780B485B000AFE4
:1013200078600B467B8013467B707B685B68002B84
:1013300009D07B689B7A7A789A4204D27B689B8931
:101340007A889A4201D3002317E07B689B7A1A4679
:101350007B8813FB02F39AB27B789BB21344FB8128
:101360007B681B89FA899A4206D27B685A68FB8996
:101370005B0013441B8800E0002318461437BD4669
:101380005DF8047B704780B483B000AF78607B6801
:101390001B68002B1DD07B685B68002B19D07B6815
:1013A0001B89002B15D07B689B7A002B11D07B68A2
:1013B0009B89002B0DD07B681A897B689B7A194624
:1013C0007B689B8911FB03F39BB29A4201D30123F3
:1013D00000E0002318460C37BD465DF8047B7047DB
:1013E00080B582B000AF78607868FFF7CCFF034625
:1013F00083F00103DBB2002B0FD17B681B69002B4C
:101400000BD07B681B7D002B07D07B68D3ED077A60
:10141000F5EEC07AF1EE10FA01D8012300E00023C6
:10142000002B01D0002300E0012318460837BD46F9
:1014300080BD000080B48BB000AF78607B681B6813
:10144000002B01D100233EE0224BFB61214B7B624C
:10145000214BBB6119E07B6ABB60BB681B687A6883
:101460009A420AD0BB681B68002B0BD0BB681B6874
:101470001A687B681B689A4204D1BB687A681A6054
:10148000012320E07B6A04337B627A6ABB699A425B
:10149000E1D1104B7B610F4B3B620F4B3B610DE089
:1014A0003B6AFB60FB681B68002B04D1FB687A6811
:1014B0001A60012307E03B6A04333B623A6A3B69E6
:1014C0009A42EDD1002318462C37BD465DF8047BC7
:1014D000704700BFA4060020C406002080B487B077
:1014E00000AF78600F4B3B610E4B7B610E4BFB6096
:1014F0000CE07B69BB60BB681B687A689A4202D1CA
:10150000BB6800221A607B6904337B617A69FB68DF
:101510009A42EED100BF00BF1C37BD465DF8047B88
:10152000704700BFA4060020C406002080B487B026
:1015300000AF0346FB710F4B3B610E4B7B610E4BC3
:10154000FB600BE07B69BB60BB681B78FA799A4251
:1015500001D1BB6807E07B6914337B617A69FB6862
:101560009A42EFD1002318461C37BD465DF8047B34
:10157000704700BF000000203C00002080B483B012
:1015800000AF786039607B681B8A002B01D1002393
:101590000BE07B681B8A1A463B68934203D37B6847
:1015A0001B8A013B00E03B6800BF18460C37BD4674
:1015B0005DF8047B7047000080B483B000AF87ED16
:1015C000010AD7ED017A9FED0F7AF4EEC77AF1EEBA
:1015D00010FA01D50C4B0BE0D7ED017A9FED0B7A99
:1015E000F4EEC77AF1EE10FA01DD094B00E07B68FA
:1015F00007EE903AB0EE670A0C37BD465DF8047B03
:10160000704700BFCDCCCC3DCDCCCC3D6666663FAF
:101610006666663F80B483B000AF0346FB71FB791A
:10162000002B08D00B4B1B68DA680A4B1B6842F092
:101630001002DA6007E0074B1B68DA68054B1B688D
:1016400022F01002DA6000BF0C37BD465DF8047B63
:10165000704700BFD84D002080B586B000AF7860DD
:101660007B681B6823F4C803002B01D0002340E0F3
:101670007B681B68214A13607B689B88002B2AD0FB
:101680007B689A881E4B1B685A617B689B885B0845
:101690009AB21B4B1B685A621A4B3B61194B7B6118
:1016A000194BFB6013E07B69BB607B681A68BB6801
:1016B0005B681340002B07D0BB681A787B689B8857
:1016C0001946104600F07CF87B6914337B617A6917
:1016D000FB689A42E7D17B681B7B1846FFF79AFFAD
:1016E0007B68D3ED027AB0EE670A00F06DF903462D
:1016F00000BF18461837BD4680BD00BFC406002095
:10170000D84D0020000000203C00002080B586B0AD
:1017100000AF78607B6803F48033002B04D04FF473
:101720008031124808F04BF8114B3B61104B7B6144
:10173000104BFB6010E07B69BB60BB685A687B683C
:101740001340002B05D0BB685B681946074808F0BA
:1017500036F87B6914337B617A69FB689A42EAD177
:1017600000BF00BF1837BD4680BD00BFD84D002068
:10177000000000203C00002080B582B000AF7860FF
:101780007B68002B03D07968034807F0BEFF00BFD9
:101790000837BD4680BD00BFD84D002080B582B05F
:1017A00000AF78607B68002B03D07968034807F0AE
:1017B000D9FF00BF0837BD4680BD00BFD84D00200F
:1017C00080B584B000AF03460A46FB711346BB8068
:1017D000FB791846FFF7AAFEF860FB68002B02D0E1
:1017E000BB88002B01D100230CE0FB68BA881A8269
:1017F000064B1968FB689B68BA88DB010B4494337D
:101800001A60012318461037BD4680BDD84D002010
:1018100080B588B000AF034687ED000AFB71FB7905
:101820001846FFF783FEF861FB69002B01D1002306
:1018300037E09FED1E1ADFED1E0A97ED000A00F05B
:1018400021F987ED060AFB691B8A7B617B6907EE3C
:10185000903AB8EE677AD7ED067A67EE277AFCEE13
:10186000E77A17EE903A3B617A693B699A4204D96C
:101870007A693B69D31A5B0800E00023FB60FA68D1
:101880003B691344BB60FB79FA680121184600F0FC
:1018900011F8FB79BA680421184600F00BF80346EA
:1018A00000BF18462037BD4680BD00BF3333733FAD
:1018B00000000000B0B586B000AF0346B9607A60A2
:1018C000FB73FB7B1846FFF731FE78617B69002BC9
:1018D00001D1002371E07B699B68062B2CD1BB688A
:1018E000012B08D1374B1C6879687869FFF746FEF1
:1018F0000346E36160E0BB68022B08D1314B1C68F2
:1019000079687869FFF73AFE0346636254E0BB6882
:10191000042B08D12B4B1C6879687869FFF72EFEE1
:101920000346A36248E0274B1C6879687869FFF793
:1019300025FE0346E3623FE0BB68012B0DD1214B3E
:101940001C687B699D6879687869FFF717FE024615
:10195000EB0123449C331A602EE0BB68022B0DD1AF
:10196000184B1C687B699D6879687869FFF706FEEB
:101970000246EB012344A4331A601DE0BB68042B2C
:101980000DD1104B1C687B699D6879687869FFF7F9
:10199000F5FD0246EB012344A8331A600CE0094B25
:1019A0001C687B699D6879687869FFF7E7FD0246E6
:1019B000EB012344AC331A60012318461837BD46A7
:1019C000B0BD00BFD84D002080B58AB000AF87ED14
:1019D000010A97ED010AFFF7EFFDF0EE407A274B81
:1019E000C3ED007A264B1B685B697B627B6A002B28
:1019F00002D145F68A037B62204BD3ED007AB6EE26
:101A0000007A67EE877AC7ED067A7B6A9B087B616E
:101A10007B6A07EE903AB8EE677AD7ED067A67EE02
:101A2000277AB6EE007A67EE877AFDEEE77A17EE50
:101A3000903A3B617A693B69D31A3B627A693B69A8
:101A40001344FB617B6A013BFB603B6A002B01DCBA
:101A500001233B62FA69FB689A4201DDFB68FB6186
:101A6000074B1B683A6ADA61054B1B68FA699A6290
:101A7000012318462837BD4680BD00BFC806002098
:101A8000D84D002080B485B000AF87ED030AC7EDC4
:101A9000020A87ED011A97ED037AD7ED027AB4EEC8
:101AA000E77AF1EE10FA01D5BB680BE097ED037A07
:101AB000D7ED017AB4EEE77AF1EE10FA01DD7B683A
:101AC00000E0FB6807EE903AB0EE670A1437BD46B7
:101AD0005DF8047B7047000080B584B000AFF8600B
:101AE000B9601346FB71FB68BA681A60FB68FA7943
:101AF0001A71F86800F05EF9FB68184A9A63FB688F
:101B0000164ADA63FB6840F60B12A3F84020FB6824
:101B100040F2B362A3F84220FB6803F158000123AE
:101B20000122022100F062FBFB6803F14400012363
:101B30000122022100F05AFB0021F86800F03CFB72
:101B4000074808F063FD064808F0B8FD044B1B6821
:101B500000225A6200BF1037BD4680BD00E0FB4442
:101B6000F04F002080B586B000AF78607B681B68BE
:101B7000002B00F008810023FB75DDE07B681A680C
:101B8000FB7D5B0013441B88FB81FB8907EE903AC9
:101B9000B8EEE77A7B68D3ED0E7AB4EEE77AF1EE31
:101BA00010FA15DD7B68D3ED0E7A9FED797A27EE7A
:101BB000877AFB8907EE903AF8EE677ADFED756A6F
:101BC00067EEA67A77EE277A7B68C3ED0E7A0DE092
:101BD0007B68D3ED0E7A9FED707A67EE877A9FED82
:101BE0006F7A77EE877A7B68C3ED0E7AFB8907EE12
:101BF000903AB8EEE77A7B68D3ED0F7AB4EEE77AE5
:101C0000F1EE10FA15D57B68D3ED0F7A9FED607A6F
:101C100027EE877AFB8907EE903AF8EE677ADFEDD8
:101C20005D6A67EEA67A77EE277A7B68C3ED0F7A56
:101C30000DE07B68D3ED0F7A9FED597A67EE877AD6
:101C40009FED587A77EE877A7B68C3ED0F7A7B68D1
:101C5000D3ED0E7A9FED547A67EE877A9FED537A33
:101C600077EE877AFCEEE77A17EE903A9AB27B68C5
:101C7000A3F840207B68D3ED0F7A9FED4B7A67EE97
:101C8000877A9FED4A7A77EE877AFCEEE77A17EE4D
:101C9000903A9AB27B68A3F842207B6803F1440033
:101CA0007B68B3F84030FA899A428CBF0123002345
:101CB000DBB2194600F0BBFA0346002B13D07B6859
:101CC0005833184600F0F4FA7B685B79002B0AD190
:101CD0007B6801225A710121786800F06DFA0121B8
:101CE000786800F0C7F87B6803F158007B68B3F8A8
:101CF0004230FA899A4234BF01230023DBB21946ED
:101D000000F095FA0346002B13D07B684433184645
:101D100000F0CEFA7B685B79012B0AD17B68002248
:101D20005A710021786800F047FA0021786800F0C5
:101D3000A1F8FB7D0133FB757B681B79FA7D9A4224
:101D4000FFF41CAF40F2DC533B617B68DB6E40F27A
:101D5000DB52934218D87B68DB6E5A1C7B68DA66CC
:101D60007B68DB6E40F2DC5293420DD17B6800222F
:101D700083F870207B68002283F871200C4B4FF4AD
:101D800080229A6100E000BF1837BD4680BD00BFC9
:101D9000CDCC4C3ECDCC4C3F52B87E3F333331415D
:101DA000A4707D3F333391413333333F00201744D8
:101DB0000008004880B48BB000AF78607B680022D8
:101DC0005A717B6800229A717B680022DA667B6810
:101DD000002283F870207B68002283F871207B68E2
:101DE0000733FB61FB697B62FB691433BB6107E06E
:101DF0007B6ABB60BB6800221A707B6A01337B621E
:101E00007A6ABB699A42F3D17B681B337B617B6939
:101E10003B627B690A333B6107E03B6AFB60FB681E
:101E200000221A703B6A01333B623A6A3B699A426C
:101E3000F3D100BF00BF2C37BD465DF8047B70476F
:101E400080B483B000AF78607B6893F87130184637
:101E50000C37BD465DF8047B704780B483B000AF9B
:101E600078607B68283318460C37BD465DF8047BE4
:101E70007047000080B584B000AF78600B46FB70FF
:101E8000144B1B685B6AFB60124B1B6800225A6292
:101E9000FB68C72B04D9FB6840F21452934207D960
:101EA0007B6800229A710C4B4FF480229A610EE0FD
:101EB000FB781946786800F011F8FB6840F2ED22D3
:101EC000934204D9FB781946786800F007F8103778
:101ED000BD4680BDF04F00200008004880B582B0AC
:101EE00000AF78600B46FB707B689B79132B16D88C
:101EF0007B689B791A46174B9B5CFA789A4206D10D
:101F00007B689B790133DAB27B689A7114E0124BDB
:101F10004FF480229A617B6800229A710CE07B6802
:101F20009B79143B7A681344FA78DA717B689B7961
:101F30000133DAB27B689A717B689B79282B05D1D3
:101F40007B6800229A71786800F04EF800BF08376D
:101F5000BD4680BD8CEA00080008004880B485B00A
:101F600000AF0346FB710B46BB7113467B71FB79D7
:101F70009AB2BB799BB25B009BB21343FB81FB8996
:101F80001B0A9AB2FB895340FB81FB891B099AB259
:101F9000FB895340FB81FB899B089AB2FB89534024
:101FA000FB81FB895B089AB2FB895340FB81FB896B
:101FB00003F001027B799A420CBF01230023DBB2BC
:101FC00018461437BD465DF8047B704780B483B073
:101FD00000AF786039607B683A685A6300BF0C379D
:101FE000BD465DF8047B704780B588B000AF78606F
:101FF0007B680022DA667B68012283F87020002368
:10200000FB7715E0FB7F5B0001337A681344DA79D4
:10201000FB7F01335B0079680B44DB799A4204D182
:102020007B68002283F87120B9E0FB7F0133FB77E6
:10203000FB7F082BE6D90023BB7718E0BB7F5B0052
:102040007A681344DA79BB7F5B00013379680B440B
:10205000DB799A4214BF01230023DAB2BB7F114619
:102060007A6813440A46DA76BB7F0133BB77BB7FBD
:10207000092BE3D97B68DB7EFB7500237B7700238C
:102080003B770FE03B7F01337A681344DB7E1A46CF
:102090003B7F02FA03F3DAB27B7F13437B773B7F0C
:1020A00001333B773B7F072BECD97B6893F82420E7
:1020B000797FFB7D1846FFF751FF034683F001034C
:1020C000DBB2002B04D07B68002283F8712066E02D
:1020D0007B7F07EE903AB8EE677ADFED326AC7EEA3
:1020E000267A9FED317A67EE877AC7ED047A4FF052
:1020F0000003BB617B685B6B002B2CD07B685B6B48
:10210000984787ED030AD7ED037A9FED287AF4EE1E
:10211000C77AF1EE10FA1EDDD7ED046A97ED037A67
:10212000C6EE877AC7ED067AD7ED067A9FED207A5C
:10213000F4EEC77AF1EE10FA08D4D7ED067AB7EECE
:10214000087AF4EEC77AF1EE10FA04DD7B6800221B
:1021500083F8712023E07B68FA7D83F828207B6870
:102160007A7F83F829207B683A69DA62D7ED067AAC
:10217000B6EE007A27EE877A7B68D3ED0C7AF6EE1E
:10218000006A67EEA67A77EE277A7B68C3ED0C7A51
:102190007B68012283F87120064B04229A61203764
:1021A000BD4680BD00007F43000016436F12833A96
:1021B000CDCCCC3D0008004880B483B000AF78603F
:1021C0000B46FB70FB78002B04D0074B4FF40072DA
:1021D0009A6103E0044B4FF000729A6100BF0C3724
:1021E000BD465DF8047B70470004004880B584B0AC
:1021F00000AFF860B9607A603B60FB68BA681A604B
:102200007B68002B01D07B6800E00123FA689360B3
:102210003B68002B01D03B6800E00123FA68D360E3
:10222000F86800F045F800BF1037BD4680BD80B4A7
:1022300085B000AF78600B46FB70FB78002B1BD09D
:102240007B685A687B681B689A4211D27B685A681F
:102250007B689B681344FB607B681B68FA689A4242
:1022600002D97B681B6800E0FB687A68536017E05E
:102270007B6801221A7413E07B685A687B68DB680C
:102280009A4207D97B685A687B68DB68D21A7B68F8
:102290005A6005E07B6800225A607B6800221A744D
:1022A0007B681B7C18461437BD465DF8047B70477D
:1022B00080B483B000AF78607B6800225A607B688E
:1022C00000221A7400BF0C37BD465DF8047B7047CE
:1022D00080B582B000AF87ED010A97ED010A09F0E1
:1022E00091F8F0EE407AB0EE670A0837BD4680BD3F
:1022F00080B582B000AF87ED010A97ED010A09F0C1
:10230000B9F8F0EE407AB0EE670A0837BD4680BDF6
:1023100080B483B000AF87ED010AD7ED017AF5EE06
:10232000C07AF1EE10FA01D80B4B0BE0D7ED017A31
:10233000B7EE007AF4EEC77AF1EE10FA01DB074B44
:1023400000E07B6807EE903AB0EE670A0C37BD46B6
:102350005DF8047B704700BFCDCCCC3D6666663F20
:1023600080B584B000AFF86087ED020AC7ED010ABE
:1023700097ED020AFFF7CCFFF0EE407AFB68C3ED61
:10238000007AFB687A685A60FB6801221A7200BF03
:102390001037BD4680BD80B485B000AF786087ED52
:1023A000000A7B681B7A83F00103DBB2002B01D0AB
:1023B0003B681AE07B6893ED007AD7ED007A27EE50
:1023C000277A7B68D3ED007AF7EE006A76EEE76A4B
:1023D0007B68D3ED017A66EEA77A77EE277AC7EDB0
:1023E000037A7B68FA685A60FB6807EE903AB0EEB1
:1023F000670A1437BD465DF8047B704780B584B02A
:1024000000AF78600B46FB70FB78FB73FB7B002B07
:1024100002D10123FB7304E0FB7B802B01D98023D5
:10242000FB737B68FA7B83F80621786800F06EF80E
:1024300000BF1037BD4680BD80B483B000AF786068
:102440000B467B807B6893F80631002B05D17B8897
:1024500007EE903AF8EE677A51E07B68D3F80031E6
:102460007A6892F8042111467A6832F811209A1A93
:102470007B68C3F800217B6893F8043119467B68B8
:102480007A8823F811207B68D3F800217B881A44CE
:102490007B68C3F800217B6893F804310133DAB21A
:1024A0007B6883F804217B6893F804217B6893F8A8
:1024B00006319A4203D37B68002283F804217B68AB
:1024C00093F805217B6893F806319A4207D27B681E
:1024D00093F805310133DAB27B6883F805217B6814
:1024E000D3F8003107EE903AF8EE676A7B6893F80C
:1024F000053107EE903AB8EE677AC6EE877AB0EE0D
:10250000670A0C37BD465DF8047B704780B485B020
:1025100000AF78607B680022C3F800217B6800224E
:1025200083F804217B68002283F805210023FB73D4
:1025300007E0FA7B7B68002123F81210FB7B013354
:10254000FB7397F90F30002BF3DA00BF00BF14378D
:10255000BD465DF8047B704780B58AB000AFF86077
:1025600087ED020AC7ED010A87ED001AD7ED017A5F
:102570009FED2F7A67EE876A97ED027AC6EE877A2B
:10258000C7ED097A97ED090AFFF7A2FE87ED080A61
:1025900097ED090AFFF7ACFE87ED070AD7ED007A41
:1025A00037EEA77AD7ED076AC6EE877AC7ED067AC7
:1025B000D7ED067AB7EE007A37EE877AF7EE006A43
:1025C000C6EE877AC7ED057AFB687A691A60D7ED9F
:1025D000087AB8EE007A27EE877AD7ED057A67EEAB
:1025E000277AFB68C3ED017AFB687A699A60D7EDB8
:1025F000087AB8EE007A27EE877AD7ED057A67EE8B
:10260000277AFB68C3ED037AB7EE007AD7ED067A36
:1026100037EE677AD7ED057A67EE277AFB68C3ED68
:10262000047AF86800F055F800BF2837BD4680BD31
:10263000DA0FC94080B485B000AF786087ED000A3A
:102640007B6893ED007AD7ED007A27EE277A7B68D6
:10265000D3ED016A7B68D3ED057A66EEA77A37EE93
:10266000277A7B68D3ED026A7B68D3ED067A66EE43
:10267000A77A37EE277A7B68D3ED036A7B68D3EDC0
:10268000077A66EEA77A37EE677A7B68D3ED046A3D
:102690007B68D3ED087A66EEA77A77EE677AC7EDA6
:1026A000037A7B685A697B689A617B683A685A61E9
:1026B0007B68DA697B681A627B68FA68DA61FB68B2
:1026C00007EE903AB0EE670A1437BD465DF8047B1A
:1026D000704780B483B000AF78607B684FF0000231
:1026E0005A617B684FF000029A617B684FF00002EC
:1026F000DA617B684FF000021A6200BF0C37BD46FA
:102700005DF8047B7047000080B582B000AF264BB7
:102710003B60A822002138680AF050FA3B68032287
:102720001A613B6803225A613B68204A9A613B6800
:102730001F4ADA613B684FF480621A623B680022EC
:102740009A623B6800225A623B680022DA623B6868
:10275000164A1A663B68174A5A663B6810229A6600
:102760003B6800221A673B680022DA663B68002259
:102770005A67BFF35F8F00237B600CE07B68C3F177
:102780000F030D4AD15C3A687B6813440A461A70FD
:102790007B6801337B607B680F2BEFD9BFF35F8FC2
:1027A00000BF0837BD4680BDCC06002038EA0008CF
:1027B00074070020740B0020A0EA000880B58AB0DE
:1027C00000AFF860B9607A6000233B62FB68DB68A9
:1027D000FB61FB681B69BB61BA69FB699A4205D959
:1027E000BA69FB69D31A013B7B6207E0FB689A6810
:1027F000B969FB69CB1A1344013B7B62FB689A6899
:10280000FB69D31A7A6A934228BF13467B627A6ABD
:102810007B68934228BF13467B62FB685A68FB695A
:1028200013447B617A6AB96878690AF046FA3A6AB1
:102830007B6A13443B62BA687B6A1344BB607A6864
:102840007B6AD31A7B60FA697B6A1344FB61FB687D
:102850009B68FA699A4201D10023FB61BFF35F8F45
:10286000FB68FA69DA607B68002BB2D13B6A1846D4
:102870002837BD4680BD80B588B000AFF860B9602C
:102880007A60FB68DB68FB61FB689A68FB69D31AB6
:10289000BB61BA697B689A4211D9FB685A68FB69C7
:1028A00013443B617A68B96838690AF006FABFF3E5
:1028B0005F8FFA697B681A44FB68DA601FE0BB69C6
:1028C0007B61FB685A68FB6913443B617A69B968AC
:1028D00038690AF0F2F97A68BB69D31A7B61FB6840
:1028E0005B683B61BA68BB6913447A691946386909
:1028F0000AF0E3F9BFF35F8FFB687A69DA6000BF23
:102900002037BD4680BD80B487B000AF78607B685B
:102910001B693B617B68DB68FB603A69FB689A4234
:1029200008D87B689A68FB68D21A3B691344013B5C
:102930007B6104E03A69FB68D31A013B7B617B69E8
:1029400018461C37BD465DF8047B704780B588B0DB
:1029500000AFF860B9607A60BB68BB61FB685A1C65
:1029600013465B001344DB001F4A13447B617B6901
:102970005B69022B29D0022B2ED8002B02D0012B11
:1029800013D029E07869FFF7BEFF38613A697B68A8
:102990009A4202D20023FB6121E07B68FB617A68E6
:1029A000B9697869FFF767FF19E07869FFF7ABFF4E
:1029B00038617A683B69934228BF1346FB61FA6924
:1029C000B9697869FFF757FF09E07A68B9697869EA
:1029D000FFF7F4FEF86102E00023FB6100BFFB6932
:1029E00018462037BD4680BDCC06002080B588B093
:1029F00000AFF860B9607A600E4BFB61FB691B7831
:102A0000DBB2532B01D0FFF77FFEEFF311834FF0C2
:102A1000200181F31188BB617A68B968F868FFF713
:102A200095FF7861BB6983F311887B69184620376D
:102A3000BD4680BDCC06002080B58AB000AFF860EE
:102A4000B9607A603B60204B3B623B6A1B78DBB22B
:102A5000532B01D0FFF758FE1B4BFB61FB68022B89
:102A60002AD8EFF311834FF0200181F31188BB6165
:102A7000FB685A1C13465B001344DB00FA691344DD
:102A80007B61FB68002B0ED07B69BA681A607B699A
:102A90007A685A607B693A689A607B6900221A6199
:102AA0007B690022DA607B693A6B5A61BB6983F308
:102AB000118800237B6202E04FF0FF337B627B6A68
:102AC00018462837BD4680BDCC06002080B500AF33
:102AD000FFF71AFE00BF80BD80B584B000AF7860FC
:102AE000164BDB68154A43F08073D360144B002209
:102AF0005A60134B1B68124A43F00103136004F041
:102B000023FBF8607B68FA681A60FB680D4AA2FB39
:102B100003239A097B685A60FB680B4AA2FB0323D4
:102B20009A0C7B689A607B680022DA60786800F013
:102B30000DF87B6818461037BD4680BDF0ED00E00B
:102B4000001000E0D34D621083DE1B4380B485B0DB
:102B500000AF7860154B1B78DBB2002B0CBF012354
:102B60000023DBB2002B1BD0104B01221A70104B3C
:102B70005B68FB607B681A69FB689A428CBF012323
:102B80000023DBB2002B04D07B68DB685A1C7B6817
:102B9000DA60074B5A687B681A61044B00221A708E
:102BA00000BF1437BD465DF8047B7047840B0020DE
:102BB000001000E080B500AF074B1B6803F0010375
:102BC000002B05D10548FFF787FF034B01221A6050
:102BD000024B184680BD00BFB00B0020880B0020C0
:102BE00080B483B000AFEFF310833B603B687B6041
:102BF00072B600BF7B6818460C37BD465DF8047B93
:102C0000704780B485B000AF78607B68FB60FB687C
:102C100083F3108800BF00BF1437BD465DF8047B06
:102C20007047000080B582B002AFFFF7C3FF0346D4
:102C30000C4A1360002300934FF480530A4A0B4957
:102C40000020FFF7F9FE0A4B00221A60094B002210
:102C50001A60094B00221A60084B00221A6000BF5C
:102C6000BD4680BDC43B0020C83B002044EA0008AC
:102C7000BC3B0020C03B0020B83B0020B43B002000
:102C800080B483B000AF78600B46FB707B68FA7845
:102C90001A707B68013318460C37BD465DF8047B1B
:102CA0007047000080B586B000AF786039603B683F
:102CB000002B05D130217868FFF7E2FF034631E0B1
:102CC0000023FB7519E03968184BA3FB0123DA08D0
:102CD00013469B0013445B00CA1AD3B23033DAB2F6
:102CE000FB7D591CF97518333B4403F80C2C3B68E9
:102CF0000E4AA2FB0323DB083B603B68002BE2D1BA
:102D00000CE0FB7D013BFB75FB7D18333B4413F866
:102D10000C3C19467868FFF7B3FF7860FB7D002B09
:102D2000EFD17B6818461837BD4680BDCDCCCCCCE2
:102D300080B58CB000AFF86087ED020A0B46FB71DE
:102D4000BB68FB62D7ED0B7AF5EEC07AF1EE10FAB4
:102D50000AD52D21F868FFF793FFF860D7ED0B7ABD
:102D6000F1EE677AC7ED0B7AD7ED0B7AFCEEE77AD6
:102D700017EE903ABB61B969F868FFF793FFF86006
:102D8000FB79002B01D1FB6868E02E21F868FFF782
:102D900077FFF860BB6907EE903AF8EE677A97ED37
:102DA0000B7A77EE677AC7ED0A7A002387F8273027
:102DB0000CE0D7ED0A7AB2EE047A67EE877AC7EDB7
:102DC0000A7A97F82730013387F8273097F82720B9
:102DD000FB799A42EDD3D7ED0A7AB6EE007A77EE18
:102DE000877AFCEEE77A17EE903A7B6101233B622B
:102DF0000123FB7708E03A6A13469B0013445B000B
:102E00003B62FB7F0133FB77FA7FFB799A42F2D377
:102E10000023BB771DE07A693B6AB2FBF3F1114BEB
:102E2000A3FB0123DA0813469B0013445B00CA1A74
:102E3000D3B23033DBB21946F868FFF721FFF860F0
:102E40003B6A084AA2FB0323DB083B62BB7F0133DA
:102E5000BB77BA7FFB799A42DDD3FB6818463037DF
:102E6000BD4680BDCDCCCCCC80B5A4B000AF7860E1
:102E700007F10C03C7F88C306321D7F88C00FFF7FB
:102E8000FFFEC7F88C006821D7F88C00FFF7F8FE2A
:102E9000C7F88C003A21D7F88C00FFF7F1FEC7F88D
:102EA0008C007B681B681946D7F88C00FFF7FAFE88
:102EB000C7F88C002C21D7F88C00FFF7E1FEC7F88B
:102EC0008C007B689B881946D7F88C00FFF7EAFED8
:102ED000C7F88C002C21D7F88C00FFF7D1FEC7F87B
:102EE0008C007B68DB881946D7F88C00FFF7DAFE88
:102EF000C7F88C002C21D7F88C00FFF7C1FEC7F86B
:102F00008C007B68D3ED027A0321B0EE670AD7F814
:102F10008C00FFF70DFFC7F88C002C21D7F88C0030
:102F2000FFF7AEFEC7F88C007B68D3ED037A032170
:102F3000B0EE670AD7F88C00FFF7FAFEC7F88C00EE
:102F40002C21D7F88C00FFF79BFEC7F88C007B681C
:102F5000D3ED047A0321B0EE670AD7F88C00FFF7AF
:102F6000E7FEC7F88C002C21D7F88C00FFF788FE0D
:102F7000C7F88C007B689B8A1946D7F88C00FFF74E
:102F800091FEC7F88C002C21D7F88C00FFF778FE53
:102F9000C7F88C007B689B7D1946D7F88C00FFF73B
:102FA00081FEC7F88C000D21D7F88C00FFF768FE72
:102FB000C7F88C000A21D7F88C00FFF761FEC7F82C
:102FC0008C0007F10C03D7F88C20D31A1A4607F1AE
:102FD0000C0319460020FFF709FD00BF9037BD46DE
:102FE00080BD000080B584B000AF1F4B1B68002B74
:102FF0000CBF01230023DBB2002B31D10023FB6087
:103000002AE0FFF7EDFDB860184B1B687B607B681A
:10301000002B03D1B868FFF7F4FD22E07B68013B89
:10302000124A1360124B1B683B60114B1B68013343
:10303000C3F308030E4A1360B868FFF7E2FD3A686D
:1030400013465B001344DB000A4A13441846FFF79B
:103050000BFFFB680133FB60FB680F2BD1D900E04D
:1030600000BF1037BD4680BDB43B0020B83B0020F8
:10307000C03B0020B40B002080B582B000AF786068
:103080007B680C4A93420ED10B4B1B6801330A4AF2
:103090001360094B1B68012B07D9074B00221A60EC
:1030A000FFF7A0FF02E000BF00E000BF0837BD4609
:1030B00080BD00BF584F0020C84B002080B500AF36
:1030C00000F00AF80346184600F08AF9F0EE407A5C
:1030D000B0EE670A80BD000080B400AF024B184616
:1030E000BD465DF8047B70473C000020B0B596B04B
:1030F00000AF78607B6808220021184609F05EFD69
:103100007B68083310220021184609F057FD7B68C0
:1031100003F5CA7324211846FFF770F97B6803F59D
:10312000277378211846FFF769F97B6803F56973FF
:10313000B1EE041ADFED520A9FED520A1846FFF76E
:103140000BFA7B684FF00002C3F8D4237B684FF082
:103150000002C3F8D8237B6803F5BE73DFED4A0A8B
:103160009FED4A0A1846FFF7FBF87B6803F5C47326
:10317000DFED450A9FED460A1846FFF7F1F878683B
:1031800000F0AAF8434B07F130041D460FCD0FC4E1
:103190000FCD0FC495E8030084E803003E4B3B636A
:1031A0007B687B6304233B87012387F83A30042341
:1031B000BB873A4B3B64012387F84430384BBB64F0
:1031C000384BFB647B68183307F130021146184610
:1031D000FDF7FDFE2F4B07F108041D460FCD0FC470
:1031E0000FCD0FC495E8030084E803002E4BBB60AD
:1031F0007B680833FB6008233B820223BB740423F3
:10320000BB822A4BBB6102233B77254B3B62254B9C
:103210007B627B68903307F1080211461846FDF780
:10322000D6FE00BF7B6818331846FDF736FF03460D
:1032300083F00103DBB2002BF4D100BF7B68903335
:103240001846FDF72AFF034683F00103DBB2002B8B
:10325000F4D17B6803F58473796804221846FEF77D
:103260003BFC7B6803F5847311491846FEF7AEFEFC
:10327000786800F01FF800BF5837BD46B0BD00BFEA
:1032800000007A440060EA46000000003333333F18
:10329000CDCCCC3D54EA0008CC4B0020B4EA000869
:1032A0008195534000F07F45384C0020C4EA000867
:1032B000BD30000880B582B000AF78607B681833FD
:1032C0001846FDF704FF7B6890331846FDF7FFFEB4
:1032D00000BF0837BD4680BD80B582B000AF7860C2
:1032E0007B6808220021184609F068FC7B680022F0
:1032F00083F8D0237B6803F5847379680422184629
:10330000FEF7EAFB00BF0837BD4680BD80B582B03E
:1033100000AF786039603B680E4A934214D17B68F5
:1033200090331846FDF733FF034683F00103DBB209
:10333000002B01D0002308E07B68903319467868A1
:1033400000F06EF8012300E0002318460837BD4660
:1033500080BD00BF384C002080B582B000AF7860DF
:103360007B6803F584731846FEF76AFD034618462A
:103370000837BD4680BD80B582B000AF78607B68FD
:1033800003F584731846FEF768FD03461B78002B8F
:1033900014BF01230023DBB218460837BD4680BDA9
:1033A00080B483B000AF78607B68D3F8D43307EE85
:1033B000903AB0EE670A0C37BD465DF8047B704763
:1033C00080B483B000AF78607B68D3F8D83307EE61
:1033D000903AB0EE670A0C37BD465DF8047B704743
:1033E00080B483B000AF78607B68D3F8DC3307EE3D
:1033F000903AB0EE670A0C37BD465DF8047B704723
:1034000080B582B000AF786039607B6803F5847363
:103410001846FEF7A7FB00BF0837BD4680BD000079
:1034200080B586B000AF786039607B681833194684
:103430007868FFF7E5FF02213868FDF758FF03467B
:10344000FB8201213868FDF752FF0346BB827B688F
:1034500003F52773BA8A11461846FEF7EDFFF0EE22
:10346000407A7B68C3EDF37A7B6803F5CA73FA8A06
:1034700011461846FEF7E0FFF0EE407A7B68C3ED98
:10348000F27A7B68D3EDF27A9FED241ADFED240AFD
:10349000B0EE670A00F04AF887ED040A7B68D3EDC6
:1034A000F37A9FED201ADFED200AB0EE670A00F0F4
:1034B0003DF887ED030A7B6803F5697397ED030A0E
:1034C0001846FFF7B7F887ED020A7B6803F5BE736D
:1034D00097ED040A1846FEF75EFFF0EE407A7B682F
:1034E000C3EDF57A7B6803F5C47397ED020A1846BD
:1034F000FEF751FFF0EE407A7B68C3EDF67A7B6809
:1035000093EDF57A7B68D3EDF67A67EE277A7B68E0
:10351000C3EDF77A00BF1837BD4680BD7A53113C22
:10352000ABE7243FA69BC43A9A089BBE80B485B003
:1035300000AF87ED030AC7ED020A87ED011A97ED88
:10354000037AD7ED017A27EE277AD7ED027A77EE64
:10355000277AB0EE670A1437BD465DF8047B7047E2
:1035600080B400AF024B1846BD465DF8047B70473F
:103570002004002090B587B000AF7860FFF7ACFD65
:1035800003461846FFF7B2FD7B68FEEE002AB6EE52
:10359000002ADFED231A9FED221ADFED220A9FEDAC
:1035A000200A01211846FDF730FCFFF78FFAFFF7DC
:1035B00039FB7B68012283F84C201B4B07F1080480
:1035C0000FCB84E80F0007F108031846FEF744F814
:1035D0007B6803F15000012302221921FEF706FE49
:1035E0007B6803F16400012302221921FEF7FEFD2E
:1035F0007B6803F17800012302223221FEF7F6FDF9
:103600007B68002283F848207B68012283F84B20E6
:10361000786800F07DF900BF1C37BD4690BD00BF43
:10362000000000006F12033B7CEA000880B582B006
:1036300000AF7860786800F0F7F97B6893F848305D
:10364000042B00F2858001A252F823F061360008B5
:103650006B36000873360008E1360008FB360008B8
:103660007B68012283F8482073E0786800F066F9EF
:103670006FE0B2EE040A786800F070F8FFF72CFDF6
:1036800003461846FFF768FE0346002B0AD0FFF7F3
:1036900023FD03461846FFF76EFE0346002B01D0BC
:1036A000012300E00023002B08D07B680022A3F850
:1036B0004E207B68032283F848204AE07B68B3F8F9
:1036C0004E30002B07D07B68B3F84E30013B9AB2E6
:1036D0007B68A3F84E207B68B3F84E30002B38E0AF
:1036E0007B68042283F848201B4BD3ED007AB0EEB0
:1036F000670A786800F032F82BE0FFF7EDFC03462C
:103700001846FFF729FE034683F00103DBB2002BC6
:103710000BD1FFF7E1FC03461846FFF72CFE0346EA
:1037200083F00103DBB2002B01D0012300E0002372
:10373000002B04D07B68012283F8482009E0064B67
:10374000D3ED007AB0EE670A786800F007F800E081
:1037500000BF0837BD4680BD1C04002090B583B073
:1037600000AF786087ED000A7B683A689A627C68EF
:10377000FFF7B2FC03461846FFF732FEF0EE407A40
:10378000B0EE670A2046FDF751FA7B6893ED117A97
:103790007B68D3ED0C6A9FED166AC6EE867A77EEEB
:1037A000277A7B68C3ED117A7B68D3ED117AF5EE49
:1037B000C07AF1EE10FA03D57B684FF000025A642C
:1037C0007B68D3ED117A9FED0B7AF4EEC77AF1EEB8
:1037D00010FA02DD7B68084A5A647B68D3ED117ADF
:1037E000B0EE670AFEF7F0F800BF0C37BD4690BD9B
:1037F00000007A446666663F6666663F80B582B0C2
:1038000000AF786039603B68044A934202D178681F
:10381000FFF70CFF00BF0837BD4680BD584F0020A2
:1038200080B582B000AF786039603B68094A934246
:103830000BD1386806F0D2FC7B68002283F84A205E
:103840007B68012283F8482000E000BF0837BD46AE
:1038500080BD00BFD44E002080B582B000AF78603C
:103860000B467B804FF48051204804F0F1F803466A
:10387000012B05D17B88B3F5805F01D1012300E0E6
:103880000023002B10D07B6893F84830002B28D100
:103890007B68012283F84820786800F039F87B685B
:1038A000012283F84B201CE008214FF0904004F0E7
:1038B000CFF80346012B04D17B88082B01D10123CB
:1038C00000E00023002B0DD07B6893F84830002BDC
:1038D00008D17B68012283F84820786800F018F846
:1038E00000E000BF0837BD4680BD00BF00080048AB
:1038F00080B582B000AF78603960FFF7EDFB03461A
:1039000039681846FFF702FD00BF0837BD4680BD85
:1039100080B582B000AF78607B6893F84930002BA7
:1039200006D1054806F03AFF7B68012283F849205A
:1039300000BF0837BD4680BD584F002080B582B01B
:1039400000AF7860FFF7C8FB03461846FFF7C4FCDA
:10395000FFF7C2FB03461846FFF7ACFC7B68012269
:1039600083F84C20786800F02BF87B680A4A5A6488
:103970007B68D3ED117AB0EE670AFEF725F87B6815
:103980004FF47A62A3F84E207B68022283F8482025
:1039900000BF0837BD4680BD3333333F80B582B0AA
:1039A00000AF7860B6EE000A0120FDF731FFB6EEF9
:1039B000000A0220FDF72CFF00BF0837BD4680BD7E
:1039C00080B582B000AF78604FF4C200FDF79EFE74
:1039D0007868FFF7E3FF4FF47060FDF7CDFE00BF9E
:1039E0000837BD4680BD000080B582B000AF78606A
:1039F0004FF4C200FDF78AFE9FED090AFDF7E4FFD0
:103A00004FF47060FDF7B8FE7868FFF7C7FF054B0D
:103A10001B684FF47A525A6200BF0837BD4680BD1A
:103A200000000000D84D002080B586B000AF78605F
:103A3000FFF752FB03461846FFF7B2FC87ED050A75
:103A4000FFF74AFB03461846FFF7BAFC87ED040A66
:103A5000D7ED057AB2EE0E7AF4EEC77AF1EE10FAEF
:103A60004CBF01230023FB73D7ED057AB3EE0E7A2A
:103A7000F4EEC77AF1EE10FACCBF01230023BB733A
:103A8000D7ED047AB1EE087AF4EEC77AF1EE10FAC7
:103A9000CCBF012300237B737B685033FA7B114634
:103AA0001846FEF7C4FB03463B737B686433BA7B5E
:103AB00011461846FEF7BBFB0346FB727B68783362
:103AC0007A7B11461846FEF7B2FB0346BB723B7B7E
:103AD000002B05D1FB7A002B02D1BB7A002B01D041
:103AE000012300E000237B727B7A002B15D07B68DA
:103AF00093F88C30002B10D17B68012283F88C2046
:103B00004FF47060FDF74AFE7B681846FDF736FA01
:103B10007B684FF000025A6411E07B7A83F0010366
:103B2000DBB2002B0BD07B6893F88C30002B06D0D7
:103B30007B68002283F88C207868FFF755FF00BF70
:103B40001837BD4680BD80B500AFFFF709FD0346BD
:103B50001846FFF70FFD00BF80BD80B582B000AFF3
:103B60007860FFF7FDFC034679681846FFF7C0FE52
:103B700000BF0837BD4680BD80B582B000AF786019
:103B8000FFF7EEFC034679681846FFF737FE7868C2
:103B9000FFF772FA00BF0837BD4680BD80B582B01E
:103BA00000AF7860FFF7DCFC034679681846FFF742
:103BB00037FE00BF0837BD4680BD80B582B000AF7C
:103BC0000346FB80FFF7CCFC0246FB8819461046F3
:103BD000FFF742FE00BF0837BD4680BD80B500AF8D
:103BE00002F08EFD00F056F800F0B2F800F0F6FB9F
:103BF00000F062F900F028FC00F05CFF00F0C4F96E
:103C000000F00AFF00F09EFE00F0C0FF00F088FF09
:103C100000F03CFB00F089F802F004FE02F012FE16
:103C20001B4B1B691A4A43F400631361184B9B68D2
:103C3000174A43F001039360154B9B68144A43F005
:103C400008039360124B9B68114A43F01003936082
:103C50000F4B9B680E4A43F0200393600C4B1B698B
:103C60000B4A43F400531361094B9B68084A43F025
:103C700000439360064B1B69054A43F08063136160
:103C80004FF4FA7002F0ACFDFFF75DFF00BFFDE7F7
:103C9000002004E080B594B000AF07F1180338228B
:103CA0000021184608F08AFF3B1D00221A605A6066
:103CB0009A60DA601A61002004F084F90923BB617C
:103CC0004FF48033FB610123FB6202237B630323F8
:103CD000BB630223FB6355233B6402237B64022303
:103CE000BB640223FB6407F11803184602F0DEFDF3
:103CF0000346002B01D000F024F80F237B60032340
:103D0000BB600023FB6000233B6100237B613B1D04
:103D10000421184603F0DCF80346002B01D000F024
:103D200010F800BF5037BD4680BD80B500AF0022FF
:103D30000021362004F0D5FA362004F0ECFA00BF5A
:103D400080BD80B400AF72B600BF00BFFDE70000C9
:103D500080B58AB000AF07F1140300221A605A60E0
:103D60009A60DA601A61514BDB6C504A43F02003D1
:103D7000D3644E4BDB6C03F020033B613B694B4B40
:103D8000DB6C4A4A43F00403D364484BDB6C03F01A
:103D90000403FB60FB68454BDB6C444A43F00103C2
:103DA000D364424BDB6C03F00103BB60BB683F4B49
:103DB000DB6C3E4A43F00203D3643C4BDB6C03F004
:103DC00002037B607B6800220421394803F058FE1F
:103DD00000224FF42071374803F052FE04237B6128
:103DE0000123BB610223FB6102233B6207F1140341
:103DF00019462F4803F0AAFC08237B614FF488136F
:103E0000BB610223FB6107F1140319464FF0904098
:103E100003F09CFC4FF450437B610323BB61002300
:103E2000FB6107F114031946224803F08FFC4FF49D
:103E3000C0537B614FF48813BB610223FB6107F120
:103E4000140319461A4803F081FC80237B61112377
:103E5000BB610023FB6102233B6207F11403194697
:103E6000144803F073FC4FF400737B610123BB61C2
:103E70000023FB6100233B6207F1140319460D4840
:103E800003F064FC00220021092004F02AFA092032
:103E900004F041FA00220021282004F022FA282010
:103EA00004F039FA00BF2837BD4680BD001002403B
:103EB000000800480004004880B588B000AF3B46C9
:103EC00020220021184608F079FE2C4B2C4A1A605B
:103ED0002A4B4FF440325A60284B00229A60274BFD
:103EE0000022DA60254B00221A61244B00225A611D
:103EF000224B08229A61214B00221A771F4B002285
:103F00005A771E4B01221A621C4B002283F8242090
:103F10001A4B4FF4D462DA62184B4FF480621A6382
:103F2000164B012283F83820144B4FF48052DA6389
:103F3000124B002283F84020104801F0B7F90346E5
:103F4000002B01D0FFF7FDFE0E4B3B6006237B608C
:103F50000223BB607F23FB6004233B6100237B6162
:103F60003B461946054801F045FC0346002B01D0AD
:103F7000FFF7E7FE00BF2037BD4680BDCC4B0020D9
:103F8000000100500008302E80B58CB000AF07F162
:103F9000240300221A605A609A603B1D20220021EF
:103FA000184608F00BFE3A4B3A4A1A60384B4FF469
:103FB00040325A60364B00229A60354B0022DA605C
:103FC000334B00221A61324B01225A61304B0822D6
:103FD0009A612F4B00221A772D4B00225A772C4BD7
:103FE00002221A622A4B002283F82420284B4FF425
:103FF000D462DA62264B4FF480621A63244B0122AA
:1040000083F83820224B4FF48052DA63204B002291
:1040100083F840201E4801F049F90346002B01D0E7
:10402000FFF78FFE00237B6207F12403194618482F
:1040300002F05EFA0346002B01D0FFF782FE164B1A
:104040007B600623BB600323FB607F233B6104236B
:104050007B610023BB613B1D19460D4801F0CAFB83
:104060000346002B01D0FFF76CFE0C4B7B600C234A
:10407000BB603B1D1946064801F0BCFB0346002B04
:1040800001D0FFF75EFE00BF3037BD4680BD00BFE8
:10409000384C0020000400502000F0140010603262
:1040A00080B5A0B000AF786007F16C0300221A6001
:1040B0005A609A60DA601A6107F1180354220021ED
:1040C000184608F07BFD7B681B68674A934260D105
:1040D0004FF40043BB614FF00053FB6507F1180339
:1040E000184603F0E5F80346002B01D0FFF729FE40
:1040F0005E4BDB6C5D4A43F40053D3645B4BDB6C7B
:1041000003F400537B617B69584BDB6C574A43F0E7
:104110000403D364554BDB6C03F004033B613B6940
:104120002023FB6603233B6700237B6707F16C03B7
:1041300019464F4803F00AFB4E4B4F4A1A604D4B4D
:1041400024225A604B4B00229A604A4B0022DA60CC
:10415000484B80221A61474B4FF480725A61454B9D
:104160004FF480629A61434B2022DA61414B4FF455
:1041700080521A623F4803F0B3FC0346002B01D083
:10418000FFF7DFFD7B683B4A5A653A4A7B689362DA
:1041900065E07B681B68394A934260D14FF48033F5
:1041A000BB614FF000433B6607F11803184603F06C
:1041B0007FF80346002B01D0FFF7C3FD2B4BDB6CD0
:1041C0002A4A43F48043D364284BDB6C03F48043D6
:1041D000FB60FB68254BDB6C244A43F00203D3648D
:1041E000224BDB6C03F00203BB60BB6842F20303AB
:1041F000FB6603233B6700237B6707F16C031946CB
:104200001F4803F0A3FA1F4B1F4A1A601D4B2522BB
:104210005A601C4B00229A601A4B0022DA60194B3C
:1042200080221A61174B4FF480725A61154B4FF47C
:1042300080629A61134B2022DA61124B4FF4405294
:104240001A62104803F04CFC0346002B01D0FFF724
:1042500078FD7B680B4A5A650A4A7B68936200BF07
:104260008037BD4680BD00BF0001005000100240F5
:1042700000080048A44C00201C0402400004005028
:1042800000040048044D00200804024080B58CB0B2
:1042900000AF3B4630220021184608F08FFC164B39
:1042A000164A1A60144804F050F80346002B01D057
:1042B000FFF747FD02233B6000233B7100237B7126
:1042C0000023BB600023FB6000233B6100237B6174
:1042D0000123BB610023FB613B46002219460648CF
:1042E00004F0B6F80346002B01D0FFF72AFD00BF0B
:1042F0003037BD4680BD00BF644D0020000800502F
:1043000080B58AB000AF786007F1140300221A600C
:104310005A609A60DA601A617B681B682B4A934284
:104320004FD12B4BDB6C2A4A43F48033D364284BA8
:10433000DB6C03F480333B613B69254BDB6C244A27
:1043400043F00103D364224BDB6C03F00103FB60F9
:10435000FB6810237B610323BB610023FB6107F132
:10436000140319464FF0904003F0F0F9194B1A4A24
:104370001A60184B06225A60164B10229A60154B91
:104380000022DA60134B80221A61124B4FF4007244
:104390005A61104B4FF480629A610E4B0022DA6131
:1043A0000C4B00221A620B4803F09AFB0346002BC9
:1043B00001D0FFF7C6FC7B68064A9A60054A7B6815
:1043C000936200BF2837BD4680BD00BF0008005083
:1043D00000100240784D00201C00024080B584B0DF
:1043E00000AF184B9B6C174A43F004039364154BC2
:1043F0009B6C03F00403FB60FB68124B9B6C114A3F
:1044000043F0020393640F4B9B6C03F00203BB6009
:10441000BB680C4B9B6C0B4A43F001039364094B44
:104420009B6C03F001037B607B6800220021382035
:1044300003F057FF382003F06EFF00BF1037BD4672
:1044400080BD00BF0010024080B5BAB000AF07F1D8
:10445000E00300221A605A6007F1D00300221A60BC
:104460005A609A60DA6007F17003602200211846F2
:1044700008F0A4FB07F1640300221A605A609A60F6
:1044800007F1480300221A605A609A60DA601A61E4
:104490005A619A6107F1240324220021184608F08A
:1044A0008DFB3B1D20220021184608F087FBCB4BDB
:1044B000CB4A1A60C94B00225A60C84B00229A604E
:1044C000C64804F089F90346002B01D0FFF739FCF8
:1044D0000C21C24804F050FA0346002B01D0FFF72C
:1044E00030FC0A21BD4804F09FFA0346002B01D09E
:1044F000FFF727FC0023C7F8E0300223C7F8E430B9
:1045000007F1E0031A460121B44804F0E9FA034632
:10451000002B01D0FFF715FC00220121AF4804F069
:10452000CBFC0346002B01D0FFF70BFC45F68A03BA
:10453000C7F8D0300323C7F8D4300123C7F8D830E8
:104540000823C7F8DC3007F1D0031A460621A34838
:1045500004F09EFA0346002B01D0FFF7F2FB102374
:104560003B6700237B670023BB670023FB670123B6
:10457000C7F880300023C7F884300023C7F888309C
:104580000023C7F88C300023C7F890300023C7F809
:1045900094304FF00063C7F898300023C7F89C3080
:1045A0000023C7F8A0304FF00053C7F8A430002311
:1045B000C7F8CC3007F170031A460621874804F08B
:1045C000C5FD0346002B01D0FFF7BBFB4FF6EF7391
:1045D0007B6607F1640301220621804804F0F6FEA1
:1045E0000346002B01D0FFF7ACFB44F268237B6647
:1045F00007F1640302220621784804F0E7FE03462F
:10460000002B01D0FFF79DFB4FF6EF737B6607F1A0
:10461000640304220621714804F0D8FE0346002BEF
:1046200001D0FFF78EFB0023C7F8D43007F1D00389
:104630001A460421694804F02BFA0346002B01D0E6
:10464000FFF77FFB0023BB6400233B6500237B65F2
:1046500000233B6607F148031A4604215F4804F033
:1046600002FE0346002B01D0FFF76BFB00233B67E4
:1046700000237B670023C7F8A8300023C7F8AC30BD
:104680000023C7F8B0304FF48073C7F8B43000236C
:10469000C7F8B8304FF08073C7F8C0302023C7F890
:1046A000C4300023C7F8C83007F170031A4604214C
:1046B0004A4804F04BFD0346002B01D0FFF741FBB5
:1046C0000023C7F8B8308023C7F8C43007F170035F
:1046D0001A460521414804F039FD0346002B01D05C
:1046E000FFF72FFB06237B6607F1640301220421F9
:1046F0003A4804F06BFE0346002B01D0FFF721FB84
:1047000007F1640304220421344804F05FFE0346E9
:10471000002B01D0FFF715FB00237B628C23BB62CB
:104720000023FB6200233B6300237B638C23BB637A
:104730000023FB6300233B6400237B6407F1240315
:104740001A460421254804F0C1FD0346002B01D080
:10475000FFF7F7FA07F124031A4605211F4804F072
:10476000B5FD0346002B01D0FFF7EBFA00237B6079
:104770000823BB602023FB6000233B6100237B6197
:104780000023BB610023FB6100233B623B1D4FF410
:1047900080720421114804F087FF0346002B01D0EA
:1047A000FFF7CFFA3B1D4FF4806205210B4804F060
:1047B0007BFF0346002B01D0FFF7C3FA0023BB6049
:1047C0000023FB603B1D4FF400720421034804F0FA
:1047D0006BFF0346002B07D004E000BFD84D00203C
:1047E00000680140FFF7ADFA3B1D4FF40062052160
:1047F0001F4804F059FF0346002B01D0FFF7A1FA30
:1048000007F1D0031A460521194804F041F903467F
:10481000002B01D0FFF795FA07F148031A4605214E
:10482000134804F020FD0346002B01D0FFF789FA5E
:1048300007F16403012205210D4804F0C7FD03467A
:10484000002B01D0FFF77DFA07F164030422052154
:10485000074804F0BBFD0346002B01D0FFF771FAB7
:10486000034800F027F800BFE837BD4680BD00BF11
:10487000D84D002080B485B000AF78607B681B689D
:104880000A4A93420BD10A4B1B6E094A43F08063DC
:104890001366074B1B6E03F08063FB60FB6800BF71
:1048A0001437BD465DF8047B704700BF00680140C7
:1048B0000010024080B588B000AF786007F10C03AB
:1048C00000221A605A609A60DA601A617B681B687D
:1048D000194A93422CD1194BDB6C184A43F004035C
:1048E000D364164BDB6C03F00403BB60BB68C023CE
:1048F000FB6002233B6100237B610323BB610D232B
:10490000FB6107F10C0319460D4802F01FFF4FF43D
:104910004073FB6002233B6100237B610323BB6187
:104920000323FB6107F10C031946054802F00EFF53
:1049300000BF2037BD4680BD006801400010024026
:104940000008004880B500AF134B144A1A60124BA0
:1049500000225A60104B4FF420629A600E4B4FF6C3
:10496000FF725A610C4B00221A620B4B00225A62F2
:10497000094B00229A62084B0022DA62064B0022A1
:104980001A63054805F08EFB0346002B01D0FFF7A4
:10499000D8F900BF80BD00BFD44E0020007C00408D
:1049A00080B598B000AF786007F10C035422002165
:1049B000184608F003F97B681B68154A934223D117
:1049C0004FF40073FB604FF48023BB6307F10C03CB
:1049D000184602F06DFC0346002B01D0FFF7B1F939
:1049E0000C4B9B6D0B4A43F000439365094B9B6D49
:1049F00003F00043BB60BB6800220121312003F0BB
:104A000070FC312003F087FC00BF6037BD4680BDDD
:104A1000007C00400010024080B588B000AF07F174
:104A2000100300221A605A609A60DA603B1D00226F
:104A30001A605A609A601D4B1D4A1A601B4BAA22CD
:104A40005A601A4B00229A60184B44F62062DA60D2
:104A5000164B00221A61154B00229A61134805F08B
:104A6000D5FD0346002B01D0FFF76BF94FF48053BF
:104A70003B6107F1100319460C4806F057F803464E
:104A8000002B01D0FFF75DF900237B600023FB6062
:104A90003B1D1946054806F0D7FA0346002B01D006
:104AA000FFF74FF900BF2037BD4680BD0C4F0020F7
:104AB000000C004080B584B000AF3B1D00221A609E
:104AC0005A609A60144B154A1A60134B10225A60B0
:104AD000114B00229A60104B42F20F72DA600E4BBB
:104AE00000229A610C4805F091FD0346002B01D08D
:104AF000FFF727F900237B600023FB603B1D19466D
:104B0000054806F0A1FA0346002B01D0FFF719F97A
:104B100000BF1037BD4680BD584F00200010004038
:104B200080B584B000AF3B1D00221A605A609A60C5
:104B3000144B154A1A60134BAA225A60114B0022DB
:104B40009A60104B41F28832DA600E4B00229A6173
:104B50000C4805F05BFD0346002B01D0FFF7F1F890
:104B600000237B600023FB603B1D1946054806F0CF
:104B70006BFA0346002B01D0FFF7E3F800BF1037B4
:104B8000BD4680BDA44F00200014004080B588B011
:104B900000AF07F1100300221A605A609A60DA60D1
:104BA0003B1D00221A605A609A60204B204A1A600E
:104BB0001E4BA9225A601D4B00229A601B4B41F2EA
:104BC0008732DA60194B00221A61184B00225A61B1
:104BD000164B00229A61154805F018FD0346002B7C
:104BE00001D0FFF7AEF84FF480533B6107F110039B
:104BF00019460E4805F09AFF0346002B01D0FFF737
:104C0000A0F800237B600023BB600023FB603B1DFA
:104C10001946064806F018FA0346002B01D0FFF7A4
:104C200090F800BF2037BD4680BD00BFF04F002088
:104C30000034014080B586B000AF78607B681B68A7
:104C4000284A934214D1284B9B6D274A43F008030E
:104C50009365254B9B6D03F008037B617B69002204
:104C60000021322003F03DFB322003F054FB34E0FE
:104C70007B681B681D4A93420CD11B4B9B6D1A4AE3
:104C800043F010039365184B9B6D03F010033B61D9
:104C90003B6922E07B681B68154A93420CD1124B9A
:104CA0009B6D114A43F0200393650F4B9B6D03F0FE
:104CB0002003FB60FB6810E07B681B680D4A934291
:104CC0000BD1094B1B6E084A43F400531366064B85
:104CD0001B6E03F40053BB60BB6800BF1837BD46B2
:104CE00080BD00BF000C00400010024000100040DA
:104CF000001400400034014080B400AF00BFFDE765
:104D000080B400AF00BFFDE780B400AF00BFFDE797
:104D100080B400AF00BFFDE780B400AF00BFFDE787
:104D200080B400AF00BFBD465DF8047B704780B41F
:104D300000AF00BFBD465DF8047B704780B400AF94
:104D400000BFBD465DF8047B704780B500AF01F041
:104D500029FD00BF80BD80B500AF082002F0A8FE8D
:104D600000BF80BD80B500AF4FF4006002F0A0FE30
:104D70004FF4805002F09CFE00BF80BD80B500AFB4
:104D8000024805F05FFA00BF80BD00BFD44E00208E
:104D900080B500AF024805F079FD00BF80BD00BFBF
:104DA0000C4F002080B500AF034805F06FFD0348AD
:104DB00003F0EDFA00BF80BD584F0020644D002085
:104DC00080B500AF024802F0AEFF00BF80BD00BF5B
:104DD000044D002080B582B000AF114B1B6E104A0D
:104DE00043F0010313660E4B1B6E03F001037B605F
:104DF0007B680B4B9B6D0A4A43F080539365084BCD
:104E00009B6D03F080533B603B6801F03FFD022047
:104E100001F028FD03F07AF900BF0837BD4680BDD8
:104E20000010024080B483B000AF786039607B68C6
:104E30009B6823F47C123B681A437B689A6000BF2E
:104E40000C37BD465DF8047B704780B483B000AF7B
:104E5000786039607B689B6823F0E0723B681A4396
:104E60007B689A6000BF0C37BD465DF8047B7047D5
:104E700080B483B000AF78607B689B6803F0E07318
:104E800018460C37BD465DF8047B704780B487B088
:104E900000AFF860B9607A603B60FB6860331A4627
:104EA000BB689B0013447B617B691A68084B134005
:104EB0007A6802F0F8413A680A43134343F000422B
:104EC0007B691A6000BF1C37BD465DF8047B7047E4
:104ED00000F0FF0380B485B000AF786039607B6874
:104EE00060331A463B689B001344FB60FB681B68F9
:104EF00003F0F84318461437BD465DF8047B70474D
:104F000080B487B000AFF860B9607A60FB68603346
:104F10001A46BB689B0013447B617B691B6823F0C6
:104F200000427B681A437B691A6000BF1C37BD468C
:104F30005DF8047B704780B487B000AFF860B9605B
:104F40007A60FB6860331A46BB689B0013447B6140
:104F50007B691B6823F080727B681A437B691A6047
:104F600000BF1C37BD465DF8047B704780B487B036
:104F700000AFF860B9607A60FB6860331A46BB68BE
:104F80009B0013447B617B691B6823F000727B6884
:104F90001A437B691A6000BF1C37BD465DF8047B6D
:104FA000704780B483B000AF786039607B685B691C
:104FB00023F000423B681A437B685A6100BF0C37FC
:104FC000BD465DF8047B704780B483B000AF786065
:104FD0007B68DB6803F44063002B01D1012300E010
:104FE000002318460C37BD465DF8047B704780B43B
:104FF00087B000AFF860B9607A60FB6830331A465A
:10500000BB681B0A9B0003F00C0313447B617B69A4
:105010001A68BB6803F01F031F2101FA03F3DB4387
:105020001A407B689B0E03F01F01BB6803F01F034F
:1050300001FA03F31A437B691A6000BF1C37BD46AF
:105040005DF8047B704780B487B000AFF860B9604A
:105050007A60FB6814331A46BB685B0E9B0003F052
:10506000040313447B617B691A68BB681B0D03F062
:105070001F03072101FA03F3DB431A40BB681B0D32
:1050800003F01F03796801FA03F31A437B691A607E
:1050900000BF1C37BD465DF8047B704780B485B007
:1050A00000AFF860B9607A60FB68D3F8B020BB68E5
:1050B000C3F31203DB431A407B6803F0180308496B
:1050C000D940BB680B40C3F312031A43FB68C3F813
:1050D000B02000BF1437BD465DF8047B704700BFA9
:1050E000FFFF070080B483B000AF78607B689B68E7
:1050F00003F01F0318460C37BD465DF8047B70476C
:1051000080B483B000AF78607B689B6823F0204355
:1051100023F03F037A68936000BF0C37BD465DF80B
:10512000047B704780B483B000AF78607B689B6875
:1051300003F00053B3F1005F01D1012300E000232D
:1051400018460C37BD465DF8047B704780B483B0C9
:1051500000AF78607B689B6823F0104323F03F0327
:1051600043F080527B689A6000BF0C37BD465DF803
:10517000047B704780B483B000AF78607B689B6825
:1051800003F08053B3F1805F01D1012300E00023DD
:1051900018460C37BD465DF8047B704780B483B079
:1051A00000AF78607B689B6823F0004323F03F03E7
:1051B00043F001027B689A6000BF0C37BD465DF882
:1051C000047B704780B483B000AF78607B689B68D5
:1051D00023F0004323F03F0343F002027B689A6010
:1051E00000BF0C37BD465DF8047B704780B483B0C8
:1051F00000AF78607B689B6803F00103012B01D14D
:10520000012300E0002318460C37BD465DF8047BFF
:10521000704780B483B000AF78607B689B6803F010
:105220000203022B01D1012300E0002318460C37B2
:10523000BD465DF8047B704780B483B000AF7860F2
:105240007B689B6823F0004323F03F0343F0040294
:105250007B689A6000BF0C37BD465DF8047B7047E1
:1052600080B483B000AF78607B689B6803F0040370
:10527000042B01D1012300E0002318460C37BD4662
:105280005DF8047B704780B483B000AF78607B68C2
:105290009B6803F00803082B01D1012300E00023E1
:1052A00018460C37BD465DF8047B704790B589B051
:1052B00000AF78600023FB770023FB607B68002B46
:1052C00001D10123A9E17B685B69002B7B68DB6D61
:1052D000002B09D17868FEF7E3FE7B6800221A668E
:1052E0007B68002283F858207B681B681846FFF70C
:1052F00019FF0346002B04D07B681B681846FFF794
:10530000FFFE7B681B681846FFF734FF0346002B3F
:1053100015D17B681B681846FFF718FF9C4B1B686C
:105320009B099C4AA2FB03239B0901335B00FB60A2
:1053300002E0FB68013BFB60FB68002BF9D17B6856
:105340001B681846FFF716FF0346002B0DD17B683C
:10535000DB6D43F010027B68DA657B681B6E43F0FF
:1053600001027B681A660123FB777B681B6818467D
:10537000FFF776FF78617B68DB6D03F01003002B8D
:1053800040F042817B69002B40F03E817B68DB6D01
:1053900023F4817343F002027B68DA657B681B6843
:1053A0001846FFF723FF0346002B41D17B681B689B
:1053B000B3F1A04F04D07B681B68774A93420FD1AA
:1053C0004FF0A040FFF712FF04467348FFF70EFFAF
:1053D00003462343002B0CBF01230023DBB212E062
:1053E0006E48FFF703FF04466D48FFF7FFFE0346D4
:1053F0001C436C48FFF7FAFE03462343002B0CBF07
:1054000001230023DBB2002B12D07B681B68B3F1B1
:10541000A04F04D07B681B685F4A934201D1624A67
:1054200000E0624A7B685B6819461046FFF7FAFCA9
:105430007B685B7F5A037B68DB6B1A437B68DB68A6
:105440001A437B689B681A437B6893F824301B04DB
:105450001343BB617B6893F82430012B06D17B6832
:105460009B6A013B5B04BA691343BB617B68DB6ADF
:10547000002B09D07B68DB6A03F478727B681B6BB6
:105480001343BA691343BB617B681B68DA68484BF6
:1054900013407A681268B9690B43D3607B681B6854
:1054A0001B6923F040617B685A6B7B681B680A4369
:1054B0001A617B681B681846FFF7E5FE38617B6957
:1054C000002B7FD13B69002B7CD17B681B7F9A032B
:1054D0007B6893F838305B001343BB617B681B68C3
:1054E000DB6823F4804323F002037A681268B96909
:1054F0000B43D3607B681B69002B17D07B681B684C
:105500001A697B681B6842F480321A617B681B68E9
:10551000D3F8C03023F47F5323F03F037A68116936
:105520007A6812680B43C2F8C03013E07B681B68CE
:105530001A697B681B6822F480321A617B681B68D9
:10554000D3F8C0307A68126823F47F5323F03F0306
:10555000C2F8C0307B6893F84030012B2AD17B68B9
:105560001B681B6923F4FF6323F004037A68516C02
:105570007A68926C11437A68D26C11437A68126D22
:105580000A431A437B681B6842F001021A6119E062
:10559000B8040020632D3E050001005000040050B7
:1055A00000050050000600500003005000070050A6
:1055B0000740F0FF7B681B681A697B681B6822F054
:1055C00001021A617B685B69012B0CD17B681B6847
:1055D0001B6B23F00F017B681B6A5A1E7B681B68DC
:1055E0000A431A6307E07B681B681A6B7B681B68B9
:1055F00022F00F021A637B68DB6D23F0030343F094
:1056000001027B68DA6507E07B68DB6D43F010021E
:105610007B68DA650123FB77FB7F18462437BD469C
:1056200090BD00BF80B586B000AFF860B9607A6009
:10563000FB681B68B3F1A04F04D0FB681B685A4A93
:10564000934201D1594B00E0594B1846FFF74AFDF0
:105650003861FB681B681846FFF702FE0346002B03
:1056600040F09B80FB6893F85830012B01D1022356
:1056700096E0FB68012283F85820FB681B684D4ABE
:10568000934208D03B69002B05D03B69052B02D023
:105690003B69092B7AD1F86800F0ECFC0346FB75F6
:1056A000FB7D002B6DD1FB68DB6D23F4706323F071
:1056B000010343F48072FB68DA65FB681B683A4AB1
:1056C000934209D0FB681B683B4A934202D0FB68B7
:1056D0001B6803E0394B01E04FF0A043FA68126801
:1056E000934202D03B69002B05D1FB68DB6D23F4AC
:1056F0008012FB68DA65FB68DB6D03F48053002BD6
:1057000006D0FB681B6E23F00602FB681A6602E0F7
:10571000FB6800221A66FB685B6D294ADA62FB6847
:105720005B6D284A1A63FB685B6D274A5A63FB6806
:105730001B681C221A60FB68002283F85820FB6853
:105740001B685A68FB681B6842F010025A60FB68CD
:105750001B68DA68FB681B6842F00102DA60FB68CC
:10576000586DFB681B6840331946BA687B6802F0C5
:105770005FFA0346FB75FB681B681846FFF75CFD84
:105780000DE0FB68002283F8582008E00123FB7538
:10579000FB68002283F8582001E00223FB75FB7DA3
:1057A00018461837BD4680BD000100500003005068
:1057B0000007005000060050000500500004005093
:1057C0005F620008376300085363000880B483B049
:1057D00000AF786000BF0C37BD465DF8047B7047B2
:1057E00080B483B000AF786000BF0C37BD465DF871
:1057F000047B704780B5B6B000AF78603960002395
:1058000087F8D7300023FB607B6893F85830012B72
:1058100002D1022300F013BC7B68012283F85820D8
:105820007B681B681846FFF71BFD0346002B40F002
:10583000F3837B6818683B6859683B681B681A46A5
:10584000FFF7D5FB7B681B681846FFF709FDC7F813
:10585000D0007B681B681846FFF715FDC7F8CC0021
:10586000D7F8D030002B40F0D981D7F8CC30002BBE
:1058700040F0D4813B689B68B3F1004F0FD17B6847
:1058800018683B681B6800221946FFF7DCFB7B6841
:105890001B684FF000411846FFF783FB0EE07B6862
:1058A00018683B6819683B689B681A46FFF7CBFB92
:1058B0007B681B6800211846FFF773FB3B685A6939
:1058C0007B681B68DB68DB0803F003035B0002FAFC
:1058D00003F3C7F8C8303B681B69042B22D07B68F0
:1058E00018683B6819693B681A68D7F8C830FFF731
:1058F000CDFA7B6818683B6819693B689B691A4652
:10590000FFF719FB7B6818683B6819693B681B7FC8
:10591000012B02D14FF0007300E000231A46FFF77D
:1059200025FB7BE17B681B6800211846FFF7D2FA54
:105930000346C3F31203002B0AD17B681B680021C6
:105940001846FFF7C7FA03469B0E03F01F021EE03E
:105950007B681B6800211846FFF7BCFA0346C7F8AE
:10596000BC30D7F8BC3093FAA3F3C7F8C030D7F8EF
:10597000C030C7F8B830D7F8B830002B01D1202399
:1059800004E0D7F8B830B3FA83F3DBB21A463B68C9
:105990001B68C3F31203002B05D13B681B689B0EE9
:1059A00003F01F0318E03B681B68C7F8B030D7F856
:1059B000B03093FAA3F3C7F8AC30D7F8AC30C7F8DF
:1059C000B430D7F8B430002B01D1202304E0D7F84D
:1059D000B430B3FA83F3DBB29A4206D17B681B681A
:1059E000002200211846FFF78BFA7B681B68012113
:1059F0001846FFF76FFA0346C3F31203002B0AD1D0
:105A00007B681B6801211846FFF764FA03469B0E6A
:105A100003F01F021EE07B681B6801211846FFF798
:105A200059FA0346C7F8A430D7F8A43093FAA3F381
:105A3000C7F8A030D7F8A030C7F8A830D7F8A830FA
:105A4000002B01D1202304E0D7F8A830B3FA83F368
:105A5000DBB21A463B681B68C3F31203002B05D167
:105A60003B681B689B0E03F01F0318E03B681B6834
:105A7000C7F89830D7F8983093FAA3F3C7F8943062
:105A8000D7F89430C7F89C30D7F89C30002B01D160
:105A9000202304E0D7F89C30B3FA83F3DBB29A42B8
:105AA00006D17B681B68002201211846FFF728FAFF
:105AB0007B681B6802211846FFF70CFA0346C3F304
:105AC0001203002B0AD17B681B6802211846FFF7DE
:105AD00001FA03469B0E03F01F021EE07B681B6861
