:020000040800F2
:1000000000000220ED980008052E00080D2E0008C3
:10001000152E00081D2E0008252E000800000000E7
:100020000000000000000000000000002D2E00086D
:100030003B2E000800000000492E0008572E000843
:100040003D9900083D9900083D9900083D99000838
:100050003D9900083D9900083D9900083D99000828
:100060003D9900083D9900083D9900083D99000818
:100070003D990008652E0008792E00088D2E000895
:100080003D9900083D9900083D9900083D990008F8
:100090003D9900083D9900083D9900083D990008E8
:1000A0003D9900083D9900083D9900083D990008D8
:1000B0003D9900083D9900083D9900083D990008C8
:1000C0003D9900083D9900083D9900083D990008B8
:1000D0003D9900083D9900083D9900083D990008A8
:1000E0003D9900083D9900083D9900083D99000898
:1000F0003D9900083D9900083D9900083D99000888
:100100003D990008A12E0008B52E00083D99000871
:100110003D9900083D990008C92E00083D99000846
:10012000DD2E00083D9900083D9900083D99000822
:100130003D9900083D9900083D9900083D99000847
:100140003D9900083D9900083D9900083D99000837
:100150003D9900083D9900083D9900083D99000827
:100160003D9900083D9900083D9900083D99000817
:100170003D9900083D9900083D9900083D99000807
:100180003D9900083D9900083D9900083D990008F7
:100190003D990008000000003D9900083D990008C5
:1001A0003D9900083D9900083D9900083D990008D7
:1001B0003D9900083D9900083D9900083D990008C7
:1001C0003D9900083D9900083D9900083D990008B7
:0801D0003D9900083D9900086B
:1001D800830730B547D0541E002A3ED0CAB2034622
:1001E80001E0013C39D303F8012B9D07F9D1032C19
:1001F8002CD9CDB205EB05250F2C05EB054535D9D6
:10020800A4F1100222F00F0C03F1100EE6444FEA9D
:10021800121C1A46C2E90055C2E90255103272454D
:10022800F8D10CF1010214F00C0F03EB021204F0E8
:100238000F0C13D0ACF1040323F00303043313446D
:1002480042F8045B9342FBD10CF003042CB1C9B211
:100258001C4403F8011BA342FBD130BD644613467E
:10026800002CF4D1F9E703461446C0E71A46A44621
:10027800E0E700BF70B50F4B0F4DAB42A3EB05068F
:1002880007D0B610002455F8043B01349847A6421D
:10029800F9D809F051FB094D094B5E1BAB424FEAF7
:1002A800A60606D0002455F8043B01349847A64218
:1002B800F9D870BD70990008709900087099000805
:1002C80074990008704700BF704700BF704700BFAF
:1002D800704700BF704700BF704700BF01207047DC
:1002E80001207047704700BF704700BF002950D0F9
:1002F80038B551F8043C0C1F002BB8BFE41805466C
:1003080000F0F6F8274A13682BB1A3420CD92168EC
:10031800601883422CD0636028461460BDE83840DA
:1003280000F0ECB8A3420FD81A465B68002BF9D14D
:1003380011685018844217D02CD363605460284643
:10034800BDE8384000F0DAB811685018A04214D05F
:1003580020D8216860188342EFD118685B68084488
:10036800C4E900035460EAE723680B441360E6E736
:1003780018685B6808442060CDE72068014450187D
:1003880083421160DBD1D3E900040144C2E90014BF
:10039800D5E770470C232B602846BDE8384000F0AD
:1003A800ADB800BFE001002070B5104E33680546B7
:1003B8000C46B3B12146284600F0A6F8431C0CD0E1
:1003C800C41C24F00304A04205D0211A284600F0DA
:1003D8009BF8013001D0204670BD4FF0FF34204615
:1003E80070BD194600F090F83060E3E7DC010020AA
:1003F8002DE9F843CD1C25F0030508350C2D38BF31
:100408000C25002D064618DBA94216D8DFF8DC803B
:1004180000F06EF8D8F80420A2B1144603E063682F
:1004280022467BB11C4623685B1BF8D40B2B1FD8D4
:100438009442636854D053600CE00C23336000206E
:10044800BDE8F88329463046FFF7AEFF431C044653
:1004580019D00560304600F051F804F10B00231D57
:1004680020F00700C21A1CBF1B1AA350BDE8F8836E
:1004780061199442256014BF5160C8F80410635193
:1004880063684B60E6E7D8F804701FB33C467F68A2
:10049800002FFBD123683946304604EB030900F0EE
:1004A80033F8814516D12368ED1A29463046FFF7FF
:1004B8007BFF01300ED02368D8F804202B4423603A
:1004C800536883B1A34203D01A465B689C42FBD1B0
:1004D8000023B0E70C233360304600F00FF8AEE796
:1004E800C8F80430B6E7C8F80470B3E7DC010020A8
:1004F8000148FFF7F1BE00BFCC0100200148FFF71B
:10050800F3BE00BFCC01002038B5074D00220446D9
:1005180008462A6009F0B0F9431C00D038BD2B68A2
:10052800002BFBD0236038BDB801002081F00041CA
:1005380002E000BF83F0004330B54FEA41044FEAC0
:10054800430594EA050F08BF90EA020F1FBF54EA5B
:10055800000C55EA020C7FEA645C7FEA655C00F0F7
:10056800E2804FEA5454D4EB5555B8BF6D420CDDC8
:100578002C4480EA020281EA030382EA000083EA4B
:10058800010180EA020281EA0303362D88BF30BDEB
:1005980011F0004F4FEA01314FF4801C4CEA113141
:1005A80002D0404261EB410113F0004F4FEA0333A0
:1005B8004CEA133302D0524263EB430394EA050F2B
:1005C80000F0A780A4F10104D5F1200E0DDB02FA9A
:1005D8000EFC22FA05F2801841F1000103FA0EF22E
:1005E800801843FA05F359410EE0A5F120050EF1F4
:1005F800200E012A03FA0EFC28BF4CF0020C43FA25
:1006080005F3C01851EBE37101F0004507D54FF031
:10061800000EDCF1000C7EEB00006EEB0101B1F581
:10062800801F1BD3B1F5001F0CD349085FEA3000C7
:100638004FEA3C0C04F101044FEA445212F5800FD2
:1006480080F09A80BCF1004F08BF5FEA500C50F16F
:10065800000041EB045141EA050130BD5FEA4C0C52
:10066800404141EB0101013C28BFB1F5801FE9D2AF
:1006780091F0000F04BF01460020B1FA81F308BFD2
:100688002033A3F10B03B3F120020CDA0C3208DD9E
:1006980002F1140CC2F10C0201FA0CF021FA02F179
:1006A8000CE002F11402D8BFC2F1200C01FA02F1E9
:1006B80020FA0CFCDCBF41EA0C019040E41AA2BF0E
:1006C80001EB0451294330BD6FEA04041F3C1CDAD6
:1006D8000C340EDC04F11404C4F1200220FA04F0F6
:1006E80001FA02F340EA030021FA04F345EA0301A0
:1006F80030BDC4F10C04C4F1200220FA02F001FA62
:1007080004F340EA0300294630BD21FA04F02946E3
:1007180030BD94F0000F83F4801306BF81F480117C
:100728000134013D4EE77FEA645C18BF7FEA655CEF
:1007380029D094EA050F08BF90EA020F05D054EAC1
:10074800000C04BF1946104630BD91EA030F1EBFC6
:100758000021002030BD5FEA545C05D140004941CA
:1007680028BF41F0004130BD14F580043CBF01F5BD
:10077800801130BD01F0004545F0FE4141F47001A3
:100788004FF0000030BD7FEA645C1ABF194610467E
:100798007FEA655C1CBF0B46024650EA013406BF7F
:1007A80052EA033591EA030F41F4002130BD00BF3E
:1007B80090F0000F04BF0021704730B54FF48064FB
:1007C80004F132044FF000054FF0000150E700BF7C
:1007D80090F0000F04BF0021704730B54FF48064DB
:1007E80004F1320410F0004548BF40424FF00001C8
:1007F8003EE700BF42004FEAE2014FEA31014FEA0B
:1008080002701FBF12F07F4393F07F4F81F0605159
:10081800704732F07F4208BF704793F07F4F04BFA4
:1008280041F40021704730B54FF4607401F0004581
:1008380021F000411CE700BF50EA010208BF7047E1
:1008480030B54FF000050AE050EA010208BF7047D2
:1008580030B511F0004502D5404261EB41014FF43B
:10086800806404F132045FEA915C3FF4D8AE4FF043
:1008780003025FEADC0C18BF03325FEADC0C18BF26
:10088800033202EBDC02C2F1200300FA03FC20FA77
:1008980002F001FA03FE40EA0E0021FA02F11444C4
:1008A800BDE600BF4FEA4102B2F1E04324BFB3F511
:1008B800001CDCF1FE5C0DD901F0004C4FEAC002CF
:1008C8004CEA5070B2F1004F40EB830008BF20F0B3
:1008D8000100704711F0804F21D113F13872BCBF6D
:1008E80001F00040704741F480114FEA5252C2F1C2
:1008F8001802C2F1200C10FA0CF320FA02F018BF0B
:1009080040F001004FEAC1234FEAD32303FA0CFC5D
:1009180040EA0C0023FA02F34FEA4303CCE77FEAEC
:10092800625307D150EA01331EBF4FF0FE4040F436
:100938004000704701F0004040F0FE4040F40000E5
:10094800704700BF024B01461868FFF751BD00BF52
:1009580000000020024B01461868FFF7C7BC00BF23
:1009680000000020014B1868704700BF00000020FD
:1009780010B5054C237833B9044B13B10448AFF3D1
:1009880000800123237010BDE40100200000000056
:100998004099000808B5034B1BB103490348AFF35E
:1009A800008008BD00000000E80100204099000810
:1009B80080B500AF00BF7F212A4803F0BDFD034684
:1009C800002BF8D100BF7F21274803F0B5FD03466F
:1009D800002BF8D104222549224802F0A9FE08225A
:1009E8002349214802F0A4FE1E4B5B6D1B681A6860
:1009F8001C4B5B6D1B6822F004021A601A4B5B6D7E
:100A08001B681A68184B5B6D1B6822F004021A6099
:100A1800184800F006F9184800F003F9174800F0E4
:100A280000F9174800F0FDF8DFED160AB5EE000AE8
:100A3800154800F035F8DFED130A9FED140A144845
:100A480000F02EF81820FFF77DFF03461A46114BD9
:100A58001A6004221049114800F090FD0D4B1B68E4
:100A6800184680BD8C060020F806002000020020F1
:100A7800200200204402002014030020E403002088
:100A8800B40400200000000084050020CDCC4C3EBA
:100A98009005002040020020380200209C0500201C
:100AA80080B485B000AFF86087ED020AC7ED010A8F
:100AB800FB68002B1ED0D7ED027AF5EEC07AF1EE76
:100AC80010FA02D80E4BBB600AE0D7ED027AB7EEF7
:100AD800007AF4EEC77AF1EE10FA01DB094BBB603D
:100AE800FB68BA681A60FB687A685A60FB6801227A
:100AF8001A7200E000BF1437BD465DF8047B7047EA
:100B0800CDCCCC3D6666663F80B485B000AF7860DA
:100B180087ED000A7B68002B03D07B681B7A002BCB
:100B280001D13B681AE07B6893ED007AD7ED007A33
:100B380027EE277A7B68D3ED007AF7EE006A76EE27
:100B4800E76A7B68D3ED017A66EEA77A77EE277AB3
:100B5800C7ED037A7B68FA685A60FB6807EE903A3B
:100B6800B0EE670A1437BD465DF8047B704780B461
:100B780087B000AFF86087ED020A79607B68013BB7
:100B88007B610FE07B69013BFA689B0013440433E7
:100B98001A68F9687B699B000B4404331A607B6907
:100BA800013B7B617B69002BECDCFB68BA685A600F
:100BB800FB681B687A689A4202D1FB6800221A60B7
:100BC800FB684FF00002C3F8CC2000237B6111E0E2
:100BD800FB6893ED337AFA687B699B00134404330E
:100BE800D3ED007A77EE277AFB68C3ED337A7B6919
:100BF80001337B617A697B689A42E9DBFB6893ED94
:100C0800337A7B6807EE903AF8EEE77AC7EE276A00
:100C1800F0EE667AB0EE670A1C37BD465DF8047BD5
:100C2800704780B483B000AF78607B6800221A6098
:100C38007B684FF00002C3F8CC204FF0000307EEAA
:100C4800903AB0EE670A0C37BD465DF8047B7047F2
:100C580080B586B000AF78607B68584A934240F010
:100C68008380574B1B680133554A13600023FB826E
:100C780000237B7509E07B7D524A32F81320FB8AFA
:100C88001344FB827B7D01337B757B7D032BF2D97B
:100C9800FB8A9B089BB21A464B4B1A60FB8A07EEED
:100CA800903AF8EE677A494B1B781946B0EE670A16
:100CB8004748FFF75CFFB0EE407A464BD3ED007A29
:100CC80067EE277A444BC3ED007AFB8A07EE903A29
:100CD800F8EE677AB0EE670A4048FFF715FFF0EEC6
:100CE800407AFCEEE77A17EE903AFB82FB8A07EE31
:100CF800903AB8EEE77A374BD3ED007A67EE277A69
:100D0800374BC3ED007AFB8A07EE903AB8EEE77AE4
:100D1800304BD3ED007A27EE277A324BD3ED007AA9
:100D280037EE677A304BD3ED007A67EE277A2F4B90
:100D3800C3ED007A2E4B1B781A46FB8A9B0899B2A2
:100D48002C4B23F812102A4B1B780133DAB2284BAC
:100D58001A70274B1B78032B2BD9254B00221A70AE
:100D6800254B01221A7024E07B68244A934221D142
:100D780000233B610023FB600023FB7215E0FB7A34
:100D88005B001F4A32F813301A463B6913443B6133
:100D9800FB7A5B0001331A4A32F813301A46FB68B3
:100DA8001344FB60FB7A0133FB72FB7A032BE6D911
:100DB80000E000BF1837BD4680BD00BF8C0600208C
:100DC80020060020000200200C060020540000200D
:100DD80014030020589900081406002084050020F8
:100DE800100600205C99000850000020180600201A
:100DF80024060020380200201C060020F8060020E7
:100E08002002002080B500AFDFED202A9FED202AC8
:100E1800F6EE001A9FED1D1ADFED1E0A9FED1E0A61
:100E280001211E4800F0E3FA4FF480311C4806F017
:100E380037FB4FF400111A4806F032FB4FF48001DB
:100E4800174806F02DFB174B1B68144A9362164887
:100E580007F0A6FAFFF7ACFD0346144A1360002218
:100E68000421134804F030FE00220821104804F041
:100E78002BFE4FF440710A4806F0E5FA4FF4406142
:100E8800074806F0E0FA00BF80BD00BF0000000080
:100E980085EB113F52499D390AD7233C280600208B
:100EA800C0090020580000208C0B00206C06002090
:100EB8000008004880B500AF00F014F800F044F8CE
:100EC800064B1B680133054A1360044B1B68312B22
:100ED80002D9034B00221A7000BF80BD7C06002097
:100EE8007006002080B500AF124B1B68124A93624F
:100EF800124B1B6893ED007A104B1B68D3ED027AF6
:100F080037EE277A0D4B1B68D3ED017A77EE277AF7
:100F18009FED0B7A67EE877A0A4BC3ED007A094B8F
:100F2800D3ED007AB0EE670A034800F071F900BF0C
:100F380080BD00BF58000020280600206C06002055
:100F480036CD133F7406002080B584B000AF00236F
:100F5800FB73514B1B8801339AB24F4B1A804E4B8F
:100F68001B8842F21072934202D94B4B00221A801E
:100F7800494B1B88494AA2FB03125209642101FB11
:100F880002F29B1A9BB2002B02D10123FB7301E0F2
:100F98000023FB73424B1B78002B5CD0FB7B002BA0
:100FA80059D0404B1B681846FFF724FC38A3D3E9F7
:100FB8000023FFF7C1FA02460B4610461946FFF711
:100FC80071FC0346374A1360364BD3ED007A9FED28
:100FD800367AF4EEC77AF1EE10FA03DB314B4FF0B4
:100FE80000021A602F4BD3ED007A9FED307A67EE3E
:100FF800877AFCEEE77AC7ED017A3B79DBB21A46CD
:101008002B4B9A5C2B4B1A70264BD3ED007A9FED35
:10101800277A67EE877AFCEEE77AC7ED017A3B79A3
:10102800DBB21A46224B9B5C002B0AD0012204211A
:10103800214804F049FD012208211F4804F044FD1D
:1010480009E0002204211C4804F03EFD002208218A
:10105800194804F039FD194B1B6843F22052C3F8B4
:101068009C22164B1B6849F66072C3F8A822134BE2
:101078001B6843F22052C3F81C23104B1B6849F627
:101088006072C3F8282300BF1037BD4680BD00BF7B
:101098007B14AE47E17A843F780600201F85EB5128
:1010A8007A06002080060020CDCC4C3E0000C842C5
:1010B8005C0000207B06002000080048C0090020D2
:1010C80080B582B000AF78607B68334A934202D122
:1010D800FFF7F0FE5BE07B68304A934257D1304B14
:1010E8001B78002B23D14FF480612E4804F0D4FCE8
:1010F8000346012B03D12A4B01221A7047E04FF413
:101108000061284804F0C8FC0346012B03D1244B96
:1011180002221A703BE04FF48051224804F0BCFCD4
:101128000346012B33D11E4B03221A702FE04FF4D4
:1011380080611C4804F0B0FC0346002B07D1184B13
:101148001B78012B03D1164B00221A701FE04FF4B5
:101158000061144804F0A0FC0346002B07D1104B93
:101168001B78022B03D10E4B00221A700FE04FF4AC
:1011780080510C4804F090FC0346002B07D1084B23
:101188001B78032B03D1064B00221A70FFE700BF20
:101198000837BD4680BD00BF8C0B0020400B0020E7
:1011A800840600200008004880B582B000AF78604F
:1011B8004FF480610B4804F06FFC0346012B03D108
:1011C800094B01221A700AE003F090FB786806F0D8
:1011D80077FE012000F00CF8044807F0E1F8083722
:1011E800BD4680BD00080048700600208C0B00201A
:1011F80080B483B000AF0346FB71044AFB791370D7
:1012080000BF0C37BD465DF8047B704770060020B0
:1012180080B584B000AF786087ED000A7B68D3EDB5
:10122800107AF5EE407AF1EE10FA02D0786800F004
:1012380039F97B683A685A627B685A697B689A61AF
:101248007B681A697B685A617B6893ED0A7A7B68C8
:10125800D3ED097A77EE677A7B68C3ED047A7B6809
:101268001B78002B5DD17B6893ED047A7B68D3ED06
:10127800057A77EE677AC7ED037A7B6893ED077A8C
:101288007B68D3ED026A7B68D3ED047A66EEA77AB1
:1012980077EE277A7B68C3ED077A7B6893ED077A48
:1012A8007B68D3ED087AB4EEE77AF1EE10FA04DD44
:1012B8007B681A6A7B68DA6114E07B6893ED077AC9
:1012C8007B68D3ED087AF1EE677AB4EEE77AF1EE4F
:1012D80010FA07D57B68D3ED087AF1EE677A7B6858
:1012E800C3ED077A7B6893ED017A7B68D3ED047AC6
:1012F80027EE277A7B68D3ED077A37EE277A7B6863
:10130800D3ED036AD7ED037A66EEA77A37EE277A2C
:101318007B68D3ED0F7A77EE277A7B68C3ED0C7A7A
:101328003DE07B681B78012B39D17B6893ED0C7A03
:101338007B68D3ED016A7B6893ED046A7B68D3ED23
:10134800057A76EE677A66EEA76A7B6893ED036A9C
:101358007B68D3ED045A7B68D3ED057A77EEA77ADC
:1013680075EEE75A7B68D3ED067A75EEA77A66EED6
:10137800277A76EEA76A7B6893ED026A7B68D3EDDD
:10138800047A66EE277A76EEA76A7B68D3ED0F7A41
:1013980076EEA77A77EE277A7B68C3ED0C7A7B68BE
:1013A8009A6A7B68DA627B6893ED0C7A7B68D3ED86
:1013B8000D7AB4EEE77AF1EE10FA04DD7B685A6B29
:1013C8007B681A6310E07B6893ED0C7A7B68D3ED39
:1013D8000E7AB4EEE77AF1EE10FA00D404E07B68F6
:1013E8009A6B7B681A6300BF1037BD4680BD80B416
:1013F8008BB000AFF8610B4687ED050AC7ED040A0C
:1014080087ED031AC7ED021A87ED012AC7ED002AF6
:10141800FB76FB69FA7E1A70FB697A695A60FB6988
:101428003A699A60FB69FA68DA60FB69BA681A6215
:10143800FB697A685A63FB693A689A63FB694FF0FB
:101448000002DA61FB694FF000021A63FB694FF092
:1014580000025A62FB694FF000029A62FB694FF082
:101468000002DA62FB694FF00002DA63FB694FF0B1
:1014780000021A6400237B620AE0FA697B6A04337B
:101488009B0013444FF000021A607B6A01337B62B1
:101498007B6A022BF1DD00BF2C37BD465DF8047B6B
:1014A8007047000080B485B000AF78604FF000034B
:1014B800FB607B6893ED0B7A7B68D3ED0A7A77EE55
:1014C800677AF5EEC07AF1EE10FA08DD7B6893EDE5
:1014D8000B7A7B68D3ED0A7A77EE677A09E07B6846
:1014E80093ED0B7A7B68D3ED0A7A77EE677AF1EEA3
:1014F800677A7B6893ED107AF4EEC77AF1EE10FA0A
:1015080033D97B6893ED0B7A7B68D3ED0A7A77EE53
:10151800677AF5EEC07AF1EE10FA02DD164BFB6041
:1015280013E07B6893ED0B7A7B68D3ED0A7A77EE4C
:10153800677AF5EEC07AF1EE10FA03D54FF07E53D4
:10154800FB6002E04FF00003FB607B6893ED0B7AD1
:101558007B68D3ED106AD7ED037A66EEA77A77EE4B
:10156800277A7B68C3ED0A7A00E000BF1437BD46CE
:101578005DF8047B704700BF000080BF80B584B071
:1015880000AFF860B9601346FB71FB68FA791A710D
:10159800FB68BA681A60FB6800225A71FB6800226F
:1015A8009A71FB68184A5A63FB68184A9A63FB6881
:1015B80040F2E2429A87FB6840F2EE22DA87FB6843
:1015C80000229A66FB68002283F86C20FB680022E0
:1015D80083F86D20FB6803F15400012301220A21DE
:1015E80000F01AF8FB6803F14000012301220A21E8
:1015F80000F012F8064AFB681360064806F078FE09
:1016080000BF1037BD4680BD0080BB440000FA43D0
:1016180088060020240C002080B485B000AFF86054
:10162800B9607A603B60FB68BA681A60FB687A68E0
:10163800DA60FB683A681A61FB6800221A71FB6875
:1016480000229A6000BF1437BD465DF8047B7047DE
:1016580080B500AF03F0DAF800F01EF800F06CF87F
:1016680000F030FD00F0F8F800F07AFD01F0B2F972
:1016780000F066F900F0F0F900F076FA01F05CF994
:1016880001F052F801F0B8F801F010FA01F0D8F9B9
:10169800FFF7B8FB00BFFDE780B594B000AF07F1D6
:1016A8001803382200211846FEF792FD3B1D002240
:1016B8001A605A609A60DA601A61002004F08EFCA1
:1016C8000123BB614FF48033FB6102237B63032357
:1016D800BB630223FB6355233B6402237B64022321
:1016E800BB640223FB6407F11803184603F00EF9E4
:1016F8000346002B01D000F018F80F237B6003236A
:10170800BB600023FB6000233B6100237B613B1D22
:101718000421184603F00CFC0346002B01D000F00E
:1017280004F800BF5037BD4680BD80B400AF72B624
:1017380000BF00BFFDE7000080B58AB000AF07F129
:10174800140300221A605A609A60DA601A613F4BEB
:10175800DB6C3E4A43F02003D3643C4BDB6C03F064
:1017680020033B613B69394BDB6C384A43F0040387
:10177800D364364BDB6C03F00403FB60FB68334B2C
:10178800DB6C324A43F00103D364304BDB6C03F06B
:101798000103BB60BB682D4BDB6C2C4A43F0020392
:1017A800D3642A4BDB6C03F002037B607B68002266
:1017B8000C21274804F088F900224FF400414FF02B
:1017C800904004F081F900228021224804F07CF93D
:1017D8000C237B610123BB610223FB6102233B6273
:1017E80007F1140319461A4803F0D4FF4FF40043D5
:1017F8007B611123BB610023FB6101233B6207F17D
:10180800140319464FF0904003F0C4FF4FF4E0531F
:101818007B610023BB610223FB6107F114031946B6
:101828000B4803F0B7FF80237B611123BB610023C2
:10183800FB6101233B6207F114031946054803F0D5
:10184800A9FF00BF2837BD4680BD00BF0010024079
:10185800000800480004004880B588B000AF3B4647
:10186800202200211846FEF7B3FC324B324A1A6098
:10187800304B4FF440325A602E4B00229A602D4B69
:101888000022DA602B4B00221A612A4B00225A618F
:10189800284B04229A61274B00221A77254B0022F5
:1018A8005A77244B01221A62224B002283F8242003
:1018B800204B4FF4D462DA621E4B4FF480621A63F5
:1018C8001C4B012283F838201A4B4FF48052DA63FC
:1018D800184B012283F84020164B04225A64154BFA
:1018E80080229A64134B0022DA64124B01221A6593
:1018F800104801F061FD0346002B01D0FFF715FFEA
:101908000E4B3B6006237B600223BB607F23FB609A
:1019180004233B6100237B613B461946054801F0DF
:10192800EFFF0346002B01D0FFF7FFFE00BF203773
:10193800BD4680BD8C060020000100500008302EF6
:1019480080B58CB000AF07F1240300221A605A60FA
:101958009A603B1D202200211846FEF739FC3A4BBD
:101968003A4A1A60384B4FF440325A60364B0022DC
:101978009A60354B0022DA60334B00221A61324BF1
:1019880001225A61304B08229A612F4B00221A77A4
:101998002D4B00225A772C4B02221A622A4B002226
:1019A80083F82420284B4FF4D462DA62264B4FF494
:1019B80080621A63244B012283F83820224B4FF4AB
:1019C8008052DA63204B002283F840201E4801F041
:1019D800F3FC0346002B01D0FFF7A7FE00237B6230
:1019E80007F124031946184802F008FE0346002BA5
:1019F80001D0FFF79AFE164B7B600623BB600223DB
:101A0800FB607F233B6104237B610023BB613B1D9B
:101A180019460D4801F074FF0346002B01D0FFF76B
:101A280084FE0C4B7B600C23BB603B1D19460648AB
:101A380001F066FF0346002B01D0FFF776FE00BFDA
:101A48003037BD4680BD00BFF806002000040050B6
:101A5800020030042000F01480B588B000AF3B4687
:101A6800202200211846FEF7B3FB3A4B3A4A1A6087
:101A7800384B4FF440325A60364B00229A60354B4F
:101A88000022DA60334B00221A61324B01225A617C
:101A9800304B04229A612F4B00221A772D4B0022DB
:101AA8005A772C4B03221A622A4B002283F82420EF
:101AB800284B4FF4D462DA62264B4FF480621A63E3
:101AC800244B012283F83820224B0022DA63214B71
:101AD800002283F840201F4801F06EFC0346002BCB
:101AE80001D0FFF722FE1D4B3B6006237B600223DB
:101AF800BB607F23FB6004233B6100237B613B4683
:101B08001946144801F0FCFE0346002B01D0FFF7EC
:101B18000CFE134B3B600C237B603B4619460D487B
:101B280001F0EEFE0346002B01D0FFF7FEFD0D4B42
:101B38003B6012237B603B461946064801F0E0FEF5
:101B48000346002B01D0FFF7F0FD00BF2037BD464C
:101B580080BD00BF64070020000500500800900CFD
:101B68001000C0102000F01480B588B000AF3B46CC
:101B7800202200211846FEF72BFB334B334A1A600C
:101B8800314B4FF440325A602F4B00229A602E4B53
:101B98000022DA602C4B00221A612B4B01225A6179
:101BA800294B04229A61284B00221A77264B0022DF
:101BB8005A77254B02221A62234B002283F82420ED
:101BC800214B4FF4D462DA621F4B4FF480621A63E0
:101BD8001D4B002283F838201B4B0022DA631A4B76
:101BE800002283F84020184801F0E6FB0346002B4A
:101BF80001D0FFF79AFD164B3B6006237B6002235A
:101C0800BB607F23FB6004233B6100237B613B4671
:101C180019460D4801F074FE0346002B01D0FFF76A
:101C280084FD0C4B3B600C237B603B461946064801
:101C380001F066FE0346002B01D0FFF776FD00BFDA
:101C48002037BD4680BD00BFD007002000060050E9
:101C5800020030040400600880B5A6B000AF7860C8
:101C680007F1840300221A605A609A60DA601A61E8
:101C780007F13003542200211846FEF7A9FA7B68C1
:101C88001B68894A934240F09B804FF400433B63B2
:101C98004FF000537B6707F13003184603F02CFB25
:101CA8000346002B01D0FFF740FD804BDB6C7F4AD9
:101CB80043F40053D3647D4BDB6C03F40053FB62A5
:101CC800FB6A7A4BDB6C794A43F00103D364774BA8
:101CD800DB6C03F00103BB62BB6A744BDB6C734AB9
:101CE80043F00403D364714BDB6C03F004037B62A1
:101CF8007B6A6E4BDB6C6D4A43F00203D3646B4B1B
:101D0800DB6C03F002033B623B6A8023C7F8843034
:101D18000323C7F888300023C7F88C3007F1840301
:101D280019464FF0904003F035FD2023C7F8843062
:101D38000323C7F888300023C7F88C3007F18403E1
:101D480019465B4803F026FD0423C7F884300323B3
:101D5800C7F888300023C7F88C3007F18403194688
:101D6800544803F017FD544B544A1A60524B24222E
:101D78005A60514B00229A604F4B0022DA604E4B5A
:101D880080221A614C4B4FF480725A614A4B4FF4CF
:101D980080629A61484B2022DA61474B4FF48052A7
:101DA8001A62454803F0A8FE0346002B01D0FFF74E
:101DB800BCFC7B68404A5A653F4A7B6893626BE18A
:101DC8007B681B683E4A934240F082804FF4803320
:101DD8003B634FF00043BB6707F13003184603F03D
:101DE8008BFA0346002B01D0FFF79FFC354B1B688D
:101DF8000133344A1360334B1B68012B0BD12B4B37
:101E0800DB6C2A4A43F48043D364284BDB6C03F42D
:101E18008043FB61FB69254BDB6C244A43F00203DA
:101E2800D364224BDB6C03F00203BB61BB6942F253
:101E38000303C7F884300323C7F888300023C7F8A2
:101E48008C3007F1840319461A4803F0A3FC1E4B93
:101E58001E4A1A601C4B25225A601B4B00229A60AE
:101E6800194B0022DA60184B80221A61164B4FF486
:101E780080725A61144B4FF480629A61124B20228F
:101E8800DA61114B4FF440521A620F4803F034FEE6
:101E98000346002B01D0FFF748FC7B680A4A5A65C5
:101EA800094A7B689362F7E0000100500010024085
:101EB80000080048000400483C08002008040240CC
:101EC80000040050BC0900209C080020300002409B
:101ED8007B681B68724A93426CD14FF480333B6332
:101EE8004FF00043BB6707F13003184603F004FACC
:101EF8000346002B01D0FFF718FC6A4B1B6801331F
:101F0800684A1360674B1B68012B0BD1664BDB6C6F
:101F1800654A43F48043D364634BDB6C03F480432A
:101F28007B617B69604BDB6C5F4A43F00203D364DF
:101F38005D4BDB6C03F002033B613B694FF450439C
:101F4800C7F884300323C7F888300023C7F88C30DB
:101F580007F184031946554803F01CFC544B554AB5
:101F68001A60534B26225A60514B00229A60504BFC
:101F78000022DA604E4B80221A614D4B4FF480727A
:101F88005A614B4B4FF480629A61494B2022DA61C7
:101F9800474B00221A62464803F0AEFD0346002B69
:101FA80001D0FFF7C2FB7B68414A5A65404A7B680B
:101FB800936271E07B681B683F4A93426CD14FF48F
:101FC80080333B634FF00043BB6707F1300318468B
:101FD80003F092F90346002B01D0FFF7A6FB314B23
:101FE8001B6801332F4A13602E4B1B68012B0BD142
:101FF8002D4BDB6C2C4A43F48043D3642A4BDB6CB7
:1020080003F48043FB60FB68274BDB6C264A43F0F4
:102018000103D364244BDB6C03F00103BB60BB6892
:102028004FF44073C7F884300323C7F8883000237F
:10203800C7F88C3007F1840319464FF0904003F03D
:10204800A9FB1E4B1E4A1A601C4B27225A601B4BC9
:1020580000229A60194B0022DA60184B80221A611C
:10206800164B4FF480725A61144B4FF480629A6198
:10207800124B2022DA61114B00221A620F4803F03A
:102088003BFD0346002B01D0FFF74FFB7B680B4A53
:102098005A650A4A7B68936200BF9837BD4680BD7F
:1020A80000050050BC090020001002400004004850
:1020B800FC08002044000240000600505C09002093
:1020C8005800024080B584B000AF244B9B6C234A73
:1020D80043F004039364214B9B6C03F00403FB60FF
:1020E800FB681E4B9B6C1D4A43F0010393641B4B1A
:1020F8009B6C03F00103BB60BB68184B9B6C174AD1
:1021080043F002039364154B9B6C03F002037B605E
:102118007B68002200210D2004F0EFF80D2004F068
:1021280006F9002200210E2004F0E7F80E2004F042
:10213800FEF8002200210F2004F0DFF80F2004F041
:10214800F6F800220021382004F0D7F8382004F0EF
:10215800EEF800BF1037BD4680BD00BF001002403A
:1021680080B5BCB000AF07F1E80300221A605A60DE
:1021780007F1D80300221A605A609A60DA6007F102
:102188007803602200211846FEF722F807F16C0355
:1021980000221A605A609A6007F1500300221A6000
:1021A8005A609A60DA601A615A619A6107F14403C9
:1021B80000221A605A609A6007F120032422002145
:1021C8001846FEF705F83B46202200211846FDF781
:1021D800FFFFCF4BCF4A1A60CD4B00225A60CC4B41
:1021E80000229A60CA4804F0BDF80346002B01D0CB
:1021F800FFF79BFA0C21C64804F084F90346002B2C
:1022080001D0FFF792FA0A21C14804F0D3F9034636
:10221800002B01D0FFF789FA0023C7F8E830022322
:10222800C7F8EC3007F1E8031A460121B84804F072
:10223800F5FA0346002B01D0FFF777FA00220121B7
:10224800B34804F0D7FC0346002B01D0FFF76DFA22
:102258004DF28043C7F8D8300323C7F8DC30012398
:10226800C7F8E0300823C7F8E43007F1D8031A4666
:102278000621A74804F0D2F90346002B01D0FFF746
:1022880054FA1023BB670023FB670023C7F880308C
:102298000023C7F884300123C7F888300023C7F823
:1022A8008C300023C7F890300023C7F894300023FF
:1022B800C7F898300023C7F89C304FF00063C7F880
:1022C800A0300023C7F8A4300023C7F8A8304FF087
:1022D8000053C7F8AC300023C7F8D43007F17803AF
:1022E8001A4606218A4804F0CFFD0346002B01D088
:1022F800FFF71BFA4FF6EF73FB6607F16C03012239
:102308000621834804F000FF0346002B01D0FFF7A5
:102318000CFA49F6F033FB6607F16C03022206213A
:102328007B4804F0F1FE0346002B01D0FFF7FDF9CE
:102338004FF6EF73FB6607F16C030422062174481D
:1023480004F0E2FE0346002B01D0FFF7EEF946F653
:102358004023C7F8D8300023C7F8DC3007F1D8038A
:102368001A4601216A4804F059F90346002B01D0A6
:10237800FFF7DBF900233B650023BB6607F1500339
:102388001A460121624804F00CFE0346002B01D0D6
:10239800FFF7CBF94FF6EF737B640023BB64002390
:1023A800FB6407F1440304220121594804F05EF953
:1023B8000346002B01D0FFF7B8F907F144030822C0
:1023C8000121534804F052F90346002B01D0FFF7CE
:1023D800ACF94DF28043C7F8D83007F1D8031A4654
:1023E80004214B4804F01AF90346002B01D0FFF7EB
:1023F8009CF90023BB650023FB6507F150031A46CF
:102408000421434804F0CDFD0346002B01D0FFF71B
:102418008CF90023BB670023FB670023C7F8B030A3
:102428000023C7F8B4300023C7F8B8304FF48073DE
:10243800C7F8BC300023C7F8C0304FF08073C7F826
:10244800C8302023C7F8CC300023C7F8D03007F1B4
:1024580078031A4604212E4804F016FD0346002B83
:1024680001D0FFF762F90023C7F8C0308023C7F80E
:10247800CC3007F178031A460521254804F004FDFD
:102488000346002B01D0FFF750F90623FB6607F13E
:102498006C03012204211E4804F036FE0346002B7B
:1024A80001D0FFF742F907F16C0304220421184810
:1024B80004F02AFE0346002B01D0FFF736F900236B
:1024C8003B624FF496737B620023BB620023FB627E
:1024D80000233B634FF496737B630023BB630023A5
:1024E800FB6300233B6407F120031A4604210848D4
:1024F80004F08AFD0346002B01D0FFF716F907F117
:1025080020031A460521024804F07EFD04E000BFBE
:10251800C0090020006801400346002B01D0FFF7E6
:1025280004F900233B6008237B602023BB60002361
:10253800FB6000233B6100237B610023BB61002318
:10254800FB613B464FF480720421334804F04AFF94
:102558000346002B01D0FFF7E8F83B464FF48062B2
:1025680005212D4804F03EFF0346002B01D0FFF75C
:10257800DCF800237B600023BB603B464FF400720D
:102588000421254804F02EFF0346002B01D0FFF755
:10259800CCF83B464FF4006205211F4804F022FFA7
:1025A8000346002B01D0FFF7C0F807F1D8031A46FD
:1025B8000521194804F032F80346002B01D0FFF733
:1025C800B4F807F150031A460521134804F0E9FC52
:1025D8000346002B01D0FFF7A8F807F16C0301228E
:1025E80005210D4804F090FD0346002B01D0FFF7AC
:1025F8009CF807F16C0304220521074804F084FDC8
:102608000346002B01D0FFF790F8034800F026F8A6
:1026180000BFF037BD4680BDC009002080B485B03A
:1026280000AF78607B681B680A4A93420BD10A4B5B
:102638001B6E094A43F080631366074B1B6E03F059
:102648008063FB60FB6800BF1437BD465DF8047B00
:10265800704700BF006801400010024080B58AB092
:1026680000AF786007F1140300221A605A609A607C
:10267800DA601A617B681B68284A93424AD1284B62
:10268800DB6C274A43F00403D364254BDB6C03F06F
:1026980004033B613B69224BDB6C214A43F0010395
:1026A800D3641F4BDB6C03F00103FB60FB68C023A2
:1026B8007B610223BB610023FB6103233B620D2383
:1026C8007B6207F114031946164803F063F84FF4C8
:1026D80040737B610223BB610023FB6103233B62E0
:1026E80003237B6207F1140319460E4803F052F8DE
:1026F8004FF440637B610223BB610023FB6103232A
:102708003B620D237B6207F1140319464FF090409A
:1027180003F040F800BF2837BD4680BD006801407F
:10272800001002400008004880B500AF124B134A61
:102738001A60114B00225A600F4B00229A600E4B10
:102748004FF6FF725A610C4B00221A620A4B0022A4
:102758005A62094B00229A62074B0022DA62064B42
:1027680000221A63044805F00FFB0346002B01D032
:10277800FEF7DBFF00BF80BDBC0A0020007C0040E4
:1027880080B598B000AF786007F10C03542200219F
:102798001846FDF71DFD7B681B68154A934222D138
:1027A8004FF40073FB600023BB6307F10C0318466A
:1027B80002F0A2FD0346002B01D0FEF7B6FF0D4B39
:1027C8009B6D0C4A43F0004393650A4B9B6D03F0E5
:1027D8000043BB60BB6800220021312003F08DFD5F
:1027E800312003F0A4FD00BF6037BD4680BD00BFA7
:1027F800007C00400010024080B598B000AF07F19F
:10280800540300221A605A609A6007F138030022C4
:102818001A605A609A60DA601A615A619A613B1DBF
:10282800342200211846FDF7D3FC414B414A1A6077
:102838003F4B11225A603E4B00229A603C4B4FF4AA
:10284800FA62DA603A4B00221A61394B00225A6167
:10285800374B00229A61364805F01AFE0346002BD2
:1028680001D0FEF762FF00237B650023BB650023D0
:10287800FB6507F1540319462D4806F07BFE034615
:10288800002B01D0FEF751FF6023BB630023FB63DD
:1028980000233B6400237B640023BB640023FB64A8
:1028A80000233B6507F1380300221946204805F04C
:1028B80095FF0346002B01D0FEF737FF07F13803D9
:1028C800042219461A4805F089FF0346002B01D057
:1028D800FEF72BFF00237B600023BB600023FB6017
:1028E80000233B6100237B614FF40053BB6100234D
:1028F800FB6100233B6200237B624FF00073BB62E5
:102908000023FB6200233B6300237B633B1D1946C6
:10291800074806F0C5FE0346002B01D0FEF705FF69
:10292800034800F0FDF900BF6037BD4680BD00BF19
:10293800F40A0020002C014080B588B000AF07F1F0
:10294800100300221A605A609A60DA603B1D002268
:102958001A605A609A601D4B1D4A1A601B4BAA22C6
:102968005A601A4B00229A60184B44F62062DA60CB
:10297800164B00221A61154B00229A61134805F084
:10298800B7FC0346002B01D0FEF7CFFE4FF480536F
:102998003B6107F1100319460C4806F033F803466B
:1029A800002B01D0FEF7C1FE00237B600023FB60F3
:1029B8003B1D1946054806F0DDFD0346002B01D0F6
:1029C800FEF7B3FE00BF2037BD4680BD400B002098
:1029D800000C004080B584B000AF3B1D00221A6097
:1029E8005A609A60144B154A1A60134B10225A60A9
:1029F800114B00229A60104B42F20F72DA600E4BB4
:102A080000229A610C4805F073FC0346002B01D0A4
:102A1800FEF78BFE00237B600023FB603B1D1946FD
:102A2800054806F0A7FD0346002B01D0FEF77DFE02
:102A380000BF1037BD4680BD8C0B00200010004041
:102A480080B584B000AF3B1D00221A605A609A60BE
:102A5800144B154A1A60134BAA225A60114B0022D4
:102A68009A60104B41F28832DA600E4B00229A616C
:102A78000C4805F03DFC0346002B01D0FEF755FE3F
:102A880000237B600023FB603B1D1946054806F0C8
:102A980071FD0346002B01D0FEF747FE00BF10373B
:102AA800BD4680BDD80B00200014004080B59CB006
:102AB80000AF07F1600300221A605A609A60DA607A
:102AC80007F1540300221A605A609A6007F138032C
:102AD80000221A605A609A60DA601A615A619A6133
:102AE8003B1D342200211846FDF772FB454B464A30
:102AF8001A60444B10225A60424B00229A60414BA4
:102B08006322DA603F4B00221A613E4B00225A6171
:102B18003C4B00229A613B4805F0EAFB0346002B38
:102B280001D0FEF702FE4FF480533B6607F16003C5
:102B38001946344805F066FF0346002B01D0FEF71E
:102B4800F4FD304805F0A4FC0346002B01D0FEF745
:102B5800ECFD00237B650023BB650023FB6507F1C3
:102B680054031946274806F005FD0346002B01D0FB
:102B7800FEF7DBFD6023BB630023FB6300233B649C
:102B880000237B640023BB640023FB6400233B65B4
:102B980007F13803002219461A4805F01FFE0346BC
:102BA800002B01D0FEF7C1FD00237B600023BB6032
:102BB8000023FB6000233B6100237B614FF400533B
:102BC800BB610023FB6100233B6200237B624FF063
:102BD8000073BB620023FB6200233B6300237B631B
:102BE8003B1D1946074806F05BFD0346002B01D044
:102BF800FEF79BFD034800F093F800BF7037BD4611
:102C080080BD00BF240C00200034014080B485B092
:102C180000AF78607B681B680A4A93420BD10A4B65
:102C28001B6E094A43F400631366074B1B6E03F4DB
:102C38000063FB60FB6800BF1437BD465DF8047B8A
:102C4800704700BF002C01400010024080B586B0DC
:102C580000AF78607B681B682C4A934214D12C4BD8
:102C68009B6D2B4A43F008039365294B9B6D03F03A
:102C780008037B617B6900220021322003F03DFBC1
:102C8800322003F054FB3CE07B681B68214A9342E6
:102C980014D11F4B9B6D1E4A43F0100393651C4BC8
:102CA8009B6D03F010033B613B6900220021362035
:102CB80003F023FB362003F03AFB22E07B681B6815
:102CC800154A93420CD1124B9B6D114A43F02003D5
:102CD80093650F4B9B6D03F02003FB60FB6810E0CE
:102CE8007B681B680D4A93420BD1094B1B6E084A3F
:102CF80043F400531366064B1B6E03F40053BB608A
:102D0800BB6800BF1837BD4680BD00BF000C00403F
:102D18000010024000100040001400400034014040
:102D280080B58AB000AF786007F1140300221A60FA
:102D38005A609A60DA601A617B681B682A4A934273
:102D48001CD12A4BDB6C294A43F00403D364274B7C
:102D5800DB6C03F004033B613B6903237B610223C3
:102D6800BB610023FB6100233B6202237B6207F106
:102D7800140319461E4802F00DFD30E07B681B68FD
:102D88001C4A93422BD1194BDB6C184A43F00203BF
:102D9800D364164BDB6C03F00203FB60FB6808236B
:102DA8007B610223BB610023FB6100233B62042398
:102DB8007B6207F1140319460F4802F0EBFC40232D
:102DC8007B610223BB610023FB6100233B62052377
:102DD8007B6207F114031946074802F0DBFC00BFC9
:102DE8002837BD4680BD00BF002C014000100240BE
:102DF80000080048003401400004004880B400AFD7
:102E080000BFFDE780B400AF00BFFDE780B400AFAE
:102E180000BFFDE780B400AF00BFFDE780B400AF9E
:102E280000BFFDE780B400AF00BFBD465DF8047B7E
:102E3800704780B400AF00BFBD465DF8047B7047A3
:102E480080B400AF00BFBD465DF8047B704780B515
:102E580000AF01F02DFD00BF80BD000080B500AFC0
:102E6800024802F06CFF00BF80BD00BF9C08002034
:102E780080B500AF024802F062FF00BF80BD00BF0E
:102E8800FC08002080B500AF024802F058FF00BFE0
:102E980080BD00BF5C09002080B500AF024805F086
:102EA80043F800BF80BD00BFBC0A002080B500AF5A
:102EB800024805F044FB00BF80BD00BF400B002066
:102EC80080B500AF024805F03AFB00BF80BD00BFE7
:102ED8008C0B002080B500AF024802F030FF00BF25
:102EE80080BD00BF3C08002080B582B000AF0F4B0A
:102EF8001B6E0E4A43F0010313660C4B1B6E03F066
:102F080001037B607B68094B9B6D084A43F0805343
:102F18009365064B9B6D03F080533B603B6803F061
:102F280001F900BF0837BD4680BD00BF0010024050
:102F380080B483B000AF786039607B689B6823F405
:102F48007C123B681A437B689A6000BF0C37BD4609
:102F58005DF8047B704780B483B000AF7860396057
:102F68007B689B6823F0E0723B681A437B689A6031
:102F780000BF0C37BD465DF8047B704780B483B052
:102F880000AF78607B689B6803F0E07318460C37E5
:102F9800BD465DF8047B704780B487B000AFF86029
:102FA800B9607A603B60FB6860331A46BB689B0077
:102FB80013447B617B691A68084B13407A6802F0F6
:102FC800F8413A680A43134343F000427B691A60A8
:102FD80000BF1C37BD465DF8047B704700F0FF0357
:102FE80080B485B000AF786039607B6860331A467A
:102FF8003B689B001344FB60FB681B6803F0F843C5
:1030080018461437BD465DF8047B704780B487B016
:1030180000AFF860B9607A60FB6860331A46BB6835
:103028009B0013447B617B691B6823F000427B682B
:103038001A437B691A6000BF1C37BD465DF8047BE4
:10304800704780B487B000AFF860B9607A60FB68F9
:1030580060331A46BB689B0013447B617B691B681D
:1030680023F080727B681A437B691A6000BF1C37A3
:10307800BD465DF8047B704780B487B000AFF86048
:10308800B9607A60FB6860331A46BB689B001344DA
:103098007B617B691B6823F000727B681A437B693C
:1030A8001A6000BF1C37BD465DF8047B704780B4CA
:1030B80083B000AF786039607B685B6923F00042B9
:1030C8003B681A437B685A6100BF0C37BD465DF800
:1030D800047B704780B483B000AF78607B68DB689E
:1030E80003F44063002B01D1012300E000231846BC
:1030F8000C37BD465DF8047B704780B487B000AFDD
:10310800F860B9607A60FB6830331A46BB681B0AFE
:103118009B0003F00C0313447B617B691A68BB684E
:1031280003F01F031F2101FA03F3DB431A407B68F6
:103138009B0E03F01F01BB6803F01F0301FA03F3A2
:103148001A437B691A6000BF1C37BD465DF8047BD3
:10315800704780B487B000AFF860B9607A60FB68E8
:1031680014331A46BB685B0E9B0003F00403134438
:103178007B617B691A68BB681B0D03F01F0307217D
:1031880001FA03F3DB431A40BB681B0D03F01F036E
:10319800796801FA03F31A437B691A6000BF1C3788
:1031A800BD465DF8047B704780B485B000AFF86019
:1031B800B9607A60FB68D3F8B020BB68C3F3120328
:1031C800DB431A407B6803F018030849D940BB6801
:1031D8000B40C3F312031A43FB68C3F8B02000BFC7
:1031E8001437BD465DF8047B704700BFFFFF07003A
:1031F80080B483B000AF78607B689B6803F01F03DE
:1032080018460C37BD465DF8047B704780B483B020
:1032180000AF78607B689B6823F0204323F03F036E
:103228007A68936000BF0C37BD465DF8047B704731
:1032380080B483B000AF78607B689B6803F000536C
:10324800B3F1005F01D1012300E0002318460C37D9
:10325800BD465DF8047B704780B483B000AF7860EA
:103268007B689B6823F0104323F03F0343F08052B0
:103278007B689A6000BF0C37BD465DF8047B7047D9
:1032880080B483B000AF78607B689B6803F080539C
:10329800B3F1805F01D1012300E0002318460C3709
:1032A800BD465DF8047B704780B483B000AF78609A
:1032B8007B689B6823F0004323F03F0343F001023F
:1032C8007B689A6000BF0C37BD465DF8047B704789
:1032D80080B483B000AF78607B689B6823F00043BC
:1032E80023F03F0343F002027B689A6000BF0C376B
:1032F800BD465DF8047B704780B483B000AF78604A
:103308007B689B6803F00103012B01D1012300E0D6
:10331800002318460C37BD465DF8047B704780B41F
:1033280083B000AF78607B689B6803F00203022BD0
:1033380001D1012300E0002318460C37BD465DF893
:10334800047B704780B483B000AF78607B689B686B
:1033580023F0004323F03F0343F004027B689A60A4
:1033680000BF0C37BD465DF8047B704780B483B05E
:1033780000AF78607B689B6803F00403042B01D1DD
:10338800012300E0002318460C37BD465DF8047B96
:10339800704780B483B000AF78607B689B6803F0A7
:1033A8000803082B01D1012300E0002318460C373D
:1033B800BD465DF8047B704790B589B000AF786072
:1033C8000023FB770023FB607B68002B01D10123DE
:1033D800A9E17B685B69002B7B68DB6D002B09D159
:1033E8007868FEF739FC7B6800221A667B68002241
:1033F80083F858207B681B681846FFF719FF0346B7
:10340800002B04D07B681B681846FFF7FFFE7B681B
:103418001B681846FFF734FF0346002B15D17B685D
:103428001B681846FFF718FF9C4B1B689B099C4AB2
:10343800A2FB03239B0901335B00FB6002E0FB68EE
:10344800013BFB60FB68002BF9D17B681B681846C1
:10345800FFF716FF0346002B0DD17B68DB6D43F0A9
:1034680010027B68DA657B681B6E43F001027B689B
:103478001A660123FB777B681B681846FFF776FFFF
:1034880078617B68DB6D03F01003002B40F042810C
:103498007B69002B40F03E817B68DB6D23F48173F0
:1034A80043F002027B68DA657B681B681846FFF701
:1034B80023FF0346002B41D17B681B68B3F1A04F63
:1034C80004D07B681B68774A93420FD14FF0A04025
:1034D800FFF712FF04467348FFF70EFF0346234326
:1034E800002B0CBF01230023DBB212E06E48FFF76C
:1034F80003FF04466D48FFF7FFFE03461C436C4874
:10350800FFF7FAFE03462343002B0CBF01230023D9
:10351800DBB2002B12D07B681B68B3F1A04F04D03C
:103528007B681B685F4A934201D1624A00E0624AA5
:103538007B685B6819461046FFF7FAFC7B685B7F7F
:103548005A037B68DB6B1A437B68DB681A437B682A
:103558009B681A437B6893F824301B041343BB61B0
:103568007B6893F82430012B06D17B689B6A013B6A
:103578005B04BA691343BB617B68DB6A002B09D023
:103588007B68DB6A03F478727B681B6B1343BA6948
:103598001343BB617B681B68DA68484B13407A6841
:1035A8001268B9690B43D3607B681B681B6923F0F9
:1035B80040617B685A6B7B681B680A431A617B68A9
:1035C8001B681846FFF7E5FE38617B69002B7FD141
:1035D8003B69002B7CD17B681B7F9A037B6893F83F
:1035E80038305B001343BB617B681B68DB6823F4DE
:1035F800804323F002037A681268B9690B43D360E9
:103608007B681B69002B17D07B681B681A697B686D
:103618001B6842F480321A617B681B68D3F8C0309B
:1036280023F47F5323F03F037A6811697A6812689C
:103638000B43C2F8C03013E07B681B681A697B68CB
:103648001B6822F480321A617B681B68D3F8C0308B
:103658007A68126823F47F5323F03F03C2F8C0301E
:103668007B6893F84030012B2AD17B681B681B6963
:1036780023F4FF6323F004037A68516C7A68926C30
:1036880011437A68D26C11437A68126D0A431A435F
:103698007B681B6842F001021A6119E0780000207B
:1036A800632D3E0500010050000400500005005045
:1036B8000006005000030050000700500740F0FFCC
:1036C8007B681B681A697B681B6822F001021A6113
:1036D8007B685B69012B0CD17B681B681B6B23F033
:1036E8000F017B681B6A5A1E7B681B680A431A63B2
:1036F80007E07B681B681A6B7B681B6822F00F0267
:103708001A637B68DB6D23F0030343F001027B68D7
:10371800DA6507E07B68DB6D43F010027B68DA65E9
:103728000123FB77FB7F18462437BD4690BD00BFB9
:1037380080B586B000AFF860B9607A60FB681B6836
:10374800B3F1A04F04D0FB681B685A4A934201D1D9
:10375800594B00E0594B1846FFF74AFD3861FB68A2
:103768001B681846FFF702FE0346002B40F09B80BB
:10377800FB6893F85830012B01D1022396E0FB68CF
:10378800012283F85820FB681B684D4A934208D0F1
:103798003B69002B05D03B69052B02D03B69092BFF
:1037A8007AD1F86800F0ECFC0346FB75FB7D002B32
:1037B8006DD1FB68DB6D23F4706323F0010343F4E0
:1037C8008072FB68DA65FB681B683A4A934209D045
:1037D800FB681B683B4A934202D0FB681B6803E006
:1037E800394B01E04FF0A043FA681268934202D0C7
:1037F8003B69002B05D1FB68DB6D23F48012FB6865
:10380800DA65FB68DB6D03F48053002B06D0FB6898
:103818001B6E23F00602FB681A6602E0FB680022B2
:103828001A66FB685B6D294ADA62FB685B6D284A99
:103838001A63FB685B6D274A5A63FB681B681C2286
:103848001A60FB68002283F85820FB681B685A68D6
:10385800FB681B6842F010025A60FB681B68DA6854
:10386800FB681B6842F00102DA60FB68586DFB6870
:103878001B6840331946BA687B6802F0E5F90346CD
:10388800FB75FB681B681846FFF75CFD0DE0FB68DD
:10389800002283F8582008E00123FB75FB6800220A
:1038A80083F8582001E00223FB75FB7D1846183782
:1038B800BD4680BD000100500003005000070050C5
:1038C8000006005000050050000400507343000833
:1038D8004B4400086744000880B483B000AF7860A8
:1038E80000BF0C37BD465DF8047B704780B483B0D9
:1038F80000AF786000BF0C37BD465DF8047B7047A9
:1039080080B5B6B000AF78603960002387F8D7304B
:103918000023FB607B6893F85830012B02D1022307
:1039280000F013BC7B68012283F858207B681B6871
:103938001846FFF71BFD0346002B40F0F3837B6816
:1039480018683B6859683B681B681A46FFF7D5FB3F
:103958007B681B681846FFF709FDC7F8D0007B682D
:103968001B681846FFF715FDC7F8CC00D7F8D0300C
:10397800002B40F0D981D7F8CC30002B40F0D4810F
:103988003B689B68B3F1004F0FD17B6818683B68B0
:103998001B6800221946FFF7DCFB7B681B684FF0A9
:1039A80000411846FFF783FB0EE07B6818683B6808
:1039B80019683B689B681A46FFF7CBFB7B681B6856
:1039C80000211846FFF773FB3B685A697B681B6840
:1039D800DB68DB0803F003035B0002FA03F3C7F8B4
:1039E800C8303B681B69042B22D07B6818683B6889
:1039F80019693B681A68D7F8C830FFF7CDFA7B68B1
:103A080018683B6819693B689B691A46FFF719FBF8
:103A18007B6818683B6819693B681B7F012B02D1DA
:103A28004FF0007300E000231A46FFF725FB7BE107
:103A38007B681B6800211846FFF7D2FA0346C3F3D8
:103A48001203002B0AD17B681B6800211846FFF778
:103A5800C7FA03469B0E03F01F021EE07B681B6833
:103A680000211846FFF7BCFA0346C7F8BC30D7F860
:103A7800BC3093FAA3F3C7F8C030D7F8C030C7F802
:103A8800B830D7F8B830002B01D1202304E0D7F89C
:103A9800B830B3FA83F3DBB21A463B681B68C3F34A
:103AA8001203002B05D13B681B689B0E03F01F0314
:103AB80018E03B681B68C7F8B030D7F8B03093FA05
:103AC800A3F3C7F8AC30D7F8AC30C7F8B430D7F8A0
:103AD800B430002B01D1202304E0D7F8B430B3FA76
:103AE80083F3DBB29A4206D17B681B68002200216F
:103AF8001846FFF78BFA7B681B6801211846FFF709
:103B08006FFA0346C3F31203002B0AD17B681B68C4
:103B180001211846FFF764FA03469B0E03F01F02C3
:103B28001EE07B681B6801211846FFF759FA034617
:103B3800C7F8A430D7F8A43093FAA3F3C7F8A03095
:103B4800D7F8A030C7F8A830D7F8A830002B01D193
:103B5800202304E0D7F8A830B3FA83F3DBB21A467F
:103B68003B681B68C3F31203002B05D13B681B6835
:103B78009B0E03F01F0318E03B681B68C7F89830DA
:103B8800D7F8983093FAA3F3C7F89430D7F894305D
:103B9800C7F89C30D7F89C30002B01D1202304E0D3
:103BA800D7F89C30B3FA83F3DBB29A4206D17B682C
:103BB8001B68002201211846FFF728FA7B681B685A
:103BC80002211846FFF70CFA0346C3F31203002B31
:103BD8000AD17B681B6802211846FFF701FA0346E1
:103BE8009B0E03F01F021EE07B681B68022118462B
:103BF800FFF7F6F90346C7F88C30D7F88C3093FAFC
:103C0800A3F3C7F88830D7F88830C7F89030D7F8CA
:103C18009030002B01D1202304E0D7F89030B3FA7C
:103C280083F3DBB21A463B681B68C3F31203002B0D
:103C380005D13B681B689B0E03F01F0316E03B6829
:103C48001B68C7F88030D7F8803093FAA3F3FB6776
:103C5800FB6FC7F88430D7F88430002B01D12023BC
:103C680004E0D7F88430B3FA83F3DBB29A4206D182
:103C78007B681B68002202211846FFF7C7F97B689A
:103C88001B6803211846FFF7ABF90346C3F3120379
:103C9800002B0AD17B681B6803211846FFF7A0F99F
:103CA80003469B0E03F01F0217E07B681B68032185
:103CB8001846FFF795F903467B677B6F93FAA3F3E2
:103CC8003B673B6FBB67BB6F002B01D1202303E031
:103CD800BB6FB3FA83F3DBB21A463B681B68C3F3C6
:103CE8001203002B05D13B681B689B0E03F01F03D2
:103CF80011E03B681B68BB66BB6E93FAA3F37B6657
:103D08007B6EFB66FB6E002B01D1202303E0FB6E6C
:103D1800B3FA83F3DBB29A4206D17B681B680022B0
:103D280003211846FFF772F97B681B681846FFF7EE
:103D3800E3FA0346002B40F03D817B6818683B6836
:103D480019683B68DB681A46FFF72EFA3B68DB68A0
:103D5800A24A934240F02E817B6818683B681B6832
:103D6800C3F31203002B0BD13B681B689B0E013376
:103D780003F01F03092B94BF01230023DBB219E0D2
:103D88003B681B68FB65FB6D93FAA3F3BB65BB6DD2
:103D98003B663B6E002B01D1202303E03B6EB3FA58
:103DA80083F3DBB2013303F01F03092B94BF012314
:103DB8000023DBB2002B79D03B681B68C3F31203E6
:103DC800002B07D13B681B689B0E01339B0603F051
:103DD800F84215E03B681B683B653B6D93FAA3F31B
:103DE800FB64FB6C7B657B6D002B01D1202303E01A
:103DF8007B6DB3FA83F3DBB201339B0603F0F84221
:103E08003B681B68C3F31203002B09D13B681B688E
:103E18009B0E013303F01F03012101FA03F317E09E
:103E28003B681B687B647B6C93FAA3F33B643B6C35
:103E3800BB64BB6C002B01D1202303E0BB6CB3FA3D
:103E480083F3DBB2013303F01F03012101FA03F30B
:103E580042EA03013B681B68C3F31203002B0AD133
:103E68003B681B689B0E013303F01F0213465B007F
:103E780013441B0518E03B681B68BB63BB6B93FAD4
:103E8800A3F37B637B6BFB63FB6B002B01D12023CC
:103E980003E0FB6BB3FA83F3DBB2013303F01F02D9
:103EA80013465B0013441B050B437EE03B681B680D
:103EB800C3F31203002B07D13B681B689B0E013329
:103EC8009B0603F0F84215E03B681B68FB62FB6A3F
:103ED80093FAA3F3BB62BB6A3B633B6B002B01D134
:103EE800202303E03B6BB3FA83F3DBB201339B0679
:103EF80003F0F8423B681B68C3F31203002B09D197
:103F08003B681B689B0E013303F01F03012101FA74
:103F180003F317E03B681B683B623B6A93FAA3F321
:103F2800FB61FB697B627B6A002B01D1202303E0E4
:103F38007B6AB3FA83F3DBB2013303F01F03012179
:103F480001FA03F342EA03013B681B68C3F3120357
:103F5800002B0DD13B681B689B0E013303F01F0239
:103F680013465B0013441E3B1B0543F000731BE024
:103F78003B681B687B617B6993FAA3F33B613B69F0
:103F8800BB61BB69002B01D1202303E0BB69B3FAF5
:103F980083F3DBB2013303F01F0213465B001344C3
:103FA8001E3B1B0543F000730B433A6892681946A1
:103FB800FFF7CFF83B681A68094B1340002B00F055
:103FC800BE807B681B68B3F1A04F04D07B681B6878
:103FD800044A93420AD1044B09E000BF00007F4025
:103FE800000008800001005000030050594B18469B
:103FF800FEF7C4FFC7F8C4003B681B68564A9342E3
:1040080004D03B681B68554A93423AD1D7F8C4306C
:1040180003F40003002B34D17B681B68B3F1A04F75
:1040280005D07B681B684E4A934240F085807B68C8
:104038001B68B3F1A04F04D07B681B68494A9342C0
:1040480001D1494A00E0434AD7F8C43043F4000399
:1040580019461046FEF77FFF444B1B689B09444AEC
:10406800A2FB03239B095A1C13465B0013449B00C5
:10407800FB6002E0FB68013BFB60FB68002BF9D1A9
:104088005AE03B681B683B4A934225D1D7F8C430B5
:1040980003F08073002B1FD17B681B68314A934261
:1040A80004D17B681B68344A934247D07B681B68FD
:1040B800B3F1A04F04D07B681B682A4A934201D110
:1040C800294A00E0234AD7F8C43043F080731946E0
:1040D8001046FEF740FF31E03B681B68274A9342D1
:1040E8002DD1D7F8C43003F48003002B27D17B6887
:1040F8001B681C4A934222D07B681B68B3F1A04F0F
:1041080004D07B681B68174A934201D1164A00E025
:10411800104AD7F8C43043F4800319461046FEF716
:104128001AFF0CE07B68DB6D43F020027B68DA65E0
:10413800012387F8D73002E000BF00E000BF7B68AA
:10414800002283F8582097F8D7301846D837BD464C
:1041580080BD00BF00070050000021C31000C090C0
:1041680000060050000100500003005078000020B5
:10417800632D3E05000052C700050050000084CBA7
:1041880080B584B000AF78600023BB607B681B6893
:104198001846FFF7B1F80346002B76D17B681B68F9
:1041A8009A683C4B1340002B0DD07B68DB6D43F0C5
:1041B80010027B68DA657B681B6E43F001027B683E
:1041C8001A66012362E07B681B681846FFF76CF8E3
:1041D8007B681B68B3F1A04F04D07B681B682E4A2C
:1041E800934201D12D4B00E02D4B1846FEF7C6FE39
:1041F800034603F40003002B13D02A4B1B689B09CA
:10420800294AA2FB03239B095A1C13465B0013444B
:104218009B00BB6002E0BB68013BBB60BB68002B36
:10422800F9D100F057FBF86028E07B681B68184656
:10423800FFF762F80346002B04D17B681B68184619
:10424800FFF732F800F046FB0246FB68D31A022B50
:1042580014D97B681B681B6803F00103012B0DD080
:104268007B68DB6D43F010027B68DA657B681B6E48
:1042780043F001027B681A66012307E07B681B682C
:104288001B6803F00103012BCFD100231846103718
:10429800BD4680BD3F000080000100500003005073
:1042A8000007005078000020632D3E0580B584B0DB
:1042B80000AF78607B681B681846FFF730F8F86035
:1042C8007B681B681846FFF717F80346002B47D092
:1042D800FB68002B44D17B681B689B6803F00D03C7
:1042E800012B0CD17B681B681846FEF7F1FF7B6831
:1042F8001B6803221A6000F0EDFAB86029E07B68B9
:10430800DB6D43F010027B68DA657B681B6E43F057
:1043180001027B681A66012323E000F0DBFA0246FB
:10432800BB68D31A022B14D97B681B689B6803F0FF
:104338000103002B0DD07B68DB6D43F010027B6816
:10434800DA657B681B6E43F001027B681A660123FD
:1043580007E07B681B689B6803F00103002BDCD136
:10436800002318461037BD4680BD80B584B000AF25
:1043780078607B689B6AFB60FB68DB6D03F0500329
:10438800002B4BD1FB68DB6D43F40072FB68DA65E8
:10439800FB681B681B6803F00803002B21D0FB682F
:1043A8001B681846FEF796FE0346002B32D0FB68C2
:1043B8001B68DB6803F40053002B2BD1FB68DB6D13
:1043C80023F48072FB68DA65FB68DB6D03F48053C5
:1043D800002B1FD1FB68DB6D43F00102FB68DA6537
:1043E80018E0FB681B68DB6803F00203002B11D19F
:1043F800FB68DB6D23F48072FB68DA65FB68DB6DB4
:1044080003F48053002B05D1FB68DB6D43F00102F8
:10441800FB68DA65F868FCF71BFC0EE0FB68DB6DEF
:1044280003F01003002B03D0F868FFF75FFA04E0ED
:10443800FB685B6D5B6B7868984700BF1037BD46BB
:1044480080BD80B584B000AF78607B689B6AFB60F4
:10445800F868FFF741FA00BF1037BD4680BD80B548
:1044680084B000AF78607B689B6AFB60FB68DB6D9B
:1044780043F04002FB68DA65FB681B6E43F00402F8
:10448800FB681A66F868FFF731FA00BF1037BD46B7
:1044980080BD80B483B000AF78607B689B6803F010
:1044A8000103012B01D1012300E0002318460C373A
:1044B800BD465DF8047B704780B483B000AF786078
:1044C80039607B689B6823F0404323F03F033A68D8
:1044D80002F08042134343F000427B689A6000BFB9
:1044E8000C37BD465DF8047B704780B483B000AFDD
:1044F80078607B689B6803F00043B3F1004F01D1FB
:10450800012300E0002318460C37BD465DF8047B04
:10451800704780B483B000AF78607B689B6803F015
:104528000403042B01D1012300E0002318460C37B3
:10453800BD465DF8047B704780B584B000AF7860F5
:1045480039600023BB607B6893F85830012B01D198
:1045580002234DE07B68012283F858207868FFF732
:10456800A5FE0346FB73FB7B002B36D17B68DB6D16
:1045780023F4885323F0020343F002027B68DA65D0
:104588007B681B6839681846FFF796FF14E0BB681C
:104598000133BB60BB68184A93420DD97B68DB6D59
:1045A80023F0120343F010027B68DA657B6800226F
:1045B80083F8582001231BE07B681B681846FFF727
:1045C80094FF0346002BE2D17B68DB6D23F00303E5
:1045D80043F001027B68DA6505E07B68DB6D43F038
:1045E80010027B68DA657B68002283F85820FB7B21
:1045F80018461037BD4680BD01DE040090B5A1B055
:1046080000AF78603960002387F87F307B6893F8C3
:104618005830012B01D10223E7E07B68012283F89F
:10462800582000237B660023BB667B681B68B3F1B8
:10463800A04F02D16F4BBB6009E07B681B686E4AD4
:10464800934202D16D4BBB6001E00023BB60BB68A5
:10465800002B0BD17B68DB6D43F020027B68DA65A9
:104668007B68002283F858200123BEE0BB68184607
:10467800FFF74FFFB8677B681B681846FFF749FFCD
:104688000346002B40F0A080BB6F002B40F09C80BD
:104698007B681B68B3F1A04F04D07B681B68554A40
:1046A800934201D1564B00E0564B7B673B681B6831
:1046B800002B4BD07B6F9B6823F460423B685968A2
:1046C8007B6893F838305B030B431A437B6F9A601F
:1046D8007B681B68B3F1A04F04D07B681B68454A10
:1046E80093420FD14FF0A040FFF7D3FE0446414854
:1046F800FFF7CFFE03462343002B0CBF0123002303
:10470800DBB212E03C48FFF7C4FE04463B48FFF723
:10471800C0FE03461C433C48FFF7BBFE0346234349
:10472800002B0CBF01230023DBB2002B56D07B6F7C
:104738009B6823F4716323F00F033A6811683A68A1
:1047480092680A431A437B6F9A6047E07B6F9B68C5
:1047580023F460427B6F9A607B681B68B3F1A04FBB
:1047680004D07B681B68234A93420FD14FF0A040C6
:10477800FFF78FFE04461F48FFF78BFE03462343CF
:10478800002B0CBF01230023DBB212E01A48FFF70D
:1047980080FE04461948FFF77CFE03461C431A486E
:1047A800FFF777FE03462343002B0CBF01230023AA
:1047B800DBB2002B12D07B6F9B6823F4716323F06C
:1047C8000F037A6F936009E07B68DB6D43F020028A
:1047D8007B68DA65012387F87F3000E000BF7B68DB
:1047E800002283F8582097F87F3018468437BD4652
:1047F80090BD00BF000100500004005000050050AB
:1048080000030050000700500006005080B582B039
:1048180000AF0023FB71032001F064FD0F2000F0BE
:104828000DF80346002B02D00123FB7101E0FEF7CF
:104838005BFBFB7918460837BD4680BD80B584B060
:1048480000AF78600023FB73164B1B68002B22D047
:10485800154B1A68134B1B684FF47A71B1FBF3F3CD
:10486800B2FBF3F3184601F070FD0346002B0FD19D
:104878007B680F2B09D8002279684FF0FF3001F0D0
:104888003CFD0A4A7B68136007E00123FB7304E0E0
:104898000123FB7301E00123FB73FB7B18461037F0
:1048A800BD4680BD74000020780000207000002004
:1048B80080B400AF054B1A68054B1B681344034AC4
:1048C800136000BFBD465DF8047B7047700C002084
:1048D8007400002080B400AF034B1B681846BD4627
:1048E8005DF8047B704700BF700C002080B400AFF7
:1048F800054B1B68044A43F00203136000BFBD4622
:104908005DF8047B704700BF10E000E080B588B018
:1049180000AF78607B68002B01D10123FEE27B6841
:104928001B6803F00103002B75D0974B9B6803F0BD
:104938000C03BB61944BDB6803F003037B61BB6929
:104948000C2B02D17B69032B02D0BB69082B0BD13E
:104958008D4B1B6803F40033002B5BD07B685B68CE
:10496800002B57D10123D9E27B685B68B3F5803F00
:1049780006D1854B1B68844A43F4803313601DE0DD
:104988007B685B68B3F5A02F0CD17F4B1B687E4A10
:1049980043F4802313607C4B1B687B4A43F48033C9
:1049A80013600BE0784B1B68774A23F4803313605D
:1049B800754B1B68744A23F4802313607B685B681B
:1049C800002B13D0FFF786FF386108E0FFF782FF5E
:1049D80002463B69D31A642B01D903239EE26A4B32
:1049E8001B6803F40033002BF0D014E0FFF772FFCC
:1049F800386108E0FFF76EFF02463B69D31A642B63
:104A080001D903238AE2604B1B6803F40033002BAF
:104A1800F0D100E000BF7B681B6803F00203002BA5
:104A280075D0594B9B6803F00C03BB61564BDB6890
:104A380003F003037B61BB690C2B02D17B69022B5A
:104A480002D0BB69042B1FD14F4B1B6803F4806352
:104A5800002B05D07B68DB68002B01D101235DE2C8
:104A6800494B5B6823F0FE427B681B691B0646497D
:104A780013434B60454B1B681846FFF7DFFE0346A0
:104A8800002B43D0012349E27B68DB68002B23D04D
:104A98003D4B1B683C4A43F480731360FFF71AFFD1
:104AA800386108E0FFF716FF02463B69D31A022B6C
:104AB80001D9032332E2344B1B6803F48063002BD3
:104AC800F0D0314B5B6823F0FE427B681B691B0604
:104AD8002D4913434B601AE02B4B1B682A4A23F4D9
:104AE80080731360FFF7F6FE386108E0FFF7F2FE07
:104AF80002463B69D31A022B01D903230EE2224B4B
:104B08001B6803F48063002BF0D100E000BF7B68D2
:104B18001B6803F00803002B41D07B685B69002BFE
:104B28001CD0194BD3F89430174A43F00103C2F84C
:104B38009430FFF7CFFE386108E0FFF7CBFE02465E
:104B48003B69D31A022B01D90323E7E10E4BD3F8B3
:104B5800943003F00203002BEFD020E00A4BD3F887
:104B68009430094A23F00103C2F89430FFF7B2FEEB
:104B780038610DE0FFF7AEFE02463B69D31A022BFF
:104B880006D90323CAE100BF0010024070000020CC
:104B98008C4BD3F8943003F00203002BEAD17B68E6
:104BA8001B6803F00403002B00F0A6800023FB77AA
:104BB800844B9B6D03F08053002B01D1012300E04F
:104BC8000023002B0DD07F4B9B6D7E4A43F0805312
:104BD80093657C4B9B6D03F08053FB60FB6801235E
:104BE800FB77794B1B6803F48073002B18D1764B45
:104BF8001B68754A43F480731360FFF76BFE3861D6
:104C080008E0FFF767FE02463B69D31A022B01D979
:104C1800032383E16C4B1B6803F48073002BF0D0F3
:104C28007B689B68012B08D1664BD3F89030654AA6
:104C380043F00103C2F8903024E07B689B68052BA1
:104C480010D1604BD3F890305E4A43F00403C2F8A9
:104C580090305C4BD3F890305A4A43F00103C2F8C5
:104C680090300FE0574BD3F89030564A23F00103A9
:104C7800C2F89030534BD3F89030524A23F00403D3
:104C8800C2F890307B689B68002B16D0FFF722FE95
:104C980038610AE0FFF71EFE02463B69D31A41F26B
:104CA8008832934201D9032338E1464BD3F8903038
:104CB80003F00203002BEDD015E0FFF70BFE38617F
:104CC8000AE0FFF707FE02463B69D31A41F2883231
:104CD800934201D9032321E13A4BD3F8903003F0F2
:104CE8000203002BEDD1FB7F012B05D1354B9B6DCA
:104CF800344A23F0805393657B681B6803F02003D4
:104D0800002B3CD07B689B69002B1CD02D4BD3F823
:104D180098302C4A43F00103C2F89830FFF7DAFDC7
:104D2800386108E0FFF7D6FD02463B69D31A022B2B
:104D380001D90323F2E0234BD3F8983003F00203A0
:104D4800002BEFD01BE01F4BD3F898301D4A23F0FF
:104D58000103C2F89830FFF7BDFD386108E0FFF79E
:104D6800B9FD02463B69D31A022B01D90323D5E0CA
:104D7800144BD3F8983003F00203002BEFD17B6873
:104D8800DB69002B00F0C9800E4B9B6803F00C0315
:104D98000C2B00F083807B68DB69022B5ED1094B0A
:104DA8001B68084A23F080731360FFF793FD38618E
:104DB8000CE0FFF78FFD02463B69D31A022B05D999
:104DC8000323ABE00010024000700040554B1B6805
:104DD80003F00073002BECD1524BDA68524B1340AE
:104DE8007A68116A7A68526A013A120111437A683C
:104DF800926A120211437A68126B5208013A5205FC
:104E080011437A68526B5208013A520611437A6884
:104E1800D26AD2060A4343491343CB60414B1B680D
:104E2800404A43F0807313603E4BDB683D4A43F0D1
:104E38008073D360FFF74EFD386108E0FFF74AFD45
:104E480002463B69D31A022B01D9032366E0354B8E
:104E58001B6803F00073002BF0D05EE0314B1B6839
:104E6800304A23F080731360FFF734FD386108E09F
:104E7800FFF730FD02463B69D31A022B01D9032301
:104E88004CE0284B1B6803F00073002BF0D1254B36
:104E9800DA682449254B1340CB603EE07B68DB6928
:104EA800012B01D1012339E01E4BDB687B617B6953
:104EB80003F003027B681B6A9A422CD17B6903F0DA
:104EC800F0027B685B6A013B1B019A4223D17B6934
:104ED80003F4FE427B689B6A1B029A421BD17B69E2
:104EE80003F078427B68DB6ADB069A4213D17B6960
:104EF80003F4C0027B681B6B5B08013B5B059A42AD
:104F080009D17B6903F0C0627B685B6B5B08013B7E
:104F18005B069A4201D0012300E00023184620379F
:104F2800BD4680BD001002400C809F01FCFFEEFED4
:104F380080B586B000AF7860396000237B617B68FC
:104F4800002B01D101231EE1914B1B6803F00F03D5
:104F58003A689A4210D98E4B1B6823F00F028C498D
:104F68003B6813430B608A4B1B6803F00F033A68D6
:104F78009A4201D0012306E17B681B6803F0010314
:104F8800002B73D07B685B68032B29D1814B1B688E
:104F980003F00073002B01D10123F4E000F066F95F
:104FA80038613B697C4A93423FD97A4B9B6803F04E
:104FB800F003002B09D07B681B6803F00203002B69
:104FC80033D07B689B68002B2FD1724B9B6823F0F2
:104FD800F003704A43F08003936080237B6124E0F0
:104FE8007B685B68022B07D16A4B1B6803F40033AC
:104FF800002B09D10123C6E0664B1B6803F48063CC
:10500800002B01D10123BEE000F0CEF838613B69E6
:10501800614A934209D95F4B9B6823F0F0035D4ACC
:1050280043F08003936080237B615A4B9B6823F095
:1050380003027B685B68574913438B60FFF74AFCA0
:10504800F8600AE0FFF746FC0246FB68D31A41F213
:105058008832934201D9032395E04E4B9B6803F0B5
:105068000C027B685B689B009A42EBD17B681B68EB
:1050780003F00203002B23D07B681B6803F00403B2
:10508800002B05D0434B9B68424A43F4E06393608E
:105098007B681B6803F00803002B07D03D4B9B6817
:1050A80023F47C533B4A43F4E0639360394B9B6899
:1050B80023F0F0027B689B68364913438B6008E055
:1050C8007B69802B05D1334B9B68324A23F0F00370
:1050D80093602F4B1B6803F00F033A689A421DD266
:1050E8002B4B1B6823F00F0229493B6813430B60C5
:1050F800FFF7F0FBF8600AE0FFF7ECFB0246FB68FD
:10510800D31A41F28832934201D903233BE0204B62
:105118001B6803F00F033A689A42EDD17B681B685D
:1051280003F00403002B08D01A4B9B6823F4E062B9
:105138007B68DB68174913438B607B681B6803F047
:105148000803002B09D0134B9B6823F460527B683B
:105158001B69DB000F4913438B6000F025F80246FA
:105168000C4B9B681B0903F00F030C49CB5C03F045
:105178001F0322FA03F30A4A13600A4B1B681846F6
:10518800FFF75CFB034618461837BD4680BD00BFD5
:10519800002002400010024000B4C40460990008D6
:1051A800780000207000002080B487B000AF2C4B3E
:1051B8009B6803F00C03042B02D12A4B3B6147E0A8
:1051C800274B9B6803F00C03082B02D1264B3B614D
:1051D8003EE0234B9B6803F00C030C2B36D1204B8D
:1051E800DB6803F00303FB601D4BDB681B0903F05E
:1051F8000F030133BB60FB68032B0CD11A4ABB6851
:10520800B2FBF3F3164AD268120A02F07F0202FBDD
:1052180003F37B610CE0134ABB68B2FBF3F3104A5B
:10522800D268120A02F07F0202FB03F37B6100BF1F
:105238000B4BDB685B0E03F0030301335B007B6001
:105248007A697B68B2FBF3F33B6101E000233B61C1
:105258003B6918461C37BD465DF8047B704700BFA4
:10526800001002400024F40000127A0080B487B0D5
:1052780000AF1E4BDB6803F003033B611B4BDB688D
:105288001B0903F00F030133FB603B69032B0CD1AF
:10529800174AFB68B2FBF3F3144AD268120A02F009
:1052A8007F0202FB03F37B610CE0124AFB68B2FB4E
:1052B800F3F30E4AD268120A02F07F0202FB03F3EC
:1052C8007B6100BF094BDB685B0E03F0030301330E
:1052D8005B00BB607A69BB68B2FBF3F37B607B68F9
:1052E80018461C37BD465DF8047B70470010024025
:1052F80000127A000024F40080B586B000AF786010
:105308000023FB740023BB747B681B6803F4002331
:10531800002B00F0988000237B74434B9B6D03F0B7
:105328008053002B0DD1404B9B6D3F4A43F0805377
:1053380093653D4B9B6D03F08053BB60BB680123B5
:105348007B743A4B1B68394A43F480731360FFF748
:10535800C1FAF86009E0FFF7BDFA0246FB68D31A04
:10536800022B02D90323FB7405E0304B1B6803F4BE
:105378008073002BEFD0FB7C002B59D12A4BD3F83C
:10538800903003F440737B617B69002B1ED07B68EF
:105398001B6D7A699A4219D0234BD3F8903023F4C5
:1053A80040737B61204BD3F890301F4A43F480331D
:1053B800C2F890301C4BD3F890301B4A23F480334A
:1053C800C2F89030184A7B69C2F890307B6903F0C4
:1053D8000103002B16D0FFF77DFAF8600BE0FFF70A
:1053E80079FA0246FB68D31A41F28832934202D90D
:1053F8000323FB7406E00C4BD3F8903003F0020350
:10540800002BECD0FB7C002B0BD1074BD3F8903052
:1054180023F440727B681B6D03491343C1F8903035
:1054280008E0FB7CBB7405E00010024000700040FF
:10543800FB7CBB747B7C012B05D1A74B9B6DA64ADB
:1054480023F0805393657B681B6803F00103002BEE
:105458000AD0A14BD3F8883023F003027B685B683D
:105468009D491343C1F888307B681B6803F0020329
:10547800002B0AD0984BD3F8883023F00C027B68B5
:105488009B6895491343C1F888307B681B6803F013
:105498000403002B0AD0904BD3F8883023F0300255
:1054A8007B68DB688C491343C1F888307B681B68CC
:1054B80003F00803002B0AD0874BD3F8883023F079
:1054C800C0027B681B6984491343C1F888307B6834
:1054D8001B6803F01003002B0AD07F4BD3F88830E9
:1054E80023F440727B685B697B491343C1F88830B9
:1054F8007B681B6803F02003002B0AD0764BD3F897
:10550800883023F440627B689B6973491343C1F870
:1055180088307B681B6803F04003002B0AD06E4B71
:10552800D3F8883023F440527B68DB696A49134317
:10553800C1F888307B681B6803F08003002B0AD011
:10554800654BD3F8883023F440427B681B6A624974
:105558001343C1F888307B681B6803F48073002B01
:105568000AD05D4BD3F8883023F440327B685B6AFD
:1055780059491343C1F888307B681B6803F400332A
:10558800002B0AD0544BD3F89C3023F003027B68DD
:105598009B6A51491343C1F89C307B681B6803F42C
:1055A8000073002B0AD04C4BD3F8883023F44022E8
:1055B8007B68DB6A48491343C1F888307B681B68FD
:1055C80003F48063002B15D0434BD3F8883023F4C1
:1055D80040127B681B6B40491343C1F888307B68D5
:1055E8001B6BB3F5801F05D13B4BDB683A4A43F48C
:1055F8008013D3607B681B6803F40063002B15D00D
:10560800354BD3F8883023F440027B685B6B324912
:105618001343C1F888307B685B6BB3F5800F05D105
:105628002D4BDB682C4A43F48013D3607B681B68DE
:1056380003F48053002B15D0274BD3F8883023F080
:1056480040727B689B6B24491343C1F888307B68A0
:105658009B6BB3F1807F05D11F4BDB681E4A43F477
:105668008013D3607B681B6803F40053002B15D0AC
:10567800194BD3F8883023F040627B68DB6B1649FE
:105688001343C1F888307B68DB6BB3F1006F05D139
:10569800114BDB68104A43F48013D3607B681B68A6
:1056A80003F48043002B19D00B4BD3F8883023F038
:1056B80040627B681B6C08491343C1F888307B68DB
:1056C8001B6CB3F1006F09D1034BDB68024A43F44A
:1056D8008013D36002E000BF001002407B681B68A3
:1056E80003F40043002B15D0294BD3F8883023F05E
:1056F80040527B685B6C26491343C1F888307B684D
:105708005B6CB3F1805F05D1214BDB68204A43F421
:105718008033D3607B681B6803F48033002B15D07B
:105728001B4BD3F8883023F040427B689B6C1849A8
:105738001343C1F888307B689B6CB3F1804F05D167
:10574800134BDB68124A43F48033D3607B681B68D1
:1057580003F48023002B15D00D4BD3F89C3023F491
:1057680040127B68DB6C0A491343C1F89C307B68A4
:10577800DB6CB3F5001F05D1054BDB68044A43F425
:105788008013D360BB7C18461837BD4680BD00BF68
:105798000010024080B487B000AF78603960002301
:1057A8007B615AE13B681A6801217B6901FA03F3BE
:1057B8001340FB60FB68002B00F04C813B685B6882
:1057C80003F00303012B05D03B685B6803F0030378
:1057D800022B30D17B689B683B617B695B000322AD
:1057E80002FA03F3DB433A6913403B613B68DA682A
:1057F8007B695B0002FA03F33A6913433B617B68F8
:105808003A699A607B685B683B6101227B6902FAAE
:1058180003F3DB433A6913403B613B685B681B0950
:1058280003F001027B6902FA03F33A6913433B610F
:105838007B683A695A603B685B6803F00303032B93
:1058480017D07B68DB683B617B695B00032202FA47
:1058580003F3DB433A6913403B613B689A687B6911
:105868005B0002FA03F33A6913433B617B683A69C8
:10587800DA603B685B6803F00303022B23D17B6982
:10588800DA087B68083253F822303B617B6903F001
:1058980007039B000F2202FA03F3DB433A69134024
:1058A8003B613B681A697B6903F007039B0002FAB6
:1058B80003F33A6913433B617B69DA087B68083272
:1058C800396943F822107B681B683B617B695B0080
:1058D800032202FA03F3DB433A6913403B613B6856
:1058E8005B6803F003027B695B0002FA03F33A6921
:1058F80013433B617B683A691A603B685B6803F451
:105908004033002B00F0A6805B4B1B6E5A4A43F0D5
:1059180001031366584B1B6E03F00103BB60BB68A1
:10592800564A7B699B08023352F823303B617B69F6
:1059380003F003039B000F2202FA03F3DB433A69E7
:1059480013403B617B68B3F1904F1FD07B684C4A92
:10595800934219D07B684B4A934213D07B684A4ADA
:1059680093420DD07B68494A934207D07B68484AE6
:10597800934201D105230AE0062308E0042306E048
:10598800032304E0022302E0012300E000237A69F4
:1059980002F00302920093403A6913433B6137498E
:1059A8007B699B0802333A6941F82320394B9B688D
:1059B8003B61FB68DB433A6913403B613B685B68CA
:1059C80003F48013002B03D03A69FB6813433B614F
:1059D800304A3B6993602F4BDB683B61FB68DB43D4
:1059E8003A6913403B613B685B6803F40013002B82
:1059F80003D03A69FB6813433B61264A3B69D3608D
:105A0800244B5B683B61FB68DB433A6913403B61AD
:105A18003B685B6803F40033002B03D03A69FB68EA
:105A280013433B611B4A3B6953601A4B1B683B613C
:105A3800FB68DB433A6913403B613B685B6803F4EE
:105A48008033002B03D03A69FB6813433B61114A4A
:105A58003B6913607B6901337B613B681A687B692A
:105A680022FA03F3002B7FF49DAE00BF00BF1C3762
:105A7800BD465DF8047B70470010024000000140FD
:105A88000004004800080048000C004800100048C6
:105A9800001400480004014080B485B000AF78606D
:105AA8000B467B807B681A697B881340002B02D0E9
:105AB8000123FB7301E00023FB73FB7B18461437BB
:105AC800BD465DF8047B704780B483B000AF786052
