:020000040800F2
:1000000000000220C5A40008214B0008294B00086D
:10001000314B0008394B0008414B0008000000003C
:10002000000000000000000000000000494B000834
:10003000574B000800000000654B0008734B000898
:1000400015A5000815A5000815A5000815A50008A8
:1000500015A5000815A5000815A5000815A5000898
:1000600015A5000815A5000815A5000815A5000888
:10007000814B0008954B0008A94B0008BD4B0008B8
:1000800015A5000815A5000815A5000815A5000868
:1000900015A5000815A5000815A5000815A5000858
:1000A00015A5000815A5000815A5000815A5000848
:1000B00015A5000815A5000815A5000815A5000838
:1000C00015A5000815A5000815A5000815A5000828
:1000D00015A5000815A5000815A5000815A5000818
:1000E00015A5000815A5000815A5000815A5000808
:1000F00015A5000815A5000815A5000815A50008F8
:1001000015A5000815A50008D14B000815A5000885
:1001100015A5000815A50008E54B000815A5000861
:1001200015A5000815A5000815A5000815A50008C7
:1001300015A5000815A5000815A5000815A50008B7
:1001400015A5000815A5000815A5000815A50008A7
:1001500015A5000815A5000815A5000815A5000897
:1001600015A5000815A5000815A5000815A5000887
:1001700015A5000815A5000815A5000815A5000877
:1001800015A5000815A5000815A5000815A5000867
:1001900015A500080000000015A5000815A5000819
:1001A00015A5000815A5000815A5000815A5000847
:1001B00015A5000815A5000815A5000815A5000837
:1001C00015A5000815A5000815A5000815A5000827
:0801D00015A5000815A50008A3
:1001E000830730B547D0541E002A3ED0CAB203461A
:1001F00001E0013C39D303F8012B9D07F9D1032C11
:100200002CD9CDB205EB05250F2C05EB054535D9CD
:10021000A4F1100222F00F0C03F1100EE6444FEA95
:10022000121C1A46C2E90055C2E902551032724545
:10023000F8D10CF1010214F00C0F03EB021204F0E0
:100240000F0C13D0ACF1040323F003030433134465
:1002500042F8045B9342FBD10CF003042CB1C9B209
:100260001C4403F8011BA342FBD130BD6446134676
:10027000002CF4D1F9E703461446C0E71A46A44619
:10028000E0E700BF70B50F4B0F4DAB42A3EB050687
:1002900007D0B610002455F8043B01349847A64215
:1002A000F9D80AF02DFA094D094B5E1BAB424FEA13
:1002B000A60606D0002455F8043B01349847A64210
:1002C000F9D870BDD0C90008D0C90008D0C900084D
:1002D000D4C90008704700BF704700BF704700BF17
:1002E000704700BF704700BF704700BF01207047D4
:1002F00001207047704700BF704700BF002950D0F1
:1003000038B551F8043C0C1F002BB8BFE418054663
:1003100000F0F6F8274A13682BB1A3420CD92168E4
:10032000601883422CD0636028461460BDE83840D2
:1003300000F0ECB8A3420FD81A465B68002BF9D145
:1003400011685018844217D02CD36360546028463B
:10035000BDE8384000F0DAB811685018A04214D057
:1003600020D8216860188342EFD118685B68084480
:10037000C4E900035460EAE723680B441360E6E72E
:1003800018685B6808442060CDE720680144501875
:1003900083421160DBD1D3E900040144C2E90014B7
:1003A000D5E770470C232B602846BDE8384000F0A5
:1003B000ADB800BFCC01002070B5104E33680546C3
:1003C0000C46B3B12146284600F0A6F8431C0CD0D9
:1003D000C41C24F00304A04205D0211A284600F0D2
:1003E0009BF8013001D0204670BD4FF0FF3420460D
:1003F00070BD194600F090F83060E3E7C8010020B6
:100400002DE9F843CD1C25F0030508350C2D38BF28
:100410000C25002D064618DBA94216D8DFF8DC8033
:1004200000F06EF8D8F80420A2B1144603E0636827
:1004300022467BB11C4623685B1BF8D40B2B1FD8CC
:100440009442636854D053600CE00C233360002066
:10045000BDE8F88329463046FFF7AEFF431C04464B
:1004600019D00560304600F051F804F10B00231D4F
:1004700020F00700C21A1CBF1B1AA350BDE8F88366
:1004800061199442256014BF5160C8F8041063518B
:1004900063684B60E6E7D8F804701FB33C467F689A
:1004A000002FFBD123683946304604EB030900F0E6
:1004B00033F8814516D12368ED1A29463046FFF7F7
:1004C0007BFF01300ED02368D8F804202B44236032
:1004D000536883B1A34203D01A465B689C42FBD1A8
:1004E0000023B0E70C233360304600F00FF8AEE78E
:1004F000C8F80430B6E7C8F80470B3E7C8010020B4
:100500000148FFF7F1BE00BFB80100200148FFF726
:10051000F3BE00BFB801002038B5074D00220446E5
:1005200008462A6009F098FF431C00D038BD2B68AC
:10053000002BFBD0236038BDA401002081F00041D6
:1005400002E000BF83F0004330B54FEA41044FEAB8
:10055000430594EA050F08BF90EA020F1FBF54EA53
:10056000000C55EA020C7FEA645C7FEA655C00F0EF
:10057000E2804FEA5454D4EB5555B8BF6D420CDDC0
:100580002C4480EA020281EA030382EA000083EA43
:10059000010180EA020281EA0303362D88BF30BDE3
:1005A00011F0004F4FEA01314FF4801C4CEA113139
:1005B00002D0404261EB410113F0004F4FEA033398
:1005C0004CEA133302D0524263EB430394EA050F23
:1005D00000F0A780A4F10104D5F1200E0DDB02FA92
:1005E0000EFC22FA05F2801841F1000103FA0EF226
:1005F000801843FA05F359410EE0A5F120050EF1EC
:10060000200E012A03FA0EFC28BF4CF0020C43FA1C
:1006100005F3C01851EBE37101F0004507D54FF029
:10062000000EDCF1000C7EEB00006EEB0101B1F579
:10063000801F1BD3B1F5001F0CD349085FEA3000BF
:100640004FEA3C0C04F101044FEA445212F5800FCA
:1006500080F09A80BCF1004F08BF5FEA500C50F167
:10066000000041EB045141EA050130BD5FEA4C0C4A
:10067000404141EB0101013C28BFB1F5801FE9D2A7
:1006800091F0000F04BF01460020B1FA81F308BFCA
:100690002033A3F10B03B3F120020CDA0C3208DD96
:1006A00002F1140CC2F10C0201FA0CF021FA02F171
:1006B0000CE002F11402D8BFC2F1200C01FA02F1E1
:1006C00020FA0CFCDCBF41EA0C019040E41AA2BF06
:1006D00001EB0451294330BD6FEA04041F3C1CDACE
:1006E0000C340EDC04F11404C4F1200220FA04F0EE
:1006F00001FA02F340EA030021FA04F345EA030198
:1007000030BDC4F10C04C4F1200220FA02F001FA59
:1007100004F340EA0300294630BD21FA04F02946DB
:1007200030BD94F0000F83F4801306BF81F4801174
:100730000134013D4EE77FEA645C18BF7FEA655CE7
:1007400029D094EA050F08BF90EA020F05D054EAB9
:10075000000C04BF1946104630BD91EA030F1EBFBE
:100760000021002030BD5FEA545C05D140004941C2
:1007700028BF41F0004130BD14F580043CBF01F5B5
:10078000801130BD01F0004545F0FE4141F470019B
:100790004FF0000030BD7FEA645C1ABF1946104676
:1007A0007FEA655C1CBF0B46024650EA013406BF77
:1007B00052EA033591EA030F41F4002130BD00BF36
:1007C00090F0000F04BF0021704730B54FF48064F3
:1007D00004F132044FF000054FF0000150E700BF74
:1007E00090F0000F04BF0021704730B54FF48064D3
:1007F00004F1320410F0004548BF40424FF00001C0
:100800003EE700BF42004FEAE2014FEA31014FEA02
:1008100002701FBF12F07F4393F07F4F81F0605151
:10082000704732F07F4208BF704793F07F4F04BF9C
:1008300041F40021704730B54FF4607401F0004579
:1008400021F000411CE700BF50EA010208BF7047D9
:1008500030B54FF000050AE050EA010208BF7047CA
:1008600030B511F0004502D5404261EB41014FF433
:10087000806404F132045FEA915C3FF4D8AE4FF03B
:1008800003025FEADC0C18BF03325FEADC0C18BF1E
:10089000033202EBDC02C2F1200300FA03FC20FA6F
:1008A00002F001FA03FE40EA0E0021FA02F11444BC
:1008B000BDE600BF70B54FF0FF0C4CF4E06C1CEAD5
:1008C00011541DBF1CEA135594EA0C0F95EA0C0F46
:1008D00000F0DEF82C4481EA030621EA4C5123EAB9
:1008E0004C5350EA013518BF52EA033541F48011E8
:1008F00043F4801338D0A0FB02CE4FF00005E1FB9B
:1009000002E506F00042E0FB03E54FF00006E1FBE4
:1009100003569CF0000F18BF4EF0010EA4F1FF0427
:10092000B6F5007F64F5407404D25FEA4E0E6D4167
:1009300046EB060642EAC62141EA55514FEAC52078
:1009400040EA5E504FEACE2EB4F1FD0C88BFBCF5F4
:10095000E06F1ED8BEF1004F08BF5FEA500E50F1A5
:10096000000041EB045170BD06F0004646EA01016B
:1009700040EA020081EA0301B4EB5C04C2BFD4EB9D
:100980000C0541EA045170BD41F480114FF0000E96
:10099000013C00F3AB8014F1360FDEBF002001F004
:1009A000004170BDC4F10004203C35DA0C341BDC7E
:1009B00004F11404C4F1200500FA05F320FA04F050
:1009C00001FA05F240EA020001F0004221F0004184
:1009D00010EBD37021FA04F642EB06015EEA430EF7
:1009E00008BF20EAD37070BDC4F10C04C4F1200527
:1009F00000FA04F320FA05F001FA04F240EA0200DA
:100A000001F0004110EBD37041F100015EEA430EAA
:100A100008BF20EAD37070BDC4F1200500FA05F2CA
:100A20004EEA020E20FA04F301FA05F243EA020349
:100A300021FA04F001F0004121FA04F220EA020058
:100A400000EBD3705EEA430E08BF20EAD37070BD9E
:100A500094F0000F0FD101F00046400041EB01017E
:100A600011F4801F08BF013CF7D041EA060195F060
:100A7000000F18BF704703F00046520043EB03031A
:100A800013F4801F08BF013DF7D043EA0603704707
:100A900094EA0C0F0CEA135518BF95EA0C0F0CD012
:100AA00050EA410618BF52EA4306D1D181EA030158
:100AB00001F000414FF0000070BD50EA410606BF52
:100AC0001046194652EA430619D094EA0C0F02D197
:100AD00050EA013613D195EA0C0F05D152EA0336DC
:100AE0001CBF104619460AD181EA030101F00041FA
:100AF00041F0FE4141F470014FF0000070BD41F043
:100B0000FE4141F4780170BD70B54FF0FF0C4CF41C
:100B1000E06C1CEA11541DBF1CEA135594EA0C0F3B
:100B200095EA0C0F00F0A7F8A4EB050481EA030E88
:100B300052EA03354FEA013100F088804FEA03336F
:100B40004FF0805545EA131343EA12634FEA02223D
:100B500045EA111545EA10654FEA00260EF00041FE
:100B60009D4208BF964244F1FD0404F5407402D250
:100B70005B084FEA3202B61A65EB03055B084FEAE1
:100B800032024FF480104FF4002CB6EB020E75EBDE
:100B9000030E22BFB61A754640EA0C005B084FEA06
:100BA0003202B6EB020E75EB030E22BFB61A754683
:100BB00040EA5C005B084FEA3202B6EB020E75EBCE
:100BC000030E22BFB61A754640EA9C005B084FEA46
:100BD0003202B6EB020E75EB030E22BFB61A754653
:100BE00040EADC0055EA060E18D04FEA051545EA42
:100BF00016754FEA06164FEAC30343EA52734FEAEB
:100C0000C2025FEA1C1CC0D111F4801F0BD141EA63
:100C100000014FF000004FF0004CB6E711F4801FC8
:100C200004BF01430020B4F1FD0C88BFBCF5E06FA8
:100C30003FF6AFAEB5EB030C04BFB6EB020C5FEAB8
:100C4000500C50F1000041EB045170BD0EF0004E0D
:100C50004EEA113114EB5C04C2BFD4EB0C0541EA3F
:100C6000045170BD41F480114FF0000E013C90E63C
:100C700045EA060E8DE60CEA135594EA0C0F08BF00
:100C800095EA0C0F3FF43BAF94EA0C0F0AD150EAFF
:100C900001347FF434AF95EA0C0F7FF425AF104692
:100CA00019462CE795EA0C0F06D152EA03353FF4BA
:100CB000FDAE1046194622E750EA410618BF52EA37
:100CC00043067FF4C5AE50EA41047FF40DAF52EA0B
:100CD00043057FF4EBAE12E74FF0FF3C06E000BFA8
:100CE0004FF0010C02E000BF4FF0010C4DF804CDB5
:100CF0004FEA410C7FEA6C5C4FEA430C18BF7FEA75
:100D00006C5C1BD001B050EA410C0CBF52EA430CA2
:100D100091EA030F02BF90EA020F0020704710F122
:100D2000000F91EA030F58BF994208BF90422CBFB1
:100D3000D8176FEAE37040F0010070474FEA410CAA
:100D40007FEA6C5C02D150EA013C07D14FEA430CC8
:100D50007FEA6C5CD6D152EA033CD3D05DF8040B39
:100D6000704700BF8446104662468C46194663466B
:100D700000E000BF01B5FFF7B7FF002848BF10F142
:100D8000000F01BD4DF808EDFFF7F4FF0CBF012087
:100D900000205DF808FB00BF4DF808EDFFF7EAFF03
:100DA00034BF012000205DF808FB00BF4DF808EDBE
:100DB000FFF7E0FF94BF012000205DF808FB00BFB3
:100DC0004DF808EDFFF7CEFF94BF012000205DF83D
:100DD00008FB00BF4DF808EDFFF7C4FF34BF01204A
:100DE00000205DF808FB00BF4A0011D212F5001286
:100DF00011D20DD56FF47873B3EB62520ED44FEA73
:100E0000C12343F0004343EA505323FA02F07047F2
:100E10004FF00000704750EA013002D14FF0FF3030
:100E200070474FF0000070474FEA4102B2F1E043D3
:100E300024BFB3F5001CDCF1FE5C0DD901F0004CC1
:100E40004FEAC0024CEA5070B2F1004F40EB830011
:100E500008BF20F00100704711F0804F21D113F13D
:100E60003872BCBF01F00040704741F480114FEA76
:100E70005252C2F11802C2F1200C10FA0CF320FAFF
:100E800002F018BF40F001004FEAC1234FEAD3231C
:100E900003FA0CFC40EA0C0023FA02F34FEA430386
:100EA000CCE77FEA625307D150EA01331EBF4FF00F
:100EB000FE4040F44000704701F0004040F0FE402A
:100EC00040F40000704700BF024B01461868FFF76E
:100ED00097BA00BF00000020024B01461868FFF7D8
:100EE0000DBA00BF000000200CB410B59CB01EABC2
:100EF000029106916FF0004104910791084953F85F
:100F0000042B0591002402A901931B9400F016F90B
:100F1000029B1C701CB0BDE8104002B0704700BFBF
:100F20000802FFFF0EB430B59CB06FF000411FAB5C
:100F3000049107910A4953F8042B0290002406906B
:100F4000084D0868019302A905951B9400F0F6F876
:100F5000029B1C701CB0BDE8304003B0704700BF5E
:100F6000000000200802FFFF014B1868704700BF17
:100F7000000000202DE9F0478F681D46AF420B6846
:100F80000C46164636D8B1F90CC01CF4906F0ED141
:100F90003D46184631462A4600F0C0FBA368DF1BD9
:100FA0002368A7602B4400202360BDE8F0874A69CE
:100FB000096902EB42025F1A02EBD2726B1C5210FB
:100FC0003B44934292BF914699461A461CF4806F67
:100FD000804611D01146FFF713FA824600B321690B
:100FE0003A4600F06DFCA38923F4906343F080033C
:100FF000A38105E02F46CCE700F0FCFC824658B107
:101000000AEB0703A9EB0707A760C4F810A0C4F810
:10101000149023602F46BCE721694046FFF76EF924
:10102000A3890C2243F04003C8F800204FF0FF30A2
:10103000A381BAE72DE9F04F9368176883B0924611
:10104000002B74D04FF0000B8B680A6881460C4669
:101050005D4645E0B4F90C3013F4906F2CD0D4E920
:101060000401161A01EB410202EBD272711C5210FC
:101070002944914292BF904688460A465B0539D57D
:1010800011464846FFF7BCF9019000283DD0324692
:10109000216900F015FCA289019B22F4906242F0C4
:1010A0008002A2819819A8EB0606A660C4F81480F5
:1010B00023612060A8462E463246594600F02EFB9A
:1010C000DAF80810A3682268A3EB08033244491B2E
:1010D000A3602260CAF8081049B3D7E900B5083701
:1010E00098461046002DF8D09D421E46B2D2A84622
:1010F0002E46E1E70146484600F07CFC0346002806
:10110000D0D121694846FFF7F9F8A3890C2243F0B2
:101110004003C9F800204FF0FF30A38100220023D4
:10112000CAF80820CAF8043003B0BDE8F08F0020E8
:101130000023CAF8043003B0BDE8F08F2DE9F04F6A
:101140001C468B891D069DB088468146934603D573
:101150000B69002B00F0F1800023099343F2200378
:10116000ADF829309BF800307D4D03940126002B0B
:1011700073D0DA4603E01AF8013F002B75D0252B17
:10118000F9D1BAEB0B0473D19AF80020002A64D08D
:1011900000234FF0FF32CDE905230AF1010A049341
:1011A00007938DF853301A9305E0049A06FA03F377
:1011B0001A430492A2465446052214F8011B2846FD
:1011C00000F02EFBA346431B0028EED1049BD8065B
:1011D00044BF20228DF8532019079AF8001044BF0D
:1011E0002B228DF853202A2950D1039A11680432FA
:1011F000002903927CDB07919AF801102E295BD01D
:10120000584C0322204600F00BFB38B1049B001B16
:101210004022824013430BF1010B04931BF8011B86
:1012200051488DF82810062200F0FAFA002865D0FF
:101230004E4B002B55D003AA00924D4B424604A9B9
:101240004846AFF3008007467A1C06D0099B3B4412
:1012500009939BF80030002B8BD1B8F80C305B065B
:101260007AD409981DB0BDE8F08FBAEB0B04F4D026
:1012700023465A4641464846FFF77CFE0130ECD0F3
:10128000099B9AF80020234409937FE7A1F13002DB
:10129000092A88BFD346B1D8079B00E001342178E2
:1012A00003EB830302EB4303A1F13002092AF5D9D2
:1012B0002E290793A346A3D19BF801102A2927D1F1
:1012C000039B9BF802101A6805920433002A0BF165
:1012D00002000393B8BF4FF0FF338346B8BF0593B6
:1012E0008EE7039B073323F0070308330393ADE72F
:1012F000494243F00203079104937DE703AA009259
:101300001B4B424604A9484600F0C6F807469BE737
:10131000A1F130020023092A05930BF1010B3FF6DE
:101320006FAF1BF8011F03EB830302EB4303A1F133
:101330003002092AF5D9059362E74021FFF760F8EA
:10134000C8F80000C8F8100018B14023C8F81430DD
:1013500002E70C23C9F800304FF0FF3082E700BFEE
:101360008CC9000894C9000898C900080000000052
:10137000750F00082DE9F84F92461F460A698B68E1
:10138000DDF828909A42B8BF1A46CAF8002091F8B2
:1013900043300C46064613B10132CAF800202268D9
:1013A00091065FD5DAF800300233CAF800302268BF
:1013B00012F0060F11461DD1E1689942D8BF1146BF
:1013C00018DD4FF0000804F1190B05E0E568DAF8C4
:1013D0000030ED1A45450CDD01235A4639463046AA
:1013E000C847013008F10108F0D14FF0FF30BDE8E7
:1013F000F88F216894F84330003B18BF01238A0618
:101400000AD5E1185A1C302081F84300224494F890
:10141000451082F84310023304F143023946304646
:10142000C8470130E1D02368DAF80050216903F0A1
:101430000603042BD4E902201BD08A4220DD4FF0A2
:101440000008521A90441A34002501E0454517DA85
:101450000123224639463046C847013005F10105CF
:10146000F4D1C2E712F0060F0DD0003B18BF0123E4
:10147000D2E7401B8A4220EAE078E2DC0028E2DC86
:101480000020BDE8F88FE168DAF800309942D8BF53
:10149000114696DCAEE700BF2DE9F047174684B051
:1014A0000A7E0C9D0C460646984601F1430C002A24
:1014B00035D0A2F15803D9B2202969D8202B67D89A
:1014C000DFE813F0E600660066006600660066006E
:1014D00066006600660066006600AC00700066008C
:1014E00066006600660070006600660066006600C2
:1014F00021008300C60066006600B6006600830017
:1015000066006600EC002B6822686169181D28607F
:1015100010061B6802D4520600F1E0801960002317
:10152000E1462361CDF800803B4603AA21463046C0
:10153000FFF720FF013020D023694A463946304664
:10154000C047013019D02368E068DDF80C909B0794
:1015500018D5484516DD002504F1190A04E0E068B5
:10156000A0EB0903AB420DDD01235246394630465C
:10157000C047013005F10105F1D14FF0FF3004B053
:10158000BDE8F0874845B8BF484604B0BDE8F087DD
:1015900084F84220012004F142090023206184F8EC
:1015A0004330BFE72A682368111D1806296002D45A
:1015B000590600F195801068014600286268C0F263
:1015C000938054484FF00A0E15E020682B6810F005
:1015D000800F53F8041B02D1400648BF89B26F2A1E
:1015E0004C482B6014BF4FF00A0E4FF0080E00233A
:1015F000626884F84330002AA26051DB236823F03C
:101600000403236000294BD1002A7BD1E146BEF1BF
:10161000080F56D0ACEB0903236183E72B681A68E7
:1016200004332B6004F1420984F842200120B4E71E
:101630002B686268191D2960D3F800900021484684
:1016400000F0EEF8002863D0A0EB09006060A4E78A
:10165000236843F02003236078222F4884F8452034
:101660002A6813F0800F52F8041B03D113F0400FC7
:1016700018BF89B22A60DA0744BF43F02003236011
:1016800019B9236823F0200323604FF0100EAEE752
:10169000582384F845301F482368E1E72368DBE7D7
:1016A0007546E146B1FBF5F305FB131A0A46AA425B
:1016B00010F80A1009F8011D1946F3D2BEF1080FFF
:1016C000A8D12368DD07A5D5626823699A42A1DC09
:1016D000302309F8013C09F1FF399BE719801EE727
:1016E000B2F90010084668E72D20002AA26084F8AD
:1016F000430002DB23F0040323600A250548494226
:10170000AE46CEE7037884F8423004F142097EE722
:10171000606842E7A0C90008B4C9000888420ED931
:101720008B1883420BD900EB020C002A6ED0624664
:1017300013F801CD02F801CD9942F9D170470F2A73
:101740000FD8034602F1FF3C002A5FD00CF1010CD8
:10175000013B8C4411F8012B03F8012F6145F9D1AD
:10176000704740EA01039B0751D1A2F1100370B505
:1017700001F1200C23F00F0501F1100E00F110040F
:10178000AC441B095EF8105C44F8105C5EF80C5C1D
:1017900044F80C5C5EF8085C44F8085C5EF8045C95
:1017A00044F8045C0EF1100EE64504F11004E9D192
:1017B000013312F00C0F01EB031102F00F0400EBE8
:1017C000031328D0043C24F003064FEA940C1E4473
:1017D0001C1F8E465EF8045B44F8045FB442F9D1E6
:1017E0000CF1010402F0030203EB840301EB84011A
:1017F00002F1FF3C4AB10CF1010C013B8C4411F8A1
:10180000012B03F8012F6145F9D170BD704702F13A
:10181000FF3C03469AE72246EAE700BF00000000CB
:1018200001F0FF01102A2BDB10F0070F08D010F891
:10183000013B013A8B422DD010F0070F42B3F6D195
:10184000F0B441EA012141EA014122F007047FF0AE
:1018500000070023F0E80256083C85EA010586EA05
:10186000010685FA47F5A3FA87F586FA47F6A5FA41
:1018700087F68EB9EED1F0BC01F0FF0102F007024D
:1018800032B110F8013B013A83EA010313B1F8D1F8
:101890000020704701387047002D06BF35460338D9
:1018A000073815F0010F07D1013015F4807F02BF12
:1018B000013015F4C03F0130F0BC0138704700BF63
:1018C000844641EA000313F003036DD1403A41D34B
:1018D00051F8043B40F8043B51F8043B40F8043B0A
:1018E00051F8043B40F8043B51F8043B40F8043BFA
:1018F00051F8043B40F8043B51F8043B40F8043BEA
:1019000051F8043B40F8043B51F8043B40F8043BD9
:1019100051F8043B40F8043B51F8043B40F8043BC9
:1019200051F8043B40F8043B51F8043B40F8043BB9
:1019300051F8043B40F8043B51F8043B40F8043BA9
:1019400051F8043B40F8043B51F8043B40F8043B99
:10195000403ABDD2303211D351F8043B40F8043B39
:1019600051F8043B40F8043B51F8043B40F8043B79
:1019700051F8043B40F8043B103AEDD20C3205D349
:1019800051F8043B40F8043B043AF9D2043208D041
:10199000D2071CBF11F8013B00F8013B01D30B88B3
:1019A00003806046704700BF082A13D38B078DD091
:1019B00010F003038AD0C3F10403D21ADB071CBF63
:1019C00011F8013B00F8013B80D331F8023B20F8CD
:1019D000023B7BE7043AD9D3013A11F8013B00F806
:1019E000013BF9D20B7803704B7843708B7883708E
:1019F000604670472DE9F041144641B30AB30646EC
:101A00000D4600F029F88442074602D8B4EB500F87
:101A100013D821463046FEF7F3FC804650B1BC4255
:101A20002246294628BF3A46FFF74AFF2946304654
:101A3000FEF764FC4046BDE8F081A8464046BDE89C
:101A4000F081A046FEF75AFC4046BDE8F081BDE8B3
:101A5000F0411146FEF7D4BC51F8043C181F002B8E
:101A6000BCBF0B58C018704708B52DED028BB0EE07
:101A7000408A00F01BF8B4EE488AF1EE10FA06D660
:101A8000DFED098AB4EEE88AF1EE10FA02D4BDEC7B
:101A9000028B08BDFFF768FA88EEA80ABDEC028B3E
:101AA0002123036008BD00BF00000000B1EEC00AA2
:101AB000704700BF10B5054C237833B9044B13B100
:101AC0000448AFF300800123237010BDD001002033
:101AD0000000000000A7000808B5034B1BB1034934
:101AE0000348AFF3008008BD00000000D4010020CF
:101AF00000A7000880B584B000AF786087ED000AC9
:101B00007B68D3ED107AF5EE407AF1EE10FA02D050
:101B1000786800F039F97B683A685A627B685A69DC
:101B20007B689A617B681A697B685A617B6893ED70
:101B30000A7A7B68D3ED097A77EE677A7B68C3ED22
:101B4000047A7B681B78002B5DD17B6893ED047A67
:101B50007B68D3ED057A77EE677AC7ED037A7B6809
:101B600093ED077A7B68D3ED026A7B68D3ED047A44
:101B700066EEA77A77EE277A7B68C3ED077A7B68F3
:101B800093ED077A7B68D3ED087AB4EEE77AF1EE4D
:101B900010FA04DD7B681A6A7B68DA6114E07B68FE
:101BA00093ED077A7B68D3ED087AF1EE677AB4EEAD
:101BB000E77AF1EE10FA07D57B68D3ED087AF1EEFB
:101BC000677A7B68C3ED077A7B6893ED017A7B685F
:101BD000D3ED047A27EE277A7B68D3ED077A37EEC8
:101BE000277A7B68D3ED036AD7ED037A66EEA77A8E
:101BF00037EE277A7B68D3ED0F7A77EE277A7B680A
:101C0000C3ED0C7A3DE07B681B78012B39D17B68F2
:101C100093ED0C7A7B68D3ED016A7B6893ED046ADF
:101C20007B68D3ED057A76EE677A66EEA76A7B6805
:101C300093ED036A7B68D3ED045A7B68D3ED057A94
:101C400077EEA77A75EEE75A7B68D3ED067A75EEE4
:101C5000A77A66EE277A76EEA76A7B6893ED026A2A
:101C60007B68D3ED047A66EE277A76EEA76A7B6806
:101C7000D3ED0F7A76EEA77A77EE277A7B68C3EDFD
:101C80000C7A7B689A6A7B68DA627B6893ED0C7ADF
:101C90007B68D3ED0D7AB4EEE77AF1EE10FA04DD4D
:101CA0007B685A6B7B681A6310E07B6893ED0C7A53
:101CB0007B68D3ED0E7AB4EEE77AF1EE10FA00D439
:101CC00004E07B689A6B7B681A6300BF1037BD46DF
:101CD00080BD80B48BB000AFF8610B4687ED050A7C
:101CE000C7ED040A87ED031AC7ED021A87ED012A32
:101CF000C7ED002AFB76FB69FA7E1A70FB697A69E8
:101D00005A60FB693A699A60FB69FA68DA60FB69B4
:101D1000BA681A62FB697A685A63FB693A689A631F
:101D2000FB694FF00002DA61FB694FF000021A63B1
:101D3000FB694FF000025A62FB694FF000029A62A1
:101D4000FB694FF00002DA62FB694FF00002DA63D0
:101D5000FB694FF000021A6400237B620AE0FA6913
:101D60007B6A04339B0013444FF000021A607B6AC5
:101D700001337B627B6A022BF1DD00BF2C37BD464D
:101D80005DF8047B7047000080B485B000AF7860D8
:101D90004FF00003FB607B6893ED0B7A7B68D3ED1B
:101DA0000A7A77EE677AF5EEC07AF1EE10FA08DD7E
:101DB0007B6893ED0B7A7B68D3ED0A7A77EE677ACE
:101DC00009E07B6893ED0B7A7B68D3ED0A7A77EEB6
:101DD000677AF1EE677A7B6893ED107AF4EEC77A52
:101DE000F1EE10FA33D97B6893ED0B7A7B68D3ED73
:101DF0000A7A77EE677AF5EEC07AF1EE10FA02DD34
:101E0000164BFB6013E07B6893ED0B7A7B68D3ED98
:101E10000A7A77EE677AF5EEC07AF1EE10FA03D51A
:101E20004FF07E53FB6002E04FF00003FB607B68E5
:101E300093ED0B7A7B68D3ED106AD7ED037A66EEEB
:101E4000A77A77EE277A7B68C3ED0A7A00E000BFB5
:101E50001437BD465DF8047B704700BF000080BFAB
:101E600080B485B000AF78607B684FF00002DA6123
:101E70007B684FF000021A630023FB600AE07A6877
:101E8000FB6804339B0013444FF000021A60FB68A8
:101E90000133FB60FB68022BF1DD00BF00BF14378C
:101EA000BD465DF8047B704780B500AF00BF7F2161
:101EB000174804F0C9F90346002BF8D100BF7F2171
:101EC000144804F0C1F90346002BF8D1102212493E
:101ED0000F4803F0B5FA0C2210490E4803F0B0FA8F
:101EE0000F4800F027F80F4800F024F80E4800F0E3
:101EF00021F80E4800F01EF81820FEF7E5FF034613
:101F00001A460B4B1A600A4B1B68184680BD00BF6F
:101F1000C06700202C680020EC0100200C0200208B
:101F200028020020F8020020C803002098040020A6
:101F30002402002080B483B000AF78607B68002268
:101F40001A607B684FF00002C3F8CC204FF000030A
:101F500007EE903AB0EE670A0C37BD465DF8047B99
:101F60007047000090B587B000AF78607B68754A15
:101F7000934240F0DB800023FB820023BB820023DE
:101F80007B8200233B820023FB7325E0FB7B9B00CD
:101F90006D4A32F81320FB8A1344FB82FB7B9B00C3
:101FA0000133694A32F81320BB8A1344BB82FB7B9E
:101FB0009B000233644A32F813207B8A13447B82ED
:101FC000FB7B9B000333604A32F813203B8A1344A7
:101FD0003B82FB7B0133FB73FB7B032BD6D93B8A14
:101FE00007EE903AB8EEE77A584BD3ED007A27EE39
:101FF000277A574BD3ED007A37EE677A554BD3EDFE
:10200000007A554B1B8867EE277A544A9B0013448D
:10201000C3ED007ABB8A07EE903AB8EEE77A4B4BF5
:10202000D3ED007A27EE277A494BD3ED007A37EECD
:10203000677A484BD3ED007A474B1B8867EE277AC7
:10204000464A03F5FA639B001344C3ED007AFB8A0A
:1020500007EE903AB8EEE77A3C4BD3ED007A27EEE4
:10206000277A3F4BD3ED007A37EE677A3D4BD3EDBD
:10207000007A394B1B8867EE277A3B4A03F5FA63EF
:102080009B001344C3ED007A7B8A07EE903AB8EECA
:10209000E77A2E4BD3ED007A27EE277A334BD3ED38
:1020A000007A37EE677A324BD3ED007A2A4B1B88E1
:1020B00067EE277A2C4A03F57A739B001344C3ED2D
:1020C000007A254B1B8801339AB2234B1A80224B8E
:1020D0001B8840F2ED22934240F2DD80254B1B68C5
:1020E00004331A4640F2EE21234808F015FA214B3A
:1020F0001B6808331A4640F2EE21204808F00CFA1B
:102100001C4B1B680C331A4640F2EE21134808F0B2
:1021100003FA184B1B6814331A4640F2EE21184894
:1021200008F0FAF90C4B00221A80B4E07B68154ADB
:10213000934240F0B0800023BB8100237B810023C9
:102140007B7239E0C0670020EC01002058A700082E
:102150005CA7000860A7000828630020680500202D
:1021600064A7000868A70008483400206CA700088E
:1021700070A7000824020020E843002088530020B4
:10218000A82400202C6800207A7A13465B001344B0
:10219000434A32F81320BB891344BB817A7A134631
:1021A0005B00134402333E4A32F813207B89134408
:1021B0007B817B7A01337B727B7A032BE4D9BB89E9
:1021C00007EE903AB8EEE77A364BD3ED007A27EE79
:1021D000277A354BD3ED007A37EE677A334BD3ED60
:1021E000007A334B1B8867EE277A324A9B001344F0
:1021F000C3ED007A7B8907EE903AB8EEE77A294B77
:10220000D3ED007A27EE277A2B4BD3ED007A37EE09
:10221000677A2A4BD3ED007A254B1B8867EE277A25
:10222000274A03F57A739B001344C3ED007A204BD1
:102230001B8801339AB21E4B1A801D4B1B88B3F5C5
:102240007A7F28D31F4B1B681A464FF47A711948BE
:1022500008F062F91B4B1B681B681846FEF7D2FAA0
:102260004FF03332184BFEF76FF902460B46154913
:102270000C6810461946FEF7D7FD03462360114B44
:102280001B6810331A464FF47A71104808F044F96D
:10229000074B00221A8000BF1C37BD4690BD00BF0F
:1022A0000C02002074A7000878A7000868A700089F
:1022B0002A630020483400205CA7000860A70008BB
:1022C00068050020240200203333B33F08150020A6
:1022D00080B500AF00F06EFF00F0FEFF2B4B082230
:1022E0000021002001F0A8FA294B0822102100202B
:1022F00001F0A2FA274B08222021002001F09CFACD
:10230000254B08223021002001F096FA00F0C4FF8E
:102310009FED221ADFED220A9FED220A224800F0EB
:102320003FFAFFF7C1FD0346204A1360DFED1D2A87
:102330009FED1F2AF6EE001A9FED1A1ADFED1D0A17
:102340009FED1D0A01211D48FFF7C3FC4FF48031AA
:102350001B4806F072FE4FF40011194806F06DFE9E
:102360004FF48001164806F068FE4FF480211448AF
:1023700006F063FE134807F02BFB134807F028FB19
:10238000124B1B680D4A936200BF80BD18A700085E
:1023900028A7000838A7000848A7000800401C46E6
:1023A00000004842000000007463002070630020B9
:1023B00085EB113F52499D390AD7233C2C630020FD
:1023C000F46A00203C6C0020F06B002050000020DC
:1023D00080B500AF124B1B68124A9362124B1B6808
:1023E00093ED007A104B1B68D3ED027A37EE277A13
:1023F0000D4B1B68D3ED017A77EE277A9FED0B7AB0
:1024000067EE877A0A4BC3ED007A094BD3ED007A69
:10241000B0EE670A0348FFF76DFB00BF80BD00BF49
:10242000500000202C6300207063002036CD133F45
:10243000A063002080B584B000AF3F4B3F4A9A6153
:102440003D4800F0BFFD3C4B1B6AFB603A4B5B6AAA
:10245000BB60394B9B6A7B60D7ED037A9FED387A7E
:1024600067EE877A9FED367A77EE677A354B1B6891
:10247000FCEEE77A17EE902AC3F89C22D7ED037A98
:102480009FED2F7A67EE877A9FED2D7A77EE877A28
:102490002C4B1B68FCEEE77A17EE902AC3F8A822B3
:1024A000D7ED027A9FED267A67EE877A9FED247A40
:1024B00077EE677A234B1B68FCEEE77A17EE902ADB
:1024C000C3F81C23D7ED027A9FED1D7A67EE877A59
:1024D0009FED1B7A77EE877A1A4B1B68FCEEE77A42
:1024E00017EE902AC3F82823D7ED017A9FED147ACE
:1024F00067EE877A9FED127A77EE677A114B1B6849
:10250000FCEEE77A17EE902AC3F81C21D7ED017A8A
:102510009FED0B7A67EE877A9FED097A77EE877ADF
:10252000084B1B68FCEEE77A17EE902AC3F82821C7
:1025300000BF1037BD4680BD74630020CDCC0C3F7A
:1025400000D08446F46A002080B500AF1F4B1B8882
:10255000B3F5FA6F1BD91E4B1B78002B17D01B4B02
:1025600000221A801A4B00221A701A48FFF778FCD2
:102570004FF44071184806F006FD4FF440611648CC
:1025800006F001FD0C21144806F0FDFC17E0104B8D
:102590001B78002B13D00D4B1B8801339AB20B4BC9
:1025A0001A804FF440710C4806F01AFD4FF4406158
:1025B000094806F015FD0C21074806F011FDFFF74C
:1025C00007FFFFF737FF00BF80BD00BFB0630020EB
:1025D000540000202C630020F46A0020B0B582B0C3
:1025E00000AF78607B68434A93420BD1FFF7ACFFA2
:1025F000414BD3E90023541C43F100053E4BC3E992
:10260000004573E07B683D4A93426FD13C4B1B7899
:10261000002B23D14FF480613A4805F0B5F803460A
:10262000012B03D1364B01221A705FE04FF4006199
:10263000344805F0A9F80346012B03D1304B0222A0
:102640001A7053E04FF480512E4805F09DF8034670
:10265000012B4BD12A4B03221A7047E04FF48061C3
:10266000284805F091F80346002B13D1244B1B7822
:10267000012B0FD1224B00221A70234BD3ED007A8D
:10268000B7EE007A77EE877AB0EE670A1E4800F060
:10269000ADF82BE04FF400611A4805F075F80346D9
:1026A000002B13D1164B1B78022B0FD1144B002299
:1026B0001A70154BD3ED007AB7EE007A77EEC77A31
:1026C000B0EE670A104800F091F80FE04FF4805127
:1026D0000C4805F059F80346002B07D1084B1B782E
:1026E000032B03D1064B00221A70FFE700BF083707
:1026F000BD46B0BD3C6C0020A8630020F06B0020FC
:10270000B2630020000800487463002080B582B0E6
:1027100002AF214BD3ED007AFCEEE77A0823009359
:10272000032317EE902A0021202000F0A7FF1B4B67
:102730001B681B681846FEF765F808230093022300
:10274000032241EC100B1021202000F0DBFF134B83
:102750001B685B681846FEF755F8082300930223B0
:10276000032241EC100B2021202000F0CBFF0B4B6B
:102770001B689B681846FEF745F808230093022360
:10278000032241EC100B3021202000F0BBFF00F0B1
:1027900083FD00BFBD4680BD7463002070630020D0
:1027A00080B485B000AFF86087ED020AC7ED010A7A
:1027B00087ED001AFB687A681A60FB683A685A600D
:1027C000D7ED017A9FED087A67EE876A97ED007A78
:1027D000C6EE877AFB68C3ED027A00BF1437BD46A8
:1027E0005DF8047B704700BFDB0FC94080B483B045
:1027F00000AF786087ED000AD7ED007A9FED167A7A
:10280000F4EEC77AF1EE10FA01DD144B0BE0D7EDD0
:10281000007AB3EE047AF4EEC77AF1EE10FA01D53D
:102820000F4B00E03B683B607B683A681A60D7ED6D
:10283000007A9FED0C7A67EE876A7B6893ED017AE8
:10284000C6EE877A7B68C3ED027A00BF0C37BD46BF
:102850005DF8047B704700BF0000C8420000C8421A
:102860000000A041DB0FC94080B52DED028B82B086
:1028700000AF78607B6893ED057A7B68D3ED027AD0
:1028800077EE277A7B68C3ED057A7B68D3ED057A0E
:102890009FED1C7AF4EEC77AF1EE10FA09DB7B6843
:1028A000D3ED057A9FED177A77EEC77A7B68C3ED93
:1028B000057A7B6893ED068A7B68D3ED057AB0EEE6
:1028C000670A07F0D3FEF0EE407A68EE277A7B685D
:1028D000C3ED037A7B6893ED068A7B68D3ED057AB6
:1028E000B0EE670A07F07CFEF0EE407A68EE277AD9
:1028F0007B68C3ED047A00BF0837BD46BDEC028B90
:1029000080BD00BFDB0FC940B0B584B000AF7860B8
:102910007B68D3ED047AF5EEC07AF1EE10FACCBF05
:1029200001230023DBB2FB737B68DB681846FDF7ED
:1029300069FF49A3D3E90023FDF7BCFF02460B461C
:1029400014461D467B681B691846FDF75BFF02466F
:102950000B4620462946FDF7F5FD02460B4610467C
:10296000194601231C464FF000024FF00003FEF70A
:1029700031FA0346002B01D100231C46E3B2BB739E
:102980007B68DB681846FDF73DFF35A3D3E90023DC
:10299000FDF790FF02460B4614461D467B681B69F7
:1029A0001846FDF72FFF02460B4620462946FDF745
:1029B000C9FD02460B461046194601231C464FF03E
:1029C00000024FF00003FEF705FA0346002B01D189
:1029D00000231C46E3B27B737B7B5B00DAB2BB7BDC
:1029E0001344DBB25B00DAB2FB7B13443B733B7BEB
:1029F000013B052B26D801A252F823F0152A000826
:102A00001D2A0008252A00082D2A0008352A00085A
:102A10003D2A00087B6802221A7717E07B680622AD
:102A20001A7713E07B6801221A770FE07B68042293
:102A30001A770BE07B6803221A7707E07B68052290
:102A40001A7703E07B6801221A7700BF00BF1037B6
:102A5000BD46B0BDAFF30080AA4C58E87AB6FB3F44
:102A6000AA4C58E87AB6FBBFB0B586B000AF786024
:102A70007B681B691846FDF7C5FE0FF21843D3E9C2
:102A80000023FDF717FF02460B4610461946FEF7D6
:102A9000CBF903467B617B68D3ED037AB0EE087A0D
:102AA00067EE877A17EE900AFDF7ACFE04460D46F6
:102AB0007B681B691846FDF7A5FEF6A3D3E9002342
:102AC000FDF7F8FE02460B4620462946FDF73CFD81
:102AD00002460B46104619464FF000024FF0804365
:102AE000FEF712F802460B4610461946FEF79CF90F
:102AF00003463B617B68D3ED037AB8EE087A67EE54
:102B0000877A17EE900AFDF77DFE04460D467B6836
:102B10001B691846FDF776FEDEA3D3E90023FDF717
:102B2000C9FE02460B4620462946FDF70DFD02462A
:102B30000B46104619464FF000024FF08043FDF758
:102B4000E3FF02460B4610461946FEF76DF90346B1
:102B5000FB607B681B7F013B052B51D801A252F81B
:102B600023F000BF7D2B0008932B0008A12B000849
:102B7000B72B0008CD2B0008EB2B0008D7ED037A0C
:102B8000F1EE677AC04BC3ED007AC04A7B691360EF
:102B900041E0BD4A3B691360BC4AFB6813603AE000
:102BA000B94A7B691360D7ED047AF1EE677AB74BC7
:102BB000C3ED007A2FE0B44AFB681360D7ED057AC5
:102BC000F1EE677AB14BC3ED007A24E0D7ED047AD9
:102BD000F1EE677AAC4BC3ED007AD7ED037AF1EEF4
:102BE000677AAA4BC3ED007A15E0D7ED057AF1EECE
:102BF000677AA54BC3ED007AA44A3B6913600AE0EB
:102C0000D7ED037AF1EE677A9F4BC3ED007A9F4AC6
:102C10007B69136000BF9C4B93ED007A9B4BD3ED17
:102C2000007A77EE277AB7EE007A77EE677A984BDC
:102C3000C3ED007A7B681B7F013B052B00F22E81E0
:102C400001A252F823F000BF612C0008BD2C00083F
:102C5000192D0008752D0008D12D00082D2E000813
:102C6000894B93ED007A894BD3ED007A37EE277AC2
:102C7000874BD3ED006AB0EE006AC6EE867A77EE37
:102C8000277A7B68C3ED087A814BD3ED007AF0EEAA
:102C9000006A87EEA67A7D4BD3ED007A77EE277A2D
:102CA0007B68C3ED097A7A4B93ED007AF0EE006A07
:102CB000C7EE267A7B68C3ED0A7A1DE1744BD3ED2B
:102CC000007AF0EE006A87EEA67A6F4BD3ED007AB9
:102CD00077EE277A7B68C3ED087A6B4B93ED007A29
:102CE0006A4BD3ED007A37EE277A694BD3ED006A51
:102CF000B0EE006AC6EE867A77EE277A7B68C3ED7F
:102D0000097A634B93ED007AF0EE006AC7EE267AFB
:102D10007B68C3ED0A7AEFE05D4B93ED007AF0EE4D
:102D2000006AC7EE267A7B68C3ED087A564B93EDAE
:102D3000007A564BD3ED007A37EE277A544BD3ED19
:102D4000006AB0EE006AC6EE867A77EE277A7B6874
:102D5000C3ED097A4E4BD3ED007AF0EE006A87EEB0
:102D6000A67A4A4BD3ED007A77EE277A7B68C3EDDB
:102D70000A7AC1E0464B93ED007AF0EE006AC7EEA6
:102D8000267A7B68C3ED087A414BD3ED007AF0EEEA
:102D9000006A87EEA67A3C4BD3ED007A77EE277A6D
:102DA0007B68C3ED097A384B93ED007A374BD3ED4E
:102DB000007A37EE277A364BD3ED006AB0EE006A20
:102DC000C6EE867A77EE277A7B68C3ED0A7A93E0BF
:102DD0002F4BD3ED007AF0EE006A87EEA67A2B4BEC
:102DE000D3ED007A77EE277A7B68C3ED087A284B1B
:102DF00093ED007AF0EE006AC7EE267A7B68C3EDA9
:102E0000097A214B93ED007A204BD3ED007A37EE0F
:102E1000277A1F4BD3ED006AB0EE006AC6EE867AC1
:102E200077EE277A7B68C3ED0A7A65E0164B93ED5F
:102E3000007A164BD3ED007A37EE277A144BD3ED98
:102E4000006AB0EE006AC6EE867A77EE277A7B6873
:102E5000C3ED087A0E4B93ED007AF0EE006AC7EEF0
:102E6000267A7B68C3ED097A094BD3ED007AF0EE40
:102E7000006A87EEA67A044BD3ED007A77EE277AC4
:102E80007B68C3ED0A7A37E0B4630020B8630020A2
:102E9000BC630020AA4C58E87AB6FB3F424B93ED46
:102EA000007A424BD3ED007A37EE277A404BD3EDD0
:102EB000006AB0EE006AC6EE867A77EE277A7B6803
:102EC000C3ED087A3A4BD3ED007AF0EE006A87EE54
:102ED000A67A364BD3ED007A77EE277A7B68C3ED7E
:102EE000097A334B93ED007AF0EE006AC7EE267A4A
:102EF0007B68C3ED0A7A00BF7B68D3ED087A9FED4B
:102F00002D7AF4EEC77AF1EE10FA01DD2A4B0DE0CE
:102F10007B68D3ED087A9FED297AF4EEC77AF1EE5B
:102F200010FA01D5264B01E07B681B6A7A681362B0
:102F30007B68D3ED097A9FED1F7AF4EEC77AF1EE44
:102F400010FA01DD1C4B0DE07B68D3ED097A9FED93
:102F50001B7AF4EEC77AF1EE10FA01D5184B01E0B6
:102F60007B685B6A7A6853627B68D3ED0A7A9FED6F
:102F7000117AF4EEC77AF1EE10FA01DD0E4B0DE096
:102F80007B68D3ED0A7A9FED0D7AF4EEC77AF1EE05
:102F900010FA01D50A4B01E07B689B6A7A6893625C
:102FA00000BF1837BD46B0BDB4630020B863002031
:102FB000BC63002048E17A3F48E17A3F0AD7A33C4E
:102FC0000AD7A33C80B582B000AF78607868FFF77D
:102FD0004BFC7868FFF798FC7868FFF745FD00BF69
:102FE0000837BD4680BD000080B483B000AF002329
:102FF000FB7102E0FB790133FB71FB799AB2054B5F
:103000001B889A42F6D300BF00BF0C37BD465DF85F
:10301000047B70475600002080B582B000AF0346A5
:10302000FB71FB791A464FF400414FF0904004F0D9
:10303000C3FBFFF7D9FF00BF0837BD4680BD0000C6
:1030400080B582B000AF0346FB71FB791A46802140
:10305000044804F0B1FBFFF7C7FF00BF0837BD46C7
:1030600080BD00BF0004004880B500AF0120FFF71D
:10307000E7FF0120FFF7D0FFFFF7B6FF0020FFF7C3
:10308000DFFFFFF7B1FF0020FFF7C6FFFFF7ACFF40
:1030900000BF80BD80B500AF0020FFF7D1FF012049
:1030A000FFF7BAFFFFF7A0FF0120FFF7C9FF00BF3E
:1030B00080BD80B584B000AF0346FB710023FB7375
:1030C00016E0FA79FB7B802141FA03F31340002BD1
:1030D00014BF01230023DBB21846FFF7B1FF012024
:1030E000FFF79AFF0020FFF797FFFB7B0133FB738D
:1030F000FB7B072BE5D90120FFF78EFF0020FFF7B0
:103100008BFF00BF1037BD4680BD80B582B000AFD9
:103110000346FB71FFF7A8FF7820FFF7CAFF0020E6
:10312000FFF7C7FFFB791846FFF7C3FFFFF7B2FFB2
:1031300000BF0837BD4680BD80B584B000AF786061
:103140000B46FB70FFF790FF7820FFF7B2FF40209F
:10315000FFF7AFFF0023FB7309E0FB7B7A681344A2
:103160001B781846FFF7A5FFFB7B0133FB73FA7B47
:10317000FB789A42F1D3FFF78DFF00BF1037BD46B1
:1031800080BD80B485B000AF786039600123FB60FA
:1031900004E0FB687A6802FB03F3FB603B685A1E9D
:1031A0003A60002BF5D1FB6818461437BD465DF830
:1031B000047B704780B500AF0120FFF72DFF012091
:1031C000FFF73EFFAE20FFF7A0FFD520FFF79DFFE2
:1031D0008020FFF79AFFA820FFF797FF3F20FFF717
:1031E00094FFD320FFF791FF0020FFF78EFF4020D0
:1031F000FFF78BFFA120FFF788FFC820FFF785FFAF
:10320000DA20FFF782FF1220FFF77FFF8120FFF710
:103210007CFFCF20FFF779FFD920FFF776FFF12061
:10322000FFF773FFDB20FFF770FF3020FFF76DFF24
:10323000A420FFF76AFFA620FFF767FF8D20FFF7A6
:1032400064FF1420FFF761FFAF20FFF75EFF00BFB0
:1032500080BD80B582B000AF03460A46FB711346BD
:10326000BB71FB7963F04F03DBB21846FFF74DFFEC
:10327000BB791B09DBB243F01003DBB21846FFF742
:1032800044FFBB7903F00F03DBB21846FFF73DFFA5
:1032900000BF0837BD4680BD80B582B000AF0023B7
:1032A000FB710FE0FB7900211846FFF7D2FFFB7995
:1032B000DB01084A134480211846FFF73DFFFB79E4
:1032C0000133FB71FB79072BECD900BF00BF083736
:1032D000BD4680BDC063002080B483B000AF002332
:1032E000BB7114E00023FB710AE0BA79FB790D4948
:1032F000D2010A44134400221A70FB790133FB7196
:1033000097F90730002BF0DABB790133BB71BB7939
:10331000072BE7D900BF00BF0C37BD465DF8047B23
:10332000704700BFC063002090B484B000AF044673
:10333000084611461A462346FB710346BB710B46ED
:103340007B7113463B7197F90730002B4FDBBB793C
:103350003F2B4ED8FA797B791344802B06DDFB791D
:10336000C3F1FF2303F57F0380337B71BA793B7987
:103370001344402B03DDBB79C3F140033B71BB79A0
:10338000BB732DE0FB79FB7321E0BB7BDB08D8B27C
:103390000246FB7B1949D2010A4413441B785AB2F6
:1033A000BB7B03F00703012101FA03F35BB2DB43AC
:1033B0005BB2134059B20246FB7BC8B20F49D2013F
:1033C0000A44134402461A70FB7B0133FB73FA7BF9
:1033D000F9797B790B449A42D7DBBB7B0133BB7312
:1033E000BA7BB9793B790B449A42CBDB02E000BF50
:1033F00000E000BF1037BD4690BC7047C06300209E
:1034000090B585B000AF0446084611461A462346DB
:10341000FB710346BB710B467B7113463B7197F9F9
:103420000730002BC0F2A380BB793F2B00F2A180B4
:103430003B797A79B979F879FFF776FF0023BB7386
:1034400089E00023FB737CE0FA79FB7B13447F2B3C
:103450007DDCBB79DB08DBB21A46BB7B1344072B50
:1034600000F38980BB79DB08D8B20246BB7B1A44E3
:10347000F979FB7B0B444249D2010A4413441B787F
:103480005AB2BB7B797903FB01F1FB7B0B441946F4
:103490003B6A0B441B781946BB7903F0070301FA1A
:1034A00003F35BB213435CB20246BB7B1A44F97967
:1034B000FB7B0B44E0B23249D2010A44134402467A
:1034C0001A70BB79DB08DBB21A46BB7B1344062BB0
:1034D00033DCBB79DB08D8B20246BB7B13445A1CF1
:1034E000F979FB7B0B442649D2010A4413441B782B
:1034F0005AB2BB7B797903FB01F1FB7B0B44194684
:103500003B6A0B441B781946BB7903F00703C3F1F0
:10351000080341FA03F35BB213435CB20246BB7B80
:1035200013445A1CF979FB7B0B44E0B21449D201D5
:103530000A44134402461A7000E000BFFB7B0133CB
:10354000FB73FA7B7B799A42FFF47EAF00E000BF09
:10355000BB7B0133BB733B79013B002B00DA0733A4
:10356000DB101A46BB7B9A42BFF66BAF04E000BF8C
:1035700002E000BF00E000BF1437BD4690BD00BFB1
:10358000C063002090B585B002AF044608461146DE
:103590001A462346FB710346BB710B467B711346EB
:1035A0003B713B79082B0CD17B79203B1B011A4ADC
:1035B0001344B979F879009310230822FFF720FF0C
:1035C00026E03B79062B10D17B79A3F1200213462C
:1035D0005B0013445B00114A1344B979F8790093F6
:1035E00008230622FFF70CFF12E03B79102B0FD1C6
:1035F0007B79A3F1200213465B0013441B01084AA8
:103600001344B979F879009318231022FFF7F8FED4
:1036100000BF0C37BD4690BD7CA700086CAD00080C
:10362000A8AF000880B584B000AF3A601A460346E0
:10363000FB710B46BB7113467B710023FB7312E0D9
:10364000FA7B7B7912FB03F3DAB2FB791344D8B22D
:10365000FB7B3A6813441A787B79B979FFF792FFBC
:10366000FB7B0133FB73FB7B3A6813441B78002B15
:10367000E6D100BF00BF1037BD4680BD90B585B014
:1036800000AF3A601A460346FB710B46BB71134606
:103690007B710023FB7329E0FA7B97F8203012FB43
:1036A00003F3DAB2FB791344DCB27A79FB7BD31AE9
:1036B000013B19460A20FFF764FD02463B68B3FB55
:1036C000F2F10F4BA3FB0123DA0813469B001344CE
:1036D0005B00CA1AD3B23033DAB297F82030B97926
:1036E0002046FFF74FFFFB7B0133FB73FA7B7B79AF
:1036F0009A42D1D300BF00BF1437BD4690BD00BF72
:10370000CDCCCCCCF0B589B002AF0646084687EDEB
:10371000000B11461A463346FB730346BB730B4638
:103720007B7313463B734FF000024FF00003D7E961
:103730000001FDF745FB0346002B07D097F830301A
:10374000B97BF87B2B22FFF71DFF0CE097F8303098
:10375000B97BF87B2D22FFF715FF3C687B6883F06F
:103760000045C7E90045FA7B97F830301344DCB2D6
:10377000D7E90001FDF738FB7A7BB97B97F8303049
:103780000093134602462046FFF778FF7B7B013308
:10379000DBB297F8302012FB03F3DAB2FB7B134461
:1037A000D8B297F83030B97B2E22FFF7EBFED7E97D
:1037B0000001FDF719FB03461846FDF701F8024624
:1037C0000B46D7E90001FCF7BDFE02460B46C7E9F0
:1037D00000233B7B19460A20FFF7D3FC78617B7BF3
:1037E0000233DBB297F8302012FB03F3DAB2FB7B33
:1037F0001344DCB27869FCF7E3FFD7E90023FDF757
:1038000059F802460B4610461946FDF7EDFA0346F5
:103810007A69B3FBF2F2796901FB02F29A1A387BFA
:10382000B97B97F83030009303462046FFF726FF18
:1038300000BF1C37BD46F0BD08B480B58DB000AFE9
:103840000346FB710B46BB7113467B7107F14003C6
:10385000FB6007F11003FA68F96B1846FDF762FB8D
:103860007B7907F11002B979F879FFF7DBFE00BF29
:103870003437BD46BDE8804001B0704780B500AF29
:1038800002F04CFE00F017F800F064F800F044FD80
:1038900000F0DCF800F082FD01F0CAF800F06EF9EB
:1038A00000F006FA00F08CFA01F074F8FEF710FD53
:1038B000FEF72CFFFCE780B594B000AF07F11803CA
:1038C000382200211846FCF78BFC3B1D00221A60B1
:1038D0005A609A60DA601A61002004F0F7F9012357
:1038E000BB614FF48033FB6102237B630323BB6323
:1038F0000223FB6355233B6402237B640223BB64E6
:103900000223FB6407F11803184602F077FE034612
:10391000002B01D000F018F80F237B600323BB605D
:103920000023FB6000233B6100237B613B1D0421DE
:10393000184603F075F90346002B01D000F004F897
:1039400000BF5037BD4680BD80B400AF72B600BF27
:1039500000BFFDE780B58AB000AF07F11403002275
:103960001A605A609A60DA601A61354BDB6C344A2F
:1039700043F02003D364324BDB6C03F020033B6144
:103980003B692F4BDB6C2E4A43F00103D3642C4B75
:10399000DB6C03F00103FB60FB68294BDB6C284AFE
:1039A00043F00403D364264BDB6C03F00403BB60D9
:1039B000BB68234BDB6C224A43F00203D364204BE9
:1039C000DB6C03F002037B607B6800224FF4004154
:1039D0004FF0904003F0F0FE00228021194803F0E0
:1039E000EBFE4FF400437B611123BB610023FB61BD
:1039F00001233B6207F1140319464FF0904003F096
:103A000041FD4FF4E0537B610023BB610223FB6166
:103A100007F1140319460C4803F034FD80237B6141
:103A20001123BB610023FB6101233B6207F11403F7
:103A30001946044803F026FD00BF2837BD4680BD67
:103A400000100240000400480008004880B588B01B
:103A500000AF3B46202200211846FCF7C1FB414B3A
:103A6000414A1A603F4B4FF440325A603D4B0022AE
:103A70009A603C4B0022DA603A4B00221A61394BC3
:103A800001225A61374B04229A61364B00221A7781
:103A9000344B01225A77334B04221A62314B0022F5
:103AA00083F824202F4B4FF4D462DA622D4B4FF46D
:103AB00080621A632B4B012283F83820294B4FF484
:103AC0008052DA63274B002283F84020254801F01A
:103AD000FBFA0346002B01D0FFF736FF234B3B6078
:103AE00006237B600423BB607F23FB6004233B61D0
:103AF00000237B613B4619461A4801F089FD0346C5
:103B0000002B01D0FFF720FF194B3B600C237B609B
:103B10003B461946134801F07BFD0346002B01D0BC
:103B2000FFF712FF134B3B6012237B603B461946A5
:103B30000C4801F06DFD0346002B01D0FFF704FF98
:103B40000D4B3B6018237B603B461946054801F04E
:103B50005FFD0346002B01D0FFF7F6FE00BF2037C4
:103B6000BD4680BDC0670020000100501000C0109D
:103B70002000F0140008302E0010603280B58CB0A8
:103B800000AF07F1240300221A605A609A603B1DBF
:103B9000202200211846FCF723FB404B404A1A60C4
:103BA0003E4B4FF440325A603C4B00229A603B4BF4
:103BB0000022DA60394B00221A61384B01225A6127
:103BC000364B04229A61354B00221A77334B01227F
:103BD0005A77324B03221A62304B002283F824209A
:103BE0002E4B4FF4D462DA622C4B4FF480621A638E
:103BF0002A4B012283F83820284B0022DA63274B16
:103C0000002283F84020254801F05EFA0346002B8D
:103C100001D0FFF799FE00237B6207F124031946C8
:103C20001E4802F073FB0346002B01D0FFF78CFE09
:103C30001C4B7B600623BB600523FB607F233B613D
:103C400004237B610023BB613B1D1946134801F02F
:103C5000DFFC0346002B01D0FFF776FE124B7B60A2
:103C60000C23BB603B1D19460C4801F0D1FC0346F8
:103C7000002B01D0FFF768FE0C4B7B601223BB606A
:103C80003B1D1946054801F0C3FC0346002B01D03B
:103C9000FFF75AFE00BF3037BD4680BD2C680020BC
:103CA00000040050020030042000F01400106032C4
:103CB00080B588B000AF3B46202200211846FCF7B3
:103CC0008FFA3A4B3A4A1A60384B4FF440325A60F6
:103CD000364B00229A60354B0022DA60334B0022CB
:103CE0001A61324B01225A61304B04229A612F4BE8
:103CF00000221A772D4B01225A772C4B03221A628D
:103D00002A4B002283F82420284B4FF4D462DA6235
:103D1000264B4FF480621A63244B012283F838202B
:103D2000224B0022DA63214B002283F840201F48F7
:103D300001F0CAF90346002B01D0FFF705FE1D4B29
:103D40003B6006237B600223BB607F23FB60042370
:103D50003B6100237B613B461946144801F058FC47
:103D60000346002B01D0FFF7EFFD134B3B600C2304
:103D70007B603B4619460D4801F04AFC0346002B88
:103D800001D0FFF7E1FD0D4B3B6012237B603B460A
:103D90001946064801F03CFC0346002B01D0FFF712
:103DA000D3FD00BF2037BD4680BD00BF986800200E
:103DB000000500500800900C1000C0102000F01406
:103DC00080B588B000AF3B46202200211846FCF7A2
:103DD00007FA334B334A1A60314B4FF440325A6082
:103DE0002F4B00229A602E4B0022DA602C4B0022CF
:103DF0001A612B4B01225A61294B04229A61284BEC
:103E000000221A77264B00225A77254B02221A628B
:103E1000234B002283F82420214B4FF4D462DA6232
:103E20001F4B4FF480621A631D4B002283F8382029
:103E30001B4B0022DA631A4B002283F840201848FB
:103E400001F042F90346002B01D0FFF77DFD164B30
:103E50003B6006237B600223BB607F23FB6004235F
:103E60003B6100237B613B4619460D4801F0D0FBC6
:103E70000346002B01D0FFF767FD0C4B3B600C2382
:103E80007B603B461946064801F0C2FB0346002B07
:103E900001D0FFF759FD00BF2037BD4680BD00BFF0
:103EA000046900200006005002003004040060088D
:103EB00080B5A6B000AF786007F1840300221A60D5
:103EC0005A609A60DA601A6107F1300354220021C7
:103ED0001846FCF785F97B681B68884A934240F0D6
:103EE0009A804FF400433B634FF000537B6707F128
:103EF0003003184603F078F80346002B01D0FFF793
:103F000023FD7F4BDB6C7E4A43F40053D3647C4B30
:103F1000DB6C03F40053FB62FB6A794BDB6C784A81
:103F200043F00103D364764BDB6C03F00103BB6207
:103F3000BB6A734BDB6C724A43F00403D364704B6F
:103F4000DB6C03F004037B627B6A6D4BDB6C6C4AB9
:103F500043F00203D3646A4BDB6C03F002033B6261
:103F60003B6A8023C7F884300323C7F888300023D6
:103F7000C7F88C3007F1840319464FF0904003F0E6
:103F800081FA3023C7F884300323C7F88830002330
:103F9000C7F88C3007F1840319465A4803F072FAC7
:103FA0000423C7F884300323C7F888300023C7F8F8
:103FB0008C3007F184031946534803F063FA534BDE
:103FC000534A1A60514B24225A60504B00229A6087
:103FD0004E4B0022DA604D4B80221A614B4B4FF45E
:103FE00080725A61494B4FF480629A61474B20229C
:103FF000DA61464B00221A62444803F0F5FB03469F
:10400000002B01D0FFF7A0FC7B68404A5A653F4A6D
:104010007B6893626AE17B681B683E4A934240F08A
:1040200081804FF480333B634FF00043BB6707F15F
:104030003003184602F0D8FF0346002B01D0FFF7EB
:1040400083FC354B1B680133334A1360324B1B68CA
:10405000012B0BD12A4BDB6C294A43F48043D364F8
:10406000274BDB6C03F48043FB61FB69244BDB6C67
:10407000234A43F00203D364214BDB6C03F00203B9
:10408000BB61BB6942F20303C7F884300323C7F85E
:1040900088300023C7F88C3007F1840319461A488A
:1040A00003F0F0F91D4B1E4A1A601C4B25225A6082
:1040B0001A4B00229A60194B0022DA60174B8022BB
:1040C0001A61164B4FF480725A61144B4FF48062A0
:1040D0009A61124B2022DA61104B00221A620F48BB
:1040E00003F082FB0346002B01D0FFF72DFC7B6819
:1040F0000A4A5A65094A7B689362F7E0000100505A
:1041000000100240000800480004004870690020C8
:104110001C00024000040050F06A0020D06900201A
:10412000300002407B681B68724A93426CD14FF4A6
:1041300080333B634FF00043BB6707F13003184601
:1041400002F052FF0346002B01D0FFF7FDFB6A4B44
:104150001B680133684A1360674B1B68012B0BD146
:10416000664BDB6C654A43F48043D364634BDB6C82
:1041700003F480437B617B69604BDB6C5F4A43F0F7
:104180000203D3645D4BDB6C03F002033B613B69CC
:104190004FF45043C7F884300323C7F88830002316
:1041A000C7F88C3007F184031946554803F06AF9C3
:1041B000544B554A1A60534B26225A60514B0022E9
:1041C0009A60504B0022DA604E4B80221A614D4BB0
:1041D0004FF480725A614B4B4FF480629A61494BA5
:1041E0002022DA61474B00221A62464803F0FCFAAB
:1041F0000346002B01D0FFF7A7FB7B68414A5A65B5
:10420000404A7B68936271E07B681B683F4A934237
:104210006CD14FF480333B634FF00043BB6707F131
:104220003003184602F0E0FE0346002B01D0FFF7F2
:104230008BFB314B1B6801332F4A13602E4B1B68DD
:10424000012B0BD12D4BDB6C2C4A43F48043D36400
:104250002A4BDB6C03F48043FB60FB68274BDB6C71
:10426000264A43F00103D364244BDB6C03F00103C3
:10427000BB60BB684FF44073C7F884300323C7F8B2
:1042800088300023C7F88C3007F1840319464FF0BB
:10429000904003F0F7F81E4B1E4A1A601C4B272271
:1042A0005A601B4B00229A60194B0022DA60184BAF
:1042B00080221A61164B4FF480725A61144B4FF4EE
:1042C00080629A61124B2022DA61114B00221A623D
:1042D0000F4803F089FA0346002B01D0FFF734FBA7
:1042E0007B680B4A5A650A4A7B68936200BF98371D
:1042F000BD4680BD00050050F06A0020001002405D
:1043000000040048306A00204400024000060050CB
:10431000906A00205800024080B582B000AF1E4B6A
:104320009B6C1D4A43F0040393641B4B9B6C03F08E
:1043300004037B607B68184B9B6C174A43F00103B6
:104340009364154B9B6C03F001033B603B680022B8
:1043500000210C2003F049FE0C2003F060FE002237
:1043600000210D2003F041FE0D2003F058FE002235
:1043700000210E2003F039FE0E2003F050FE002233
:1043800000210F2003F031FE0F2003F048FE00BF94
:104390000837BD4680BD00BF0010024080B5BAB0EE
:1043A00000AF07F1E00300221A605A6007F1D00362
:1043B00000221A605A609A60DA6007F17003602286
:1043C00000211846FBF70CFF07F1640300221A6076
:1043D0005A609A6007F1480300221A605A609A6096
:1043E000DA601A615A619A6107F1240324220021DC
:1043F0001846FBF7F5FE3B1D202200211846FBF76F
:10440000EFFECB4BCB4A1A60C94B00225A60C84B17
:1044100000229A60C64803F01DFE0346002B01D01F
:10442000FFF792FA0C21C24803F0E4FE0346002B8A
:1044300001D0FFF789FA0A21BD4803F033FF034694
:10444000002B01D0FFF780FA4FF40033C7F8E030BB
:104450001023C7F8E43007F1E0031A460121B448FD
:1044600003F07CFF0346002B01D0FFF76DFA00221A
:104470000121AF4804F05EF90346002B01D0FFF79D
:1044800063FA48F2D043C7F8D0300023C7F8D430DD
:104490000323C7F8D8300823C7F8DC3007F1D0036E
:1044A0001A460621A24803F031FF0346002B01D033
:1044B000FFF74AFA00233B6700237B670023BB67B3
:1044C0000023FB670123C7F880300023C7F884303E
:1044D0000023C7F888300023C7F88C300023C7F8C2
:1044E00090300023C7F894304FF00063C7F898303D
:1044F0000023C7F89C300023C7F8A0304FF00053CA
:10450000C7F8A4300023C7F8CC3007F170031A466F
:104510000621874804F058FA0346002B01D0FFF724
:1045200013FA4FF6FB737B6607F164030122062141
:104530007F4804F089FB0346002B01D0FFF704FA03
:1045400007F1640302220621794804F07DFB03464B
:10455000002B01D0FFF7F8F907F1640304220621CC
:10456000734804F071FB0346002B01D0FFF7ECF910
:1045700007F16403082206216D4804F065FB034639
:10458000002B01D0FFF7E0F907F1D0031A46012113
:10459000674803F0BBFE0346002B01D0FFF7D4F9B8
:1045A0000023BB6400233B6500237B6500233B663F
:1045B00007F148031A4601215D4804F092FA0346C8
:1045C000002B01D0FFF7C0F900233B6700237B6776
:1045D0000023C7F8A8300023C7F8AC300023C7F881
:1045E000B0304FF48073C7F8B4300023C7F8B83048
:1045F0000023C7F8C0301023C7F8C4300023C7F821
:10460000C83007F170031A460121494804F0DCF96B
:104610000346002B01D0FFF797F90023C7F8B83005
:1046200007F170031A460421414804F0CDF903460E
:10463000002B01D0FFF788F90023C7F8B83007F145
:1046400070031A4605213A4804F0BEF90346002BD0
:1046500001D0FFF779F906237B6607F16403012295
:104660000121334804F0F0FA0346002B01D0FFF794
:104670006BF907F16403042201212D4804F0E4FAE8
:104680000346002B01D0FFF75FF900237B629623DE
:10469000BB620023FB6200233B6300237B63962302
:1046A000BB630023FB6300233B6400237B6407F1AF
:1046B00024031A4601211E4804F046FA0346002B43
:1046C00001D0FFF741F907F124031A4604211848E5
:1046D00004F03AFA0346002B01D0FFF735F907F151
:1046E00024031A460521124804F02EFA0346002B33
:1046F00001D0FFF729F900237B600823BB6020234A
:10470000FB6000233B6100237B610023BB6100232E
:10471000FB6100233B623B1D04220121044804F09D
:1047200001FC0346002B07D0FFF70EF904E000BFA1
:10473000F46A0020006801403B1D4FF480720421A0
:10474000504804F0EFFB0346002B01D0FFF7FCF8C4
:104750003B1D4FF4806205214A4804F0E3FB034609
:10476000002B01D0FFF7F0F80023BB600023FB60B3
:104770003B1D08220121434804F0D4FB0346002BD3
:1047800001D0FFF7E1F83B1D4FF4007204213D48D2
:1047900004F0C8FB0346002B01D0FFF7D5F83B1D02
:1047A0004FF400620521374804F0BCFB0346002BA0
:1047B00001D0FFF7C9F807F1D0031A4604213148A8
:1047C00003F0A4FD0346002B01D0FFF7BDF807F16D
:1047D00048031A4604212B4804F083F90346002BB2
:1047E00001D0FFF7B1F807F1640301220421254845
:1047F00004F02AFA0346002B01D0FFF7A5F807F1D1
:104800006403042204211F4804F01EFA0346002B0F
:1048100001D0FFF799F807F1D0031A46052119488E
:1048200003F074FD0346002B01D0FFF78DF807F16C
:1048300048031A460521134804F053F90346002B98
:1048400001D0FFF781F807F16403012205210D482B
:1048500004F0FAF90346002B01D0FFF775F807F1D1
:10486000640304220521074804F0EEF90346002BF7
:1048700001D0FFF769F8034800F026F800BFE837D9
:10488000BD4680BDF46A002080B485B000AF78607A
:104890007B681B680A4A93420BD10A4B1B6E094A7C
:1048A00043F080631366074B1B6E03F08063FB606D
:1048B000FB6800BF1437BD465DF8047B704700BF3E
:1048C000006801400010024080B58AB000AF7860F7
:1048D00007F1140300221A605A609A60DA601A61C4
:1048E0007B681B68284A93424AD1284BDB6C274AD5
:1048F00043F00403D364254BDB6C03F004033B61FA
:104900003B69224BDB6C214A43F00103D3641F4B0C
:10491000DB6C03F00103FB60FB68C0237B610223B7
:10492000BB610023FB6103233B620D237B6207F124
:1049300014031946164802F0A5FD4FF440737B613D
:104940000223BB610023FB6103233B6203237B62E1
:1049500007F1140319460E4802F094FD4FF440632A
:104960007B610223BB610023FB6103233B620D23B8
:104970007B6207F1140319464FF0904002F082FD6C
:1049800000BF2837BD4680BD0068014000100240CE
:104990000008004880B588B000AF07F1100300227E
:1049A0001A605A609A60DA603B1D00221A605A60F1
:1049B0009A601D4B1D4A1A601B4BAA225A601A4B63
:1049C00000229A60184B44F62062DA60164B0022EF
:1049D0001A61154B00229A61134804F0A1FF0346A7
:1049E000002B01D0FEF7B0FF4FF480533B6107F17D
:1049F000100319460C4805F0B3F90346002B01D00B
:104A0000FEF7A2FF00237B600023FB603B1D1946DD
:104A1000054805F033FC0346002B01D0FEF794FF58
:104A200000BF2037BD4680BDF06B0020000C004069
:104A300080B584B000AF3B1D00221A605A609A60B6
:104A4000144B154A1A60134B00225A60114B002276
:104A50009A60104B44F26722DA600E4B00229A6192
:104A60000C4804F05DFF0346002B01D0FEF76CFFFD
:104A700000237B600023FB603B1D1946054805F0C1
:104A8000FDFB0346002B01D0FEF75EFF00BF103791
:104A9000BD4680BD3C6C00200010004080B584B055
:104AA00000AF78607B681B681A4A934214D11A4B96
:104AB0009B6D194A43F008039365174B9B6D03F0F8
:104AC0000803FB60FB6800220021322003F08DFA0E
:104AD000322003F0A4FA18E07B681B680F4A934267
:104AE00013D10D4B9B6D0C4A43F0100393650A4B99
:104AF0009B6D03F01003BB60BB68002200213620D1
:104B000003F073FA362003F08AFA00BF1037BD466F
:104B100080BD00BF000C00400010024000100040AB
:104B200080B400AF00BFFDE780B400AF00BFFDE779
:104B300080B400AF00BFFDE780B400AF00BFFDE769
:104B400080B400AF00BFFDE780B400AF00BFBD463A
:104B50005DF8047B704780B400AF00BFBD465DF8D0
:104B6000047B704780B400AF00BFBD465DF8047B96
:104B7000704780B500AF01F023FD00BF80BD00008D
:104B800080B500AF024802F052FF00BF80BD00BFF9
:104B90007069002080B500AF024802F048FF00BFF6
:104BA00080BD00BFD069002080B500AF024802F090
:104BB0003EFF00BF80BD00BF306A002080B500AF5F
:104BC000024802F034FF00BF80BD00BF906A0020A1
:104BD00080B500AF024804F073FF00BF80BD00BF86
:104BE000F06B002080B500AF024804F069FF00BF01
:104BF00080BD00BF3C6C002080B582B000AF0F4B81
:104C00001B6E0E4A43F0010313660C4B1B6E03F040
:104C100001037B607B68094B9B6D084A43F080531E
:104C20009365064B9B6D03F080533B603B6803F03C
:104C3000F1F800BF0837BD4680BD00BF001002403C
:104C400080B483B000AF786039607B689B6823F4E0
:104C50007C123B681A437B689A6000BF0C37BD46E4
:104C60005DF8047B704780B483B000AF7860396032
:104C70007B689B6823F0E0723B681A437B689A600C
:104C800000BF0C37BD465DF8047B704780B483B02D
:104C900000AF78607B689B6803F0E07318460C37C0
:104CA000BD465DF8047B704780B487B000AFF86004
:104CB000B9607A603B60FB6860331A46BB689B0052
:104CC00013447B617B691A68084B13407A6802F0D1
:104CD000F8413A680A43134343F000427B691A6083
:104CE00000BF1C37BD465DF8047B704700F0FF0332
:104CF00080B485B000AF786039607B6860331A4655
:104D00003B689B001344FB60FB681B6803F0F8439F
:104D100018461437BD465DF8047B704780B487B0F1
:104D200000AFF860B9607A60FB6860331A46BB6810
:104D30009B0013447B617B691B6823F000427B6806
:104D40001A437B691A6000BF1C37BD465DF8047BBF
:104D5000704780B487B000AFF860B9607A60FB68D4
:104D600060331A46BB689B0013447B617B691B68F8
:104D700023F080727B681A437B691A6000BF1C377E
:104D8000BD465DF8047B704780B487B000AFF86023
:104D9000B9607A60FB6860331A46BB689B001344B5
:104DA0007B617B691B6823F000727B681A437B6917
:104DB0001A6000BF1C37BD465DF8047B704780B4A5
:104DC00083B000AF786039607B685B6923F0004294
:104DD0003B681A437B685A6100BF0C37BD465DF8DB
:104DE000047B704780B483B000AF78607B68DB6879
:104DF00003F44063002B01D1012300E00023184697
:104E00000C37BD465DF8047B704780B487B000AFB7
:104E1000F860B9607A60FB6830331A46BB681B0AD9
:104E20009B0003F00C0313447B617B691A68BB6829
:104E300003F01F031F2101FA03F3DB431A407B68D1
:104E40009B0E03F01F01BB6803F01F0301FA03F37D
:104E50001A437B691A6000BF1C37BD465DF8047BAE
:104E6000704780B487B000AFF860B9607A60FB68C3
:104E700014331A46BB685B0E9B0003F00403134413
:104E80007B617B691A68BB681B0D03F01F03072158
:104E900001FA03F3DB431A40BB681B0D03F01F0349
:104EA000796801FA03F31A437B691A6000BF1C3763
:104EB000BD465DF8047B704780B485B000AFF860F4
:104EC000B9607A60FB68D3F8B020BB68C3F3120303
:104ED000DB431A407B6803F018030849D940BB68DC
:104EE0000B40C3F312031A43FB68C3F8B02000BFA2
:104EF0001437BD465DF8047B704700BFFFFF070015
:104F000080B483B000AF78607B689B6803F01F03B8
:104F100018460C37BD465DF8047B704780B483B0FB
:104F200000AF78607B689B6823F0204323F03F0349
:104F30007A68936000BF0C37BD465DF8047B70470C
:104F400080B483B000AF78607B689B6803F0005347
:104F5000B3F1005F01D1012300E0002318460C37B4
:104F6000BD465DF8047B704780B483B000AF7860C5
:104F70007B689B6823F0104323F03F0343F080528B
:104F80007B689A6000BF0C37BD465DF8047B7047B4
:104F900080B483B000AF78607B689B6803F0805377
:104FA000B3F1805F01D1012300E0002318460C37E4
:104FB000BD465DF8047B704780B483B000AF786075
:104FC0007B689B6823F0004323F03F0343F001021A
:104FD0007B689A6000BF0C37BD465DF8047B704764
:104FE00080B483B000AF78607B689B6823F0004397
:104FF00023F03F0343F002027B689A6000BF0C3746
:10500000BD465DF8047B704780B483B000AF786024
:105010007B689B6803F00103012B01D1012300E0B1
:10502000002318460C37BD465DF8047B704780B4FA
:1050300083B000AF78607B689B6803F00203022BAB
:1050400001D1012300E0002318460C37BD465DF86E
:10505000047B704780B483B000AF78607B689B6846
:1050600023F0004323F03F0343F004027B689A607F
:1050700000BF0C37BD465DF8047B704780B483B039
:1050800000AF78607B689B6803F00403042B01D1B8
:10509000012300E0002318460C37BD465DF8047B71
:1050A000704780B483B000AF78607B689B6803F082
:1050B0000803082B01D1012300E0002318460C3718
:1050C000BD465DF8047B704790B589B000AF78604D
:1050D0000023FB770023FB607B68002B01D10123B9
:1050E000A9E17B685B69002B7B68DB6D002B09D134
:1050F0007868FEF7DDFE7B6800221A667B68002276
:1051000083F858207B681B681846FFF719FF034691
:10511000002B04D07B681B681846FFF7FFFE7B68F6
:105120001B681846FFF734FF0346002B15D17B6838
:105130001B681846FFF718FF9C4B1B689B099C4A8D
:10514000A2FB03239B0901335B00FB6002E0FB68C9
:10515000013BFB60FB68002BF9D17B681B6818469C
:10516000FFF716FF0346002B0DD17B68DB6D43F084
:1051700010027B68DA657B681B6E43F001027B6876
:105180001A660123FB777B681B681846FFF776FFDA
:1051900078617B68DB6D03F01003002B40F04281E7
:1051A0007B69002B40F03E817B68DB6D23F48173CB
:1051B00043F002027B68DA657B681B681846FFF7DC
:1051C00023FF0346002B41D17B681B68B3F1A04F3E
:1051D00004D07B681B68774A93420FD14FF0A04000
:1051E000FFF712FF04467348FFF70EFF0346234301
:1051F000002B0CBF01230023DBB212E06E48FFF747
:1052000003FF04466D48FFF7FFFE03461C436C484E
:10521000FFF7FAFE03462343002B0CBF01230023B4
:10522000DBB2002B12D07B681B68B3F1A04F04D017
:105230007B681B685F4A934201D1624A00E0624A80
:105240007B685B6819461046FFF7FAFC7B685B7F5A
:105250005A037B68DB6B1A437B68DB681A437B6805
:105260009B681A437B6893F824301B041343BB618B
:105270007B6893F82430012B06D17B689B6A013B45
:105280005B04BA691343BB617B68DB6A002B09D0FE
:105290007B68DB6A03F478727B681B6B1343BA6923
:1052A0001343BB617B681B68DA68484B13407A681C
:1052B0001268B9690B43D3607B681B681B6923F0D4
:1052C00040617B685A6B7B681B680A431A617B6884
:1052D0001B681846FFF7E5FE38617B69002B7FD11C
:1052E0003B69002B7CD17B681B7F9A037B6893F81A
:1052F00038305B001343BB617B681B68DB6823F4B9
:10530000804323F002037A681268B9690B43D360C3
:105310007B681B69002B17D07B681B681A697B6848
:105320001B6842F480321A617B681B68D3F8C03076
:1053300023F47F5323F03F037A6811697A68126877
:105340000B43C2F8C03013E07B681B681A697B68A6
:105350001B6822F480321A617B681B68D3F8C03066
:105360007A68126823F47F5323F03F03C2F8C030F9
:105370007B6893F84030012B2AD17B681B681B693E
:1053800023F4FF6323F004037A68516C7A68926C0B
:1053900011437A68D26C11437A68126D0A431A433A
:1053A0007B681B6842F001021A6119E0600000206E
:1053B000632D3E0500010050000400500005005020
:1053C0000006005000030050000700500740F0FFA7
:1053D0007B681B681A697B681B6822F001021A61EE
:1053E0007B685B69012B0CD17B681B681B6B23F00E
:1053F0000F017B681B6A5A1E7B681B680A431A638D
:1054000007E07B681B681A6B7B681B6822F00F0241
:105410001A637B68DB6D23F0030343F001027B68B2
:10542000DA6507E07B68DB6D43F010027B68DA65C4
:105430000123FB77FB7F18462437BD4690BD00BF94
:1054400080B586B000AFF860B9607A60FB681B6811
:10545000B3F1A04F04D0FB681B685A4A934201D1B4
:10546000594B00E0594B1846FFF74AFD3861FB687D
:105470001B681846FFF702FE0346002B40F09B8096
:10548000FB6893F85830012B01D1022396E0FB68AA
:10549000012283F85820FB681B684D4A934208D0CC
:1054A0003B69002B05D03B69052B02D03B69092BDA
:1054B0007AD1F86800F0ECFC0346FB75FB7D002B0D
:1054C0006DD1FB68DB6D23F4706323F0010343F4BB
:1054D0008072FB68DA65FB681B683A4A934209D020
:1054E000FB681B683B4A934202D0FB681B6803E0E1
:1054F000394B01E04FF0A043FA681268934202D0A2
:105500003B69002B05D1FB68DB6D23F48012FB683F
:10551000DA65FB68DB6D03F48053002B06D0FB6873
:105520001B6E23F00602FB681A6602E0FB6800228D
:105530001A66FB685B6D294ADA62FB685B6D284A74
:105540001A63FB685B6D274A5A63FB681B681C2261
:105550001A60FB68002283F85820FB681B685A68B1
:10556000FB681B6842F010025A60FB681B68DA682F
:10557000FB681B6842F00102DA60FB68586DFB684B
:105580001B6840331946BA687B6802F0D5F90346B8
:10559000FB75FB681B681846FFF75CFD0DE0FB68B8
:1055A000002283F8582008E00123FB75FB680022E5
:1055B00083F8582001E00223FB75FB7D184618375D
:1055C000BD4680BD000100500003005000070050A0
:1055D0000006005000050050000400507B600008E9
:1055E000536100086F61000880B483B000AF786039
:1055F00000BF0C37BD465DF8047B704780B483B0B4
:1056000000AF786000BF0C37BD465DF8047B704783
:1056100080B5B6B000AF78603960002387F8D73026
:105620000023FB607B6893F85830012B02D10223E2
:1056300000F013BC7B68012283F858207B681B684C
:105640001846FFF71BFD0346002B40F0F3837B68F1
:1056500018683B6859683B681B681A46FFF7D5FB1A
:105660007B681B681846FFF709FDC7F8D0007B6808
:105670001B681846FFF715FDC7F8CC00D7F8D030E7
:10568000002B40F0D981D7F8CC30002B40F0D481EA
:105690003B689B68B3F1004F0FD17B6818683B688B
:1056A0001B6800221946FFF7DCFB7B681B684FF084
:1056B00000411846FFF783FB0EE07B6818683B68E3
:1056C00019683B689B681A46FFF7CBFB7B681B6831
:1056D00000211846FFF773FB3B685A697B681B681B
:1056E000DB68DB0803F003035B0002FA03F3C7F88F
:1056F000C8303B681B69042B22D07B6818683B6864
:1057000019693B681A68D7F8C830FFF7CDFA7B688B
:1057100018683B6819693B689B691A46FFF719FBD3
:105720007B6818683B6819693B681B7F012B02D1B5
:105730004FF0007300E000231A46FFF725FB7BE1E2
:105740007B681B6800211846FFF7D2FA0346C3F3B3
:105750001203002B0AD17B681B6800211846FFF753
:10576000C7FA03469B0E03F01F021EE07B681B680E
:1057700000211846FFF7BCFA0346C7F8BC30D7F83B
:10578000BC3093FAA3F3C7F8C030D7F8C030C7F8DD
:10579000B830D7F8B830002B01D1202304E0D7F877
:1057A000B830B3FA83F3DBB21A463B681B68C3F325
:1057B0001203002B05D13B681B689B0E03F01F03EF
:1057C00018E03B681B68C7F8B030D7F8B03093FAE0
:1057D000A3F3C7F8AC30D7F8AC30C7F8B430D7F87B
:1057E000B430002B01D1202304E0D7F8B430B3FA51
:1057F00083F3DBB29A4206D17B681B68002200214A
:105800001846FFF78BFA7B681B6801211846FFF7E3
:105810006FFA0346C3F31203002B0AD17B681B689F
:1058200001211846FFF764FA03469B0E03F01F029E
:105830001EE07B681B6801211846FFF759FA0346F2
:10584000C7F8A430D7F8A43093FAA3F3C7F8A03070
:10585000D7F8A030C7F8A830D7F8A830002B01D16E
:10586000202304E0D7F8A830B3FA83F3DBB21A465A
:105870003B681B68C3F31203002B05D13B681B6810
:105880009B0E03F01F0318E03B681B68C7F89830B5
:10589000D7F8983093FAA3F3C7F89430D7F8943038
:1058A000C7F89C30D7F89C30002B01D1202304E0AE
:1058B000D7F89C30B3FA83F3DBB29A4206D17B6807
:1058C0001B68002201211846FFF728FA7B681B6835
:1058D00002211846FFF70CFA0346C3F31203002B0C
:1058E0000AD17B681B6802211846FFF701FA0346BC
:1058F0009B0E03F01F021EE07B681B680221184606
:10590000FFF7F6F90346C7F88C30D7F88C3093FAD6
:10591000A3F3C7F88830D7F88830C7F89030D7F8A5
:105920009030002B01D1202304E0D7F89030B3FA57
:1059300083F3DBB21A463B681B68C3F31203002BE8
:1059400005D13B681B689B0E03F01F0316E03B6804
:105950001B68C7F88030D7F8803093FAA3F3FB6751
:10596000FB6FC7F88430D7F88430002B01D1202397
:1059700004E0D7F88430B3FA83F3DBB29A4206D15D
:105980007B681B68002202211846FFF7C7F97B6875
:105990001B6803211846FFF7ABF90346C3F3120354
:1059A000002B0AD17B681B6803211846FFF7A0F97A
:1059B00003469B0E03F01F0217E07B681B68032160
:1059C0001846FFF795F903467B677B6F93FAA3F3BD
:1059D0003B673B6FBB67BB6F002B01D1202303E00C
:1059E000BB6FB3FA83F3DBB21A463B681B68C3F3A1
:1059F0001203002B05D13B681B689B0E03F01F03AD
:105A000011E03B681B68BB66BB6E93FAA3F37B6631
:105A10007B6EFB66FB6E002B01D1202303E0FB6E47
:105A2000B3FA83F3DBB29A4206D17B681B6800228B
:105A300003211846FFF772F97B681B681846FFF7C9
:105A4000E3FA0346002B40F03D817B6818683B6811
:105A500019683B68DB681A46FFF72EFA3B68DB687B
:105A6000A24A934240F02E817B6818683B681B680D
:105A7000C3F31203002B0BD13B681B689B0E013351
:105A800003F01F03092B94BF01230023DBB219E0AD
:105A90003B681B68FB65FB6D93FAA3F3BB65BB6DAD
:105AA0003B663B6E002B01D1202303E03B6EB3FA33
:105AB00083F3DBB2013303F01F03092B94BF0123EF
:105AC0000023DBB2002B79D03B681B68C3F31203C1
:105AD000002B07D13B681B689B0E01339B0603F02C
