:020000040800F2
:1000000000000220794F00086D0C0008750C0008F4
:100010007D0C0008850C00088D0C00080000000015
:10002000000000000000000000000000950C000827
:10003000A30C000800000000B10C0008BF0C000871
:10004000C94F0008C94F0008C94F0008C94F000830
:10005000C94F0008C94F0008C94F0008C94F000820
:10006000C94F0008C94F0008C94F0008CD0C00084F
:10007000C94F0008C94F0008C94F0008C94F000800
:10008000C94F0008C94F0008C94F0008C94F0008F0
:10009000C94F0008C94F0008C94F0008C94F0008E0
:1000A000C94F0008C94F0008C94F0008C94F0008D0
:1000B000C94F0008C94F0008C94F0008C94F0008C0
:1000C000C94F0008C94F0008C94F0008C94F0008B0
:1000D000C94F0008C94F0008C94F0008C94F0008A0
:1000E000C94F0008C94F0008C94F0008C94F000890
:1000F000C94F0008C94F0008C94F0008C94F000880
:10010000C94F0008C94F0008C94F0008C94F00086F
:10011000C94F0008C94F0008C94F0008C94F00085F
:10012000C94F0008C94F0008C94F0008C94F00084F
:10013000C94F0008C94F0008C94F0008C94F00083F
:10014000C94F0008C94F0008C94F0008C94F00082F
:10015000C94F0008C94F0008C94F0008C94F00081F
:10016000C94F0008C94F0008C94F0008C94F00080F
:10017000C94F0008C94F0008C94F0008C94F0008FF
:10018000C94F0008C94F0008C94F0008C94F0008EF
:10019000C94F000800000000C94F0008C94F0008FF
:1001A000C94F0008C94F0008C94F0008C94F0008CF
:1001B000C94F0008C94F0008C94F0008C94F0008BF
:1001C000C94F0008C94F0008C94F0008C94F0008AF
:0801D000C94F0008C94F0008E7
:1001D800830730B547D0541E002A3ED0CAB2034622
:1001E80001E0013C39D303F8012B9D07F9D1032C19
:1001F8002CD9CDB205EB05250F2C05EB054535D9D6
:10020800A4F1100222F00F0C03F1100EE6444FEA9D
:10021800121C1A46C2E90055C2E90255103272454D
:10022800F8D10CF1010214F00C0F03EB021204F0E8
:100238000F0C13D0ACF1040323F00303043313446D
:1002480042F8045B9342FBD10CF003042CB1C9B211
:100258001C4403F8011BA342FBD130BD644613467E
:10026800002CF4D1F9E703461446C0E71A46A44621
:10027800E0E700BF70B50F4B0F4DAB42A3EB05068F
:1002880007D0B610002455F8043B01349847A6421D
:10029800F9D804F097FE094D094B5E1BAB424FEAB3
:1002A800A60606D0002455F8043B01349847A64218
:1002B800F9D870BDF44F0008F44F0008F44F000857
:1002C800F84F000810B5054C237833B9044B13B127
:1002D8000448AFF300800123237010BD0C000020F8
:1002E80000000000CC4F000808B5034B1BB10349C0
:1002F8000348AFF3008008BD000000001000002094
:10030800CC4F000880B500AF01F00AFE00F00CF8F1
:1003180000F05CF800F040FA00F07CF800F0F4F827
:1003280000F064FA00BFFDE780B594B000AF07F1B4
:100338001803382200211846FFF74AFF3B1D002208
:100348001A605A609A60DA601A61002003F0D8F8DF
:100358000223BB614FF480737B624023BB6202239C
:100368007B630223BB630423FB6355233B640223A3
:100378007B640223BB640223FB6407F1180318465D
:1003880001F03EFE0346002B01D000F018F80F23C1
:100398007B600323BB600023FB6000233B610023D9
:1003A8007B613B1D0421184602F03CF90346002BF3
:1003B80001D000F004F800BF5037BD4680BD80B4BE
:1003C80000AF72B600BF00BFFDE7000080B483B085
:1003D80000AF0F4BDB6C0E4A43F02003D3640C4B89
:1003E800DB6C03F020037B607B68094BDB6C084AFD
:1003F80043F00103D364064BDB6C03F001033B605D
:100408003B6800BF0C37BD465DF8047B704700BFF2
:100418000010024080B58CB000AF07F12403002221
:100428001A605A609A603B1D202200211846FFF787
:10043800CFFE334B4FF0A0421A60314B4FF440329D
:100448005A602F4B00229A602D4B0022DA602C4B09
:1004580000221A612A4B00225A61294B04229A6110
:10046800274B00221A77264B01225A77244B012268
:100478001A62234B002283F82420214B4FF4D462C4
:10048800DA621F4B4FF480621A631D4B012283F816
:1004980038201B4B0022DA63194B002283F84020D6
:1004A800174800F013FE0346002B01D0FFF787FF23
:1004B80000237B6207F124031946114801F028FC48
:1004C8000346002B01D0FFF77AFF0E4B7B60062313
:1004D800BB600023FB607F233B6104237B61002317
:1004E800BB613B1D1946064800F0ACFF0346002BD4
:1004F80001D0FFF764FF00BF3037BD4680BD00BFA5
:10050800280000200200300480B588B000AF3B46C8
:10051800202200211846FFF75BFE324B324A1A6050
:10052800304B4FF440325A602E4B00229A602D4BCC
:100538000022DA602B4B00221A612A4B01225A61F1
:10054800284B04229A61274B00221A77254B002258
:100558005A77244B02221A62224B002283F8242065
:10056800204B4FF4D462DA621E4B4FF480621A6358
:100578001C4B002283F838201A4B0022DA63194BEF
:10058800002283F84020174800F0A0FD0346002B06
:1005980001D0FFF714FF154B3B6006237B60002357
:1005A800BB607F23FB6004233B6100237B613B46E8
:1005B80019460C4800F046FF0346002B01D0FFF710
:1005C800FEFE0C237B603B461946064800F03AFFC6
:1005D8000346002B01D0FFF7F2FE00BF2037BD46CF
:1005E80080BD00BF94000020000100500800900C5E
:1005F80080B5A0B000AF786007F16C0300221A60E4
:100608005A609A60DA601A6107F1180354220021CF
:100618001846FFF7DDFD7B681B68B3F1A04F69D171
:100628004FF40043BB614FF00053FB6507F118031B
:10063800184602F0DBF90346002B01D0FFF7BFFE96
:10064800504B1B6801334F4A13604E4B1B68012BFC
:100658000BD14D4BDB6C4C4A43F40053D3644A4BEB
:10066800DB6C03F400537B617B69474BDB6C464AC8
:1006780043F00103D364444BDB6C03F001033B619B
:100688003B690723FB6603233B6700237B6707F16E
:100698006C0319464FF0904002F0F6FB3B4B3C4A86
:1006A8001A603A4B05225A60384B00229A60374B41
:1006B8000022DA60354B80221A61344B4FF4807285
:1006C8005A61324B4FF480629A61304B2022DA61D2
:1006D8002E4B00221A622D4802F058FD0346002BCB
:1006E80001D0FFF76CFE7B68284A5A65274A7B6869
:1006F800936242E07B681B68264A93423DD14FF4DF
:100708000043BB614FF00053FB6507F1180318461F
:1007180002F06CF90346002B01D0FFF750FE194B8D
:100728001B680133174A1360164B1B68012B0BD14A
:10073800154BDB6C144A43F40053D364124BDB6C47
:1007480003F40053FB60FB680F4BDB6C0E4A43F06D
:100758000103D3640C4BDB6C03F00103BB60BB6883
:10076800C023FB6603233B6700237B6707F16C0309
:1007780019464FF0904002F087FB00BF8037BD4616
:1007880080BD00BF60010020001002400001002071
:10079800080002400001005080B582B000AF124B43
:1007A8009B6C114A43F0040393640F4B9B6C03F05A
:1007B80004037B607B680C4B9B6C0B4A43F0010382
:1007C8009364094B9B6C03F001033B603B68002278
:1007D80000210B2003F023F80B2003F03AF800BFA8
:1007E8000837BD4680BD00BF0010024080B5B0B0DC
:1007F80000AF07F1B80300221A605A6007F1A80396
:1008080000221A605A609A60DA6007F14803602291
:1008180000211846FFF7DCFC07F13C0300221A60B0
:100828005A609A6007F1200300221A605A609A60A1
:10083800DA601A615A619A613B4620220021184603
:10084800FFF7C6FCC54BC64A1A60C44B00225A6063
:10085800C24B00229A60C14803F016F80346002BE9
:1008680001D0FFF7ACFD0C21BC4803F0DDF80346CE
:10087800002B01D0FFF7A3FD0A21B84803F02CF99B
:100888000346002B01D0FFF79AFD4FF48033C7F8D9
:10089800B8300223C7F8BC3007F1B8031A46012163
:1008A800AE4803F075F90346002B01D0FFF787FD2A
:1008B80000220121A94803F057FB0346002B01D071
:1008C800FFF77DFD0023C7F8BC3007F1B8031A46CF
:1008D8000221A24803F05CF90346002B01D0FFF780
:1008E8006EFD002202219D4803F03EFB0346002BCB
:1008F80001D0FFF764FD4FF6DF73C7F8A830002377
:10090800C7F8AC300023C7F8B0300823C7F8B430B4
:1009180007F1A8031A460621904803F011F9034687
:10092800002B01D0FFF74BFD0023BB640023FB64C1
:1009380000233B6500237B650123BB650023FB6522
:1009480000233B6600237B660023BB660023FB660F
:1009580000233B6700237B670023BB670023FB67FB
:100968000023C7F8A43007F148031A4606217B483C
:1009780003F044FC0346002B01D0FFF720FD0123C0
:10098800FB6307F13C0301220621744803F0F6FCDF
:100998000346002B01D0FFF712FD4FF4A173FB6350
:1009A80007F13C03022206216C4803F0E7FC0346EA
:1009B800002B01D0FFF703FD47F6BB63FB6307F18C
:1009C8003C0304220621654803F0D8FC0346002BAB
:1009D80001D0FFF7F4FC45F2CE63FB6307F13C035B
:1009E800082206215D4803F0C9FC0346002B01D00C
:1009F800FFF7E5FC4FF4FA63C7F8A83007F1A8033E
:100A08001A460021554803F09BF80346002B01D0F5
:100A1800FFF7D5FC00233B6200237B620023FB62C7
:100A28000023BB6307F120031A4600214B4803F05B
:100A380072FC0346002B01D0FFF7C1FC0023BB6406
:100A48000023FB640023C7F880300023C7F88430F4
:100A58000023C7F888300023C7F88C300023C7F874
:100A680090300023C7F898300023C7F89C30002343
:100A7800C7F8A03007F148031A460021374803F0A9
:100A8800BDFB0346002B01D0FFF799FC07F1480393
:100A98001A460121314803F0B1FB0346002B01D06F
:100AA800FFF78DFC7D23FB6307F13C030122002146
:100AB8002A4803F063FC0346002B01D0FFF77FFCB4
:100AC80042F6E063FB6300233B6400237B6407F189
:100AD8003C0302220021214803F050FC0346002B6E
:100AE80001D0FFF76CFC00233B6000237B600023F0
:100AF800BB600023FB6000233B6100237B61002374
:100B0800BB610023FB613B4601220021134803F02F
:100B1800A3FD0346002B01D0FFF751FC3B460422FE
:100B280001210E4803F098FD0346002B01D0FFF782
:100B380046FC3B4602220021084803F08DFD03468F
:100B4800002B01D0FFF73BFC3B460822012103485C
:100B580003F082FD0346002B06D003E06401002069
:100B680000680140FFF72BFC4FF6DF73C7F8A83089
:100B780007F1A8031A4601210D4802F0E1FF0346D8
:100B8800002B01D0FFF71BFC07F120031A460121B7
:100B9800074803F0C0FB0346002B01D0FFF70FFC0A
:100BA800034800F027F800BFC037BD4680BD00BF2E
:100BB8006401002080B485B000AF78607B681B6852
:100BC8000A4A93420BD10A4B1B6E094A43F08063D1
:100BD8001366074B1B6E03F08063FB60FB6800BF66
:100BE8001437BD465DF8047B704700BF00680140BC
:100BF8000010024080B588B000AF786007F10C03A0
:100C080000221A605A609A60DA601A617B681B6871
:100C1800124A93421DD1124BDB6C114A43F0010377
:100C2800D3640F4BDB6C03F00103BB60BB684FF46C
:100C38007063FB6002233B6100237B610323BB617C
:100C48000D23FB6107F10C0319464FF0904002F0A9
:100C58001BF900BF2037BD4680BD00BF00680140BA
:100C68000010024080B400AF00BFFDE780B400AFC1
:100C780000BFFDE780B400AF00BFFDE780B400AF60
:100C880000BFFDE780B400AF00BFFDE780B400AF50
:100C980000BFBD465DF8047B704780B400AF00BF5D
:100CA800BD465DF8047B704780B400AF00BFBD4609
:100CB8005DF8047B704780B500AF01F083F900BF91
:100CC80080BD000080B500AF024802F007FB00BFFE
:100CD80080BD00BF0001002080B582B000AF0F4B7F
:100CE8001B6E0E4A43F0010313660C4B1B6E03F098
:100CF80001037B607B68094B9B6D084A43F0805376
:100D08009365064B9B6D03F080533B603B6802F094
:100D18009BFC00BF0837BD4680BD00BF00100240E5
:100D280080B483B000AF786039607B689B6823F437
:100D38007C123B681A437B689A6000BF0C37BD463B
:100D48005DF8047B704780B483B000AF7860396089
:100D58007B689B6823F0E0723B681A437B689A6063
:100D680000BF0C37BD465DF8047B704780B483B084
:100D780000AF78607B689B6803F0E07318460C3717
:100D8800BD465DF8047B704780B487B000AFF8605B
:100D9800B9607A603B60FB6860331A46BB689B00A9
:100DA80013447B617B691A68084B13407A6802F028
:100DB800F8413A680A43134343F000427B691A60DA
:100DC80000BF1C37BD465DF8047B704700F0FF0389
:100DD80080B485B000AF786039607B6860331A46AC
:100DE8003B689B001344FB60FB681B6803F0F843F7
:100DF80018461437BD465DF8047B704780B487B049
:100E080000AFF860B9607A60FB6860331A46BB6867
:100E18009B0013447B617B691B6823F000427B685D
:100E28001A437B691A6000BF1C37BD465DF8047B16
:100E3800704780B487B000AFF860B9607A60FB682B
:100E480060331A46BB689B0013447B617B691B684F
:100E580023F080727B681A437B691A6000BF1C37D5
:100E6800BD465DF8047B704780B487B000AFF8607A
:100E7800B9607A60FB6860331A46BB689B0013440C
:100E88007B617B691B6823F000727B681A437B696E
:100E98001A6000BF1C37BD465DF8047B704780B4FC
:100EA80083B000AF786039607B685B6923F00042EB
:100EB8003B681A437B685A6100BF0C37BD465DF832
:100EC800047B704780B487B000AFF860B9607A607F
:100ED800FB6830331A46BB681B0A9B0003F00C03FF
:100EE80013447B617B691A68BB6803F01F031F21E9
:100EF80001FA03F3DB431A407B689B0E03F01F01E2
:100F0800BB6803F01F0301FA03F31A437B691A60F5
:100F180000BF1C37BD465DF8047B704780B487B0BE
:100F280000AFF860B9607A60FB6814331A46BB6892
:100F38005B0E9B0003F0040313447B617B691A6812
:100F4800BB681B0D03F01F03072101FA03F3DB4302
:100F58001A40BB681B0D03F01F03796801FA03F3FD
:100F68001A437B691A6000BF1C37BD465DF8047BD5
:100F78007047000080B485B000AFF860B9607A604F
:100F8800FB68D3F8B020BB68C3F31203DB431A40F5
:100F98007B6803F018030849D940BB680B40C3F3CA
:100FA80012031A43FB68C3F8B02000BF1437BD46CC
:100FB8005DF8047B704700BFFFFF070080B483B073
:100FC80000AF78607B689B6823F0204323F03F03E1
:100FD8007A68936000BF0C37BD465DF8047B7047A4
:100FE80080B483B000AF78607B689B6803F00053DF
:100FF800B3F1005F01D1012300E0002318460C374C
:10100800BD465DF8047B704780B483B000AF78605C
:101018007B689B6823F0104323F03F0343F0805222
:101028007B689A6000BF0C37BD465DF8047B70474B
:1010380080B483B000AF78607B689B6803F080530E
:10104800B3F1805F01D1012300E0002318460C377B
:10105800BD465DF8047B704780B483B000AF78600C
:101068007B689B6803F00103012B01D1012300E099
:10107800002318460C37BD465DF8047B704780B4E2
:1010880083B000AF78607B689B6803F00403042B8F
:1010980001D1012300E0002318460C37BD465DF856
:1010A800047B704780B483B000AF78607B689B682E
:1010B80003F00803082B01D1012300E000231846A0
:1010C8000C37BD465DF8047B7047000090B589B0C9
:1010D80000AF78600023FB770023FB607B68002B60
:1010E80001D10123A9E17B685B69002B7B68DB6D7B
:1010F800002B09D17868FFF77BFA7B6800221A6613
:101108007B68002283F858207B681B681846FFF725
:1011180067FF0346002B04D07B681B681846FFF75F
:101128004DFF7B681B681846FFF782FF0346002BBC
:1011380015D17B681B681846FFF766FF9C4B1B6838
:101148009B099C4AA2FB03239B0901335B00FB60BC
:1011580002E0FB68013BFB60FB68002BF9D17B6870
:101168001B681846FFF764FF0346002B0DD17B6808
:10117800DB6D43F010027B68DA657B681B6E43F019
:1011880001027B681A660123FB777B681B68184697
:10119800FFF775FF78617B68DB6D03F01003002BA8
:1011A80040F042817B69002B40F03E817B68DB6D1B
:1011B80023F4817343F002027B68DA657B681B685D
:1011C8001846FFF749FF0346002B41D17B681B688F
:1011D800B3F1A04F04D07B681B68774A93420FD1C4
:1011E8004FF0A040FFF738FF04467348FFF734FF7D
:1011F80003462343002B0CBF01230023DBB212E07C
:101208006E48FFF729FF04466D48FFF725FF0346A0
:101218001C436C48FFF720FF03462343002B0CBFF9
:1012280001230023DBB2002B12D07B681B68B3F1CB
:10123800A04F04D07B681B685F4A934201D1624A81
:1012480000E0624A7B685B6819461046FFF768FD54
:101258007B685B7F5A037B68DB6B1A437B68DB68C0
:101268001A437B689B681A437B6893F824301B04F5
:101278001343BB617B6893F82430012B06D17B684C
:101288009B6A013B5B04BA691343BB617B68DB6AF9
:10129800002B09D07B68DB6A03F478727B681B6BD0
:1012A8001343BA691343BB617B681B68DA68484B10
:1012B80013407A681268B9690B43D3607B681B686E
:1012C8001B6923F040617B685A6B7B681B680A4383
:1012D8001A617B681B681846FFF7E4FE38617B6972
:1012E800002B7FD13B69002B7CD17B681B7F9A0345
:1012F8007B6893F838305B001343BB617B681B68DD
:10130800DB6823F4804323F002037A681268B96922
:101318000B43D3607B681B69002B17D07B681B6865
:101328001A697B681B6842F480321A617B681B6803
:10133800D3F8C03023F47F5323F03F037A68116950
:101348007A6812680B43C2F8C03013E07B681B68E8
:101358001A697B681B6822F480321A617B681B68F3
:10136800D3F8C0307A68126823F47F5323F03F0320
:10137800C2F8C0307B6893F84030012B2AD17B68D3
:101388001B681B6923F4FF6323F004037A68516C1C
:101398007A68926C11437A68D26C11437A68126D3C
:1013A8000A431A437B681B6842F001021A6119E07C
:1013B80008000020632D3E05000100500004005085
:1013C80000050050000600500003005000070050C0
:1013D8000740F0FF7B681B681A697B681B6822F06E
:1013E80001021A617B685B69012B0CD17B681B6861
:1013F8001B6B23F00F017B681B6A5A1E7B681B68F6
:101408000A431A6307E07B681B681A6B7B681B68D2
:1014180022F00F021A637B68DB6D23F0030343F0AD
:1014280001027B68DA6507E07B68DB6D43F0100238
:101438007B68DA650123FB77FB7F18462437BD46B6
:1014480090BD00BF80B5B6B000AF786039600023AA
:1014580087F8D7300023FB607B6893F85830012B5E
:1014680002D1022300F013BC7B68012283F85820C4
:101478007B681B681846FFF702FE0346002B40F006
:10148800F3837B6818683B6859683B681B681A4691
:10149800FFF718FD7B681B681846FFF7F0FDC7F8D3
:1014A800D0007B681B681846FFF7FCFDC7F8CC0026
:1014B800D7F8D030002B40F0D981D7F8CC30002BAA
:1014C80040F0D4813B689B68B3F1004F0FD17B6833
:1014D80018683B681B6800221946FFF71FFD7B68E8
:1014E8001B684FF000411846FFF7D9FC0EE07B68F7
:1014F80018683B6819683B689B681A46FFF70EFD39
:101508007B681B6800211846FFF7C9FC3B685A69CD
:101518007B681B68DB68DB0803F003035B0002FAE7
:1015280003F3C7F8C8303B681B69042B22D07B68DB
:1015380018683B6819693B681A68D7F8C830FFF71C
:1015480023FC7B6818683B6819693B689B691A46E5
:10155800FFF76FFC7B6818683B6819693B681B7F5D
:10156800012B02D14FF0007300E000231A46FFF769
:101578007BFC7BE17B681B6800211846FFF728FC91
:101588000346C3F31203002B0AD17B681B680021B2
:101598001846FFF71DFC03469B0E03F01F021EE0D2
:1015A8007B681B6800211846FFF712FC0346C7F842
:1015B800BC30D7F8BC3093FAA3F3C7F8C030D7F8DB
:1015C800C030C7F8B830D7F8B830002B01D1202385
:1015D80004E0D7F8B830B3FA83F3DBB21A463B68B5
:1015E8001B68C3F31203002B05D13B681B689B0ED5
:1015F80003F01F0318E03B681B68C7F8B030D7F842
:10160800B03093FAA3F3C7F8AC30D7F8AC30C7F8CA
:10161800B430D7F8B430002B01D1202304E0D7F838
:10162800B430B3FA83F3DBB29A4206D17B681B6805
:10163800002200211846FFF7E1FB7B681B680121A7
:101648001846FFF7C5FB0346C3F31203002B0AD164
:101658007B681B6801211846FFF7BAFB03469B0EFF
:1016680003F01F021EE07B681B6801211846FFF784
:10167800AFFB0346C7F8A430D7F8A43093FAA3F316
:10168800C7F8A030D7F8A030C7F8A830D7F8A830E6
:10169800002B01D1202304E0D7F8A830B3FA83F354
:1016A800DBB21A463B681B68C3F31203002B05D153
:1016B8003B681B689B0E03F01F0318E03B681B6820
:1016C800C7F89830D7F8983093FAA3F3C7F894304E
:1016D800D7F89430C7F89C30D7F89C30002B01D14C
:1016E800202304E0D7F89C30B3FA83F3DBB29A42A4
:1016F80006D17B681B68002201211846FFF77EFB94
:101708007B681B6802211846FFF762FB0346C3F398
:101718001203002B0AD17B681B6802211846FFF7C9
:1017280057FB03469B0E03F01F021EE07B681B68F5
:1017380002211846FFF74CFB0346C7F88C30D7F850
:101748008C3093FAA3F3C7F88830D7F88830C7F8F5
:101758009030D7F89030002B01D1202304E0D7F83F
:101768009030B3FA83F3DBB21A463B681B68C3F3C5
:101778001203002B05D13B681B689B0E03F01F0367
:1017880016E03B681B68C7F88030D7F8803093FABA
:10179800A3F3FB67FB6FC7F88430D7F88430002BBE
:1017A80001D1202304E0D7F88430B3FA83F3DBB205
:1017B8009A4206D17B681B68002202211846FFF76F
:1017C8001DFB7B681B6803211846FFF701FB0346D6
:1017D800C3F31203002B0AD17B681B680321184648
:1017E800FFF7F6FA03469B0E03F01F0217E07B682B
:1017F8001B6803211846FFF7EBFA03467B677B6FEC
:1018080093FAA3F33B673B6FBB67BB6F002B01D118
:10181800202303E0BB6FB3FA83F3DBB21A463B68BD
:101828001B68C3F31203002B05D13B681B689B0E92
:1018380003F01F0311E03B681B68BB66BB6E93FA9D
:10184800A3F37B667B6EFB66FB6E002B01D1202326
:1018580003E0FB6EB3FA83F3DBB29A4206D17B68EE
:101868001B68002203211846FFF7C8FA7B681B682B
:101878001846FFF7F1FB0346002B40F03D817B68DB
:1018880018683B6819683B68DB681A46FFF772FB03
:101898003B68DB68A24A934240F02E817B68186857
:1018A8003B681B68C3F31203002B0BD13B681B6812
:1018B8009B0E013303F01F03092B94BF0123002360
:1018C800DBB219E03B681B68FB65FB6D93FAA3F379
:1018D800BB65BB6D3B663B6E002B01D1202303E04B
:1018E8003B6EB3FA83F3DBB2013303F01F03092B1A
:1018F80094BF01230023DBB2002B79D03B681B681F
:10190800C3F31203002B07D13B681B689B0E0133FE
:101918009B0603F0F84215E03B681B683B653B6D8E
:1019280093FAA3F3FB64FB6C7B657B6D002B01D101
:10193800202303E07B6DB3FA83F3DBB201339B060C
:1019480003F0F8423B681B68C3F31203002B09D16C
:101958003B681B689B0E013303F01F03012101FA4A
:1019680003F317E03B681B687B647B6C93FAA3F373
:101978003B643B6CBB64BB6C002B01D1202303E0B0
:10198800BB6CB3FA83F3DBB2013303F01F0301210D
:1019980001FA03F342EA03013B681B68C3F312032D
:1019A800002B0AD13B681B689B0E013303F01F0212
:1019B80013465B0013441B0518E03B681B68BB63B8
:1019C800BB6B93FAA3F37B637B6BFB63FB6B002B13
:1019D80001D1202303E0FB6BB3FA83F3DBB20133BD
:1019E80003F01F0213465B0013441B050B437EE004
:1019F8003B681B68C3F31203002B07D13B681B68C5
:101A08009B0E01339B0603F0F84215E03B681B6808
:101A1800FB62FB6A93FAA3F3BB62BB6A3B633B6B53
:101A2800002B01D1202303E03B6BB3FA83F3DBB235
:101A380001339B0603F0F8423B681B68C3F31203AB
:101A4800002B09D13B681B689B0E013303F01F0371
:101A5800012101FA03F317E03B681B683B623B6A0C
:101A680093FAA3F3FB61FB697B627B6A002B01D1CC
:101A7800202303E07B6AB3FA83F3DBB2013303F07C
:101A88001F03012101FA03F342EA03013B681B68C3
:101A9800C3F31203002B0DD13B681B689B0E013367
:101AA80003F01F0213465B0013441E3B1B0543F063
:101AB80000731BE03B681B687B617B6993FAA3F3A7
:101AC8003B613B69BB61BB69002B01D1202303E06B
:101AD800BB69B3FA83F3DBB2013303F01F02134689
:101AE8005B0013441E3B1B0543F000730B433A682D
:101AF80092681946FFF712FA3B681A68094B1340B7
:101B0800002B00F0BE807B681B68B3F1A04F04D0A7
:101B18007B681B68044A93420AD1044B09E000BF62
:101B280000007F40000008800001005000030050C2
:101B3800594B1846FFF71AF9C7F8C4003B681B68E9
:101B4800564A934204D03B681B68554A93423AD19F
:101B5800D7F8C43003F40003002B34D17B681B682A
:101B6800B3F1A04F05D07B681B684E4A934240F002
:101B780085807B681B68B3F1A04F04D07B681B6825
:101B8800494A934201D1494A00E0434AD7F8C43050
:101B980043F4000319461046FFF7D5F8444B1B6879
:101BA8009B09444AA2FB03239B095A1C13465B006A
:101BB80013449B00FB6002E0FB68013BFB60FB6891
:101BC800002BF9D15AE03B681B683B4A934225D168
:101BD800D7F8C43003F08073002B1FD17B681B68D3
:101BE800314A934204D17B681B68344A934247D0F8
:101BF8007B681B68B3F1A04F04D07B681B682A4A36
:101C0800934201D1294A00E0234AD7F8C43043F06F
:101C1800807319461046FFF796F831E03B681B6859
:101C2800274A93422DD1D7F8C43003F48003002B00
:101C380027D17B681B681C4A934222D07B681B68AB
:101C4800B3F1A04F04D07B681B68174A934201D1B7
:101C5800164A00E0104AD7F8C43043F48003194606
:101C68001046FFF770F80CE07B68DB6D43F020024C
:101C78007B68DA65012387F8D73002E000BF00E00F
:101C880000BF7B68002283F8582097F8D7301846A1
:101C9800D837BD4680BD00BF00070050000021C3F3
:101CA8001000C090000600500001005000030050D2
:101CB80008000020632D3E05000052C700050050B3
:101CC800000084CB80B483B000AF78607B689B68E9
:101CD80003F00103012B01D1012300E00023184682
:101CE8000C37BD465DF8047B704780B483B000AF05
:101CF80078607B689B6803F00403042B01D10123FF
:101D080000E0002318460C37BD465DF8047B704799
:101D180090B5A1B000AF78603960002387F87F30B4
:101D28007B6893F85830012B01D10223E7E07B68E8
:101D3800012283F8582000237B660023BB667B685A
:101D48001B68B3F1A04F02D16F4BBB6009E07B6801
:101D58001B686E4A934202D16D4BBB6001E00023C1
:101D6800BB60BB68002B0BD17B68DB6D43F02002A6
:101D78007B68DA657B68002283F858200123BEE07F
:101D8800BB681846FFF7B1FFB8677B681B68184641
:101D9800FFF7ABFF0346002B40F0A080BB6F002B82
:101DA80040F09C807B681B68B3F1A04F04D07B682F
:101DB8001B68554A934201D1564B00E0564B7B674E
:101DC8003B681B68002B4BD07B6F9B6823F46042F9
:101DD8003B6859687B6893F838305B030B431A43B8
:101DE8007B6F9A607B681B68B3F1A04F04D07B6857
:101DF8001B68454A93420FD14FF0A040FFF762FF9E
:101E080004464148FFF75EFF03462343002B0CBFFF
:101E180001230023DBB212E03C48FFF753FF0446DE
:101E28003B48FFF74FFF03461C433C48FFF74AFF78
:101E380003462343002B0CBF01230023DBB2002BF6
:101E480056D07B6F9B6823F4716323F00F033A68C5
:101E580011683A6892680A431A437B6F9A6047E0B0
:101E68007B6F9B6823F460427B6F9A607B681B687A
:101E7800B3F1A04F04D07B681B68234A93420FD16B
:101E88004FF0A040FFF71EFF04461F48FFF71AFF58
:101E980003462343002B0CBF01230023DBB212E0CF
:101EA8001A48FFF70FFF04461948FFF70BFF0346D0
:101EB8001C431A48FFF706FF03462343002B0CBFB9
:101EC80001230023DBB2002B12D07B6F9B6823F425
:101ED800716323F00F037A6F936009E07B68DB6D11
:101EE80043F020027B68DA65012387F87F3000E041
:101EF80000BF7B68002283F8582097F87F30184687
:101F08008437BD4690BD00BF00010050000400505A
:101F18000005005000030050000700500006005064
:101F280080B582B000AF0023FB71032001F06CFC88
:101F38000F2000F00DF80346002B02D00123FB719F
:101F480001E0FEF7C9FEFB7918460837BD4680BD9B
:101F580080B584B000AF78600023FB73164B1B6814
:101F6800002B22D0154B1A68134B1B684FF47A715B
:101F7800B1FBF3F3B2FBF3F3184601F078FC034628
:101F8800002B0FD17B680F2B09D8002279684FF0FE
:101F9800FF3001F044FC0A4A7B68136007E0012324
:101FA800FB7304E00123FB7301E00123FB73FB7B5C
:101FB80018461037BD4680BD0400002008000020E8
:101FC8000000002080B400AF054B1A68054B1B6861
:101FD8001344034A136000BFBD465DF8047B704795
:101FE800600200200400002080B400AF034B1B688F
:101FF8001846BD465DF8047B704700BF60020020AC
:1020080080B588B000AF78607B68002B01D10123D0
:10201800FEE27B681B6803F00103002B75D0974B29
:102028009B6803F00C03BB61944BDB6803F003036C
:102038007B61BB690C2B02D17B69032B02D0BB6986
:10204800082B0BD18D4B1B6803F40033002B5BD09E
:102058007B685B68002B57D10123D9E27B685B68FA
:10206800B3F5803F06D1854B1B68844A43F480331F
:1020780013601DE07B685B68B3F5A02F0CD17F4B24
:102088001B687E4A43F4802313607C4B1B687B4AA1
:1020980043F4803313600BE0784B1B68774A23F4D2
:1020A80080331360754B1B68744A23F480231360D4
:1020B8007B685B68002B13D0FFF796FF386108E058
:1020C800FFF792FF02463B69D31A642B01D9032319
:1020D8009EE26A4B1B6803F40033002BF0D014E037
:1020E800FFF782FF386108E0FFF77EFF02463B6991
:1020F800D31A642B01D903238AE2604B1B6803F4CB
:102108000033002BF0D100E000BF7B681B6803F0B0
:102118000203002B75D0594B9B6803F00C03BB617D
:10212800564BDB6803F003037B61BB690C2B02D1C0
:102138007B69022B02D0BB69042B1FD14F4B1B6854
:1021480003F48063002B05D07B68DB68002B01D18A
:1021580001235DE2494B5B6823F0FE427B681B6903
:102168001B06464913434B60454B1B681846FFF74F
:10217800EFFE0346002B43D0012349E27B68DB686E
:10218800002B23D03D4B1B683C4A43F480731360FB
:10219800FFF72AFF386108E0FFF726FF02463B6990
:1021A800D31A022B01D9032332E2344B1B6803F400
:1021B8008063002BF0D0314B5B6823F0FE427B68D4
:1021C8001B691B062D4913434B601AE02B4B1B68F8
:1021D8002A4A23F480731360FFF706FF386108E08A
:1021E800FFF702FF02463B69D31A022B01D90323EA
:1021F8000EE2224B1B6803F48063002BF0D100E051
:1022080000BF7B681B6803F00803002B41D07B6884
:102218005B69002B1CD0194BD3F89430174A43F054
:102228000103C2F89430FFF7DFFE386108E0FFF7DA
:10223800DBFE02463B69D31A022B01D90323E7E1EF
:102248000E4BD3F8943003F00203002BEFD020E0BC
:102258000A4BD3F89430094A23F00103C2F89430AA
:10226800FFF7C2FE38610DE0FFF7BEFE02463B698C
:10227800D31A022B06D90323CAE100BF001002407B
:10228800000000208C4BD3F8943003F00203002B9D
:10229800EAD17B681B6803F00403002B00F0A680DA
:1022A8000023FB77844B9B6D03F08053002B01D1F7
:1022B800012300E00023002B0DD07F4B9B6D7E4A4D
:1022C80043F0805393657C4B9B6D03F08053FB6018
:1022D800FB680123FB77794B1B6803F48073002BA1
:1022E80018D1764B1B68754A43F480731360FFF767
:1022F8007BFE386108E0FFF777FE02463B69D31A98
:10230800022B01D9032383E16C4B1B6803F4807310
:10231800002BF0D07B689B68012B08D1664BD3F863
:102328009030654A43F00103C2F8903024E07B689E
:102338009B68052B10D1604BD3F890305E4A43F070
:102348000403C2F890305C4BD3F890305A4A43F0FB
:102358000103C2F890300FE0574BD3F89030564A3B
:1023680023F00103C2F89030534BD3F89030524A0F
:1023780023F00403C2F890307B689B68002B16D0CA
:10238800FFF732FE38610AE0FFF72EFE02463B698E
:10239800D31A41F28832934201D9032338E1464BDC
:1023A800D3F8903003F00203002BEDD015E0FFF7CF
:1023B8001BFE38610AE0FFF717FE02463B69D31A95
:1023C80041F28832934201D9032321E13A4BD3F8F1
:1023D800903003F00203002BEDD1FB7F012B05D1D8
:1023E800354B9B6D344A23F0805393657B681B689B
:1023F80003F02003002B3CD07B689B69002B1CD08A
:102408002D4BD3F898302C4A43F00103C2F898308A
:10241800FFF7EAFD386108E0FFF7E6FD02463B6991
:10242800D31A022B01D90323F2E0234BD3F89830B7
:1024380003F00203002BEFD01BE01F4BD3F89830BA
:102448001D4A23F00103C2F89830FFF7CDFD38612B
:1024580008E0FFF7C9FD02463B69D31A022B01D9F0
:102468000323D5E0144BD3F8983003F00203002B74
:10247800EFD17B68DB69002B00F0C9800E4B9B68AD
:1024880003F00C030C2B00F083807B68DB69022BC4
:102498005ED1094B1B68084A23F080731360FFF76D
:1024A800A3FD38610CE0FFF79FFD02463B69D31A94
:1024B800022B05D90323ABE0001002400070004056
:1024C800554B1B6803F00073002BECD1524BDA68B4
:1024D800524B13407A68116A7A68526A013A1201BB
:1024E80011437A68926A120211437A68126B520891
:1024F800013A520511437A68526B5208013A520662
:1025080011437A68D26AD2060A4343491343CB601F
:10251800414B1B68404A43F0807313603E4BDB68B5
:102528003D4A43F08073D360FFF75EFD386108E0F1
:10253800FFF75AFD02463B69D31A022B01D9032340
:1025480066E0354B1B6803F00073002BF0D05EE0AB
:10255800314B1B68304A23F080731360FFF744FD4A
:10256800386108E0FFF740FD02463B69D31A022BA9
:1025780001D903234CE0284B1B6803F00073002BA0
:10258800F0D1254BDA682449254B1340CB603EE057
:102598007B68DB69012B01D1012339E01E4BDB6825
:1025A8007B617B6903F003027B681B6A9A422CD12A
:1025B8007B6903F0F0027B685B6A013B1B019A426E
:1025C80023D17B6903F4FE427B689B6A1B029A4213
:1025D8001BD17B6903F078427B68DB6ADB069A4291
:1025E80013D17B6903F4C0027B681B6B5B08013B5A
:1025F8005B059A4209D17B6903F0C0627B685B6B1B
:102608005B08013B5B069A4201D0012300E00023EE
:1026180018462037BD4680BD001002400C809F013F
:10262800FCFFEEFE80B586B000AF7860396000230D
:102638007B617B68002B01D101231EE1914B1B6854
:1026480003F00F033A689A4210D98E4B1B6823F0A7
:102658000F028C493B6813430B608A4B1B6803F0DD
:102668000F033A689A4201D0012306E17B681B6890
:1026780003F00103002B73D07B685B68032B29D11F
:10268800814B1B6803F00073002B01D10123F4E098
:1026980000F066F938613B697C4A93423FD97A4B2E
:1026A8009B6803F0F003002B09D07B681B6803F0DC
:1026B8000203002B33D07B689B68002B2FD1724B11
:1026C8009B6823F0F003704A43F0800393608023F3
:1026D8007B6124E07B685B68022B07D16A4B1B682F
:1026E80003F40033002B09D10123C6E0664B1B68B5
:1026F80003F48063002B01D10123BEE000F0CEF883
:1027080038613B69614A934209D95F4B9B6823F062
:10271800F0035D4A43F08003936080237B615A4B4A
:102728009B6823F003027B685B68574913438B60FF
:10273800FFF75AFCF8600AE0FFF756FC0246FB6810
:10274800D31A41F28832934201D9032395E04E4BC4
:102758009B6803F00C027B685B689B009A42EBD194
:102768007B681B6803F00203002B23D07B681B687F
:1027780003F00403002B05D0434B9B68424A43F403
:10278800E06393607B681B6803F00803002B07D0A5
:102798003D4B9B6823F47C533B4A43F4E0639360CE
:1027A800394B9B6823F0F0027B689B6836491343DA
:1027B8008B6008E07B69802B05D1334B9B68324ADC
:1027C80023F0F00393602F4B1B6803F00F033A6864
:1027D8009A421DD22B4B1B6823F00F0229493B68F4
:1027E80013430B60FFF700FCF8600AE0FFF7FCFBFF
:1027F8000246FB68D31A41F28832934201D9032377
:102808003BE0204B1B6803F00F033A689A42EDD176
:102818007B681B6803F00403002B08D01A4B9B68E5
:1028280023F4E0627B68DB68174913438B607B689D
:102838001B6803F00803002B09D0134B9B6823F493
:1028480060527B681B69DB000F4913438B6000F003
:1028580025F802460C4B9B681B0903F00F030C4933
:10286800CB5C03F01F0322FA03F30A4A13600A4BF6
:102878001B681846FFF76CFB034618461837BD4619
:1028880080BD00BF002002400010024000B4C40414
:10289800E44F0008080000200000002080B487B042
:1028A80000AF2C4B9B6803F00C03042B02D12A4B7E
:1028B8003B6147E0274B9B6803F00C03082B02D1D0
:1028C800264B3B613EE0234B9B6803F00C030C2B2B
:1028D80036D1204BDB6803F00303FB601D4BDB683C
:1028E8001B0903F00F030133BB60FB68032B0CD1FA
:1028F8001A4ABB68B2FBF3F3164AD268120A02F00E
:102908007F0202FB03F37B610CE0134ABB68B2FB56
:10291800F3F3104AD268120A02F07F0202FB03F3B3
:102928007B6100BF0B4BDB685B0E03F003030133D5
:102938005B007B607A697B68B2FBF3F33B6101E083
:1029480000233B613B6918461C37BD465DF8047B94
:10295800704700BF001002400024F40000127A0003
:1029680080B487B000AF1E4BDB6803F003033B6104
:102978001B4BDB681B0903F00F030133FB603B694A
:10298800032B0CD1174AFB68B2FBF3F3144AD26845
:10299800120A02F07F0202FB03F37B610CE0124A89
:1029A800FB68B2FBF3F30E4AD268120A02F07F0208
:1029B80002FB03F37B6100BF094BDB685B0E03F08E
:1029C800030301335B00BB607A69BB68B2FBF3F3B6
:1029D8007B607B6818461C37BD465DF8047B7047F2
:1029E8000010024000127A000024F40080B586B07E
:1029F80000AF78600023FB740023BB747B681B68FE
:102A080003F40023002B00F0988000237B74434BD1
:102A18009B6D03F08053002B0DD1404B9B6D3F4ABB
:102A280043F0805393653D4B9B6D03F08053BB602F
:102A3800BB6801237B743A4B1B68394A43F48073A3
:102A48001360FFF7D1FAF86009E0FFF7CDFA024604
:102A5800FB68D31A022B02D90323FB7405E0304B21
:102A68001B6803F48073002BEFD0FB7C002B59D13B
:102A78002A4BD3F8903003F440737B617B69002BB9
:102A88001ED07B681B6D7A699A4219D0234BD3F804
:102A9800903023F440737B61204BD3F890301F4A69
:102AA80043F48033C2F890301C4BD3F890301B4A63
:102AB80023F48033C2F89030184A7B69C2F890300A
:102AC8007B6903F00103002B16D0FFF78DFAF8603D
:102AD8000BE0FFF789FA0246FB68D31A41F2883205
:102AE800934202D90323FB7406E00C4BD3F89030D1
:102AF80003F00203002BECD0FB7C002B0BD1074B1F
:102B0800D3F8903023F440727B681B6D034913435C
:102B1800C1F8903008E0FB7CBB7405E0001002406F
:102B280000700040FB7CBB747B7C012B05D1A74B5C
:102B38009B6DA64A23F0805393657B681B6803F05E
:102B48000103002B0AD0A14BD3F8883023F00302ED
:102B58007B685B689D491343C1F888307B681B68B4
:102B680003F00203002B0AD0984BD3F8883023F0E7
:102B78000C027B689B6895491343C1F888307B68D1
:102B88001B6803F00403002B0AD0904BD3F888305D
:102B980023F030027B68DB688C491343C1F8883026
:102BA8007B681B6803F00803002B0AD0874BD3F817
:102BB800883023F0C0027B681B6984491343C1F83D
:102BC80088307B681B6803F01003002B0AD07F4B0A
:102BD800D3F8883023F440727B685B697B491343E0
:102BE800C1F888307B681B6803F02003002B0AD0EB
:102BF800764BD3F8883023F440627B689B6973492D
:102C08001343C1F888307B681B6803F04003002B2E
:102C18000AD06E4BD3F8883023F440527B68DB69C6
:102C28006A491343C1F888307B681B6803F0800346
:102C3800002B0AD0654BD3F8883023F440427B68D8
:102C48001B6A62491343C1F888307B681B6803F428
:102C58008073002B0AD05D4BD3F8883023F44032C0
:102C68007B685B6A59491343C1F888307B681B68E5
:102C780003F40033002B0AD0544BD3F89C3023F0D4
:102C880003027B689B6A51491343C1F89C307B68F7
:102C98001B6803F40073002B0AD04C4BD3F8883020
:102CA80023F440227B68DB6A48491343C1F8883023
:102CB8007B681B6803F48063002B15D0434BD3F863
:102CC800883023F440127B681B6B40491343C1F8DA
:102CD80088307B681B6BB3F5801F05D13B4BDB68E5
:102CE8003A4A43F48013D3607B681B6803F400639B
:102CF800002B15D0354BD3F8883023F440027B687D
:102D08005B6B32491343C1F888307B685B6BB3F562
:102D1800800F05D12D4BDB682C4A43F48013D36018
:102D28007B681B6803F48053002B15D0274BD3F81E
:102D3800883023F040727B689B6B24491343C1F8A9
:102D480088307B689B6BB3F1807F05D11F4BDB68B4
:102D58001E4A43F48013D3607B681B6803F4005356
:102D6800002B15D0194BD3F8883023F040627B68CC
:102D7800DB6B16491343C1F888307B68DB6BB3F112
:102D8800006F05D1114BDB68104A43F48013D36000
:102D98007B681B6803F48043002B19D00B4BD3F8D6
:102DA800883023F040627B681B6C08491343C1F8E4
:102DB80088307B681B6CB3F1006F09D1034BDB686B
:102DC800024A43F48013D36002E000BF00100240BF
:102DD8007B681B6803F40043002B15D0294BD3F8FC
:102DE800883023F040527B685B6C26491343C1F856
:102DF80088307B685B6CB3F1805F05D1214BDB6861
:102E0800204A43F48033D3607B681B6803F4803323
:102E1800002B15D01B4BD3F8883023F040427B6839
:102E28009B6C18491343C1F888307B689B6CB3F1DD
:102E3800804F05D1134BDB68124A43F48033D360CB
:102E48007B681B6803F48023002B15D00D4BD3F847
:102E58009C3023F440127B68DB6C0A491343C1F8A9
:102E68009C307B68DB6CB3F5001F05D1054BDB6834
:102E7800044A43F48013D360BB7C18461837BD4618
:102E880080BD00BF0010024080B487B000AF7860FA
:102E9800396000237B615AE13B681A6801217B692C
:102EA80001FA03F31340FB60FB68002B00F04C8130
:102EB8003B685B6803F00303012B05D03B685B6844
:102EC80003F00303022B30D17B689B683B617B696D
:102ED8005B00032202FA03F3DB433A6913403B61C8
:102EE8003B68DA687B695B0002FA03F33A691343CB
:102EF8003B617B683A699A607B685B683B61012249
:102F08007B6902FA03F3DB433A6913403B613B6890
:102F18005B681B0903F001027B6902FA03F33A6953
:102F280013433B617B683A695A603B685B6803F00E
:102F38000303032B17D07B68DB683B617B695B006D
:102F4800032202FA03F3DB433A6913403B613B680F
:102F58009A687B695B0002FA03F33A6913433B61A1
:102F68007B683A69DA603B685B6803F00303022B0D
:102F780023D17B69DA087B68083253F822303B6139
:102F88007B6903F007039B000F2202FA03F3DB437C
:102F98003A6913403B613B681A697B6903F0070390
:102FA8009B0002FA03F33A6913433B617B69DA0831
:102FB8007B680832396943F822107B681B683B61DB
:102FC8007B695B00032202FA03F3DB433A6913408F
:102FD8003B613B685B6803F003027B695B0002FAB4
:102FE80003F33A6913433B617B683A691A603B68AB
:102FF8005B6803F44033002B00F0A6805B4B1B6E2C
:103008005A4A43F001031366584B1B6E03F0010341
:10301800BB60BB68564A7B699B08023352F8233071
:103028003B617B6903F003039B000F2202FA03F361
:10303800DB433A6913403B617B68B3F1904F1FD083
:103048007B684C4A934219D07B684B4A934213D011
:103058007B684A4A93420DD07B68494A934207D01D
:103068007B68484A934201D105230AE0062308E019
:10307800042306E0032304E0022302E0012300E026
:1030880000237A6902F00302920093403A691343DD
:103098003B6137497B699B0802333A6941F8232031
:1030A800394B9B683B61FB68DB433A6913403B61E2
:1030B8003B685B6803F48013002B03D03A69FB6814
:1030C80013433B61304A3B6993602F4BDB683B619C
:1030D800FB68DB433A6913403B613B685B6803F478
:1030E8000013002B03D03A69FB6813433B61264A5F
:1030F8003B69D360244B5B683B61FB68DB433A69FF
:1031080013403B613B685B6803F40033002B03D03A
:103118003A69FB6813433B611B4A3B6953601A4B8E
:103128001B683B61FB68DB433A6913403B613B68C2
:103138005B6803F48033002B03D03A69FB681343C0
:103148003B61114A3B6913607B6901337B613B68D2
:103158001A687B6922FA03F3002B7FF49DAE00BF47
:1031680000BF1C37BD465DF8047B70470010024065
:10317800000001400004004800080048000C004816
:1031880000100048001400480004014080B584B0D5
:1031980000AF78607B68002B01D101238DE07B684C
:1031A8001B681A46474B9A420FD87B681B681A4619
:1031B800454B1344454AA2FB03231B099A007B682D
:1031C8005A647B68424A1A640EE07B681B681A4698
:1031D800404B13443D4AA2FB03231B099A007B681A
:1031E8005A647B683C4A1A647B68022283F825206B
:1031F8007B681B681B68FB60FB6823F4FF4323F0B4
:103208007003FB607B689A687B68DB681A437B689D
:103218001B691A437B685B691A437B689B691A437D
:103228007B68DB691A437B681B6A1343FA6813439C
:10323800FB607B681B68FA681A60786800F0FEF823
:103248007B689B68B3F5804F02D17B6800225A6087
:103258007B685A687B689B6CD2B21A607B68DB6CAF
:103268007A68126D5A607B685B68002B10D07B68A7
:103278005B68042B0CD8786800F01EF97B685B6DDE
:1032880000221A607B689B6D7A68D26D5A6008E0EC
:103298007B6800225A657B6800229A657B68002259
:1032A800DA657B680022DA637B68012283F82520CF
:1032B8007B68002283F82420002318461037BD4677
:1032C80080BD00BF07040240F8FFFDBFCDCCCCCCC9
:1032D80000000240F8FBFDBF0004024080B584B046
:1032E80000AF78607B681B6C1B68FB607B681B68A1
:1032F8001B68BB607B685B6C03F01F0304229A4069
:10330800FB681340002B26D0BB6803F00403002B96
:1033180021D07B681B681B6803F02003002B07D1B2
:103328007B681B681A687B681B6822F004021A60B5
:103338007B685B6C03F01F027B681B6C042101FA3D
:1033480002F25A607B681B6B002B71D07B681B6B89
:10335800786898476CE07B685B6C03F01F03022277
:103368009A40FB681340002B2ED0BB6803F0020381
:10337800002B29D07B681B681B6803F02003002BF7
:103388000BD17B681B681A687B681B6822F00A02ED
:103398001A607B68012283F825207B685B6C03F048
:1033A8001F027B681B6C022101FA02F25A607B68DB
:1033B800002283F824207B68DB6A002B38D07B68E6
:1033C800DB6A7868984733E07B685B6C03F01F031F
:1033D80008229A40FB681340002B2AD0BB6803F0F0
:1033E8000803002B25D07B681B681A687B681B685C
:1033F80022F00E021A607B685B6C03F01F027B6888
:103408001B6C012101FA02F25A607B680122DA631F
:103418007B68012283F825207B68002283F824201A
:103428007B685B6B002B04D07B685B6B7868984784
:1034380000BF00BF1037BD4680BD000080B487B014
:1034480000AF78607B681B681A46164B9A4202D810
:10345800154B7B6101E0154B7B617B693B617B68A8
:103468001B68DBB2083B124AA2FB03231B09FB6063
:103478007B685B6C9B089A003B6913441A467B681F
:103488009A647B680B4ADA64FB6803F01F03012225
:103498009A407B681A6500BF1C37BD465DF8047BFF
:1034A800704700BF0704024000080240200802409D
:1034B800CDCCCCCC8008024080B485B000AF786019
:1034C8007B685B68DBB2FB60FA680B4B13449B00BC
:1034D8001A467B685A657B68084A9A65FB68013B0F
:1034E80003F01F0301229A407B68DA6500BF143796
:1034F800BD465DF8047B70473F82001040090240DA
:1035080080B485B000AF78607B68002B41D14B4B0D
:103518001B6803F4C063B3F5806F31D1474BD3F810
:103528008030464A23F48073C2F88030434B1B68CE
:1035380023F4C063414A43F400731360404B1B6893
:10354800322202FB03F33F4AA2FB03239B0C013305
:10355800FB6002E0FB68013BFB60384B5B6903F4EE
:103568008063B3F5806F02D1FB68002BF2D1334B37
:103578005B6903F48063B3F5806F58D1032357E088
:103588002E4BD3F880302D4A23F48073C2F8803054
:103598004DE07B68B3F5007F41D1284B1B6803F4ED
:1035A800C063B3F5806F31D1244BD3F88030234A00
:1035B80043F48073C2F88030204B1B6823F4C06347
:1035C8001E4A43F4007313601D4B1B68322202FB32
:1035D80003F31C4AA2FB03239B0C0133FB6002E0AC
:1035E800FB68013BFB60154B5B6903F48063B3F533
:1035F800806F02D1FB68002BF2D1104B5B6903F49A
:103608008063B3F5806F12D1032311E00B4BD3F81D
:1036180080300A4A43F48073C2F8803007E0074BD1
:103628001B6823F4C063054A43F4806313600023D6
:1036380018461437BD465DF8047B7047007000409B
:103648000800002083DE1B4380B400AF054B9B6855
:10365800044A43F48043936000BFBD465DF8047B91
:10366800704700BF0070004080B485B000AF78603C
:103678007B6803F00703FB600C4BDB68BB60BA6830
:103688004FF6FF031340BB60FB681A02BB68134385
:1036980043F0BF6343F40033BB60044ABB68D360A4
:1036A80000BF1437BD465DF8047B704700ED00E0AD
:1036B80080B400AF044BDB681B0A03F0070318460D
:1036C800BD465DF8047B704700ED00E080B483B030
:1036D80000AF0346FB7197F90730002B0BDBFB7932
:1036E80003F01F02074997F907305B09012000FA28
:1036F80002F241F8232000BF0C37BD465DF8047B79
:10370800704700BF00E100E080B483B000AF03461B
:103718003960FB7197F90730002B0ADB3B68DAB296
:103728000C4997F907301201D2B20B4483F80023F1
:103738000AE03B68DAB20849FB7903F00F03043B5F
:103748001201D2B20B441A7600BF0C37BD465DF8A1
:10375800047B704700E100E000ED00E080B489B030
:1037680000AFF860B9607A60FB6803F00703FB619B
:10377800FB69C3F10703042B28BF0423BB61FB6962
:103788000433062B02D9FB69033B00E000237B616D
:103798004FF0FF32BB6902FA03F3DA43BB681A4001
:1037A8007B699A404FF0FF317B6901FA03F3D943F3
:1037B8007B680B40134318462437BD465DF8047BED
:1037C8007047000080B582B000AF78607B68013B2D
:1037D800B3F1807F01D301230FE00A4A7B68013BE4
:1037E80053600F214FF0FF30FFF78EFF054B00228B
:1037F8009A60044B07221A60002318460837BD4612
:1038080080BD00BF10E000E080B582B000AF7860F6
:103818007868FFF729FF00BF0837BD4680BD80B52F
:1038280086B000AF0346B9607A60FB73FFF740FFCC
:1038380078617A68B9687869FFF790FF024697F966
:103848000F3011461846FFF75FFF00BF1837BD4617
:1038580080BD80B582B000AF0346FB7197F9073091
:103868001846FFF733FF00BF0837BD4680BD80B557
:1038780082B000AF78607868FFF7A4FF0346184667
:103888000837BD4680BD000080B586B000AF7860BF
:103898007B68002B01D10123BEE07B68022283F8FC
:1038A800DD207B680022C3F8E0207B680022C3F893
:1038B800E4207B680022C3F8E8207B680022C3F874
:1038C800EC207B680022C3F8F0207B680022C3F854
:1038D800F4207B680022C3F8F8207B689B6803F01B
:1038E8000103002B2ED07B681B684D4A93420BD1F5
:1038F8004C4B1B6E4B4A43F080631366494B1B6E5F
:1039080003F08063FB60FB687B681B681B683B6196
:103918003B6923F440433B617B681B6903F44043E4
:103928003A6913433B613B6923F440533B617B682D
:103938005B6903F440533A6913433B617B681B6836
:103948003A691A607868FDF735F97B689B6803F077
:103958000203002B12D07B681B681B683B613B6924
:1039680023F440733B617B68DB6803F440733A6976
:1039780013433B617B681B683A691A607B680122C4
:1039880083F8DD207B68002283F8DC200023FB75A8
:103998003EE0FA7D79681346DB009B1A9B000B44D6
:1039A800183300221A60FA7D79681346DB009B1AE7
:1039B8009B000B441C3300221A60FA7D7968134679
:1039C800DB009B1A9B000B44203300221A60FA7D0F
:1039D80079681346DB009B1A9B000B4424330022B2
:1039E8001A60FA7D79681346DB009B1A9B000B442A
:1039F800283300221A60FA7D79681346DB009B1A87
:103A08009B000B44303300221A60FB7D0133FB75A9
:103A1800FB7D062BBDD9002318461837BD4680BD4F
:103A2800006801400010024080B483B000AF7860A5
:103A380039607B6893F8DC30012B01D1022345E023
:103A48007B68012283F8DC207B68022283F8DD2072
:103A58003B68B3F1FF3F14D17B681B68D3F8CC23D4
:103A68007B681B6822F00202C3F8CC237B681B68C2
:103A7800D3F8CC237B681B6842F00102C3F8CC233F
:103A88001FE07B681B68D3F8CC237B681B6842F077
:103A98000202C3F8CC237B681B68D3F8CC3323F02D
:103AA8000C017B681B683A680A43C3F8CC237B681F
:103AB8001B68D3F8CC237B681B6842F00102C3F86B
:103AC800CC237B68012283F8DD20002318460C37BD
:103AD800BD465DF8047B704780B584B000AF786060
:103AE8003960FEF781FAF86014E03B68B3F1FF3FF4
:103AF80010D0FEF779FA0246FB68D31A3A689A4260
:103B080002D33B68002B05D17B68072283F8DD20B0
:103B1800032311E07B681B68D3F8883303F48033F0
:103B2800B3F5803FE1D17B68012283F8DD207B6813
:103B3800002283F8DC20002318461037BD4680BDDC
:103B480080B584B000AFF860B9607A60FB6893F81C
:103B5800DD30DBB2022B01D1022315E0FB68022223
:103B680083F8DD20BB68062B04D17968F86800F07B
:103B7800A4FD04E07A68B968F86800F0CDFDFB6838
:103B8800012283F8DD20002318461037BD4680BD8A
:103B980080B487B000AFF860B9607A60FB6893F8CA
:103BA800DD30DBB2022B01D10223D7E1FB6893F8A9
:103BB800DC30012B01D10223D0E1FB68012283F81C
:103BC800DC20FB68022283F8DD20FB681B68D3F841
:103BD80080337B61FB681B68D3F8FC333B61BB68AF
:103BE800B3F5007F00F06D81BB68B3F5007F00F28C
:103BF8008D81BB68B3F5807F00F03F81BB68B3F56A
:103C0800807F00F28381BB68802B00F01181BB6844
:103C1800802B00F27B81BB68202B4BD8BB68002B24
:103C280000F07481BB68013B1F2B00F26F8101A279
:103C380052F823F0C73C0008EB3C0008153F000889
:103C4800113D0008153F0008153F0008153F000802
:103C5800373D0008153F0008153F0008153F0008CC
:103C6800153F0008153F0008153F0008153F0008DC
:103C78005D3D0008153F0008153F0008153F000886
:103C8800153F0008153F0008153F0008153F0008BC
:103C9800153F0008153F0008153F0008153F0008AC
:103CA800153F0008153F0008153F0008153F00089C
:103CB800A53D0008BB68402B00F0958026E17B6994
:103CC80023F4E0237B617B681B6803F4E0237A69B3
:103CD80013437B61FB681B687A685268C3F8BC238E
:103CE8001DE17B6923F460137B617B681B68DB0043
:103CF80003F460137A6913437B61FB681B687A6875
:103D08005268C3F8C0230AE17B6923F0E0737B6142
:103D18007B681B689B0103F0E0737A6913437B613E
:103D2800FB681B687A685268C3F8C423F7E07B69AC
:103D380023F060637B617B681B685B0203F0606350
:103D48007A6913437B61FB681B687A685268C3F819
:103D5800C823E4E03B6923F007033B617B681B68E9
:103D68001B0C03F007033A6913433B61FB681B68AC
:103D7800D3F8F823FB681B6822F01F02C3F8F82366
:103D8800FB681B68D3F8F8137B685B6803F01F02B5
:103D9800FB681B680A43C3F8F823C0E03B6923F0BB
:103DA80070033B617B681B681B0B03F070033A6967
:103DB80013433B61FB681B68D3F8F823FB681B6857
:103DC80022F47872C3F8F823FB681B68D3F8F81359
:103DD8007B685B685B0103F47872FB681B680A43C5
:103DE800C3F8F8239BE03B6923F4E0633B617B68FD
:103DF8001B681B0A03F4E0633A6913433B61FB68E1
:103E08001B68D3F8F823FB681B6822F4F842C3F850
:103E1800F823FB681B68D3F8F8137B685B689B0280
:103E280003F4F842FB681B680A43C3F8F82376E0FA
:103E38003B6923F4E0433B617B681B681B0903F47F
:103E4800E0433A6913433B61FB681B68D3F8F823E6
:103E5800FB681B6822F4F812C3F8F823FB681B6898
:103E6800D3F8F8137B685B681B0403F4F812FB684B
:103E78001B680A43C3F8F82351E03B6923F4E023A5
:103E88003B617B681B6803F4E0233A6913433B6199
:103E9800FB681B68D3F8F823FB681B6822F078726C
:103EA800C3F8F823FB681B68D3F8F8137B685B68D2
:103EB8005B0503F07872FB681B680A43C3F8F823B4
:103EC8002DE03B6923F4E0033B617B681B681B0121
:103ED80003F4E0033A6913433B61FB681B68D3F8BA
:103EE800F823FB681B6822F0F842C3F8F823FB6844
:103EF8001B68D3F8F8137B685B689B0603F0F842ED
:103F0800FB681B680A43C3F8F82308E0FB6807222C
:103F180083F8DD20FB68002283F8DC2000BFFB6803
:103F280093F8DD30DBB2072B01D1012316E0BB6823
:103F38000F2B05D8FB681B687A69C3F8802304E057
:103F4800FB681B683A69C3F8FC23FB68012283F805
:103F5800DD20FB68002283F8DC20002318461C378C
:103F6800BD465DF8047B704780B485B000AFF8604B
:103F7800B9607A60FB6893F8DD30DBB2022B01D1BF
:103F8800022335E1FB6893F8DC30012B01D10223D1
:103F98002EE1FB68012283F8DC20FB68022283F80B
:103FA800DD20BB68B3F5007F00F0F880BB68B3F58F
:103FB800007F00F20381BB68B3F5807F00F0DE80EC
:103FC800BB68B3F5807F00F2F980BB68802B00F0F6
:103FD800C580BB68802B00F2F180BB68202B4BD8D2
:103FE800BB68002B00F0EA80BB68013B1F2B00F286
:103FF800E58001A252F823F089400008A740000894
:10400800C5410008C7400008C5410008C54100086F
:10401800C5410008E7400008C5410008C54100083F
:10402800C5410008C5410008C5410008C541000850
:10403800C541000807410008C5410008C5410008FE
:10404800C5410008C5410008C5410008C541000830
:10405800C5410008C5410008C5410008C541000820
:10406800C5410008C5410008C5410008C541000810
:10407800C541000827410008BB68402B5ED09DE081
:10408800FB681B68D3F8003423F01F017B6803F03A
:104098001F02FB681B680A43C3F8002497E0FB680B
:1040A8001B68D3F8003423F4F8617B689B0103F4A0
:1040B800F862FB681B680A43C3F8002487E0FB68C2
:1040C8001B68D3F8003423F4F8317B681B0303F42E
:1040D800F832FB681B680A43C3F8002477E0FB68E2
:1040E8001B68D3F8003423F4F8017B689B0403F4BD
:1040F800F802FB681B680A43C3F8002467E0FB6802
:104108001B68D3F8003423F0F8517B681B0603F0D2
:10411800F852FB681B680A43C3F8002457E0FB68A1
:104128001B68D3F8043423F01F017B6803F01F02D7
:10413800FB681B680A43C3F8042448E0FB681B6853
:10414800D3F8043423F4F8617B689B0103F4F86224
:10415800FB681B680A43C3F8042438E0FB681B6843
:10416800D3F8043423F4F8317B681B0303F4F832E2
:10417800FB681B680A43C3F8042428E0FB681B6833
:10418800D3F8043423F4F8017B689B0403F4F802A1
:10419800FB681B680A43C3F8042418E0FB681B6823
:1041A800D3F8043423F0F8517B681B0603F0F85267
:1041B800FB681B680A43C3F8042408E0FB6807226D
:1041C80083F8DD20FB68002283F8DC2000BFFB6851
:1041D80093F8DD30DBB2072B01D1012308E0FB683F
:1041E800012283F8DD20FB68002283F8DC2000230D
:1041F80018461437BD465DF8047B704780B584B017
:1042080000AFF860B9607A60FB6893F8DD30DBB224
:10421800022B01D102237AE0FB6893F8DC30012BF2
:1042280001D1022373E0FB68012283F8DC20FB68DC
:10423800022283F8DD20BB68062B04D17968F86870
:1042480000F0AAFA04E07A68B968F86800F042FB5E
:104258007B681968F868BA681346DB009B1A9B00EC
:104268000344203319607B685968F868BA681346B4
:10427800DB009B1A9B000344243319607B68996810
:10428800F868BA681346DB009B1A9B00034428337E
:1042980019607B68D968F868BA681346DB009B1A0E
:1042A8009B0003442C3319607B681969F868BA6865
:1042B8001346DB009B1A9B00034430331960B9682E
:1042C800F86800F0D5FDBB68062B17D07B68DB6A61
:1042D800002B13D1FB681A68BB680133DB01134458
:1042E8001B6823F400727B68DB6D5B02F968096860
:1042F8001A43BB680133DB010B441A60FB680122D7
:1043080083F8DD20FB68002283F8DC2000231846B0
:104318001037BD4680BD80B584B000AFF860B96085
:104328007A60FB6893F8DD30DBB2022B01D10223FF
:1043380020E0FB6893F8DC30012B01D1022319E05F
:10434800FB68012283F8DC20FB68022283F8DD2069
:104358007A68B968F86800F043FCB968F86800F052
:1043680087FDFB68012283F8DD20FB68002283F8C3
:10437800DC20002318461037BD4680BD80B485B0C8
:1043880000AFF860B9607A603B60FB6893F8DD3095
:10439800DBB2022B01D1022357E1FB6893F8DC3032
:1043A800012B01D1022350E1FB68012283F8DC20B4
:1043B800FB68022283F8DD20BB68062B40D17B68AE
:1043C800013B072B2AD801A252F823F0F543000835
:1043D80001440008254400080D440008254400084D
:1043E800254400082544000819440008FB681B6898
:1043F8003A681268DA611AE0FB681B683A68126862
:104408005A6214E0FB681B683A6812689A620EE008
:10441800FB681B683A681268DA6208E0FB680722E2
:1044280083F8DD20FB68002283F8DC2000BFFB68EE
:1044380093F8DD30DBB2072B40F0FE80012304E166
:104448007B68013B072B00F2E38001A252F823F0BE
:10445800794400088D4400081946000849450008B9
:104468001946000819460008194600085D45000865
:10447800FB6819683B681A68BB68DB010B449C330E
:104488001A60D1E0FB6819683B681A68BB68DB01F1
:104498000B44A4331A603B685B68002B3FD0FB6871
:1044A8001A68BB680133DB0113441B68FA6811689A
:1044B80023F44052BB680133DB010B441A60FB68EC
:1044C8001A68BB680133DB0113441A683B685B68F0
:1044D800F96809681A43BB680133DB010B441A60A9
:1044E8003B685B68B3F5005F09D1FB6819683B68F6
:1044F8009A68BB68DB010B449C331A6091E03B6807
:104508005B68B3F5405F40F08C80FB6819683B68D6
:104518009A68BB68DB010B44A8331A6081E0FB682A
:104528001A68BB680133DB0113441B68FA68116819
:1045380023F44052BB680133DB010B441A6070E07E
:10454800FB6819683B681A68BB68DB010B44A83331
:104558001A6069E0FB6819683B681A68BB68DB0188
:104568000B44AC331A603B685B68002B3FD0FB6898
:104578001A68BB680133DB0113441B68FA681168C9
:1045880023F44042BB680133DB010B441A60FB682B
:104598001A68BB680133DB0113441A683B685B681F
:1045A8009B00F96809681A43BB680133DB010B44B7
:1045B8001A603B685B68B3F5005F09D1FB6819684E
:1045C8003B689A68BB68DB010B449C331A602AE09D
:1045D8003B685B68B3F5405F25D1FB6819683B68A9
:1045E8009A68BB68DB010B44A8331A601BE0FB68C0
:1045F8001A68BB680133DB0113441B68FA68116849
:1046080023F44042BB680133DB010B441A600AE023
:10461800FB68072283F8DD20FB68002283F8DC2092
:1046280002E000BF00E000BFFB6893F8DD30DBB2BA
:10463800072B01D1012308E0FB68012283F8DD2064
:10464800FB68002283F8DC20002318461437BD4697
:104658005DF8047B704700BF80B584B000AFF86098
:10466800B9607A603B60FB6893F8DD30DBB2022BFF
:1046780001D102231DE0FB6893F8DC30012B01D146
:10468800022316E0FB68012283F8DC20FB68022283
:1046980083F8DD203B687A68B968F86800F000FBA9
:1046A800FB68012283F8DD20FB68002283F8DC2008
:1046B800002318461037BD4680BD80B485B000AFD2
:1046C800786039607B681B681B68FB60FB6823F0B7
:1046D8000703FB603B689B68FA681343FB60FB6851
:1046E80023F01803FB603B68DB68FA681343FB6040
:1046F8007B681B68FA681A607B681B683A681268EE
:104708005A617B681B683A6852689A6100BF14371F
:10471800BD465DF8047B704780B487B000AFF86091
:10472800B9607A60FB681A68BB680133DB0113441F
:104738001B687B617B6923F007037B617B689B684F
:104748007A6913437B617B6923F018037B617B687B
:10475800DB687A6913437B61FB681A68BB680133BD
:10476800DB0113447A691A60FB6819687B681A6868
:10477800BB68DB010B4494331A60FB6819687B68DB
:104788005A68BB68DB010B4498331A6000BF1C37BA
:10479800BD465DF8047B704780B485B000AF786093
:1047A80039607B681B681B68FB607B681B68D3F8F3
:1047B800A033BB60FB6823F02003FB603B685B69A8
:1047C800FA681343FB60FB6823F0C003FB603B6897
:1047D8005B69202B03D03B689B69022B08D1FB68DF
:1047E80023F0C003FB60FB6843F02003FB6021E07B
:1047F8003B689B69032B08D1FB6843F04003FB60CF
:10480800FB6823F08003FB6014E03B689B69042B82
:1048180008D1FB6843F08003FB60FB6823F040038A
:10482800FB6007E0FB6823F02003FB60FB6823F0D4
:10483800C003FB60FB6823F40063FB603B68DB6933
:10484800FA681343FB60FB6823F48063FB603B68F2
:104858001B6AFA681343FB60FB6823F0C063FB60C4
:104868003B685B6AFA681343FB60FB6823F00063EC
:10487800FB603B689B6AFA681343FB60FB6823F0A4
:104888004043FB603B68DB6A9B00FA681343FB60AC
:10489800FB6823F00053FB603B685B6BFA681343CB
:1048A800FB60BB6823F48033BB603B681B6BBA6852
:1048B8001343BB607B681B68FA681A607B681B68D7
:1048C800BA68C3F8A02300BF1437BD465DF8047B5F
:1048D8007047000080B48BB000AFF860B9607A60B0
:1048E800FB681A68BB680133DB0113441B68FA686C
:1048F800116823F07042BB680133DB010B441A6076
:10490800FB681A68BB680133DB0113441B687B62D0
:10491800FB681A68BB68DB011344E8331B68BB619A
:10492800FB681A68BB68DB011344E4331B683B620D
:10493800FB681B68D3F8A033FB617B6A23F0200374
:104948007B627B685B697A6A13437B627B685B691D
:10495800202B03D07B689B69022B08D17B6A23F448
:10496800C0737B627B6A43F020037B6221E07B6833
:104978009B69032B08D17B6A43F080037B627B6AC7
:1049880023F480737B6214E07B689B69042B08D155
:104998007B6A43F480737B627B6A23F080037B62CB
:1049A80007E07B6A23F020037B627B6A23F4C073F1
:1049B8007B627B6A23F400637B627B68DB697A6ACB
:1049C80013437B627B6A23F480637B627B681B6A88
:1049D8007A6A13437B627B6A23F0C0637B627B68DD
:1049E8005B6A7A6A13437B627B6A23F000637B62AB
:1049F8007B689B6A7A6A13437B627B6A23F0704305
:104A08007B627B68DB6A7A6A13437B627B6A23F486
:104A180000337B627B685B6BB3F1005F03D17B6A19
:104A280043F400337B627B6A23F040037B627B683C
:104A38009B6B7A6A13437B627B6A23F480237B62D5
:104A48007B689B6D7A6A13437B627B6A23F0FC73F5
:104A580023F480337B627B681B6D7A6A13437B6225
:104A6800BB6923F03F03BB617B68DB6B03F03F034B
:104A7800BA691343BB61BB6923F00043BB617B6820
:104A88001B6CBA691343BB613B6A23F480733B62B6
:104A98007B685B6C3A6A13433B627B689B6CB3F53B
:104AA800606F04D07B689B6CB3F5F05F03D17B68C3
:104AB8009B6B402B08D13B6A23F4F0533B627B6825
:104AC8009B6C3A6A13433B623B6A23F480433B6224
:104AD8007B68DB6C3A6A13433B627B685B6D7B6186
:104AE800BB68052B50D801A252F823F00D4B0008E3
:104AF800234B0008394B00084F4B0008654B000852
:104B08007B4B0008FB6923F40033FB617B681B6B5C
:104B18005B00FA691343FB6137E0FB6923F48023E8
:104B2800FB617B681B6B9B00FA691343FB612CE0FC
:104B3800FB6923F40023FB617B681B6BDB00FA69CC
:104B48001343FB6121E0FB6923F48013FB617B685D
:104B58001B6B1B01FA691343FB6116E0FB6923F425
:104B68000013FB617B681B6B5B01FA691343FB61F4
:104B78000BE0FB6923F48003FB617B681B6B9B01E3
:104B8800FA691343FB6100E000BFFB681A68BB6861
:104B98000133DB0113447A6A1A60FB681A68BB6840
:104BA800DB011344E833BA691A60FB681A68BB680A
:104BB800DB011344E4333A6A1A60FB681A68BB687D
:104BC800DB011344D4337A691A60FB681B68FA69FD
:104BD800C3F8A02300BF2C37BD465DF8047B70479F
:104BE80080B487B000AFF860B9607A60FB681A6873
:104BF800BB68DB011344EC331B687B617B6923F0E2
:104C080010037B617B681B681B017A6913437B6116
:104C18007B6923F480137B617B685B687A69134343
:104C28007B617B6923F480337B617B68DB687A690D
:104C380013437B617B6923F400337B617B689B684A
:104C48007A6913437B617B689B69012B1AD17B6965
:104C580023F004037B617B681B697A6913437B61DA
:104C68007B6923F002037B617B685B697A69134384
:104C78007B617B6923F001037B617B689B697A69AF
:104C880013437B61FB681A68BB68DB011344EC3390
:104C98007A691A6000BF1C37BD465DF8047B70470F
:104CA80080B489B000AFF860B9607A603B600023D7
:104CB800BB61FB681A68BB68DB011344E4331B68FB
:104CC800FB61FB681A68BB68DB011344B8331B68D7
:104CD8007B617B68B3F5006F5DD07B68B3F5006FCF
:104CE8006ED87B68B3F5806F42D07B68B3F5806F70
:104CF80066D87B68B3F5007F4DD07B68B3F5007F3D
:104D08005ED87B68B3F5807F32D07B68B3F5807F4F
:104D180056D87B68802B3ED07B68802B50D87B6828
:104D2800402B25D07B68402B4AD87B68012B1FD0AD
:104D38007B68002B44D07B68202B41D87B68022BF2
:104D48003ED37B68023B01229A40484B1340002B1C
:104D580014BF01230023DBB2002B1CD144F204034F
:104D68001340002B14BF01230023DBB2002B27D0F4
:104D7800FB6819683B685A68BB68DB010B44BC33A5
:104D88001A60FB6819683B689A68BB68DB010B44CA
:104D9800C0331A6015E0FB6819683B685A68BB683D
:104DA800DB010B44C4331A60FB6819683B689A68D6
:104DB800BB68DB010B44C8331A601023BB6100E0F9
:104DC80000BFFE22BB6902FA03F3DB43FA69134012
:104DD800FB613B681A68BB6902FA03F3FA6913437B
:104DE800FB613B68DA68BB6902FA03F3FA691343AB
:104DF800FB613B681A69BB6902FA03F3FA6913435A
:104E0800FB613B685A69BB6902FA03F3FA69134309
:104E1800FB613B689A69BB6902FA03F3FA691343B9
:104E2800FB613B681B69082B11D17B6903F4007394
:104E3800002B0CD17B6903F00073002B07D13B6872
:104E4800DA69BB6902FA03F3FA691343FB61FB6889
:104E58001A68BB68DB011344E433FA691A6000BFBF
:104E68002437BD465DF8047B704700BF4100004011
:104E780080B483B000AF786039603B68062B5ED899
:104E880001A252F823F000BFC34E0008D94E000813
:104E9800EF4E0008054F00081B4F0008314F00086F
:104EA800AD4E00087B681B68D3F884237B681B68B9
:104EB80042F00102C3F8842342E07B681B68D3F800
:104EC80084237B681B6842F00202C3F8842337E01E
:104ED8007B681B68D3F884237B681B6842F0040254
:104EE800C3F884232CE07B681B68D3F884237B6891
:104EF8001B6842F00802C3F8842321E07B681B6822
:104F0800D3F884237B681B6842F01002C3F884231B
:104F180016E07B681B68D3F884237B681B6842F023
:104F28002002C3F884230BE07B681B68D3F8842332
:104F38007B681B6842F04002C3F8842300E000BF8E
:104F480000BF0C37BD465DF8047B704780B400AFE6
:104F5800064BD3F88830054A43F47003C2F888300A
:104F680000BFBD465DF8047B704700BF00ED00E060
:104F78000D488546FFF7EAFF0C480D490D4A002306
:104F880002E0D458C4500433C4188C42F9D30A4AF6
:104F98000A4C002301E013600432A242FBD3FBF762
:104FA80069F9FBF7AFF9FEE70000022000000020D6
:104FB8000C000020FC4F00080C00002064020020B8
:104FC800FEE70000F8B500BFF8BC08BC9E46704775
:0C4FD800F8B500BFF8BC08BC9E4670474E
:104FE4000000000000000000010203040607080995
:044FF400F1020008BE
:044FF800CD020008DE
:0C4FFC0010000000010000000024F40080
:0400000508004F7927
:00000001FF
